{
	"compilerInput": "{\"language\":\"Solidity\",\"sources\":{\"LPManagement.sol\":{\"content\":\"// SPDX-License-Identifier: MIT\\npragma solidity ^0.8.28;\\n\\nimport \\\"@openzeppelin/contracts/security/Pausable.sol\\\";\\nimport \\\"@openzeppelin/contracts/security/ReentrancyGuard.sol\\\";\\nimport \\\"@chainlink/contracts/src/v0.8/interfaces/AggregatorV3Interface.sol\\\";\\n\\ncontract LPManagement is Pausable, ReentrancyGuard {\\n    // Store the list of admins and default admin (public for reading)\\n    address[] public admins;\\n    mapping(address => bool) public isAdmin;\\n    address public defaultAdmin;\\n\\n    // Aggregator for ETH-USD price feed\\n    AggregatorV3Interface internal ethUsdPriceFeed;\\n\\n    // Struct to store Limited Partner data\\n    struct LPData {\\n        string name;               // Name of the LP\\n        uint256 commitmentAmount;  // Total commitment by the LP\\n        uint256 totalPaid;         // Amount already paid\\n        uint256 endTime; // Commitment Period\\n    }\\n\\n    uint256 public minCommitmentAmountUSD = 1000 * 10**18;\\n\\n    // Struct to store Cash Call data\\n    struct CashCall {\\n        uint256 amount;   // Amount requested in the cash call\\n        uint256 paidAmount;   // Amount paid towards the cash call\\n        uint256 deadline;  // Call interval duration\\n        bool executed;    // Whether the cash call has been executed\\n    }\\n\\n    // Mappings\\n    mapping(address => LPData) public lpData;         // LP data by address\\n    mapping(address => CashCall[]) public cashCalls;    // Cash calls by LP address\\n\\n    // Events\\n    event CommitmentSet(address indexed lp, uint256 amountETH, uint256 endTime);\\n    event PaymentMade(address indexed lp, string name, uint256 amount, uint256 callId);\\n    event CashCallCreated(uint256 callId, uint256 amount, uint256 deadline);\\n    event CashCallExecuted(address indexed lp, uint256 callId);\\n    event CashCallExecutionReverted(address indexed lp, uint256 callId);\\n    event PenaltyApplied(address indexed lp, uint256 penaltyAmount);\\n    event AccessRevoked(address indexed lp);\\n    event Withdrawal(address indexed to, uint256 amount);\\n    event AdminAdded(address indexed account);\\n    event AdminRemoved(address indexed account);\\n    event DefaultAdminChanged(address indexed oldAdmin, address indexed newAdmin);\\n\\n    constructor(address _aggregatorAddress, address _defaultAdmin) {\\n        require(_aggregatorAddress != address(0), \\\"Invalid aggregator address\\\");\\n        require(_defaultAdmin != address(0), \\\"Invalid default admin address\\\");\\n        \\n        ethUsdPriceFeed = AggregatorV3Interface(_aggregatorAddress);\\n        defaultAdmin = _defaultAdmin;\\n\\n        // Initially, set the default admin as the only admin\\n        addAdmin(_defaultAdmin);\\n    }\\n\\n    // Check if sender is the default admin\\n    modifier onlyDefaultAdmin() {\\n        require(msg.sender == defaultAdmin, \\\"Not authorized: Only default admin can perform this action\\\");\\n        _;\\n    }\\n\\n    // Check if sender is any admin (including default admin)\\n    modifier onlyAdmin() {\\n        require(isAdmin[msg.sender], \\\"Not authorized: Only admin can perform this action\\\");\\n        _;\\n    }\\n\\n    // Get ETH-USD exchange rate\\n    function getETHUSDCExchangeRate() public view returns (uint256) {\\n        (, int256 ethUsdPrice, , , ) = ethUsdPriceFeed.latestRoundData();\\n        require(ethUsdPrice > 0, \\\"Invalid ETH/USD price data\\\");\\n\\n        // Chainlink price feeds typically return prices with 8 decimals.\\n        return uint256(ethUsdPrice) * 1e10; // Adjust to 18 decimals for consistency\\n    }\\n\\n    // Function to set the minimum commitment amount in USD (only default admin)\\n    function setMinCommitmentAmountUSD(uint256 _minCommitmentAmountUSD) external onlyAdmin {\\n        require(_minCommitmentAmountUSD > 0, \\\"Minimum commitment amount must be greater than zero\\\");\\n        minCommitmentAmountUSD = _minCommitmentAmountUSD;\\n    }\\n\\n    // Set commitment for a Limited Partner (Admin only)\\n    function setCommitment(\\n        string memory _name,\\n        address _lp,\\n        uint256 _amountETH,\\n        uint256 _endTime\\n    ) external whenNotPaused onlyAdmin {\\n        require(_lp != address(0), \\\"Invalid LP address\\\");\\n        require(!isLP(_lp), \\\"LP already exists\\\");\\n        require(bytes(_name).length > 0, \\\"Name cannot be empty\\\");\\n        require(_amountETH * getETHUSDCExchangeRate() >= minCommitmentAmountUSD * 10**18, \\\"Commitment amount must be greater than minimum amount\\\");\\n        require(_endTime > block.timestamp, \\\"End Time must be later than the current time.\\\");\\n\\n        // Initialize LP data\\n        LPData storage lpInfo = lpData[_lp];\\n        lpInfo.name = _name;\\n        lpInfo.commitmentAmount = _amountETH;\\n        lpInfo.totalPaid = 0;\\n        lpInfo.endTime = _endTime;\\n\\n        emit CommitmentSet(_lp, _amountETH, _endTime);\\n    }\\n\\n    // Create a new cash call (Admin only)\\n    function createCashCall(address _lp, uint256 _amount, uint256 _deadline) external whenNotPaused onlyAdmin {\\n        require(isLP(_lp), \\\"Not an LP!\\\");\\n        require(_amount > 0, \\\"Cash call amount must be greater than zero\\\");\\n        require(_deadline > block.timestamp && _deadline <= lpData[_lp].endTime, \\\"Deadline must be later than the current time.\\\");\\n        // Check if there are existing cash calls and compare with the last one\\n        CashCall[] storage existingCalls = cashCalls[_lp];\\n        if (existingCalls.length > 0) {\\n            uint256 lastDeadline = existingCalls[existingCalls.length - 1].deadline;\\n            require(_deadline > lastDeadline, \\\"New deadline must be after the last deadline\\\");\\n        }\\n\\n        // Add the new CashCall\\n        cashCalls[_lp].push(CashCall(_amount, 0, _deadline, false));  // Add the new CashCall with initial values\\n        emit CashCallCreated(existingCalls.length, _amount, _deadline);\\n    }\\n\\n    // Function to get all cash calls for a specific LP\\n    function getCashCalls(address _lp) external view returns (CashCall[] memory) {\\n        return cashCalls[_lp];\\n    }\\n\\n    // Make a payment (LP only)\\n    function makePayment(address _lp, uint256 _callId) external payable whenNotPaused nonReentrant {\\n        require(isLP(_lp), \\\"You are not an LP\\\");\\n\\n        // Retrieve the cash call for the LP and call ID\\n        CashCall storage cashCall = cashCalls[_lp][_callId];\\n        require(cashCall.amount > 0, \\\"Cash call does not exist\\\");\\n\\n        // Check if the cash call has been executed or if the deadline has passed\\n        require(!cashCall.executed, \\\"Cash call already executed\\\");\\n\\n        // Update the paid amount for the cash call\\n        cashCall.paidAmount += msg.value;\\n\\n        // Update LP Data\\n        lpData[msg.sender].totalPaid += msg.value;\\n\\n        // Emit an event to notify that payment has been made\\n        emit PaymentMade(_lp, lpData[msg.sender].name, msg.value, _callId);\\n    }\\n\\n    // Execute a cash call (Admin only)\\n    function executeCashCall(address _lp, uint256 _callId) external whenNotPaused onlyAdmin {\\n        CashCall storage call = cashCalls[_lp][_callId];\\n        require(call.amount > 0, \\\"Cash call does not exist\\\");\\n        require(!call.executed, \\\"Cash call already executed\\\");\\n\\n        // Execute the cash call logic\\n        call.executed = true;\\n\\n        emit CashCallExecuted(_lp, _callId);\\n    }\\n\\n    // Revert the execution of a cash call (Admin only)\\n    function revertExecution(address _lp, uint256 _callId) external whenNotPaused onlyAdmin {\\n        require(isLP(_lp), \\\"Not an LP!\\\");\\n        CashCall storage call = cashCalls[_lp][_callId];\\n        require(call.amount > 0, \\\"Cash call does not exist\\\");\\n        require(call.executed, \\\"Cash call not executed yet\\\");\\n\\n        // Revert the executed flag back to false\\n        call.executed = false;\\n\\n        emit CashCallExecutionReverted(_lp, _callId);\\n    }\\n\\n    // Apply penalties for missed deadlines (Admin only)\\n    function applyPenalty(address _lp, uint256 _penaltyAmount, bool _revokeAccess) external whenNotPaused onlyAdmin {\\n        LPData storage lpInfo = lpData[_lp];\\n        require(lpInfo.commitmentAmount > 0, \\\"Invalid LP\\\");\\n\\n        // Apply late fee\\n        lpInfo.totalPaid -= _penaltyAmount;\\n        emit PenaltyApplied(_lp, _penaltyAmount);\\n\\n        // Revoke access if applicable\\n        if (_revokeAccess) {\\n            lpInfo.commitmentAmount = 0;\\n            lpInfo.totalPaid = 0;\\n            emit AccessRevoked(_lp);\\n        }\\n    }\\n\\n    // Add a new admin (only default admin)\\n    function addAdmin(address _account) public onlyDefaultAdmin {\\n        require(_account != address(0), \\\"Invalid address\\\");\\n        require(!isAdmin[_account], \\\"Already an admin\\\");\\n\\n        // Add the new admin\\n        admins.push(_account);\\n        isAdmin[_account] = true;\\n\\n        emit AdminAdded(_account);\\n    }\\n\\n    // Remove an admin (only default admin)\\n    function removeAdmin(address _account) public onlyDefaultAdmin {\\n        require(isAdmin[_account], \\\"Not an admin\\\");\\n\\n        // Prevent removing the last admin\\n        require(admins.length > 1, \\\"Cannot remove the last admin\\\");\\n\\n        // Remove admin\\n        isAdmin[_account] = false;\\n\\n        // Remove from the admins array\\n        for (uint256 i = 0; i < admins.length; i++) {\\n            if (admins[i] == _account) {\\n                admins[i] = admins[admins.length - 1];\\n                admins.pop();\\n                break;\\n            }\\n        }\\n\\n        emit AdminRemoved(_account);\\n    }\\n\\n    // Set a new default admin (only the current default admin)\\n    function setDefaultAdmin(address _newDefaultAdmin) public onlyDefaultAdmin {\\n        require(_newDefaultAdmin != address(0), \\\"Invalid address for new default admin\\\");\\n\\n        address oldAdmin = defaultAdmin;\\n        addAdmin(_newDefaultAdmin);\\n\\n        defaultAdmin = _newDefaultAdmin;\\n\\n        emit DefaultAdminChanged(oldAdmin, _newDefaultAdmin);\\n    }\\n\\n    // Function to get the list of admins\\n    function getAdmins() public view returns (address[] memory) {\\n        return admins;\\n    }\\n\\n    // Check if an LP address exists in lpData\\n    function isLP(address _lp) private view returns (bool) {\\n        return lpData[_lp].commitmentAmount > 0;\\n    }\\n\\n    // Pause the contract (Admin only)\\n    function pause() external onlyAdmin {\\n        _pause();\\n    }\\n\\n    // Unpause the contract (Admin only)\\n    function unpause() external onlyAdmin {\\n        _unpause();\\n    }\\n\\n    // Withdraw Ether from the contract (Admin only)\\n    function withdraw(uint256 _amount, address _to) external onlyAdmin nonReentrant {\\n        require(_amount <= address(this).balance, \\\"Insufficient balance in contract\\\");\\n        payable(_to).transfer(_amount);\\n        emit Withdrawal(_to, _amount);\\n    }\\n\\n    // Fallback function to receive Ether\\n    receive() external payable whenNotPaused {}\\n}\\n\"},\"@chainlink/contracts/src/v0.8/interfaces/AggregatorV3Interface.sol\":{\"content\":\"// SPDX-License-Identifier: MIT\\npragma solidity ^0.8.0;\\n\\ninterface AggregatorV3Interface {\\n  function decimals() external view returns (uint8);\\n\\n  function description() external view returns (string memory);\\n\\n  function version() external view returns (uint256);\\n\\n  function getRoundData(\\n    uint80 _roundId\\n  ) external view returns (uint80 roundId, int256 answer, uint256 startedAt, uint256 updatedAt, uint80 answeredInRound);\\n\\n  function latestRoundData()\\n    external\\n    view\\n    returns (uint80 roundId, int256 answer, uint256 startedAt, uint256 updatedAt, uint80 answeredInRound);\\n}\\n\"},\"@openzeppelin/contracts/security/ReentrancyGuard.sol\":{\"content\":\"// SPDX-License-Identifier: MIT\\n// OpenZeppelin Contracts (last updated v4.9.0) (security/ReentrancyGuard.sol)\\n\\npragma solidity ^0.8.0;\\n\\n/**\\n * @dev Contract module that helps prevent reentrant calls to a function.\\n *\\n * Inheriting from `ReentrancyGuard` will make the {nonReentrant} modifier\\n * available, which can be applied to functions to make sure there are no nested\\n * (reentrant) calls to them.\\n *\\n * Note that because there is a single `nonReentrant` guard, functions marked as\\n * `nonReentrant` may not call one another. This can be worked around by making\\n * those functions `private`, and then adding `external` `nonReentrant` entry\\n * points to them.\\n *\\n * TIP: If you would like to learn more about reentrancy and alternative ways\\n * to protect against it, check out our blog post\\n * https://blog.openzeppelin.com/reentrancy-after-istanbul/[Reentrancy After Istanbul].\\n */\\nabstract contract ReentrancyGuard {\\n    // Booleans are more expensive than uint256 or any type that takes up a full\\n    // word because each write operation emits an extra SLOAD to first read the\\n    // slot's contents, replace the bits taken up by the boolean, and then write\\n    // back. This is the compiler's defense against contract upgrades and\\n    // pointer aliasing, and it cannot be disabled.\\n\\n    // The values being non-zero value makes deployment a bit more expensive,\\n    // but in exchange the refund on every call to nonReentrant will be lower in\\n    // amount. Since refunds are capped to a percentage of the total\\n    // transaction's gas, it is best to keep them low in cases like this one, to\\n    // increase the likelihood of the full refund coming into effect.\\n    uint256 private constant _NOT_ENTERED = 1;\\n    uint256 private constant _ENTERED = 2;\\n\\n    uint256 private _status;\\n\\n    constructor() {\\n        _status = _NOT_ENTERED;\\n    }\\n\\n    /**\\n     * @dev Prevents a contract from calling itself, directly or indirectly.\\n     * Calling a `nonReentrant` function from another `nonReentrant`\\n     * function is not supported. It is possible to prevent this from happening\\n     * by making the `nonReentrant` function external, and making it call a\\n     * `private` function that does the actual work.\\n     */\\n    modifier nonReentrant() {\\n        _nonReentrantBefore();\\n        _;\\n        _nonReentrantAfter();\\n    }\\n\\n    function _nonReentrantBefore() private {\\n        // On the first call to nonReentrant, _status will be _NOT_ENTERED\\n        require(_status != _ENTERED, \\\"ReentrancyGuard: reentrant call\\\");\\n\\n        // Any calls to nonReentrant after this point will fail\\n        _status = _ENTERED;\\n    }\\n\\n    function _nonReentrantAfter() private {\\n        // By storing the original value once again, a refund is triggered (see\\n        // https://eips.ethereum.org/EIPS/eip-2200)\\n        _status = _NOT_ENTERED;\\n    }\\n\\n    /**\\n     * @dev Returns true if the reentrancy guard is currently set to \\\"entered\\\", which indicates there is a\\n     * `nonReentrant` function in the call stack.\\n     */\\n    function _reentrancyGuardEntered() internal view returns (bool) {\\n        return _status == _ENTERED;\\n    }\\n}\\n\"},\"@openzeppelin/contracts/security/Pausable.sol\":{\"content\":\"// SPDX-License-Identifier: MIT\\n// OpenZeppelin Contracts (last updated v4.7.0) (security/Pausable.sol)\\n\\npragma solidity ^0.8.0;\\n\\nimport \\\"../utils/Context.sol\\\";\\n\\n/**\\n * @dev Contract module which allows children to implement an emergency stop\\n * mechanism that can be triggered by an authorized account.\\n *\\n * This module is used through inheritance. It will make available the\\n * modifiers `whenNotPaused` and `whenPaused`, which can be applied to\\n * the functions of your contract. Note that they will not be pausable by\\n * simply including this module, only once the modifiers are put in place.\\n */\\nabstract contract Pausable is Context {\\n    /**\\n     * @dev Emitted when the pause is triggered by `account`.\\n     */\\n    event Paused(address account);\\n\\n    /**\\n     * @dev Emitted when the pause is lifted by `account`.\\n     */\\n    event Unpaused(address account);\\n\\n    bool private _paused;\\n\\n    /**\\n     * @dev Initializes the contract in unpaused state.\\n     */\\n    constructor() {\\n        _paused = false;\\n    }\\n\\n    /**\\n     * @dev Modifier to make a function callable only when the contract is not paused.\\n     *\\n     * Requirements:\\n     *\\n     * - The contract must not be paused.\\n     */\\n    modifier whenNotPaused() {\\n        _requireNotPaused();\\n        _;\\n    }\\n\\n    /**\\n     * @dev Modifier to make a function callable only when the contract is paused.\\n     *\\n     * Requirements:\\n     *\\n     * - The contract must be paused.\\n     */\\n    modifier whenPaused() {\\n        _requirePaused();\\n        _;\\n    }\\n\\n    /**\\n     * @dev Returns true if the contract is paused, and false otherwise.\\n     */\\n    function paused() public view virtual returns (bool) {\\n        return _paused;\\n    }\\n\\n    /**\\n     * @dev Throws if the contract is paused.\\n     */\\n    function _requireNotPaused() internal view virtual {\\n        require(!paused(), \\\"Pausable: paused\\\");\\n    }\\n\\n    /**\\n     * @dev Throws if the contract is not paused.\\n     */\\n    function _requirePaused() internal view virtual {\\n        require(paused(), \\\"Pausable: not paused\\\");\\n    }\\n\\n    /**\\n     * @dev Triggers stopped state.\\n     *\\n     * Requirements:\\n     *\\n     * - The contract must not be paused.\\n     */\\n    function _pause() internal virtual whenNotPaused {\\n        _paused = true;\\n        emit Paused(_msgSender());\\n    }\\n\\n    /**\\n     * @dev Returns to normal state.\\n     *\\n     * Requirements:\\n     *\\n     * - The contract must be paused.\\n     */\\n    function _unpause() internal virtual whenPaused {\\n        _paused = false;\\n        emit Unpaused(_msgSender());\\n    }\\n}\\n\"},\"@openzeppelin/contracts/utils/Context.sol\":{\"content\":\"// SPDX-License-Identifier: MIT\\n// OpenZeppelin Contracts (last updated v5.0.1) (utils/Context.sol)\\n\\npragma solidity ^0.8.20;\\n\\n/**\\n * @dev Provides information about the current execution context, including the\\n * sender of the transaction and its data. While these are generally available\\n * via msg.sender and msg.data, they should not be accessed in such a direct\\n * manner, since when dealing with meta-transactions the account sending and\\n * paying for execution may not be the actual sender (as far as an application\\n * is concerned).\\n *\\n * This contract is only required for intermediate, library-like contracts.\\n */\\nabstract contract Context {\\n    function _msgSender() internal view virtual returns (address) {\\n        return msg.sender;\\n    }\\n\\n    function _msgData() internal view virtual returns (bytes calldata) {\\n        return msg.data;\\n    }\\n\\n    function _contextSuffixLength() internal view virtual returns (uint256) {\\n        return 0;\\n    }\\n}\\n\"}},\"settings\":{\"optimizer\":{\"enabled\":false,\"runs\":200},\"outputSelection\":{\"*\":{\"\":[\"ast\"],\"*\":[\"abi\",\"metadata\",\"devdoc\",\"userdoc\",\"storageLayout\",\"evm.legacyAssembly\",\"evm.bytecode\",\"evm.deployedBytecode\",\"evm.methodIdentifiers\",\"evm.gasEstimates\",\"evm.assembly\"]}},\"remappings\":[]}}",
	"name": "LPManagement",
	"bytecode": {
		"linkReferences": {},
		"object": "6080604052683635c9adc5dea0000060065534801561001c575f5ffd5b5060405161465e38038061465e833981810160405281019061003e91906104af565b5f5f5f6101000a81548160ff021916908315150217905550600180819055505f73ffffffffffffffffffffffffffffffffffffffff168273ffffffffffffffffffffffffffffffffffffffff16036100cb576040517f08c379a00000000000000000000000000000000000000000000000000000000081526004016100c290610547565b60405180910390fd5b5f73ffffffffffffffffffffffffffffffffffffffff168173ffffffffffffffffffffffffffffffffffffffff1603610139576040517f08c379a0000000000000000000000000000000000000000000000000000000008152600401610130906105af565b60405180910390fd5b8160055f6101000a81548173ffffffffffffffffffffffffffffffffffffffff021916908373ffffffffffffffffffffffffffffffffffffffff1602179055508060045f6101000a81548173ffffffffffffffffffffffffffffffffffffffff021916908373ffffffffffffffffffffffffffffffffffffffff1602179055506101c8816101cf60201b60201c565b505061072b565b60045f9054906101000a900473ffffffffffffffffffffffffffffffffffffffff1673ffffffffffffffffffffffffffffffffffffffff163373ffffffffffffffffffffffffffffffffffffffff161461025e576040517f08c379a00000000000000000000000000000000000000000000000000000000081526004016102559061063d565b60405180910390fd5b5f73ffffffffffffffffffffffffffffffffffffffff168173ffffffffffffffffffffffffffffffffffffffff16036102cc576040517f08c379a00000000000000000000000000000000000000000000000000000000081526004016102c3906106a5565b60405180910390fd5b60035f8273ffffffffffffffffffffffffffffffffffffffff1673ffffffffffffffffffffffffffffffffffffffff1681526020019081526020015f205f9054906101000a900460ff1615610356576040517f08c379a000000000000000000000000000000000000000000000000000000000815260040161034d9061070d565b60405180910390fd5b600281908060018154018082558091505060019003905f5260205f20015f9091909190916101000a81548173ffffffffffffffffffffffffffffffffffffffff021916908373ffffffffffffffffffffffffffffffffffffffff160217905550600160035f8373ffffffffffffffffffffffffffffffffffffffff1673ffffffffffffffffffffffffffffffffffffffff1681526020019081526020015f205f6101000a81548160ff0219169083151502179055508073ffffffffffffffffffffffffffffffffffffffff167f44d6d25963f097ad14f29f06854a01f575648a1ef82f30e562ccd3889717e33960405160405180910390a250565b5f5ffd5b5f73ffffffffffffffffffffffffffffffffffffffff82169050919050565b5f61047e82610455565b9050919050565b61048e81610474565b8114610498575f5ffd5b50565b5f815190506104a981610485565b92915050565b5f5f604083850312156104c5576104c4610451565b5b5f6104d28582860161049b565b92505060206104e38582860161049b565b9150509250929050565b5f82825260208201905092915050565b7f496e76616c69642061676772656761746f7220616464726573730000000000005f82015250565b5f610531601a836104ed565b915061053c826104fd565b602082019050919050565b5f6020820190508181035f83015261055e81610525565b9050919050565b7f496e76616c69642064656661756c742061646d696e20616464726573730000005f82015250565b5f610599601d836104ed565b91506105a482610565565b602082019050919050565b5f6020820190508181035f8301526105c68161058d565b9050919050565b7f4e6f7420617574686f72697a65643a204f6e6c792064656661756c742061646d5f8201527f696e2063616e20706572666f726d207468697320616374696f6e000000000000602082015250565b5f610627603a836104ed565b9150610632826105cd565b604082019050919050565b5f6020820190508181035f8301526106548161061b565b9050919050565b7f496e76616c6964206164647265737300000000000000000000000000000000005f82015250565b5f61068f600f836104ed565b915061069a8261065b565b602082019050919050565b5f6020820190508181035f8301526106bc81610683565b9050919050565b7f416c726561647920616e2061646d696e000000000000000000000000000000005f82015250565b5f6106f76010836104ed565b9150610702826106c3565b602082019050919050565b5f6020820190508181035f830152610724816106eb565b9050919050565b613f26806107385f395ff3fe608060405260043610610142575f3560e01c80635c975abb116100b5578063b661b9da1161006e578063b661b9da1461041d578063b9721b2e1461045c578063de73340714610484578063f92a5dcd146104c3578063f98cf07c146104eb578063fa6464341461050757610151565b80635c975abb1461032757806370480275146103515780638456cb591461037957806384ef8ffc1461038f57806387d4377c146103b95780638c28a23a146103e157610151565b806324d7806c1161010757806324d7806c146102315780632d51acb91461026d5780632ebf8bd61461029557806331ae450b146102bd5780633f4ba83a146102e757806343bc5cd3146102fd57610151565b8062f714ce1461015557806314bfd6d01461017d57806315a41150146101b9578063161b1349146101e15780631785f53c1461020957610151565b366101515761014f610531565b005b5f5ffd5b348015610160575f5ffd5b5061017b600480360381019061017691906125ba565b61057b565b005b348015610188575f5ffd5b506101a3600480360381019061019e91906125f8565b6106ed565b6040516101b09190612632565b60405180910390f35b3480156101c4575f5ffd5b506101df60048036038101906101da919061264b565b610728565b005b3480156101ec575f5ffd5b50610207600480360381019061020291906125f8565b6108f1565b005b348015610214575f5ffd5b5061022f600480360381019061022a919061264b565b6109c6565b005b34801561023c575f5ffd5b506102576004803603810190610252919061264b565b610d3d565b6040516102649190612690565b60405180910390f35b348015610278575f5ffd5b50610293600480360381019061028e91906127e5565b610d5a565b005b3480156102a0575f5ffd5b506102bb60048036038101906102b6919061288f565b611054565b005b3480156102c8575f5ffd5b506102d1611235565b6040516102de9190612996565b60405180910390f35b3480156102f2575f5ffd5b506102fb6112c0565b005b348015610308575f5ffd5b50610311611353565b60405161031e91906129c5565b60405180910390f35b348015610332575f5ffd5b5061033b611442565b6040516103489190612690565b60405180910390f35b34801561035c575f5ffd5b506103776004803603810190610372919061264b565b611456565b005b348015610384575f5ffd5b5061038d6116d8565b005b34801561039a575f5ffd5b506103a361176b565b6040516103b09190612632565b60405180910390f35b3480156103c4575f5ffd5b506103df60048036038101906103da91906129de565b611790565b005b3480156103ec575f5ffd5b506104076004803603810190610402919061264b565b611b07565b6040516104149190612b47565b60405180910390f35b348015610428575f5ffd5b50610443600480360381019061043e919061264b565b611bd7565b6040516104539493929190612bc7565b60405180910390f35b348015610467575f5ffd5b50610482600480360381019061047d9190612c11565b611c89565b005b34801561048f575f5ffd5b506104aa60048036038101906104a59190612c11565b611ec3565b6040516104ba9493929190612c4f565b60405180910390f35b3480156104ce575f5ffd5b506104e960048036038101906104e49190612c11565b611f15565b005b61050560048036038101906105009190612c11565b612109565b005b348015610512575f5ffd5b5061051b612362565b60405161052891906129c5565b60405180910390f35b610539611442565b15610579576040517f08c379a000000000000000000000000000000000000000000000000000000000815260040161057090612cdc565b60405180910390fd5b565b60035f3373ffffffffffffffffffffffffffffffffffffffff1673ffffffffffffffffffffffffffffffffffffffff1681526020019081526020015f205f9054906101000a900460ff16610604576040517f08c379a00000000000000000000000000000000000000000000000000000000081526004016105fb90612d6a565b60405180910390fd5b61060c612368565b4782111561064f576040517f08c379a000000000000000000000000000000000000000000000000000000000815260040161064690612dd2565b60405180910390fd5b8073ffffffffffffffffffffffffffffffffffffffff166108fc8390811502906040515f60405180830381858888f19350505050158015610692573d5f5f3e3d5ffd5b508073ffffffffffffffffffffffffffffffffffffffff167f7fcf532c15f0a6db0bd6d0e038bea71d30d808c7d98cb3bf7268a95bf5081b65836040516106d991906129c5565b60405180910390a26106e96123b7565b5050565b600281815481106106fc575f80fd5b905f5260205f20015f915054906101000a900473ffffffffffffffffffffffffffffffffffffffff1681565b60045f9054906101000a900473ffffffffffffffffffffffffffffffffffffffff1673ffffffffffffffffffffffffffffffffffffffff163373ffffffffffffffffffffffffffffffffffffffff16146107b7576040517f08c379a00000000000000000000000000000000000000000000000000000000081526004016107ae90612e60565b60405180910390fd5b5f73ffffffffffffffffffffffffffffffffffffffff168173ffffffffffffffffffffffffffffffffffffffff1603610825576040517f08c379a000000000000000000000000000000000000000000000000000000000815260040161081c90612eee565b60405180910390fd5b5f60045f9054906101000a900473ffffffffffffffffffffffffffffffffffffffff16905061085382611456565b8160045f6101000a81548173ffffffffffffffffffffffffffffffffffffffff021916908373ffffffffffffffffffffffffffffffffffffffff1602179055508173ffffffffffffffffffffffffffffffffffffffff168173ffffffffffffffffffffffffffffffffffffffff167fee6c1cbbf9f44e83120156684c7401e64d663798734f8a50da171743fa7e349b60405160405180910390a35050565b60035f3373ffffffffffffffffffffffffffffffffffffffff1673ffffffffffffffffffffffffffffffffffffffff1681526020019081526020015f205f9054906101000a900460ff1661097a576040517f08c379a000000000000000000000000000000000000000000000000000000000815260040161097190612d6a565b60405180910390fd5b5f81116109bc576040517f08c379a00000000000000000000000000000000000000000000000000000000081526004016109b390612f7c565b60405180910390fd5b8060068190555050565b60045f9054906101000a900473ffffffffffffffffffffffffffffffffffffffff1673ffffffffffffffffffffffffffffffffffffffff163373ffffffffffffffffffffffffffffffffffffffff1614610a55576040517f08c379a0000000000000000000000000000000000000000000000000000000008152600401610a4c90612e60565b60405180910390fd5b60035f8273ffffffffffffffffffffffffffffffffffffffff1673ffffffffffffffffffffffffffffffffffffffff1681526020019081526020015f205f9054906101000a900460ff16610ade576040517f08c379a0000000000000000000000000000000000000000000000000000000008152600401610ad590612fe4565b60405180910390fd5b600160028054905011610b26576040517f08c379a0000000000000000000000000000000000000000000000000000000008152600401610b1d9061304c565b60405180910390fd5b5f60035f8373ffffffffffffffffffffffffffffffffffffffff1673ffffffffffffffffffffffffffffffffffffffff1681526020019081526020015f205f6101000a81548160ff0219169083151502179055505f5f90505b600280549050811015610cf6578173ffffffffffffffffffffffffffffffffffffffff1660028281548110610bb757610bb661306a565b5b905f5260205f20015f9054906101000a900473ffffffffffffffffffffffffffffffffffffffff1673ffffffffffffffffffffffffffffffffffffffff1603610ce95760026001600280549050610c0e91906130c4565b81548110610c1f57610c1e61306a565b5b905f5260205f20015f9054906101000a900473ffffffffffffffffffffffffffffffffffffffff1660028281548110610c5b57610c5a61306a565b5b905f5260205f20015f6101000a81548173ffffffffffffffffffffffffffffffffffffffff021916908373ffffffffffffffffffffffffffffffffffffffff1602179055506002805480610cb257610cb16130f7565b5b600190038181905f5260205f20015f6101000a81549073ffffffffffffffffffffffffffffffffffffffff02191690559055610cf6565b8080600101915050610b7f565b508073ffffffffffffffffffffffffffffffffffffffff167fa3b62bc36326052d97ea62d63c3d60308ed4c3ea8ac079dd8499f1e9c4f80c0f60405160405180910390a250565b6003602052805f5260405f205f915054906101000a900460ff1681565b610d62610531565b60035f3373ffffffffffffffffffffffffffffffffffffffff1673ffffffffffffffffffffffffffffffffffffffff1681526020019081526020015f205f9054906101000a900460ff16610deb576040517f08c379a0000000000000000000000000000000000000000000000000000000008152600401610de290612d6a565b60405180910390fd5b5f73ffffffffffffffffffffffffffffffffffffffff168373ffffffffffffffffffffffffffffffffffffffff1603610e59576040517f08c379a0000000000000000000000000000000000000000000000000000000008152600401610e509061316e565b60405180910390fd5b610e62836123c0565b15610ea2576040517f08c379a0000000000000000000000000000000000000000000000000000000008152600401610e99906131d6565b60405180910390fd5b5f845111610ee5576040517f08c379a0000000000000000000000000000000000000000000000000000000008152600401610edc9061323e565b60405180910390fd5b670de0b6b3a7640000600654610efb919061325c565b610f03611353565b83610f0e919061325c565b1015610f4f576040517f08c379a0000000000000000000000000000000000000000000000000000000008152600401610f469061330d565b60405180910390fd5b428111610f91576040517f08c379a0000000000000000000000000000000000000000000000000000000008152600401610f889061339b565b60405180910390fd5b5f60075f8573ffffffffffffffffffffffffffffffffffffffff1673ffffffffffffffffffffffffffffffffffffffff1681526020019081526020015f20905084815f019081610fe191906135b6565b508281600101819055505f81600201819055508181600301819055508373ffffffffffffffffffffffffffffffffffffffff167f2b88c9786b136e841912bb0dd74da2edd0a414d70a8771b7941093af50ae3b5e8484604051611045929190613685565b60405180910390a25050505050565b61105c610531565b60035f3373ffffffffffffffffffffffffffffffffffffffff1673ffffffffffffffffffffffffffffffffffffffff1681526020019081526020015f205f9054906101000a900460ff166110e5576040517f08c379a00000000000000000000000000000000000000000000000000000000081526004016110dc90612d6a565b60405180910390fd5b5f60075f8573ffffffffffffffffffffffffffffffffffffffff1673ffffffffffffffffffffffffffffffffffffffff1681526020019081526020015f2090505f81600101541161116b576040517f08c379a0000000000000000000000000000000000000000000000000000000008152600401611162906136f6565b60405180910390fd5b82816002015f82825461117e91906130c4565b925050819055508373ffffffffffffffffffffffffffffffffffffffff167f4b28c7dc138644f27518388387393ecbd08ef8d180a4a6799c954be166a37ab3846040516111cb91906129c5565b60405180910390a2811561122f575f81600101819055505f81600201819055508373ffffffffffffffffffffffffffffffffffffffff167f1b9b72fde9da721e70e6aca3b0cf4cbe73e82765ef1f280157740376531bfdd860405160405180910390a25b50505050565b606060028054806020026020016040519081016040528092919081815260200182805480156112b657602002820191905f5260205f20905b815f9054906101000a900473ffffffffffffffffffffffffffffffffffffffff1673ffffffffffffffffffffffffffffffffffffffff168152602001906001019080831161126d575b5050505050905090565b60035f3373ffffffffffffffffffffffffffffffffffffffff1673ffffffffffffffffffffffffffffffffffffffff1681526020019081526020015f205f9054906101000a900460ff16611349576040517f08c379a000000000000000000000000000000000000000000000000000000000815260040161134090612d6a565b60405180910390fd5b61135161240b565b565b5f5f60055f9054906101000a900473ffffffffffffffffffffffffffffffffffffffff1673ffffffffffffffffffffffffffffffffffffffff1663feaf968c6040518163ffffffff1660e01b815260040160a060405180830381865afa1580156113bf573d5f5f3e3d5ffd5b505050506040513d601f19601f820116820180604052508101906113e3919061379a565b5050509150505f811361142b576040517f08c379a00000000000000000000000000000000000000000000000000000000081526004016114229061385b565b60405180910390fd5b6402540be4008161143c919061325c565b91505090565b5f5f5f9054906101000a900460ff16905090565b60045f9054906101000a900473ffffffffffffffffffffffffffffffffffffffff1673ffffffffffffffffffffffffffffffffffffffff163373ffffffffffffffffffffffffffffffffffffffff16146114e5576040517f08c379a00000000000000000000000000000000000000000000000000000000081526004016114dc90612e60565b60405180910390fd5b5f73ffffffffffffffffffffffffffffffffffffffff168173ffffffffffffffffffffffffffffffffffffffff1603611553576040517f08c379a000000000000000000000000000000000000000000000000000000000815260040161154a906138c3565b60405180910390fd5b60035f8273ffffffffffffffffffffffffffffffffffffffff1673ffffffffffffffffffffffffffffffffffffffff1681526020019081526020015f205f9054906101000a900460ff16156115dd576040517f08c379a00000000000000000000000000000000000000000000000000000000081526004016115d49061392b565b60405180910390fd5b600281908060018154018082558091505060019003905f5260205f20015f9091909190916101000a81548173ffffffffffffffffffffffffffffffffffffffff021916908373ffffffffffffffffffffffffffffffffffffffff160217905550600160035f8373ffffffffffffffffffffffffffffffffffffffff1673ffffffffffffffffffffffffffffffffffffffff1681526020019081526020015f205f6101000a81548160ff0219169083151502179055508073ffffffffffffffffffffffffffffffffffffffff167f44d6d25963f097ad14f29f06854a01f575648a1ef82f30e562ccd3889717e33960405160405180910390a250565b60035f3373ffffffffffffffffffffffffffffffffffffffff1673ffffffffffffffffffffffffffffffffffffffff1681526020019081526020015f205f9054906101000a900460ff16611761576040517f08c379a000000000000000000000000000000000000000000000000000000000815260040161175890612d6a565b60405180910390fd5b61176961246b565b565b60045f9054906101000a900473ffffffffffffffffffffffffffffffffffffffff1681565b611798610531565b60035f3373ffffffffffffffffffffffffffffffffffffffff1673ffffffffffffffffffffffffffffffffffffffff1681526020019081526020015f205f9054906101000a900460ff16611821576040517f08c379a000000000000000000000000000000000000000000000000000000000815260040161181890612d6a565b60405180910390fd5b61182a836123c0565b611869576040517f08c379a000000000000000000000000000000000000000000000000000000000815260040161186090613993565b60405180910390fd5b5f82116118ab576040517f08c379a00000000000000000000000000000000000000000000000000000000081526004016118a290613a21565b60405180910390fd5b42811180156118fa575060075f8473ffffffffffffffffffffffffffffffffffffffff1673ffffffffffffffffffffffffffffffffffffffff1681526020019081526020015f20600301548111155b611939576040517f08c379a000000000000000000000000000000000000000000000000000000000815260040161193090613aaf565b60405180910390fd5b5f60085f8573ffffffffffffffffffffffffffffffffffffffff1673ffffffffffffffffffffffffffffffffffffffff1681526020019081526020015f2090505f818054905011156119ff575f816001838054905061199891906130c4565b815481106119a9576119a861306a565b5b905f5260205f2090600402016002015490508083116119fd576040517f08c379a00000000000000000000000000000000000000000000000000000000081526004016119f490613b3d565b60405180910390fd5b505b60085f8573ffffffffffffffffffffffffffffffffffffffff1673ffffffffffffffffffffffffffffffffffffffff1681526020019081526020015f2060405180608001604052808581526020015f81526020018481526020015f1515815250908060018154018082558091505060019003905f5260205f2090600402015f909190919091505f820151815f015560208201518160010155604082015181600201556060820151816003015f6101000a81548160ff02191690831515021790555050507f91df0a6856d12caa53a1827a8383398220295d5770e0711c14484db4304016ab81805490508484604051611af993929190613b5b565b60405180910390a150505050565b606060085f8373ffffffffffffffffffffffffffffffffffffffff1673ffffffffffffffffffffffffffffffffffffffff1681526020019081526020015f20805480602002602001604051908101604052809291908181526020015f905b82821015611bcc578382905f5260205f2090600402016040518060800160405290815f82015481526020016001820154815260200160028201548152602001600382015f9054906101000a900460ff16151515158152505081526020019060010190611b65565b505050509050919050565b6007602052805f5260405f205f91509050805f018054611bf6906133e6565b80601f0160208091040260200160405190810160405280929190818152602001828054611c22906133e6565b8015611c6d5780601f10611c4457610100808354040283529160200191611c6d565b820191905f5260205f20905b815481529060010190602001808311611c5057829003601f168201915b5050505050908060010154908060020154908060030154905084565b611c91610531565b60035f3373ffffffffffffffffffffffffffffffffffffffff1673ffffffffffffffffffffffffffffffffffffffff1681526020019081526020015f205f9054906101000a900460ff16611d1a576040517f08c379a0000000000000000000000000000000000000000000000000000000008152600401611d1190612d6a565b60405180910390fd5b611d23826123c0565b611d62576040517f08c379a0000000000000000000000000000000000000000000000000000000008152600401611d5990613993565b60405180910390fd5b5f60085f8473ffffffffffffffffffffffffffffffffffffffff1673ffffffffffffffffffffffffffffffffffffffff1681526020019081526020015f208281548110611db257611db161306a565b5b905f5260205f20906004020190505f815f015411611e05576040517f08c379a0000000000000000000000000000000000000000000000000000000008152600401611dfc90613bda565b60405180910390fd5b806003015f9054906101000a900460ff16611e55576040517f08c379a0000000000000000000000000000000000000000000000000000000008152600401611e4c90613c42565b60405180910390fd5b5f816003015f6101000a81548160ff0219169083151502179055508273ffffffffffffffffffffffffffffffffffffffff167f7d43402007feb68e4f4d08e94a946083b4e8fdddbb8e6e7d95cc029d61cc2be083604051611eb691906129c5565b60405180910390a2505050565b6008602052815f5260405f208181548110611edc575f80fd5b905f5260205f2090600402015f9150915050805f015490806001015490806002015490806003015f9054906101000a900460ff16905084565b611f1d610531565b60035f3373ffffffffffffffffffffffffffffffffffffffff1673ffffffffffffffffffffffffffffffffffffffff1681526020019081526020015f205f9054906101000a900460ff16611fa6576040517f08c379a0000000000000000000000000000000000000000000000000000000008152600401611f9d90612d6a565b60405180910390fd5b5f60085f8473ffffffffffffffffffffffffffffffffffffffff1673ffffffffffffffffffffffffffffffffffffffff1681526020019081526020015f208281548110611ff657611ff561306a565b5b905f5260205f20906004020190505f815f015411612049576040517f08c379a000000000000000000000000000000000000000000000000000000000815260040161204090613bda565b60405180910390fd5b806003015f9054906101000a900460ff161561209a576040517f08c379a000000000000000000000000000000000000000000000000000000000815260040161209190613caa565b60405180910390fd5b6001816003015f6101000a81548160ff0219169083151502179055508273ffffffffffffffffffffffffffffffffffffffff167fb257d3ad0aca91c2880cba095b7732563e1ab189d9fc61b8f393e82d9b47fc24836040516120fc91906129c5565b60405180910390a2505050565b612111610531565b612119612368565b612122826123c0565b612161576040517f08c379a000000000000000000000000000000000000000000000000000000000815260040161215890613d12565b60405180910390fd5b5f60085f8473ffffffffffffffffffffffffffffffffffffffff1673ffffffffffffffffffffffffffffffffffffffff1681526020019081526020015f2082815481106121b1576121b061306a565b5b905f5260205f20906004020190505f815f015411612204576040517f08c379a00000000000000000000000000000000000000000000000000000000081526004016121fb90613bda565b60405180910390fd5b806003015f9054906101000a900460ff1615612255576040517f08c379a000000000000000000000000000000000000000000000000000000000815260040161224c90613caa565b60405180910390fd5b34816001015f8282546122689190613d30565b925050819055503460075f3373ffffffffffffffffffffffffffffffffffffffff1673ffffffffffffffffffffffffffffffffffffffff1681526020019081526020015f206002015f8282546122be9190613d30565b925050819055508273ffffffffffffffffffffffffffffffffffffffff167f14954c6ff5a56809714735fb131bd55e42938c7e5bc1a1715593b0ba52000ccf60075f3373ffffffffffffffffffffffffffffffffffffffff1673ffffffffffffffffffffffffffffffffffffffff1681526020019081526020015f205f01348560405161234d93929190613de4565b60405180910390a25061235e6123b7565b5050565b60065481565b6002600154036123ad576040517f08c379a00000000000000000000000000000000000000000000000000000000081526004016123a490613e6a565b60405180910390fd5b6002600181905550565b60018081905550565b5f5f60075f8473ffffffffffffffffffffffffffffffffffffffff1673ffffffffffffffffffffffffffffffffffffffff1681526020019081526020015f2060010154119050919050565b6124136124cc565b5f5f5f6101000a81548160ff0219169083151502179055507f5db9ee0a495bf2e6ff9c91a7834c1ba4fdd244a5e8aa4e537bd38aeae4b073aa612454612515565b6040516124619190612632565b60405180910390a1565b612473610531565b60015f5f6101000a81548160ff0219169083151502179055507f62e78cea01bee320cd4e420270b5ea74000d11b0c9f74754ebdbfc544b05a2586124b5612515565b6040516124c29190612632565b60405180910390a1565b6124d4611442565b612513576040517f08c379a000000000000000000000000000000000000000000000000000000000815260040161250a90613ed2565b60405180910390fd5b565b5f33905090565b5f604051905090565b5f5ffd5b5f5ffd5b5f819050919050565b61253f8161252d565b8114612549575f5ffd5b50565b5f8135905061255a81612536565b92915050565b5f73ffffffffffffffffffffffffffffffffffffffff82169050919050565b5f61258982612560565b9050919050565b6125998161257f565b81146125a3575f5ffd5b50565b5f813590506125b481612590565b92915050565b5f5f604083850312156125d0576125cf612525565b5b5f6125dd8582860161254c565b92505060206125ee858286016125a6565b9150509250929050565b5f6020828403121561260d5761260c612525565b5b5f61261a8482850161254c565b91505092915050565b61262c8161257f565b82525050565b5f6020820190506126455f830184612623565b92915050565b5f602082840312156126605761265f612525565b5b5f61266d848285016125a6565b91505092915050565b5f8115159050919050565b61268a81612676565b82525050565b5f6020820190506126a35f830184612681565b92915050565b5f5ffd5b5f5ffd5b5f601f19601f8301169050919050565b7f4e487b71000000000000000000000000000000000000000000000000000000005f52604160045260245ffd5b6126f7826126b1565b810181811067ffffffffffffffff82111715612716576127156126c1565b5b80604052505050565b5f61272861251c565b905061273482826126ee565b919050565b5f67ffffffffffffffff821115612753576127526126c1565b5b61275c826126b1565b9050602081019050919050565b828183375f83830152505050565b5f61278961278484612739565b61271f565b9050828152602081018484840111156127a5576127a46126ad565b5b6127b0848285612769565b509392505050565b5f82601f8301126127cc576127cb6126a9565b5b81356127dc848260208601612777565b91505092915050565b5f5f5f5f608085870312156127fd576127fc612525565b5b5f85013567ffffffffffffffff81111561281a57612819612529565b5b612826878288016127b8565b9450506020612837878288016125a6565b93505060406128488782880161254c565b92505060606128598782880161254c565b91505092959194509250565b61286e81612676565b8114612878575f5ffd5b50565b5f8135905061288981612865565b92915050565b5f5f5f606084860312156128a6576128a5612525565b5b5f6128b3868287016125a6565b93505060206128c48682870161254c565b92505060406128d58682870161287b565b9150509250925092565b5f81519050919050565b5f82825260208201905092915050565b5f819050602082019050919050565b6129118161257f565b82525050565b5f6129228383612908565b60208301905092915050565b5f602082019050919050565b5f612944826128df565b61294e81856128e9565b9350612959836128f9565b805f5b838110156129895781516129708882612917565b975061297b8361292e565b92505060018101905061295c565b5085935050505092915050565b5f6020820190508181035f8301526129ae818461293a565b905092915050565b6129bf8161252d565b82525050565b5f6020820190506129d85f8301846129b6565b92915050565b5f5f5f606084860312156129f5576129f4612525565b5b5f612a02868287016125a6565b9350506020612a138682870161254c565b9250506040612a248682870161254c565b9150509250925092565b5f81519050919050565b5f82825260208201905092915050565b5f819050602082019050919050565b612a608161252d565b82525050565b612a6f81612676565b82525050565b608082015f820151612a895f850182612a57565b506020820151612a9c6020850182612a57565b506040820151612aaf6040850182612a57565b506060820151612ac26060850182612a66565b50505050565b5f612ad38383612a75565b60808301905092915050565b5f602082019050919050565b5f612af582612a2e565b612aff8185612a38565b9350612b0a83612a48565b805f5b83811015612b3a578151612b218882612ac8565b9750612b2c83612adf565b925050600181019050612b0d565b5085935050505092915050565b5f6020820190508181035f830152612b5f8184612aeb565b905092915050565b5f81519050919050565b5f82825260208201905092915050565b8281835e5f83830152505050565b5f612b9982612b67565b612ba38185612b71565b9350612bb3818560208601612b81565b612bbc816126b1565b840191505092915050565b5f6080820190508181035f830152612bdf8187612b8f565b9050612bee60208301866129b6565b612bfb60408301856129b6565b612c0860608301846129b6565b95945050505050565b5f5f60408385031215612c2757612c26612525565b5b5f612c34858286016125a6565b9250506020612c458582860161254c565b9150509250929050565b5f608082019050612c625f8301876129b6565b612c6f60208301866129b6565b612c7c60408301856129b6565b612c896060830184612681565b95945050505050565b7f5061757361626c653a20706175736564000000000000000000000000000000005f82015250565b5f612cc6601083612b71565b9150612cd182612c92565b602082019050919050565b5f6020820190508181035f830152612cf381612cba565b9050919050565b7f4e6f7420617574686f72697a65643a204f6e6c792061646d696e2063616e20705f8201527f6572666f726d207468697320616374696f6e0000000000000000000000000000602082015250565b5f612d54603283612b71565b9150612d5f82612cfa565b604082019050919050565b5f6020820190508181035f830152612d8181612d48565b9050919050565b7f496e73756666696369656e742062616c616e636520696e20636f6e74726163745f82015250565b5f612dbc602083612b71565b9150612dc782612d88565b602082019050919050565b5f6020820190508181035f830152612de981612db0565b9050919050565b7f4e6f7420617574686f72697a65643a204f6e6c792064656661756c742061646d5f8201527f696e2063616e20706572666f726d207468697320616374696f6e000000000000602082015250565b5f612e4a603a83612b71565b9150612e5582612df0565b604082019050919050565b5f6020820190508181035f830152612e7781612e3e565b9050919050565b7f496e76616c6964206164647265737320666f72206e65772064656661756c74205f8201527f61646d696e000000000000000000000000000000000000000000000000000000602082015250565b5f612ed8602583612b71565b9150612ee382612e7e565b604082019050919050565b5f6020820190508181035f830152612f0581612ecc565b9050919050565b7f4d696e696d756d20636f6d6d69746d656e7420616d6f756e74206d75737420625f8201527f652067726561746572207468616e207a65726f00000000000000000000000000602082015250565b5f612f66603383612b71565b9150612f7182612f0c565b604082019050919050565b5f6020820190508181035f830152612f9381612f5a565b9050919050565b7f4e6f7420616e2061646d696e00000000000000000000000000000000000000005f82015250565b5f612fce600c83612b71565b9150612fd982612f9a565b602082019050919050565b5f6020820190508181035f830152612ffb81612fc2565b9050919050565b7f43616e6e6f742072656d6f766520746865206c6173742061646d696e000000005f82015250565b5f613036601c83612b71565b915061304182613002565b602082019050919050565b5f6020820190508181035f8301526130638161302a565b9050919050565b7f4e487b71000000000000000000000000000000000000000000000000000000005f52603260045260245ffd5b7f4e487b71000000000000000000000000000000000000000000000000000000005f52601160045260245ffd5b5f6130ce8261252d565b91506130d98361252d565b92508282039050818111156130f1576130f0613097565b5b92915050565b7f4e487b71000000000000000000000000000000000000000000000000000000005f52603160045260245ffd5b7f496e76616c6964204c50206164647265737300000000000000000000000000005f82015250565b5f613158601283612b71565b915061316382613124565b602082019050919050565b5f6020820190508181035f8301526131858161314c565b9050919050565b7f4c5020616c7265616479206578697374730000000000000000000000000000005f82015250565b5f6131c0601183612b71565b91506131cb8261318c565b602082019050919050565b5f6020820190508181035f8301526131ed816131b4565b9050919050565b7f4e616d652063616e6e6f7420626520656d7074790000000000000000000000005f82015250565b5f613228601483612b71565b9150613233826131f4565b602082019050919050565b5f6020820190508181035f8301526132558161321c565b9050919050565b5f6132668261252d565b91506132718361252d565b925082820261327f8161252d565b9150828204841483151761329657613295613097565b5b5092915050565b7f436f6d6d69746d656e7420616d6f756e74206d757374206265206772656174655f8201527f72207468616e206d696e696d756d20616d6f756e740000000000000000000000602082015250565b5f6132f7603583612b71565b91506133028261329d565b604082019050919050565b5f6020820190508181035f830152613324816132eb565b9050919050565b7f456e642054696d65206d757374206265206c61746572207468616e20746865205f8201527f63757272656e742074696d652e00000000000000000000000000000000000000602082015250565b5f613385602d83612b71565b91506133908261332b565b604082019050919050565b5f6020820190508181035f8301526133b281613379565b9050919050565b7f4e487b71000000000000000000000000000000000000000000000000000000005f52602260045260245ffd5b5f60028204905060018216806133fd57607f821691505b6020821081036134105761340f6133b9565b5b50919050565b5f819050815f5260205f209050919050565b5f6020601f8301049050919050565b5f82821b905092915050565b5f600883026134727fffffffffffffffffffffffffffffffffffffffffffffffffffffffffffffffff82613437565b61347c8683613437565b95508019841693508086168417925050509392505050565b5f819050919050565b5f6134b76134b26134ad8461252d565b613494565b61252d565b9050919050565b5f819050919050565b6134d08361349d565b6134e46134dc826134be565b848454613443565b825550505050565b5f5f905090565b6134fb6134ec565b6135068184846134c7565b505050565b5b818110156135295761351e5f826134f3565b60018101905061350c565b5050565b601f82111561356e5761353f81613416565b61354884613428565b81016020851015613557578190505b61356b61356385613428565b83018261350b565b50505b505050565b5f82821c905092915050565b5f61358e5f1984600802613573565b1980831691505092915050565b5f6135a6838361357f565b9150826002028217905092915050565b6135bf82612b67565b67ffffffffffffffff8111156135d8576135d76126c1565b5b6135e282546133e6565b6135ed82828561352d565b5f60209050601f83116001811461361e575f841561360c578287015190505b613616858261359b565b86555061367d565b601f19841661362c86613416565b5f5b828110156136535784890151825560018201915060208501945060208101905061362e565b86831015613670578489015161366c601f89168261357f565b8355505b6001600288020188555050505b505050505050565b5f6040820190506136985f8301856129b6565b6136a560208301846129b6565b9392505050565b7f496e76616c6964204c50000000000000000000000000000000000000000000005f82015250565b5f6136e0600a83612b71565b91506136eb826136ac565b602082019050919050565b5f6020820190508181035f83015261370d816136d4565b9050919050565b5f69ffffffffffffffffffff82169050919050565b61373281613714565b811461373c575f5ffd5b50565b5f8151905061374d81613729565b92915050565b5f819050919050565b61376581613753565b811461376f575f5ffd5b50565b5f815190506137808161375c565b92915050565b5f8151905061379481612536565b92915050565b5f5f5f5f5f60a086880312156137b3576137b2612525565b5b5f6137c08882890161373f565b95505060206137d188828901613772565b94505060406137e288828901613786565b93505060606137f388828901613786565b92505060806138048882890161373f565b9150509295509295909350565b7f496e76616c6964204554482f55534420707269636520646174610000000000005f82015250565b5f613845601a83612b71565b915061385082613811565b602082019050919050565b5f6020820190508181035f83015261387281613839565b9050919050565b7f496e76616c6964206164647265737300000000000000000000000000000000005f82015250565b5f6138ad600f83612b71565b91506138b882613879565b602082019050919050565b5f6020820190508181035f8301526138da816138a1565b9050919050565b7f416c726561647920616e2061646d696e000000000000000000000000000000005f82015250565b5f613915601083612b71565b9150613920826138e1565b602082019050919050565b5f6020820190508181035f83015261394281613909565b9050919050565b7f4e6f7420616e204c5021000000000000000000000000000000000000000000005f82015250565b5f61397d600a83612b71565b915061398882613949565b602082019050919050565b5f6020820190508181035f8301526139aa81613971565b9050919050565b7f436173682063616c6c20616d6f756e74206d75737420626520677265617465725f8201527f207468616e207a65726f00000000000000000000000000000000000000000000602082015250565b5f613a0b602a83612b71565b9150613a16826139b1565b604082019050919050565b5f6020820190508181035f830152613a38816139ff565b9050919050565b7f446561646c696e65206d757374206265206c61746572207468616e20746865205f8201527f63757272656e742074696d652e00000000000000000000000000000000000000602082015250565b5f613a99602d83612b71565b9150613aa482613a3f565b604082019050919050565b5f6020820190508181035f830152613ac681613a8d565b9050919050565b7f4e657720646561646c696e65206d75737420626520616674657220746865206c5f8201527f61737420646561646c696e650000000000000000000000000000000000000000602082015250565b5f613b27602c83612b71565b9150613b3282613acd565b604082019050919050565b5f6020820190508181035f830152613b5481613b1b565b9050919050565b5f606082019050613b6e5f8301866129b6565b613b7b60208301856129b6565b613b8860408301846129b6565b949350505050565b7f436173682063616c6c20646f6573206e6f7420657869737400000000000000005f82015250565b5f613bc4601883612b71565b9150613bcf82613b90565b602082019050919050565b5f6020820190508181035f830152613bf181613bb8565b9050919050565b7f436173682063616c6c206e6f74206578656375746564207965740000000000005f82015250565b5f613c2c601a83612b71565b9150613c3782613bf8565b602082019050919050565b5f6020820190508181035f830152613c5981613c20565b9050919050565b7f436173682063616c6c20616c72656164792065786563757465640000000000005f82015250565b5f613c94601a83612b71565b9150613c9f82613c60565b602082019050919050565b5f6020820190508181035f830152613cc181613c88565b9050919050565b7f596f7520617265206e6f7420616e204c500000000000000000000000000000005f82015250565b5f613cfc601183612b71565b9150613d0782613cc8565b602082019050919050565b5f6020820190508181035f830152613d2981613cf0565b9050919050565b5f613d3a8261252d565b9150613d458361252d565b9250828201905080821115613d5d57613d5c613097565b5b92915050565b5f8154613d6f816133e6565b613d798186612b71565b9450600182165f8114613d935760018114613da957613ddb565b60ff198316865281151560200286019350613ddb565b613db285613416565b5f5b83811015613dd357815481890152600182019150602081019050613db4565b808801955050505b50505092915050565b5f6060820190508181035f830152613dfc8186613d63565b9050613e0b60208301856129b6565b613e1860408301846129b6565b949350505050565b7f5265656e7472616e637947756172643a207265656e7472616e742063616c6c005f82015250565b5f613e54601f83612b71565b9150613e5f82613e20565b602082019050919050565b5f6020820190508181035f830152613e8181613e48565b9050919050565b7f5061757361626c653a206e6f74207061757365640000000000000000000000005f82015250565b5f613ebc601483612b71565b9150613ec782613e88565b602082019050919050565b5f6020820190508181035f830152613ee981613eb0565b905091905056fea26469706673582212200767d31b86535ab6453b6fd4e2b1ab49fba6acc88dca12d329661a609478663c64736f6c634300081c0033",
		"opcodes": "PUSH1 0x80 PUSH1 0x40 MSTORE PUSH9 0x3635C9ADC5DEA00000 PUSH1 0x6 SSTORE CALLVALUE DUP1 ISZERO PUSH2 0x1C JUMPI PUSH0 PUSH0 REVERT JUMPDEST POP PUSH1 0x40 MLOAD PUSH2 0x465E CODESIZE SUB DUP1 PUSH2 0x465E DUP4 CODECOPY DUP2 DUP2 ADD PUSH1 0x40 MSTORE DUP2 ADD SWAP1 PUSH2 0x3E SWAP2 SWAP1 PUSH2 0x4AF JUMP JUMPDEST PUSH0 PUSH0 PUSH0 PUSH2 0x100 EXP DUP2 SLOAD DUP2 PUSH1 0xFF MUL NOT AND SWAP1 DUP4 ISZERO ISZERO MUL OR SWAP1 SSTORE POP PUSH1 0x1 DUP1 DUP2 SWAP1 SSTORE POP PUSH0 PUSH20 0xFFFFFFFFFFFFFFFFFFFFFFFFFFFFFFFFFFFFFFFF AND DUP3 PUSH20 0xFFFFFFFFFFFFFFFFFFFFFFFFFFFFFFFFFFFFFFFF AND SUB PUSH2 0xCB JUMPI PUSH1 0x40 MLOAD PUSH32 0x8C379A000000000000000000000000000000000000000000000000000000000 DUP2 MSTORE PUSH1 0x4 ADD PUSH2 0xC2 SWAP1 PUSH2 0x547 JUMP JUMPDEST PUSH1 0x40 MLOAD DUP1 SWAP2 SUB SWAP1 REVERT JUMPDEST PUSH0 PUSH20 0xFFFFFFFFFFFFFFFFFFFFFFFFFFFFFFFFFFFFFFFF AND DUP2 PUSH20 0xFFFFFFFFFFFFFFFFFFFFFFFFFFFFFFFFFFFFFFFF AND SUB PUSH2 0x139 JUMPI PUSH1 0x40 MLOAD PUSH32 0x8C379A000000000000000000000000000000000000000000000000000000000 DUP2 MSTORE PUSH1 0x4 ADD PUSH2 0x130 SWAP1 PUSH2 0x5AF JUMP JUMPDEST PUSH1 0x40 MLOAD DUP1 SWAP2 SUB SWAP1 REVERT JUMPDEST DUP2 PUSH1 0x5 PUSH0 PUSH2 0x100 EXP DUP2 SLOAD DUP2 PUSH20 0xFFFFFFFFFFFFFFFFFFFFFFFFFFFFFFFFFFFFFFFF MUL NOT AND SWAP1 DUP4 PUSH20 0xFFFFFFFFFFFFFFFFFFFFFFFFFFFFFFFFFFFFFFFF AND MUL OR SWAP1 SSTORE POP DUP1 PUSH1 0x4 PUSH0 PUSH2 0x100 EXP DUP2 SLOAD DUP2 PUSH20 0xFFFFFFFFFFFFFFFFFFFFFFFFFFFFFFFFFFFFFFFF MUL NOT AND SWAP1 DUP4 PUSH20 0xFFFFFFFFFFFFFFFFFFFFFFFFFFFFFFFFFFFFFFFF AND MUL OR SWAP1 SSTORE POP PUSH2 0x1C8 DUP2 PUSH2 0x1CF PUSH1 0x20 SHL PUSH1 0x20 SHR JUMP JUMPDEST POP POP PUSH2 0x72B JUMP JUMPDEST PUSH1 0x4 PUSH0 SWAP1 SLOAD SWAP1 PUSH2 0x100 EXP SWAP1 DIV PUSH20 0xFFFFFFFFFFFFFFFFFFFFFFFFFFFFFFFFFFFFFFFF AND PUSH20 0xFFFFFFFFFFFFFFFFFFFFFFFFFFFFFFFFFFFFFFFF AND CALLER PUSH20 0xFFFFFFFFFFFFFFFFFFFFFFFFFFFFFFFFFFFFFFFF AND EQ PUSH2 0x25E JUMPI PUSH1 0x40 MLOAD PUSH32 0x8C379A000000000000000000000000000000000000000000000000000000000 DUP2 MSTORE PUSH1 0x4 ADD PUSH2 0x255 SWAP1 PUSH2 0x63D JUMP JUMPDEST PUSH1 0x40 MLOAD DUP1 SWAP2 SUB SWAP1 REVERT JUMPDEST PUSH0 PUSH20 0xFFFFFFFFFFFFFFFFFFFFFFFFFFFFFFFFFFFFFFFF AND DUP2 PUSH20 0xFFFFFFFFFFFFFFFFFFFFFFFFFFFFFFFFFFFFFFFF AND SUB PUSH2 0x2CC JUMPI PUSH1 0x40 MLOAD PUSH32 0x8C379A000000000000000000000000000000000000000000000000000000000 DUP2 MSTORE PUSH1 0x4 ADD PUSH2 0x2C3 SWAP1 PUSH2 0x6A5 JUMP JUMPDEST PUSH1 0x40 MLOAD DUP1 SWAP2 SUB SWAP1 REVERT JUMPDEST PUSH1 0x3 PUSH0 DUP3 PUSH20 0xFFFFFFFFFFFFFFFFFFFFFFFFFFFFFFFFFFFFFFFF AND PUSH20 0xFFFFFFFFFFFFFFFFFFFFFFFFFFFFFFFFFFFFFFFF AND DUP2 MSTORE PUSH1 0x20 ADD SWAP1 DUP2 MSTORE PUSH1 0x20 ADD PUSH0 KECCAK256 PUSH0 SWAP1 SLOAD SWAP1 PUSH2 0x100 EXP SWAP1 DIV PUSH1 0xFF AND ISZERO PUSH2 0x356 JUMPI PUSH1 0x40 MLOAD PUSH32 0x8C379A000000000000000000000000000000000000000000000000000000000 DUP2 MSTORE PUSH1 0x4 ADD PUSH2 0x34D SWAP1 PUSH2 0x70D JUMP JUMPDEST PUSH1 0x40 MLOAD DUP1 SWAP2 SUB SWAP1 REVERT JUMPDEST PUSH1 0x2 DUP2 SWAP1 DUP1 PUSH1 0x1 DUP2 SLOAD ADD DUP1 DUP3 SSTORE DUP1 SWAP2 POP POP PUSH1 0x1 SWAP1 SUB SWAP1 PUSH0 MSTORE PUSH1 0x20 PUSH0 KECCAK256 ADD PUSH0 SWAP1 SWAP2 SWAP1 SWAP2 SWAP1 SWAP2 PUSH2 0x100 EXP DUP2 SLOAD DUP2 PUSH20 0xFFFFFFFFFFFFFFFFFFFFFFFFFFFFFFFFFFFFFFFF MUL NOT AND SWAP1 DUP4 PUSH20 0xFFFFFFFFFFFFFFFFFFFFFFFFFFFFFFFFFFFFFFFF AND MUL OR SWAP1 SSTORE POP PUSH1 0x1 PUSH1 0x3 PUSH0 DUP4 PUSH20 0xFFFFFFFFFFFFFFFFFFFFFFFFFFFFFFFFFFFFFFFF AND PUSH20 0xFFFFFFFFFFFFFFFFFFFFFFFFFFFFFFFFFFFFFFFF AND DUP2 MSTORE PUSH1 0x20 ADD SWAP1 DUP2 MSTORE PUSH1 0x20 ADD PUSH0 KECCAK256 PUSH0 PUSH2 0x100 EXP DUP2 SLOAD DUP2 PUSH1 0xFF MUL NOT AND SWAP1 DUP4 ISZERO ISZERO MUL OR SWAP1 SSTORE POP DUP1 PUSH20 0xFFFFFFFFFFFFFFFFFFFFFFFFFFFFFFFFFFFFFFFF AND PUSH32 0x44D6D25963F097AD14F29F06854A01F575648A1EF82F30E562CCD3889717E339 PUSH1 0x40 MLOAD PUSH1 0x40 MLOAD DUP1 SWAP2 SUB SWAP1 LOG2 POP JUMP JUMPDEST PUSH0 PUSH0 REVERT JUMPDEST PUSH0 PUSH20 0xFFFFFFFFFFFFFFFFFFFFFFFFFFFFFFFFFFFFFFFF DUP3 AND SWAP1 POP SWAP2 SWAP1 POP JUMP JUMPDEST PUSH0 PUSH2 0x47E DUP3 PUSH2 0x455 JUMP JUMPDEST SWAP1 POP SWAP2 SWAP1 POP JUMP JUMPDEST PUSH2 0x48E DUP2 PUSH2 0x474 JUMP JUMPDEST DUP2 EQ PUSH2 0x498 JUMPI PUSH0 PUSH0 REVERT JUMPDEST POP JUMP JUMPDEST PUSH0 DUP2 MLOAD SWAP1 POP PUSH2 0x4A9 DUP2 PUSH2 0x485 JUMP JUMPDEST SWAP3 SWAP2 POP POP JUMP JUMPDEST PUSH0 PUSH0 PUSH1 0x40 DUP4 DUP6 SUB SLT ISZERO PUSH2 0x4C5 JUMPI PUSH2 0x4C4 PUSH2 0x451 JUMP JUMPDEST JUMPDEST PUSH0 PUSH2 0x4D2 DUP6 DUP3 DUP7 ADD PUSH2 0x49B JUMP JUMPDEST SWAP3 POP POP PUSH1 0x20 PUSH2 0x4E3 DUP6 DUP3 DUP7 ADD PUSH2 0x49B JUMP JUMPDEST SWAP2 POP POP SWAP3 POP SWAP3 SWAP1 POP JUMP JUMPDEST PUSH0 DUP3 DUP3 MSTORE PUSH1 0x20 DUP3 ADD SWAP1 POP SWAP3 SWAP2 POP POP JUMP JUMPDEST PUSH32 0x496E76616C69642061676772656761746F722061646472657373000000000000 PUSH0 DUP3 ADD MSTORE POP JUMP JUMPDEST PUSH0 PUSH2 0x531 PUSH1 0x1A DUP4 PUSH2 0x4ED JUMP JUMPDEST SWAP2 POP PUSH2 0x53C DUP3 PUSH2 0x4FD JUMP JUMPDEST PUSH1 0x20 DUP3 ADD SWAP1 POP SWAP2 SWAP1 POP JUMP JUMPDEST PUSH0 PUSH1 0x20 DUP3 ADD SWAP1 POP DUP2 DUP2 SUB PUSH0 DUP4 ADD MSTORE PUSH2 0x55E DUP2 PUSH2 0x525 JUMP JUMPDEST SWAP1 POP SWAP2 SWAP1 POP JUMP JUMPDEST PUSH32 0x496E76616C69642064656661756C742061646D696E2061646472657373000000 PUSH0 DUP3 ADD MSTORE POP JUMP JUMPDEST PUSH0 PUSH2 0x599 PUSH1 0x1D DUP4 PUSH2 0x4ED JUMP JUMPDEST SWAP2 POP PUSH2 0x5A4 DUP3 PUSH2 0x565 JUMP JUMPDEST PUSH1 0x20 DUP3 ADD SWAP1 POP SWAP2 SWAP1 POP JUMP JUMPDEST PUSH0 PUSH1 0x20 DUP3 ADD SWAP1 POP DUP2 DUP2 SUB PUSH0 DUP4 ADD MSTORE PUSH2 0x5C6 DUP2 PUSH2 0x58D JUMP JUMPDEST SWAP1 POP SWAP2 SWAP1 POP JUMP JUMPDEST PUSH32 0x4E6F7420617574686F72697A65643A204F6E6C792064656661756C742061646D PUSH0 DUP3 ADD MSTORE PUSH32 0x696E2063616E20706572666F726D207468697320616374696F6E000000000000 PUSH1 0x20 DUP3 ADD MSTORE POP JUMP JUMPDEST PUSH0 PUSH2 0x627 PUSH1 0x3A DUP4 PUSH2 0x4ED JUMP JUMPDEST SWAP2 POP PUSH2 0x632 DUP3 PUSH2 0x5CD JUMP JUMPDEST PUSH1 0x40 DUP3 ADD SWAP1 POP SWAP2 SWAP1 POP JUMP JUMPDEST PUSH0 PUSH1 0x20 DUP3 ADD SWAP1 POP DUP2 DUP2 SUB PUSH0 DUP4 ADD MSTORE PUSH2 0x654 DUP2 PUSH2 0x61B JUMP JUMPDEST SWAP1 POP SWAP2 SWAP1 POP JUMP JUMPDEST PUSH32 0x496E76616C696420616464726573730000000000000000000000000000000000 PUSH0 DUP3 ADD MSTORE POP JUMP JUMPDEST PUSH0 PUSH2 0x68F PUSH1 0xF DUP4 PUSH2 0x4ED JUMP JUMPDEST SWAP2 POP PUSH2 0x69A DUP3 PUSH2 0x65B JUMP JUMPDEST PUSH1 0x20 DUP3 ADD SWAP1 POP SWAP2 SWAP1 POP JUMP JUMPDEST PUSH0 PUSH1 0x20 DUP3 ADD SWAP1 POP DUP2 DUP2 SUB PUSH0 DUP4 ADD MSTORE PUSH2 0x6BC DUP2 PUSH2 0x683 JUMP JUMPDEST SWAP1 POP SWAP2 SWAP1 POP JUMP JUMPDEST PUSH32 0x416C726561647920616E2061646D696E00000000000000000000000000000000 PUSH0 DUP3 ADD MSTORE POP JUMP JUMPDEST PUSH0 PUSH2 0x6F7 PUSH1 0x10 DUP4 PUSH2 0x4ED JUMP JUMPDEST SWAP2 POP PUSH2 0x702 DUP3 PUSH2 0x6C3 JUMP JUMPDEST PUSH1 0x20 DUP3 ADD SWAP1 POP SWAP2 SWAP1 POP JUMP JUMPDEST PUSH0 PUSH1 0x20 DUP3 ADD SWAP1 POP DUP2 DUP2 SUB PUSH0 DUP4 ADD MSTORE PUSH2 0x724 DUP2 PUSH2 0x6EB JUMP JUMPDEST SWAP1 POP SWAP2 SWAP1 POP JUMP JUMPDEST PUSH2 0x3F26 DUP1 PUSH2 0x738 PUSH0 CODECOPY PUSH0 RETURN INVALID PUSH1 0x80 PUSH1 0x40 MSTORE PUSH1 0x4 CALLDATASIZE LT PUSH2 0x142 JUMPI PUSH0 CALLDATALOAD PUSH1 0xE0 SHR DUP1 PUSH4 0x5C975ABB GT PUSH2 0xB5 JUMPI DUP1 PUSH4 0xB661B9DA GT PUSH2 0x6E JUMPI DUP1 PUSH4 0xB661B9DA EQ PUSH2 0x41D JUMPI DUP1 PUSH4 0xB9721B2E EQ PUSH2 0x45C JUMPI DUP1 PUSH4 0xDE733407 EQ PUSH2 0x484 JUMPI DUP1 PUSH4 0xF92A5DCD EQ PUSH2 0x4C3 JUMPI DUP1 PUSH4 0xF98CF07C EQ PUSH2 0x4EB JUMPI DUP1 PUSH4 0xFA646434 EQ PUSH2 0x507 JUMPI PUSH2 0x151 JUMP JUMPDEST DUP1 PUSH4 0x5C975ABB EQ PUSH2 0x327 JUMPI DUP1 PUSH4 0x70480275 EQ PUSH2 0x351 JUMPI DUP1 PUSH4 0x8456CB59 EQ PUSH2 0x379 JUMPI DUP1 PUSH4 0x84EF8FFC EQ PUSH2 0x38F JUMPI DUP1 PUSH4 0x87D4377C EQ PUSH2 0x3B9 JUMPI DUP1 PUSH4 0x8C28A23A EQ PUSH2 0x3E1 JUMPI PUSH2 0x151 JUMP JUMPDEST DUP1 PUSH4 0x24D7806C GT PUSH2 0x107 JUMPI DUP1 PUSH4 0x24D7806C EQ PUSH2 0x231 JUMPI DUP1 PUSH4 0x2D51ACB9 EQ PUSH2 0x26D JUMPI DUP1 PUSH4 0x2EBF8BD6 EQ PUSH2 0x295 JUMPI DUP1 PUSH4 0x31AE450B EQ PUSH2 0x2BD JUMPI DUP1 PUSH4 0x3F4BA83A EQ PUSH2 0x2E7 JUMPI DUP1 PUSH4 0x43BC5CD3 EQ PUSH2 0x2FD JUMPI PUSH2 0x151 JUMP JUMPDEST DUP1 PUSH3 0xF714CE EQ PUSH2 0x155 JUMPI DUP1 PUSH4 0x14BFD6D0 EQ PUSH2 0x17D JUMPI DUP1 PUSH4 0x15A41150 EQ PUSH2 0x1B9 JUMPI DUP1 PUSH4 0x161B1349 EQ PUSH2 0x1E1 JUMPI DUP1 PUSH4 0x1785F53C EQ PUSH2 0x209 JUMPI PUSH2 0x151 JUMP JUMPDEST CALLDATASIZE PUSH2 0x151 JUMPI PUSH2 0x14F PUSH2 0x531 JUMP JUMPDEST STOP JUMPDEST PUSH0 PUSH0 REVERT JUMPDEST CALLVALUE DUP1 ISZERO PUSH2 0x160 JUMPI PUSH0 PUSH0 REVERT JUMPDEST POP PUSH2 0x17B PUSH1 0x4 DUP1 CALLDATASIZE SUB DUP2 ADD SWAP1 PUSH2 0x176 SWAP2 SWAP1 PUSH2 0x25BA JUMP JUMPDEST PUSH2 0x57B JUMP JUMPDEST STOP JUMPDEST CALLVALUE DUP1 ISZERO PUSH2 0x188 JUMPI PUSH0 PUSH0 REVERT JUMPDEST POP PUSH2 0x1A3 PUSH1 0x4 DUP1 CALLDATASIZE SUB DUP2 ADD SWAP1 PUSH2 0x19E SWAP2 SWAP1 PUSH2 0x25F8 JUMP JUMPDEST PUSH2 0x6ED JUMP JUMPDEST PUSH1 0x40 MLOAD PUSH2 0x1B0 SWAP2 SWAP1 PUSH2 0x2632 JUMP JUMPDEST PUSH1 0x40 MLOAD DUP1 SWAP2 SUB SWAP1 RETURN JUMPDEST CALLVALUE DUP1 ISZERO PUSH2 0x1C4 JUMPI PUSH0 PUSH0 REVERT JUMPDEST POP PUSH2 0x1DF PUSH1 0x4 DUP1 CALLDATASIZE SUB DUP2 ADD SWAP1 PUSH2 0x1DA SWAP2 SWAP1 PUSH2 0x264B JUMP JUMPDEST PUSH2 0x728 JUMP JUMPDEST STOP JUMPDEST CALLVALUE DUP1 ISZERO PUSH2 0x1EC JUMPI PUSH0 PUSH0 REVERT JUMPDEST POP PUSH2 0x207 PUSH1 0x4 DUP1 CALLDATASIZE SUB DUP2 ADD SWAP1 PUSH2 0x202 SWAP2 SWAP1 PUSH2 0x25F8 JUMP JUMPDEST PUSH2 0x8F1 JUMP JUMPDEST STOP JUMPDEST CALLVALUE DUP1 ISZERO PUSH2 0x214 JUMPI PUSH0 PUSH0 REVERT JUMPDEST POP PUSH2 0x22F PUSH1 0x4 DUP1 CALLDATASIZE SUB DUP2 ADD SWAP1 PUSH2 0x22A SWAP2 SWAP1 PUSH2 0x264B JUMP JUMPDEST PUSH2 0x9C6 JUMP JUMPDEST STOP JUMPDEST CALLVALUE DUP1 ISZERO PUSH2 0x23C JUMPI PUSH0 PUSH0 REVERT JUMPDEST POP PUSH2 0x257 PUSH1 0x4 DUP1 CALLDATASIZE SUB DUP2 ADD SWAP1 PUSH2 0x252 SWAP2 SWAP1 PUSH2 0x264B JUMP JUMPDEST PUSH2 0xD3D JUMP JUMPDEST PUSH1 0x40 MLOAD PUSH2 0x264 SWAP2 SWAP1 PUSH2 0x2690 JUMP JUMPDEST PUSH1 0x40 MLOAD DUP1 SWAP2 SUB SWAP1 RETURN JUMPDEST CALLVALUE DUP1 ISZERO PUSH2 0x278 JUMPI PUSH0 PUSH0 REVERT JUMPDEST POP PUSH2 0x293 PUSH1 0x4 DUP1 CALLDATASIZE SUB DUP2 ADD SWAP1 PUSH2 0x28E SWAP2 SWAP1 PUSH2 0x27E5 JUMP JUMPDEST PUSH2 0xD5A JUMP JUMPDEST STOP JUMPDEST CALLVALUE DUP1 ISZERO PUSH2 0x2A0 JUMPI PUSH0 PUSH0 REVERT JUMPDEST POP PUSH2 0x2BB PUSH1 0x4 DUP1 CALLDATASIZE SUB DUP2 ADD SWAP1 PUSH2 0x2B6 SWAP2 SWAP1 PUSH2 0x288F JUMP JUMPDEST PUSH2 0x1054 JUMP JUMPDEST STOP JUMPDEST CALLVALUE DUP1 ISZERO PUSH2 0x2C8 JUMPI PUSH0 PUSH0 REVERT JUMPDEST POP PUSH2 0x2D1 PUSH2 0x1235 JUMP JUMPDEST PUSH1 0x40 MLOAD PUSH2 0x2DE SWAP2 SWAP1 PUSH2 0x2996 JUMP JUMPDEST PUSH1 0x40 MLOAD DUP1 SWAP2 SUB SWAP1 RETURN JUMPDEST CALLVALUE DUP1 ISZERO PUSH2 0x2F2 JUMPI PUSH0 PUSH0 REVERT JUMPDEST POP PUSH2 0x2FB PUSH2 0x12C0 JUMP JUMPDEST STOP JUMPDEST CALLVALUE DUP1 ISZERO PUSH2 0x308 JUMPI PUSH0 PUSH0 REVERT JUMPDEST POP PUSH2 0x311 PUSH2 0x1353 JUMP JUMPDEST PUSH1 0x40 MLOAD PUSH2 0x31E SWAP2 SWAP1 PUSH2 0x29C5 JUMP JUMPDEST PUSH1 0x40 MLOAD DUP1 SWAP2 SUB SWAP1 RETURN JUMPDEST CALLVALUE DUP1 ISZERO PUSH2 0x332 JUMPI PUSH0 PUSH0 REVERT JUMPDEST POP PUSH2 0x33B PUSH2 0x1442 JUMP JUMPDEST PUSH1 0x40 MLOAD PUSH2 0x348 SWAP2 SWAP1 PUSH2 0x2690 JUMP JUMPDEST PUSH1 0x40 MLOAD DUP1 SWAP2 SUB SWAP1 RETURN JUMPDEST CALLVALUE DUP1 ISZERO PUSH2 0x35C JUMPI PUSH0 PUSH0 REVERT JUMPDEST POP PUSH2 0x377 PUSH1 0x4 DUP1 CALLDATASIZE SUB DUP2 ADD SWAP1 PUSH2 0x372 SWAP2 SWAP1 PUSH2 0x264B JUMP JUMPDEST PUSH2 0x1456 JUMP JUMPDEST STOP JUMPDEST CALLVALUE DUP1 ISZERO PUSH2 0x384 JUMPI PUSH0 PUSH0 REVERT JUMPDEST POP PUSH2 0x38D PUSH2 0x16D8 JUMP JUMPDEST STOP JUMPDEST CALLVALUE DUP1 ISZERO PUSH2 0x39A JUMPI PUSH0 PUSH0 REVERT JUMPDEST POP PUSH2 0x3A3 PUSH2 0x176B JUMP JUMPDEST PUSH1 0x40 MLOAD PUSH2 0x3B0 SWAP2 SWAP1 PUSH2 0x2632 JUMP JUMPDEST PUSH1 0x40 MLOAD DUP1 SWAP2 SUB SWAP1 RETURN JUMPDEST CALLVALUE DUP1 ISZERO PUSH2 0x3C4 JUMPI PUSH0 PUSH0 REVERT JUMPDEST POP PUSH2 0x3DF PUSH1 0x4 DUP1 CALLDATASIZE SUB DUP2 ADD SWAP1 PUSH2 0x3DA SWAP2 SWAP1 PUSH2 0x29DE JUMP JUMPDEST PUSH2 0x1790 JUMP JUMPDEST STOP JUMPDEST CALLVALUE DUP1 ISZERO PUSH2 0x3EC JUMPI PUSH0 PUSH0 REVERT JUMPDEST POP PUSH2 0x407 PUSH1 0x4 DUP1 CALLDATASIZE SUB DUP2 ADD SWAP1 PUSH2 0x402 SWAP2 SWAP1 PUSH2 0x264B JUMP JUMPDEST PUSH2 0x1B07 JUMP JUMPDEST PUSH1 0x40 MLOAD PUSH2 0x414 SWAP2 SWAP1 PUSH2 0x2B47 JUMP JUMPDEST PUSH1 0x40 MLOAD DUP1 SWAP2 SUB SWAP1 RETURN JUMPDEST CALLVALUE DUP1 ISZERO PUSH2 0x428 JUMPI PUSH0 PUSH0 REVERT JUMPDEST POP PUSH2 0x443 PUSH1 0x4 DUP1 CALLDATASIZE SUB DUP2 ADD SWAP1 PUSH2 0x43E SWAP2 SWAP1 PUSH2 0x264B JUMP JUMPDEST PUSH2 0x1BD7 JUMP JUMPDEST PUSH1 0x40 MLOAD PUSH2 0x453 SWAP5 SWAP4 SWAP3 SWAP2 SWAP1 PUSH2 0x2BC7 JUMP JUMPDEST PUSH1 0x40 MLOAD DUP1 SWAP2 SUB SWAP1 RETURN JUMPDEST CALLVALUE DUP1 ISZERO PUSH2 0x467 JUMPI PUSH0 PUSH0 REVERT JUMPDEST POP PUSH2 0x482 PUSH1 0x4 DUP1 CALLDATASIZE SUB DUP2 ADD SWAP1 PUSH2 0x47D SWAP2 SWAP1 PUSH2 0x2C11 JUMP JUMPDEST PUSH2 0x1C89 JUMP JUMPDEST STOP JUMPDEST CALLVALUE DUP1 ISZERO PUSH2 0x48F JUMPI PUSH0 PUSH0 REVERT JUMPDEST POP PUSH2 0x4AA PUSH1 0x4 DUP1 CALLDATASIZE SUB DUP2 ADD SWAP1 PUSH2 0x4A5 SWAP2 SWAP1 PUSH2 0x2C11 JUMP JUMPDEST PUSH2 0x1EC3 JUMP JUMPDEST PUSH1 0x40 MLOAD PUSH2 0x4BA SWAP5 SWAP4 SWAP3 SWAP2 SWAP1 PUSH2 0x2C4F JUMP JUMPDEST PUSH1 0x40 MLOAD DUP1 SWAP2 SUB SWAP1 RETURN JUMPDEST CALLVALUE DUP1 ISZERO PUSH2 0x4CE JUMPI PUSH0 PUSH0 REVERT JUMPDEST POP PUSH2 0x4E9 PUSH1 0x4 DUP1 CALLDATASIZE SUB DUP2 ADD SWAP1 PUSH2 0x4E4 SWAP2 SWAP1 PUSH2 0x2C11 JUMP JUMPDEST PUSH2 0x1F15 JUMP JUMPDEST STOP JUMPDEST PUSH2 0x505 PUSH1 0x4 DUP1 CALLDATASIZE SUB DUP2 ADD SWAP1 PUSH2 0x500 SWAP2 SWAP1 PUSH2 0x2C11 JUMP JUMPDEST PUSH2 0x2109 JUMP JUMPDEST STOP JUMPDEST CALLVALUE DUP1 ISZERO PUSH2 0x512 JUMPI PUSH0 PUSH0 REVERT JUMPDEST POP PUSH2 0x51B PUSH2 0x2362 JUMP JUMPDEST PUSH1 0x40 MLOAD PUSH2 0x528 SWAP2 SWAP1 PUSH2 0x29C5 JUMP JUMPDEST PUSH1 0x40 MLOAD DUP1 SWAP2 SUB SWAP1 RETURN JUMPDEST PUSH2 0x539 PUSH2 0x1442 JUMP JUMPDEST ISZERO PUSH2 0x579 JUMPI PUSH1 0x40 MLOAD PUSH32 0x8C379A000000000000000000000000000000000000000000000000000000000 DUP2 MSTORE PUSH1 0x4 ADD PUSH2 0x570 SWAP1 PUSH2 0x2CDC JUMP JUMPDEST PUSH1 0x40 MLOAD DUP1 SWAP2 SUB SWAP1 REVERT JUMPDEST JUMP JUMPDEST PUSH1 0x3 PUSH0 CALLER PUSH20 0xFFFFFFFFFFFFFFFFFFFFFFFFFFFFFFFFFFFFFFFF AND PUSH20 0xFFFFFFFFFFFFFFFFFFFFFFFFFFFFFFFFFFFFFFFF AND DUP2 MSTORE PUSH1 0x20 ADD SWAP1 DUP2 MSTORE PUSH1 0x20 ADD PUSH0 KECCAK256 PUSH0 SWAP1 SLOAD SWAP1 PUSH2 0x100 EXP SWAP1 DIV PUSH1 0xFF AND PUSH2 0x604 JUMPI PUSH1 0x40 MLOAD PUSH32 0x8C379A000000000000000000000000000000000000000000000000000000000 DUP2 MSTORE PUSH1 0x4 ADD PUSH2 0x5FB SWAP1 PUSH2 0x2D6A JUMP JUMPDEST PUSH1 0x40 MLOAD DUP1 SWAP2 SUB SWAP1 REVERT JUMPDEST PUSH2 0x60C PUSH2 0x2368 JUMP JUMPDEST SELFBALANCE DUP3 GT ISZERO PUSH2 0x64F JUMPI PUSH1 0x40 MLOAD PUSH32 0x8C379A000000000000000000000000000000000000000000000000000000000 DUP2 MSTORE PUSH1 0x4 ADD PUSH2 0x646 SWAP1 PUSH2 0x2DD2 JUMP JUMPDEST PUSH1 0x40 MLOAD DUP1 SWAP2 SUB SWAP1 REVERT JUMPDEST DUP1 PUSH20 0xFFFFFFFFFFFFFFFFFFFFFFFFFFFFFFFFFFFFFFFF AND PUSH2 0x8FC DUP4 SWAP1 DUP2 ISZERO MUL SWAP1 PUSH1 0x40 MLOAD PUSH0 PUSH1 0x40 MLOAD DUP1 DUP4 SUB DUP2 DUP6 DUP9 DUP9 CALL SWAP4 POP POP POP POP ISZERO DUP1 ISZERO PUSH2 0x692 JUMPI RETURNDATASIZE PUSH0 PUSH0 RETURNDATACOPY RETURNDATASIZE PUSH0 REVERT JUMPDEST POP DUP1 PUSH20 0xFFFFFFFFFFFFFFFFFFFFFFFFFFFFFFFFFFFFFFFF AND PUSH32 0x7FCF532C15F0A6DB0BD6D0E038BEA71D30D808C7D98CB3BF7268A95BF5081B65 DUP4 PUSH1 0x40 MLOAD PUSH2 0x6D9 SWAP2 SWAP1 PUSH2 0x29C5 JUMP JUMPDEST PUSH1 0x40 MLOAD DUP1 SWAP2 SUB SWAP1 LOG2 PUSH2 0x6E9 PUSH2 0x23B7 JUMP JUMPDEST POP POP JUMP JUMPDEST PUSH1 0x2 DUP2 DUP2 SLOAD DUP2 LT PUSH2 0x6FC JUMPI PUSH0 DUP1 REVERT JUMPDEST SWAP1 PUSH0 MSTORE PUSH1 0x20 PUSH0 KECCAK256 ADD PUSH0 SWAP2 POP SLOAD SWAP1 PUSH2 0x100 EXP SWAP1 DIV PUSH20 0xFFFFFFFFFFFFFFFFFFFFFFFFFFFFFFFFFFFFFFFF AND DUP2 JUMP JUMPDEST PUSH1 0x4 PUSH0 SWAP1 SLOAD SWAP1 PUSH2 0x100 EXP SWAP1 DIV PUSH20 0xFFFFFFFFFFFFFFFFFFFFFFFFFFFFFFFFFFFFFFFF AND PUSH20 0xFFFFFFFFFFFFFFFFFFFFFFFFFFFFFFFFFFFFFFFF AND CALLER PUSH20 0xFFFFFFFFFFFFFFFFFFFFFFFFFFFFFFFFFFFFFFFF AND EQ PUSH2 0x7B7 JUMPI PUSH1 0x40 MLOAD PUSH32 0x8C379A000000000000000000000000000000000000000000000000000000000 DUP2 MSTORE PUSH1 0x4 ADD PUSH2 0x7AE SWAP1 PUSH2 0x2E60 JUMP JUMPDEST PUSH1 0x40 MLOAD DUP1 SWAP2 SUB SWAP1 REVERT JUMPDEST PUSH0 PUSH20 0xFFFFFFFFFFFFFFFFFFFFFFFFFFFFFFFFFFFFFFFF AND DUP2 PUSH20 0xFFFFFFFFFFFFFFFFFFFFFFFFFFFFFFFFFFFFFFFF AND SUB PUSH2 0x825 JUMPI PUSH1 0x40 MLOAD PUSH32 0x8C379A000000000000000000000000000000000000000000000000000000000 DUP2 MSTORE PUSH1 0x4 ADD PUSH2 0x81C SWAP1 PUSH2 0x2EEE JUMP JUMPDEST PUSH1 0x40 MLOAD DUP1 SWAP2 SUB SWAP1 REVERT JUMPDEST PUSH0 PUSH1 0x4 PUSH0 SWAP1 SLOAD SWAP1 PUSH2 0x100 EXP SWAP1 DIV PUSH20 0xFFFFFFFFFFFFFFFFFFFFFFFFFFFFFFFFFFFFFFFF AND SWAP1 POP PUSH2 0x853 DUP3 PUSH2 0x1456 JUMP JUMPDEST DUP2 PUSH1 0x4 PUSH0 PUSH2 0x100 EXP DUP2 SLOAD DUP2 PUSH20 0xFFFFFFFFFFFFFFFFFFFFFFFFFFFFFFFFFFFFFFFF MUL NOT AND SWAP1 DUP4 PUSH20 0xFFFFFFFFFFFFFFFFFFFFFFFFFFFFFFFFFFFFFFFF AND MUL OR SWAP1 SSTORE POP DUP2 PUSH20 0xFFFFFFFFFFFFFFFFFFFFFFFFFFFFFFFFFFFFFFFF AND DUP2 PUSH20 0xFFFFFFFFFFFFFFFFFFFFFFFFFFFFFFFFFFFFFFFF AND PUSH32 0xEE6C1CBBF9F44E83120156684C7401E64D663798734F8A50DA171743FA7E349B PUSH1 0x40 MLOAD PUSH1 0x40 MLOAD DUP1 SWAP2 SUB SWAP1 LOG3 POP POP JUMP JUMPDEST PUSH1 0x3 PUSH0 CALLER PUSH20 0xFFFFFFFFFFFFFFFFFFFFFFFFFFFFFFFFFFFFFFFF AND PUSH20 0xFFFFFFFFFFFFFFFFFFFFFFFFFFFFFFFFFFFFFFFF AND DUP2 MSTORE PUSH1 0x20 ADD SWAP1 DUP2 MSTORE PUSH1 0x20 ADD PUSH0 KECCAK256 PUSH0 SWAP1 SLOAD SWAP1 PUSH2 0x100 EXP SWAP1 DIV PUSH1 0xFF AND PUSH2 0x97A JUMPI PUSH1 0x40 MLOAD PUSH32 0x8C379A000000000000000000000000000000000000000000000000000000000 DUP2 MSTORE PUSH1 0x4 ADD PUSH2 0x971 SWAP1 PUSH2 0x2D6A JUMP JUMPDEST PUSH1 0x40 MLOAD DUP1 SWAP2 SUB SWAP1 REVERT JUMPDEST PUSH0 DUP2 GT PUSH2 0x9BC JUMPI PUSH1 0x40 MLOAD PUSH32 0x8C379A000000000000000000000000000000000000000000000000000000000 DUP2 MSTORE PUSH1 0x4 ADD PUSH2 0x9B3 SWAP1 PUSH2 0x2F7C JUMP JUMPDEST PUSH1 0x40 MLOAD DUP1 SWAP2 SUB SWAP1 REVERT JUMPDEST DUP1 PUSH1 0x6 DUP2 SWAP1 SSTORE POP POP JUMP JUMPDEST PUSH1 0x4 PUSH0 SWAP1 SLOAD SWAP1 PUSH2 0x100 EXP SWAP1 DIV PUSH20 0xFFFFFFFFFFFFFFFFFFFFFFFFFFFFFFFFFFFFFFFF AND PUSH20 0xFFFFFFFFFFFFFFFFFFFFFFFFFFFFFFFFFFFFFFFF AND CALLER PUSH20 0xFFFFFFFFFFFFFFFFFFFFFFFFFFFFFFFFFFFFFFFF AND EQ PUSH2 0xA55 JUMPI PUSH1 0x40 MLOAD PUSH32 0x8C379A000000000000000000000000000000000000000000000000000000000 DUP2 MSTORE PUSH1 0x4 ADD PUSH2 0xA4C SWAP1 PUSH2 0x2E60 JUMP JUMPDEST PUSH1 0x40 MLOAD DUP1 SWAP2 SUB SWAP1 REVERT JUMPDEST PUSH1 0x3 PUSH0 DUP3 PUSH20 0xFFFFFFFFFFFFFFFFFFFFFFFFFFFFFFFFFFFFFFFF AND PUSH20 0xFFFFFFFFFFFFFFFFFFFFFFFFFFFFFFFFFFFFFFFF AND DUP2 MSTORE PUSH1 0x20 ADD SWAP1 DUP2 MSTORE PUSH1 0x20 ADD PUSH0 KECCAK256 PUSH0 SWAP1 SLOAD SWAP1 PUSH2 0x100 EXP SWAP1 DIV PUSH1 0xFF AND PUSH2 0xADE JUMPI PUSH1 0x40 MLOAD PUSH32 0x8C379A000000000000000000000000000000000000000000000000000000000 DUP2 MSTORE PUSH1 0x4 ADD PUSH2 0xAD5 SWAP1 PUSH2 0x2FE4 JUMP JUMPDEST PUSH1 0x40 MLOAD DUP1 SWAP2 SUB SWAP1 REVERT JUMPDEST PUSH1 0x1 PUSH1 0x2 DUP1 SLOAD SWAP1 POP GT PUSH2 0xB26 JUMPI PUSH1 0x40 MLOAD PUSH32 0x8C379A000000000000000000000000000000000000000000000000000000000 DUP2 MSTORE PUSH1 0x4 ADD PUSH2 0xB1D SWAP1 PUSH2 0x304C JUMP JUMPDEST PUSH1 0x40 MLOAD DUP1 SWAP2 SUB SWAP1 REVERT JUMPDEST PUSH0 PUSH1 0x3 PUSH0 DUP4 PUSH20 0xFFFFFFFFFFFFFFFFFFFFFFFFFFFFFFFFFFFFFFFF AND PUSH20 0xFFFFFFFFFFFFFFFFFFFFFFFFFFFFFFFFFFFFFFFF AND DUP2 MSTORE PUSH1 0x20 ADD SWAP1 DUP2 MSTORE PUSH1 0x20 ADD PUSH0 KECCAK256 PUSH0 PUSH2 0x100 EXP DUP2 SLOAD DUP2 PUSH1 0xFF MUL NOT AND SWAP1 DUP4 ISZERO ISZERO MUL OR SWAP1 SSTORE POP PUSH0 PUSH0 SWAP1 POP JUMPDEST PUSH1 0x2 DUP1 SLOAD SWAP1 POP DUP2 LT ISZERO PUSH2 0xCF6 JUMPI DUP2 PUSH20 0xFFFFFFFFFFFFFFFFFFFFFFFFFFFFFFFFFFFFFFFF AND PUSH1 0x2 DUP3 DUP2 SLOAD DUP2 LT PUSH2 0xBB7 JUMPI PUSH2 0xBB6 PUSH2 0x306A JUMP JUMPDEST JUMPDEST SWAP1 PUSH0 MSTORE PUSH1 0x20 PUSH0 KECCAK256 ADD PUSH0 SWAP1 SLOAD SWAP1 PUSH2 0x100 EXP SWAP1 DIV PUSH20 0xFFFFFFFFFFFFFFFFFFFFFFFFFFFFFFFFFFFFFFFF AND PUSH20 0xFFFFFFFFFFFFFFFFFFFFFFFFFFFFFFFFFFFFFFFF AND SUB PUSH2 0xCE9 JUMPI PUSH1 0x2 PUSH1 0x1 PUSH1 0x2 DUP1 SLOAD SWAP1 POP PUSH2 0xC0E SWAP2 SWAP1 PUSH2 0x30C4 JUMP JUMPDEST DUP2 SLOAD DUP2 LT PUSH2 0xC1F JUMPI PUSH2 0xC1E PUSH2 0x306A JUMP JUMPDEST JUMPDEST SWAP1 PUSH0 MSTORE PUSH1 0x20 PUSH0 KECCAK256 ADD PUSH0 SWAP1 SLOAD SWAP1 PUSH2 0x100 EXP SWAP1 DIV PUSH20 0xFFFFFFFFFFFFFFFFFFFFFFFFFFFFFFFFFFFFFFFF AND PUSH1 0x2 DUP3 DUP2 SLOAD DUP2 LT PUSH2 0xC5B JUMPI PUSH2 0xC5A PUSH2 0x306A JUMP JUMPDEST JUMPDEST SWAP1 PUSH0 MSTORE PUSH1 0x20 PUSH0 KECCAK256 ADD PUSH0 PUSH2 0x100 EXP DUP2 SLOAD DUP2 PUSH20 0xFFFFFFFFFFFFFFFFFFFFFFFFFFFFFFFFFFFFFFFF MUL NOT AND SWAP1 DUP4 PUSH20 0xFFFFFFFFFFFFFFFFFFFFFFFFFFFFFFFFFFFFFFFF AND MUL OR SWAP1 SSTORE POP PUSH1 0x2 DUP1 SLOAD DUP1 PUSH2 0xCB2 JUMPI PUSH2 0xCB1 PUSH2 0x30F7 JUMP JUMPDEST JUMPDEST PUSH1 0x1 SWAP1 SUB DUP2 DUP2 SWAP1 PUSH0 MSTORE PUSH1 0x20 PUSH0 KECCAK256 ADD PUSH0 PUSH2 0x100 EXP DUP2 SLOAD SWAP1 PUSH20 0xFFFFFFFFFFFFFFFFFFFFFFFFFFFFFFFFFFFFFFFF MUL NOT AND SWAP1 SSTORE SWAP1 SSTORE PUSH2 0xCF6 JUMP JUMPDEST DUP1 DUP1 PUSH1 0x1 ADD SWAP2 POP POP PUSH2 0xB7F JUMP JUMPDEST POP DUP1 PUSH20 0xFFFFFFFFFFFFFFFFFFFFFFFFFFFFFFFFFFFFFFFF AND PUSH32 0xA3B62BC36326052D97EA62D63C3D60308ED4C3EA8AC079DD8499F1E9C4F80C0F PUSH1 0x40 MLOAD PUSH1 0x40 MLOAD DUP1 SWAP2 SUB SWAP1 LOG2 POP JUMP JUMPDEST PUSH1 0x3 PUSH1 0x20 MSTORE DUP1 PUSH0 MSTORE PUSH1 0x40 PUSH0 KECCAK256 PUSH0 SWAP2 POP SLOAD SWAP1 PUSH2 0x100 EXP SWAP1 DIV PUSH1 0xFF AND DUP2 JUMP JUMPDEST PUSH2 0xD62 PUSH2 0x531 JUMP JUMPDEST PUSH1 0x3 PUSH0 CALLER PUSH20 0xFFFFFFFFFFFFFFFFFFFFFFFFFFFFFFFFFFFFFFFF AND PUSH20 0xFFFFFFFFFFFFFFFFFFFFFFFFFFFFFFFFFFFFFFFF AND DUP2 MSTORE PUSH1 0x20 ADD SWAP1 DUP2 MSTORE PUSH1 0x20 ADD PUSH0 KECCAK256 PUSH0 SWAP1 SLOAD SWAP1 PUSH2 0x100 EXP SWAP1 DIV PUSH1 0xFF AND PUSH2 0xDEB JUMPI PUSH1 0x40 MLOAD PUSH32 0x8C379A000000000000000000000000000000000000000000000000000000000 DUP2 MSTORE PUSH1 0x4 ADD PUSH2 0xDE2 SWAP1 PUSH2 0x2D6A JUMP JUMPDEST PUSH1 0x40 MLOAD DUP1 SWAP2 SUB SWAP1 REVERT JUMPDEST PUSH0 PUSH20 0xFFFFFFFFFFFFFFFFFFFFFFFFFFFFFFFFFFFFFFFF AND DUP4 PUSH20 0xFFFFFFFFFFFFFFFFFFFFFFFFFFFFFFFFFFFFFFFF AND SUB PUSH2 0xE59 JUMPI PUSH1 0x40 MLOAD PUSH32 0x8C379A000000000000000000000000000000000000000000000000000000000 DUP2 MSTORE PUSH1 0x4 ADD PUSH2 0xE50 SWAP1 PUSH2 0x316E JUMP JUMPDEST PUSH1 0x40 MLOAD DUP1 SWAP2 SUB SWAP1 REVERT JUMPDEST PUSH2 0xE62 DUP4 PUSH2 0x23C0 JUMP JUMPDEST ISZERO PUSH2 0xEA2 JUMPI PUSH1 0x40 MLOAD PUSH32 0x8C379A000000000000000000000000000000000000000000000000000000000 DUP2 MSTORE PUSH1 0x4 ADD PUSH2 0xE99 SWAP1 PUSH2 0x31D6 JUMP JUMPDEST PUSH1 0x40 MLOAD DUP1 SWAP2 SUB SWAP1 REVERT JUMPDEST PUSH0 DUP5 MLOAD GT PUSH2 0xEE5 JUMPI PUSH1 0x40 MLOAD PUSH32 0x8C379A000000000000000000000000000000000000000000000000000000000 DUP2 MSTORE PUSH1 0x4 ADD PUSH2 0xEDC SWAP1 PUSH2 0x323E JUMP JUMPDEST PUSH1 0x40 MLOAD DUP1 SWAP2 SUB SWAP1 REVERT JUMPDEST PUSH8 0xDE0B6B3A7640000 PUSH1 0x6 SLOAD PUSH2 0xEFB SWAP2 SWAP1 PUSH2 0x325C JUMP JUMPDEST PUSH2 0xF03 PUSH2 0x1353 JUMP JUMPDEST DUP4 PUSH2 0xF0E SWAP2 SWAP1 PUSH2 0x325C JUMP JUMPDEST LT ISZERO PUSH2 0xF4F JUMPI PUSH1 0x40 MLOAD PUSH32 0x8C379A000000000000000000000000000000000000000000000000000000000 DUP2 MSTORE PUSH1 0x4 ADD PUSH2 0xF46 SWAP1 PUSH2 0x330D JUMP JUMPDEST PUSH1 0x40 MLOAD DUP1 SWAP2 SUB SWAP1 REVERT JUMPDEST TIMESTAMP DUP2 GT PUSH2 0xF91 JUMPI PUSH1 0x40 MLOAD PUSH32 0x8C379A000000000000000000000000000000000000000000000000000000000 DUP2 MSTORE PUSH1 0x4 ADD PUSH2 0xF88 SWAP1 PUSH2 0x339B JUMP JUMPDEST PUSH1 0x40 MLOAD DUP1 SWAP2 SUB SWAP1 REVERT JUMPDEST PUSH0 PUSH1 0x7 PUSH0 DUP6 PUSH20 0xFFFFFFFFFFFFFFFFFFFFFFFFFFFFFFFFFFFFFFFF AND PUSH20 0xFFFFFFFFFFFFFFFFFFFFFFFFFFFFFFFFFFFFFFFF AND DUP2 MSTORE PUSH1 0x20 ADD SWAP1 DUP2 MSTORE PUSH1 0x20 ADD PUSH0 KECCAK256 SWAP1 POP DUP5 DUP2 PUSH0 ADD SWAP1 DUP2 PUSH2 0xFE1 SWAP2 SWAP1 PUSH2 0x35B6 JUMP JUMPDEST POP DUP3 DUP2 PUSH1 0x1 ADD DUP2 SWAP1 SSTORE POP PUSH0 DUP2 PUSH1 0x2 ADD DUP2 SWAP1 SSTORE POP DUP2 DUP2 PUSH1 0x3 ADD DUP2 SWAP1 SSTORE POP DUP4 PUSH20 0xFFFFFFFFFFFFFFFFFFFFFFFFFFFFFFFFFFFFFFFF AND PUSH32 0x2B88C9786B136E841912BB0DD74DA2EDD0A414D70A8771B7941093AF50AE3B5E DUP5 DUP5 PUSH1 0x40 MLOAD PUSH2 0x1045 SWAP3 SWAP2 SWAP1 PUSH2 0x3685 JUMP JUMPDEST PUSH1 0x40 MLOAD DUP1 SWAP2 SUB SWAP1 LOG2 POP POP POP POP POP JUMP JUMPDEST PUSH2 0x105C PUSH2 0x531 JUMP JUMPDEST PUSH1 0x3 PUSH0 CALLER PUSH20 0xFFFFFFFFFFFFFFFFFFFFFFFFFFFFFFFFFFFFFFFF AND PUSH20 0xFFFFFFFFFFFFFFFFFFFFFFFFFFFFFFFFFFFFFFFF AND DUP2 MSTORE PUSH1 0x20 ADD SWAP1 DUP2 MSTORE PUSH1 0x20 ADD PUSH0 KECCAK256 PUSH0 SWAP1 SLOAD SWAP1 PUSH2 0x100 EXP SWAP1 DIV PUSH1 0xFF AND PUSH2 0x10E5 JUMPI PUSH1 0x40 MLOAD PUSH32 0x8C379A000000000000000000000000000000000000000000000000000000000 DUP2 MSTORE PUSH1 0x4 ADD PUSH2 0x10DC SWAP1 PUSH2 0x2D6A JUMP JUMPDEST PUSH1 0x40 MLOAD DUP1 SWAP2 SUB SWAP1 REVERT JUMPDEST PUSH0 PUSH1 0x7 PUSH0 DUP6 PUSH20 0xFFFFFFFFFFFFFFFFFFFFFFFFFFFFFFFFFFFFFFFF AND PUSH20 0xFFFFFFFFFFFFFFFFFFFFFFFFFFFFFFFFFFFFFFFF AND DUP2 MSTORE PUSH1 0x20 ADD SWAP1 DUP2 MSTORE PUSH1 0x20 ADD PUSH0 KECCAK256 SWAP1 POP PUSH0 DUP2 PUSH1 0x1 ADD SLOAD GT PUSH2 0x116B JUMPI PUSH1 0x40 MLOAD PUSH32 0x8C379A000000000000000000000000000000000000000000000000000000000 DUP2 MSTORE PUSH1 0x4 ADD PUSH2 0x1162 SWAP1 PUSH2 0x36F6 JUMP JUMPDEST PUSH1 0x40 MLOAD DUP1 SWAP2 SUB SWAP1 REVERT JUMPDEST DUP3 DUP2 PUSH1 0x2 ADD PUSH0 DUP3 DUP3 SLOAD PUSH2 0x117E SWAP2 SWAP1 PUSH2 0x30C4 JUMP JUMPDEST SWAP3 POP POP DUP2 SWAP1 SSTORE POP DUP4 PUSH20 0xFFFFFFFFFFFFFFFFFFFFFFFFFFFFFFFFFFFFFFFF AND PUSH32 0x4B28C7DC138644F27518388387393ECBD08EF8D180A4A6799C954BE166A37AB3 DUP5 PUSH1 0x40 MLOAD PUSH2 0x11CB SWAP2 SWAP1 PUSH2 0x29C5 JUMP JUMPDEST PUSH1 0x40 MLOAD DUP1 SWAP2 SUB SWAP1 LOG2 DUP2 ISZERO PUSH2 0x122F JUMPI PUSH0 DUP2 PUSH1 0x1 ADD DUP2 SWAP1 SSTORE POP PUSH0 DUP2 PUSH1 0x2 ADD DUP2 SWAP1 SSTORE POP DUP4 PUSH20 0xFFFFFFFFFFFFFFFFFFFFFFFFFFFFFFFFFFFFFFFF AND PUSH32 0x1B9B72FDE9DA721E70E6ACA3B0CF4CBE73E82765EF1F280157740376531BFDD8 PUSH1 0x40 MLOAD PUSH1 0x40 MLOAD DUP1 SWAP2 SUB SWAP1 LOG2 JUMPDEST POP POP POP POP JUMP JUMPDEST PUSH1 0x60 PUSH1 0x2 DUP1 SLOAD DUP1 PUSH1 0x20 MUL PUSH1 0x20 ADD PUSH1 0x40 MLOAD SWAP1 DUP2 ADD PUSH1 0x40 MSTORE DUP1 SWAP3 SWAP2 SWAP1 DUP2 DUP2 MSTORE PUSH1 0x20 ADD DUP3 DUP1 SLOAD DUP1 ISZERO PUSH2 0x12B6 JUMPI PUSH1 0x20 MUL DUP3 ADD SWAP2 SWAP1 PUSH0 MSTORE PUSH1 0x20 PUSH0 KECCAK256 SWAP1 JUMPDEST DUP2 PUSH0 SWAP1 SLOAD SWAP1 PUSH2 0x100 EXP SWAP1 DIV PUSH20 0xFFFFFFFFFFFFFFFFFFFFFFFFFFFFFFFFFFFFFFFF AND PUSH20 0xFFFFFFFFFFFFFFFFFFFFFFFFFFFFFFFFFFFFFFFF AND DUP2 MSTORE PUSH1 0x20 ADD SWAP1 PUSH1 0x1 ADD SWAP1 DUP1 DUP4 GT PUSH2 0x126D JUMPI JUMPDEST POP POP POP POP POP SWAP1 POP SWAP1 JUMP JUMPDEST PUSH1 0x3 PUSH0 CALLER PUSH20 0xFFFFFFFFFFFFFFFFFFFFFFFFFFFFFFFFFFFFFFFF AND PUSH20 0xFFFFFFFFFFFFFFFFFFFFFFFFFFFFFFFFFFFFFFFF AND DUP2 MSTORE PUSH1 0x20 ADD SWAP1 DUP2 MSTORE PUSH1 0x20 ADD PUSH0 KECCAK256 PUSH0 SWAP1 SLOAD SWAP1 PUSH2 0x100 EXP SWAP1 DIV PUSH1 0xFF AND PUSH2 0x1349 JUMPI PUSH1 0x40 MLOAD PUSH32 0x8C379A000000000000000000000000000000000000000000000000000000000 DUP2 MSTORE PUSH1 0x4 ADD PUSH2 0x1340 SWAP1 PUSH2 0x2D6A JUMP JUMPDEST PUSH1 0x40 MLOAD DUP1 SWAP2 SUB SWAP1 REVERT JUMPDEST PUSH2 0x1351 PUSH2 0x240B JUMP JUMPDEST JUMP JUMPDEST PUSH0 PUSH0 PUSH1 0x5 PUSH0 SWAP1 SLOAD SWAP1 PUSH2 0x100 EXP SWAP1 DIV PUSH20 0xFFFFFFFFFFFFFFFFFFFFFFFFFFFFFFFFFFFFFFFF AND PUSH20 0xFFFFFFFFFFFFFFFFFFFFFFFFFFFFFFFFFFFFFFFF AND PUSH4 0xFEAF968C PUSH1 0x40 MLOAD DUP2 PUSH4 0xFFFFFFFF AND PUSH1 0xE0 SHL DUP2 MSTORE PUSH1 0x4 ADD PUSH1 0xA0 PUSH1 0x40 MLOAD DUP1 DUP4 SUB DUP2 DUP7 GAS STATICCALL ISZERO DUP1 ISZERO PUSH2 0x13BF JUMPI RETURNDATASIZE PUSH0 PUSH0 RETURNDATACOPY RETURNDATASIZE PUSH0 REVERT JUMPDEST POP POP POP POP PUSH1 0x40 MLOAD RETURNDATASIZE PUSH1 0x1F NOT PUSH1 0x1F DUP3 ADD AND DUP3 ADD DUP1 PUSH1 0x40 MSTORE POP DUP2 ADD SWAP1 PUSH2 0x13E3 SWAP2 SWAP1 PUSH2 0x379A JUMP JUMPDEST POP POP POP SWAP2 POP POP PUSH0 DUP2 SGT PUSH2 0x142B JUMPI PUSH1 0x40 MLOAD PUSH32 0x8C379A000000000000000000000000000000000000000000000000000000000 DUP2 MSTORE PUSH1 0x4 ADD PUSH2 0x1422 SWAP1 PUSH2 0x385B JUMP JUMPDEST PUSH1 0x40 MLOAD DUP1 SWAP2 SUB SWAP1 REVERT JUMPDEST PUSH5 0x2540BE400 DUP2 PUSH2 0x143C SWAP2 SWAP1 PUSH2 0x325C JUMP JUMPDEST SWAP2 POP POP SWAP1 JUMP JUMPDEST PUSH0 PUSH0 PUSH0 SWAP1 SLOAD SWAP1 PUSH2 0x100 EXP SWAP1 DIV PUSH1 0xFF AND SWAP1 POP SWAP1 JUMP JUMPDEST PUSH1 0x4 PUSH0 SWAP1 SLOAD SWAP1 PUSH2 0x100 EXP SWAP1 DIV PUSH20 0xFFFFFFFFFFFFFFFFFFFFFFFFFFFFFFFFFFFFFFFF AND PUSH20 0xFFFFFFFFFFFFFFFFFFFFFFFFFFFFFFFFFFFFFFFF AND CALLER PUSH20 0xFFFFFFFFFFFFFFFFFFFFFFFFFFFFFFFFFFFFFFFF AND EQ PUSH2 0x14E5 JUMPI PUSH1 0x40 MLOAD PUSH32 0x8C379A000000000000000000000000000000000000000000000000000000000 DUP2 MSTORE PUSH1 0x4 ADD PUSH2 0x14DC SWAP1 PUSH2 0x2E60 JUMP JUMPDEST PUSH1 0x40 MLOAD DUP1 SWAP2 SUB SWAP1 REVERT JUMPDEST PUSH0 PUSH20 0xFFFFFFFFFFFFFFFFFFFFFFFFFFFFFFFFFFFFFFFF AND DUP2 PUSH20 0xFFFFFFFFFFFFFFFFFFFFFFFFFFFFFFFFFFFFFFFF AND SUB PUSH2 0x1553 JUMPI PUSH1 0x40 MLOAD PUSH32 0x8C379A000000000000000000000000000000000000000000000000000000000 DUP2 MSTORE PUSH1 0x4 ADD PUSH2 0x154A SWAP1 PUSH2 0x38C3 JUMP JUMPDEST PUSH1 0x40 MLOAD DUP1 SWAP2 SUB SWAP1 REVERT JUMPDEST PUSH1 0x3 PUSH0 DUP3 PUSH20 0xFFFFFFFFFFFFFFFFFFFFFFFFFFFFFFFFFFFFFFFF AND PUSH20 0xFFFFFFFFFFFFFFFFFFFFFFFFFFFFFFFFFFFFFFFF AND DUP2 MSTORE PUSH1 0x20 ADD SWAP1 DUP2 MSTORE PUSH1 0x20 ADD PUSH0 KECCAK256 PUSH0 SWAP1 SLOAD SWAP1 PUSH2 0x100 EXP SWAP1 DIV PUSH1 0xFF AND ISZERO PUSH2 0x15DD JUMPI PUSH1 0x40 MLOAD PUSH32 0x8C379A000000000000000000000000000000000000000000000000000000000 DUP2 MSTORE PUSH1 0x4 ADD PUSH2 0x15D4 SWAP1 PUSH2 0x392B JUMP JUMPDEST PUSH1 0x40 MLOAD DUP1 SWAP2 SUB SWAP1 REVERT JUMPDEST PUSH1 0x2 DUP2 SWAP1 DUP1 PUSH1 0x1 DUP2 SLOAD ADD DUP1 DUP3 SSTORE DUP1 SWAP2 POP POP PUSH1 0x1 SWAP1 SUB SWAP1 PUSH0 MSTORE PUSH1 0x20 PUSH0 KECCAK256 ADD PUSH0 SWAP1 SWAP2 SWAP1 SWAP2 SWAP1 SWAP2 PUSH2 0x100 EXP DUP2 SLOAD DUP2 PUSH20 0xFFFFFFFFFFFFFFFFFFFFFFFFFFFFFFFFFFFFFFFF MUL NOT AND SWAP1 DUP4 PUSH20 0xFFFFFFFFFFFFFFFFFFFFFFFFFFFFFFFFFFFFFFFF AND MUL OR SWAP1 SSTORE POP PUSH1 0x1 PUSH1 0x3 PUSH0 DUP4 PUSH20 0xFFFFFFFFFFFFFFFFFFFFFFFFFFFFFFFFFFFFFFFF AND PUSH20 0xFFFFFFFFFFFFFFFFFFFFFFFFFFFFFFFFFFFFFFFF AND DUP2 MSTORE PUSH1 0x20 ADD SWAP1 DUP2 MSTORE PUSH1 0x20 ADD PUSH0 KECCAK256 PUSH0 PUSH2 0x100 EXP DUP2 SLOAD DUP2 PUSH1 0xFF MUL NOT AND SWAP1 DUP4 ISZERO ISZERO MUL OR SWAP1 SSTORE POP DUP1 PUSH20 0xFFFFFFFFFFFFFFFFFFFFFFFFFFFFFFFFFFFFFFFF AND PUSH32 0x44D6D25963F097AD14F29F06854A01F575648A1EF82F30E562CCD3889717E339 PUSH1 0x40 MLOAD PUSH1 0x40 MLOAD DUP1 SWAP2 SUB SWAP1 LOG2 POP JUMP JUMPDEST PUSH1 0x3 PUSH0 CALLER PUSH20 0xFFFFFFFFFFFFFFFFFFFFFFFFFFFFFFFFFFFFFFFF AND PUSH20 0xFFFFFFFFFFFFFFFFFFFFFFFFFFFFFFFFFFFFFFFF AND DUP2 MSTORE PUSH1 0x20 ADD SWAP1 DUP2 MSTORE PUSH1 0x20 ADD PUSH0 KECCAK256 PUSH0 SWAP1 SLOAD SWAP1 PUSH2 0x100 EXP SWAP1 DIV PUSH1 0xFF AND PUSH2 0x1761 JUMPI PUSH1 0x40 MLOAD PUSH32 0x8C379A000000000000000000000000000000000000000000000000000000000 DUP2 MSTORE PUSH1 0x4 ADD PUSH2 0x1758 SWAP1 PUSH2 0x2D6A JUMP JUMPDEST PUSH1 0x40 MLOAD DUP1 SWAP2 SUB SWAP1 REVERT JUMPDEST PUSH2 0x1769 PUSH2 0x246B JUMP JUMPDEST JUMP JUMPDEST PUSH1 0x4 PUSH0 SWAP1 SLOAD SWAP1 PUSH2 0x100 EXP SWAP1 DIV PUSH20 0xFFFFFFFFFFFFFFFFFFFFFFFFFFFFFFFFFFFFFFFF AND DUP2 JUMP JUMPDEST PUSH2 0x1798 PUSH2 0x531 JUMP JUMPDEST PUSH1 0x3 PUSH0 CALLER PUSH20 0xFFFFFFFFFFFFFFFFFFFFFFFFFFFFFFFFFFFFFFFF AND PUSH20 0xFFFFFFFFFFFFFFFFFFFFFFFFFFFFFFFFFFFFFFFF AND DUP2 MSTORE PUSH1 0x20 ADD SWAP1 DUP2 MSTORE PUSH1 0x20 ADD PUSH0 KECCAK256 PUSH0 SWAP1 SLOAD SWAP1 PUSH2 0x100 EXP SWAP1 DIV PUSH1 0xFF AND PUSH2 0x1821 JUMPI PUSH1 0x40 MLOAD PUSH32 0x8C379A000000000000000000000000000000000000000000000000000000000 DUP2 MSTORE PUSH1 0x4 ADD PUSH2 0x1818 SWAP1 PUSH2 0x2D6A JUMP JUMPDEST PUSH1 0x40 MLOAD DUP1 SWAP2 SUB SWAP1 REVERT JUMPDEST PUSH2 0x182A DUP4 PUSH2 0x23C0 JUMP JUMPDEST PUSH2 0x1869 JUMPI PUSH1 0x40 MLOAD PUSH32 0x8C379A000000000000000000000000000000000000000000000000000000000 DUP2 MSTORE PUSH1 0x4 ADD PUSH2 0x1860 SWAP1 PUSH2 0x3993 JUMP JUMPDEST PUSH1 0x40 MLOAD DUP1 SWAP2 SUB SWAP1 REVERT JUMPDEST PUSH0 DUP3 GT PUSH2 0x18AB JUMPI PUSH1 0x40 MLOAD PUSH32 0x8C379A000000000000000000000000000000000000000000000000000000000 DUP2 MSTORE PUSH1 0x4 ADD PUSH2 0x18A2 SWAP1 PUSH2 0x3A21 JUMP JUMPDEST PUSH1 0x40 MLOAD DUP1 SWAP2 SUB SWAP1 REVERT JUMPDEST TIMESTAMP DUP2 GT DUP1 ISZERO PUSH2 0x18FA JUMPI POP PUSH1 0x7 PUSH0 DUP5 PUSH20 0xFFFFFFFFFFFFFFFFFFFFFFFFFFFFFFFFFFFFFFFF AND PUSH20 0xFFFFFFFFFFFFFFFFFFFFFFFFFFFFFFFFFFFFFFFF AND DUP2 MSTORE PUSH1 0x20 ADD SWAP1 DUP2 MSTORE PUSH1 0x20 ADD PUSH0 KECCAK256 PUSH1 0x3 ADD SLOAD DUP2 GT ISZERO JUMPDEST PUSH2 0x1939 JUMPI PUSH1 0x40 MLOAD PUSH32 0x8C379A000000000000000000000000000000000000000000000000000000000 DUP2 MSTORE PUSH1 0x4 ADD PUSH2 0x1930 SWAP1 PUSH2 0x3AAF JUMP JUMPDEST PUSH1 0x40 MLOAD DUP1 SWAP2 SUB SWAP1 REVERT JUMPDEST PUSH0 PUSH1 0x8 PUSH0 DUP6 PUSH20 0xFFFFFFFFFFFFFFFFFFFFFFFFFFFFFFFFFFFFFFFF AND PUSH20 0xFFFFFFFFFFFFFFFFFFFFFFFFFFFFFFFFFFFFFFFF AND DUP2 MSTORE PUSH1 0x20 ADD SWAP1 DUP2 MSTORE PUSH1 0x20 ADD PUSH0 KECCAK256 SWAP1 POP PUSH0 DUP2 DUP1 SLOAD SWAP1 POP GT ISZERO PUSH2 0x19FF JUMPI PUSH0 DUP2 PUSH1 0x1 DUP4 DUP1 SLOAD SWAP1 POP PUSH2 0x1998 SWAP2 SWAP1 PUSH2 0x30C4 JUMP JUMPDEST DUP2 SLOAD DUP2 LT PUSH2 0x19A9 JUMPI PUSH2 0x19A8 PUSH2 0x306A JUMP JUMPDEST JUMPDEST SWAP1 PUSH0 MSTORE PUSH1 0x20 PUSH0 KECCAK256 SWAP1 PUSH1 0x4 MUL ADD PUSH1 0x2 ADD SLOAD SWAP1 POP DUP1 DUP4 GT PUSH2 0x19FD JUMPI PUSH1 0x40 MLOAD PUSH32 0x8C379A000000000000000000000000000000000000000000000000000000000 DUP2 MSTORE PUSH1 0x4 ADD PUSH2 0x19F4 SWAP1 PUSH2 0x3B3D JUMP JUMPDEST PUSH1 0x40 MLOAD DUP1 SWAP2 SUB SWAP1 REVERT JUMPDEST POP JUMPDEST PUSH1 0x8 PUSH0 DUP6 PUSH20 0xFFFFFFFFFFFFFFFFFFFFFFFFFFFFFFFFFFFFFFFF AND PUSH20 0xFFFFFFFFFFFFFFFFFFFFFFFFFFFFFFFFFFFFFFFF AND DUP2 MSTORE PUSH1 0x20 ADD SWAP1 DUP2 MSTORE PUSH1 0x20 ADD PUSH0 KECCAK256 PUSH1 0x40 MLOAD DUP1 PUSH1 0x80 ADD PUSH1 0x40 MSTORE DUP1 DUP6 DUP2 MSTORE PUSH1 0x20 ADD PUSH0 DUP2 MSTORE PUSH1 0x20 ADD DUP5 DUP2 MSTORE PUSH1 0x20 ADD PUSH0 ISZERO ISZERO DUP2 MSTORE POP SWAP1 DUP1 PUSH1 0x1 DUP2 SLOAD ADD DUP1 DUP3 SSTORE DUP1 SWAP2 POP POP PUSH1 0x1 SWAP1 SUB SWAP1 PUSH0 MSTORE PUSH1 0x20 PUSH0 KECCAK256 SWAP1 PUSH1 0x4 MUL ADD PUSH0 SWAP1 SWAP2 SWAP1 SWAP2 SWAP1 SWAP2 POP PUSH0 DUP3 ADD MLOAD DUP2 PUSH0 ADD SSTORE PUSH1 0x20 DUP3 ADD MLOAD DUP2 PUSH1 0x1 ADD SSTORE PUSH1 0x40 DUP3 ADD MLOAD DUP2 PUSH1 0x2 ADD SSTORE PUSH1 0x60 DUP3 ADD MLOAD DUP2 PUSH1 0x3 ADD PUSH0 PUSH2 0x100 EXP DUP2 SLOAD DUP2 PUSH1 0xFF MUL NOT AND SWAP1 DUP4 ISZERO ISZERO MUL OR SWAP1 SSTORE POP POP POP PUSH32 0x91DF0A6856D12CAA53A1827A8383398220295D5770E0711C14484DB4304016AB DUP2 DUP1 SLOAD SWAP1 POP DUP5 DUP5 PUSH1 0x40 MLOAD PUSH2 0x1AF9 SWAP4 SWAP3 SWAP2 SWAP1 PUSH2 0x3B5B JUMP JUMPDEST PUSH1 0x40 MLOAD DUP1 SWAP2 SUB SWAP1 LOG1 POP POP POP POP JUMP JUMPDEST PUSH1 0x60 PUSH1 0x8 PUSH0 DUP4 PUSH20 0xFFFFFFFFFFFFFFFFFFFFFFFFFFFFFFFFFFFFFFFF AND PUSH20 0xFFFFFFFFFFFFFFFFFFFFFFFFFFFFFFFFFFFFFFFF AND DUP2 MSTORE PUSH1 0x20 ADD SWAP1 DUP2 MSTORE PUSH1 0x20 ADD PUSH0 KECCAK256 DUP1 SLOAD DUP1 PUSH1 0x20 MUL PUSH1 0x20 ADD PUSH1 0x40 MLOAD SWAP1 DUP2 ADD PUSH1 0x40 MSTORE DUP1 SWAP3 SWAP2 SWAP1 DUP2 DUP2 MSTORE PUSH1 0x20 ADD PUSH0 SWAP1 JUMPDEST DUP3 DUP3 LT ISZERO PUSH2 0x1BCC JUMPI DUP4 DUP3 SWAP1 PUSH0 MSTORE PUSH1 0x20 PUSH0 KECCAK256 SWAP1 PUSH1 0x4 MUL ADD PUSH1 0x40 MLOAD DUP1 PUSH1 0x80 ADD PUSH1 0x40 MSTORE SWAP1 DUP2 PUSH0 DUP3 ADD SLOAD DUP2 MSTORE PUSH1 0x20 ADD PUSH1 0x1 DUP3 ADD SLOAD DUP2 MSTORE PUSH1 0x20 ADD PUSH1 0x2 DUP3 ADD SLOAD DUP2 MSTORE PUSH1 0x20 ADD PUSH1 0x3 DUP3 ADD PUSH0 SWAP1 SLOAD SWAP1 PUSH2 0x100 EXP SWAP1 DIV PUSH1 0xFF AND ISZERO ISZERO ISZERO ISZERO DUP2 MSTORE POP POP DUP2 MSTORE PUSH1 0x20 ADD SWAP1 PUSH1 0x1 ADD SWAP1 PUSH2 0x1B65 JUMP JUMPDEST POP POP POP POP SWAP1 POP SWAP2 SWAP1 POP JUMP JUMPDEST PUSH1 0x7 PUSH1 0x20 MSTORE DUP1 PUSH0 MSTORE PUSH1 0x40 PUSH0 KECCAK256 PUSH0 SWAP2 POP SWAP1 POP DUP1 PUSH0 ADD DUP1 SLOAD PUSH2 0x1BF6 SWAP1 PUSH2 0x33E6 JUMP JUMPDEST DUP1 PUSH1 0x1F ADD PUSH1 0x20 DUP1 SWAP2 DIV MUL PUSH1 0x20 ADD PUSH1 0x40 MLOAD SWAP1 DUP2 ADD PUSH1 0x40 MSTORE DUP1 SWAP3 SWAP2 SWAP1 DUP2 DUP2 MSTORE PUSH1 0x20 ADD DUP3 DUP1 SLOAD PUSH2 0x1C22 SWAP1 PUSH2 0x33E6 JUMP JUMPDEST DUP1 ISZERO PUSH2 0x1C6D JUMPI DUP1 PUSH1 0x1F LT PUSH2 0x1C44 JUMPI PUSH2 0x100 DUP1 DUP4 SLOAD DIV MUL DUP4 MSTORE SWAP2 PUSH1 0x20 ADD SWAP2 PUSH2 0x1C6D JUMP JUMPDEST DUP3 ADD SWAP2 SWAP1 PUSH0 MSTORE PUSH1 0x20 PUSH0 KECCAK256 SWAP1 JUMPDEST DUP2 SLOAD DUP2 MSTORE SWAP1 PUSH1 0x1 ADD SWAP1 PUSH1 0x20 ADD DUP1 DUP4 GT PUSH2 0x1C50 JUMPI DUP3 SWAP1 SUB PUSH1 0x1F AND DUP3 ADD SWAP2 JUMPDEST POP POP POP POP POP SWAP1 DUP1 PUSH1 0x1 ADD SLOAD SWAP1 DUP1 PUSH1 0x2 ADD SLOAD SWAP1 DUP1 PUSH1 0x3 ADD SLOAD SWAP1 POP DUP5 JUMP JUMPDEST PUSH2 0x1C91 PUSH2 0x531 JUMP JUMPDEST PUSH1 0x3 PUSH0 CALLER PUSH20 0xFFFFFFFFFFFFFFFFFFFFFFFFFFFFFFFFFFFFFFFF AND PUSH20 0xFFFFFFFFFFFFFFFFFFFFFFFFFFFFFFFFFFFFFFFF AND DUP2 MSTORE PUSH1 0x20 ADD SWAP1 DUP2 MSTORE PUSH1 0x20 ADD PUSH0 KECCAK256 PUSH0 SWAP1 SLOAD SWAP1 PUSH2 0x100 EXP SWAP1 DIV PUSH1 0xFF AND PUSH2 0x1D1A JUMPI PUSH1 0x40 MLOAD PUSH32 0x8C379A000000000000000000000000000000000000000000000000000000000 DUP2 MSTORE PUSH1 0x4 ADD PUSH2 0x1D11 SWAP1 PUSH2 0x2D6A JUMP JUMPDEST PUSH1 0x40 MLOAD DUP1 SWAP2 SUB SWAP1 REVERT JUMPDEST PUSH2 0x1D23 DUP3 PUSH2 0x23C0 JUMP JUMPDEST PUSH2 0x1D62 JUMPI PUSH1 0x40 MLOAD PUSH32 0x8C379A000000000000000000000000000000000000000000000000000000000 DUP2 MSTORE PUSH1 0x4 ADD PUSH2 0x1D59 SWAP1 PUSH2 0x3993 JUMP JUMPDEST PUSH1 0x40 MLOAD DUP1 SWAP2 SUB SWAP1 REVERT JUMPDEST PUSH0 PUSH1 0x8 PUSH0 DUP5 PUSH20 0xFFFFFFFFFFFFFFFFFFFFFFFFFFFFFFFFFFFFFFFF AND PUSH20 0xFFFFFFFFFFFFFFFFFFFFFFFFFFFFFFFFFFFFFFFF AND DUP2 MSTORE PUSH1 0x20 ADD SWAP1 DUP2 MSTORE PUSH1 0x20 ADD PUSH0 KECCAK256 DUP3 DUP2 SLOAD DUP2 LT PUSH2 0x1DB2 JUMPI PUSH2 0x1DB1 PUSH2 0x306A JUMP JUMPDEST JUMPDEST SWAP1 PUSH0 MSTORE PUSH1 0x20 PUSH0 KECCAK256 SWAP1 PUSH1 0x4 MUL ADD SWAP1 POP PUSH0 DUP2 PUSH0 ADD SLOAD GT PUSH2 0x1E05 JUMPI PUSH1 0x40 MLOAD PUSH32 0x8C379A000000000000000000000000000000000000000000000000000000000 DUP2 MSTORE PUSH1 0x4 ADD PUSH2 0x1DFC SWAP1 PUSH2 0x3BDA JUMP JUMPDEST PUSH1 0x40 MLOAD DUP1 SWAP2 SUB SWAP1 REVERT JUMPDEST DUP1 PUSH1 0x3 ADD PUSH0 SWAP1 SLOAD SWAP1 PUSH2 0x100 EXP SWAP1 DIV PUSH1 0xFF AND PUSH2 0x1E55 JUMPI PUSH1 0x40 MLOAD PUSH32 0x8C379A000000000000000000000000000000000000000000000000000000000 DUP2 MSTORE PUSH1 0x4 ADD PUSH2 0x1E4C SWAP1 PUSH2 0x3C42 JUMP JUMPDEST PUSH1 0x40 MLOAD DUP1 SWAP2 SUB SWAP1 REVERT JUMPDEST PUSH0 DUP2 PUSH1 0x3 ADD PUSH0 PUSH2 0x100 EXP DUP2 SLOAD DUP2 PUSH1 0xFF MUL NOT AND SWAP1 DUP4 ISZERO ISZERO MUL OR SWAP1 SSTORE POP DUP3 PUSH20 0xFFFFFFFFFFFFFFFFFFFFFFFFFFFFFFFFFFFFFFFF AND PUSH32 0x7D43402007FEB68E4F4D08E94A946083B4E8FDDDBB8E6E7D95CC029D61CC2BE0 DUP4 PUSH1 0x40 MLOAD PUSH2 0x1EB6 SWAP2 SWAP1 PUSH2 0x29C5 JUMP JUMPDEST PUSH1 0x40 MLOAD DUP1 SWAP2 SUB SWAP1 LOG2 POP POP POP JUMP JUMPDEST PUSH1 0x8 PUSH1 0x20 MSTORE DUP2 PUSH0 MSTORE PUSH1 0x40 PUSH0 KECCAK256 DUP2 DUP2 SLOAD DUP2 LT PUSH2 0x1EDC JUMPI PUSH0 DUP1 REVERT JUMPDEST SWAP1 PUSH0 MSTORE PUSH1 0x20 PUSH0 KECCAK256 SWAP1 PUSH1 0x4 MUL ADD PUSH0 SWAP2 POP SWAP2 POP POP DUP1 PUSH0 ADD SLOAD SWAP1 DUP1 PUSH1 0x1 ADD SLOAD SWAP1 DUP1 PUSH1 0x2 ADD SLOAD SWAP1 DUP1 PUSH1 0x3 ADD PUSH0 SWAP1 SLOAD SWAP1 PUSH2 0x100 EXP SWAP1 DIV PUSH1 0xFF AND SWAP1 POP DUP5 JUMP JUMPDEST PUSH2 0x1F1D PUSH2 0x531 JUMP JUMPDEST PUSH1 0x3 PUSH0 CALLER PUSH20 0xFFFFFFFFFFFFFFFFFFFFFFFFFFFFFFFFFFFFFFFF AND PUSH20 0xFFFFFFFFFFFFFFFFFFFFFFFFFFFFFFFFFFFFFFFF AND DUP2 MSTORE PUSH1 0x20 ADD SWAP1 DUP2 MSTORE PUSH1 0x20 ADD PUSH0 KECCAK256 PUSH0 SWAP1 SLOAD SWAP1 PUSH2 0x100 EXP SWAP1 DIV PUSH1 0xFF AND PUSH2 0x1FA6 JUMPI PUSH1 0x40 MLOAD PUSH32 0x8C379A000000000000000000000000000000000000000000000000000000000 DUP2 MSTORE PUSH1 0x4 ADD PUSH2 0x1F9D SWAP1 PUSH2 0x2D6A JUMP JUMPDEST PUSH1 0x40 MLOAD DUP1 SWAP2 SUB SWAP1 REVERT JUMPDEST PUSH0 PUSH1 0x8 PUSH0 DUP5 PUSH20 0xFFFFFFFFFFFFFFFFFFFFFFFFFFFFFFFFFFFFFFFF AND PUSH20 0xFFFFFFFFFFFFFFFFFFFFFFFFFFFFFFFFFFFFFFFF AND DUP2 MSTORE PUSH1 0x20 ADD SWAP1 DUP2 MSTORE PUSH1 0x20 ADD PUSH0 KECCAK256 DUP3 DUP2 SLOAD DUP2 LT PUSH2 0x1FF6 JUMPI PUSH2 0x1FF5 PUSH2 0x306A JUMP JUMPDEST JUMPDEST SWAP1 PUSH0 MSTORE PUSH1 0x20 PUSH0 KECCAK256 SWAP1 PUSH1 0x4 MUL ADD SWAP1 POP PUSH0 DUP2 PUSH0 ADD SLOAD GT PUSH2 0x2049 JUMPI PUSH1 0x40 MLOAD PUSH32 0x8C379A000000000000000000000000000000000000000000000000000000000 DUP2 MSTORE PUSH1 0x4 ADD PUSH2 0x2040 SWAP1 PUSH2 0x3BDA JUMP JUMPDEST PUSH1 0x40 MLOAD DUP1 SWAP2 SUB SWAP1 REVERT JUMPDEST DUP1 PUSH1 0x3 ADD PUSH0 SWAP1 SLOAD SWAP1 PUSH2 0x100 EXP SWAP1 DIV PUSH1 0xFF AND ISZERO PUSH2 0x209A JUMPI PUSH1 0x40 MLOAD PUSH32 0x8C379A000000000000000000000000000000000000000000000000000000000 DUP2 MSTORE PUSH1 0x4 ADD PUSH2 0x2091 SWAP1 PUSH2 0x3CAA JUMP JUMPDEST PUSH1 0x40 MLOAD DUP1 SWAP2 SUB SWAP1 REVERT JUMPDEST PUSH1 0x1 DUP2 PUSH1 0x3 ADD PUSH0 PUSH2 0x100 EXP DUP2 SLOAD DUP2 PUSH1 0xFF MUL NOT AND SWAP1 DUP4 ISZERO ISZERO MUL OR SWAP1 SSTORE POP DUP3 PUSH20 0xFFFFFFFFFFFFFFFFFFFFFFFFFFFFFFFFFFFFFFFF AND PUSH32 0xB257D3AD0ACA91C2880CBA095B7732563E1AB189D9FC61B8F393E82D9B47FC24 DUP4 PUSH1 0x40 MLOAD PUSH2 0x20FC SWAP2 SWAP1 PUSH2 0x29C5 JUMP JUMPDEST PUSH1 0x40 MLOAD DUP1 SWAP2 SUB SWAP1 LOG2 POP POP POP JUMP JUMPDEST PUSH2 0x2111 PUSH2 0x531 JUMP JUMPDEST PUSH2 0x2119 PUSH2 0x2368 JUMP JUMPDEST PUSH2 0x2122 DUP3 PUSH2 0x23C0 JUMP JUMPDEST PUSH2 0x2161 JUMPI PUSH1 0x40 MLOAD PUSH32 0x8C379A000000000000000000000000000000000000000000000000000000000 DUP2 MSTORE PUSH1 0x4 ADD PUSH2 0x2158 SWAP1 PUSH2 0x3D12 JUMP JUMPDEST PUSH1 0x40 MLOAD DUP1 SWAP2 SUB SWAP1 REVERT JUMPDEST PUSH0 PUSH1 0x8 PUSH0 DUP5 PUSH20 0xFFFFFFFFFFFFFFFFFFFFFFFFFFFFFFFFFFFFFFFF AND PUSH20 0xFFFFFFFFFFFFFFFFFFFFFFFFFFFFFFFFFFFFFFFF AND DUP2 MSTORE PUSH1 0x20 ADD SWAP1 DUP2 MSTORE PUSH1 0x20 ADD PUSH0 KECCAK256 DUP3 DUP2 SLOAD DUP2 LT PUSH2 0x21B1 JUMPI PUSH2 0x21B0 PUSH2 0x306A JUMP JUMPDEST JUMPDEST SWAP1 PUSH0 MSTORE PUSH1 0x20 PUSH0 KECCAK256 SWAP1 PUSH1 0x4 MUL ADD SWAP1 POP PUSH0 DUP2 PUSH0 ADD SLOAD GT PUSH2 0x2204 JUMPI PUSH1 0x40 MLOAD PUSH32 0x8C379A000000000000000000000000000000000000000000000000000000000 DUP2 MSTORE PUSH1 0x4 ADD PUSH2 0x21FB SWAP1 PUSH2 0x3BDA JUMP JUMPDEST PUSH1 0x40 MLOAD DUP1 SWAP2 SUB SWAP1 REVERT JUMPDEST DUP1 PUSH1 0x3 ADD PUSH0 SWAP1 SLOAD SWAP1 PUSH2 0x100 EXP SWAP1 DIV PUSH1 0xFF AND ISZERO PUSH2 0x2255 JUMPI PUSH1 0x40 MLOAD PUSH32 0x8C379A000000000000000000000000000000000000000000000000000000000 DUP2 MSTORE PUSH1 0x4 ADD PUSH2 0x224C SWAP1 PUSH2 0x3CAA JUMP JUMPDEST PUSH1 0x40 MLOAD DUP1 SWAP2 SUB SWAP1 REVERT JUMPDEST CALLVALUE DUP2 PUSH1 0x1 ADD PUSH0 DUP3 DUP3 SLOAD PUSH2 0x2268 SWAP2 SWAP1 PUSH2 0x3D30 JUMP JUMPDEST SWAP3 POP POP DUP2 SWAP1 SSTORE POP CALLVALUE PUSH1 0x7 PUSH0 CALLER PUSH20 0xFFFFFFFFFFFFFFFFFFFFFFFFFFFFFFFFFFFFFFFF AND PUSH20 0xFFFFFFFFFFFFFFFFFFFFFFFFFFFFFFFFFFFFFFFF AND DUP2 MSTORE PUSH1 0x20 ADD SWAP1 DUP2 MSTORE PUSH1 0x20 ADD PUSH0 KECCAK256 PUSH1 0x2 ADD PUSH0 DUP3 DUP3 SLOAD PUSH2 0x22BE SWAP2 SWAP1 PUSH2 0x3D30 JUMP JUMPDEST SWAP3 POP POP DUP2 SWAP1 SSTORE POP DUP3 PUSH20 0xFFFFFFFFFFFFFFFFFFFFFFFFFFFFFFFFFFFFFFFF AND PUSH32 0x14954C6FF5A56809714735FB131BD55E42938C7E5BC1A1715593B0BA52000CCF PUSH1 0x7 PUSH0 CALLER PUSH20 0xFFFFFFFFFFFFFFFFFFFFFFFFFFFFFFFFFFFFFFFF AND PUSH20 0xFFFFFFFFFFFFFFFFFFFFFFFFFFFFFFFFFFFFFFFF AND DUP2 MSTORE PUSH1 0x20 ADD SWAP1 DUP2 MSTORE PUSH1 0x20 ADD PUSH0 KECCAK256 PUSH0 ADD CALLVALUE DUP6 PUSH1 0x40 MLOAD PUSH2 0x234D SWAP4 SWAP3 SWAP2 SWAP1 PUSH2 0x3DE4 JUMP JUMPDEST PUSH1 0x40 MLOAD DUP1 SWAP2 SUB SWAP1 LOG2 POP PUSH2 0x235E PUSH2 0x23B7 JUMP JUMPDEST POP POP JUMP JUMPDEST PUSH1 0x6 SLOAD DUP2 JUMP JUMPDEST PUSH1 0x2 PUSH1 0x1 SLOAD SUB PUSH2 0x23AD JUMPI PUSH1 0x40 MLOAD PUSH32 0x8C379A000000000000000000000000000000000000000000000000000000000 DUP2 MSTORE PUSH1 0x4 ADD PUSH2 0x23A4 SWAP1 PUSH2 0x3E6A JUMP JUMPDEST PUSH1 0x40 MLOAD DUP1 SWAP2 SUB SWAP1 REVERT JUMPDEST PUSH1 0x2 PUSH1 0x1 DUP2 SWAP1 SSTORE POP JUMP JUMPDEST PUSH1 0x1 DUP1 DUP2 SWAP1 SSTORE POP JUMP JUMPDEST PUSH0 PUSH0 PUSH1 0x7 PUSH0 DUP5 PUSH20 0xFFFFFFFFFFFFFFFFFFFFFFFFFFFFFFFFFFFFFFFF AND PUSH20 0xFFFFFFFFFFFFFFFFFFFFFFFFFFFFFFFFFFFFFFFF AND DUP2 MSTORE PUSH1 0x20 ADD SWAP1 DUP2 MSTORE PUSH1 0x20 ADD PUSH0 KECCAK256 PUSH1 0x1 ADD SLOAD GT SWAP1 POP SWAP2 SWAP1 POP JUMP JUMPDEST PUSH2 0x2413 PUSH2 0x24CC JUMP JUMPDEST PUSH0 PUSH0 PUSH0 PUSH2 0x100 EXP DUP2 SLOAD DUP2 PUSH1 0xFF MUL NOT AND SWAP1 DUP4 ISZERO ISZERO MUL OR SWAP1 SSTORE POP PUSH32 0x5DB9EE0A495BF2E6FF9C91A7834C1BA4FDD244A5E8AA4E537BD38AEAE4B073AA PUSH2 0x2454 PUSH2 0x2515 JUMP JUMPDEST PUSH1 0x40 MLOAD PUSH2 0x2461 SWAP2 SWAP1 PUSH2 0x2632 JUMP JUMPDEST PUSH1 0x40 MLOAD DUP1 SWAP2 SUB SWAP1 LOG1 JUMP JUMPDEST PUSH2 0x2473 PUSH2 0x531 JUMP JUMPDEST PUSH1 0x1 PUSH0 PUSH0 PUSH2 0x100 EXP DUP2 SLOAD DUP2 PUSH1 0xFF MUL NOT AND SWAP1 DUP4 ISZERO ISZERO MUL OR SWAP1 SSTORE POP PUSH32 0x62E78CEA01BEE320CD4E420270B5EA74000D11B0C9F74754EBDBFC544B05A258 PUSH2 0x24B5 PUSH2 0x2515 JUMP JUMPDEST PUSH1 0x40 MLOAD PUSH2 0x24C2 SWAP2 SWAP1 PUSH2 0x2632 JUMP JUMPDEST PUSH1 0x40 MLOAD DUP1 SWAP2 SUB SWAP1 LOG1 JUMP JUMPDEST PUSH2 0x24D4 PUSH2 0x1442 JUMP JUMPDEST PUSH2 0x2513 JUMPI PUSH1 0x40 MLOAD PUSH32 0x8C379A000000000000000000000000000000000000000000000000000000000 DUP2 MSTORE PUSH1 0x4 ADD PUSH2 0x250A SWAP1 PUSH2 0x3ED2 JUMP JUMPDEST PUSH1 0x40 MLOAD DUP1 SWAP2 SUB SWAP1 REVERT JUMPDEST JUMP JUMPDEST PUSH0 CALLER SWAP1 POP SWAP1 JUMP JUMPDEST PUSH0 PUSH1 0x40 MLOAD SWAP1 POP SWAP1 JUMP JUMPDEST PUSH0 PUSH0 REVERT JUMPDEST PUSH0 PUSH0 REVERT JUMPDEST PUSH0 DUP2 SWAP1 POP SWAP2 SWAP1 POP JUMP JUMPDEST PUSH2 0x253F DUP2 PUSH2 0x252D JUMP JUMPDEST DUP2 EQ PUSH2 0x2549 JUMPI PUSH0 PUSH0 REVERT JUMPDEST POP JUMP JUMPDEST PUSH0 DUP2 CALLDATALOAD SWAP1 POP PUSH2 0x255A DUP2 PUSH2 0x2536 JUMP JUMPDEST SWAP3 SWAP2 POP POP JUMP JUMPDEST PUSH0 PUSH20 0xFFFFFFFFFFFFFFFFFFFFFFFFFFFFFFFFFFFFFFFF DUP3 AND SWAP1 POP SWAP2 SWAP1 POP JUMP JUMPDEST PUSH0 PUSH2 0x2589 DUP3 PUSH2 0x2560 JUMP JUMPDEST SWAP1 POP SWAP2 SWAP1 POP JUMP JUMPDEST PUSH2 0x2599 DUP2 PUSH2 0x257F JUMP JUMPDEST DUP2 EQ PUSH2 0x25A3 JUMPI PUSH0 PUSH0 REVERT JUMPDEST POP JUMP JUMPDEST PUSH0 DUP2 CALLDATALOAD SWAP1 POP PUSH2 0x25B4 DUP2 PUSH2 0x2590 JUMP JUMPDEST SWAP3 SWAP2 POP POP JUMP JUMPDEST PUSH0 PUSH0 PUSH1 0x40 DUP4 DUP6 SUB SLT ISZERO PUSH2 0x25D0 JUMPI PUSH2 0x25CF PUSH2 0x2525 JUMP JUMPDEST JUMPDEST PUSH0 PUSH2 0x25DD DUP6 DUP3 DUP7 ADD PUSH2 0x254C JUMP JUMPDEST SWAP3 POP POP PUSH1 0x20 PUSH2 0x25EE DUP6 DUP3 DUP7 ADD PUSH2 0x25A6 JUMP JUMPDEST SWAP2 POP POP SWAP3 POP SWAP3 SWAP1 POP JUMP JUMPDEST PUSH0 PUSH1 0x20 DUP3 DUP5 SUB SLT ISZERO PUSH2 0x260D JUMPI PUSH2 0x260C PUSH2 0x2525 JUMP JUMPDEST JUMPDEST PUSH0 PUSH2 0x261A DUP5 DUP3 DUP6 ADD PUSH2 0x254C JUMP JUMPDEST SWAP2 POP POP SWAP3 SWAP2 POP POP JUMP JUMPDEST PUSH2 0x262C DUP2 PUSH2 0x257F JUMP JUMPDEST DUP3 MSTORE POP POP JUMP JUMPDEST PUSH0 PUSH1 0x20 DUP3 ADD SWAP1 POP PUSH2 0x2645 PUSH0 DUP4 ADD DUP5 PUSH2 0x2623 JUMP JUMPDEST SWAP3 SWAP2 POP POP JUMP JUMPDEST PUSH0 PUSH1 0x20 DUP3 DUP5 SUB SLT ISZERO PUSH2 0x2660 JUMPI PUSH2 0x265F PUSH2 0x2525 JUMP JUMPDEST JUMPDEST PUSH0 PUSH2 0x266D DUP5 DUP3 DUP6 ADD PUSH2 0x25A6 JUMP JUMPDEST SWAP2 POP POP SWAP3 SWAP2 POP POP JUMP JUMPDEST PUSH0 DUP2 ISZERO ISZERO SWAP1 POP SWAP2 SWAP1 POP JUMP JUMPDEST PUSH2 0x268A DUP2 PUSH2 0x2676 JUMP JUMPDEST DUP3 MSTORE POP POP JUMP JUMPDEST PUSH0 PUSH1 0x20 DUP3 ADD SWAP1 POP PUSH2 0x26A3 PUSH0 DUP4 ADD DUP5 PUSH2 0x2681 JUMP JUMPDEST SWAP3 SWAP2 POP POP JUMP JUMPDEST PUSH0 PUSH0 REVERT JUMPDEST PUSH0 PUSH0 REVERT JUMPDEST PUSH0 PUSH1 0x1F NOT PUSH1 0x1F DUP4 ADD AND SWAP1 POP SWAP2 SWAP1 POP JUMP JUMPDEST PUSH32 0x4E487B7100000000000000000000000000000000000000000000000000000000 PUSH0 MSTORE PUSH1 0x41 PUSH1 0x4 MSTORE PUSH1 0x24 PUSH0 REVERT JUMPDEST PUSH2 0x26F7 DUP3 PUSH2 0x26B1 JUMP JUMPDEST DUP2 ADD DUP2 DUP2 LT PUSH8 0xFFFFFFFFFFFFFFFF DUP3 GT OR ISZERO PUSH2 0x2716 JUMPI PUSH2 0x2715 PUSH2 0x26C1 JUMP JUMPDEST JUMPDEST DUP1 PUSH1 0x40 MSTORE POP POP POP JUMP JUMPDEST PUSH0 PUSH2 0x2728 PUSH2 0x251C JUMP JUMPDEST SWAP1 POP PUSH2 0x2734 DUP3 DUP3 PUSH2 0x26EE JUMP JUMPDEST SWAP2 SWAP1 POP JUMP JUMPDEST PUSH0 PUSH8 0xFFFFFFFFFFFFFFFF DUP3 GT ISZERO PUSH2 0x2753 JUMPI PUSH2 0x2752 PUSH2 0x26C1 JUMP JUMPDEST JUMPDEST PUSH2 0x275C DUP3 PUSH2 0x26B1 JUMP JUMPDEST SWAP1 POP PUSH1 0x20 DUP2 ADD SWAP1 POP SWAP2 SWAP1 POP JUMP JUMPDEST DUP3 DUP2 DUP4 CALLDATACOPY PUSH0 DUP4 DUP4 ADD MSTORE POP POP POP JUMP JUMPDEST PUSH0 PUSH2 0x2789 PUSH2 0x2784 DUP5 PUSH2 0x2739 JUMP JUMPDEST PUSH2 0x271F JUMP JUMPDEST SWAP1 POP DUP3 DUP2 MSTORE PUSH1 0x20 DUP2 ADD DUP5 DUP5 DUP5 ADD GT ISZERO PUSH2 0x27A5 JUMPI PUSH2 0x27A4 PUSH2 0x26AD JUMP JUMPDEST JUMPDEST PUSH2 0x27B0 DUP5 DUP3 DUP6 PUSH2 0x2769 JUMP JUMPDEST POP SWAP4 SWAP3 POP POP POP JUMP JUMPDEST PUSH0 DUP3 PUSH1 0x1F DUP4 ADD SLT PUSH2 0x27CC JUMPI PUSH2 0x27CB PUSH2 0x26A9 JUMP JUMPDEST JUMPDEST DUP2 CALLDATALOAD PUSH2 0x27DC DUP5 DUP3 PUSH1 0x20 DUP7 ADD PUSH2 0x2777 JUMP JUMPDEST SWAP2 POP POP SWAP3 SWAP2 POP POP JUMP JUMPDEST PUSH0 PUSH0 PUSH0 PUSH0 PUSH1 0x80 DUP6 DUP8 SUB SLT ISZERO PUSH2 0x27FD JUMPI PUSH2 0x27FC PUSH2 0x2525 JUMP JUMPDEST JUMPDEST PUSH0 DUP6 ADD CALLDATALOAD PUSH8 0xFFFFFFFFFFFFFFFF DUP2 GT ISZERO PUSH2 0x281A JUMPI PUSH2 0x2819 PUSH2 0x2529 JUMP JUMPDEST JUMPDEST PUSH2 0x2826 DUP8 DUP3 DUP9 ADD PUSH2 0x27B8 JUMP JUMPDEST SWAP5 POP POP PUSH1 0x20 PUSH2 0x2837 DUP8 DUP3 DUP9 ADD PUSH2 0x25A6 JUMP JUMPDEST SWAP4 POP POP PUSH1 0x40 PUSH2 0x2848 DUP8 DUP3 DUP9 ADD PUSH2 0x254C JUMP JUMPDEST SWAP3 POP POP PUSH1 0x60 PUSH2 0x2859 DUP8 DUP3 DUP9 ADD PUSH2 0x254C JUMP JUMPDEST SWAP2 POP POP SWAP3 SWAP6 SWAP2 SWAP5 POP SWAP3 POP JUMP JUMPDEST PUSH2 0x286E DUP2 PUSH2 0x2676 JUMP JUMPDEST DUP2 EQ PUSH2 0x2878 JUMPI PUSH0 PUSH0 REVERT JUMPDEST POP JUMP JUMPDEST PUSH0 DUP2 CALLDATALOAD SWAP1 POP PUSH2 0x2889 DUP2 PUSH2 0x2865 JUMP JUMPDEST SWAP3 SWAP2 POP POP JUMP JUMPDEST PUSH0 PUSH0 PUSH0 PUSH1 0x60 DUP5 DUP7 SUB SLT ISZERO PUSH2 0x28A6 JUMPI PUSH2 0x28A5 PUSH2 0x2525 JUMP JUMPDEST JUMPDEST PUSH0 PUSH2 0x28B3 DUP7 DUP3 DUP8 ADD PUSH2 0x25A6 JUMP JUMPDEST SWAP4 POP POP PUSH1 0x20 PUSH2 0x28C4 DUP7 DUP3 DUP8 ADD PUSH2 0x254C JUMP JUMPDEST SWAP3 POP POP PUSH1 0x40 PUSH2 0x28D5 DUP7 DUP3 DUP8 ADD PUSH2 0x287B JUMP JUMPDEST SWAP2 POP POP SWAP3 POP SWAP3 POP SWAP3 JUMP JUMPDEST PUSH0 DUP2 MLOAD SWAP1 POP SWAP2 SWAP1 POP JUMP JUMPDEST PUSH0 DUP3 DUP3 MSTORE PUSH1 0x20 DUP3 ADD SWAP1 POP SWAP3 SWAP2 POP POP JUMP JUMPDEST PUSH0 DUP2 SWAP1 POP PUSH1 0x20 DUP3 ADD SWAP1 POP SWAP2 SWAP1 POP JUMP JUMPDEST PUSH2 0x2911 DUP2 PUSH2 0x257F JUMP JUMPDEST DUP3 MSTORE POP POP JUMP JUMPDEST PUSH0 PUSH2 0x2922 DUP4 DUP4 PUSH2 0x2908 JUMP JUMPDEST PUSH1 0x20 DUP4 ADD SWAP1 POP SWAP3 SWAP2 POP POP JUMP JUMPDEST PUSH0 PUSH1 0x20 DUP3 ADD SWAP1 POP SWAP2 SWAP1 POP JUMP JUMPDEST PUSH0 PUSH2 0x2944 DUP3 PUSH2 0x28DF JUMP JUMPDEST PUSH2 0x294E DUP2 DUP6 PUSH2 0x28E9 JUMP JUMPDEST SWAP4 POP PUSH2 0x2959 DUP4 PUSH2 0x28F9 JUMP JUMPDEST DUP1 PUSH0 JUMPDEST DUP4 DUP2 LT ISZERO PUSH2 0x2989 JUMPI DUP2 MLOAD PUSH2 0x2970 DUP9 DUP3 PUSH2 0x2917 JUMP JUMPDEST SWAP8 POP PUSH2 0x297B DUP4 PUSH2 0x292E JUMP JUMPDEST SWAP3 POP POP PUSH1 0x1 DUP2 ADD SWAP1 POP PUSH2 0x295C JUMP JUMPDEST POP DUP6 SWAP4 POP POP POP POP SWAP3 SWAP2 POP POP JUMP JUMPDEST PUSH0 PUSH1 0x20 DUP3 ADD SWAP1 POP DUP2 DUP2 SUB PUSH0 DUP4 ADD MSTORE PUSH2 0x29AE DUP2 DUP5 PUSH2 0x293A JUMP JUMPDEST SWAP1 POP SWAP3 SWAP2 POP POP JUMP JUMPDEST PUSH2 0x29BF DUP2 PUSH2 0x252D JUMP JUMPDEST DUP3 MSTORE POP POP JUMP JUMPDEST PUSH0 PUSH1 0x20 DUP3 ADD SWAP1 POP PUSH2 0x29D8 PUSH0 DUP4 ADD DUP5 PUSH2 0x29B6 JUMP JUMPDEST SWAP3 SWAP2 POP POP JUMP JUMPDEST PUSH0 PUSH0 PUSH0 PUSH1 0x60 DUP5 DUP7 SUB SLT ISZERO PUSH2 0x29F5 JUMPI PUSH2 0x29F4 PUSH2 0x2525 JUMP JUMPDEST JUMPDEST PUSH0 PUSH2 0x2A02 DUP7 DUP3 DUP8 ADD PUSH2 0x25A6 JUMP JUMPDEST SWAP4 POP POP PUSH1 0x20 PUSH2 0x2A13 DUP7 DUP3 DUP8 ADD PUSH2 0x254C JUMP JUMPDEST SWAP3 POP POP PUSH1 0x40 PUSH2 0x2A24 DUP7 DUP3 DUP8 ADD PUSH2 0x254C JUMP JUMPDEST SWAP2 POP POP SWAP3 POP SWAP3 POP SWAP3 JUMP JUMPDEST PUSH0 DUP2 MLOAD SWAP1 POP SWAP2 SWAP1 POP JUMP JUMPDEST PUSH0 DUP3 DUP3 MSTORE PUSH1 0x20 DUP3 ADD SWAP1 POP SWAP3 SWAP2 POP POP JUMP JUMPDEST PUSH0 DUP2 SWAP1 POP PUSH1 0x20 DUP3 ADD SWAP1 POP SWAP2 SWAP1 POP JUMP JUMPDEST PUSH2 0x2A60 DUP2 PUSH2 0x252D JUMP JUMPDEST DUP3 MSTORE POP POP JUMP JUMPDEST PUSH2 0x2A6F DUP2 PUSH2 0x2676 JUMP JUMPDEST DUP3 MSTORE POP POP JUMP JUMPDEST PUSH1 0x80 DUP3 ADD PUSH0 DUP3 ADD MLOAD PUSH2 0x2A89 PUSH0 DUP6 ADD DUP3 PUSH2 0x2A57 JUMP JUMPDEST POP PUSH1 0x20 DUP3 ADD MLOAD PUSH2 0x2A9C PUSH1 0x20 DUP6 ADD DUP3 PUSH2 0x2A57 JUMP JUMPDEST POP PUSH1 0x40 DUP3 ADD MLOAD PUSH2 0x2AAF PUSH1 0x40 DUP6 ADD DUP3 PUSH2 0x2A57 JUMP JUMPDEST POP PUSH1 0x60 DUP3 ADD MLOAD PUSH2 0x2AC2 PUSH1 0x60 DUP6 ADD DUP3 PUSH2 0x2A66 JUMP JUMPDEST POP POP POP POP JUMP JUMPDEST PUSH0 PUSH2 0x2AD3 DUP4 DUP4 PUSH2 0x2A75 JUMP JUMPDEST PUSH1 0x80 DUP4 ADD SWAP1 POP SWAP3 SWAP2 POP POP JUMP JUMPDEST PUSH0 PUSH1 0x20 DUP3 ADD SWAP1 POP SWAP2 SWAP1 POP JUMP JUMPDEST PUSH0 PUSH2 0x2AF5 DUP3 PUSH2 0x2A2E JUMP JUMPDEST PUSH2 0x2AFF DUP2 DUP6 PUSH2 0x2A38 JUMP JUMPDEST SWAP4 POP PUSH2 0x2B0A DUP4 PUSH2 0x2A48 JUMP JUMPDEST DUP1 PUSH0 JUMPDEST DUP4 DUP2 LT ISZERO PUSH2 0x2B3A JUMPI DUP2 MLOAD PUSH2 0x2B21 DUP9 DUP3 PUSH2 0x2AC8 JUMP JUMPDEST SWAP8 POP PUSH2 0x2B2C DUP4 PUSH2 0x2ADF JUMP JUMPDEST SWAP3 POP POP PUSH1 0x1 DUP2 ADD SWAP1 POP PUSH2 0x2B0D JUMP JUMPDEST POP DUP6 SWAP4 POP POP POP POP SWAP3 SWAP2 POP POP JUMP JUMPDEST PUSH0 PUSH1 0x20 DUP3 ADD SWAP1 POP DUP2 DUP2 SUB PUSH0 DUP4 ADD MSTORE PUSH2 0x2B5F DUP2 DUP5 PUSH2 0x2AEB JUMP JUMPDEST SWAP1 POP SWAP3 SWAP2 POP POP JUMP JUMPDEST PUSH0 DUP2 MLOAD SWAP1 POP SWAP2 SWAP1 POP JUMP JUMPDEST PUSH0 DUP3 DUP3 MSTORE PUSH1 0x20 DUP3 ADD SWAP1 POP SWAP3 SWAP2 POP POP JUMP JUMPDEST DUP3 DUP2 DUP4 MCOPY PUSH0 DUP4 DUP4 ADD MSTORE POP POP POP JUMP JUMPDEST PUSH0 PUSH2 0x2B99 DUP3 PUSH2 0x2B67 JUMP JUMPDEST PUSH2 0x2BA3 DUP2 DUP6 PUSH2 0x2B71 JUMP JUMPDEST SWAP4 POP PUSH2 0x2BB3 DUP2 DUP6 PUSH1 0x20 DUP7 ADD PUSH2 0x2B81 JUMP JUMPDEST PUSH2 0x2BBC DUP2 PUSH2 0x26B1 JUMP JUMPDEST DUP5 ADD SWAP2 POP POP SWAP3 SWAP2 POP POP JUMP JUMPDEST PUSH0 PUSH1 0x80 DUP3 ADD SWAP1 POP DUP2 DUP2 SUB PUSH0 DUP4 ADD MSTORE PUSH2 0x2BDF DUP2 DUP8 PUSH2 0x2B8F JUMP JUMPDEST SWAP1 POP PUSH2 0x2BEE PUSH1 0x20 DUP4 ADD DUP7 PUSH2 0x29B6 JUMP JUMPDEST PUSH2 0x2BFB PUSH1 0x40 DUP4 ADD DUP6 PUSH2 0x29B6 JUMP JUMPDEST PUSH2 0x2C08 PUSH1 0x60 DUP4 ADD DUP5 PUSH2 0x29B6 JUMP JUMPDEST SWAP6 SWAP5 POP POP POP POP POP JUMP JUMPDEST PUSH0 PUSH0 PUSH1 0x40 DUP4 DUP6 SUB SLT ISZERO PUSH2 0x2C27 JUMPI PUSH2 0x2C26 PUSH2 0x2525 JUMP JUMPDEST JUMPDEST PUSH0 PUSH2 0x2C34 DUP6 DUP3 DUP7 ADD PUSH2 0x25A6 JUMP JUMPDEST SWAP3 POP POP PUSH1 0x20 PUSH2 0x2C45 DUP6 DUP3 DUP7 ADD PUSH2 0x254C JUMP JUMPDEST SWAP2 POP POP SWAP3 POP SWAP3 SWAP1 POP JUMP JUMPDEST PUSH0 PUSH1 0x80 DUP3 ADD SWAP1 POP PUSH2 0x2C62 PUSH0 DUP4 ADD DUP8 PUSH2 0x29B6 JUMP JUMPDEST PUSH2 0x2C6F PUSH1 0x20 DUP4 ADD DUP7 PUSH2 0x29B6 JUMP JUMPDEST PUSH2 0x2C7C PUSH1 0x40 DUP4 ADD DUP6 PUSH2 0x29B6 JUMP JUMPDEST PUSH2 0x2C89 PUSH1 0x60 DUP4 ADD DUP5 PUSH2 0x2681 JUMP JUMPDEST SWAP6 SWAP5 POP POP POP POP POP JUMP JUMPDEST PUSH32 0x5061757361626C653A2070617573656400000000000000000000000000000000 PUSH0 DUP3 ADD MSTORE POP JUMP JUMPDEST PUSH0 PUSH2 0x2CC6 PUSH1 0x10 DUP4 PUSH2 0x2B71 JUMP JUMPDEST SWAP2 POP PUSH2 0x2CD1 DUP3 PUSH2 0x2C92 JUMP JUMPDEST PUSH1 0x20 DUP3 ADD SWAP1 POP SWAP2 SWAP1 POP JUMP JUMPDEST PUSH0 PUSH1 0x20 DUP3 ADD SWAP1 POP DUP2 DUP2 SUB PUSH0 DUP4 ADD MSTORE PUSH2 0x2CF3 DUP2 PUSH2 0x2CBA JUMP JUMPDEST SWAP1 POP SWAP2 SWAP1 POP JUMP JUMPDEST PUSH32 0x4E6F7420617574686F72697A65643A204F6E6C792061646D696E2063616E2070 PUSH0 DUP3 ADD MSTORE PUSH32 0x6572666F726D207468697320616374696F6E0000000000000000000000000000 PUSH1 0x20 DUP3 ADD MSTORE POP JUMP JUMPDEST PUSH0 PUSH2 0x2D54 PUSH1 0x32 DUP4 PUSH2 0x2B71 JUMP JUMPDEST SWAP2 POP PUSH2 0x2D5F DUP3 PUSH2 0x2CFA JUMP JUMPDEST PUSH1 0x40 DUP3 ADD SWAP1 POP SWAP2 SWAP1 POP JUMP JUMPDEST PUSH0 PUSH1 0x20 DUP3 ADD SWAP1 POP DUP2 DUP2 SUB PUSH0 DUP4 ADD MSTORE PUSH2 0x2D81 DUP2 PUSH2 0x2D48 JUMP JUMPDEST SWAP1 POP SWAP2 SWAP1 POP JUMP JUMPDEST PUSH32 0x496E73756666696369656E742062616C616E636520696E20636F6E7472616374 PUSH0 DUP3 ADD MSTORE POP JUMP JUMPDEST PUSH0 PUSH2 0x2DBC PUSH1 0x20 DUP4 PUSH2 0x2B71 JUMP JUMPDEST SWAP2 POP PUSH2 0x2DC7 DUP3 PUSH2 0x2D88 JUMP JUMPDEST PUSH1 0x20 DUP3 ADD SWAP1 POP SWAP2 SWAP1 POP JUMP JUMPDEST PUSH0 PUSH1 0x20 DUP3 ADD SWAP1 POP DUP2 DUP2 SUB PUSH0 DUP4 ADD MSTORE PUSH2 0x2DE9 DUP2 PUSH2 0x2DB0 JUMP JUMPDEST SWAP1 POP SWAP2 SWAP1 POP JUMP JUMPDEST PUSH32 0x4E6F7420617574686F72697A65643A204F6E6C792064656661756C742061646D PUSH0 DUP3 ADD MSTORE PUSH32 0x696E2063616E20706572666F726D207468697320616374696F6E000000000000 PUSH1 0x20 DUP3 ADD MSTORE POP JUMP JUMPDEST PUSH0 PUSH2 0x2E4A PUSH1 0x3A DUP4 PUSH2 0x2B71 JUMP JUMPDEST SWAP2 POP PUSH2 0x2E55 DUP3 PUSH2 0x2DF0 JUMP JUMPDEST PUSH1 0x40 DUP3 ADD SWAP1 POP SWAP2 SWAP1 POP JUMP JUMPDEST PUSH0 PUSH1 0x20 DUP3 ADD SWAP1 POP DUP2 DUP2 SUB PUSH0 DUP4 ADD MSTORE PUSH2 0x2E77 DUP2 PUSH2 0x2E3E JUMP JUMPDEST SWAP1 POP SWAP2 SWAP1 POP JUMP JUMPDEST PUSH32 0x496E76616C6964206164647265737320666F72206E65772064656661756C7420 PUSH0 DUP3 ADD MSTORE PUSH32 0x61646D696E000000000000000000000000000000000000000000000000000000 PUSH1 0x20 DUP3 ADD MSTORE POP JUMP JUMPDEST PUSH0 PUSH2 0x2ED8 PUSH1 0x25 DUP4 PUSH2 0x2B71 JUMP JUMPDEST SWAP2 POP PUSH2 0x2EE3 DUP3 PUSH2 0x2E7E JUMP JUMPDEST PUSH1 0x40 DUP3 ADD SWAP1 POP SWAP2 SWAP1 POP JUMP JUMPDEST PUSH0 PUSH1 0x20 DUP3 ADD SWAP1 POP DUP2 DUP2 SUB PUSH0 DUP4 ADD MSTORE PUSH2 0x2F05 DUP2 PUSH2 0x2ECC JUMP JUMPDEST SWAP1 POP SWAP2 SWAP1 POP JUMP JUMPDEST PUSH32 0x4D696E696D756D20636F6D6D69746D656E7420616D6F756E74206D7573742062 PUSH0 DUP3 ADD MSTORE PUSH32 0x652067726561746572207468616E207A65726F00000000000000000000000000 PUSH1 0x20 DUP3 ADD MSTORE POP JUMP JUMPDEST PUSH0 PUSH2 0x2F66 PUSH1 0x33 DUP4 PUSH2 0x2B71 JUMP JUMPDEST SWAP2 POP PUSH2 0x2F71 DUP3 PUSH2 0x2F0C JUMP JUMPDEST PUSH1 0x40 DUP3 ADD SWAP1 POP SWAP2 SWAP1 POP JUMP JUMPDEST PUSH0 PUSH1 0x20 DUP3 ADD SWAP1 POP DUP2 DUP2 SUB PUSH0 DUP4 ADD MSTORE PUSH2 0x2F93 DUP2 PUSH2 0x2F5A JUMP JUMPDEST SWAP1 POP SWAP2 SWAP1 POP JUMP JUMPDEST PUSH32 0x4E6F7420616E2061646D696E0000000000000000000000000000000000000000 PUSH0 DUP3 ADD MSTORE POP JUMP JUMPDEST PUSH0 PUSH2 0x2FCE PUSH1 0xC DUP4 PUSH2 0x2B71 JUMP JUMPDEST SWAP2 POP PUSH2 0x2FD9 DUP3 PUSH2 0x2F9A JUMP JUMPDEST PUSH1 0x20 DUP3 ADD SWAP1 POP SWAP2 SWAP1 POP JUMP JUMPDEST PUSH0 PUSH1 0x20 DUP3 ADD SWAP1 POP DUP2 DUP2 SUB PUSH0 DUP4 ADD MSTORE PUSH2 0x2FFB DUP2 PUSH2 0x2FC2 JUMP JUMPDEST SWAP1 POP SWAP2 SWAP1 POP JUMP JUMPDEST PUSH32 0x43616E6E6F742072656D6F766520746865206C6173742061646D696E00000000 PUSH0 DUP3 ADD MSTORE POP JUMP JUMPDEST PUSH0 PUSH2 0x3036 PUSH1 0x1C DUP4 PUSH2 0x2B71 JUMP JUMPDEST SWAP2 POP PUSH2 0x3041 DUP3 PUSH2 0x3002 JUMP JUMPDEST PUSH1 0x20 DUP3 ADD SWAP1 POP SWAP2 SWAP1 POP JUMP JUMPDEST PUSH0 PUSH1 0x20 DUP3 ADD SWAP1 POP DUP2 DUP2 SUB PUSH0 DUP4 ADD MSTORE PUSH2 0x3063 DUP2 PUSH2 0x302A JUMP JUMPDEST SWAP1 POP SWAP2 SWAP1 POP JUMP JUMPDEST PUSH32 0x4E487B7100000000000000000000000000000000000000000000000000000000 PUSH0 MSTORE PUSH1 0x32 PUSH1 0x4 MSTORE PUSH1 0x24 PUSH0 REVERT JUMPDEST PUSH32 0x4E487B7100000000000000000000000000000000000000000000000000000000 PUSH0 MSTORE PUSH1 0x11 PUSH1 0x4 MSTORE PUSH1 0x24 PUSH0 REVERT JUMPDEST PUSH0 PUSH2 0x30CE DUP3 PUSH2 0x252D JUMP JUMPDEST SWAP2 POP PUSH2 0x30D9 DUP4 PUSH2 0x252D JUMP JUMPDEST SWAP3 POP DUP3 DUP3 SUB SWAP1 POP DUP2 DUP2 GT ISZERO PUSH2 0x30F1 JUMPI PUSH2 0x30F0 PUSH2 0x3097 JUMP JUMPDEST JUMPDEST SWAP3 SWAP2 POP POP JUMP JUMPDEST PUSH32 0x4E487B7100000000000000000000000000000000000000000000000000000000 PUSH0 MSTORE PUSH1 0x31 PUSH1 0x4 MSTORE PUSH1 0x24 PUSH0 REVERT JUMPDEST PUSH32 0x496E76616C6964204C5020616464726573730000000000000000000000000000 PUSH0 DUP3 ADD MSTORE POP JUMP JUMPDEST PUSH0 PUSH2 0x3158 PUSH1 0x12 DUP4 PUSH2 0x2B71 JUMP JUMPDEST SWAP2 POP PUSH2 0x3163 DUP3 PUSH2 0x3124 JUMP JUMPDEST PUSH1 0x20 DUP3 ADD SWAP1 POP SWAP2 SWAP1 POP JUMP JUMPDEST PUSH0 PUSH1 0x20 DUP3 ADD SWAP1 POP DUP2 DUP2 SUB PUSH0 DUP4 ADD MSTORE PUSH2 0x3185 DUP2 PUSH2 0x314C JUMP JUMPDEST SWAP1 POP SWAP2 SWAP1 POP JUMP JUMPDEST PUSH32 0x4C5020616C726561647920657869737473000000000000000000000000000000 PUSH0 DUP3 ADD MSTORE POP JUMP JUMPDEST PUSH0 PUSH2 0x31C0 PUSH1 0x11 DUP4 PUSH2 0x2B71 JUMP JUMPDEST SWAP2 POP PUSH2 0x31CB DUP3 PUSH2 0x318C JUMP JUMPDEST PUSH1 0x20 DUP3 ADD SWAP1 POP SWAP2 SWAP1 POP JUMP JUMPDEST PUSH0 PUSH1 0x20 DUP3 ADD SWAP1 POP DUP2 DUP2 SUB PUSH0 DUP4 ADD MSTORE PUSH2 0x31ED DUP2 PUSH2 0x31B4 JUMP JUMPDEST SWAP1 POP SWAP2 SWAP1 POP JUMP JUMPDEST PUSH32 0x4E616D652063616E6E6F7420626520656D707479000000000000000000000000 PUSH0 DUP3 ADD MSTORE POP JUMP JUMPDEST PUSH0 PUSH2 0x3228 PUSH1 0x14 DUP4 PUSH2 0x2B71 JUMP JUMPDEST SWAP2 POP PUSH2 0x3233 DUP3 PUSH2 0x31F4 JUMP JUMPDEST PUSH1 0x20 DUP3 ADD SWAP1 POP SWAP2 SWAP1 POP JUMP JUMPDEST PUSH0 PUSH1 0x20 DUP3 ADD SWAP1 POP DUP2 DUP2 SUB PUSH0 DUP4 ADD MSTORE PUSH2 0x3255 DUP2 PUSH2 0x321C JUMP JUMPDEST SWAP1 POP SWAP2 SWAP1 POP JUMP JUMPDEST PUSH0 PUSH2 0x3266 DUP3 PUSH2 0x252D JUMP JUMPDEST SWAP2 POP PUSH2 0x3271 DUP4 PUSH2 0x252D JUMP JUMPDEST SWAP3 POP DUP3 DUP3 MUL PUSH2 0x327F DUP2 PUSH2 0x252D JUMP JUMPDEST SWAP2 POP DUP3 DUP3 DIV DUP5 EQ DUP4 ISZERO OR PUSH2 0x3296 JUMPI PUSH2 0x3295 PUSH2 0x3097 JUMP JUMPDEST JUMPDEST POP SWAP3 SWAP2 POP POP JUMP JUMPDEST PUSH32 0x436F6D6D69746D656E7420616D6F756E74206D75737420626520677265617465 PUSH0 DUP3 ADD MSTORE PUSH32 0x72207468616E206D696E696D756D20616D6F756E740000000000000000000000 PUSH1 0x20 DUP3 ADD MSTORE POP JUMP JUMPDEST PUSH0 PUSH2 0x32F7 PUSH1 0x35 DUP4 PUSH2 0x2B71 JUMP JUMPDEST SWAP2 POP PUSH2 0x3302 DUP3 PUSH2 0x329D JUMP JUMPDEST PUSH1 0x40 DUP3 ADD SWAP1 POP SWAP2 SWAP1 POP JUMP JUMPDEST PUSH0 PUSH1 0x20 DUP3 ADD SWAP1 POP DUP2 DUP2 SUB PUSH0 DUP4 ADD MSTORE PUSH2 0x3324 DUP2 PUSH2 0x32EB JUMP JUMPDEST SWAP1 POP SWAP2 SWAP1 POP JUMP JUMPDEST PUSH32 0x456E642054696D65206D757374206265206C61746572207468616E2074686520 PUSH0 DUP3 ADD MSTORE PUSH32 0x63757272656E742074696D652E00000000000000000000000000000000000000 PUSH1 0x20 DUP3 ADD MSTORE POP JUMP JUMPDEST PUSH0 PUSH2 0x3385 PUSH1 0x2D DUP4 PUSH2 0x2B71 JUMP JUMPDEST SWAP2 POP PUSH2 0x3390 DUP3 PUSH2 0x332B JUMP JUMPDEST PUSH1 0x40 DUP3 ADD SWAP1 POP SWAP2 SWAP1 POP JUMP JUMPDEST PUSH0 PUSH1 0x20 DUP3 ADD SWAP1 POP DUP2 DUP2 SUB PUSH0 DUP4 ADD MSTORE PUSH2 0x33B2 DUP2 PUSH2 0x3379 JUMP JUMPDEST SWAP1 POP SWAP2 SWAP1 POP JUMP JUMPDEST PUSH32 0x4E487B7100000000000000000000000000000000000000000000000000000000 PUSH0 MSTORE PUSH1 0x22 PUSH1 0x4 MSTORE PUSH1 0x24 PUSH0 REVERT JUMPDEST PUSH0 PUSH1 0x2 DUP3 DIV SWAP1 POP PUSH1 0x1 DUP3 AND DUP1 PUSH2 0x33FD JUMPI PUSH1 0x7F DUP3 AND SWAP2 POP JUMPDEST PUSH1 0x20 DUP3 LT DUP2 SUB PUSH2 0x3410 JUMPI PUSH2 0x340F PUSH2 0x33B9 JUMP JUMPDEST JUMPDEST POP SWAP2 SWAP1 POP JUMP JUMPDEST PUSH0 DUP2 SWAP1 POP DUP2 PUSH0 MSTORE PUSH1 0x20 PUSH0 KECCAK256 SWAP1 POP SWAP2 SWAP1 POP JUMP JUMPDEST PUSH0 PUSH1 0x20 PUSH1 0x1F DUP4 ADD DIV SWAP1 POP SWAP2 SWAP1 POP JUMP JUMPDEST PUSH0 DUP3 DUP3 SHL SWAP1 POP SWAP3 SWAP2 POP POP JUMP JUMPDEST PUSH0 PUSH1 0x8 DUP4 MUL PUSH2 0x3472 PUSH32 0xFFFFFFFFFFFFFFFFFFFFFFFFFFFFFFFFFFFFFFFFFFFFFFFFFFFFFFFFFFFFFFFF DUP3 PUSH2 0x3437 JUMP JUMPDEST PUSH2 0x347C DUP7 DUP4 PUSH2 0x3437 JUMP JUMPDEST SWAP6 POP DUP1 NOT DUP5 AND SWAP4 POP DUP1 DUP7 AND DUP5 OR SWAP3 POP POP POP SWAP4 SWAP3 POP POP POP JUMP JUMPDEST PUSH0 DUP2 SWAP1 POP SWAP2 SWAP1 POP JUMP JUMPDEST PUSH0 PUSH2 0x34B7 PUSH2 0x34B2 PUSH2 0x34AD DUP5 PUSH2 0x252D JUMP JUMPDEST PUSH2 0x3494 JUMP JUMPDEST PUSH2 0x252D JUMP JUMPDEST SWAP1 POP SWAP2 SWAP1 POP JUMP JUMPDEST PUSH0 DUP2 SWAP1 POP SWAP2 SWAP1 POP JUMP JUMPDEST PUSH2 0x34D0 DUP4 PUSH2 0x349D JUMP JUMPDEST PUSH2 0x34E4 PUSH2 0x34DC DUP3 PUSH2 0x34BE JUMP JUMPDEST DUP5 DUP5 SLOAD PUSH2 0x3443 JUMP JUMPDEST DUP3 SSTORE POP POP POP POP JUMP JUMPDEST PUSH0 PUSH0 SWAP1 POP SWAP1 JUMP JUMPDEST PUSH2 0x34FB PUSH2 0x34EC JUMP JUMPDEST PUSH2 0x3506 DUP2 DUP5 DUP5 PUSH2 0x34C7 JUMP JUMPDEST POP POP POP JUMP JUMPDEST JUMPDEST DUP2 DUP2 LT ISZERO PUSH2 0x3529 JUMPI PUSH2 0x351E PUSH0 DUP3 PUSH2 0x34F3 JUMP JUMPDEST PUSH1 0x1 DUP2 ADD SWAP1 POP PUSH2 0x350C JUMP JUMPDEST POP POP JUMP JUMPDEST PUSH1 0x1F DUP3 GT ISZERO PUSH2 0x356E JUMPI PUSH2 0x353F DUP2 PUSH2 0x3416 JUMP JUMPDEST PUSH2 0x3548 DUP5 PUSH2 0x3428 JUMP JUMPDEST DUP2 ADD PUSH1 0x20 DUP6 LT ISZERO PUSH2 0x3557 JUMPI DUP2 SWAP1 POP JUMPDEST PUSH2 0x356B PUSH2 0x3563 DUP6 PUSH2 0x3428 JUMP JUMPDEST DUP4 ADD DUP3 PUSH2 0x350B JUMP JUMPDEST POP POP JUMPDEST POP POP POP JUMP JUMPDEST PUSH0 DUP3 DUP3 SHR SWAP1 POP SWAP3 SWAP2 POP POP JUMP JUMPDEST PUSH0 PUSH2 0x358E PUSH0 NOT DUP5 PUSH1 0x8 MUL PUSH2 0x3573 JUMP JUMPDEST NOT DUP1 DUP4 AND SWAP2 POP POP SWAP3 SWAP2 POP POP JUMP JUMPDEST PUSH0 PUSH2 0x35A6 DUP4 DUP4 PUSH2 0x357F JUMP JUMPDEST SWAP2 POP DUP3 PUSH1 0x2 MUL DUP3 OR SWAP1 POP SWAP3 SWAP2 POP POP JUMP JUMPDEST PUSH2 0x35BF DUP3 PUSH2 0x2B67 JUMP JUMPDEST PUSH8 0xFFFFFFFFFFFFFFFF DUP2 GT ISZERO PUSH2 0x35D8 JUMPI PUSH2 0x35D7 PUSH2 0x26C1 JUMP JUMPDEST JUMPDEST PUSH2 0x35E2 DUP3 SLOAD PUSH2 0x33E6 JUMP JUMPDEST PUSH2 0x35ED DUP3 DUP3 DUP6 PUSH2 0x352D JUMP JUMPDEST PUSH0 PUSH1 0x20 SWAP1 POP PUSH1 0x1F DUP4 GT PUSH1 0x1 DUP2 EQ PUSH2 0x361E JUMPI PUSH0 DUP5 ISZERO PUSH2 0x360C JUMPI DUP3 DUP8 ADD MLOAD SWAP1 POP JUMPDEST PUSH2 0x3616 DUP6 DUP3 PUSH2 0x359B JUMP JUMPDEST DUP7 SSTORE POP PUSH2 0x367D JUMP JUMPDEST PUSH1 0x1F NOT DUP5 AND PUSH2 0x362C DUP7 PUSH2 0x3416 JUMP JUMPDEST PUSH0 JUMPDEST DUP3 DUP2 LT ISZERO PUSH2 0x3653 JUMPI DUP5 DUP10 ADD MLOAD DUP3 SSTORE PUSH1 0x1 DUP3 ADD SWAP2 POP PUSH1 0x20 DUP6 ADD SWAP5 POP PUSH1 0x20 DUP2 ADD SWAP1 POP PUSH2 0x362E JUMP JUMPDEST DUP7 DUP4 LT ISZERO PUSH2 0x3670 JUMPI DUP5 DUP10 ADD MLOAD PUSH2 0x366C PUSH1 0x1F DUP10 AND DUP3 PUSH2 0x357F JUMP JUMPDEST DUP4 SSTORE POP JUMPDEST PUSH1 0x1 PUSH1 0x2 DUP9 MUL ADD DUP9 SSTORE POP POP POP JUMPDEST POP POP POP POP POP POP JUMP JUMPDEST PUSH0 PUSH1 0x40 DUP3 ADD SWAP1 POP PUSH2 0x3698 PUSH0 DUP4 ADD DUP6 PUSH2 0x29B6 JUMP JUMPDEST PUSH2 0x36A5 PUSH1 0x20 DUP4 ADD DUP5 PUSH2 0x29B6 JUMP JUMPDEST SWAP4 SWAP3 POP POP POP JUMP JUMPDEST PUSH32 0x496E76616C6964204C5000000000000000000000000000000000000000000000 PUSH0 DUP3 ADD MSTORE POP JUMP JUMPDEST PUSH0 PUSH2 0x36E0 PUSH1 0xA DUP4 PUSH2 0x2B71 JUMP JUMPDEST SWAP2 POP PUSH2 0x36EB DUP3 PUSH2 0x36AC JUMP JUMPDEST PUSH1 0x20 DUP3 ADD SWAP1 POP SWAP2 SWAP1 POP JUMP JUMPDEST PUSH0 PUSH1 0x20 DUP3 ADD SWAP1 POP DUP2 DUP2 SUB PUSH0 DUP4 ADD MSTORE PUSH2 0x370D DUP2 PUSH2 0x36D4 JUMP JUMPDEST SWAP1 POP SWAP2 SWAP1 POP JUMP JUMPDEST PUSH0 PUSH10 0xFFFFFFFFFFFFFFFFFFFF DUP3 AND SWAP1 POP SWAP2 SWAP1 POP JUMP JUMPDEST PUSH2 0x3732 DUP2 PUSH2 0x3714 JUMP JUMPDEST DUP2 EQ PUSH2 0x373C JUMPI PUSH0 PUSH0 REVERT JUMPDEST POP JUMP JUMPDEST PUSH0 DUP2 MLOAD SWAP1 POP PUSH2 0x374D DUP2 PUSH2 0x3729 JUMP JUMPDEST SWAP3 SWAP2 POP POP JUMP JUMPDEST PUSH0 DUP2 SWAP1 POP SWAP2 SWAP1 POP JUMP JUMPDEST PUSH2 0x3765 DUP2 PUSH2 0x3753 JUMP JUMPDEST DUP2 EQ PUSH2 0x376F JUMPI PUSH0 PUSH0 REVERT JUMPDEST POP JUMP JUMPDEST PUSH0 DUP2 MLOAD SWAP1 POP PUSH2 0x3780 DUP2 PUSH2 0x375C JUMP JUMPDEST SWAP3 SWAP2 POP POP JUMP JUMPDEST PUSH0 DUP2 MLOAD SWAP1 POP PUSH2 0x3794 DUP2 PUSH2 0x2536 JUMP JUMPDEST SWAP3 SWAP2 POP POP JUMP JUMPDEST PUSH0 PUSH0 PUSH0 PUSH0 PUSH0 PUSH1 0xA0 DUP7 DUP9 SUB SLT ISZERO PUSH2 0x37B3 JUMPI PUSH2 0x37B2 PUSH2 0x2525 JUMP JUMPDEST JUMPDEST PUSH0 PUSH2 0x37C0 DUP9 DUP3 DUP10 ADD PUSH2 0x373F JUMP JUMPDEST SWAP6 POP POP PUSH1 0x20 PUSH2 0x37D1 DUP9 DUP3 DUP10 ADD PUSH2 0x3772 JUMP JUMPDEST SWAP5 POP POP PUSH1 0x40 PUSH2 0x37E2 DUP9 DUP3 DUP10 ADD PUSH2 0x3786 JUMP JUMPDEST SWAP4 POP POP PUSH1 0x60 PUSH2 0x37F3 DUP9 DUP3 DUP10 ADD PUSH2 0x3786 JUMP JUMPDEST SWAP3 POP POP PUSH1 0x80 PUSH2 0x3804 DUP9 DUP3 DUP10 ADD PUSH2 0x373F JUMP JUMPDEST SWAP2 POP POP SWAP3 SWAP6 POP SWAP3 SWAP6 SWAP1 SWAP4 POP JUMP JUMPDEST PUSH32 0x496E76616C6964204554482F5553442070726963652064617461000000000000 PUSH0 DUP3 ADD MSTORE POP JUMP JUMPDEST PUSH0 PUSH2 0x3845 PUSH1 0x1A DUP4 PUSH2 0x2B71 JUMP JUMPDEST SWAP2 POP PUSH2 0x3850 DUP3 PUSH2 0x3811 JUMP JUMPDEST PUSH1 0x20 DUP3 ADD SWAP1 POP SWAP2 SWAP1 POP JUMP JUMPDEST PUSH0 PUSH1 0x20 DUP3 ADD SWAP1 POP DUP2 DUP2 SUB PUSH0 DUP4 ADD MSTORE PUSH2 0x3872 DUP2 PUSH2 0x3839 JUMP JUMPDEST SWAP1 POP SWAP2 SWAP1 POP JUMP JUMPDEST PUSH32 0x496E76616C696420616464726573730000000000000000000000000000000000 PUSH0 DUP3 ADD MSTORE POP JUMP JUMPDEST PUSH0 PUSH2 0x38AD PUSH1 0xF DUP4 PUSH2 0x2B71 JUMP JUMPDEST SWAP2 POP PUSH2 0x38B8 DUP3 PUSH2 0x3879 JUMP JUMPDEST PUSH1 0x20 DUP3 ADD SWAP1 POP SWAP2 SWAP1 POP JUMP JUMPDEST PUSH0 PUSH1 0x20 DUP3 ADD SWAP1 POP DUP2 DUP2 SUB PUSH0 DUP4 ADD MSTORE PUSH2 0x38DA DUP2 PUSH2 0x38A1 JUMP JUMPDEST SWAP1 POP SWAP2 SWAP1 POP JUMP JUMPDEST PUSH32 0x416C726561647920616E2061646D696E00000000000000000000000000000000 PUSH0 DUP3 ADD MSTORE POP JUMP JUMPDEST PUSH0 PUSH2 0x3915 PUSH1 0x10 DUP4 PUSH2 0x2B71 JUMP JUMPDEST SWAP2 POP PUSH2 0x3920 DUP3 PUSH2 0x38E1 JUMP JUMPDEST PUSH1 0x20 DUP3 ADD SWAP1 POP SWAP2 SWAP1 POP JUMP JUMPDEST PUSH0 PUSH1 0x20 DUP3 ADD SWAP1 POP DUP2 DUP2 SUB PUSH0 DUP4 ADD MSTORE PUSH2 0x3942 DUP2 PUSH2 0x3909 JUMP JUMPDEST SWAP1 POP SWAP2 SWAP1 POP JUMP JUMPDEST PUSH32 0x4E6F7420616E204C502100000000000000000000000000000000000000000000 PUSH0 DUP3 ADD MSTORE POP JUMP JUMPDEST PUSH0 PUSH2 0x397D PUSH1 0xA DUP4 PUSH2 0x2B71 JUMP JUMPDEST SWAP2 POP PUSH2 0x3988 DUP3 PUSH2 0x3949 JUMP JUMPDEST PUSH1 0x20 DUP3 ADD SWAP1 POP SWAP2 SWAP1 POP JUMP JUMPDEST PUSH0 PUSH1 0x20 DUP3 ADD SWAP1 POP DUP2 DUP2 SUB PUSH0 DUP4 ADD MSTORE PUSH2 0x39AA DUP2 PUSH2 0x3971 JUMP JUMPDEST SWAP1 POP SWAP2 SWAP1 POP JUMP JUMPDEST PUSH32 0x436173682063616C6C20616D6F756E74206D7573742062652067726561746572 PUSH0 DUP3 ADD MSTORE PUSH32 0x207468616E207A65726F00000000000000000000000000000000000000000000 PUSH1 0x20 DUP3 ADD MSTORE POP JUMP JUMPDEST PUSH0 PUSH2 0x3A0B PUSH1 0x2A DUP4 PUSH2 0x2B71 JUMP JUMPDEST SWAP2 POP PUSH2 0x3A16 DUP3 PUSH2 0x39B1 JUMP JUMPDEST PUSH1 0x40 DUP3 ADD SWAP1 POP SWAP2 SWAP1 POP JUMP JUMPDEST PUSH0 PUSH1 0x20 DUP3 ADD SWAP1 POP DUP2 DUP2 SUB PUSH0 DUP4 ADD MSTORE PUSH2 0x3A38 DUP2 PUSH2 0x39FF JUMP JUMPDEST SWAP1 POP SWAP2 SWAP1 POP JUMP JUMPDEST PUSH32 0x446561646C696E65206D757374206265206C61746572207468616E2074686520 PUSH0 DUP3 ADD MSTORE PUSH32 0x63757272656E742074696D652E00000000000000000000000000000000000000 PUSH1 0x20 DUP3 ADD MSTORE POP JUMP JUMPDEST PUSH0 PUSH2 0x3A99 PUSH1 0x2D DUP4 PUSH2 0x2B71 JUMP JUMPDEST SWAP2 POP PUSH2 0x3AA4 DUP3 PUSH2 0x3A3F JUMP JUMPDEST PUSH1 0x40 DUP3 ADD SWAP1 POP SWAP2 SWAP1 POP JUMP JUMPDEST PUSH0 PUSH1 0x20 DUP3 ADD SWAP1 POP DUP2 DUP2 SUB PUSH0 DUP4 ADD MSTORE PUSH2 0x3AC6 DUP2 PUSH2 0x3A8D JUMP JUMPDEST SWAP1 POP SWAP2 SWAP1 POP JUMP JUMPDEST PUSH32 0x4E657720646561646C696E65206D75737420626520616674657220746865206C PUSH0 DUP3 ADD MSTORE PUSH32 0x61737420646561646C696E650000000000000000000000000000000000000000 PUSH1 0x20 DUP3 ADD MSTORE POP JUMP JUMPDEST PUSH0 PUSH2 0x3B27 PUSH1 0x2C DUP4 PUSH2 0x2B71 JUMP JUMPDEST SWAP2 POP PUSH2 0x3B32 DUP3 PUSH2 0x3ACD JUMP JUMPDEST PUSH1 0x40 DUP3 ADD SWAP1 POP SWAP2 SWAP1 POP JUMP JUMPDEST PUSH0 PUSH1 0x20 DUP3 ADD SWAP1 POP DUP2 DUP2 SUB PUSH0 DUP4 ADD MSTORE PUSH2 0x3B54 DUP2 PUSH2 0x3B1B JUMP JUMPDEST SWAP1 POP SWAP2 SWAP1 POP JUMP JUMPDEST PUSH0 PUSH1 0x60 DUP3 ADD SWAP1 POP PUSH2 0x3B6E PUSH0 DUP4 ADD DUP7 PUSH2 0x29B6 JUMP JUMPDEST PUSH2 0x3B7B PUSH1 0x20 DUP4 ADD DUP6 PUSH2 0x29B6 JUMP JUMPDEST PUSH2 0x3B88 PUSH1 0x40 DUP4 ADD DUP5 PUSH2 0x29B6 JUMP JUMPDEST SWAP5 SWAP4 POP POP POP POP JUMP JUMPDEST PUSH32 0x436173682063616C6C20646F6573206E6F742065786973740000000000000000 PUSH0 DUP3 ADD MSTORE POP JUMP JUMPDEST PUSH0 PUSH2 0x3BC4 PUSH1 0x18 DUP4 PUSH2 0x2B71 JUMP JUMPDEST SWAP2 POP PUSH2 0x3BCF DUP3 PUSH2 0x3B90 JUMP JUMPDEST PUSH1 0x20 DUP3 ADD SWAP1 POP SWAP2 SWAP1 POP JUMP JUMPDEST PUSH0 PUSH1 0x20 DUP3 ADD SWAP1 POP DUP2 DUP2 SUB PUSH0 DUP4 ADD MSTORE PUSH2 0x3BF1 DUP2 PUSH2 0x3BB8 JUMP JUMPDEST SWAP1 POP SWAP2 SWAP1 POP JUMP JUMPDEST PUSH32 0x436173682063616C6C206E6F7420657865637574656420796574000000000000 PUSH0 DUP3 ADD MSTORE POP JUMP JUMPDEST PUSH0 PUSH2 0x3C2C PUSH1 0x1A DUP4 PUSH2 0x2B71 JUMP JUMPDEST SWAP2 POP PUSH2 0x3C37 DUP3 PUSH2 0x3BF8 JUMP JUMPDEST PUSH1 0x20 DUP3 ADD SWAP1 POP SWAP2 SWAP1 POP JUMP JUMPDEST PUSH0 PUSH1 0x20 DUP3 ADD SWAP1 POP DUP2 DUP2 SUB PUSH0 DUP4 ADD MSTORE PUSH2 0x3C59 DUP2 PUSH2 0x3C20 JUMP JUMPDEST SWAP1 POP SWAP2 SWAP1 POP JUMP JUMPDEST PUSH32 0x436173682063616C6C20616C7265616479206578656375746564000000000000 PUSH0 DUP3 ADD MSTORE POP JUMP JUMPDEST PUSH0 PUSH2 0x3C94 PUSH1 0x1A DUP4 PUSH2 0x2B71 JUMP JUMPDEST SWAP2 POP PUSH2 0x3C9F DUP3 PUSH2 0x3C60 JUMP JUMPDEST PUSH1 0x20 DUP3 ADD SWAP1 POP SWAP2 SWAP1 POP JUMP JUMPDEST PUSH0 PUSH1 0x20 DUP3 ADD SWAP1 POP DUP2 DUP2 SUB PUSH0 DUP4 ADD MSTORE PUSH2 0x3CC1 DUP2 PUSH2 0x3C88 JUMP JUMPDEST SWAP1 POP SWAP2 SWAP1 POP JUMP JUMPDEST PUSH32 0x596F7520617265206E6F7420616E204C50000000000000000000000000000000 PUSH0 DUP3 ADD MSTORE POP JUMP JUMPDEST PUSH0 PUSH2 0x3CFC PUSH1 0x11 DUP4 PUSH2 0x2B71 JUMP JUMPDEST SWAP2 POP PUSH2 0x3D07 DUP3 PUSH2 0x3CC8 JUMP JUMPDEST PUSH1 0x20 DUP3 ADD SWAP1 POP SWAP2 SWAP1 POP JUMP JUMPDEST PUSH0 PUSH1 0x20 DUP3 ADD SWAP1 POP DUP2 DUP2 SUB PUSH0 DUP4 ADD MSTORE PUSH2 0x3D29 DUP2 PUSH2 0x3CF0 JUMP JUMPDEST SWAP1 POP SWAP2 SWAP1 POP JUMP JUMPDEST PUSH0 PUSH2 0x3D3A DUP3 PUSH2 0x252D JUMP JUMPDEST SWAP2 POP PUSH2 0x3D45 DUP4 PUSH2 0x252D JUMP JUMPDEST SWAP3 POP DUP3 DUP3 ADD SWAP1 POP DUP1 DUP3 GT ISZERO PUSH2 0x3D5D JUMPI PUSH2 0x3D5C PUSH2 0x3097 JUMP JUMPDEST JUMPDEST SWAP3 SWAP2 POP POP JUMP JUMPDEST PUSH0 DUP2 SLOAD PUSH2 0x3D6F DUP2 PUSH2 0x33E6 JUMP JUMPDEST PUSH2 0x3D79 DUP2 DUP7 PUSH2 0x2B71 JUMP JUMPDEST SWAP5 POP PUSH1 0x1 DUP3 AND PUSH0 DUP2 EQ PUSH2 0x3D93 JUMPI PUSH1 0x1 DUP2 EQ PUSH2 0x3DA9 JUMPI PUSH2 0x3DDB JUMP JUMPDEST PUSH1 0xFF NOT DUP4 AND DUP7 MSTORE DUP2 ISZERO ISZERO PUSH1 0x20 MUL DUP7 ADD SWAP4 POP PUSH2 0x3DDB JUMP JUMPDEST PUSH2 0x3DB2 DUP6 PUSH2 0x3416 JUMP JUMPDEST PUSH0 JUMPDEST DUP4 DUP2 LT ISZERO PUSH2 0x3DD3 JUMPI DUP2 SLOAD DUP2 DUP10 ADD MSTORE PUSH1 0x1 DUP3 ADD SWAP2 POP PUSH1 0x20 DUP2 ADD SWAP1 POP PUSH2 0x3DB4 JUMP JUMPDEST DUP1 DUP9 ADD SWAP6 POP POP POP JUMPDEST POP POP POP SWAP3 SWAP2 POP POP JUMP JUMPDEST PUSH0 PUSH1 0x60 DUP3 ADD SWAP1 POP DUP2 DUP2 SUB PUSH0 DUP4 ADD MSTORE PUSH2 0x3DFC DUP2 DUP7 PUSH2 0x3D63 JUMP JUMPDEST SWAP1 POP PUSH2 0x3E0B PUSH1 0x20 DUP4 ADD DUP6 PUSH2 0x29B6 JUMP JUMPDEST PUSH2 0x3E18 PUSH1 0x40 DUP4 ADD DUP5 PUSH2 0x29B6 JUMP JUMPDEST SWAP5 SWAP4 POP POP POP POP JUMP JUMPDEST PUSH32 0x5265656E7472616E637947756172643A207265656E7472616E742063616C6C00 PUSH0 DUP3 ADD MSTORE POP JUMP JUMPDEST PUSH0 PUSH2 0x3E54 PUSH1 0x1F DUP4 PUSH2 0x2B71 JUMP JUMPDEST SWAP2 POP PUSH2 0x3E5F DUP3 PUSH2 0x3E20 JUMP JUMPDEST PUSH1 0x20 DUP3 ADD SWAP1 POP SWAP2 SWAP1 POP JUMP JUMPDEST PUSH0 PUSH1 0x20 DUP3 ADD SWAP1 POP DUP2 DUP2 SUB PUSH0 DUP4 ADD MSTORE PUSH2 0x3E81 DUP2 PUSH2 0x3E48 JUMP JUMPDEST SWAP1 POP SWAP2 SWAP1 POP JUMP JUMPDEST PUSH32 0x5061757361626C653A206E6F7420706175736564000000000000000000000000 PUSH0 DUP3 ADD MSTORE POP JUMP JUMPDEST PUSH0 PUSH2 0x3EBC PUSH1 0x14 DUP4 PUSH2 0x2B71 JUMP JUMPDEST SWAP2 POP PUSH2 0x3EC7 DUP3 PUSH2 0x3E88 JUMP JUMPDEST PUSH1 0x20 DUP3 ADD SWAP1 POP SWAP2 SWAP1 POP JUMP JUMPDEST PUSH0 PUSH1 0x20 DUP3 ADD SWAP1 POP DUP2 DUP2 SUB PUSH0 DUP4 ADD MSTORE PUSH2 0x3EE9 DUP2 PUSH2 0x3EB0 JUMP JUMPDEST SWAP1 POP SWAP2 SWAP1 POP JUMP INVALID LOG2 PUSH5 0x6970667358 0x22 SLT KECCAK256 SMOD PUSH8 0xD31B86535AB6453B PUSH16 0xD4E2B1AB49FBA6ACC88DCA12D329661A PUSH1 0x94 PUSH25 0x663C64736F6C634300081C0033000000000000000000000000 "
	},
	"abi": [
		{
			"inputs": [
				{
					"internalType": "address",
					"name": "_aggregatorAddress",
					"type": "address"
				},
				{
					"internalType": "address",
					"name": "_defaultAdmin",
					"type": "address"
				}
			],
			"stateMutability": "nonpayable",
			"type": "constructor"
		},
		{
			"anonymous": false,
			"inputs": [
				{
					"indexed": true,
					"internalType": "address",
					"name": "lp",
					"type": "address"
				}
			],
			"name": "AccessRevoked",
			"type": "event"
		},
		{
			"anonymous": false,
			"inputs": [
				{
					"indexed": true,
					"internalType": "address",
					"name": "account",
					"type": "address"
				}
			],
			"name": "AdminAdded",
			"type": "event"
		},
		{
			"anonymous": false,
			"inputs": [
				{
					"indexed": true,
					"internalType": "address",
					"name": "account",
					"type": "address"
				}
			],
			"name": "AdminRemoved",
			"type": "event"
		},
		{
			"anonymous": false,
			"inputs": [
				{
					"indexed": false,
					"internalType": "uint256",
					"name": "callId",
					"type": "uint256"
				},
				{
					"indexed": false,
					"internalType": "uint256",
					"name": "amount",
					"type": "uint256"
				},
				{
					"indexed": false,
					"internalType": "uint256",
					"name": "deadline",
					"type": "uint256"
				}
			],
			"name": "CashCallCreated",
			"type": "event"
		},
		{
			"anonymous": false,
			"inputs": [
				{
					"indexed": true,
					"internalType": "address",
					"name": "lp",
					"type": "address"
				},
				{
					"indexed": false,
					"internalType": "uint256",
					"name": "callId",
					"type": "uint256"
				}
			],
			"name": "CashCallExecuted",
			"type": "event"
		},
		{
			"anonymous": false,
			"inputs": [
				{
					"indexed": true,
					"internalType": "address",
					"name": "lp",
					"type": "address"
				},
				{
					"indexed": false,
					"internalType": "uint256",
					"name": "callId",
					"type": "uint256"
				}
			],
			"name": "CashCallExecutionReverted",
			"type": "event"
		},
		{
			"anonymous": false,
			"inputs": [
				{
					"indexed": true,
					"internalType": "address",
					"name": "lp",
					"type": "address"
				},
				{
					"indexed": false,
					"internalType": "uint256",
					"name": "amountETH",
					"type": "uint256"
				},
				{
					"indexed": false,
					"internalType": "uint256",
					"name": "endTime",
					"type": "uint256"
				}
			],
			"name": "CommitmentSet",
			"type": "event"
		},
		{
			"anonymous": false,
			"inputs": [
				{
					"indexed": true,
					"internalType": "address",
					"name": "oldAdmin",
					"type": "address"
				},
				{
					"indexed": true,
					"internalType": "address",
					"name": "newAdmin",
					"type": "address"
				}
			],
			"name": "DefaultAdminChanged",
			"type": "event"
		},
		{
			"anonymous": false,
			"inputs": [
				{
					"indexed": false,
					"internalType": "address",
					"name": "account",
					"type": "address"
				}
			],
			"name": "Paused",
			"type": "event"
		},
		{
			"anonymous": false,
			"inputs": [
				{
					"indexed": true,
					"internalType": "address",
					"name": "lp",
					"type": "address"
				},
				{
					"indexed": false,
					"internalType": "string",
					"name": "name",
					"type": "string"
				},
				{
					"indexed": false,
					"internalType": "uint256",
					"name": "amount",
					"type": "uint256"
				},
				{
					"indexed": false,
					"internalType": "uint256",
					"name": "callId",
					"type": "uint256"
				}
			],
			"name": "PaymentMade",
			"type": "event"
		},
		{
			"anonymous": false,
			"inputs": [
				{
					"indexed": true,
					"internalType": "address",
					"name": "lp",
					"type": "address"
				},
				{
					"indexed": false,
					"internalType": "uint256",
					"name": "penaltyAmount",
					"type": "uint256"
				}
			],
			"name": "PenaltyApplied",
			"type": "event"
		},
		{
			"anonymous": false,
			"inputs": [
				{
					"indexed": false,
					"internalType": "address",
					"name": "account",
					"type": "address"
				}
			],
			"name": "Unpaused",
			"type": "event"
		},
		{
			"anonymous": false,
			"inputs": [
				{
					"indexed": true,
					"internalType": "address",
					"name": "to",
					"type": "address"
				},
				{
					"indexed": false,
					"internalType": "uint256",
					"name": "amount",
					"type": "uint256"
				}
			],
			"name": "Withdrawal",
			"type": "event"
		},
		{
			"inputs": [
				{
					"internalType": "address",
					"name": "_account",
					"type": "address"
				}
			],
			"name": "addAdmin",
			"outputs": [],
			"stateMutability": "nonpayable",
			"type": "function"
		},
		{
			"inputs": [
				{
					"internalType": "uint256",
					"name": "",
					"type": "uint256"
				}
			],
			"name": "admins",
			"outputs": [
				{
					"internalType": "address",
					"name": "",
					"type": "address"
				}
			],
			"stateMutability": "view",
			"type": "function"
		},
		{
			"inputs": [
				{
					"internalType": "address",
					"name": "_lp",
					"type": "address"
				},
				{
					"internalType": "uint256",
					"name": "_penaltyAmount",
					"type": "uint256"
				},
				{
					"internalType": "bool",
					"name": "_revokeAccess",
					"type": "bool"
				}
			],
			"name": "applyPenalty",
			"outputs": [],
			"stateMutability": "nonpayable",
			"type": "function"
		},
		{
			"inputs": [
				{
					"internalType": "address",
					"name": "",
					"type": "address"
				},
				{
					"internalType": "uint256",
					"name": "",
					"type": "uint256"
				}
			],
			"name": "cashCalls",
			"outputs": [
				{
					"internalType": "uint256",
					"name": "amount",
					"type": "uint256"
				},
				{
					"internalType": "uint256",
					"name": "paidAmount",
					"type": "uint256"
				},
				{
					"internalType": "uint256",
					"name": "deadline",
					"type": "uint256"
				},
				{
					"internalType": "bool",
					"name": "executed",
					"type": "bool"
				}
			],
			"stateMutability": "view",
			"type": "function"
		},
		{
			"inputs": [
				{
					"internalType": "address",
					"name": "_lp",
					"type": "address"
				},
				{
					"internalType": "uint256",
					"name": "_amount",
					"type": "uint256"
				},
				{
					"internalType": "uint256",
					"name": "_deadline",
					"type": "uint256"
				}
			],
			"name": "createCashCall",
			"outputs": [],
			"stateMutability": "nonpayable",
			"type": "function"
		},
		{
			"inputs": [],
			"name": "defaultAdmin",
			"outputs": [
				{
					"internalType": "address",
					"name": "",
					"type": "address"
				}
			],
			"stateMutability": "view",
			"type": "function"
		},
		{
			"inputs": [
				{
					"internalType": "address",
					"name": "_lp",
					"type": "address"
				},
				{
					"internalType": "uint256",
					"name": "_callId",
					"type": "uint256"
				}
			],
			"name": "executeCashCall",
			"outputs": [],
			"stateMutability": "nonpayable",
			"type": "function"
		},
		{
			"inputs": [],
			"name": "getAdmins",
			"outputs": [
				{
					"internalType": "address[]",
					"name": "",
					"type": "address[]"
				}
			],
			"stateMutability": "view",
			"type": "function"
		},
		{
			"inputs": [
				{
					"internalType": "address",
					"name": "_lp",
					"type": "address"
				}
			],
			"name": "getCashCalls",
			"outputs": [
				{
					"components": [
						{
							"internalType": "uint256",
							"name": "amount",
							"type": "uint256"
						},
						{
							"internalType": "uint256",
							"name": "paidAmount",
							"type": "uint256"
						},
						{
							"internalType": "uint256",
							"name": "deadline",
							"type": "uint256"
						},
						{
							"internalType": "bool",
							"name": "executed",
							"type": "bool"
						}
					],
					"internalType": "struct LPManagement.CashCall[]",
					"name": "",
					"type": "tuple[]"
				}
			],
			"stateMutability": "view",
			"type": "function"
		},
		{
			"inputs": [],
			"name": "getETHUSDCExchangeRate",
			"outputs": [
				{
					"internalType": "uint256",
					"name": "",
					"type": "uint256"
				}
			],
			"stateMutability": "view",
			"type": "function"
		},
		{
			"inputs": [
				{
					"internalType": "address",
					"name": "",
					"type": "address"
				}
			],
			"name": "isAdmin",
			"outputs": [
				{
					"internalType": "bool",
					"name": "",
					"type": "bool"
				}
			],
			"stateMutability": "view",
			"type": "function"
		},
		{
			"inputs": [
				{
					"internalType": "address",
					"name": "",
					"type": "address"
				}
			],
			"name": "lpData",
			"outputs": [
				{
					"internalType": "string",
					"name": "name",
					"type": "string"
				},
				{
					"internalType": "uint256",
					"name": "commitmentAmount",
					"type": "uint256"
				},
				{
					"internalType": "uint256",
					"name": "totalPaid",
					"type": "uint256"
				},
				{
					"internalType": "uint256",
					"name": "endTime",
					"type": "uint256"
				}
			],
			"stateMutability": "view",
			"type": "function"
		},
		{
			"inputs": [
				{
					"internalType": "address",
					"name": "_lp",
					"type": "address"
				},
				{
					"internalType": "uint256",
					"name": "_callId",
					"type": "uint256"
				}
			],
			"name": "makePayment",
			"outputs": [],
			"stateMutability": "payable",
			"type": "function"
		},
		{
			"inputs": [],
			"name": "minCommitmentAmountUSD",
			"outputs": [
				{
					"internalType": "uint256",
					"name": "",
					"type": "uint256"
				}
			],
			"stateMutability": "view",
			"type": "function"
		},
		{
			"inputs": [],
			"name": "pause",
			"outputs": [],
			"stateMutability": "nonpayable",
			"type": "function"
		},
		{
			"inputs": [],
			"name": "paused",
			"outputs": [
				{
					"internalType": "bool",
					"name": "",
					"type": "bool"
				}
			],
			"stateMutability": "view",
			"type": "function"
		},
		{
			"inputs": [
				{
					"internalType": "address",
					"name": "_account",
					"type": "address"
				}
			],
			"name": "removeAdmin",
			"outputs": [],
			"stateMutability": "nonpayable",
			"type": "function"
		},
		{
			"inputs": [
				{
					"internalType": "address",
					"name": "_lp",
					"type": "address"
				},
				{
					"internalType": "uint256",
					"name": "_callId",
					"type": "uint256"
				}
			],
			"name": "revertExecution",
			"outputs": [],
			"stateMutability": "nonpayable",
			"type": "function"
		},
		{
			"inputs": [
				{
					"internalType": "string",
					"name": "_name",
					"type": "string"
				},
				{
					"internalType": "address",
					"name": "_lp",
					"type": "address"
				},
				{
					"internalType": "uint256",
					"name": "_amountETH",
					"type": "uint256"
				},
				{
					"internalType": "uint256",
					"name": "_endTime",
					"type": "uint256"
				}
			],
			"name": "setCommitment",
			"outputs": [],
			"stateMutability": "nonpayable",
			"type": "function"
		},
		{
			"inputs": [
				{
					"internalType": "address",
					"name": "_newDefaultAdmin",
					"type": "address"
				}
			],
			"name": "setDefaultAdmin",
			"outputs": [],
			"stateMutability": "nonpayable",
			"type": "function"
		},
		{
			"inputs": [
				{
					"internalType": "uint256",
					"name": "_minCommitmentAmountUSD",
					"type": "uint256"
				}
			],
			"name": "setMinCommitmentAmountUSD",
			"outputs": [],
			"stateMutability": "nonpayable",
			"type": "function"
		},
		{
			"inputs": [],
			"name": "unpause",
			"outputs": [],
			"stateMutability": "nonpayable",
			"type": "function"
		},
		{
			"inputs": [
				{
					"internalType": "uint256",
					"name": "_amount",
					"type": "uint256"
				},
				{
					"internalType": "address",
					"name": "_to",
					"type": "address"
				}
			],
			"name": "withdraw",
			"outputs": [],
			"stateMutability": "nonpayable",
			"type": "function"
		},
		{
			"stateMutability": "payable",
			"type": "receive"
		}
	],
	"storageLayout": {
		"storage": [
			{
				"astId": 63,
				"contract": "LPManagement.sol:LPManagement",
				"label": "_paused",
				"offset": 0,
				"slot": "0",
				"type": "t_bool"
			},
			{
				"astId": 164,
				"contract": "LPManagement.sol:LPManagement",
				"label": "_status",
				"offset": 0,
				"slot": "1",
				"type": "t_uint256"
			},
			{
				"astId": 260,
				"contract": "LPManagement.sol:LPManagement",
				"label": "admins",
				"offset": 0,
				"slot": "2",
				"type": "t_array(t_address)dyn_storage"
			},
			{
				"astId": 264,
				"contract": "LPManagement.sol:LPManagement",
				"label": "isAdmin",
				"offset": 0,
				"slot": "3",
				"type": "t_mapping(t_address,t_bool)"
			},
			{
				"astId": 266,
				"contract": "LPManagement.sol:LPManagement",
				"label": "defaultAdmin",
				"offset": 0,
				"slot": "4",
				"type": "t_address"
			},
			{
				"astId": 269,
				"contract": "LPManagement.sol:LPManagement",
				"label": "ethUsdPriceFeed",
				"offset": 0,
				"slot": "5",
				"type": "t_contract(AggregatorV3Interface)45"
			},
			{
				"astId": 285,
				"contract": "LPManagement.sol:LPManagement",
				"label": "minCommitmentAmountUSD",
				"offset": 0,
				"slot": "6",
				"type": "t_uint256"
			},
			{
				"astId": 299,
				"contract": "LPManagement.sol:LPManagement",
				"label": "lpData",
				"offset": 0,
				"slot": "7",
				"type": "t_mapping(t_address,t_struct(LPData)278_storage)"
			},
			{
				"astId": 305,
				"contract": "LPManagement.sol:LPManagement",
				"label": "cashCalls",
				"offset": 0,
				"slot": "8",
				"type": "t_mapping(t_address,t_array(t_struct(CashCall)294_storage)dyn_storage)"
			}
		],
		"types": {
			"t_address": {
				"encoding": "inplace",
				"label": "address",
				"numberOfBytes": "20"
			},
			"t_array(t_address)dyn_storage": {
				"base": "t_address",
				"encoding": "dynamic_array",
				"label": "address[]",
				"numberOfBytes": "32"
			},
			"t_array(t_struct(CashCall)294_storage)dyn_storage": {
				"base": "t_struct(CashCall)294_storage",
				"encoding": "dynamic_array",
				"label": "struct LPManagement.CashCall[]",
				"numberOfBytes": "32"
			},
			"t_bool": {
				"encoding": "inplace",
				"label": "bool",
				"numberOfBytes": "1"
			},
			"t_contract(AggregatorV3Interface)45": {
				"encoding": "inplace",
				"label": "contract AggregatorV3Interface",
				"numberOfBytes": "20"
			},
			"t_mapping(t_address,t_array(t_struct(CashCall)294_storage)dyn_storage)": {
				"encoding": "mapping",
				"key": "t_address",
				"label": "mapping(address => struct LPManagement.CashCall[])",
				"numberOfBytes": "32",
				"value": "t_array(t_struct(CashCall)294_storage)dyn_storage"
			},
			"t_mapping(t_address,t_bool)": {
				"encoding": "mapping",
				"key": "t_address",
				"label": "mapping(address => bool)",
				"numberOfBytes": "32",
				"value": "t_bool"
			},
			"t_mapping(t_address,t_struct(LPData)278_storage)": {
				"encoding": "mapping",
				"key": "t_address",
				"label": "mapping(address => struct LPManagement.LPData)",
				"numberOfBytes": "32",
				"value": "t_struct(LPData)278_storage"
			},
			"t_string_storage": {
				"encoding": "bytes",
				"label": "string",
				"numberOfBytes": "32"
			},
			"t_struct(CashCall)294_storage": {
				"encoding": "inplace",
				"label": "struct LPManagement.CashCall",
				"members": [
					{
						"astId": 287,
						"contract": "LPManagement.sol:LPManagement",
						"label": "amount",
						"offset": 0,
						"slot": "0",
						"type": "t_uint256"
					},
					{
						"astId": 289,
						"contract": "LPManagement.sol:LPManagement",
						"label": "paidAmount",
						"offset": 0,
						"slot": "1",
						"type": "t_uint256"
					},
					{
						"astId": 291,
						"contract": "LPManagement.sol:LPManagement",
						"label": "deadline",
						"offset": 0,
						"slot": "2",
						"type": "t_uint256"
					},
					{
						"astId": 293,
						"contract": "LPManagement.sol:LPManagement",
						"label": "executed",
						"offset": 0,
						"slot": "3",
						"type": "t_bool"
					}
				],
				"numberOfBytes": "128"
			},
			"t_struct(LPData)278_storage": {
				"encoding": "inplace",
				"label": "struct LPManagement.LPData",
				"members": [
					{
						"astId": 271,
						"contract": "LPManagement.sol:LPManagement",
						"label": "name",
						"offset": 0,
						"slot": "0",
						"type": "t_string_storage"
					},
					{
						"astId": 273,
						"contract": "LPManagement.sol:LPManagement",
						"label": "commitmentAmount",
						"offset": 0,
						"slot": "1",
						"type": "t_uint256"
					},
					{
						"astId": 275,
						"contract": "LPManagement.sol:LPManagement",
						"label": "totalPaid",
						"offset": 0,
						"slot": "2",
						"type": "t_uint256"
					},
					{
						"astId": 277,
						"contract": "LPManagement.sol:LPManagement",
						"label": "endTime",
						"offset": 0,
						"slot": "3",
						"type": "t_uint256"
					}
				],
				"numberOfBytes": "128"
			},
			"t_uint256": {
				"encoding": "inplace",
				"label": "uint256",
				"numberOfBytes": "32"
			}
		}
	},
	"web3Deploy": "var _aggregatorAddress = /* var of type address here */ ;\nvar _defaultAdmin = /* var of type address here */ ;\nvar lpmanagementContract = new web3.eth.Contract([{\"inputs\":[{\"internalType\":\"address\",\"name\":\"_aggregatorAddress\",\"type\":\"address\"},{\"internalType\":\"address\",\"name\":\"_defaultAdmin\",\"type\":\"address\"}],\"stateMutability\":\"nonpayable\",\"type\":\"constructor\"},{\"anonymous\":false,\"inputs\":[{\"indexed\":true,\"internalType\":\"address\",\"name\":\"lp\",\"type\":\"address\"}],\"name\":\"AccessRevoked\",\"type\":\"event\"},{\"anonymous\":false,\"inputs\":[{\"indexed\":true,\"internalType\":\"address\",\"name\":\"account\",\"type\":\"address\"}],\"name\":\"AdminAdded\",\"type\":\"event\"},{\"anonymous\":false,\"inputs\":[{\"indexed\":true,\"internalType\":\"address\",\"name\":\"account\",\"type\":\"address\"}],\"name\":\"AdminRemoved\",\"type\":\"event\"},{\"anonymous\":false,\"inputs\":[{\"indexed\":false,\"internalType\":\"uint256\",\"name\":\"callId\",\"type\":\"uint256\"},{\"indexed\":false,\"internalType\":\"uint256\",\"name\":\"amount\",\"type\":\"uint256\"},{\"indexed\":false,\"internalType\":\"uint256\",\"name\":\"deadline\",\"type\":\"uint256\"}],\"name\":\"CashCallCreated\",\"type\":\"event\"},{\"anonymous\":false,\"inputs\":[{\"indexed\":true,\"internalType\":\"address\",\"name\":\"lp\",\"type\":\"address\"},{\"indexed\":false,\"internalType\":\"uint256\",\"name\":\"callId\",\"type\":\"uint256\"}],\"name\":\"CashCallExecuted\",\"type\":\"event\"},{\"anonymous\":false,\"inputs\":[{\"indexed\":true,\"internalType\":\"address\",\"name\":\"lp\",\"type\":\"address\"},{\"indexed\":false,\"internalType\":\"uint256\",\"name\":\"callId\",\"type\":\"uint256\"}],\"name\":\"CashCallExecutionReverted\",\"type\":\"event\"},{\"anonymous\":false,\"inputs\":[{\"indexed\":true,\"internalType\":\"address\",\"name\":\"lp\",\"type\":\"address\"},{\"indexed\":false,\"internalType\":\"uint256\",\"name\":\"amountETH\",\"type\":\"uint256\"},{\"indexed\":false,\"internalType\":\"uint256\",\"name\":\"endTime\",\"type\":\"uint256\"}],\"name\":\"CommitmentSet\",\"type\":\"event\"},{\"anonymous\":false,\"inputs\":[{\"indexed\":true,\"internalType\":\"address\",\"name\":\"oldAdmin\",\"type\":\"address\"},{\"indexed\":true,\"internalType\":\"address\",\"name\":\"newAdmin\",\"type\":\"address\"}],\"name\":\"DefaultAdminChanged\",\"type\":\"event\"},{\"anonymous\":false,\"inputs\":[{\"indexed\":false,\"internalType\":\"address\",\"name\":\"account\",\"type\":\"address\"}],\"name\":\"Paused\",\"type\":\"event\"},{\"anonymous\":false,\"inputs\":[{\"indexed\":true,\"internalType\":\"address\",\"name\":\"lp\",\"type\":\"address\"},{\"indexed\":false,\"internalType\":\"string\",\"name\":\"name\",\"type\":\"string\"},{\"indexed\":false,\"internalType\":\"uint256\",\"name\":\"amount\",\"type\":\"uint256\"},{\"indexed\":false,\"internalType\":\"uint256\",\"name\":\"callId\",\"type\":\"uint256\"}],\"name\":\"PaymentMade\",\"type\":\"event\"},{\"anonymous\":false,\"inputs\":[{\"indexed\":true,\"internalType\":\"address\",\"name\":\"lp\",\"type\":\"address\"},{\"indexed\":false,\"internalType\":\"uint256\",\"name\":\"penaltyAmount\",\"type\":\"uint256\"}],\"name\":\"PenaltyApplied\",\"type\":\"event\"},{\"anonymous\":false,\"inputs\":[{\"indexed\":false,\"internalType\":\"address\",\"name\":\"account\",\"type\":\"address\"}],\"name\":\"Unpaused\",\"type\":\"event\"},{\"anonymous\":false,\"inputs\":[{\"indexed\":true,\"internalType\":\"address\",\"name\":\"to\",\"type\":\"address\"},{\"indexed\":false,\"internalType\":\"uint256\",\"name\":\"amount\",\"type\":\"uint256\"}],\"name\":\"Withdrawal\",\"type\":\"event\"},{\"inputs\":[{\"internalType\":\"address\",\"name\":\"_account\",\"type\":\"address\"}],\"name\":\"addAdmin\",\"outputs\":[],\"stateMutability\":\"nonpayable\",\"type\":\"function\"},{\"inputs\":[{\"internalType\":\"uint256\",\"name\":\"\",\"type\":\"uint256\"}],\"name\":\"admins\",\"outputs\":[{\"internalType\":\"address\",\"name\":\"\",\"type\":\"address\"}],\"stateMutability\":\"view\",\"type\":\"function\"},{\"inputs\":[{\"internalType\":\"address\",\"name\":\"_lp\",\"type\":\"address\"},{\"internalType\":\"uint256\",\"name\":\"_penaltyAmount\",\"type\":\"uint256\"},{\"internalType\":\"bool\",\"name\":\"_revokeAccess\",\"type\":\"bool\"}],\"name\":\"applyPenalty\",\"outputs\":[],\"stateMutability\":\"nonpayable\",\"type\":\"function\"},{\"inputs\":[{\"internalType\":\"address\",\"name\":\"\",\"type\":\"address\"},{\"internalType\":\"uint256\",\"name\":\"\",\"type\":\"uint256\"}],\"name\":\"cashCalls\",\"outputs\":[{\"internalType\":\"uint256\",\"name\":\"amount\",\"type\":\"uint256\"},{\"internalType\":\"uint256\",\"name\":\"paidAmount\",\"type\":\"uint256\"},{\"internalType\":\"uint256\",\"name\":\"deadline\",\"type\":\"uint256\"},{\"internalType\":\"bool\",\"name\":\"executed\",\"type\":\"bool\"}],\"stateMutability\":\"view\",\"type\":\"function\"},{\"inputs\":[{\"internalType\":\"address\",\"name\":\"_lp\",\"type\":\"address\"},{\"internalType\":\"uint256\",\"name\":\"_amount\",\"type\":\"uint256\"},{\"internalType\":\"uint256\",\"name\":\"_deadline\",\"type\":\"uint256\"}],\"name\":\"createCashCall\",\"outputs\":[],\"stateMutability\":\"nonpayable\",\"type\":\"function\"},{\"inputs\":[],\"name\":\"defaultAdmin\",\"outputs\":[{\"internalType\":\"address\",\"name\":\"\",\"type\":\"address\"}],\"stateMutability\":\"view\",\"type\":\"function\"},{\"inputs\":[{\"internalType\":\"address\",\"name\":\"_lp\",\"type\":\"address\"},{\"internalType\":\"uint256\",\"name\":\"_callId\",\"type\":\"uint256\"}],\"name\":\"executeCashCall\",\"outputs\":[],\"stateMutability\":\"nonpayable\",\"type\":\"function\"},{\"inputs\":[],\"name\":\"getAdmins\",\"outputs\":[{\"internalType\":\"address[]\",\"name\":\"\",\"type\":\"address[]\"}],\"stateMutability\":\"view\",\"type\":\"function\"},{\"inputs\":[{\"internalType\":\"address\",\"name\":\"_lp\",\"type\":\"address\"}],\"name\":\"getCashCalls\",\"outputs\":[{\"components\":[{\"internalType\":\"uint256\",\"name\":\"amount\",\"type\":\"uint256\"},{\"internalType\":\"uint256\",\"name\":\"paidAmount\",\"type\":\"uint256\"},{\"internalType\":\"uint256\",\"name\":\"deadline\",\"type\":\"uint256\"},{\"internalType\":\"bool\",\"name\":\"executed\",\"type\":\"bool\"}],\"internalType\":\"struct LPManagement.CashCall[]\",\"name\":\"\",\"type\":\"tuple[]\"}],\"stateMutability\":\"view\",\"type\":\"function\"},{\"inputs\":[],\"name\":\"getETHUSDCExchangeRate\",\"outputs\":[{\"internalType\":\"uint256\",\"name\":\"\",\"type\":\"uint256\"}],\"stateMutability\":\"view\",\"type\":\"function\"},{\"inputs\":[{\"internalType\":\"address\",\"name\":\"\",\"type\":\"address\"}],\"name\":\"isAdmin\",\"outputs\":[{\"internalType\":\"bool\",\"name\":\"\",\"type\":\"bool\"}],\"stateMutability\":\"view\",\"type\":\"function\"},{\"inputs\":[{\"internalType\":\"address\",\"name\":\"\",\"type\":\"address\"}],\"name\":\"lpData\",\"outputs\":[{\"internalType\":\"string\",\"name\":\"name\",\"type\":\"string\"},{\"internalType\":\"uint256\",\"name\":\"commitmentAmount\",\"type\":\"uint256\"},{\"internalType\":\"uint256\",\"name\":\"totalPaid\",\"type\":\"uint256\"},{\"internalType\":\"uint256\",\"name\":\"endTime\",\"type\":\"uint256\"}],\"stateMutability\":\"view\",\"type\":\"function\"},{\"inputs\":[{\"internalType\":\"address\",\"name\":\"_lp\",\"type\":\"address\"},{\"internalType\":\"uint256\",\"name\":\"_callId\",\"type\":\"uint256\"}],\"name\":\"makePayment\",\"outputs\":[],\"stateMutability\":\"payable\",\"type\":\"function\"},{\"inputs\":[],\"name\":\"minCommitmentAmountUSD\",\"outputs\":[{\"internalType\":\"uint256\",\"name\":\"\",\"type\":\"uint256\"}],\"stateMutability\":\"view\",\"type\":\"function\"},{\"inputs\":[],\"name\":\"pause\",\"outputs\":[],\"stateMutability\":\"nonpayable\",\"type\":\"function\"},{\"inputs\":[],\"name\":\"paused\",\"outputs\":[{\"internalType\":\"bool\",\"name\":\"\",\"type\":\"bool\"}],\"stateMutability\":\"view\",\"type\":\"function\"},{\"inputs\":[{\"internalType\":\"address\",\"name\":\"_account\",\"type\":\"address\"}],\"name\":\"removeAdmin\",\"outputs\":[],\"stateMutability\":\"nonpayable\",\"type\":\"function\"},{\"inputs\":[{\"internalType\":\"address\",\"name\":\"_lp\",\"type\":\"address\"},{\"internalType\":\"uint256\",\"name\":\"_callId\",\"type\":\"uint256\"}],\"name\":\"revertExecution\",\"outputs\":[],\"stateMutability\":\"nonpayable\",\"type\":\"function\"},{\"inputs\":[{\"internalType\":\"string\",\"name\":\"_name\",\"type\":\"string\"},{\"internalType\":\"address\",\"name\":\"_lp\",\"type\":\"address\"},{\"internalType\":\"uint256\",\"name\":\"_amountETH\",\"type\":\"uint256\"},{\"internalType\":\"uint256\",\"name\":\"_endTime\",\"type\":\"uint256\"}],\"name\":\"setCommitment\",\"outputs\":[],\"stateMutability\":\"nonpayable\",\"type\":\"function\"},{\"inputs\":[{\"internalType\":\"address\",\"name\":\"_newDefaultAdmin\",\"type\":\"address\"}],\"name\":\"setDefaultAdmin\",\"outputs\":[],\"stateMutability\":\"nonpayable\",\"type\":\"function\"},{\"inputs\":[{\"internalType\":\"uint256\",\"name\":\"_minCommitmentAmountUSD\",\"type\":\"uint256\"}],\"name\":\"setMinCommitmentAmountUSD\",\"outputs\":[],\"stateMutability\":\"nonpayable\",\"type\":\"function\"},{\"inputs\":[],\"name\":\"unpause\",\"outputs\":[],\"stateMutability\":\"nonpayable\",\"type\":\"function\"},{\"inputs\":[{\"internalType\":\"uint256\",\"name\":\"_amount\",\"type\":\"uint256\"},{\"internalType\":\"address\",\"name\":\"_to\",\"type\":\"address\"}],\"name\":\"withdraw\",\"outputs\":[],\"stateMutability\":\"nonpayable\",\"type\":\"function\"},{\"stateMutability\":\"payable\",\"type\":\"receive\"}]);\nvar lpmanagement = lpmanagementContract.deploy({\n     data: '0x6080604052683635c9adc5dea0000060065534801561001c575f5ffd5b5060405161465e38038061465e833981810160405281019061003e91906104af565b5f5f5f6101000a81548160ff021916908315150217905550600180819055505f73ffffffffffffffffffffffffffffffffffffffff168273ffffffffffffffffffffffffffffffffffffffff16036100cb576040517f08c379a00000000000000000000000000000000000000000000000000000000081526004016100c290610547565b60405180910390fd5b5f73ffffffffffffffffffffffffffffffffffffffff168173ffffffffffffffffffffffffffffffffffffffff1603610139576040517f08c379a0000000000000000000000000000000000000000000000000000000008152600401610130906105af565b60405180910390fd5b8160055f6101000a81548173ffffffffffffffffffffffffffffffffffffffff021916908373ffffffffffffffffffffffffffffffffffffffff1602179055508060045f6101000a81548173ffffffffffffffffffffffffffffffffffffffff021916908373ffffffffffffffffffffffffffffffffffffffff1602179055506101c8816101cf60201b60201c565b505061072b565b60045f9054906101000a900473ffffffffffffffffffffffffffffffffffffffff1673ffffffffffffffffffffffffffffffffffffffff163373ffffffffffffffffffffffffffffffffffffffff161461025e576040517f08c379a00000000000000000000000000000000000000000000000000000000081526004016102559061063d565b60405180910390fd5b5f73ffffffffffffffffffffffffffffffffffffffff168173ffffffffffffffffffffffffffffffffffffffff16036102cc576040517f08c379a00000000000000000000000000000000000000000000000000000000081526004016102c3906106a5565b60405180910390fd5b60035f8273ffffffffffffffffffffffffffffffffffffffff1673ffffffffffffffffffffffffffffffffffffffff1681526020019081526020015f205f9054906101000a900460ff1615610356576040517f08c379a000000000000000000000000000000000000000000000000000000000815260040161034d9061070d565b60405180910390fd5b600281908060018154018082558091505060019003905f5260205f20015f9091909190916101000a81548173ffffffffffffffffffffffffffffffffffffffff021916908373ffffffffffffffffffffffffffffffffffffffff160217905550600160035f8373ffffffffffffffffffffffffffffffffffffffff1673ffffffffffffffffffffffffffffffffffffffff1681526020019081526020015f205f6101000a81548160ff0219169083151502179055508073ffffffffffffffffffffffffffffffffffffffff167f44d6d25963f097ad14f29f06854a01f575648a1ef82f30e562ccd3889717e33960405160405180910390a250565b5f5ffd5b5f73ffffffffffffffffffffffffffffffffffffffff82169050919050565b5f61047e82610455565b9050919050565b61048e81610474565b8114610498575f5ffd5b50565b5f815190506104a981610485565b92915050565b5f5f604083850312156104c5576104c4610451565b5b5f6104d28582860161049b565b92505060206104e38582860161049b565b9150509250929050565b5f82825260208201905092915050565b7f496e76616c69642061676772656761746f7220616464726573730000000000005f82015250565b5f610531601a836104ed565b915061053c826104fd565b602082019050919050565b5f6020820190508181035f83015261055e81610525565b9050919050565b7f496e76616c69642064656661756c742061646d696e20616464726573730000005f82015250565b5f610599601d836104ed565b91506105a482610565565b602082019050919050565b5f6020820190508181035f8301526105c68161058d565b9050919050565b7f4e6f7420617574686f72697a65643a204f6e6c792064656661756c742061646d5f8201527f696e2063616e20706572666f726d207468697320616374696f6e000000000000602082015250565b5f610627603a836104ed565b9150610632826105cd565b604082019050919050565b5f6020820190508181035f8301526106548161061b565b9050919050565b7f496e76616c6964206164647265737300000000000000000000000000000000005f82015250565b5f61068f600f836104ed565b915061069a8261065b565b602082019050919050565b5f6020820190508181035f8301526106bc81610683565b9050919050565b7f416c726561647920616e2061646d696e000000000000000000000000000000005f82015250565b5f6106f76010836104ed565b9150610702826106c3565b602082019050919050565b5f6020820190508181035f830152610724816106eb565b9050919050565b613f26806107385f395ff3fe608060405260043610610142575f3560e01c80635c975abb116100b5578063b661b9da1161006e578063b661b9da1461041d578063b9721b2e1461045c578063de73340714610484578063f92a5dcd146104c3578063f98cf07c146104eb578063fa6464341461050757610151565b80635c975abb1461032757806370480275146103515780638456cb591461037957806384ef8ffc1461038f57806387d4377c146103b95780638c28a23a146103e157610151565b806324d7806c1161010757806324d7806c146102315780632d51acb91461026d5780632ebf8bd61461029557806331ae450b146102bd5780633f4ba83a146102e757806343bc5cd3146102fd57610151565b8062f714ce1461015557806314bfd6d01461017d57806315a41150146101b9578063161b1349146101e15780631785f53c1461020957610151565b366101515761014f610531565b005b5f5ffd5b348015610160575f5ffd5b5061017b600480360381019061017691906125ba565b61057b565b005b348015610188575f5ffd5b506101a3600480360381019061019e91906125f8565b6106ed565b6040516101b09190612632565b60405180910390f35b3480156101c4575f5ffd5b506101df60048036038101906101da919061264b565b610728565b005b3480156101ec575f5ffd5b50610207600480360381019061020291906125f8565b6108f1565b005b348015610214575f5ffd5b5061022f600480360381019061022a919061264b565b6109c6565b005b34801561023c575f5ffd5b506102576004803603810190610252919061264b565b610d3d565b6040516102649190612690565b60405180910390f35b348015610278575f5ffd5b50610293600480360381019061028e91906127e5565b610d5a565b005b3480156102a0575f5ffd5b506102bb60048036038101906102b6919061288f565b611054565b005b3480156102c8575f5ffd5b506102d1611235565b6040516102de9190612996565b60405180910390f35b3480156102f2575f5ffd5b506102fb6112c0565b005b348015610308575f5ffd5b50610311611353565b60405161031e91906129c5565b60405180910390f35b348015610332575f5ffd5b5061033b611442565b6040516103489190612690565b60405180910390f35b34801561035c575f5ffd5b506103776004803603810190610372919061264b565b611456565b005b348015610384575f5ffd5b5061038d6116d8565b005b34801561039a575f5ffd5b506103a361176b565b6040516103b09190612632565b60405180910390f35b3480156103c4575f5ffd5b506103df60048036038101906103da91906129de565b611790565b005b3480156103ec575f5ffd5b506104076004803603810190610402919061264b565b611b07565b6040516104149190612b47565b60405180910390f35b348015610428575f5ffd5b50610443600480360381019061043e919061264b565b611bd7565b6040516104539493929190612bc7565b60405180910390f35b348015610467575f5ffd5b50610482600480360381019061047d9190612c11565b611c89565b005b34801561048f575f5ffd5b506104aa60048036038101906104a59190612c11565b611ec3565b6040516104ba9493929190612c4f565b60405180910390f35b3480156104ce575f5ffd5b506104e960048036038101906104e49190612c11565b611f15565b005b61050560048036038101906105009190612c11565b612109565b005b348015610512575f5ffd5b5061051b612362565b60405161052891906129c5565b60405180910390f35b610539611442565b15610579576040517f08c379a000000000000000000000000000000000000000000000000000000000815260040161057090612cdc565b60405180910390fd5b565b60035f3373ffffffffffffffffffffffffffffffffffffffff1673ffffffffffffffffffffffffffffffffffffffff1681526020019081526020015f205f9054906101000a900460ff16610604576040517f08c379a00000000000000000000000000000000000000000000000000000000081526004016105fb90612d6a565b60405180910390fd5b61060c612368565b4782111561064f576040517f08c379a000000000000000000000000000000000000000000000000000000000815260040161064690612dd2565b60405180910390fd5b8073ffffffffffffffffffffffffffffffffffffffff166108fc8390811502906040515f60405180830381858888f19350505050158015610692573d5f5f3e3d5ffd5b508073ffffffffffffffffffffffffffffffffffffffff167f7fcf532c15f0a6db0bd6d0e038bea71d30d808c7d98cb3bf7268a95bf5081b65836040516106d991906129c5565b60405180910390a26106e96123b7565b5050565b600281815481106106fc575f80fd5b905f5260205f20015f915054906101000a900473ffffffffffffffffffffffffffffffffffffffff1681565b60045f9054906101000a900473ffffffffffffffffffffffffffffffffffffffff1673ffffffffffffffffffffffffffffffffffffffff163373ffffffffffffffffffffffffffffffffffffffff16146107b7576040517f08c379a00000000000000000000000000000000000000000000000000000000081526004016107ae90612e60565b60405180910390fd5b5f73ffffffffffffffffffffffffffffffffffffffff168173ffffffffffffffffffffffffffffffffffffffff1603610825576040517f08c379a000000000000000000000000000000000000000000000000000000000815260040161081c90612eee565b60405180910390fd5b5f60045f9054906101000a900473ffffffffffffffffffffffffffffffffffffffff16905061085382611456565b8160045f6101000a81548173ffffffffffffffffffffffffffffffffffffffff021916908373ffffffffffffffffffffffffffffffffffffffff1602179055508173ffffffffffffffffffffffffffffffffffffffff168173ffffffffffffffffffffffffffffffffffffffff167fee6c1cbbf9f44e83120156684c7401e64d663798734f8a50da171743fa7e349b60405160405180910390a35050565b60035f3373ffffffffffffffffffffffffffffffffffffffff1673ffffffffffffffffffffffffffffffffffffffff1681526020019081526020015f205f9054906101000a900460ff1661097a576040517f08c379a000000000000000000000000000000000000000000000000000000000815260040161097190612d6a565b60405180910390fd5b5f81116109bc576040517f08c379a00000000000000000000000000000000000000000000000000000000081526004016109b390612f7c565b60405180910390fd5b8060068190555050565b60045f9054906101000a900473ffffffffffffffffffffffffffffffffffffffff1673ffffffffffffffffffffffffffffffffffffffff163373ffffffffffffffffffffffffffffffffffffffff1614610a55576040517f08c379a0000000000000000000000000000000000000000000000000000000008152600401610a4c90612e60565b60405180910390fd5b60035f8273ffffffffffffffffffffffffffffffffffffffff1673ffffffffffffffffffffffffffffffffffffffff1681526020019081526020015f205f9054906101000a900460ff16610ade576040517f08c379a0000000000000000000000000000000000000000000000000000000008152600401610ad590612fe4565b60405180910390fd5b600160028054905011610b26576040517f08c379a0000000000000000000000000000000000000000000000000000000008152600401610b1d9061304c565b60405180910390fd5b5f60035f8373ffffffffffffffffffffffffffffffffffffffff1673ffffffffffffffffffffffffffffffffffffffff1681526020019081526020015f205f6101000a81548160ff0219169083151502179055505f5f90505b600280549050811015610cf6578173ffffffffffffffffffffffffffffffffffffffff1660028281548110610bb757610bb661306a565b5b905f5260205f20015f9054906101000a900473ffffffffffffffffffffffffffffffffffffffff1673ffffffffffffffffffffffffffffffffffffffff1603610ce95760026001600280549050610c0e91906130c4565b81548110610c1f57610c1e61306a565b5b905f5260205f20015f9054906101000a900473ffffffffffffffffffffffffffffffffffffffff1660028281548110610c5b57610c5a61306a565b5b905f5260205f20015f6101000a81548173ffffffffffffffffffffffffffffffffffffffff021916908373ffffffffffffffffffffffffffffffffffffffff1602179055506002805480610cb257610cb16130f7565b5b600190038181905f5260205f20015f6101000a81549073ffffffffffffffffffffffffffffffffffffffff02191690559055610cf6565b8080600101915050610b7f565b508073ffffffffffffffffffffffffffffffffffffffff167fa3b62bc36326052d97ea62d63c3d60308ed4c3ea8ac079dd8499f1e9c4f80c0f60405160405180910390a250565b6003602052805f5260405f205f915054906101000a900460ff1681565b610d62610531565b60035f3373ffffffffffffffffffffffffffffffffffffffff1673ffffffffffffffffffffffffffffffffffffffff1681526020019081526020015f205f9054906101000a900460ff16610deb576040517f08c379a0000000000000000000000000000000000000000000000000000000008152600401610de290612d6a565b60405180910390fd5b5f73ffffffffffffffffffffffffffffffffffffffff168373ffffffffffffffffffffffffffffffffffffffff1603610e59576040517f08c379a0000000000000000000000000000000000000000000000000000000008152600401610e509061316e565b60405180910390fd5b610e62836123c0565b15610ea2576040517f08c379a0000000000000000000000000000000000000000000000000000000008152600401610e99906131d6565b60405180910390fd5b5f845111610ee5576040517f08c379a0000000000000000000000000000000000000000000000000000000008152600401610edc9061323e565b60405180910390fd5b670de0b6b3a7640000600654610efb919061325c565b610f03611353565b83610f0e919061325c565b1015610f4f576040517f08c379a0000000000000000000000000000000000000000000000000000000008152600401610f469061330d565b60405180910390fd5b428111610f91576040517f08c379a0000000000000000000000000000000000000000000000000000000008152600401610f889061339b565b60405180910390fd5b5f60075f8573ffffffffffffffffffffffffffffffffffffffff1673ffffffffffffffffffffffffffffffffffffffff1681526020019081526020015f20905084815f019081610fe191906135b6565b508281600101819055505f81600201819055508181600301819055508373ffffffffffffffffffffffffffffffffffffffff167f2b88c9786b136e841912bb0dd74da2edd0a414d70a8771b7941093af50ae3b5e8484604051611045929190613685565b60405180910390a25050505050565b61105c610531565b60035f3373ffffffffffffffffffffffffffffffffffffffff1673ffffffffffffffffffffffffffffffffffffffff1681526020019081526020015f205f9054906101000a900460ff166110e5576040517f08c379a00000000000000000000000000000000000000000000000000000000081526004016110dc90612d6a565b60405180910390fd5b5f60075f8573ffffffffffffffffffffffffffffffffffffffff1673ffffffffffffffffffffffffffffffffffffffff1681526020019081526020015f2090505f81600101541161116b576040517f08c379a0000000000000000000000000000000000000000000000000000000008152600401611162906136f6565b60405180910390fd5b82816002015f82825461117e91906130c4565b925050819055508373ffffffffffffffffffffffffffffffffffffffff167f4b28c7dc138644f27518388387393ecbd08ef8d180a4a6799c954be166a37ab3846040516111cb91906129c5565b60405180910390a2811561122f575f81600101819055505f81600201819055508373ffffffffffffffffffffffffffffffffffffffff167f1b9b72fde9da721e70e6aca3b0cf4cbe73e82765ef1f280157740376531bfdd860405160405180910390a25b50505050565b606060028054806020026020016040519081016040528092919081815260200182805480156112b657602002820191905f5260205f20905b815f9054906101000a900473ffffffffffffffffffffffffffffffffffffffff1673ffffffffffffffffffffffffffffffffffffffff168152602001906001019080831161126d575b5050505050905090565b60035f3373ffffffffffffffffffffffffffffffffffffffff1673ffffffffffffffffffffffffffffffffffffffff1681526020019081526020015f205f9054906101000a900460ff16611349576040517f08c379a000000000000000000000000000000000000000000000000000000000815260040161134090612d6a565b60405180910390fd5b61135161240b565b565b5f5f60055f9054906101000a900473ffffffffffffffffffffffffffffffffffffffff1673ffffffffffffffffffffffffffffffffffffffff1663feaf968c6040518163ffffffff1660e01b815260040160a060405180830381865afa1580156113bf573d5f5f3e3d5ffd5b505050506040513d601f19601f820116820180604052508101906113e3919061379a565b5050509150505f811361142b576040517f08c379a00000000000000000000000000000000000000000000000000000000081526004016114229061385b565b60405180910390fd5b6402540be4008161143c919061325c565b91505090565b5f5f5f9054906101000a900460ff16905090565b60045f9054906101000a900473ffffffffffffffffffffffffffffffffffffffff1673ffffffffffffffffffffffffffffffffffffffff163373ffffffffffffffffffffffffffffffffffffffff16146114e5576040517f08c379a00000000000000000000000000000000000000000000000000000000081526004016114dc90612e60565b60405180910390fd5b5f73ffffffffffffffffffffffffffffffffffffffff168173ffffffffffffffffffffffffffffffffffffffff1603611553576040517f08c379a000000000000000000000000000000000000000000000000000000000815260040161154a906138c3565b60405180910390fd5b60035f8273ffffffffffffffffffffffffffffffffffffffff1673ffffffffffffffffffffffffffffffffffffffff1681526020019081526020015f205f9054906101000a900460ff16156115dd576040517f08c379a00000000000000000000000000000000000000000000000000000000081526004016115d49061392b565b60405180910390fd5b600281908060018154018082558091505060019003905f5260205f20015f9091909190916101000a81548173ffffffffffffffffffffffffffffffffffffffff021916908373ffffffffffffffffffffffffffffffffffffffff160217905550600160035f8373ffffffffffffffffffffffffffffffffffffffff1673ffffffffffffffffffffffffffffffffffffffff1681526020019081526020015f205f6101000a81548160ff0219169083151502179055508073ffffffffffffffffffffffffffffffffffffffff167f44d6d25963f097ad14f29f06854a01f575648a1ef82f30e562ccd3889717e33960405160405180910390a250565b60035f3373ffffffffffffffffffffffffffffffffffffffff1673ffffffffffffffffffffffffffffffffffffffff1681526020019081526020015f205f9054906101000a900460ff16611761576040517f08c379a000000000000000000000000000000000000000000000000000000000815260040161175890612d6a565b60405180910390fd5b61176961246b565b565b60045f9054906101000a900473ffffffffffffffffffffffffffffffffffffffff1681565b611798610531565b60035f3373ffffffffffffffffffffffffffffffffffffffff1673ffffffffffffffffffffffffffffffffffffffff1681526020019081526020015f205f9054906101000a900460ff16611821576040517f08c379a000000000000000000000000000000000000000000000000000000000815260040161181890612d6a565b60405180910390fd5b61182a836123c0565b611869576040517f08c379a000000000000000000000000000000000000000000000000000000000815260040161186090613993565b60405180910390fd5b5f82116118ab576040517f08c379a00000000000000000000000000000000000000000000000000000000081526004016118a290613a21565b60405180910390fd5b42811180156118fa575060075f8473ffffffffffffffffffffffffffffffffffffffff1673ffffffffffffffffffffffffffffffffffffffff1681526020019081526020015f20600301548111155b611939576040517f08c379a000000000000000000000000000000000000000000000000000000000815260040161193090613aaf565b60405180910390fd5b5f60085f8573ffffffffffffffffffffffffffffffffffffffff1673ffffffffffffffffffffffffffffffffffffffff1681526020019081526020015f2090505f818054905011156119ff575f816001838054905061199891906130c4565b815481106119a9576119a861306a565b5b905f5260205f2090600402016002015490508083116119fd576040517f08c379a00000000000000000000000000000000000000000000000000000000081526004016119f490613b3d565b60405180910390fd5b505b60085f8573ffffffffffffffffffffffffffffffffffffffff1673ffffffffffffffffffffffffffffffffffffffff1681526020019081526020015f2060405180608001604052808581526020015f81526020018481526020015f1515815250908060018154018082558091505060019003905f5260205f2090600402015f909190919091505f820151815f015560208201518160010155604082015181600201556060820151816003015f6101000a81548160ff02191690831515021790555050507f91df0a6856d12caa53a1827a8383398220295d5770e0711c14484db4304016ab81805490508484604051611af993929190613b5b565b60405180910390a150505050565b606060085f8373ffffffffffffffffffffffffffffffffffffffff1673ffffffffffffffffffffffffffffffffffffffff1681526020019081526020015f20805480602002602001604051908101604052809291908181526020015f905b82821015611bcc578382905f5260205f2090600402016040518060800160405290815f82015481526020016001820154815260200160028201548152602001600382015f9054906101000a900460ff16151515158152505081526020019060010190611b65565b505050509050919050565b6007602052805f5260405f205f91509050805f018054611bf6906133e6565b80601f0160208091040260200160405190810160405280929190818152602001828054611c22906133e6565b8015611c6d5780601f10611c4457610100808354040283529160200191611c6d565b820191905f5260205f20905b815481529060010190602001808311611c5057829003601f168201915b5050505050908060010154908060020154908060030154905084565b611c91610531565b60035f3373ffffffffffffffffffffffffffffffffffffffff1673ffffffffffffffffffffffffffffffffffffffff1681526020019081526020015f205f9054906101000a900460ff16611d1a576040517f08c379a0000000000000000000000000000000000000000000000000000000008152600401611d1190612d6a565b60405180910390fd5b611d23826123c0565b611d62576040517f08c379a0000000000000000000000000000000000000000000000000000000008152600401611d5990613993565b60405180910390fd5b5f60085f8473ffffffffffffffffffffffffffffffffffffffff1673ffffffffffffffffffffffffffffffffffffffff1681526020019081526020015f208281548110611db257611db161306a565b5b905f5260205f20906004020190505f815f015411611e05576040517f08c379a0000000000000000000000000000000000000000000000000000000008152600401611dfc90613bda565b60405180910390fd5b806003015f9054906101000a900460ff16611e55576040517f08c379a0000000000000000000000000000000000000000000000000000000008152600401611e4c90613c42565b60405180910390fd5b5f816003015f6101000a81548160ff0219169083151502179055508273ffffffffffffffffffffffffffffffffffffffff167f7d43402007feb68e4f4d08e94a946083b4e8fdddbb8e6e7d95cc029d61cc2be083604051611eb691906129c5565b60405180910390a2505050565b6008602052815f5260405f208181548110611edc575f80fd5b905f5260205f2090600402015f9150915050805f015490806001015490806002015490806003015f9054906101000a900460ff16905084565b611f1d610531565b60035f3373ffffffffffffffffffffffffffffffffffffffff1673ffffffffffffffffffffffffffffffffffffffff1681526020019081526020015f205f9054906101000a900460ff16611fa6576040517f08c379a0000000000000000000000000000000000000000000000000000000008152600401611f9d90612d6a565b60405180910390fd5b5f60085f8473ffffffffffffffffffffffffffffffffffffffff1673ffffffffffffffffffffffffffffffffffffffff1681526020019081526020015f208281548110611ff657611ff561306a565b5b905f5260205f20906004020190505f815f015411612049576040517f08c379a000000000000000000000000000000000000000000000000000000000815260040161204090613bda565b60405180910390fd5b806003015f9054906101000a900460ff161561209a576040517f08c379a000000000000000000000000000000000000000000000000000000000815260040161209190613caa565b60405180910390fd5b6001816003015f6101000a81548160ff0219169083151502179055508273ffffffffffffffffffffffffffffffffffffffff167fb257d3ad0aca91c2880cba095b7732563e1ab189d9fc61b8f393e82d9b47fc24836040516120fc91906129c5565b60405180910390a2505050565b612111610531565b612119612368565b612122826123c0565b612161576040517f08c379a000000000000000000000000000000000000000000000000000000000815260040161215890613d12565b60405180910390fd5b5f60085f8473ffffffffffffffffffffffffffffffffffffffff1673ffffffffffffffffffffffffffffffffffffffff1681526020019081526020015f2082815481106121b1576121b061306a565b5b905f5260205f20906004020190505f815f015411612204576040517f08c379a00000000000000000000000000000000000000000000000000000000081526004016121fb90613bda565b60405180910390fd5b806003015f9054906101000a900460ff1615612255576040517f08c379a000000000000000000000000000000000000000000000000000000000815260040161224c90613caa565b60405180910390fd5b34816001015f8282546122689190613d30565b925050819055503460075f3373ffffffffffffffffffffffffffffffffffffffff1673ffffffffffffffffffffffffffffffffffffffff1681526020019081526020015f206002015f8282546122be9190613d30565b925050819055508273ffffffffffffffffffffffffffffffffffffffff167f14954c6ff5a56809714735fb131bd55e42938c7e5bc1a1715593b0ba52000ccf60075f3373ffffffffffffffffffffffffffffffffffffffff1673ffffffffffffffffffffffffffffffffffffffff1681526020019081526020015f205f01348560405161234d93929190613de4565b60405180910390a25061235e6123b7565b5050565b60065481565b6002600154036123ad576040517f08c379a00000000000000000000000000000000000000000000000000000000081526004016123a490613e6a565b60405180910390fd5b6002600181905550565b60018081905550565b5f5f60075f8473ffffffffffffffffffffffffffffffffffffffff1673ffffffffffffffffffffffffffffffffffffffff1681526020019081526020015f2060010154119050919050565b6124136124cc565b5f5f5f6101000a81548160ff0219169083151502179055507f5db9ee0a495bf2e6ff9c91a7834c1ba4fdd244a5e8aa4e537bd38aeae4b073aa612454612515565b6040516124619190612632565b60405180910390a1565b612473610531565b60015f5f6101000a81548160ff0219169083151502179055507f62e78cea01bee320cd4e420270b5ea74000d11b0c9f74754ebdbfc544b05a2586124b5612515565b6040516124c29190612632565b60405180910390a1565b6124d4611442565b612513576040517f08c379a000000000000000000000000000000000000000000000000000000000815260040161250a90613ed2565b60405180910390fd5b565b5f33905090565b5f604051905090565b5f5ffd5b5f5ffd5b5f819050919050565b61253f8161252d565b8114612549575f5ffd5b50565b5f8135905061255a81612536565b92915050565b5f73ffffffffffffffffffffffffffffffffffffffff82169050919050565b5f61258982612560565b9050919050565b6125998161257f565b81146125a3575f5ffd5b50565b5f813590506125b481612590565b92915050565b5f5f604083850312156125d0576125cf612525565b5b5f6125dd8582860161254c565b92505060206125ee858286016125a6565b9150509250929050565b5f6020828403121561260d5761260c612525565b5b5f61261a8482850161254c565b91505092915050565b61262c8161257f565b82525050565b5f6020820190506126455f830184612623565b92915050565b5f602082840312156126605761265f612525565b5b5f61266d848285016125a6565b91505092915050565b5f8115159050919050565b61268a81612676565b82525050565b5f6020820190506126a35f830184612681565b92915050565b5f5ffd5b5f5ffd5b5f601f19601f8301169050919050565b7f4e487b71000000000000000000000000000000000000000000000000000000005f52604160045260245ffd5b6126f7826126b1565b810181811067ffffffffffffffff82111715612716576127156126c1565b5b80604052505050565b5f61272861251c565b905061273482826126ee565b919050565b5f67ffffffffffffffff821115612753576127526126c1565b5b61275c826126b1565b9050602081019050919050565b828183375f83830152505050565b5f61278961278484612739565b61271f565b9050828152602081018484840111156127a5576127a46126ad565b5b6127b0848285612769565b509392505050565b5f82601f8301126127cc576127cb6126a9565b5b81356127dc848260208601612777565b91505092915050565b5f5f5f5f608085870312156127fd576127fc612525565b5b5f85013567ffffffffffffffff81111561281a57612819612529565b5b612826878288016127b8565b9450506020612837878288016125a6565b93505060406128488782880161254c565b92505060606128598782880161254c565b91505092959194509250565b61286e81612676565b8114612878575f5ffd5b50565b5f8135905061288981612865565b92915050565b5f5f5f606084860312156128a6576128a5612525565b5b5f6128b3868287016125a6565b93505060206128c48682870161254c565b92505060406128d58682870161287b565b9150509250925092565b5f81519050919050565b5f82825260208201905092915050565b5f819050602082019050919050565b6129118161257f565b82525050565b5f6129228383612908565b60208301905092915050565b5f602082019050919050565b5f612944826128df565b61294e81856128e9565b9350612959836128f9565b805f5b838110156129895781516129708882612917565b975061297b8361292e565b92505060018101905061295c565b5085935050505092915050565b5f6020820190508181035f8301526129ae818461293a565b905092915050565b6129bf8161252d565b82525050565b5f6020820190506129d85f8301846129b6565b92915050565b5f5f5f606084860312156129f5576129f4612525565b5b5f612a02868287016125a6565b9350506020612a138682870161254c565b9250506040612a248682870161254c565b9150509250925092565b5f81519050919050565b5f82825260208201905092915050565b5f819050602082019050919050565b612a608161252d565b82525050565b612a6f81612676565b82525050565b608082015f820151612a895f850182612a57565b506020820151612a9c6020850182612a57565b506040820151612aaf6040850182612a57565b506060820151612ac26060850182612a66565b50505050565b5f612ad38383612a75565b60808301905092915050565b5f602082019050919050565b5f612af582612a2e565b612aff8185612a38565b9350612b0a83612a48565b805f5b83811015612b3a578151612b218882612ac8565b9750612b2c83612adf565b925050600181019050612b0d565b5085935050505092915050565b5f6020820190508181035f830152612b5f8184612aeb565b905092915050565b5f81519050919050565b5f82825260208201905092915050565b8281835e5f83830152505050565b5f612b9982612b67565b612ba38185612b71565b9350612bb3818560208601612b81565b612bbc816126b1565b840191505092915050565b5f6080820190508181035f830152612bdf8187612b8f565b9050612bee60208301866129b6565b612bfb60408301856129b6565b612c0860608301846129b6565b95945050505050565b5f5f60408385031215612c2757612c26612525565b5b5f612c34858286016125a6565b9250506020612c458582860161254c565b9150509250929050565b5f608082019050612c625f8301876129b6565b612c6f60208301866129b6565b612c7c60408301856129b6565b612c896060830184612681565b95945050505050565b7f5061757361626c653a20706175736564000000000000000000000000000000005f82015250565b5f612cc6601083612b71565b9150612cd182612c92565b602082019050919050565b5f6020820190508181035f830152612cf381612cba565b9050919050565b7f4e6f7420617574686f72697a65643a204f6e6c792061646d696e2063616e20705f8201527f6572666f726d207468697320616374696f6e0000000000000000000000000000602082015250565b5f612d54603283612b71565b9150612d5f82612cfa565b604082019050919050565b5f6020820190508181035f830152612d8181612d48565b9050919050565b7f496e73756666696369656e742062616c616e636520696e20636f6e74726163745f82015250565b5f612dbc602083612b71565b9150612dc782612d88565b602082019050919050565b5f6020820190508181035f830152612de981612db0565b9050919050565b7f4e6f7420617574686f72697a65643a204f6e6c792064656661756c742061646d5f8201527f696e2063616e20706572666f726d207468697320616374696f6e000000000000602082015250565b5f612e4a603a83612b71565b9150612e5582612df0565b604082019050919050565b5f6020820190508181035f830152612e7781612e3e565b9050919050565b7f496e76616c6964206164647265737320666f72206e65772064656661756c74205f8201527f61646d696e000000000000000000000000000000000000000000000000000000602082015250565b5f612ed8602583612b71565b9150612ee382612e7e565b604082019050919050565b5f6020820190508181035f830152612f0581612ecc565b9050919050565b7f4d696e696d756d20636f6d6d69746d656e7420616d6f756e74206d75737420625f8201527f652067726561746572207468616e207a65726f00000000000000000000000000602082015250565b5f612f66603383612b71565b9150612f7182612f0c565b604082019050919050565b5f6020820190508181035f830152612f9381612f5a565b9050919050565b7f4e6f7420616e2061646d696e00000000000000000000000000000000000000005f82015250565b5f612fce600c83612b71565b9150612fd982612f9a565b602082019050919050565b5f6020820190508181035f830152612ffb81612fc2565b9050919050565b7f43616e6e6f742072656d6f766520746865206c6173742061646d696e000000005f82015250565b5f613036601c83612b71565b915061304182613002565b602082019050919050565b5f6020820190508181035f8301526130638161302a565b9050919050565b7f4e487b71000000000000000000000000000000000000000000000000000000005f52603260045260245ffd5b7f4e487b71000000000000000000000000000000000000000000000000000000005f52601160045260245ffd5b5f6130ce8261252d565b91506130d98361252d565b92508282039050818111156130f1576130f0613097565b5b92915050565b7f4e487b71000000000000000000000000000000000000000000000000000000005f52603160045260245ffd5b7f496e76616c6964204c50206164647265737300000000000000000000000000005f82015250565b5f613158601283612b71565b915061316382613124565b602082019050919050565b5f6020820190508181035f8301526131858161314c565b9050919050565b7f4c5020616c7265616479206578697374730000000000000000000000000000005f82015250565b5f6131c0601183612b71565b91506131cb8261318c565b602082019050919050565b5f6020820190508181035f8301526131ed816131b4565b9050919050565b7f4e616d652063616e6e6f7420626520656d7074790000000000000000000000005f82015250565b5f613228601483612b71565b9150613233826131f4565b602082019050919050565b5f6020820190508181035f8301526132558161321c565b9050919050565b5f6132668261252d565b91506132718361252d565b925082820261327f8161252d565b9150828204841483151761329657613295613097565b5b5092915050565b7f436f6d6d69746d656e7420616d6f756e74206d757374206265206772656174655f8201527f72207468616e206d696e696d756d20616d6f756e740000000000000000000000602082015250565b5f6132f7603583612b71565b91506133028261329d565b604082019050919050565b5f6020820190508181035f830152613324816132eb565b9050919050565b7f456e642054696d65206d757374206265206c61746572207468616e20746865205f8201527f63757272656e742074696d652e00000000000000000000000000000000000000602082015250565b5f613385602d83612b71565b91506133908261332b565b604082019050919050565b5f6020820190508181035f8301526133b281613379565b9050919050565b7f4e487b71000000000000000000000000000000000000000000000000000000005f52602260045260245ffd5b5f60028204905060018216806133fd57607f821691505b6020821081036134105761340f6133b9565b5b50919050565b5f819050815f5260205f209050919050565b5f6020601f8301049050919050565b5f82821b905092915050565b5f600883026134727fffffffffffffffffffffffffffffffffffffffffffffffffffffffffffffffff82613437565b61347c8683613437565b95508019841693508086168417925050509392505050565b5f819050919050565b5f6134b76134b26134ad8461252d565b613494565b61252d565b9050919050565b5f819050919050565b6134d08361349d565b6134e46134dc826134be565b848454613443565b825550505050565b5f5f905090565b6134fb6134ec565b6135068184846134c7565b505050565b5b818110156135295761351e5f826134f3565b60018101905061350c565b5050565b601f82111561356e5761353f81613416565b61354884613428565b81016020851015613557578190505b61356b61356385613428565b83018261350b565b50505b505050565b5f82821c905092915050565b5f61358e5f1984600802613573565b1980831691505092915050565b5f6135a6838361357f565b9150826002028217905092915050565b6135bf82612b67565b67ffffffffffffffff8111156135d8576135d76126c1565b5b6135e282546133e6565b6135ed82828561352d565b5f60209050601f83116001811461361e575f841561360c578287015190505b613616858261359b565b86555061367d565b601f19841661362c86613416565b5f5b828110156136535784890151825560018201915060208501945060208101905061362e565b86831015613670578489015161366c601f89168261357f565b8355505b6001600288020188555050505b505050505050565b5f6040820190506136985f8301856129b6565b6136a560208301846129b6565b9392505050565b7f496e76616c6964204c50000000000000000000000000000000000000000000005f82015250565b5f6136e0600a83612b71565b91506136eb826136ac565b602082019050919050565b5f6020820190508181035f83015261370d816136d4565b9050919050565b5f69ffffffffffffffffffff82169050919050565b61373281613714565b811461373c575f5ffd5b50565b5f8151905061374d81613729565b92915050565b5f819050919050565b61376581613753565b811461376f575f5ffd5b50565b5f815190506137808161375c565b92915050565b5f8151905061379481612536565b92915050565b5f5f5f5f5f60a086880312156137b3576137b2612525565b5b5f6137c08882890161373f565b95505060206137d188828901613772565b94505060406137e288828901613786565b93505060606137f388828901613786565b92505060806138048882890161373f565b9150509295509295909350565b7f496e76616c6964204554482f55534420707269636520646174610000000000005f82015250565b5f613845601a83612b71565b915061385082613811565b602082019050919050565b5f6020820190508181035f83015261387281613839565b9050919050565b7f496e76616c6964206164647265737300000000000000000000000000000000005f82015250565b5f6138ad600f83612b71565b91506138b882613879565b602082019050919050565b5f6020820190508181035f8301526138da816138a1565b9050919050565b7f416c726561647920616e2061646d696e000000000000000000000000000000005f82015250565b5f613915601083612b71565b9150613920826138e1565b602082019050919050565b5f6020820190508181035f83015261394281613909565b9050919050565b7f4e6f7420616e204c5021000000000000000000000000000000000000000000005f82015250565b5f61397d600a83612b71565b915061398882613949565b602082019050919050565b5f6020820190508181035f8301526139aa81613971565b9050919050565b7f436173682063616c6c20616d6f756e74206d75737420626520677265617465725f8201527f207468616e207a65726f00000000000000000000000000000000000000000000602082015250565b5f613a0b602a83612b71565b9150613a16826139b1565b604082019050919050565b5f6020820190508181035f830152613a38816139ff565b9050919050565b7f446561646c696e65206d757374206265206c61746572207468616e20746865205f8201527f63757272656e742074696d652e00000000000000000000000000000000000000602082015250565b5f613a99602d83612b71565b9150613aa482613a3f565b604082019050919050565b5f6020820190508181035f830152613ac681613a8d565b9050919050565b7f4e657720646561646c696e65206d75737420626520616674657220746865206c5f8201527f61737420646561646c696e650000000000000000000000000000000000000000602082015250565b5f613b27602c83612b71565b9150613b3282613acd565b604082019050919050565b5f6020820190508181035f830152613b5481613b1b565b9050919050565b5f606082019050613b6e5f8301866129b6565b613b7b60208301856129b6565b613b8860408301846129b6565b949350505050565b7f436173682063616c6c20646f6573206e6f7420657869737400000000000000005f82015250565b5f613bc4601883612b71565b9150613bcf82613b90565b602082019050919050565b5f6020820190508181035f830152613bf181613bb8565b9050919050565b7f436173682063616c6c206e6f74206578656375746564207965740000000000005f82015250565b5f613c2c601a83612b71565b9150613c3782613bf8565b602082019050919050565b5f6020820190508181035f830152613c5981613c20565b9050919050565b7f436173682063616c6c20616c72656164792065786563757465640000000000005f82015250565b5f613c94601a83612b71565b9150613c9f82613c60565b602082019050919050565b5f6020820190508181035f830152613cc181613c88565b9050919050565b7f596f7520617265206e6f7420616e204c500000000000000000000000000000005f82015250565b5f613cfc601183612b71565b9150613d0782613cc8565b602082019050919050565b5f6020820190508181035f830152613d2981613cf0565b9050919050565b5f613d3a8261252d565b9150613d458361252d565b9250828201905080821115613d5d57613d5c613097565b5b92915050565b5f8154613d6f816133e6565b613d798186612b71565b9450600182165f8114613d935760018114613da957613ddb565b60ff198316865281151560200286019350613ddb565b613db285613416565b5f5b83811015613dd357815481890152600182019150602081019050613db4565b808801955050505b50505092915050565b5f6060820190508181035f830152613dfc8186613d63565b9050613e0b60208301856129b6565b613e1860408301846129b6565b949350505050565b7f5265656e7472616e637947756172643a207265656e7472616e742063616c6c005f82015250565b5f613e54601f83612b71565b9150613e5f82613e20565b602082019050919050565b5f6020820190508181035f830152613e8181613e48565b9050919050565b7f5061757361626c653a206e6f74207061757365640000000000000000000000005f82015250565b5f613ebc601483612b71565b9150613ec782613e88565b602082019050919050565b5f6020820190508181035f830152613ee981613eb0565b905091905056fea26469706673582212200767d31b86535ab6453b6fd4e2b1ab49fba6acc88dca12d329661a609478663c64736f6c634300081c0033', \n     arguments: [\n          _aggregatorAddress,\n          _defaultAdmin,\n     ]\n}).send({\n     from: web3.eth.accounts[0], \n     gas: '4700000'\n   }, function (e, contract){\n    console.log(e, contract);\n    if (typeof contract.address !== 'undefined') {\n         console.log('Contract mined! address: ' + contract.address + ' transactionHash: ' + contract.transactionHash);\n    }\n })",
	"functionHashes": {
		"70480275": "addAdmin(address)",
		"14bfd6d0": "admins(uint256)",
		"2ebf8bd6": "applyPenalty(address,uint256,bool)",
		"de733407": "cashCalls(address,uint256)",
		"87d4377c": "createCashCall(address,uint256,uint256)",
		"84ef8ffc": "defaultAdmin()",
		"f92a5dcd": "executeCashCall(address,uint256)",
		"31ae450b": "getAdmins()",
		"8c28a23a": "getCashCalls(address)",
		"43bc5cd3": "getETHUSDCExchangeRate()",
		"24d7806c": "isAdmin(address)",
		"b661b9da": "lpData(address)",
		"f98cf07c": "makePayment(address,uint256)",
		"fa646434": "minCommitmentAmountUSD()",
		"8456cb59": "pause()",
		"5c975abb": "paused()",
		"1785f53c": "removeAdmin(address)",
		"b9721b2e": "revertExecution(address,uint256)",
		"2d51acb9": "setCommitment(string,address,uint256,uint256)",
		"15a41150": "setDefaultAdmin(address)",
		"161b1349": "setMinCommitmentAmountUSD(uint256)",
		"3f4ba83a": "unpause()",
		"00f714ce": "withdraw(uint256,address)"
	},
	"gasEstimates": {
		"Creation": {
			"codeDepositCost": "3233200",
			"executionCost": "infinite",
			"totalCost": "infinite"
		},
		"External": {
			"addAdmin(address)": "79031",
			"admins(uint256)": "4990",
			"applyPenalty(address,uint256,bool)": "infinite",
			"cashCalls(address,uint256)": "infinite",
			"createCashCall(address,uint256,uint256)": "infinite",
			"defaultAdmin()": "2597",
			"executeCashCall(address,uint256)": "infinite",
			"getAdmins()": "infinite",
			"getCashCalls(address)": "infinite",
			"getETHUSDCExchangeRate()": "infinite",
			"isAdmin(address)": "2856",
			"lpData(address)": "infinite",
			"makePayment(address,uint256)": "infinite",
			"minCommitmentAmountUSD()": "2557",
			"pause()": "30219",
			"paused()": "2495",
			"removeAdmin(address)": "infinite",
			"revertExecution(address,uint256)": "infinite",
			"setCommitment(string,address,uint256,uint256)": "infinite",
			"setDefaultAdmin(address)": "109244",
			"setMinCommitmentAmountUSD(uint256)": "24866",
			"unpause()": "30259",
			"withdraw(uint256,address)": "infinite"
		},
		"Internal": {
			"isLP(address)": "2232"
		}
	},
	"devdoc": {
		"events": {
			"Paused(address)": {
				"details": "Emitted when the pause is triggered by `account`."
			},
			"Unpaused(address)": {
				"details": "Emitted when the pause is lifted by `account`."
			}
		},
		"kind": "dev",
		"methods": {
			"paused()": {
				"details": "Returns true if the contract is paused, and false otherwise."
			}
		},
		"version": 1
	},
	"userdoc": {
		"kind": "user",
		"methods": {},
		"version": 1
	},
	"Runtime Bytecode": {
		"immutableReferences": {},
		"linkReferences": {},
		"object": "608060405260043610610142575f3560e01c80635c975abb116100b5578063b661b9da1161006e578063b661b9da1461041d578063b9721b2e1461045c578063de73340714610484578063f92a5dcd146104c3578063f98cf07c146104eb578063fa6464341461050757610151565b80635c975abb1461032757806370480275146103515780638456cb591461037957806384ef8ffc1461038f57806387d4377c146103b95780638c28a23a146103e157610151565b806324d7806c1161010757806324d7806c146102315780632d51acb91461026d5780632ebf8bd61461029557806331ae450b146102bd5780633f4ba83a146102e757806343bc5cd3146102fd57610151565b8062f714ce1461015557806314bfd6d01461017d57806315a41150146101b9578063161b1349146101e15780631785f53c1461020957610151565b366101515761014f610531565b005b5f5ffd5b348015610160575f5ffd5b5061017b600480360381019061017691906125ba565b61057b565b005b348015610188575f5ffd5b506101a3600480360381019061019e91906125f8565b6106ed565b6040516101b09190612632565b60405180910390f35b3480156101c4575f5ffd5b506101df60048036038101906101da919061264b565b610728565b005b3480156101ec575f5ffd5b50610207600480360381019061020291906125f8565b6108f1565b005b348015610214575f5ffd5b5061022f600480360381019061022a919061264b565b6109c6565b005b34801561023c575f5ffd5b506102576004803603810190610252919061264b565b610d3d565b6040516102649190612690565b60405180910390f35b348015610278575f5ffd5b50610293600480360381019061028e91906127e5565b610d5a565b005b3480156102a0575f5ffd5b506102bb60048036038101906102b6919061288f565b611054565b005b3480156102c8575f5ffd5b506102d1611235565b6040516102de9190612996565b60405180910390f35b3480156102f2575f5ffd5b506102fb6112c0565b005b348015610308575f5ffd5b50610311611353565b60405161031e91906129c5565b60405180910390f35b348015610332575f5ffd5b5061033b611442565b6040516103489190612690565b60405180910390f35b34801561035c575f5ffd5b506103776004803603810190610372919061264b565b611456565b005b348015610384575f5ffd5b5061038d6116d8565b005b34801561039a575f5ffd5b506103a361176b565b6040516103b09190612632565b60405180910390f35b3480156103c4575f5ffd5b506103df60048036038101906103da91906129de565b611790565b005b3480156103ec575f5ffd5b506104076004803603810190610402919061264b565b611b07565b6040516104149190612b47565b60405180910390f35b348015610428575f5ffd5b50610443600480360381019061043e919061264b565b611bd7565b6040516104539493929190612bc7565b60405180910390f35b348015610467575f5ffd5b50610482600480360381019061047d9190612c11565b611c89565b005b34801561048f575f5ffd5b506104aa60048036038101906104a59190612c11565b611ec3565b6040516104ba9493929190612c4f565b60405180910390f35b3480156104ce575f5ffd5b506104e960048036038101906104e49190612c11565b611f15565b005b61050560048036038101906105009190612c11565b612109565b005b348015610512575f5ffd5b5061051b612362565b60405161052891906129c5565b60405180910390f35b610539611442565b15610579576040517f08c379a000000000000000000000000000000000000000000000000000000000815260040161057090612cdc565b60405180910390fd5b565b60035f3373ffffffffffffffffffffffffffffffffffffffff1673ffffffffffffffffffffffffffffffffffffffff1681526020019081526020015f205f9054906101000a900460ff16610604576040517f08c379a00000000000000000000000000000000000000000000000000000000081526004016105fb90612d6a565b60405180910390fd5b61060c612368565b4782111561064f576040517f08c379a000000000000000000000000000000000000000000000000000000000815260040161064690612dd2565b60405180910390fd5b8073ffffffffffffffffffffffffffffffffffffffff166108fc8390811502906040515f60405180830381858888f19350505050158015610692573d5f5f3e3d5ffd5b508073ffffffffffffffffffffffffffffffffffffffff167f7fcf532c15f0a6db0bd6d0e038bea71d30d808c7d98cb3bf7268a95bf5081b65836040516106d991906129c5565b60405180910390a26106e96123b7565b5050565b600281815481106106fc575f80fd5b905f5260205f20015f915054906101000a900473ffffffffffffffffffffffffffffffffffffffff1681565b60045f9054906101000a900473ffffffffffffffffffffffffffffffffffffffff1673ffffffffffffffffffffffffffffffffffffffff163373ffffffffffffffffffffffffffffffffffffffff16146107b7576040517f08c379a00000000000000000000000000000000000000000000000000000000081526004016107ae90612e60565b60405180910390fd5b5f73ffffffffffffffffffffffffffffffffffffffff168173ffffffffffffffffffffffffffffffffffffffff1603610825576040517f08c379a000000000000000000000000000000000000000000000000000000000815260040161081c90612eee565b60405180910390fd5b5f60045f9054906101000a900473ffffffffffffffffffffffffffffffffffffffff16905061085382611456565b8160045f6101000a81548173ffffffffffffffffffffffffffffffffffffffff021916908373ffffffffffffffffffffffffffffffffffffffff1602179055508173ffffffffffffffffffffffffffffffffffffffff168173ffffffffffffffffffffffffffffffffffffffff167fee6c1cbbf9f44e83120156684c7401e64d663798734f8a50da171743fa7e349b60405160405180910390a35050565b60035f3373ffffffffffffffffffffffffffffffffffffffff1673ffffffffffffffffffffffffffffffffffffffff1681526020019081526020015f205f9054906101000a900460ff1661097a576040517f08c379a000000000000000000000000000000000000000000000000000000000815260040161097190612d6a565b60405180910390fd5b5f81116109bc576040517f08c379a00000000000000000000000000000000000000000000000000000000081526004016109b390612f7c565b60405180910390fd5b8060068190555050565b60045f9054906101000a900473ffffffffffffffffffffffffffffffffffffffff1673ffffffffffffffffffffffffffffffffffffffff163373ffffffffffffffffffffffffffffffffffffffff1614610a55576040517f08c379a0000000000000000000000000000000000000000000000000000000008152600401610a4c90612e60565b60405180910390fd5b60035f8273ffffffffffffffffffffffffffffffffffffffff1673ffffffffffffffffffffffffffffffffffffffff1681526020019081526020015f205f9054906101000a900460ff16610ade576040517f08c379a0000000000000000000000000000000000000000000000000000000008152600401610ad590612fe4565b60405180910390fd5b600160028054905011610b26576040517f08c379a0000000000000000000000000000000000000000000000000000000008152600401610b1d9061304c565b60405180910390fd5b5f60035f8373ffffffffffffffffffffffffffffffffffffffff1673ffffffffffffffffffffffffffffffffffffffff1681526020019081526020015f205f6101000a81548160ff0219169083151502179055505f5f90505b600280549050811015610cf6578173ffffffffffffffffffffffffffffffffffffffff1660028281548110610bb757610bb661306a565b5b905f5260205f20015f9054906101000a900473ffffffffffffffffffffffffffffffffffffffff1673ffffffffffffffffffffffffffffffffffffffff1603610ce95760026001600280549050610c0e91906130c4565b81548110610c1f57610c1e61306a565b5b905f5260205f20015f9054906101000a900473ffffffffffffffffffffffffffffffffffffffff1660028281548110610c5b57610c5a61306a565b5b905f5260205f20015f6101000a81548173ffffffffffffffffffffffffffffffffffffffff021916908373ffffffffffffffffffffffffffffffffffffffff1602179055506002805480610cb257610cb16130f7565b5b600190038181905f5260205f20015f6101000a81549073ffffffffffffffffffffffffffffffffffffffff02191690559055610cf6565b8080600101915050610b7f565b508073ffffffffffffffffffffffffffffffffffffffff167fa3b62bc36326052d97ea62d63c3d60308ed4c3ea8ac079dd8499f1e9c4f80c0f60405160405180910390a250565b6003602052805f5260405f205f915054906101000a900460ff1681565b610d62610531565b60035f3373ffffffffffffffffffffffffffffffffffffffff1673ffffffffffffffffffffffffffffffffffffffff1681526020019081526020015f205f9054906101000a900460ff16610deb576040517f08c379a0000000000000000000000000000000000000000000000000000000008152600401610de290612d6a565b60405180910390fd5b5f73ffffffffffffffffffffffffffffffffffffffff168373ffffffffffffffffffffffffffffffffffffffff1603610e59576040517f08c379a0000000000000000000000000000000000000000000000000000000008152600401610e509061316e565b60405180910390fd5b610e62836123c0565b15610ea2576040517f08c379a0000000000000000000000000000000000000000000000000000000008152600401610e99906131d6565b60405180910390fd5b5f845111610ee5576040517f08c379a0000000000000000000000000000000000000000000000000000000008152600401610edc9061323e565b60405180910390fd5b670de0b6b3a7640000600654610efb919061325c565b610f03611353565b83610f0e919061325c565b1015610f4f576040517f08c379a0000000000000000000000000000000000000000000000000000000008152600401610f469061330d565b60405180910390fd5b428111610f91576040517f08c379a0000000000000000000000000000000000000000000000000000000008152600401610f889061339b565b60405180910390fd5b5f60075f8573ffffffffffffffffffffffffffffffffffffffff1673ffffffffffffffffffffffffffffffffffffffff1681526020019081526020015f20905084815f019081610fe191906135b6565b508281600101819055505f81600201819055508181600301819055508373ffffffffffffffffffffffffffffffffffffffff167f2b88c9786b136e841912bb0dd74da2edd0a414d70a8771b7941093af50ae3b5e8484604051611045929190613685565b60405180910390a25050505050565b61105c610531565b60035f3373ffffffffffffffffffffffffffffffffffffffff1673ffffffffffffffffffffffffffffffffffffffff1681526020019081526020015f205f9054906101000a900460ff166110e5576040517f08c379a00000000000000000000000000000000000000000000000000000000081526004016110dc90612d6a565b60405180910390fd5b5f60075f8573ffffffffffffffffffffffffffffffffffffffff1673ffffffffffffffffffffffffffffffffffffffff1681526020019081526020015f2090505f81600101541161116b576040517f08c379a0000000000000000000000000000000000000000000000000000000008152600401611162906136f6565b60405180910390fd5b82816002015f82825461117e91906130c4565b925050819055508373ffffffffffffffffffffffffffffffffffffffff167f4b28c7dc138644f27518388387393ecbd08ef8d180a4a6799c954be166a37ab3846040516111cb91906129c5565b60405180910390a2811561122f575f81600101819055505f81600201819055508373ffffffffffffffffffffffffffffffffffffffff167f1b9b72fde9da721e70e6aca3b0cf4cbe73e82765ef1f280157740376531bfdd860405160405180910390a25b50505050565b606060028054806020026020016040519081016040528092919081815260200182805480156112b657602002820191905f5260205f20905b815f9054906101000a900473ffffffffffffffffffffffffffffffffffffffff1673ffffffffffffffffffffffffffffffffffffffff168152602001906001019080831161126d575b5050505050905090565b60035f3373ffffffffffffffffffffffffffffffffffffffff1673ffffffffffffffffffffffffffffffffffffffff1681526020019081526020015f205f9054906101000a900460ff16611349576040517f08c379a000000000000000000000000000000000000000000000000000000000815260040161134090612d6a565b60405180910390fd5b61135161240b565b565b5f5f60055f9054906101000a900473ffffffffffffffffffffffffffffffffffffffff1673ffffffffffffffffffffffffffffffffffffffff1663feaf968c6040518163ffffffff1660e01b815260040160a060405180830381865afa1580156113bf573d5f5f3e3d5ffd5b505050506040513d601f19601f820116820180604052508101906113e3919061379a565b5050509150505f811361142b576040517f08c379a00000000000000000000000000000000000000000000000000000000081526004016114229061385b565b60405180910390fd5b6402540be4008161143c919061325c565b91505090565b5f5f5f9054906101000a900460ff16905090565b60045f9054906101000a900473ffffffffffffffffffffffffffffffffffffffff1673ffffffffffffffffffffffffffffffffffffffff163373ffffffffffffffffffffffffffffffffffffffff16146114e5576040517f08c379a00000000000000000000000000000000000000000000000000000000081526004016114dc90612e60565b60405180910390fd5b5f73ffffffffffffffffffffffffffffffffffffffff168173ffffffffffffffffffffffffffffffffffffffff1603611553576040517f08c379a000000000000000000000000000000000000000000000000000000000815260040161154a906138c3565b60405180910390fd5b60035f8273ffffffffffffffffffffffffffffffffffffffff1673ffffffffffffffffffffffffffffffffffffffff1681526020019081526020015f205f9054906101000a900460ff16156115dd576040517f08c379a00000000000000000000000000000000000000000000000000000000081526004016115d49061392b565b60405180910390fd5b600281908060018154018082558091505060019003905f5260205f20015f9091909190916101000a81548173ffffffffffffffffffffffffffffffffffffffff021916908373ffffffffffffffffffffffffffffffffffffffff160217905550600160035f8373ffffffffffffffffffffffffffffffffffffffff1673ffffffffffffffffffffffffffffffffffffffff1681526020019081526020015f205f6101000a81548160ff0219169083151502179055508073ffffffffffffffffffffffffffffffffffffffff167f44d6d25963f097ad14f29f06854a01f575648a1ef82f30e562ccd3889717e33960405160405180910390a250565b60035f3373ffffffffffffffffffffffffffffffffffffffff1673ffffffffffffffffffffffffffffffffffffffff1681526020019081526020015f205f9054906101000a900460ff16611761576040517f08c379a000000000000000000000000000000000000000000000000000000000815260040161175890612d6a565b60405180910390fd5b61176961246b565b565b60045f9054906101000a900473ffffffffffffffffffffffffffffffffffffffff1681565b611798610531565b60035f3373ffffffffffffffffffffffffffffffffffffffff1673ffffffffffffffffffffffffffffffffffffffff1681526020019081526020015f205f9054906101000a900460ff16611821576040517f08c379a000000000000000000000000000000000000000000000000000000000815260040161181890612d6a565b60405180910390fd5b61182a836123c0565b611869576040517f08c379a000000000000000000000000000000000000000000000000000000000815260040161186090613993565b60405180910390fd5b5f82116118ab576040517f08c379a00000000000000000000000000000000000000000000000000000000081526004016118a290613a21565b60405180910390fd5b42811180156118fa575060075f8473ffffffffffffffffffffffffffffffffffffffff1673ffffffffffffffffffffffffffffffffffffffff1681526020019081526020015f20600301548111155b611939576040517f08c379a000000000000000000000000000000000000000000000000000000000815260040161193090613aaf565b60405180910390fd5b5f60085f8573ffffffffffffffffffffffffffffffffffffffff1673ffffffffffffffffffffffffffffffffffffffff1681526020019081526020015f2090505f818054905011156119ff575f816001838054905061199891906130c4565b815481106119a9576119a861306a565b5b905f5260205f2090600402016002015490508083116119fd576040517f08c379a00000000000000000000000000000000000000000000000000000000081526004016119f490613b3d565b60405180910390fd5b505b60085f8573ffffffffffffffffffffffffffffffffffffffff1673ffffffffffffffffffffffffffffffffffffffff1681526020019081526020015f2060405180608001604052808581526020015f81526020018481526020015f1515815250908060018154018082558091505060019003905f5260205f2090600402015f909190919091505f820151815f015560208201518160010155604082015181600201556060820151816003015f6101000a81548160ff02191690831515021790555050507f91df0a6856d12caa53a1827a8383398220295d5770e0711c14484db4304016ab81805490508484604051611af993929190613b5b565b60405180910390a150505050565b606060085f8373ffffffffffffffffffffffffffffffffffffffff1673ffffffffffffffffffffffffffffffffffffffff1681526020019081526020015f20805480602002602001604051908101604052809291908181526020015f905b82821015611bcc578382905f5260205f2090600402016040518060800160405290815f82015481526020016001820154815260200160028201548152602001600382015f9054906101000a900460ff16151515158152505081526020019060010190611b65565b505050509050919050565b6007602052805f5260405f205f91509050805f018054611bf6906133e6565b80601f0160208091040260200160405190810160405280929190818152602001828054611c22906133e6565b8015611c6d5780601f10611c4457610100808354040283529160200191611c6d565b820191905f5260205f20905b815481529060010190602001808311611c5057829003601f168201915b5050505050908060010154908060020154908060030154905084565b611c91610531565b60035f3373ffffffffffffffffffffffffffffffffffffffff1673ffffffffffffffffffffffffffffffffffffffff1681526020019081526020015f205f9054906101000a900460ff16611d1a576040517f08c379a0000000000000000000000000000000000000000000000000000000008152600401611d1190612d6a565b60405180910390fd5b611d23826123c0565b611d62576040517f08c379a0000000000000000000000000000000000000000000000000000000008152600401611d5990613993565b60405180910390fd5b5f60085f8473ffffffffffffffffffffffffffffffffffffffff1673ffffffffffffffffffffffffffffffffffffffff1681526020019081526020015f208281548110611db257611db161306a565b5b905f5260205f20906004020190505f815f015411611e05576040517f08c379a0000000000000000000000000000000000000000000000000000000008152600401611dfc90613bda565b60405180910390fd5b806003015f9054906101000a900460ff16611e55576040517f08c379a0000000000000000000000000000000000000000000000000000000008152600401611e4c90613c42565b60405180910390fd5b5f816003015f6101000a81548160ff0219169083151502179055508273ffffffffffffffffffffffffffffffffffffffff167f7d43402007feb68e4f4d08e94a946083b4e8fdddbb8e6e7d95cc029d61cc2be083604051611eb691906129c5565b60405180910390a2505050565b6008602052815f5260405f208181548110611edc575f80fd5b905f5260205f2090600402015f9150915050805f015490806001015490806002015490806003015f9054906101000a900460ff16905084565b611f1d610531565b60035f3373ffffffffffffffffffffffffffffffffffffffff1673ffffffffffffffffffffffffffffffffffffffff1681526020019081526020015f205f9054906101000a900460ff16611fa6576040517f08c379a0000000000000000000000000000000000000000000000000000000008152600401611f9d90612d6a565b60405180910390fd5b5f60085f8473ffffffffffffffffffffffffffffffffffffffff1673ffffffffffffffffffffffffffffffffffffffff1681526020019081526020015f208281548110611ff657611ff561306a565b5b905f5260205f20906004020190505f815f015411612049576040517f08c379a000000000000000000000000000000000000000000000000000000000815260040161204090613bda565b60405180910390fd5b806003015f9054906101000a900460ff161561209a576040517f08c379a000000000000000000000000000000000000000000000000000000000815260040161209190613caa565b60405180910390fd5b6001816003015f6101000a81548160ff0219169083151502179055508273ffffffffffffffffffffffffffffffffffffffff167fb257d3ad0aca91c2880cba095b7732563e1ab189d9fc61b8f393e82d9b47fc24836040516120fc91906129c5565b60405180910390a2505050565b612111610531565b612119612368565b612122826123c0565b612161576040517f08c379a000000000000000000000000000000000000000000000000000000000815260040161215890613d12565b60405180910390fd5b5f60085f8473ffffffffffffffffffffffffffffffffffffffff1673ffffffffffffffffffffffffffffffffffffffff1681526020019081526020015f2082815481106121b1576121b061306a565b5b905f5260205f20906004020190505f815f015411612204576040517f08c379a00000000000000000000000000000000000000000000000000000000081526004016121fb90613bda565b60405180910390fd5b806003015f9054906101000a900460ff1615612255576040517f08c379a000000000000000000000000000000000000000000000000000000000815260040161224c90613caa565b60405180910390fd5b34816001015f8282546122689190613d30565b925050819055503460075f3373ffffffffffffffffffffffffffffffffffffffff1673ffffffffffffffffffffffffffffffffffffffff1681526020019081526020015f206002015f8282546122be9190613d30565b925050819055508273ffffffffffffffffffffffffffffffffffffffff167f14954c6ff5a56809714735fb131bd55e42938c7e5bc1a1715593b0ba52000ccf60075f3373ffffffffffffffffffffffffffffffffffffffff1673ffffffffffffffffffffffffffffffffffffffff1681526020019081526020015f205f01348560405161234d93929190613de4565b60405180910390a25061235e6123b7565b5050565b60065481565b6002600154036123ad576040517f08c379a00000000000000000000000000000000000000000000000000000000081526004016123a490613e6a565b60405180910390fd5b6002600181905550565b60018081905550565b5f5f60075f8473ffffffffffffffffffffffffffffffffffffffff1673ffffffffffffffffffffffffffffffffffffffff1681526020019081526020015f2060010154119050919050565b6124136124cc565b5f5f5f6101000a81548160ff0219169083151502179055507f5db9ee0a495bf2e6ff9c91a7834c1ba4fdd244a5e8aa4e537bd38aeae4b073aa612454612515565b6040516124619190612632565b60405180910390a1565b612473610531565b60015f5f6101000a81548160ff0219169083151502179055507f62e78cea01bee320cd4e420270b5ea74000d11b0c9f74754ebdbfc544b05a2586124b5612515565b6040516124c29190612632565b60405180910390a1565b6124d4611442565b612513576040517f08c379a000000000000000000000000000000000000000000000000000000000815260040161250a90613ed2565b60405180910390fd5b565b5f33905090565b5f604051905090565b5f5ffd5b5f5ffd5b5f819050919050565b61253f8161252d565b8114612549575f5ffd5b50565b5f8135905061255a81612536565b92915050565b5f73ffffffffffffffffffffffffffffffffffffffff82169050919050565b5f61258982612560565b9050919050565b6125998161257f565b81146125a3575f5ffd5b50565b5f813590506125b481612590565b92915050565b5f5f604083850312156125d0576125cf612525565b5b5f6125dd8582860161254c565b92505060206125ee858286016125a6565b9150509250929050565b5f6020828403121561260d5761260c612525565b5b5f61261a8482850161254c565b91505092915050565b61262c8161257f565b82525050565b5f6020820190506126455f830184612623565b92915050565b5f602082840312156126605761265f612525565b5b5f61266d848285016125a6565b91505092915050565b5f8115159050919050565b61268a81612676565b82525050565b5f6020820190506126a35f830184612681565b92915050565b5f5ffd5b5f5ffd5b5f601f19601f8301169050919050565b7f4e487b71000000000000000000000000000000000000000000000000000000005f52604160045260245ffd5b6126f7826126b1565b810181811067ffffffffffffffff82111715612716576127156126c1565b5b80604052505050565b5f61272861251c565b905061273482826126ee565b919050565b5f67ffffffffffffffff821115612753576127526126c1565b5b61275c826126b1565b9050602081019050919050565b828183375f83830152505050565b5f61278961278484612739565b61271f565b9050828152602081018484840111156127a5576127a46126ad565b5b6127b0848285612769565b509392505050565b5f82601f8301126127cc576127cb6126a9565b5b81356127dc848260208601612777565b91505092915050565b5f5f5f5f608085870312156127fd576127fc612525565b5b5f85013567ffffffffffffffff81111561281a57612819612529565b5b612826878288016127b8565b9450506020612837878288016125a6565b93505060406128488782880161254c565b92505060606128598782880161254c565b91505092959194509250565b61286e81612676565b8114612878575f5ffd5b50565b5f8135905061288981612865565b92915050565b5f5f5f606084860312156128a6576128a5612525565b5b5f6128b3868287016125a6565b93505060206128c48682870161254c565b92505060406128d58682870161287b565b9150509250925092565b5f81519050919050565b5f82825260208201905092915050565b5f819050602082019050919050565b6129118161257f565b82525050565b5f6129228383612908565b60208301905092915050565b5f602082019050919050565b5f612944826128df565b61294e81856128e9565b9350612959836128f9565b805f5b838110156129895781516129708882612917565b975061297b8361292e565b92505060018101905061295c565b5085935050505092915050565b5f6020820190508181035f8301526129ae818461293a565b905092915050565b6129bf8161252d565b82525050565b5f6020820190506129d85f8301846129b6565b92915050565b5f5f5f606084860312156129f5576129f4612525565b5b5f612a02868287016125a6565b9350506020612a138682870161254c565b9250506040612a248682870161254c565b9150509250925092565b5f81519050919050565b5f82825260208201905092915050565b5f819050602082019050919050565b612a608161252d565b82525050565b612a6f81612676565b82525050565b608082015f820151612a895f850182612a57565b506020820151612a9c6020850182612a57565b506040820151612aaf6040850182612a57565b506060820151612ac26060850182612a66565b50505050565b5f612ad38383612a75565b60808301905092915050565b5f602082019050919050565b5f612af582612a2e565b612aff8185612a38565b9350612b0a83612a48565b805f5b83811015612b3a578151612b218882612ac8565b9750612b2c83612adf565b925050600181019050612b0d565b5085935050505092915050565b5f6020820190508181035f830152612b5f8184612aeb565b905092915050565b5f81519050919050565b5f82825260208201905092915050565b8281835e5f83830152505050565b5f612b9982612b67565b612ba38185612b71565b9350612bb3818560208601612b81565b612bbc816126b1565b840191505092915050565b5f6080820190508181035f830152612bdf8187612b8f565b9050612bee60208301866129b6565b612bfb60408301856129b6565b612c0860608301846129b6565b95945050505050565b5f5f60408385031215612c2757612c26612525565b5b5f612c34858286016125a6565b9250506020612c458582860161254c565b9150509250929050565b5f608082019050612c625f8301876129b6565b612c6f60208301866129b6565b612c7c60408301856129b6565b612c896060830184612681565b95945050505050565b7f5061757361626c653a20706175736564000000000000000000000000000000005f82015250565b5f612cc6601083612b71565b9150612cd182612c92565b602082019050919050565b5f6020820190508181035f830152612cf381612cba565b9050919050565b7f4e6f7420617574686f72697a65643a204f6e6c792061646d696e2063616e20705f8201527f6572666f726d207468697320616374696f6e0000000000000000000000000000602082015250565b5f612d54603283612b71565b9150612d5f82612cfa565b604082019050919050565b5f6020820190508181035f830152612d8181612d48565b9050919050565b7f496e73756666696369656e742062616c616e636520696e20636f6e74726163745f82015250565b5f612dbc602083612b71565b9150612dc782612d88565b602082019050919050565b5f6020820190508181035f830152612de981612db0565b9050919050565b7f4e6f7420617574686f72697a65643a204f6e6c792064656661756c742061646d5f8201527f696e2063616e20706572666f726d207468697320616374696f6e000000000000602082015250565b5f612e4a603a83612b71565b9150612e5582612df0565b604082019050919050565b5f6020820190508181035f830152612e7781612e3e565b9050919050565b7f496e76616c6964206164647265737320666f72206e65772064656661756c74205f8201527f61646d696e000000000000000000000000000000000000000000000000000000602082015250565b5f612ed8602583612b71565b9150612ee382612e7e565b604082019050919050565b5f6020820190508181035f830152612f0581612ecc565b9050919050565b7f4d696e696d756d20636f6d6d69746d656e7420616d6f756e74206d75737420625f8201527f652067726561746572207468616e207a65726f00000000000000000000000000602082015250565b5f612f66603383612b71565b9150612f7182612f0c565b604082019050919050565b5f6020820190508181035f830152612f9381612f5a565b9050919050565b7f4e6f7420616e2061646d696e00000000000000000000000000000000000000005f82015250565b5f612fce600c83612b71565b9150612fd982612f9a565b602082019050919050565b5f6020820190508181035f830152612ffb81612fc2565b9050919050565b7f43616e6e6f742072656d6f766520746865206c6173742061646d696e000000005f82015250565b5f613036601c83612b71565b915061304182613002565b602082019050919050565b5f6020820190508181035f8301526130638161302a565b9050919050565b7f4e487b71000000000000000000000000000000000000000000000000000000005f52603260045260245ffd5b7f4e487b71000000000000000000000000000000000000000000000000000000005f52601160045260245ffd5b5f6130ce8261252d565b91506130d98361252d565b92508282039050818111156130f1576130f0613097565b5b92915050565b7f4e487b71000000000000000000000000000000000000000000000000000000005f52603160045260245ffd5b7f496e76616c6964204c50206164647265737300000000000000000000000000005f82015250565b5f613158601283612b71565b915061316382613124565b602082019050919050565b5f6020820190508181035f8301526131858161314c565b9050919050565b7f4c5020616c7265616479206578697374730000000000000000000000000000005f82015250565b5f6131c0601183612b71565b91506131cb8261318c565b602082019050919050565b5f6020820190508181035f8301526131ed816131b4565b9050919050565b7f4e616d652063616e6e6f7420626520656d7074790000000000000000000000005f82015250565b5f613228601483612b71565b9150613233826131f4565b602082019050919050565b5f6020820190508181035f8301526132558161321c565b9050919050565b5f6132668261252d565b91506132718361252d565b925082820261327f8161252d565b9150828204841483151761329657613295613097565b5b5092915050565b7f436f6d6d69746d656e7420616d6f756e74206d757374206265206772656174655f8201527f72207468616e206d696e696d756d20616d6f756e740000000000000000000000602082015250565b5f6132f7603583612b71565b91506133028261329d565b604082019050919050565b5f6020820190508181035f830152613324816132eb565b9050919050565b7f456e642054696d65206d757374206265206c61746572207468616e20746865205f8201527f63757272656e742074696d652e00000000000000000000000000000000000000602082015250565b5f613385602d83612b71565b91506133908261332b565b604082019050919050565b5f6020820190508181035f8301526133b281613379565b9050919050565b7f4e487b71000000000000000000000000000000000000000000000000000000005f52602260045260245ffd5b5f60028204905060018216806133fd57607f821691505b6020821081036134105761340f6133b9565b5b50919050565b5f819050815f5260205f209050919050565b5f6020601f8301049050919050565b5f82821b905092915050565b5f600883026134727fffffffffffffffffffffffffffffffffffffffffffffffffffffffffffffffff82613437565b61347c8683613437565b95508019841693508086168417925050509392505050565b5f819050919050565b5f6134b76134b26134ad8461252d565b613494565b61252d565b9050919050565b5f819050919050565b6134d08361349d565b6134e46134dc826134be565b848454613443565b825550505050565b5f5f905090565b6134fb6134ec565b6135068184846134c7565b505050565b5b818110156135295761351e5f826134f3565b60018101905061350c565b5050565b601f82111561356e5761353f81613416565b61354884613428565b81016020851015613557578190505b61356b61356385613428565b83018261350b565b50505b505050565b5f82821c905092915050565b5f61358e5f1984600802613573565b1980831691505092915050565b5f6135a6838361357f565b9150826002028217905092915050565b6135bf82612b67565b67ffffffffffffffff8111156135d8576135d76126c1565b5b6135e282546133e6565b6135ed82828561352d565b5f60209050601f83116001811461361e575f841561360c578287015190505b613616858261359b565b86555061367d565b601f19841661362c86613416565b5f5b828110156136535784890151825560018201915060208501945060208101905061362e565b86831015613670578489015161366c601f89168261357f565b8355505b6001600288020188555050505b505050505050565b5f6040820190506136985f8301856129b6565b6136a560208301846129b6565b9392505050565b7f496e76616c6964204c50000000000000000000000000000000000000000000005f82015250565b5f6136e0600a83612b71565b91506136eb826136ac565b602082019050919050565b5f6020820190508181035f83015261370d816136d4565b9050919050565b5f69ffffffffffffffffffff82169050919050565b61373281613714565b811461373c575f5ffd5b50565b5f8151905061374d81613729565b92915050565b5f819050919050565b61376581613753565b811461376f575f5ffd5b50565b5f815190506137808161375c565b92915050565b5f8151905061379481612536565b92915050565b5f5f5f5f5f60a086880312156137b3576137b2612525565b5b5f6137c08882890161373f565b95505060206137d188828901613772565b94505060406137e288828901613786565b93505060606137f388828901613786565b92505060806138048882890161373f565b9150509295509295909350565b7f496e76616c6964204554482f55534420707269636520646174610000000000005f82015250565b5f613845601a83612b71565b915061385082613811565b602082019050919050565b5f6020820190508181035f83015261387281613839565b9050919050565b7f496e76616c6964206164647265737300000000000000000000000000000000005f82015250565b5f6138ad600f83612b71565b91506138b882613879565b602082019050919050565b5f6020820190508181035f8301526138da816138a1565b9050919050565b7f416c726561647920616e2061646d696e000000000000000000000000000000005f82015250565b5f613915601083612b71565b9150613920826138e1565b602082019050919050565b5f6020820190508181035f83015261394281613909565b9050919050565b7f4e6f7420616e204c5021000000000000000000000000000000000000000000005f82015250565b5f61397d600a83612b71565b915061398882613949565b602082019050919050565b5f6020820190508181035f8301526139aa81613971565b9050919050565b7f436173682063616c6c20616d6f756e74206d75737420626520677265617465725f8201527f207468616e207a65726f00000000000000000000000000000000000000000000602082015250565b5f613a0b602a83612b71565b9150613a16826139b1565b604082019050919050565b5f6020820190508181035f830152613a38816139ff565b9050919050565b7f446561646c696e65206d757374206265206c61746572207468616e20746865205f8201527f63757272656e742074696d652e00000000000000000000000000000000000000602082015250565b5f613a99602d83612b71565b9150613aa482613a3f565b604082019050919050565b5f6020820190508181035f830152613ac681613a8d565b9050919050565b7f4e657720646561646c696e65206d75737420626520616674657220746865206c5f8201527f61737420646561646c696e650000000000000000000000000000000000000000602082015250565b5f613b27602c83612b71565b9150613b3282613acd565b604082019050919050565b5f6020820190508181035f830152613b5481613b1b565b9050919050565b5f606082019050613b6e5f8301866129b6565b613b7b60208301856129b6565b613b8860408301846129b6565b949350505050565b7f436173682063616c6c20646f6573206e6f7420657869737400000000000000005f82015250565b5f613bc4601883612b71565b9150613bcf82613b90565b602082019050919050565b5f6020820190508181035f830152613bf181613bb8565b9050919050565b7f436173682063616c6c206e6f74206578656375746564207965740000000000005f82015250565b5f613c2c601a83612b71565b9150613c3782613bf8565b602082019050919050565b5f6020820190508181035f830152613c5981613c20565b9050919050565b7f436173682063616c6c20616c72656164792065786563757465640000000000005f82015250565b5f613c94601a83612b71565b9150613c9f82613c60565b602082019050919050565b5f6020820190508181035f830152613cc181613c88565b9050919050565b7f596f7520617265206e6f7420616e204c500000000000000000000000000000005f82015250565b5f613cfc601183612b71565b9150613d0782613cc8565b602082019050919050565b5f6020820190508181035f830152613d2981613cf0565b9050919050565b5f613d3a8261252d565b9150613d458361252d565b9250828201905080821115613d5d57613d5c613097565b5b92915050565b5f8154613d6f816133e6565b613d798186612b71565b9450600182165f8114613d935760018114613da957613ddb565b60ff198316865281151560200286019350613ddb565b613db285613416565b5f5b83811015613dd357815481890152600182019150602081019050613db4565b808801955050505b50505092915050565b5f6060820190508181035f830152613dfc8186613d63565b9050613e0b60208301856129b6565b613e1860408301846129b6565b949350505050565b7f5265656e7472616e637947756172643a207265656e7472616e742063616c6c005f82015250565b5f613e54601f83612b71565b9150613e5f82613e20565b602082019050919050565b5f6020820190508181035f830152613e8181613e48565b9050919050565b7f5061757361626c653a206e6f74207061757365640000000000000000000000005f82015250565b5f613ebc601483612b71565b9150613ec782613e88565b602082019050919050565b5f6020820190508181035f830152613ee981613eb0565b905091905056fea26469706673582212200767d31b86535ab6453b6fd4e2b1ab49fba6acc88dca12d329661a609478663c64736f6c634300081c0033",
		"opcodes": "PUSH1 0x80 PUSH1 0x40 MSTORE PUSH1 0x4 CALLDATASIZE LT PUSH2 0x142 JUMPI PUSH0 CALLDATALOAD PUSH1 0xE0 SHR DUP1 PUSH4 0x5C975ABB GT PUSH2 0xB5 JUMPI DUP1 PUSH4 0xB661B9DA GT PUSH2 0x6E JUMPI DUP1 PUSH4 0xB661B9DA EQ PUSH2 0x41D JUMPI DUP1 PUSH4 0xB9721B2E EQ PUSH2 0x45C JUMPI DUP1 PUSH4 0xDE733407 EQ PUSH2 0x484 JUMPI DUP1 PUSH4 0xF92A5DCD EQ PUSH2 0x4C3 JUMPI DUP1 PUSH4 0xF98CF07C EQ PUSH2 0x4EB JUMPI DUP1 PUSH4 0xFA646434 EQ PUSH2 0x507 JUMPI PUSH2 0x151 JUMP JUMPDEST DUP1 PUSH4 0x5C975ABB EQ PUSH2 0x327 JUMPI DUP1 PUSH4 0x70480275 EQ PUSH2 0x351 JUMPI DUP1 PUSH4 0x8456CB59 EQ PUSH2 0x379 JUMPI DUP1 PUSH4 0x84EF8FFC EQ PUSH2 0x38F JUMPI DUP1 PUSH4 0x87D4377C EQ PUSH2 0x3B9 JUMPI DUP1 PUSH4 0x8C28A23A EQ PUSH2 0x3E1 JUMPI PUSH2 0x151 JUMP JUMPDEST DUP1 PUSH4 0x24D7806C GT PUSH2 0x107 JUMPI DUP1 PUSH4 0x24D7806C EQ PUSH2 0x231 JUMPI DUP1 PUSH4 0x2D51ACB9 EQ PUSH2 0x26D JUMPI DUP1 PUSH4 0x2EBF8BD6 EQ PUSH2 0x295 JUMPI DUP1 PUSH4 0x31AE450B EQ PUSH2 0x2BD JUMPI DUP1 PUSH4 0x3F4BA83A EQ PUSH2 0x2E7 JUMPI DUP1 PUSH4 0x43BC5CD3 EQ PUSH2 0x2FD JUMPI PUSH2 0x151 JUMP JUMPDEST DUP1 PUSH3 0xF714CE EQ PUSH2 0x155 JUMPI DUP1 PUSH4 0x14BFD6D0 EQ PUSH2 0x17D JUMPI DUP1 PUSH4 0x15A41150 EQ PUSH2 0x1B9 JUMPI DUP1 PUSH4 0x161B1349 EQ PUSH2 0x1E1 JUMPI DUP1 PUSH4 0x1785F53C EQ PUSH2 0x209 JUMPI PUSH2 0x151 JUMP JUMPDEST CALLDATASIZE PUSH2 0x151 JUMPI PUSH2 0x14F PUSH2 0x531 JUMP JUMPDEST STOP JUMPDEST PUSH0 PUSH0 REVERT JUMPDEST CALLVALUE DUP1 ISZERO PUSH2 0x160 JUMPI PUSH0 PUSH0 REVERT JUMPDEST POP PUSH2 0x17B PUSH1 0x4 DUP1 CALLDATASIZE SUB DUP2 ADD SWAP1 PUSH2 0x176 SWAP2 SWAP1 PUSH2 0x25BA JUMP JUMPDEST PUSH2 0x57B JUMP JUMPDEST STOP JUMPDEST CALLVALUE DUP1 ISZERO PUSH2 0x188 JUMPI PUSH0 PUSH0 REVERT JUMPDEST POP PUSH2 0x1A3 PUSH1 0x4 DUP1 CALLDATASIZE SUB DUP2 ADD SWAP1 PUSH2 0x19E SWAP2 SWAP1 PUSH2 0x25F8 JUMP JUMPDEST PUSH2 0x6ED JUMP JUMPDEST PUSH1 0x40 MLOAD PUSH2 0x1B0 SWAP2 SWAP1 PUSH2 0x2632 JUMP JUMPDEST PUSH1 0x40 MLOAD DUP1 SWAP2 SUB SWAP1 RETURN JUMPDEST CALLVALUE DUP1 ISZERO PUSH2 0x1C4 JUMPI PUSH0 PUSH0 REVERT JUMPDEST POP PUSH2 0x1DF PUSH1 0x4 DUP1 CALLDATASIZE SUB DUP2 ADD SWAP1 PUSH2 0x1DA SWAP2 SWAP1 PUSH2 0x264B JUMP JUMPDEST PUSH2 0x728 JUMP JUMPDEST STOP JUMPDEST CALLVALUE DUP1 ISZERO PUSH2 0x1EC JUMPI PUSH0 PUSH0 REVERT JUMPDEST POP PUSH2 0x207 PUSH1 0x4 DUP1 CALLDATASIZE SUB DUP2 ADD SWAP1 PUSH2 0x202 SWAP2 SWAP1 PUSH2 0x25F8 JUMP JUMPDEST PUSH2 0x8F1 JUMP JUMPDEST STOP JUMPDEST CALLVALUE DUP1 ISZERO PUSH2 0x214 JUMPI PUSH0 PUSH0 REVERT JUMPDEST POP PUSH2 0x22F PUSH1 0x4 DUP1 CALLDATASIZE SUB DUP2 ADD SWAP1 PUSH2 0x22A SWAP2 SWAP1 PUSH2 0x264B JUMP JUMPDEST PUSH2 0x9C6 JUMP JUMPDEST STOP JUMPDEST CALLVALUE DUP1 ISZERO PUSH2 0x23C JUMPI PUSH0 PUSH0 REVERT JUMPDEST POP PUSH2 0x257 PUSH1 0x4 DUP1 CALLDATASIZE SUB DUP2 ADD SWAP1 PUSH2 0x252 SWAP2 SWAP1 PUSH2 0x264B JUMP JUMPDEST PUSH2 0xD3D JUMP JUMPDEST PUSH1 0x40 MLOAD PUSH2 0x264 SWAP2 SWAP1 PUSH2 0x2690 JUMP JUMPDEST PUSH1 0x40 MLOAD DUP1 SWAP2 SUB SWAP1 RETURN JUMPDEST CALLVALUE DUP1 ISZERO PUSH2 0x278 JUMPI PUSH0 PUSH0 REVERT JUMPDEST POP PUSH2 0x293 PUSH1 0x4 DUP1 CALLDATASIZE SUB DUP2 ADD SWAP1 PUSH2 0x28E SWAP2 SWAP1 PUSH2 0x27E5 JUMP JUMPDEST PUSH2 0xD5A JUMP JUMPDEST STOP JUMPDEST CALLVALUE DUP1 ISZERO PUSH2 0x2A0 JUMPI PUSH0 PUSH0 REVERT JUMPDEST POP PUSH2 0x2BB PUSH1 0x4 DUP1 CALLDATASIZE SUB DUP2 ADD SWAP1 PUSH2 0x2B6 SWAP2 SWAP1 PUSH2 0x288F JUMP JUMPDEST PUSH2 0x1054 JUMP JUMPDEST STOP JUMPDEST CALLVALUE DUP1 ISZERO PUSH2 0x2C8 JUMPI PUSH0 PUSH0 REVERT JUMPDEST POP PUSH2 0x2D1 PUSH2 0x1235 JUMP JUMPDEST PUSH1 0x40 MLOAD PUSH2 0x2DE SWAP2 SWAP1 PUSH2 0x2996 JUMP JUMPDEST PUSH1 0x40 MLOAD DUP1 SWAP2 SUB SWAP1 RETURN JUMPDEST CALLVALUE DUP1 ISZERO PUSH2 0x2F2 JUMPI PUSH0 PUSH0 REVERT JUMPDEST POP PUSH2 0x2FB PUSH2 0x12C0 JUMP JUMPDEST STOP JUMPDEST CALLVALUE DUP1 ISZERO PUSH2 0x308 JUMPI PUSH0 PUSH0 REVERT JUMPDEST POP PUSH2 0x311 PUSH2 0x1353 JUMP JUMPDEST PUSH1 0x40 MLOAD PUSH2 0x31E SWAP2 SWAP1 PUSH2 0x29C5 JUMP JUMPDEST PUSH1 0x40 MLOAD DUP1 SWAP2 SUB SWAP1 RETURN JUMPDEST CALLVALUE DUP1 ISZERO PUSH2 0x332 JUMPI PUSH0 PUSH0 REVERT JUMPDEST POP PUSH2 0x33B PUSH2 0x1442 JUMP JUMPDEST PUSH1 0x40 MLOAD PUSH2 0x348 SWAP2 SWAP1 PUSH2 0x2690 JUMP JUMPDEST PUSH1 0x40 MLOAD DUP1 SWAP2 SUB SWAP1 RETURN JUMPDEST CALLVALUE DUP1 ISZERO PUSH2 0x35C JUMPI PUSH0 PUSH0 REVERT JUMPDEST POP PUSH2 0x377 PUSH1 0x4 DUP1 CALLDATASIZE SUB DUP2 ADD SWAP1 PUSH2 0x372 SWAP2 SWAP1 PUSH2 0x264B JUMP JUMPDEST PUSH2 0x1456 JUMP JUMPDEST STOP JUMPDEST CALLVALUE DUP1 ISZERO PUSH2 0x384 JUMPI PUSH0 PUSH0 REVERT JUMPDEST POP PUSH2 0x38D PUSH2 0x16D8 JUMP JUMPDEST STOP JUMPDEST CALLVALUE DUP1 ISZERO PUSH2 0x39A JUMPI PUSH0 PUSH0 REVERT JUMPDEST POP PUSH2 0x3A3 PUSH2 0x176B JUMP JUMPDEST PUSH1 0x40 MLOAD PUSH2 0x3B0 SWAP2 SWAP1 PUSH2 0x2632 JUMP JUMPDEST PUSH1 0x40 MLOAD DUP1 SWAP2 SUB SWAP1 RETURN JUMPDEST CALLVALUE DUP1 ISZERO PUSH2 0x3C4 JUMPI PUSH0 PUSH0 REVERT JUMPDEST POP PUSH2 0x3DF PUSH1 0x4 DUP1 CALLDATASIZE SUB DUP2 ADD SWAP1 PUSH2 0x3DA SWAP2 SWAP1 PUSH2 0x29DE JUMP JUMPDEST PUSH2 0x1790 JUMP JUMPDEST STOP JUMPDEST CALLVALUE DUP1 ISZERO PUSH2 0x3EC JUMPI PUSH0 PUSH0 REVERT JUMPDEST POP PUSH2 0x407 PUSH1 0x4 DUP1 CALLDATASIZE SUB DUP2 ADD SWAP1 PUSH2 0x402 SWAP2 SWAP1 PUSH2 0x264B JUMP JUMPDEST PUSH2 0x1B07 JUMP JUMPDEST PUSH1 0x40 MLOAD PUSH2 0x414 SWAP2 SWAP1 PUSH2 0x2B47 JUMP JUMPDEST PUSH1 0x40 MLOAD DUP1 SWAP2 SUB SWAP1 RETURN JUMPDEST CALLVALUE DUP1 ISZERO PUSH2 0x428 JUMPI PUSH0 PUSH0 REVERT JUMPDEST POP PUSH2 0x443 PUSH1 0x4 DUP1 CALLDATASIZE SUB DUP2 ADD SWAP1 PUSH2 0x43E SWAP2 SWAP1 PUSH2 0x264B JUMP JUMPDEST PUSH2 0x1BD7 JUMP JUMPDEST PUSH1 0x40 MLOAD PUSH2 0x453 SWAP5 SWAP4 SWAP3 SWAP2 SWAP1 PUSH2 0x2BC7 JUMP JUMPDEST PUSH1 0x40 MLOAD DUP1 SWAP2 SUB SWAP1 RETURN JUMPDEST CALLVALUE DUP1 ISZERO PUSH2 0x467 JUMPI PUSH0 PUSH0 REVERT JUMPDEST POP PUSH2 0x482 PUSH1 0x4 DUP1 CALLDATASIZE SUB DUP2 ADD SWAP1 PUSH2 0x47D SWAP2 SWAP1 PUSH2 0x2C11 JUMP JUMPDEST PUSH2 0x1C89 JUMP JUMPDEST STOP JUMPDEST CALLVALUE DUP1 ISZERO PUSH2 0x48F JUMPI PUSH0 PUSH0 REVERT JUMPDEST POP PUSH2 0x4AA PUSH1 0x4 DUP1 CALLDATASIZE SUB DUP2 ADD SWAP1 PUSH2 0x4A5 SWAP2 SWAP1 PUSH2 0x2C11 JUMP JUMPDEST PUSH2 0x1EC3 JUMP JUMPDEST PUSH1 0x40 MLOAD PUSH2 0x4BA SWAP5 SWAP4 SWAP3 SWAP2 SWAP1 PUSH2 0x2C4F JUMP JUMPDEST PUSH1 0x40 MLOAD DUP1 SWAP2 SUB SWAP1 RETURN JUMPDEST CALLVALUE DUP1 ISZERO PUSH2 0x4CE JUMPI PUSH0 PUSH0 REVERT JUMPDEST POP PUSH2 0x4E9 PUSH1 0x4 DUP1 CALLDATASIZE SUB DUP2 ADD SWAP1 PUSH2 0x4E4 SWAP2 SWAP1 PUSH2 0x2C11 JUMP JUMPDEST PUSH2 0x1F15 JUMP JUMPDEST STOP JUMPDEST PUSH2 0x505 PUSH1 0x4 DUP1 CALLDATASIZE SUB DUP2 ADD SWAP1 PUSH2 0x500 SWAP2 SWAP1 PUSH2 0x2C11 JUMP JUMPDEST PUSH2 0x2109 JUMP JUMPDEST STOP JUMPDEST CALLVALUE DUP1 ISZERO PUSH2 0x512 JUMPI PUSH0 PUSH0 REVERT JUMPDEST POP PUSH2 0x51B PUSH2 0x2362 JUMP JUMPDEST PUSH1 0x40 MLOAD PUSH2 0x528 SWAP2 SWAP1 PUSH2 0x29C5 JUMP JUMPDEST PUSH1 0x40 MLOAD DUP1 SWAP2 SUB SWAP1 RETURN JUMPDEST PUSH2 0x539 PUSH2 0x1442 JUMP JUMPDEST ISZERO PUSH2 0x579 JUMPI PUSH1 0x40 MLOAD PUSH32 0x8C379A000000000000000000000000000000000000000000000000000000000 DUP2 MSTORE PUSH1 0x4 ADD PUSH2 0x570 SWAP1 PUSH2 0x2CDC JUMP JUMPDEST PUSH1 0x40 MLOAD DUP1 SWAP2 SUB SWAP1 REVERT JUMPDEST JUMP JUMPDEST PUSH1 0x3 PUSH0 CALLER PUSH20 0xFFFFFFFFFFFFFFFFFFFFFFFFFFFFFFFFFFFFFFFF AND PUSH20 0xFFFFFFFFFFFFFFFFFFFFFFFFFFFFFFFFFFFFFFFF AND DUP2 MSTORE PUSH1 0x20 ADD SWAP1 DUP2 MSTORE PUSH1 0x20 ADD PUSH0 KECCAK256 PUSH0 SWAP1 SLOAD SWAP1 PUSH2 0x100 EXP SWAP1 DIV PUSH1 0xFF AND PUSH2 0x604 JUMPI PUSH1 0x40 MLOAD PUSH32 0x8C379A000000000000000000000000000000000000000000000000000000000 DUP2 MSTORE PUSH1 0x4 ADD PUSH2 0x5FB SWAP1 PUSH2 0x2D6A JUMP JUMPDEST PUSH1 0x40 MLOAD DUP1 SWAP2 SUB SWAP1 REVERT JUMPDEST PUSH2 0x60C PUSH2 0x2368 JUMP JUMPDEST SELFBALANCE DUP3 GT ISZERO PUSH2 0x64F JUMPI PUSH1 0x40 MLOAD PUSH32 0x8C379A000000000000000000000000000000000000000000000000000000000 DUP2 MSTORE PUSH1 0x4 ADD PUSH2 0x646 SWAP1 PUSH2 0x2DD2 JUMP JUMPDEST PUSH1 0x40 MLOAD DUP1 SWAP2 SUB SWAP1 REVERT JUMPDEST DUP1 PUSH20 0xFFFFFFFFFFFFFFFFFFFFFFFFFFFFFFFFFFFFFFFF AND PUSH2 0x8FC DUP4 SWAP1 DUP2 ISZERO MUL SWAP1 PUSH1 0x40 MLOAD PUSH0 PUSH1 0x40 MLOAD DUP1 DUP4 SUB DUP2 DUP6 DUP9 DUP9 CALL SWAP4 POP POP POP POP ISZERO DUP1 ISZERO PUSH2 0x692 JUMPI RETURNDATASIZE PUSH0 PUSH0 RETURNDATACOPY RETURNDATASIZE PUSH0 REVERT JUMPDEST POP DUP1 PUSH20 0xFFFFFFFFFFFFFFFFFFFFFFFFFFFFFFFFFFFFFFFF AND PUSH32 0x7FCF532C15F0A6DB0BD6D0E038BEA71D30D808C7D98CB3BF7268A95BF5081B65 DUP4 PUSH1 0x40 MLOAD PUSH2 0x6D9 SWAP2 SWAP1 PUSH2 0x29C5 JUMP JUMPDEST PUSH1 0x40 MLOAD DUP1 SWAP2 SUB SWAP1 LOG2 PUSH2 0x6E9 PUSH2 0x23B7 JUMP JUMPDEST POP POP JUMP JUMPDEST PUSH1 0x2 DUP2 DUP2 SLOAD DUP2 LT PUSH2 0x6FC JUMPI PUSH0 DUP1 REVERT JUMPDEST SWAP1 PUSH0 MSTORE PUSH1 0x20 PUSH0 KECCAK256 ADD PUSH0 SWAP2 POP SLOAD SWAP1 PUSH2 0x100 EXP SWAP1 DIV PUSH20 0xFFFFFFFFFFFFFFFFFFFFFFFFFFFFFFFFFFFFFFFF AND DUP2 JUMP JUMPDEST PUSH1 0x4 PUSH0 SWAP1 SLOAD SWAP1 PUSH2 0x100 EXP SWAP1 DIV PUSH20 0xFFFFFFFFFFFFFFFFFFFFFFFFFFFFFFFFFFFFFFFF AND PUSH20 0xFFFFFFFFFFFFFFFFFFFFFFFFFFFFFFFFFFFFFFFF AND CALLER PUSH20 0xFFFFFFFFFFFFFFFFFFFFFFFFFFFFFFFFFFFFFFFF AND EQ PUSH2 0x7B7 JUMPI PUSH1 0x40 MLOAD PUSH32 0x8C379A000000000000000000000000000000000000000000000000000000000 DUP2 MSTORE PUSH1 0x4 ADD PUSH2 0x7AE SWAP1 PUSH2 0x2E60 JUMP JUMPDEST PUSH1 0x40 MLOAD DUP1 SWAP2 SUB SWAP1 REVERT JUMPDEST PUSH0 PUSH20 0xFFFFFFFFFFFFFFFFFFFFFFFFFFFFFFFFFFFFFFFF AND DUP2 PUSH20 0xFFFFFFFFFFFFFFFFFFFFFFFFFFFFFFFFFFFFFFFF AND SUB PUSH2 0x825 JUMPI PUSH1 0x40 MLOAD PUSH32 0x8C379A000000000000000000000000000000000000000000000000000000000 DUP2 MSTORE PUSH1 0x4 ADD PUSH2 0x81C SWAP1 PUSH2 0x2EEE JUMP JUMPDEST PUSH1 0x40 MLOAD DUP1 SWAP2 SUB SWAP1 REVERT JUMPDEST PUSH0 PUSH1 0x4 PUSH0 SWAP1 SLOAD SWAP1 PUSH2 0x100 EXP SWAP1 DIV PUSH20 0xFFFFFFFFFFFFFFFFFFFFFFFFFFFFFFFFFFFFFFFF AND SWAP1 POP PUSH2 0x853 DUP3 PUSH2 0x1456 JUMP JUMPDEST DUP2 PUSH1 0x4 PUSH0 PUSH2 0x100 EXP DUP2 SLOAD DUP2 PUSH20 0xFFFFFFFFFFFFFFFFFFFFFFFFFFFFFFFFFFFFFFFF MUL NOT AND SWAP1 DUP4 PUSH20 0xFFFFFFFFFFFFFFFFFFFFFFFFFFFFFFFFFFFFFFFF AND MUL OR SWAP1 SSTORE POP DUP2 PUSH20 0xFFFFFFFFFFFFFFFFFFFFFFFFFFFFFFFFFFFFFFFF AND DUP2 PUSH20 0xFFFFFFFFFFFFFFFFFFFFFFFFFFFFFFFFFFFFFFFF AND PUSH32 0xEE6C1CBBF9F44E83120156684C7401E64D663798734F8A50DA171743FA7E349B PUSH1 0x40 MLOAD PUSH1 0x40 MLOAD DUP1 SWAP2 SUB SWAP1 LOG3 POP POP JUMP JUMPDEST PUSH1 0x3 PUSH0 CALLER PUSH20 0xFFFFFFFFFFFFFFFFFFFFFFFFFFFFFFFFFFFFFFFF AND PUSH20 0xFFFFFFFFFFFFFFFFFFFFFFFFFFFFFFFFFFFFFFFF AND DUP2 MSTORE PUSH1 0x20 ADD SWAP1 DUP2 MSTORE PUSH1 0x20 ADD PUSH0 KECCAK256 PUSH0 SWAP1 SLOAD SWAP1 PUSH2 0x100 EXP SWAP1 DIV PUSH1 0xFF AND PUSH2 0x97A JUMPI PUSH1 0x40 MLOAD PUSH32 0x8C379A000000000000000000000000000000000000000000000000000000000 DUP2 MSTORE PUSH1 0x4 ADD PUSH2 0x971 SWAP1 PUSH2 0x2D6A JUMP JUMPDEST PUSH1 0x40 MLOAD DUP1 SWAP2 SUB SWAP1 REVERT JUMPDEST PUSH0 DUP2 GT PUSH2 0x9BC JUMPI PUSH1 0x40 MLOAD PUSH32 0x8C379A000000000000000000000000000000000000000000000000000000000 DUP2 MSTORE PUSH1 0x4 ADD PUSH2 0x9B3 SWAP1 PUSH2 0x2F7C JUMP JUMPDEST PUSH1 0x40 MLOAD DUP1 SWAP2 SUB SWAP1 REVERT JUMPDEST DUP1 PUSH1 0x6 DUP2 SWAP1 SSTORE POP POP JUMP JUMPDEST PUSH1 0x4 PUSH0 SWAP1 SLOAD SWAP1 PUSH2 0x100 EXP SWAP1 DIV PUSH20 0xFFFFFFFFFFFFFFFFFFFFFFFFFFFFFFFFFFFFFFFF AND PUSH20 0xFFFFFFFFFFFFFFFFFFFFFFFFFFFFFFFFFFFFFFFF AND CALLER PUSH20 0xFFFFFFFFFFFFFFFFFFFFFFFFFFFFFFFFFFFFFFFF AND EQ PUSH2 0xA55 JUMPI PUSH1 0x40 MLOAD PUSH32 0x8C379A000000000000000000000000000000000000000000000000000000000 DUP2 MSTORE PUSH1 0x4 ADD PUSH2 0xA4C SWAP1 PUSH2 0x2E60 JUMP JUMPDEST PUSH1 0x40 MLOAD DUP1 SWAP2 SUB SWAP1 REVERT JUMPDEST PUSH1 0x3 PUSH0 DUP3 PUSH20 0xFFFFFFFFFFFFFFFFFFFFFFFFFFFFFFFFFFFFFFFF AND PUSH20 0xFFFFFFFFFFFFFFFFFFFFFFFFFFFFFFFFFFFFFFFF AND DUP2 MSTORE PUSH1 0x20 ADD SWAP1 DUP2 MSTORE PUSH1 0x20 ADD PUSH0 KECCAK256 PUSH0 SWAP1 SLOAD SWAP1 PUSH2 0x100 EXP SWAP1 DIV PUSH1 0xFF AND PUSH2 0xADE JUMPI PUSH1 0x40 MLOAD PUSH32 0x8C379A000000000000000000000000000000000000000000000000000000000 DUP2 MSTORE PUSH1 0x4 ADD PUSH2 0xAD5 SWAP1 PUSH2 0x2FE4 JUMP JUMPDEST PUSH1 0x40 MLOAD DUP1 SWAP2 SUB SWAP1 REVERT JUMPDEST PUSH1 0x1 PUSH1 0x2 DUP1 SLOAD SWAP1 POP GT PUSH2 0xB26 JUMPI PUSH1 0x40 MLOAD PUSH32 0x8C379A000000000000000000000000000000000000000000000000000000000 DUP2 MSTORE PUSH1 0x4 ADD PUSH2 0xB1D SWAP1 PUSH2 0x304C JUMP JUMPDEST PUSH1 0x40 MLOAD DUP1 SWAP2 SUB SWAP1 REVERT JUMPDEST PUSH0 PUSH1 0x3 PUSH0 DUP4 PUSH20 0xFFFFFFFFFFFFFFFFFFFFFFFFFFFFFFFFFFFFFFFF AND PUSH20 0xFFFFFFFFFFFFFFFFFFFFFFFFFFFFFFFFFFFFFFFF AND DUP2 MSTORE PUSH1 0x20 ADD SWAP1 DUP2 MSTORE PUSH1 0x20 ADD PUSH0 KECCAK256 PUSH0 PUSH2 0x100 EXP DUP2 SLOAD DUP2 PUSH1 0xFF MUL NOT AND SWAP1 DUP4 ISZERO ISZERO MUL OR SWAP1 SSTORE POP PUSH0 PUSH0 SWAP1 POP JUMPDEST PUSH1 0x2 DUP1 SLOAD SWAP1 POP DUP2 LT ISZERO PUSH2 0xCF6 JUMPI DUP2 PUSH20 0xFFFFFFFFFFFFFFFFFFFFFFFFFFFFFFFFFFFFFFFF AND PUSH1 0x2 DUP3 DUP2 SLOAD DUP2 LT PUSH2 0xBB7 JUMPI PUSH2 0xBB6 PUSH2 0x306A JUMP JUMPDEST JUMPDEST SWAP1 PUSH0 MSTORE PUSH1 0x20 PUSH0 KECCAK256 ADD PUSH0 SWAP1 SLOAD SWAP1 PUSH2 0x100 EXP SWAP1 DIV PUSH20 0xFFFFFFFFFFFFFFFFFFFFFFFFFFFFFFFFFFFFFFFF AND PUSH20 0xFFFFFFFFFFFFFFFFFFFFFFFFFFFFFFFFFFFFFFFF AND SUB PUSH2 0xCE9 JUMPI PUSH1 0x2 PUSH1 0x1 PUSH1 0x2 DUP1 SLOAD SWAP1 POP PUSH2 0xC0E SWAP2 SWAP1 PUSH2 0x30C4 JUMP JUMPDEST DUP2 SLOAD DUP2 LT PUSH2 0xC1F JUMPI PUSH2 0xC1E PUSH2 0x306A JUMP JUMPDEST JUMPDEST SWAP1 PUSH0 MSTORE PUSH1 0x20 PUSH0 KECCAK256 ADD PUSH0 SWAP1 SLOAD SWAP1 PUSH2 0x100 EXP SWAP1 DIV PUSH20 0xFFFFFFFFFFFFFFFFFFFFFFFFFFFFFFFFFFFFFFFF AND PUSH1 0x2 DUP3 DUP2 SLOAD DUP2 LT PUSH2 0xC5B JUMPI PUSH2 0xC5A PUSH2 0x306A JUMP JUMPDEST JUMPDEST SWAP1 PUSH0 MSTORE PUSH1 0x20 PUSH0 KECCAK256 ADD PUSH0 PUSH2 0x100 EXP DUP2 SLOAD DUP2 PUSH20 0xFFFFFFFFFFFFFFFFFFFFFFFFFFFFFFFFFFFFFFFF MUL NOT AND SWAP1 DUP4 PUSH20 0xFFFFFFFFFFFFFFFFFFFFFFFFFFFFFFFFFFFFFFFF AND MUL OR SWAP1 SSTORE POP PUSH1 0x2 DUP1 SLOAD DUP1 PUSH2 0xCB2 JUMPI PUSH2 0xCB1 PUSH2 0x30F7 JUMP JUMPDEST JUMPDEST PUSH1 0x1 SWAP1 SUB DUP2 DUP2 SWAP1 PUSH0 MSTORE PUSH1 0x20 PUSH0 KECCAK256 ADD PUSH0 PUSH2 0x100 EXP DUP2 SLOAD SWAP1 PUSH20 0xFFFFFFFFFFFFFFFFFFFFFFFFFFFFFFFFFFFFFFFF MUL NOT AND SWAP1 SSTORE SWAP1 SSTORE PUSH2 0xCF6 JUMP JUMPDEST DUP1 DUP1 PUSH1 0x1 ADD SWAP2 POP POP PUSH2 0xB7F JUMP JUMPDEST POP DUP1 PUSH20 0xFFFFFFFFFFFFFFFFFFFFFFFFFFFFFFFFFFFFFFFF AND PUSH32 0xA3B62BC36326052D97EA62D63C3D60308ED4C3EA8AC079DD8499F1E9C4F80C0F PUSH1 0x40 MLOAD PUSH1 0x40 MLOAD DUP1 SWAP2 SUB SWAP1 LOG2 POP JUMP JUMPDEST PUSH1 0x3 PUSH1 0x20 MSTORE DUP1 PUSH0 MSTORE PUSH1 0x40 PUSH0 KECCAK256 PUSH0 SWAP2 POP SLOAD SWAP1 PUSH2 0x100 EXP SWAP1 DIV PUSH1 0xFF AND DUP2 JUMP JUMPDEST PUSH2 0xD62 PUSH2 0x531 JUMP JUMPDEST PUSH1 0x3 PUSH0 CALLER PUSH20 0xFFFFFFFFFFFFFFFFFFFFFFFFFFFFFFFFFFFFFFFF AND PUSH20 0xFFFFFFFFFFFFFFFFFFFFFFFFFFFFFFFFFFFFFFFF AND DUP2 MSTORE PUSH1 0x20 ADD SWAP1 DUP2 MSTORE PUSH1 0x20 ADD PUSH0 KECCAK256 PUSH0 SWAP1 SLOAD SWAP1 PUSH2 0x100 EXP SWAP1 DIV PUSH1 0xFF AND PUSH2 0xDEB JUMPI PUSH1 0x40 MLOAD PUSH32 0x8C379A000000000000000000000000000000000000000000000000000000000 DUP2 MSTORE PUSH1 0x4 ADD PUSH2 0xDE2 SWAP1 PUSH2 0x2D6A JUMP JUMPDEST PUSH1 0x40 MLOAD DUP1 SWAP2 SUB SWAP1 REVERT JUMPDEST PUSH0 PUSH20 0xFFFFFFFFFFFFFFFFFFFFFFFFFFFFFFFFFFFFFFFF AND DUP4 PUSH20 0xFFFFFFFFFFFFFFFFFFFFFFFFFFFFFFFFFFFFFFFF AND SUB PUSH2 0xE59 JUMPI PUSH1 0x40 MLOAD PUSH32 0x8C379A000000000000000000000000000000000000000000000000000000000 DUP2 MSTORE PUSH1 0x4 ADD PUSH2 0xE50 SWAP1 PUSH2 0x316E JUMP JUMPDEST PUSH1 0x40 MLOAD DUP1 SWAP2 SUB SWAP1 REVERT JUMPDEST PUSH2 0xE62 DUP4 PUSH2 0x23C0 JUMP JUMPDEST ISZERO PUSH2 0xEA2 JUMPI PUSH1 0x40 MLOAD PUSH32 0x8C379A000000000000000000000000000000000000000000000000000000000 DUP2 MSTORE PUSH1 0x4 ADD PUSH2 0xE99 SWAP1 PUSH2 0x31D6 JUMP JUMPDEST PUSH1 0x40 MLOAD DUP1 SWAP2 SUB SWAP1 REVERT JUMPDEST PUSH0 DUP5 MLOAD GT PUSH2 0xEE5 JUMPI PUSH1 0x40 MLOAD PUSH32 0x8C379A000000000000000000000000000000000000000000000000000000000 DUP2 MSTORE PUSH1 0x4 ADD PUSH2 0xEDC SWAP1 PUSH2 0x323E JUMP JUMPDEST PUSH1 0x40 MLOAD DUP1 SWAP2 SUB SWAP1 REVERT JUMPDEST PUSH8 0xDE0B6B3A7640000 PUSH1 0x6 SLOAD PUSH2 0xEFB SWAP2 SWAP1 PUSH2 0x325C JUMP JUMPDEST PUSH2 0xF03 PUSH2 0x1353 JUMP JUMPDEST DUP4 PUSH2 0xF0E SWAP2 SWAP1 PUSH2 0x325C JUMP JUMPDEST LT ISZERO PUSH2 0xF4F JUMPI PUSH1 0x40 MLOAD PUSH32 0x8C379A000000000000000000000000000000000000000000000000000000000 DUP2 MSTORE PUSH1 0x4 ADD PUSH2 0xF46 SWAP1 PUSH2 0x330D JUMP JUMPDEST PUSH1 0x40 MLOAD DUP1 SWAP2 SUB SWAP1 REVERT JUMPDEST TIMESTAMP DUP2 GT PUSH2 0xF91 JUMPI PUSH1 0x40 MLOAD PUSH32 0x8C379A000000000000000000000000000000000000000000000000000000000 DUP2 MSTORE PUSH1 0x4 ADD PUSH2 0xF88 SWAP1 PUSH2 0x339B JUMP JUMPDEST PUSH1 0x40 MLOAD DUP1 SWAP2 SUB SWAP1 REVERT JUMPDEST PUSH0 PUSH1 0x7 PUSH0 DUP6 PUSH20 0xFFFFFFFFFFFFFFFFFFFFFFFFFFFFFFFFFFFFFFFF AND PUSH20 0xFFFFFFFFFFFFFFFFFFFFFFFFFFFFFFFFFFFFFFFF AND DUP2 MSTORE PUSH1 0x20 ADD SWAP1 DUP2 MSTORE PUSH1 0x20 ADD PUSH0 KECCAK256 SWAP1 POP DUP5 DUP2 PUSH0 ADD SWAP1 DUP2 PUSH2 0xFE1 SWAP2 SWAP1 PUSH2 0x35B6 JUMP JUMPDEST POP DUP3 DUP2 PUSH1 0x1 ADD DUP2 SWAP1 SSTORE POP PUSH0 DUP2 PUSH1 0x2 ADD DUP2 SWAP1 SSTORE POP DUP2 DUP2 PUSH1 0x3 ADD DUP2 SWAP1 SSTORE POP DUP4 PUSH20 0xFFFFFFFFFFFFFFFFFFFFFFFFFFFFFFFFFFFFFFFF AND PUSH32 0x2B88C9786B136E841912BB0DD74DA2EDD0A414D70A8771B7941093AF50AE3B5E DUP5 DUP5 PUSH1 0x40 MLOAD PUSH2 0x1045 SWAP3 SWAP2 SWAP1 PUSH2 0x3685 JUMP JUMPDEST PUSH1 0x40 MLOAD DUP1 SWAP2 SUB SWAP1 LOG2 POP POP POP POP POP JUMP JUMPDEST PUSH2 0x105C PUSH2 0x531 JUMP JUMPDEST PUSH1 0x3 PUSH0 CALLER PUSH20 0xFFFFFFFFFFFFFFFFFFFFFFFFFFFFFFFFFFFFFFFF AND PUSH20 0xFFFFFFFFFFFFFFFFFFFFFFFFFFFFFFFFFFFFFFFF AND DUP2 MSTORE PUSH1 0x20 ADD SWAP1 DUP2 MSTORE PUSH1 0x20 ADD PUSH0 KECCAK256 PUSH0 SWAP1 SLOAD SWAP1 PUSH2 0x100 EXP SWAP1 DIV PUSH1 0xFF AND PUSH2 0x10E5 JUMPI PUSH1 0x40 MLOAD PUSH32 0x8C379A000000000000000000000000000000000000000000000000000000000 DUP2 MSTORE PUSH1 0x4 ADD PUSH2 0x10DC SWAP1 PUSH2 0x2D6A JUMP JUMPDEST PUSH1 0x40 MLOAD DUP1 SWAP2 SUB SWAP1 REVERT JUMPDEST PUSH0 PUSH1 0x7 PUSH0 DUP6 PUSH20 0xFFFFFFFFFFFFFFFFFFFFFFFFFFFFFFFFFFFFFFFF AND PUSH20 0xFFFFFFFFFFFFFFFFFFFFFFFFFFFFFFFFFFFFFFFF AND DUP2 MSTORE PUSH1 0x20 ADD SWAP1 DUP2 MSTORE PUSH1 0x20 ADD PUSH0 KECCAK256 SWAP1 POP PUSH0 DUP2 PUSH1 0x1 ADD SLOAD GT PUSH2 0x116B JUMPI PUSH1 0x40 MLOAD PUSH32 0x8C379A000000000000000000000000000000000000000000000000000000000 DUP2 MSTORE PUSH1 0x4 ADD PUSH2 0x1162 SWAP1 PUSH2 0x36F6 JUMP JUMPDEST PUSH1 0x40 MLOAD DUP1 SWAP2 SUB SWAP1 REVERT JUMPDEST DUP3 DUP2 PUSH1 0x2 ADD PUSH0 DUP3 DUP3 SLOAD PUSH2 0x117E SWAP2 SWAP1 PUSH2 0x30C4 JUMP JUMPDEST SWAP3 POP POP DUP2 SWAP1 SSTORE POP DUP4 PUSH20 0xFFFFFFFFFFFFFFFFFFFFFFFFFFFFFFFFFFFFFFFF AND PUSH32 0x4B28C7DC138644F27518388387393ECBD08EF8D180A4A6799C954BE166A37AB3 DUP5 PUSH1 0x40 MLOAD PUSH2 0x11CB SWAP2 SWAP1 PUSH2 0x29C5 JUMP JUMPDEST PUSH1 0x40 MLOAD DUP1 SWAP2 SUB SWAP1 LOG2 DUP2 ISZERO PUSH2 0x122F JUMPI PUSH0 DUP2 PUSH1 0x1 ADD DUP2 SWAP1 SSTORE POP PUSH0 DUP2 PUSH1 0x2 ADD DUP2 SWAP1 SSTORE POP DUP4 PUSH20 0xFFFFFFFFFFFFFFFFFFFFFFFFFFFFFFFFFFFFFFFF AND PUSH32 0x1B9B72FDE9DA721E70E6ACA3B0CF4CBE73E82765EF1F280157740376531BFDD8 PUSH1 0x40 MLOAD PUSH1 0x40 MLOAD DUP1 SWAP2 SUB SWAP1 LOG2 JUMPDEST POP POP POP POP JUMP JUMPDEST PUSH1 0x60 PUSH1 0x2 DUP1 SLOAD DUP1 PUSH1 0x20 MUL PUSH1 0x20 ADD PUSH1 0x40 MLOAD SWAP1 DUP2 ADD PUSH1 0x40 MSTORE DUP1 SWAP3 SWAP2 SWAP1 DUP2 DUP2 MSTORE PUSH1 0x20 ADD DUP3 DUP1 SLOAD DUP1 ISZERO PUSH2 0x12B6 JUMPI PUSH1 0x20 MUL DUP3 ADD SWAP2 SWAP1 PUSH0 MSTORE PUSH1 0x20 PUSH0 KECCAK256 SWAP1 JUMPDEST DUP2 PUSH0 SWAP1 SLOAD SWAP1 PUSH2 0x100 EXP SWAP1 DIV PUSH20 0xFFFFFFFFFFFFFFFFFFFFFFFFFFFFFFFFFFFFFFFF AND PUSH20 0xFFFFFFFFFFFFFFFFFFFFFFFFFFFFFFFFFFFFFFFF AND DUP2 MSTORE PUSH1 0x20 ADD SWAP1 PUSH1 0x1 ADD SWAP1 DUP1 DUP4 GT PUSH2 0x126D JUMPI JUMPDEST POP POP POP POP POP SWAP1 POP SWAP1 JUMP JUMPDEST PUSH1 0x3 PUSH0 CALLER PUSH20 0xFFFFFFFFFFFFFFFFFFFFFFFFFFFFFFFFFFFFFFFF AND PUSH20 0xFFFFFFFFFFFFFFFFFFFFFFFFFFFFFFFFFFFFFFFF AND DUP2 MSTORE PUSH1 0x20 ADD SWAP1 DUP2 MSTORE PUSH1 0x20 ADD PUSH0 KECCAK256 PUSH0 SWAP1 SLOAD SWAP1 PUSH2 0x100 EXP SWAP1 DIV PUSH1 0xFF AND PUSH2 0x1349 JUMPI PUSH1 0x40 MLOAD PUSH32 0x8C379A000000000000000000000000000000000000000000000000000000000 DUP2 MSTORE PUSH1 0x4 ADD PUSH2 0x1340 SWAP1 PUSH2 0x2D6A JUMP JUMPDEST PUSH1 0x40 MLOAD DUP1 SWAP2 SUB SWAP1 REVERT JUMPDEST PUSH2 0x1351 PUSH2 0x240B JUMP JUMPDEST JUMP JUMPDEST PUSH0 PUSH0 PUSH1 0x5 PUSH0 SWAP1 SLOAD SWAP1 PUSH2 0x100 EXP SWAP1 DIV PUSH20 0xFFFFFFFFFFFFFFFFFFFFFFFFFFFFFFFFFFFFFFFF AND PUSH20 0xFFFFFFFFFFFFFFFFFFFFFFFFFFFFFFFFFFFFFFFF AND PUSH4 0xFEAF968C PUSH1 0x40 MLOAD DUP2 PUSH4 0xFFFFFFFF AND PUSH1 0xE0 SHL DUP2 MSTORE PUSH1 0x4 ADD PUSH1 0xA0 PUSH1 0x40 MLOAD DUP1 DUP4 SUB DUP2 DUP7 GAS STATICCALL ISZERO DUP1 ISZERO PUSH2 0x13BF JUMPI RETURNDATASIZE PUSH0 PUSH0 RETURNDATACOPY RETURNDATASIZE PUSH0 REVERT JUMPDEST POP POP POP POP PUSH1 0x40 MLOAD RETURNDATASIZE PUSH1 0x1F NOT PUSH1 0x1F DUP3 ADD AND DUP3 ADD DUP1 PUSH1 0x40 MSTORE POP DUP2 ADD SWAP1 PUSH2 0x13E3 SWAP2 SWAP1 PUSH2 0x379A JUMP JUMPDEST POP POP POP SWAP2 POP POP PUSH0 DUP2 SGT PUSH2 0x142B JUMPI PUSH1 0x40 MLOAD PUSH32 0x8C379A000000000000000000000000000000000000000000000000000000000 DUP2 MSTORE PUSH1 0x4 ADD PUSH2 0x1422 SWAP1 PUSH2 0x385B JUMP JUMPDEST PUSH1 0x40 MLOAD DUP1 SWAP2 SUB SWAP1 REVERT JUMPDEST PUSH5 0x2540BE400 DUP2 PUSH2 0x143C SWAP2 SWAP1 PUSH2 0x325C JUMP JUMPDEST SWAP2 POP POP SWAP1 JUMP JUMPDEST PUSH0 PUSH0 PUSH0 SWAP1 SLOAD SWAP1 PUSH2 0x100 EXP SWAP1 DIV PUSH1 0xFF AND SWAP1 POP SWAP1 JUMP JUMPDEST PUSH1 0x4 PUSH0 SWAP1 SLOAD SWAP1 PUSH2 0x100 EXP SWAP1 DIV PUSH20 0xFFFFFFFFFFFFFFFFFFFFFFFFFFFFFFFFFFFFFFFF AND PUSH20 0xFFFFFFFFFFFFFFFFFFFFFFFFFFFFFFFFFFFFFFFF AND CALLER PUSH20 0xFFFFFFFFFFFFFFFFFFFFFFFFFFFFFFFFFFFFFFFF AND EQ PUSH2 0x14E5 JUMPI PUSH1 0x40 MLOAD PUSH32 0x8C379A000000000000000000000000000000000000000000000000000000000 DUP2 MSTORE PUSH1 0x4 ADD PUSH2 0x14DC SWAP1 PUSH2 0x2E60 JUMP JUMPDEST PUSH1 0x40 MLOAD DUP1 SWAP2 SUB SWAP1 REVERT JUMPDEST PUSH0 PUSH20 0xFFFFFFFFFFFFFFFFFFFFFFFFFFFFFFFFFFFFFFFF AND DUP2 PUSH20 0xFFFFFFFFFFFFFFFFFFFFFFFFFFFFFFFFFFFFFFFF AND SUB PUSH2 0x1553 JUMPI PUSH1 0x40 MLOAD PUSH32 0x8C379A000000000000000000000000000000000000000000000000000000000 DUP2 MSTORE PUSH1 0x4 ADD PUSH2 0x154A SWAP1 PUSH2 0x38C3 JUMP JUMPDEST PUSH1 0x40 MLOAD DUP1 SWAP2 SUB SWAP1 REVERT JUMPDEST PUSH1 0x3 PUSH0 DUP3 PUSH20 0xFFFFFFFFFFFFFFFFFFFFFFFFFFFFFFFFFFFFFFFF AND PUSH20 0xFFFFFFFFFFFFFFFFFFFFFFFFFFFFFFFFFFFFFFFF AND DUP2 MSTORE PUSH1 0x20 ADD SWAP1 DUP2 MSTORE PUSH1 0x20 ADD PUSH0 KECCAK256 PUSH0 SWAP1 SLOAD SWAP1 PUSH2 0x100 EXP SWAP1 DIV PUSH1 0xFF AND ISZERO PUSH2 0x15DD JUMPI PUSH1 0x40 MLOAD PUSH32 0x8C379A000000000000000000000000000000000000000000000000000000000 DUP2 MSTORE PUSH1 0x4 ADD PUSH2 0x15D4 SWAP1 PUSH2 0x392B JUMP JUMPDEST PUSH1 0x40 MLOAD DUP1 SWAP2 SUB SWAP1 REVERT JUMPDEST PUSH1 0x2 DUP2 SWAP1 DUP1 PUSH1 0x1 DUP2 SLOAD ADD DUP1 DUP3 SSTORE DUP1 SWAP2 POP POP PUSH1 0x1 SWAP1 SUB SWAP1 PUSH0 MSTORE PUSH1 0x20 PUSH0 KECCAK256 ADD PUSH0 SWAP1 SWAP2 SWAP1 SWAP2 SWAP1 SWAP2 PUSH2 0x100 EXP DUP2 SLOAD DUP2 PUSH20 0xFFFFFFFFFFFFFFFFFFFFFFFFFFFFFFFFFFFFFFFF MUL NOT AND SWAP1 DUP4 PUSH20 0xFFFFFFFFFFFFFFFFFFFFFFFFFFFFFFFFFFFFFFFF AND MUL OR SWAP1 SSTORE POP PUSH1 0x1 PUSH1 0x3 PUSH0 DUP4 PUSH20 0xFFFFFFFFFFFFFFFFFFFFFFFFFFFFFFFFFFFFFFFF AND PUSH20 0xFFFFFFFFFFFFFFFFFFFFFFFFFFFFFFFFFFFFFFFF AND DUP2 MSTORE PUSH1 0x20 ADD SWAP1 DUP2 MSTORE PUSH1 0x20 ADD PUSH0 KECCAK256 PUSH0 PUSH2 0x100 EXP DUP2 SLOAD DUP2 PUSH1 0xFF MUL NOT AND SWAP1 DUP4 ISZERO ISZERO MUL OR SWAP1 SSTORE POP DUP1 PUSH20 0xFFFFFFFFFFFFFFFFFFFFFFFFFFFFFFFFFFFFFFFF AND PUSH32 0x44D6D25963F097AD14F29F06854A01F575648A1EF82F30E562CCD3889717E339 PUSH1 0x40 MLOAD PUSH1 0x40 MLOAD DUP1 SWAP2 SUB SWAP1 LOG2 POP JUMP JUMPDEST PUSH1 0x3 PUSH0 CALLER PUSH20 0xFFFFFFFFFFFFFFFFFFFFFFFFFFFFFFFFFFFFFFFF AND PUSH20 0xFFFFFFFFFFFFFFFFFFFFFFFFFFFFFFFFFFFFFFFF AND DUP2 MSTORE PUSH1 0x20 ADD SWAP1 DUP2 MSTORE PUSH1 0x20 ADD PUSH0 KECCAK256 PUSH0 SWAP1 SLOAD SWAP1 PUSH2 0x100 EXP SWAP1 DIV PUSH1 0xFF AND PUSH2 0x1761 JUMPI PUSH1 0x40 MLOAD PUSH32 0x8C379A000000000000000000000000000000000000000000000000000000000 DUP2 MSTORE PUSH1 0x4 ADD PUSH2 0x1758 SWAP1 PUSH2 0x2D6A JUMP JUMPDEST PUSH1 0x40 MLOAD DUP1 SWAP2 SUB SWAP1 REVERT JUMPDEST PUSH2 0x1769 PUSH2 0x246B JUMP JUMPDEST JUMP JUMPDEST PUSH1 0x4 PUSH0 SWAP1 SLOAD SWAP1 PUSH2 0x100 EXP SWAP1 DIV PUSH20 0xFFFFFFFFFFFFFFFFFFFFFFFFFFFFFFFFFFFFFFFF AND DUP2 JUMP JUMPDEST PUSH2 0x1798 PUSH2 0x531 JUMP JUMPDEST PUSH1 0x3 PUSH0 CALLER PUSH20 0xFFFFFFFFFFFFFFFFFFFFFFFFFFFFFFFFFFFFFFFF AND PUSH20 0xFFFFFFFFFFFFFFFFFFFFFFFFFFFFFFFFFFFFFFFF AND DUP2 MSTORE PUSH1 0x20 ADD SWAP1 DUP2 MSTORE PUSH1 0x20 ADD PUSH0 KECCAK256 PUSH0 SWAP1 SLOAD SWAP1 PUSH2 0x100 EXP SWAP1 DIV PUSH1 0xFF AND PUSH2 0x1821 JUMPI PUSH1 0x40 MLOAD PUSH32 0x8C379A000000000000000000000000000000000000000000000000000000000 DUP2 MSTORE PUSH1 0x4 ADD PUSH2 0x1818 SWAP1 PUSH2 0x2D6A JUMP JUMPDEST PUSH1 0x40 MLOAD DUP1 SWAP2 SUB SWAP1 REVERT JUMPDEST PUSH2 0x182A DUP4 PUSH2 0x23C0 JUMP JUMPDEST PUSH2 0x1869 JUMPI PUSH1 0x40 MLOAD PUSH32 0x8C379A000000000000000000000000000000000000000000000000000000000 DUP2 MSTORE PUSH1 0x4 ADD PUSH2 0x1860 SWAP1 PUSH2 0x3993 JUMP JUMPDEST PUSH1 0x40 MLOAD DUP1 SWAP2 SUB SWAP1 REVERT JUMPDEST PUSH0 DUP3 GT PUSH2 0x18AB JUMPI PUSH1 0x40 MLOAD PUSH32 0x8C379A000000000000000000000000000000000000000000000000000000000 DUP2 MSTORE PUSH1 0x4 ADD PUSH2 0x18A2 SWAP1 PUSH2 0x3A21 JUMP JUMPDEST PUSH1 0x40 MLOAD DUP1 SWAP2 SUB SWAP1 REVERT JUMPDEST TIMESTAMP DUP2 GT DUP1 ISZERO PUSH2 0x18FA JUMPI POP PUSH1 0x7 PUSH0 DUP5 PUSH20 0xFFFFFFFFFFFFFFFFFFFFFFFFFFFFFFFFFFFFFFFF AND PUSH20 0xFFFFFFFFFFFFFFFFFFFFFFFFFFFFFFFFFFFFFFFF AND DUP2 MSTORE PUSH1 0x20 ADD SWAP1 DUP2 MSTORE PUSH1 0x20 ADD PUSH0 KECCAK256 PUSH1 0x3 ADD SLOAD DUP2 GT ISZERO JUMPDEST PUSH2 0x1939 JUMPI PUSH1 0x40 MLOAD PUSH32 0x8C379A000000000000000000000000000000000000000000000000000000000 DUP2 MSTORE PUSH1 0x4 ADD PUSH2 0x1930 SWAP1 PUSH2 0x3AAF JUMP JUMPDEST PUSH1 0x40 MLOAD DUP1 SWAP2 SUB SWAP1 REVERT JUMPDEST PUSH0 PUSH1 0x8 PUSH0 DUP6 PUSH20 0xFFFFFFFFFFFFFFFFFFFFFFFFFFFFFFFFFFFFFFFF AND PUSH20 0xFFFFFFFFFFFFFFFFFFFFFFFFFFFFFFFFFFFFFFFF AND DUP2 MSTORE PUSH1 0x20 ADD SWAP1 DUP2 MSTORE PUSH1 0x20 ADD PUSH0 KECCAK256 SWAP1 POP PUSH0 DUP2 DUP1 SLOAD SWAP1 POP GT ISZERO PUSH2 0x19FF JUMPI PUSH0 DUP2 PUSH1 0x1 DUP4 DUP1 SLOAD SWAP1 POP PUSH2 0x1998 SWAP2 SWAP1 PUSH2 0x30C4 JUMP JUMPDEST DUP2 SLOAD DUP2 LT PUSH2 0x19A9 JUMPI PUSH2 0x19A8 PUSH2 0x306A JUMP JUMPDEST JUMPDEST SWAP1 PUSH0 MSTORE PUSH1 0x20 PUSH0 KECCAK256 SWAP1 PUSH1 0x4 MUL ADD PUSH1 0x2 ADD SLOAD SWAP1 POP DUP1 DUP4 GT PUSH2 0x19FD JUMPI PUSH1 0x40 MLOAD PUSH32 0x8C379A000000000000000000000000000000000000000000000000000000000 DUP2 MSTORE PUSH1 0x4 ADD PUSH2 0x19F4 SWAP1 PUSH2 0x3B3D JUMP JUMPDEST PUSH1 0x40 MLOAD DUP1 SWAP2 SUB SWAP1 REVERT JUMPDEST POP JUMPDEST PUSH1 0x8 PUSH0 DUP6 PUSH20 0xFFFFFFFFFFFFFFFFFFFFFFFFFFFFFFFFFFFFFFFF AND PUSH20 0xFFFFFFFFFFFFFFFFFFFFFFFFFFFFFFFFFFFFFFFF AND DUP2 MSTORE PUSH1 0x20 ADD SWAP1 DUP2 MSTORE PUSH1 0x20 ADD PUSH0 KECCAK256 PUSH1 0x40 MLOAD DUP1 PUSH1 0x80 ADD PUSH1 0x40 MSTORE DUP1 DUP6 DUP2 MSTORE PUSH1 0x20 ADD PUSH0 DUP2 MSTORE PUSH1 0x20 ADD DUP5 DUP2 MSTORE PUSH1 0x20 ADD PUSH0 ISZERO ISZERO DUP2 MSTORE POP SWAP1 DUP1 PUSH1 0x1 DUP2 SLOAD ADD DUP1 DUP3 SSTORE DUP1 SWAP2 POP POP PUSH1 0x1 SWAP1 SUB SWAP1 PUSH0 MSTORE PUSH1 0x20 PUSH0 KECCAK256 SWAP1 PUSH1 0x4 MUL ADD PUSH0 SWAP1 SWAP2 SWAP1 SWAP2 SWAP1 SWAP2 POP PUSH0 DUP3 ADD MLOAD DUP2 PUSH0 ADD SSTORE PUSH1 0x20 DUP3 ADD MLOAD DUP2 PUSH1 0x1 ADD SSTORE PUSH1 0x40 DUP3 ADD MLOAD DUP2 PUSH1 0x2 ADD SSTORE PUSH1 0x60 DUP3 ADD MLOAD DUP2 PUSH1 0x3 ADD PUSH0 PUSH2 0x100 EXP DUP2 SLOAD DUP2 PUSH1 0xFF MUL NOT AND SWAP1 DUP4 ISZERO ISZERO MUL OR SWAP1 SSTORE POP POP POP PUSH32 0x91DF0A6856D12CAA53A1827A8383398220295D5770E0711C14484DB4304016AB DUP2 DUP1 SLOAD SWAP1 POP DUP5 DUP5 PUSH1 0x40 MLOAD PUSH2 0x1AF9 SWAP4 SWAP3 SWAP2 SWAP1 PUSH2 0x3B5B JUMP JUMPDEST PUSH1 0x40 MLOAD DUP1 SWAP2 SUB SWAP1 LOG1 POP POP POP POP JUMP JUMPDEST PUSH1 0x60 PUSH1 0x8 PUSH0 DUP4 PUSH20 0xFFFFFFFFFFFFFFFFFFFFFFFFFFFFFFFFFFFFFFFF AND PUSH20 0xFFFFFFFFFFFFFFFFFFFFFFFFFFFFFFFFFFFFFFFF AND DUP2 MSTORE PUSH1 0x20 ADD SWAP1 DUP2 MSTORE PUSH1 0x20 ADD PUSH0 KECCAK256 DUP1 SLOAD DUP1 PUSH1 0x20 MUL PUSH1 0x20 ADD PUSH1 0x40 MLOAD SWAP1 DUP2 ADD PUSH1 0x40 MSTORE DUP1 SWAP3 SWAP2 SWAP1 DUP2 DUP2 MSTORE PUSH1 0x20 ADD PUSH0 SWAP1 JUMPDEST DUP3 DUP3 LT ISZERO PUSH2 0x1BCC JUMPI DUP4 DUP3 SWAP1 PUSH0 MSTORE PUSH1 0x20 PUSH0 KECCAK256 SWAP1 PUSH1 0x4 MUL ADD PUSH1 0x40 MLOAD DUP1 PUSH1 0x80 ADD PUSH1 0x40 MSTORE SWAP1 DUP2 PUSH0 DUP3 ADD SLOAD DUP2 MSTORE PUSH1 0x20 ADD PUSH1 0x1 DUP3 ADD SLOAD DUP2 MSTORE PUSH1 0x20 ADD PUSH1 0x2 DUP3 ADD SLOAD DUP2 MSTORE PUSH1 0x20 ADD PUSH1 0x3 DUP3 ADD PUSH0 SWAP1 SLOAD SWAP1 PUSH2 0x100 EXP SWAP1 DIV PUSH1 0xFF AND ISZERO ISZERO ISZERO ISZERO DUP2 MSTORE POP POP DUP2 MSTORE PUSH1 0x20 ADD SWAP1 PUSH1 0x1 ADD SWAP1 PUSH2 0x1B65 JUMP JUMPDEST POP POP POP POP SWAP1 POP SWAP2 SWAP1 POP JUMP JUMPDEST PUSH1 0x7 PUSH1 0x20 MSTORE DUP1 PUSH0 MSTORE PUSH1 0x40 PUSH0 KECCAK256 PUSH0 SWAP2 POP SWAP1 POP DUP1 PUSH0 ADD DUP1 SLOAD PUSH2 0x1BF6 SWAP1 PUSH2 0x33E6 JUMP JUMPDEST DUP1 PUSH1 0x1F ADD PUSH1 0x20 DUP1 SWAP2 DIV MUL PUSH1 0x20 ADD PUSH1 0x40 MLOAD SWAP1 DUP2 ADD PUSH1 0x40 MSTORE DUP1 SWAP3 SWAP2 SWAP1 DUP2 DUP2 MSTORE PUSH1 0x20 ADD DUP3 DUP1 SLOAD PUSH2 0x1C22 SWAP1 PUSH2 0x33E6 JUMP JUMPDEST DUP1 ISZERO PUSH2 0x1C6D JUMPI DUP1 PUSH1 0x1F LT PUSH2 0x1C44 JUMPI PUSH2 0x100 DUP1 DUP4 SLOAD DIV MUL DUP4 MSTORE SWAP2 PUSH1 0x20 ADD SWAP2 PUSH2 0x1C6D JUMP JUMPDEST DUP3 ADD SWAP2 SWAP1 PUSH0 MSTORE PUSH1 0x20 PUSH0 KECCAK256 SWAP1 JUMPDEST DUP2 SLOAD DUP2 MSTORE SWAP1 PUSH1 0x1 ADD SWAP1 PUSH1 0x20 ADD DUP1 DUP4 GT PUSH2 0x1C50 JUMPI DUP3 SWAP1 SUB PUSH1 0x1F AND DUP3 ADD SWAP2 JUMPDEST POP POP POP POP POP SWAP1 DUP1 PUSH1 0x1 ADD SLOAD SWAP1 DUP1 PUSH1 0x2 ADD SLOAD SWAP1 DUP1 PUSH1 0x3 ADD SLOAD SWAP1 POP DUP5 JUMP JUMPDEST PUSH2 0x1C91 PUSH2 0x531 JUMP JUMPDEST PUSH1 0x3 PUSH0 CALLER PUSH20 0xFFFFFFFFFFFFFFFFFFFFFFFFFFFFFFFFFFFFFFFF AND PUSH20 0xFFFFFFFFFFFFFFFFFFFFFFFFFFFFFFFFFFFFFFFF AND DUP2 MSTORE PUSH1 0x20 ADD SWAP1 DUP2 MSTORE PUSH1 0x20 ADD PUSH0 KECCAK256 PUSH0 SWAP1 SLOAD SWAP1 PUSH2 0x100 EXP SWAP1 DIV PUSH1 0xFF AND PUSH2 0x1D1A JUMPI PUSH1 0x40 MLOAD PUSH32 0x8C379A000000000000000000000000000000000000000000000000000000000 DUP2 MSTORE PUSH1 0x4 ADD PUSH2 0x1D11 SWAP1 PUSH2 0x2D6A JUMP JUMPDEST PUSH1 0x40 MLOAD DUP1 SWAP2 SUB SWAP1 REVERT JUMPDEST PUSH2 0x1D23 DUP3 PUSH2 0x23C0 JUMP JUMPDEST PUSH2 0x1D62 JUMPI PUSH1 0x40 MLOAD PUSH32 0x8C379A000000000000000000000000000000000000000000000000000000000 DUP2 MSTORE PUSH1 0x4 ADD PUSH2 0x1D59 SWAP1 PUSH2 0x3993 JUMP JUMPDEST PUSH1 0x40 MLOAD DUP1 SWAP2 SUB SWAP1 REVERT JUMPDEST PUSH0 PUSH1 0x8 PUSH0 DUP5 PUSH20 0xFFFFFFFFFFFFFFFFFFFFFFFFFFFFFFFFFFFFFFFF AND PUSH20 0xFFFFFFFFFFFFFFFFFFFFFFFFFFFFFFFFFFFFFFFF AND DUP2 MSTORE PUSH1 0x20 ADD SWAP1 DUP2 MSTORE PUSH1 0x20 ADD PUSH0 KECCAK256 DUP3 DUP2 SLOAD DUP2 LT PUSH2 0x1DB2 JUMPI PUSH2 0x1DB1 PUSH2 0x306A JUMP JUMPDEST JUMPDEST SWAP1 PUSH0 MSTORE PUSH1 0x20 PUSH0 KECCAK256 SWAP1 PUSH1 0x4 MUL ADD SWAP1 POP PUSH0 DUP2 PUSH0 ADD SLOAD GT PUSH2 0x1E05 JUMPI PUSH1 0x40 MLOAD PUSH32 0x8C379A000000000000000000000000000000000000000000000000000000000 DUP2 MSTORE PUSH1 0x4 ADD PUSH2 0x1DFC SWAP1 PUSH2 0x3BDA JUMP JUMPDEST PUSH1 0x40 MLOAD DUP1 SWAP2 SUB SWAP1 REVERT JUMPDEST DUP1 PUSH1 0x3 ADD PUSH0 SWAP1 SLOAD SWAP1 PUSH2 0x100 EXP SWAP1 DIV PUSH1 0xFF AND PUSH2 0x1E55 JUMPI PUSH1 0x40 MLOAD PUSH32 0x8C379A000000000000000000000000000000000000000000000000000000000 DUP2 MSTORE PUSH1 0x4 ADD PUSH2 0x1E4C SWAP1 PUSH2 0x3C42 JUMP JUMPDEST PUSH1 0x40 MLOAD DUP1 SWAP2 SUB SWAP1 REVERT JUMPDEST PUSH0 DUP2 PUSH1 0x3 ADD PUSH0 PUSH2 0x100 EXP DUP2 SLOAD DUP2 PUSH1 0xFF MUL NOT AND SWAP1 DUP4 ISZERO ISZERO MUL OR SWAP1 SSTORE POP DUP3 PUSH20 0xFFFFFFFFFFFFFFFFFFFFFFFFFFFFFFFFFFFFFFFF AND PUSH32 0x7D43402007FEB68E4F4D08E94A946083B4E8FDDDBB8E6E7D95CC029D61CC2BE0 DUP4 PUSH1 0x40 MLOAD PUSH2 0x1EB6 SWAP2 SWAP1 PUSH2 0x29C5 JUMP JUMPDEST PUSH1 0x40 MLOAD DUP1 SWAP2 SUB SWAP1 LOG2 POP POP POP JUMP JUMPDEST PUSH1 0x8 PUSH1 0x20 MSTORE DUP2 PUSH0 MSTORE PUSH1 0x40 PUSH0 KECCAK256 DUP2 DUP2 SLOAD DUP2 LT PUSH2 0x1EDC JUMPI PUSH0 DUP1 REVERT JUMPDEST SWAP1 PUSH0 MSTORE PUSH1 0x20 PUSH0 KECCAK256 SWAP1 PUSH1 0x4 MUL ADD PUSH0 SWAP2 POP SWAP2 POP POP DUP1 PUSH0 ADD SLOAD SWAP1 DUP1 PUSH1 0x1 ADD SLOAD SWAP1 DUP1 PUSH1 0x2 ADD SLOAD SWAP1 DUP1 PUSH1 0x3 ADD PUSH0 SWAP1 SLOAD SWAP1 PUSH2 0x100 EXP SWAP1 DIV PUSH1 0xFF AND SWAP1 POP DUP5 JUMP JUMPDEST PUSH2 0x1F1D PUSH2 0x531 JUMP JUMPDEST PUSH1 0x3 PUSH0 CALLER PUSH20 0xFFFFFFFFFFFFFFFFFFFFFFFFFFFFFFFFFFFFFFFF AND PUSH20 0xFFFFFFFFFFFFFFFFFFFFFFFFFFFFFFFFFFFFFFFF AND DUP2 MSTORE PUSH1 0x20 ADD SWAP1 DUP2 MSTORE PUSH1 0x20 ADD PUSH0 KECCAK256 PUSH0 SWAP1 SLOAD SWAP1 PUSH2 0x100 EXP SWAP1 DIV PUSH1 0xFF AND PUSH2 0x1FA6 JUMPI PUSH1 0x40 MLOAD PUSH32 0x8C379A000000000000000000000000000000000000000000000000000000000 DUP2 MSTORE PUSH1 0x4 ADD PUSH2 0x1F9D SWAP1 PUSH2 0x2D6A JUMP JUMPDEST PUSH1 0x40 MLOAD DUP1 SWAP2 SUB SWAP1 REVERT JUMPDEST PUSH0 PUSH1 0x8 PUSH0 DUP5 PUSH20 0xFFFFFFFFFFFFFFFFFFFFFFFFFFFFFFFFFFFFFFFF AND PUSH20 0xFFFFFFFFFFFFFFFFFFFFFFFFFFFFFFFFFFFFFFFF AND DUP2 MSTORE PUSH1 0x20 ADD SWAP1 DUP2 MSTORE PUSH1 0x20 ADD PUSH0 KECCAK256 DUP3 DUP2 SLOAD DUP2 LT PUSH2 0x1FF6 JUMPI PUSH2 0x1FF5 PUSH2 0x306A JUMP JUMPDEST JUMPDEST SWAP1 PUSH0 MSTORE PUSH1 0x20 PUSH0 KECCAK256 SWAP1 PUSH1 0x4 MUL ADD SWAP1 POP PUSH0 DUP2 PUSH0 ADD SLOAD GT PUSH2 0x2049 JUMPI PUSH1 0x40 MLOAD PUSH32 0x8C379A000000000000000000000000000000000000000000000000000000000 DUP2 MSTORE PUSH1 0x4 ADD PUSH2 0x2040 SWAP1 PUSH2 0x3BDA JUMP JUMPDEST PUSH1 0x40 MLOAD DUP1 SWAP2 SUB SWAP1 REVERT JUMPDEST DUP1 PUSH1 0x3 ADD PUSH0 SWAP1 SLOAD SWAP1 PUSH2 0x100 EXP SWAP1 DIV PUSH1 0xFF AND ISZERO PUSH2 0x209A JUMPI PUSH1 0x40 MLOAD PUSH32 0x8C379A000000000000000000000000000000000000000000000000000000000 DUP2 MSTORE PUSH1 0x4 ADD PUSH2 0x2091 SWAP1 PUSH2 0x3CAA JUMP JUMPDEST PUSH1 0x40 MLOAD DUP1 SWAP2 SUB SWAP1 REVERT JUMPDEST PUSH1 0x1 DUP2 PUSH1 0x3 ADD PUSH0 PUSH2 0x100 EXP DUP2 SLOAD DUP2 PUSH1 0xFF MUL NOT AND SWAP1 DUP4 ISZERO ISZERO MUL OR SWAP1 SSTORE POP DUP3 PUSH20 0xFFFFFFFFFFFFFFFFFFFFFFFFFFFFFFFFFFFFFFFF AND PUSH32 0xB257D3AD0ACA91C2880CBA095B7732563E1AB189D9FC61B8F393E82D9B47FC24 DUP4 PUSH1 0x40 MLOAD PUSH2 0x20FC SWAP2 SWAP1 PUSH2 0x29C5 JUMP JUMPDEST PUSH1 0x40 MLOAD DUP1 SWAP2 SUB SWAP1 LOG2 POP POP POP JUMP JUMPDEST PUSH2 0x2111 PUSH2 0x531 JUMP JUMPDEST PUSH2 0x2119 PUSH2 0x2368 JUMP JUMPDEST PUSH2 0x2122 DUP3 PUSH2 0x23C0 JUMP JUMPDEST PUSH2 0x2161 JUMPI PUSH1 0x40 MLOAD PUSH32 0x8C379A000000000000000000000000000000000000000000000000000000000 DUP2 MSTORE PUSH1 0x4 ADD PUSH2 0x2158 SWAP1 PUSH2 0x3D12 JUMP JUMPDEST PUSH1 0x40 MLOAD DUP1 SWAP2 SUB SWAP1 REVERT JUMPDEST PUSH0 PUSH1 0x8 PUSH0 DUP5 PUSH20 0xFFFFFFFFFFFFFFFFFFFFFFFFFFFFFFFFFFFFFFFF AND PUSH20 0xFFFFFFFFFFFFFFFFFFFFFFFFFFFFFFFFFFFFFFFF AND DUP2 MSTORE PUSH1 0x20 ADD SWAP1 DUP2 MSTORE PUSH1 0x20 ADD PUSH0 KECCAK256 DUP3 DUP2 SLOAD DUP2 LT PUSH2 0x21B1 JUMPI PUSH2 0x21B0 PUSH2 0x306A JUMP JUMPDEST JUMPDEST SWAP1 PUSH0 MSTORE PUSH1 0x20 PUSH0 KECCAK256 SWAP1 PUSH1 0x4 MUL ADD SWAP1 POP PUSH0 DUP2 PUSH0 ADD SLOAD GT PUSH2 0x2204 JUMPI PUSH1 0x40 MLOAD PUSH32 0x8C379A000000000000000000000000000000000000000000000000000000000 DUP2 MSTORE PUSH1 0x4 ADD PUSH2 0x21FB SWAP1 PUSH2 0x3BDA JUMP JUMPDEST PUSH1 0x40 MLOAD DUP1 SWAP2 SUB SWAP1 REVERT JUMPDEST DUP1 PUSH1 0x3 ADD PUSH0 SWAP1 SLOAD SWAP1 PUSH2 0x100 EXP SWAP1 DIV PUSH1 0xFF AND ISZERO PUSH2 0x2255 JUMPI PUSH1 0x40 MLOAD PUSH32 0x8C379A000000000000000000000000000000000000000000000000000000000 DUP2 MSTORE PUSH1 0x4 ADD PUSH2 0x224C SWAP1 PUSH2 0x3CAA JUMP JUMPDEST PUSH1 0x40 MLOAD DUP1 SWAP2 SUB SWAP1 REVERT JUMPDEST CALLVALUE DUP2 PUSH1 0x1 ADD PUSH0 DUP3 DUP3 SLOAD PUSH2 0x2268 SWAP2 SWAP1 PUSH2 0x3D30 JUMP JUMPDEST SWAP3 POP POP DUP2 SWAP1 SSTORE POP CALLVALUE PUSH1 0x7 PUSH0 CALLER PUSH20 0xFFFFFFFFFFFFFFFFFFFFFFFFFFFFFFFFFFFFFFFF AND PUSH20 0xFFFFFFFFFFFFFFFFFFFFFFFFFFFFFFFFFFFFFFFF AND DUP2 MSTORE PUSH1 0x20 ADD SWAP1 DUP2 MSTORE PUSH1 0x20 ADD PUSH0 KECCAK256 PUSH1 0x2 ADD PUSH0 DUP3 DUP3 SLOAD PUSH2 0x22BE SWAP2 SWAP1 PUSH2 0x3D30 JUMP JUMPDEST SWAP3 POP POP DUP2 SWAP1 SSTORE POP DUP3 PUSH20 0xFFFFFFFFFFFFFFFFFFFFFFFFFFFFFFFFFFFFFFFF AND PUSH32 0x14954C6FF5A56809714735FB131BD55E42938C7E5BC1A1715593B0BA52000CCF PUSH1 0x7 PUSH0 CALLER PUSH20 0xFFFFFFFFFFFFFFFFFFFFFFFFFFFFFFFFFFFFFFFF AND PUSH20 0xFFFFFFFFFFFFFFFFFFFFFFFFFFFFFFFFFFFFFFFF AND DUP2 MSTORE PUSH1 0x20 ADD SWAP1 DUP2 MSTORE PUSH1 0x20 ADD PUSH0 KECCAK256 PUSH0 ADD CALLVALUE DUP6 PUSH1 0x40 MLOAD PUSH2 0x234D SWAP4 SWAP3 SWAP2 SWAP1 PUSH2 0x3DE4 JUMP JUMPDEST PUSH1 0x40 MLOAD DUP1 SWAP2 SUB SWAP1 LOG2 POP PUSH2 0x235E PUSH2 0x23B7 JUMP JUMPDEST POP POP JUMP JUMPDEST PUSH1 0x6 SLOAD DUP2 JUMP JUMPDEST PUSH1 0x2 PUSH1 0x1 SLOAD SUB PUSH2 0x23AD JUMPI PUSH1 0x40 MLOAD PUSH32 0x8C379A000000000000000000000000000000000000000000000000000000000 DUP2 MSTORE PUSH1 0x4 ADD PUSH2 0x23A4 SWAP1 PUSH2 0x3E6A JUMP JUMPDEST PUSH1 0x40 MLOAD DUP1 SWAP2 SUB SWAP1 REVERT JUMPDEST PUSH1 0x2 PUSH1 0x1 DUP2 SWAP1 SSTORE POP JUMP JUMPDEST PUSH1 0x1 DUP1 DUP2 SWAP1 SSTORE POP JUMP JUMPDEST PUSH0 PUSH0 PUSH1 0x7 PUSH0 DUP5 PUSH20 0xFFFFFFFFFFFFFFFFFFFFFFFFFFFFFFFFFFFFFFFF AND PUSH20 0xFFFFFFFFFFFFFFFFFFFFFFFFFFFFFFFFFFFFFFFF AND DUP2 MSTORE PUSH1 0x20 ADD SWAP1 DUP2 MSTORE PUSH1 0x20 ADD PUSH0 KECCAK256 PUSH1 0x1 ADD SLOAD GT SWAP1 POP SWAP2 SWAP1 POP JUMP JUMPDEST PUSH2 0x2413 PUSH2 0x24CC JUMP JUMPDEST PUSH0 PUSH0 PUSH0 PUSH2 0x100 EXP DUP2 SLOAD DUP2 PUSH1 0xFF MUL NOT AND SWAP1 DUP4 ISZERO ISZERO MUL OR SWAP1 SSTORE POP PUSH32 0x5DB9EE0A495BF2E6FF9C91A7834C1BA4FDD244A5E8AA4E537BD38AEAE4B073AA PUSH2 0x2454 PUSH2 0x2515 JUMP JUMPDEST PUSH1 0x40 MLOAD PUSH2 0x2461 SWAP2 SWAP1 PUSH2 0x2632 JUMP JUMPDEST PUSH1 0x40 MLOAD DUP1 SWAP2 SUB SWAP1 LOG1 JUMP JUMPDEST PUSH2 0x2473 PUSH2 0x531 JUMP JUMPDEST PUSH1 0x1 PUSH0 PUSH0 PUSH2 0x100 EXP DUP2 SLOAD DUP2 PUSH1 0xFF MUL NOT AND SWAP1 DUP4 ISZERO ISZERO MUL OR SWAP1 SSTORE POP PUSH32 0x62E78CEA01BEE320CD4E420270B5EA74000D11B0C9F74754EBDBFC544B05A258 PUSH2 0x24B5 PUSH2 0x2515 JUMP JUMPDEST PUSH1 0x40 MLOAD PUSH2 0x24C2 SWAP2 SWAP1 PUSH2 0x2632 JUMP JUMPDEST PUSH1 0x40 MLOAD DUP1 SWAP2 SUB SWAP1 LOG1 JUMP JUMPDEST PUSH2 0x24D4 PUSH2 0x1442 JUMP JUMPDEST PUSH2 0x2513 JUMPI PUSH1 0x40 MLOAD PUSH32 0x8C379A000000000000000000000000000000000000000000000000000000000 DUP2 MSTORE PUSH1 0x4 ADD PUSH2 0x250A SWAP1 PUSH2 0x3ED2 JUMP JUMPDEST PUSH1 0x40 MLOAD DUP1 SWAP2 SUB SWAP1 REVERT JUMPDEST JUMP JUMPDEST PUSH0 CALLER SWAP1 POP SWAP1 JUMP JUMPDEST PUSH0 PUSH1 0x40 MLOAD SWAP1 POP SWAP1 JUMP JUMPDEST PUSH0 PUSH0 REVERT JUMPDEST PUSH0 PUSH0 REVERT JUMPDEST PUSH0 DUP2 SWAP1 POP SWAP2 SWAP1 POP JUMP JUMPDEST PUSH2 0x253F DUP2 PUSH2 0x252D JUMP JUMPDEST DUP2 EQ PUSH2 0x2549 JUMPI PUSH0 PUSH0 REVERT JUMPDEST POP JUMP JUMPDEST PUSH0 DUP2 CALLDATALOAD SWAP1 POP PUSH2 0x255A DUP2 PUSH2 0x2536 JUMP JUMPDEST SWAP3 SWAP2 POP POP JUMP JUMPDEST PUSH0 PUSH20 0xFFFFFFFFFFFFFFFFFFFFFFFFFFFFFFFFFFFFFFFF DUP3 AND SWAP1 POP SWAP2 SWAP1 POP JUMP JUMPDEST PUSH0 PUSH2 0x2589 DUP3 PUSH2 0x2560 JUMP JUMPDEST SWAP1 POP SWAP2 SWAP1 POP JUMP JUMPDEST PUSH2 0x2599 DUP2 PUSH2 0x257F JUMP JUMPDEST DUP2 EQ PUSH2 0x25A3 JUMPI PUSH0 PUSH0 REVERT JUMPDEST POP JUMP JUMPDEST PUSH0 DUP2 CALLDATALOAD SWAP1 POP PUSH2 0x25B4 DUP2 PUSH2 0x2590 JUMP JUMPDEST SWAP3 SWAP2 POP POP JUMP JUMPDEST PUSH0 PUSH0 PUSH1 0x40 DUP4 DUP6 SUB SLT ISZERO PUSH2 0x25D0 JUMPI PUSH2 0x25CF PUSH2 0x2525 JUMP JUMPDEST JUMPDEST PUSH0 PUSH2 0x25DD DUP6 DUP3 DUP7 ADD PUSH2 0x254C JUMP JUMPDEST SWAP3 POP POP PUSH1 0x20 PUSH2 0x25EE DUP6 DUP3 DUP7 ADD PUSH2 0x25A6 JUMP JUMPDEST SWAP2 POP POP SWAP3 POP SWAP3 SWAP1 POP JUMP JUMPDEST PUSH0 PUSH1 0x20 DUP3 DUP5 SUB SLT ISZERO PUSH2 0x260D JUMPI PUSH2 0x260C PUSH2 0x2525 JUMP JUMPDEST JUMPDEST PUSH0 PUSH2 0x261A DUP5 DUP3 DUP6 ADD PUSH2 0x254C JUMP JUMPDEST SWAP2 POP POP SWAP3 SWAP2 POP POP JUMP JUMPDEST PUSH2 0x262C DUP2 PUSH2 0x257F JUMP JUMPDEST DUP3 MSTORE POP POP JUMP JUMPDEST PUSH0 PUSH1 0x20 DUP3 ADD SWAP1 POP PUSH2 0x2645 PUSH0 DUP4 ADD DUP5 PUSH2 0x2623 JUMP JUMPDEST SWAP3 SWAP2 POP POP JUMP JUMPDEST PUSH0 PUSH1 0x20 DUP3 DUP5 SUB SLT ISZERO PUSH2 0x2660 JUMPI PUSH2 0x265F PUSH2 0x2525 JUMP JUMPDEST JUMPDEST PUSH0 PUSH2 0x266D DUP5 DUP3 DUP6 ADD PUSH2 0x25A6 JUMP JUMPDEST SWAP2 POP POP SWAP3 SWAP2 POP POP JUMP JUMPDEST PUSH0 DUP2 ISZERO ISZERO SWAP1 POP SWAP2 SWAP1 POP JUMP JUMPDEST PUSH2 0x268A DUP2 PUSH2 0x2676 JUMP JUMPDEST DUP3 MSTORE POP POP JUMP JUMPDEST PUSH0 PUSH1 0x20 DUP3 ADD SWAP1 POP PUSH2 0x26A3 PUSH0 DUP4 ADD DUP5 PUSH2 0x2681 JUMP JUMPDEST SWAP3 SWAP2 POP POP JUMP JUMPDEST PUSH0 PUSH0 REVERT JUMPDEST PUSH0 PUSH0 REVERT JUMPDEST PUSH0 PUSH1 0x1F NOT PUSH1 0x1F DUP4 ADD AND SWAP1 POP SWAP2 SWAP1 POP JUMP JUMPDEST PUSH32 0x4E487B7100000000000000000000000000000000000000000000000000000000 PUSH0 MSTORE PUSH1 0x41 PUSH1 0x4 MSTORE PUSH1 0x24 PUSH0 REVERT JUMPDEST PUSH2 0x26F7 DUP3 PUSH2 0x26B1 JUMP JUMPDEST DUP2 ADD DUP2 DUP2 LT PUSH8 0xFFFFFFFFFFFFFFFF DUP3 GT OR ISZERO PUSH2 0x2716 JUMPI PUSH2 0x2715 PUSH2 0x26C1 JUMP JUMPDEST JUMPDEST DUP1 PUSH1 0x40 MSTORE POP POP POP JUMP JUMPDEST PUSH0 PUSH2 0x2728 PUSH2 0x251C JUMP JUMPDEST SWAP1 POP PUSH2 0x2734 DUP3 DUP3 PUSH2 0x26EE JUMP JUMPDEST SWAP2 SWAP1 POP JUMP JUMPDEST PUSH0 PUSH8 0xFFFFFFFFFFFFFFFF DUP3 GT ISZERO PUSH2 0x2753 JUMPI PUSH2 0x2752 PUSH2 0x26C1 JUMP JUMPDEST JUMPDEST PUSH2 0x275C DUP3 PUSH2 0x26B1 JUMP JUMPDEST SWAP1 POP PUSH1 0x20 DUP2 ADD SWAP1 POP SWAP2 SWAP1 POP JUMP JUMPDEST DUP3 DUP2 DUP4 CALLDATACOPY PUSH0 DUP4 DUP4 ADD MSTORE POP POP POP JUMP JUMPDEST PUSH0 PUSH2 0x2789 PUSH2 0x2784 DUP5 PUSH2 0x2739 JUMP JUMPDEST PUSH2 0x271F JUMP JUMPDEST SWAP1 POP DUP3 DUP2 MSTORE PUSH1 0x20 DUP2 ADD DUP5 DUP5 DUP5 ADD GT ISZERO PUSH2 0x27A5 JUMPI PUSH2 0x27A4 PUSH2 0x26AD JUMP JUMPDEST JUMPDEST PUSH2 0x27B0 DUP5 DUP3 DUP6 PUSH2 0x2769 JUMP JUMPDEST POP SWAP4 SWAP3 POP POP POP JUMP JUMPDEST PUSH0 DUP3 PUSH1 0x1F DUP4 ADD SLT PUSH2 0x27CC JUMPI PUSH2 0x27CB PUSH2 0x26A9 JUMP JUMPDEST JUMPDEST DUP2 CALLDATALOAD PUSH2 0x27DC DUP5 DUP3 PUSH1 0x20 DUP7 ADD PUSH2 0x2777 JUMP JUMPDEST SWAP2 POP POP SWAP3 SWAP2 POP POP JUMP JUMPDEST PUSH0 PUSH0 PUSH0 PUSH0 PUSH1 0x80 DUP6 DUP8 SUB SLT ISZERO PUSH2 0x27FD JUMPI PUSH2 0x27FC PUSH2 0x2525 JUMP JUMPDEST JUMPDEST PUSH0 DUP6 ADD CALLDATALOAD PUSH8 0xFFFFFFFFFFFFFFFF DUP2 GT ISZERO PUSH2 0x281A JUMPI PUSH2 0x2819 PUSH2 0x2529 JUMP JUMPDEST JUMPDEST PUSH2 0x2826 DUP8 DUP3 DUP9 ADD PUSH2 0x27B8 JUMP JUMPDEST SWAP5 POP POP PUSH1 0x20 PUSH2 0x2837 DUP8 DUP3 DUP9 ADD PUSH2 0x25A6 JUMP JUMPDEST SWAP4 POP POP PUSH1 0x40 PUSH2 0x2848 DUP8 DUP3 DUP9 ADD PUSH2 0x254C JUMP JUMPDEST SWAP3 POP POP PUSH1 0x60 PUSH2 0x2859 DUP8 DUP3 DUP9 ADD PUSH2 0x254C JUMP JUMPDEST SWAP2 POP POP SWAP3 SWAP6 SWAP2 SWAP5 POP SWAP3 POP JUMP JUMPDEST PUSH2 0x286E DUP2 PUSH2 0x2676 JUMP JUMPDEST DUP2 EQ PUSH2 0x2878 JUMPI PUSH0 PUSH0 REVERT JUMPDEST POP JUMP JUMPDEST PUSH0 DUP2 CALLDATALOAD SWAP1 POP PUSH2 0x2889 DUP2 PUSH2 0x2865 JUMP JUMPDEST SWAP3 SWAP2 POP POP JUMP JUMPDEST PUSH0 PUSH0 PUSH0 PUSH1 0x60 DUP5 DUP7 SUB SLT ISZERO PUSH2 0x28A6 JUMPI PUSH2 0x28A5 PUSH2 0x2525 JUMP JUMPDEST JUMPDEST PUSH0 PUSH2 0x28B3 DUP7 DUP3 DUP8 ADD PUSH2 0x25A6 JUMP JUMPDEST SWAP4 POP POP PUSH1 0x20 PUSH2 0x28C4 DUP7 DUP3 DUP8 ADD PUSH2 0x254C JUMP JUMPDEST SWAP3 POP POP PUSH1 0x40 PUSH2 0x28D5 DUP7 DUP3 DUP8 ADD PUSH2 0x287B JUMP JUMPDEST SWAP2 POP POP SWAP3 POP SWAP3 POP SWAP3 JUMP JUMPDEST PUSH0 DUP2 MLOAD SWAP1 POP SWAP2 SWAP1 POP JUMP JUMPDEST PUSH0 DUP3 DUP3 MSTORE PUSH1 0x20 DUP3 ADD SWAP1 POP SWAP3 SWAP2 POP POP JUMP JUMPDEST PUSH0 DUP2 SWAP1 POP PUSH1 0x20 DUP3 ADD SWAP1 POP SWAP2 SWAP1 POP JUMP JUMPDEST PUSH2 0x2911 DUP2 PUSH2 0x257F JUMP JUMPDEST DUP3 MSTORE POP POP JUMP JUMPDEST PUSH0 PUSH2 0x2922 DUP4 DUP4 PUSH2 0x2908 JUMP JUMPDEST PUSH1 0x20 DUP4 ADD SWAP1 POP SWAP3 SWAP2 POP POP JUMP JUMPDEST PUSH0 PUSH1 0x20 DUP3 ADD SWAP1 POP SWAP2 SWAP1 POP JUMP JUMPDEST PUSH0 PUSH2 0x2944 DUP3 PUSH2 0x28DF JUMP JUMPDEST PUSH2 0x294E DUP2 DUP6 PUSH2 0x28E9 JUMP JUMPDEST SWAP4 POP PUSH2 0x2959 DUP4 PUSH2 0x28F9 JUMP JUMPDEST DUP1 PUSH0 JUMPDEST DUP4 DUP2 LT ISZERO PUSH2 0x2989 JUMPI DUP2 MLOAD PUSH2 0x2970 DUP9 DUP3 PUSH2 0x2917 JUMP JUMPDEST SWAP8 POP PUSH2 0x297B DUP4 PUSH2 0x292E JUMP JUMPDEST SWAP3 POP POP PUSH1 0x1 DUP2 ADD SWAP1 POP PUSH2 0x295C JUMP JUMPDEST POP DUP6 SWAP4 POP POP POP POP SWAP3 SWAP2 POP POP JUMP JUMPDEST PUSH0 PUSH1 0x20 DUP3 ADD SWAP1 POP DUP2 DUP2 SUB PUSH0 DUP4 ADD MSTORE PUSH2 0x29AE DUP2 DUP5 PUSH2 0x293A JUMP JUMPDEST SWAP1 POP SWAP3 SWAP2 POP POP JUMP JUMPDEST PUSH2 0x29BF DUP2 PUSH2 0x252D JUMP JUMPDEST DUP3 MSTORE POP POP JUMP JUMPDEST PUSH0 PUSH1 0x20 DUP3 ADD SWAP1 POP PUSH2 0x29D8 PUSH0 DUP4 ADD DUP5 PUSH2 0x29B6 JUMP JUMPDEST SWAP3 SWAP2 POP POP JUMP JUMPDEST PUSH0 PUSH0 PUSH0 PUSH1 0x60 DUP5 DUP7 SUB SLT ISZERO PUSH2 0x29F5 JUMPI PUSH2 0x29F4 PUSH2 0x2525 JUMP JUMPDEST JUMPDEST PUSH0 PUSH2 0x2A02 DUP7 DUP3 DUP8 ADD PUSH2 0x25A6 JUMP JUMPDEST SWAP4 POP POP PUSH1 0x20 PUSH2 0x2A13 DUP7 DUP3 DUP8 ADD PUSH2 0x254C JUMP JUMPDEST SWAP3 POP POP PUSH1 0x40 PUSH2 0x2A24 DUP7 DUP3 DUP8 ADD PUSH2 0x254C JUMP JUMPDEST SWAP2 POP POP SWAP3 POP SWAP3 POP SWAP3 JUMP JUMPDEST PUSH0 DUP2 MLOAD SWAP1 POP SWAP2 SWAP1 POP JUMP JUMPDEST PUSH0 DUP3 DUP3 MSTORE PUSH1 0x20 DUP3 ADD SWAP1 POP SWAP3 SWAP2 POP POP JUMP JUMPDEST PUSH0 DUP2 SWAP1 POP PUSH1 0x20 DUP3 ADD SWAP1 POP SWAP2 SWAP1 POP JUMP JUMPDEST PUSH2 0x2A60 DUP2 PUSH2 0x252D JUMP JUMPDEST DUP3 MSTORE POP POP JUMP JUMPDEST PUSH2 0x2A6F DUP2 PUSH2 0x2676 JUMP JUMPDEST DUP3 MSTORE POP POP JUMP JUMPDEST PUSH1 0x80 DUP3 ADD PUSH0 DUP3 ADD MLOAD PUSH2 0x2A89 PUSH0 DUP6 ADD DUP3 PUSH2 0x2A57 JUMP JUMPDEST POP PUSH1 0x20 DUP3 ADD MLOAD PUSH2 0x2A9C PUSH1 0x20 DUP6 ADD DUP3 PUSH2 0x2A57 JUMP JUMPDEST POP PUSH1 0x40 DUP3 ADD MLOAD PUSH2 0x2AAF PUSH1 0x40 DUP6 ADD DUP3 PUSH2 0x2A57 JUMP JUMPDEST POP PUSH1 0x60 DUP3 ADD MLOAD PUSH2 0x2AC2 PUSH1 0x60 DUP6 ADD DUP3 PUSH2 0x2A66 JUMP JUMPDEST POP POP POP POP JUMP JUMPDEST PUSH0 PUSH2 0x2AD3 DUP4 DUP4 PUSH2 0x2A75 JUMP JUMPDEST PUSH1 0x80 DUP4 ADD SWAP1 POP SWAP3 SWAP2 POP POP JUMP JUMPDEST PUSH0 PUSH1 0x20 DUP3 ADD SWAP1 POP SWAP2 SWAP1 POP JUMP JUMPDEST PUSH0 PUSH2 0x2AF5 DUP3 PUSH2 0x2A2E JUMP JUMPDEST PUSH2 0x2AFF DUP2 DUP6 PUSH2 0x2A38 JUMP JUMPDEST SWAP4 POP PUSH2 0x2B0A DUP4 PUSH2 0x2A48 JUMP JUMPDEST DUP1 PUSH0 JUMPDEST DUP4 DUP2 LT ISZERO PUSH2 0x2B3A JUMPI DUP2 MLOAD PUSH2 0x2B21 DUP9 DUP3 PUSH2 0x2AC8 JUMP JUMPDEST SWAP8 POP PUSH2 0x2B2C DUP4 PUSH2 0x2ADF JUMP JUMPDEST SWAP3 POP POP PUSH1 0x1 DUP2 ADD SWAP1 POP PUSH2 0x2B0D JUMP JUMPDEST POP DUP6 SWAP4 POP POP POP POP SWAP3 SWAP2 POP POP JUMP JUMPDEST PUSH0 PUSH1 0x20 DUP3 ADD SWAP1 POP DUP2 DUP2 SUB PUSH0 DUP4 ADD MSTORE PUSH2 0x2B5F DUP2 DUP5 PUSH2 0x2AEB JUMP JUMPDEST SWAP1 POP SWAP3 SWAP2 POP POP JUMP JUMPDEST PUSH0 DUP2 MLOAD SWAP1 POP SWAP2 SWAP1 POP JUMP JUMPDEST PUSH0 DUP3 DUP3 MSTORE PUSH1 0x20 DUP3 ADD SWAP1 POP SWAP3 SWAP2 POP POP JUMP JUMPDEST DUP3 DUP2 DUP4 MCOPY PUSH0 DUP4 DUP4 ADD MSTORE POP POP POP JUMP JUMPDEST PUSH0 PUSH2 0x2B99 DUP3 PUSH2 0x2B67 JUMP JUMPDEST PUSH2 0x2BA3 DUP2 DUP6 PUSH2 0x2B71 JUMP JUMPDEST SWAP4 POP PUSH2 0x2BB3 DUP2 DUP6 PUSH1 0x20 DUP7 ADD PUSH2 0x2B81 JUMP JUMPDEST PUSH2 0x2BBC DUP2 PUSH2 0x26B1 JUMP JUMPDEST DUP5 ADD SWAP2 POP POP SWAP3 SWAP2 POP POP JUMP JUMPDEST PUSH0 PUSH1 0x80 DUP3 ADD SWAP1 POP DUP2 DUP2 SUB PUSH0 DUP4 ADD MSTORE PUSH2 0x2BDF DUP2 DUP8 PUSH2 0x2B8F JUMP JUMPDEST SWAP1 POP PUSH2 0x2BEE PUSH1 0x20 DUP4 ADD DUP7 PUSH2 0x29B6 JUMP JUMPDEST PUSH2 0x2BFB PUSH1 0x40 DUP4 ADD DUP6 PUSH2 0x29B6 JUMP JUMPDEST PUSH2 0x2C08 PUSH1 0x60 DUP4 ADD DUP5 PUSH2 0x29B6 JUMP JUMPDEST SWAP6 SWAP5 POP POP POP POP POP JUMP JUMPDEST PUSH0 PUSH0 PUSH1 0x40 DUP4 DUP6 SUB SLT ISZERO PUSH2 0x2C27 JUMPI PUSH2 0x2C26 PUSH2 0x2525 JUMP JUMPDEST JUMPDEST PUSH0 PUSH2 0x2C34 DUP6 DUP3 DUP7 ADD PUSH2 0x25A6 JUMP JUMPDEST SWAP3 POP POP PUSH1 0x20 PUSH2 0x2C45 DUP6 DUP3 DUP7 ADD PUSH2 0x254C JUMP JUMPDEST SWAP2 POP POP SWAP3 POP SWAP3 SWAP1 POP JUMP JUMPDEST PUSH0 PUSH1 0x80 DUP3 ADD SWAP1 POP PUSH2 0x2C62 PUSH0 DUP4 ADD DUP8 PUSH2 0x29B6 JUMP JUMPDEST PUSH2 0x2C6F PUSH1 0x20 DUP4 ADD DUP7 PUSH2 0x29B6 JUMP JUMPDEST PUSH2 0x2C7C PUSH1 0x40 DUP4 ADD DUP6 PUSH2 0x29B6 JUMP JUMPDEST PUSH2 0x2C89 PUSH1 0x60 DUP4 ADD DUP5 PUSH2 0x2681 JUMP JUMPDEST SWAP6 SWAP5 POP POP POP POP POP JUMP JUMPDEST PUSH32 0x5061757361626C653A2070617573656400000000000000000000000000000000 PUSH0 DUP3 ADD MSTORE POP JUMP JUMPDEST PUSH0 PUSH2 0x2CC6 PUSH1 0x10 DUP4 PUSH2 0x2B71 JUMP JUMPDEST SWAP2 POP PUSH2 0x2CD1 DUP3 PUSH2 0x2C92 JUMP JUMPDEST PUSH1 0x20 DUP3 ADD SWAP1 POP SWAP2 SWAP1 POP JUMP JUMPDEST PUSH0 PUSH1 0x20 DUP3 ADD SWAP1 POP DUP2 DUP2 SUB PUSH0 DUP4 ADD MSTORE PUSH2 0x2CF3 DUP2 PUSH2 0x2CBA JUMP JUMPDEST SWAP1 POP SWAP2 SWAP1 POP JUMP JUMPDEST PUSH32 0x4E6F7420617574686F72697A65643A204F6E6C792061646D696E2063616E2070 PUSH0 DUP3 ADD MSTORE PUSH32 0x6572666F726D207468697320616374696F6E0000000000000000000000000000 PUSH1 0x20 DUP3 ADD MSTORE POP JUMP JUMPDEST PUSH0 PUSH2 0x2D54 PUSH1 0x32 DUP4 PUSH2 0x2B71 JUMP JUMPDEST SWAP2 POP PUSH2 0x2D5F DUP3 PUSH2 0x2CFA JUMP JUMPDEST PUSH1 0x40 DUP3 ADD SWAP1 POP SWAP2 SWAP1 POP JUMP JUMPDEST PUSH0 PUSH1 0x20 DUP3 ADD SWAP1 POP DUP2 DUP2 SUB PUSH0 DUP4 ADD MSTORE PUSH2 0x2D81 DUP2 PUSH2 0x2D48 JUMP JUMPDEST SWAP1 POP SWAP2 SWAP1 POP JUMP JUMPDEST PUSH32 0x496E73756666696369656E742062616C616E636520696E20636F6E7472616374 PUSH0 DUP3 ADD MSTORE POP JUMP JUMPDEST PUSH0 PUSH2 0x2DBC PUSH1 0x20 DUP4 PUSH2 0x2B71 JUMP JUMPDEST SWAP2 POP PUSH2 0x2DC7 DUP3 PUSH2 0x2D88 JUMP JUMPDEST PUSH1 0x20 DUP3 ADD SWAP1 POP SWAP2 SWAP1 POP JUMP JUMPDEST PUSH0 PUSH1 0x20 DUP3 ADD SWAP1 POP DUP2 DUP2 SUB PUSH0 DUP4 ADD MSTORE PUSH2 0x2DE9 DUP2 PUSH2 0x2DB0 JUMP JUMPDEST SWAP1 POP SWAP2 SWAP1 POP JUMP JUMPDEST PUSH32 0x4E6F7420617574686F72697A65643A204F6E6C792064656661756C742061646D PUSH0 DUP3 ADD MSTORE PUSH32 0x696E2063616E20706572666F726D207468697320616374696F6E000000000000 PUSH1 0x20 DUP3 ADD MSTORE POP JUMP JUMPDEST PUSH0 PUSH2 0x2E4A PUSH1 0x3A DUP4 PUSH2 0x2B71 JUMP JUMPDEST SWAP2 POP PUSH2 0x2E55 DUP3 PUSH2 0x2DF0 JUMP JUMPDEST PUSH1 0x40 DUP3 ADD SWAP1 POP SWAP2 SWAP1 POP JUMP JUMPDEST PUSH0 PUSH1 0x20 DUP3 ADD SWAP1 POP DUP2 DUP2 SUB PUSH0 DUP4 ADD MSTORE PUSH2 0x2E77 DUP2 PUSH2 0x2E3E JUMP JUMPDEST SWAP1 POP SWAP2 SWAP1 POP JUMP JUMPDEST PUSH32 0x496E76616C6964206164647265737320666F72206E65772064656661756C7420 PUSH0 DUP3 ADD MSTORE PUSH32 0x61646D696E000000000000000000000000000000000000000000000000000000 PUSH1 0x20 DUP3 ADD MSTORE POP JUMP JUMPDEST PUSH0 PUSH2 0x2ED8 PUSH1 0x25 DUP4 PUSH2 0x2B71 JUMP JUMPDEST SWAP2 POP PUSH2 0x2EE3 DUP3 PUSH2 0x2E7E JUMP JUMPDEST PUSH1 0x40 DUP3 ADD SWAP1 POP SWAP2 SWAP1 POP JUMP JUMPDEST PUSH0 PUSH1 0x20 DUP3 ADD SWAP1 POP DUP2 DUP2 SUB PUSH0 DUP4 ADD MSTORE PUSH2 0x2F05 DUP2 PUSH2 0x2ECC JUMP JUMPDEST SWAP1 POP SWAP2 SWAP1 POP JUMP JUMPDEST PUSH32 0x4D696E696D756D20636F6D6D69746D656E7420616D6F756E74206D7573742062 PUSH0 DUP3 ADD MSTORE PUSH32 0x652067726561746572207468616E207A65726F00000000000000000000000000 PUSH1 0x20 DUP3 ADD MSTORE POP JUMP JUMPDEST PUSH0 PUSH2 0x2F66 PUSH1 0x33 DUP4 PUSH2 0x2B71 JUMP JUMPDEST SWAP2 POP PUSH2 0x2F71 DUP3 PUSH2 0x2F0C JUMP JUMPDEST PUSH1 0x40 DUP3 ADD SWAP1 POP SWAP2 SWAP1 POP JUMP JUMPDEST PUSH0 PUSH1 0x20 DUP3 ADD SWAP1 POP DUP2 DUP2 SUB PUSH0 DUP4 ADD MSTORE PUSH2 0x2F93 DUP2 PUSH2 0x2F5A JUMP JUMPDEST SWAP1 POP SWAP2 SWAP1 POP JUMP JUMPDEST PUSH32 0x4E6F7420616E2061646D696E0000000000000000000000000000000000000000 PUSH0 DUP3 ADD MSTORE POP JUMP JUMPDEST PUSH0 PUSH2 0x2FCE PUSH1 0xC DUP4 PUSH2 0x2B71 JUMP JUMPDEST SWAP2 POP PUSH2 0x2FD9 DUP3 PUSH2 0x2F9A JUMP JUMPDEST PUSH1 0x20 DUP3 ADD SWAP1 POP SWAP2 SWAP1 POP JUMP JUMPDEST PUSH0 PUSH1 0x20 DUP3 ADD SWAP1 POP DUP2 DUP2 SUB PUSH0 DUP4 ADD MSTORE PUSH2 0x2FFB DUP2 PUSH2 0x2FC2 JUMP JUMPDEST SWAP1 POP SWAP2 SWAP1 POP JUMP JUMPDEST PUSH32 0x43616E6E6F742072656D6F766520746865206C6173742061646D696E00000000 PUSH0 DUP3 ADD MSTORE POP JUMP JUMPDEST PUSH0 PUSH2 0x3036 PUSH1 0x1C DUP4 PUSH2 0x2B71 JUMP JUMPDEST SWAP2 POP PUSH2 0x3041 DUP3 PUSH2 0x3002 JUMP JUMPDEST PUSH1 0x20 DUP3 ADD SWAP1 POP SWAP2 SWAP1 POP JUMP JUMPDEST PUSH0 PUSH1 0x20 DUP3 ADD SWAP1 POP DUP2 DUP2 SUB PUSH0 DUP4 ADD MSTORE PUSH2 0x3063 DUP2 PUSH2 0x302A JUMP JUMPDEST SWAP1 POP SWAP2 SWAP1 POP JUMP JUMPDEST PUSH32 0x4E487B7100000000000000000000000000000000000000000000000000000000 PUSH0 MSTORE PUSH1 0x32 PUSH1 0x4 MSTORE PUSH1 0x24 PUSH0 REVERT JUMPDEST PUSH32 0x4E487B7100000000000000000000000000000000000000000000000000000000 PUSH0 MSTORE PUSH1 0x11 PUSH1 0x4 MSTORE PUSH1 0x24 PUSH0 REVERT JUMPDEST PUSH0 PUSH2 0x30CE DUP3 PUSH2 0x252D JUMP JUMPDEST SWAP2 POP PUSH2 0x30D9 DUP4 PUSH2 0x252D JUMP JUMPDEST SWAP3 POP DUP3 DUP3 SUB SWAP1 POP DUP2 DUP2 GT ISZERO PUSH2 0x30F1 JUMPI PUSH2 0x30F0 PUSH2 0x3097 JUMP JUMPDEST JUMPDEST SWAP3 SWAP2 POP POP JUMP JUMPDEST PUSH32 0x4E487B7100000000000000000000000000000000000000000000000000000000 PUSH0 MSTORE PUSH1 0x31 PUSH1 0x4 MSTORE PUSH1 0x24 PUSH0 REVERT JUMPDEST PUSH32 0x496E76616C6964204C5020616464726573730000000000000000000000000000 PUSH0 DUP3 ADD MSTORE POP JUMP JUMPDEST PUSH0 PUSH2 0x3158 PUSH1 0x12 DUP4 PUSH2 0x2B71 JUMP JUMPDEST SWAP2 POP PUSH2 0x3163 DUP3 PUSH2 0x3124 JUMP JUMPDEST PUSH1 0x20 DUP3 ADD SWAP1 POP SWAP2 SWAP1 POP JUMP JUMPDEST PUSH0 PUSH1 0x20 DUP3 ADD SWAP1 POP DUP2 DUP2 SUB PUSH0 DUP4 ADD MSTORE PUSH2 0x3185 DUP2 PUSH2 0x314C JUMP JUMPDEST SWAP1 POP SWAP2 SWAP1 POP JUMP JUMPDEST PUSH32 0x4C5020616C726561647920657869737473000000000000000000000000000000 PUSH0 DUP3 ADD MSTORE POP JUMP JUMPDEST PUSH0 PUSH2 0x31C0 PUSH1 0x11 DUP4 PUSH2 0x2B71 JUMP JUMPDEST SWAP2 POP PUSH2 0x31CB DUP3 PUSH2 0x318C JUMP JUMPDEST PUSH1 0x20 DUP3 ADD SWAP1 POP SWAP2 SWAP1 POP JUMP JUMPDEST PUSH0 PUSH1 0x20 DUP3 ADD SWAP1 POP DUP2 DUP2 SUB PUSH0 DUP4 ADD MSTORE PUSH2 0x31ED DUP2 PUSH2 0x31B4 JUMP JUMPDEST SWAP1 POP SWAP2 SWAP1 POP JUMP JUMPDEST PUSH32 0x4E616D652063616E6E6F7420626520656D707479000000000000000000000000 PUSH0 DUP3 ADD MSTORE POP JUMP JUMPDEST PUSH0 PUSH2 0x3228 PUSH1 0x14 DUP4 PUSH2 0x2B71 JUMP JUMPDEST SWAP2 POP PUSH2 0x3233 DUP3 PUSH2 0x31F4 JUMP JUMPDEST PUSH1 0x20 DUP3 ADD SWAP1 POP SWAP2 SWAP1 POP JUMP JUMPDEST PUSH0 PUSH1 0x20 DUP3 ADD SWAP1 POP DUP2 DUP2 SUB PUSH0 DUP4 ADD MSTORE PUSH2 0x3255 DUP2 PUSH2 0x321C JUMP JUMPDEST SWAP1 POP SWAP2 SWAP1 POP JUMP JUMPDEST PUSH0 PUSH2 0x3266 DUP3 PUSH2 0x252D JUMP JUMPDEST SWAP2 POP PUSH2 0x3271 DUP4 PUSH2 0x252D JUMP JUMPDEST SWAP3 POP DUP3 DUP3 MUL PUSH2 0x327F DUP2 PUSH2 0x252D JUMP JUMPDEST SWAP2 POP DUP3 DUP3 DIV DUP5 EQ DUP4 ISZERO OR PUSH2 0x3296 JUMPI PUSH2 0x3295 PUSH2 0x3097 JUMP JUMPDEST JUMPDEST POP SWAP3 SWAP2 POP POP JUMP JUMPDEST PUSH32 0x436F6D6D69746D656E7420616D6F756E74206D75737420626520677265617465 PUSH0 DUP3 ADD MSTORE PUSH32 0x72207468616E206D696E696D756D20616D6F756E740000000000000000000000 PUSH1 0x20 DUP3 ADD MSTORE POP JUMP JUMPDEST PUSH0 PUSH2 0x32F7 PUSH1 0x35 DUP4 PUSH2 0x2B71 JUMP JUMPDEST SWAP2 POP PUSH2 0x3302 DUP3 PUSH2 0x329D JUMP JUMPDEST PUSH1 0x40 DUP3 ADD SWAP1 POP SWAP2 SWAP1 POP JUMP JUMPDEST PUSH0 PUSH1 0x20 DUP3 ADD SWAP1 POP DUP2 DUP2 SUB PUSH0 DUP4 ADD MSTORE PUSH2 0x3324 DUP2 PUSH2 0x32EB JUMP JUMPDEST SWAP1 POP SWAP2 SWAP1 POP JUMP JUMPDEST PUSH32 0x456E642054696D65206D757374206265206C61746572207468616E2074686520 PUSH0 DUP3 ADD MSTORE PUSH32 0x63757272656E742074696D652E00000000000000000000000000000000000000 PUSH1 0x20 DUP3 ADD MSTORE POP JUMP JUMPDEST PUSH0 PUSH2 0x3385 PUSH1 0x2D DUP4 PUSH2 0x2B71 JUMP JUMPDEST SWAP2 POP PUSH2 0x3390 DUP3 PUSH2 0x332B JUMP JUMPDEST PUSH1 0x40 DUP3 ADD SWAP1 POP SWAP2 SWAP1 POP JUMP JUMPDEST PUSH0 PUSH1 0x20 DUP3 ADD SWAP1 POP DUP2 DUP2 SUB PUSH0 DUP4 ADD MSTORE PUSH2 0x33B2 DUP2 PUSH2 0x3379 JUMP JUMPDEST SWAP1 POP SWAP2 SWAP1 POP JUMP JUMPDEST PUSH32 0x4E487B7100000000000000000000000000000000000000000000000000000000 PUSH0 MSTORE PUSH1 0x22 PUSH1 0x4 MSTORE PUSH1 0x24 PUSH0 REVERT JUMPDEST PUSH0 PUSH1 0x2 DUP3 DIV SWAP1 POP PUSH1 0x1 DUP3 AND DUP1 PUSH2 0x33FD JUMPI PUSH1 0x7F DUP3 AND SWAP2 POP JUMPDEST PUSH1 0x20 DUP3 LT DUP2 SUB PUSH2 0x3410 JUMPI PUSH2 0x340F PUSH2 0x33B9 JUMP JUMPDEST JUMPDEST POP SWAP2 SWAP1 POP JUMP JUMPDEST PUSH0 DUP2 SWAP1 POP DUP2 PUSH0 MSTORE PUSH1 0x20 PUSH0 KECCAK256 SWAP1 POP SWAP2 SWAP1 POP JUMP JUMPDEST PUSH0 PUSH1 0x20 PUSH1 0x1F DUP4 ADD DIV SWAP1 POP SWAP2 SWAP1 POP JUMP JUMPDEST PUSH0 DUP3 DUP3 SHL SWAP1 POP SWAP3 SWAP2 POP POP JUMP JUMPDEST PUSH0 PUSH1 0x8 DUP4 MUL PUSH2 0x3472 PUSH32 0xFFFFFFFFFFFFFFFFFFFFFFFFFFFFFFFFFFFFFFFFFFFFFFFFFFFFFFFFFFFFFFFF DUP3 PUSH2 0x3437 JUMP JUMPDEST PUSH2 0x347C DUP7 DUP4 PUSH2 0x3437 JUMP JUMPDEST SWAP6 POP DUP1 NOT DUP5 AND SWAP4 POP DUP1 DUP7 AND DUP5 OR SWAP3 POP POP POP SWAP4 SWAP3 POP POP POP JUMP JUMPDEST PUSH0 DUP2 SWAP1 POP SWAP2 SWAP1 POP JUMP JUMPDEST PUSH0 PUSH2 0x34B7 PUSH2 0x34B2 PUSH2 0x34AD DUP5 PUSH2 0x252D JUMP JUMPDEST PUSH2 0x3494 JUMP JUMPDEST PUSH2 0x252D JUMP JUMPDEST SWAP1 POP SWAP2 SWAP1 POP JUMP JUMPDEST PUSH0 DUP2 SWAP1 POP SWAP2 SWAP1 POP JUMP JUMPDEST PUSH2 0x34D0 DUP4 PUSH2 0x349D JUMP JUMPDEST PUSH2 0x34E4 PUSH2 0x34DC DUP3 PUSH2 0x34BE JUMP JUMPDEST DUP5 DUP5 SLOAD PUSH2 0x3443 JUMP JUMPDEST DUP3 SSTORE POP POP POP POP JUMP JUMPDEST PUSH0 PUSH0 SWAP1 POP SWAP1 JUMP JUMPDEST PUSH2 0x34FB PUSH2 0x34EC JUMP JUMPDEST PUSH2 0x3506 DUP2 DUP5 DUP5 PUSH2 0x34C7 JUMP JUMPDEST POP POP POP JUMP JUMPDEST JUMPDEST DUP2 DUP2 LT ISZERO PUSH2 0x3529 JUMPI PUSH2 0x351E PUSH0 DUP3 PUSH2 0x34F3 JUMP JUMPDEST PUSH1 0x1 DUP2 ADD SWAP1 POP PUSH2 0x350C JUMP JUMPDEST POP POP JUMP JUMPDEST PUSH1 0x1F DUP3 GT ISZERO PUSH2 0x356E JUMPI PUSH2 0x353F DUP2 PUSH2 0x3416 JUMP JUMPDEST PUSH2 0x3548 DUP5 PUSH2 0x3428 JUMP JUMPDEST DUP2 ADD PUSH1 0x20 DUP6 LT ISZERO PUSH2 0x3557 JUMPI DUP2 SWAP1 POP JUMPDEST PUSH2 0x356B PUSH2 0x3563 DUP6 PUSH2 0x3428 JUMP JUMPDEST DUP4 ADD DUP3 PUSH2 0x350B JUMP JUMPDEST POP POP JUMPDEST POP POP POP JUMP JUMPDEST PUSH0 DUP3 DUP3 SHR SWAP1 POP SWAP3 SWAP2 POP POP JUMP JUMPDEST PUSH0 PUSH2 0x358E PUSH0 NOT DUP5 PUSH1 0x8 MUL PUSH2 0x3573 JUMP JUMPDEST NOT DUP1 DUP4 AND SWAP2 POP POP SWAP3 SWAP2 POP POP JUMP JUMPDEST PUSH0 PUSH2 0x35A6 DUP4 DUP4 PUSH2 0x357F JUMP JUMPDEST SWAP2 POP DUP3 PUSH1 0x2 MUL DUP3 OR SWAP1 POP SWAP3 SWAP2 POP POP JUMP JUMPDEST PUSH2 0x35BF DUP3 PUSH2 0x2B67 JUMP JUMPDEST PUSH8 0xFFFFFFFFFFFFFFFF DUP2 GT ISZERO PUSH2 0x35D8 JUMPI PUSH2 0x35D7 PUSH2 0x26C1 JUMP JUMPDEST JUMPDEST PUSH2 0x35E2 DUP3 SLOAD PUSH2 0x33E6 JUMP JUMPDEST PUSH2 0x35ED DUP3 DUP3 DUP6 PUSH2 0x352D JUMP JUMPDEST PUSH0 PUSH1 0x20 SWAP1 POP PUSH1 0x1F DUP4 GT PUSH1 0x1 DUP2 EQ PUSH2 0x361E JUMPI PUSH0 DUP5 ISZERO PUSH2 0x360C JUMPI DUP3 DUP8 ADD MLOAD SWAP1 POP JUMPDEST PUSH2 0x3616 DUP6 DUP3 PUSH2 0x359B JUMP JUMPDEST DUP7 SSTORE POP PUSH2 0x367D JUMP JUMPDEST PUSH1 0x1F NOT DUP5 AND PUSH2 0x362C DUP7 PUSH2 0x3416 JUMP JUMPDEST PUSH0 JUMPDEST DUP3 DUP2 LT ISZERO PUSH2 0x3653 JUMPI DUP5 DUP10 ADD MLOAD DUP3 SSTORE PUSH1 0x1 DUP3 ADD SWAP2 POP PUSH1 0x20 DUP6 ADD SWAP5 POP PUSH1 0x20 DUP2 ADD SWAP1 POP PUSH2 0x362E JUMP JUMPDEST DUP7 DUP4 LT ISZERO PUSH2 0x3670 JUMPI DUP5 DUP10 ADD MLOAD PUSH2 0x366C PUSH1 0x1F DUP10 AND DUP3 PUSH2 0x357F JUMP JUMPDEST DUP4 SSTORE POP JUMPDEST PUSH1 0x1 PUSH1 0x2 DUP9 MUL ADD DUP9 SSTORE POP POP POP JUMPDEST POP POP POP POP POP POP JUMP JUMPDEST PUSH0 PUSH1 0x40 DUP3 ADD SWAP1 POP PUSH2 0x3698 PUSH0 DUP4 ADD DUP6 PUSH2 0x29B6 JUMP JUMPDEST PUSH2 0x36A5 PUSH1 0x20 DUP4 ADD DUP5 PUSH2 0x29B6 JUMP JUMPDEST SWAP4 SWAP3 POP POP POP JUMP JUMPDEST PUSH32 0x496E76616C6964204C5000000000000000000000000000000000000000000000 PUSH0 DUP3 ADD MSTORE POP JUMP JUMPDEST PUSH0 PUSH2 0x36E0 PUSH1 0xA DUP4 PUSH2 0x2B71 JUMP JUMPDEST SWAP2 POP PUSH2 0x36EB DUP3 PUSH2 0x36AC JUMP JUMPDEST PUSH1 0x20 DUP3 ADD SWAP1 POP SWAP2 SWAP1 POP JUMP JUMPDEST PUSH0 PUSH1 0x20 DUP3 ADD SWAP1 POP DUP2 DUP2 SUB PUSH0 DUP4 ADD MSTORE PUSH2 0x370D DUP2 PUSH2 0x36D4 JUMP JUMPDEST SWAP1 POP SWAP2 SWAP1 POP JUMP JUMPDEST PUSH0 PUSH10 0xFFFFFFFFFFFFFFFFFFFF DUP3 AND SWAP1 POP SWAP2 SWAP1 POP JUMP JUMPDEST PUSH2 0x3732 DUP2 PUSH2 0x3714 JUMP JUMPDEST DUP2 EQ PUSH2 0x373C JUMPI PUSH0 PUSH0 REVERT JUMPDEST POP JUMP JUMPDEST PUSH0 DUP2 MLOAD SWAP1 POP PUSH2 0x374D DUP2 PUSH2 0x3729 JUMP JUMPDEST SWAP3 SWAP2 POP POP JUMP JUMPDEST PUSH0 DUP2 SWAP1 POP SWAP2 SWAP1 POP JUMP JUMPDEST PUSH2 0x3765 DUP2 PUSH2 0x3753 JUMP JUMPDEST DUP2 EQ PUSH2 0x376F JUMPI PUSH0 PUSH0 REVERT JUMPDEST POP JUMP JUMPDEST PUSH0 DUP2 MLOAD SWAP1 POP PUSH2 0x3780 DUP2 PUSH2 0x375C JUMP JUMPDEST SWAP3 SWAP2 POP POP JUMP JUMPDEST PUSH0 DUP2 MLOAD SWAP1 POP PUSH2 0x3794 DUP2 PUSH2 0x2536 JUMP JUMPDEST SWAP3 SWAP2 POP POP JUMP JUMPDEST PUSH0 PUSH0 PUSH0 PUSH0 PUSH0 PUSH1 0xA0 DUP7 DUP9 SUB SLT ISZERO PUSH2 0x37B3 JUMPI PUSH2 0x37B2 PUSH2 0x2525 JUMP JUMPDEST JUMPDEST PUSH0 PUSH2 0x37C0 DUP9 DUP3 DUP10 ADD PUSH2 0x373F JUMP JUMPDEST SWAP6 POP POP PUSH1 0x20 PUSH2 0x37D1 DUP9 DUP3 DUP10 ADD PUSH2 0x3772 JUMP JUMPDEST SWAP5 POP POP PUSH1 0x40 PUSH2 0x37E2 DUP9 DUP3 DUP10 ADD PUSH2 0x3786 JUMP JUMPDEST SWAP4 POP POP PUSH1 0x60 PUSH2 0x37F3 DUP9 DUP3 DUP10 ADD PUSH2 0x3786 JUMP JUMPDEST SWAP3 POP POP PUSH1 0x80 PUSH2 0x3804 DUP9 DUP3 DUP10 ADD PUSH2 0x373F JUMP JUMPDEST SWAP2 POP POP SWAP3 SWAP6 POP SWAP3 SWAP6 SWAP1 SWAP4 POP JUMP JUMPDEST PUSH32 0x496E76616C6964204554482F5553442070726963652064617461000000000000 PUSH0 DUP3 ADD MSTORE POP JUMP JUMPDEST PUSH0 PUSH2 0x3845 PUSH1 0x1A DUP4 PUSH2 0x2B71 JUMP JUMPDEST SWAP2 POP PUSH2 0x3850 DUP3 PUSH2 0x3811 JUMP JUMPDEST PUSH1 0x20 DUP3 ADD SWAP1 POP SWAP2 SWAP1 POP JUMP JUMPDEST PUSH0 PUSH1 0x20 DUP3 ADD SWAP1 POP DUP2 DUP2 SUB PUSH0 DUP4 ADD MSTORE PUSH2 0x3872 DUP2 PUSH2 0x3839 JUMP JUMPDEST SWAP1 POP SWAP2 SWAP1 POP JUMP JUMPDEST PUSH32 0x496E76616C696420616464726573730000000000000000000000000000000000 PUSH0 DUP3 ADD MSTORE POP JUMP JUMPDEST PUSH0 PUSH2 0x38AD PUSH1 0xF DUP4 PUSH2 0x2B71 JUMP JUMPDEST SWAP2 POP PUSH2 0x38B8 DUP3 PUSH2 0x3879 JUMP JUMPDEST PUSH1 0x20 DUP3 ADD SWAP1 POP SWAP2 SWAP1 POP JUMP JUMPDEST PUSH0 PUSH1 0x20 DUP3 ADD SWAP1 POP DUP2 DUP2 SUB PUSH0 DUP4 ADD MSTORE PUSH2 0x38DA DUP2 PUSH2 0x38A1 JUMP JUMPDEST SWAP1 POP SWAP2 SWAP1 POP JUMP JUMPDEST PUSH32 0x416C726561647920616E2061646D696E00000000000000000000000000000000 PUSH0 DUP3 ADD MSTORE POP JUMP JUMPDEST PUSH0 PUSH2 0x3915 PUSH1 0x10 DUP4 PUSH2 0x2B71 JUMP JUMPDEST SWAP2 POP PUSH2 0x3920 DUP3 PUSH2 0x38E1 JUMP JUMPDEST PUSH1 0x20 DUP3 ADD SWAP1 POP SWAP2 SWAP1 POP JUMP JUMPDEST PUSH0 PUSH1 0x20 DUP3 ADD SWAP1 POP DUP2 DUP2 SUB PUSH0 DUP4 ADD MSTORE PUSH2 0x3942 DUP2 PUSH2 0x3909 JUMP JUMPDEST SWAP1 POP SWAP2 SWAP1 POP JUMP JUMPDEST PUSH32 0x4E6F7420616E204C502100000000000000000000000000000000000000000000 PUSH0 DUP3 ADD MSTORE POP JUMP JUMPDEST PUSH0 PUSH2 0x397D PUSH1 0xA DUP4 PUSH2 0x2B71 JUMP JUMPDEST SWAP2 POP PUSH2 0x3988 DUP3 PUSH2 0x3949 JUMP JUMPDEST PUSH1 0x20 DUP3 ADD SWAP1 POP SWAP2 SWAP1 POP JUMP JUMPDEST PUSH0 PUSH1 0x20 DUP3 ADD SWAP1 POP DUP2 DUP2 SUB PUSH0 DUP4 ADD MSTORE PUSH2 0x39AA DUP2 PUSH2 0x3971 JUMP JUMPDEST SWAP1 POP SWAP2 SWAP1 POP JUMP JUMPDEST PUSH32 0x436173682063616C6C20616D6F756E74206D7573742062652067726561746572 PUSH0 DUP3 ADD MSTORE PUSH32 0x207468616E207A65726F00000000000000000000000000000000000000000000 PUSH1 0x20 DUP3 ADD MSTORE POP JUMP JUMPDEST PUSH0 PUSH2 0x3A0B PUSH1 0x2A DUP4 PUSH2 0x2B71 JUMP JUMPDEST SWAP2 POP PUSH2 0x3A16 DUP3 PUSH2 0x39B1 JUMP JUMPDEST PUSH1 0x40 DUP3 ADD SWAP1 POP SWAP2 SWAP1 POP JUMP JUMPDEST PUSH0 PUSH1 0x20 DUP3 ADD SWAP1 POP DUP2 DUP2 SUB PUSH0 DUP4 ADD MSTORE PUSH2 0x3A38 DUP2 PUSH2 0x39FF JUMP JUMPDEST SWAP1 POP SWAP2 SWAP1 POP JUMP JUMPDEST PUSH32 0x446561646C696E65206D757374206265206C61746572207468616E2074686520 PUSH0 DUP3 ADD MSTORE PUSH32 0x63757272656E742074696D652E00000000000000000000000000000000000000 PUSH1 0x20 DUP3 ADD MSTORE POP JUMP JUMPDEST PUSH0 PUSH2 0x3A99 PUSH1 0x2D DUP4 PUSH2 0x2B71 JUMP JUMPDEST SWAP2 POP PUSH2 0x3AA4 DUP3 PUSH2 0x3A3F JUMP JUMPDEST PUSH1 0x40 DUP3 ADD SWAP1 POP SWAP2 SWAP1 POP JUMP JUMPDEST PUSH0 PUSH1 0x20 DUP3 ADD SWAP1 POP DUP2 DUP2 SUB PUSH0 DUP4 ADD MSTORE PUSH2 0x3AC6 DUP2 PUSH2 0x3A8D JUMP JUMPDEST SWAP1 POP SWAP2 SWAP1 POP JUMP JUMPDEST PUSH32 0x4E657720646561646C696E65206D75737420626520616674657220746865206C PUSH0 DUP3 ADD MSTORE PUSH32 0x61737420646561646C696E650000000000000000000000000000000000000000 PUSH1 0x20 DUP3 ADD MSTORE POP JUMP JUMPDEST PUSH0 PUSH2 0x3B27 PUSH1 0x2C DUP4 PUSH2 0x2B71 JUMP JUMPDEST SWAP2 POP PUSH2 0x3B32 DUP3 PUSH2 0x3ACD JUMP JUMPDEST PUSH1 0x40 DUP3 ADD SWAP1 POP SWAP2 SWAP1 POP JUMP JUMPDEST PUSH0 PUSH1 0x20 DUP3 ADD SWAP1 POP DUP2 DUP2 SUB PUSH0 DUP4 ADD MSTORE PUSH2 0x3B54 DUP2 PUSH2 0x3B1B JUMP JUMPDEST SWAP1 POP SWAP2 SWAP1 POP JUMP JUMPDEST PUSH0 PUSH1 0x60 DUP3 ADD SWAP1 POP PUSH2 0x3B6E PUSH0 DUP4 ADD DUP7 PUSH2 0x29B6 JUMP JUMPDEST PUSH2 0x3B7B PUSH1 0x20 DUP4 ADD DUP6 PUSH2 0x29B6 JUMP JUMPDEST PUSH2 0x3B88 PUSH1 0x40 DUP4 ADD DUP5 PUSH2 0x29B6 JUMP JUMPDEST SWAP5 SWAP4 POP POP POP POP JUMP JUMPDEST PUSH32 0x436173682063616C6C20646F6573206E6F742065786973740000000000000000 PUSH0 DUP3 ADD MSTORE POP JUMP JUMPDEST PUSH0 PUSH2 0x3BC4 PUSH1 0x18 DUP4 PUSH2 0x2B71 JUMP JUMPDEST SWAP2 POP PUSH2 0x3BCF DUP3 PUSH2 0x3B90 JUMP JUMPDEST PUSH1 0x20 DUP3 ADD SWAP1 POP SWAP2 SWAP1 POP JUMP JUMPDEST PUSH0 PUSH1 0x20 DUP3 ADD SWAP1 POP DUP2 DUP2 SUB PUSH0 DUP4 ADD MSTORE PUSH2 0x3BF1 DUP2 PUSH2 0x3BB8 JUMP JUMPDEST SWAP1 POP SWAP2 SWAP1 POP JUMP JUMPDEST PUSH32 0x436173682063616C6C206E6F7420657865637574656420796574000000000000 PUSH0 DUP3 ADD MSTORE POP JUMP JUMPDEST PUSH0 PUSH2 0x3C2C PUSH1 0x1A DUP4 PUSH2 0x2B71 JUMP JUMPDEST SWAP2 POP PUSH2 0x3C37 DUP3 PUSH2 0x3BF8 JUMP JUMPDEST PUSH1 0x20 DUP3 ADD SWAP1 POP SWAP2 SWAP1 POP JUMP JUMPDEST PUSH0 PUSH1 0x20 DUP3 ADD SWAP1 POP DUP2 DUP2 SUB PUSH0 DUP4 ADD MSTORE PUSH2 0x3C59 DUP2 PUSH2 0x3C20 JUMP JUMPDEST SWAP1 POP SWAP2 SWAP1 POP JUMP JUMPDEST PUSH32 0x436173682063616C6C20616C7265616479206578656375746564000000000000 PUSH0 DUP3 ADD MSTORE POP JUMP JUMPDEST PUSH0 PUSH2 0x3C94 PUSH1 0x1A DUP4 PUSH2 0x2B71 JUMP JUMPDEST SWAP2 POP PUSH2 0x3C9F DUP3 PUSH2 0x3C60 JUMP JUMPDEST PUSH1 0x20 DUP3 ADD SWAP1 POP SWAP2 SWAP1 POP JUMP JUMPDEST PUSH0 PUSH1 0x20 DUP3 ADD SWAP1 POP DUP2 DUP2 SUB PUSH0 DUP4 ADD MSTORE PUSH2 0x3CC1 DUP2 PUSH2 0x3C88 JUMP JUMPDEST SWAP1 POP SWAP2 SWAP1 POP JUMP JUMPDEST PUSH32 0x596F7520617265206E6F7420616E204C50000000000000000000000000000000 PUSH0 DUP3 ADD MSTORE POP JUMP JUMPDEST PUSH0 PUSH2 0x3CFC PUSH1 0x11 DUP4 PUSH2 0x2B71 JUMP JUMPDEST SWAP2 POP PUSH2 0x3D07 DUP3 PUSH2 0x3CC8 JUMP JUMPDEST PUSH1 0x20 DUP3 ADD SWAP1 POP SWAP2 SWAP1 POP JUMP JUMPDEST PUSH0 PUSH1 0x20 DUP3 ADD SWAP1 POP DUP2 DUP2 SUB PUSH0 DUP4 ADD MSTORE PUSH2 0x3D29 DUP2 PUSH2 0x3CF0 JUMP JUMPDEST SWAP1 POP SWAP2 SWAP1 POP JUMP JUMPDEST PUSH0 PUSH2 0x3D3A DUP3 PUSH2 0x252D JUMP JUMPDEST SWAP2 POP PUSH2 0x3D45 DUP4 PUSH2 0x252D JUMP JUMPDEST SWAP3 POP DUP3 DUP3 ADD SWAP1 POP DUP1 DUP3 GT ISZERO PUSH2 0x3D5D JUMPI PUSH2 0x3D5C PUSH2 0x3097 JUMP JUMPDEST JUMPDEST SWAP3 SWAP2 POP POP JUMP JUMPDEST PUSH0 DUP2 SLOAD PUSH2 0x3D6F DUP2 PUSH2 0x33E6 JUMP JUMPDEST PUSH2 0x3D79 DUP2 DUP7 PUSH2 0x2B71 JUMP JUMPDEST SWAP5 POP PUSH1 0x1 DUP3 AND PUSH0 DUP2 EQ PUSH2 0x3D93 JUMPI PUSH1 0x1 DUP2 EQ PUSH2 0x3DA9 JUMPI PUSH2 0x3DDB JUMP JUMPDEST PUSH1 0xFF NOT DUP4 AND DUP7 MSTORE DUP2 ISZERO ISZERO PUSH1 0x20 MUL DUP7 ADD SWAP4 POP PUSH2 0x3DDB JUMP JUMPDEST PUSH2 0x3DB2 DUP6 PUSH2 0x3416 JUMP JUMPDEST PUSH0 JUMPDEST DUP4 DUP2 LT ISZERO PUSH2 0x3DD3 JUMPI DUP2 SLOAD DUP2 DUP10 ADD MSTORE PUSH1 0x1 DUP3 ADD SWAP2 POP PUSH1 0x20 DUP2 ADD SWAP1 POP PUSH2 0x3DB4 JUMP JUMPDEST DUP1 DUP9 ADD SWAP6 POP POP POP JUMPDEST POP POP POP SWAP3 SWAP2 POP POP JUMP JUMPDEST PUSH0 PUSH1 0x60 DUP3 ADD SWAP1 POP DUP2 DUP2 SUB PUSH0 DUP4 ADD MSTORE PUSH2 0x3DFC DUP2 DUP7 PUSH2 0x3D63 JUMP JUMPDEST SWAP1 POP PUSH2 0x3E0B PUSH1 0x20 DUP4 ADD DUP6 PUSH2 0x29B6 JUMP JUMPDEST PUSH2 0x3E18 PUSH1 0x40 DUP4 ADD DUP5 PUSH2 0x29B6 JUMP JUMPDEST SWAP5 SWAP4 POP POP POP POP JUMP JUMPDEST PUSH32 0x5265656E7472616E637947756172643A207265656E7472616E742063616C6C00 PUSH0 DUP3 ADD MSTORE POP JUMP JUMPDEST PUSH0 PUSH2 0x3E54 PUSH1 0x1F DUP4 PUSH2 0x2B71 JUMP JUMPDEST SWAP2 POP PUSH2 0x3E5F DUP3 PUSH2 0x3E20 JUMP JUMPDEST PUSH1 0x20 DUP3 ADD SWAP1 POP SWAP2 SWAP1 POP JUMP JUMPDEST PUSH0 PUSH1 0x20 DUP3 ADD SWAP1 POP DUP2 DUP2 SUB PUSH0 DUP4 ADD MSTORE PUSH2 0x3E81 DUP2 PUSH2 0x3E48 JUMP JUMPDEST SWAP1 POP SWAP2 SWAP1 POP JUMP JUMPDEST PUSH32 0x5061757361626C653A206E6F7420706175736564000000000000000000000000 PUSH0 DUP3 ADD MSTORE POP JUMP JUMPDEST PUSH0 PUSH2 0x3EBC PUSH1 0x14 DUP4 PUSH2 0x2B71 JUMP JUMPDEST SWAP2 POP PUSH2 0x3EC7 DUP3 PUSH2 0x3E88 JUMP JUMPDEST PUSH1 0x20 DUP3 ADD SWAP1 POP SWAP2 SWAP1 POP JUMP JUMPDEST PUSH0 PUSH1 0x20 DUP3 ADD SWAP1 POP DUP2 DUP2 SUB PUSH0 DUP4 ADD MSTORE PUSH2 0x3EE9 DUP2 PUSH2 0x3EB0 JUMP JUMPDEST SWAP1 POP SWAP2 SWAP1 POP JUMP INVALID LOG2 PUSH5 0x6970667358 0x22 SLT KECCAK256 SMOD PUSH8 0xD31B86535AB6453B PUSH16 0xD4E2B1AB49FBA6ACC88DCA12D329661A PUSH1 0x94 PUSH25 0x663C64736F6C634300081C0033000000000000000000000000 "
	},
	"Assembly": ".code\n  PUSH 80\t\t\tcontract LPManagement is Pausa...\n  PUSH 40\t\t\tcontract LPManagement is Pausa...\n  MSTORE \t\t\tcontract LPManagement is Pausa...\n  PUSH 3635C9ADC5DEA00000\t\t\t1000 * 10**18\n  PUSH 6\t\t\tuint256 public minCommitmentAm...\n  SSTORE \t\t\tuint256 public minCommitmentAm...\n  CALLVALUE \t\t\tconstructor(address _aggregato...\n  DUP1 \t\t\tconstructor(address _aggregato...\n  ISZERO \t\t\tconstructor(address _aggregato...\n  PUSH [tag] 1\t\t\tconstructor(address _aggregato...\n  JUMPI \t\t\tconstructor(address _aggregato...\n  PUSH 0\t\t\tconstructor(address _aggregato...\n  PUSH 0\t\t\tconstructor(address _aggregato...\n  REVERT \t\t\tconstructor(address _aggregato...\ntag 1\t\t\tconstructor(address _aggregato...\n  JUMPDEST \t\t\tconstructor(address _aggregato...\n  POP \t\t\tconstructor(address _aggregato...\n  PUSH 40\t\t\tconstructor(address _aggregato...\n  MLOAD \t\t\tconstructor(address _aggregato...\n  PUSHSIZE \t\t\tconstructor(address _aggregato...\n  CODESIZE \t\t\tconstructor(address _aggregato...\n  SUB \t\t\tconstructor(address _aggregato...\n  DUP1 \t\t\tconstructor(address _aggregato...\n  PUSHSIZE \t\t\tconstructor(address _aggregato...\n  DUP4 \t\t\tconstructor(address _aggregato...\n  CODECOPY \t\t\tconstructor(address _aggregato...\n  DUP2 \t\t\tconstructor(address _aggregato...\n  DUP2 \t\t\tconstructor(address _aggregato...\n  ADD \t\t\tconstructor(address _aggregato...\n  PUSH 40\t\t\tconstructor(address _aggregato...\n  MSTORE \t\t\tconstructor(address _aggregato...\n  DUP2 \t\t\tconstructor(address _aggregato...\n  ADD \t\t\tconstructor(address _aggregato...\n  SWAP1 \t\t\tconstructor(address _aggregato...\n  PUSH [tag] 2\t\t\tconstructor(address _aggregato...\n  SWAP2 \t\t\tconstructor(address _aggregato...\n  SWAP1 \t\t\tconstructor(address _aggregato...\n  PUSH [tag] 3\t\t\tconstructor(address _aggregato...\n  JUMP \t\t\tconstructor(address _aggregato...\ntag 2\t\t\tconstructor(address _aggregato...\n  JUMPDEST \t\t\tconstructor(address _aggregato...\n  PUSH 0\t\t\t256 a\n  PUSH 0\t\t\t      u\n  PUSH 0\t\t\t      u\n  PUSH 100\t\t\t      uint256 a\n  EXP \t\t\t      uint256 a\n  DUP2 \t\t\t      uint256 a\n  SLOAD \t\t\t      uint256 a\n  DUP2 \t\t\t      uint256 a\n  PUSH FF\t\t\t      uint256 a\n  MUL \t\t\t      uint256 a\n  NOT \t\t\t      uint256 a\n  AND \t\t\t      uint256 a\n  SWAP1 \t\t\t      uint256 a\n  DUP4 \t\t\t      uint256 a\n  ISZERO \t\t\t      uint256 a\n  ISZERO \t\t\t      uint256 a\n  MUL \t\t\t      uint256 a\n  OR \t\t\t      uint256 a\n  SWAP1 \t\t\t      uint256 a\n  SSTORE \t\t\t      uint256 a\n  POP \t\t\t      uint256 a\n  PUSH 1\t\t\t(\n  DUP1 \t\t\tlId);\\n \n  DUP2 \t\t\tlId);\\n    event Penalt\n  SWAP1 \t\t\tlId);\\n    event Penalt\n  SSTORE \t\t\tlId);\\n    event Penalt\n  POP \t\t\tlId);\\n    event Penalt\n  PUSH 0\t\t\t0\n  PUSH FFFFFFFFFFFFFFFFFFFFFFFFFFFFFFFFFFFFFFFF\t\t\t_aggregatorAddress != address(...\n  AND \t\t\t_aggregatorAddress != address(...\n  DUP3 \t\t\t_aggregatorAddress\n  PUSH FFFFFFFFFFFFFFFFFFFFFFFFFFFFFFFFFFFFFFFF\t\t\t_aggregatorAddress != address(...\n  AND \t\t\t_aggregatorAddress != address(...\n  SUB \t\t\t_aggregatorAddress != address(...\n  PUSH [tag] 10\t\t\trequire(_aggregatorAddress != ...\n  JUMPI \t\t\trequire(_aggregatorAddress != ...\n  PUSH 40\t\t\trequire(_aggregatorAddress != ...\n  MLOAD \t\t\trequire(_aggregatorAddress != ...\n  PUSH 8C379A000000000000000000000000000000000000000000000000000000000\t\t\trequire(_aggregatorAddress != ...\n  DUP2 \t\t\trequire(_aggregatorAddress != ...\n  MSTORE \t\t\trequire(_aggregatorAddress != ...\n  PUSH 4\t\t\trequire(_aggregatorAddress != ...\n  ADD \t\t\trequire(_aggregatorAddress != ...\n  PUSH [tag] 11\t\t\trequire(_aggregatorAddress != ...\n  SWAP1 \t\t\trequire(_aggregatorAddress != ...\n  PUSH [tag] 12\t\t\trequire(_aggregatorAddress != ...\n  JUMP \t\t\trequire(_aggregatorAddress != ...\ntag 11\t\t\trequire(_aggregatorAddress != ...\n  JUMPDEST \t\t\trequire(_aggregatorAddress != ...\n  PUSH 40\t\t\trequire(_aggregatorAddress != ...\n  MLOAD \t\t\trequire(_aggregatorAddress != ...\n  DUP1 \t\t\trequire(_aggregatorAddress != ...\n  SWAP2 \t\t\trequire(_aggregatorAddress != ...\n  SUB \t\t\trequire(_aggregatorAddress != ...\n  SWAP1 \t\t\trequire(_aggregatorAddress != ...\n  REVERT \t\t\trequire(_aggregatorAddress != ...\ntag 10\t\t\trequire(_aggregatorAddress != ...\n  JUMPDEST \t\t\trequire(_aggregatorAddress != ...\n  PUSH 0\t\t\t0\n  PUSH FFFFFFFFFFFFFFFFFFFFFFFFFFFFFFFFFFFFFFFF\t\t\t_defaultAdmin != address(0)\n  AND \t\t\t_defaultAdmin != address(0)\n  DUP2 \t\t\t_defaultAdmin\n  PUSH FFFFFFFFFFFFFFFFFFFFFFFFFFFFFFFFFFFFFFFF\t\t\t_defaultAdmin != address(0)\n  AND \t\t\t_defaultAdmin != address(0)\n  SUB \t\t\t_defaultAdmin != address(0)\n  PUSH [tag] 13\t\t\trequire(_defaultAdmin != addre...\n  JUMPI \t\t\trequire(_defaultAdmin != addre...\n  PUSH 40\t\t\trequire(_defaultAdmin != addre...\n  MLOAD \t\t\trequire(_defaultAdmin != addre...\n  PUSH 8C379A000000000000000000000000000000000000000000000000000000000\t\t\trequire(_defaultAdmin != addre...\n  DUP2 \t\t\trequire(_defaultAdmin != addre...\n  MSTORE \t\t\trequire(_defaultAdmin != addre...\n  PUSH 4\t\t\trequire(_defaultAdmin != addre...\n  ADD \t\t\trequire(_defaultAdmin != addre...\n  PUSH [tag] 14\t\t\trequire(_defaultAdmin != addre...\n  SWAP1 \t\t\trequire(_defaultAdmin != addre...\n  PUSH [tag] 15\t\t\trequire(_defaultAdmin != addre...\n  JUMP \t\t\trequire(_defaultAdmin != addre...\ntag 14\t\t\trequire(_defaultAdmin != addre...\n  JUMPDEST \t\t\trequire(_defaultAdmin != addre...\n  PUSH 40\t\t\trequire(_defaultAdmin != addre...\n  MLOAD \t\t\trequire(_defaultAdmin != addre...\n  DUP1 \t\t\trequire(_defaultAdmin != addre...\n  SWAP2 \t\t\trequire(_defaultAdmin != addre...\n  SUB \t\t\trequire(_defaultAdmin != addre...\n  SWAP1 \t\t\trequire(_defaultAdmin != addre...\n  REVERT \t\t\trequire(_defaultAdmin != addre...\ntag 13\t\t\trequire(_defaultAdmin != addre...\n  JUMPDEST \t\t\trequire(_defaultAdmin != addre...\n  DUP2 \t\t\t_aggregatorAddress\n  PUSH 5\t\t\tethUsdPriceFeed\n  PUSH 0\t\t\tethUsdPriceFeed\n  PUSH 100\t\t\tethUsdPriceFeed = AggregatorV3...\n  EXP \t\t\tethUsdPriceFeed = AggregatorV3...\n  DUP2 \t\t\tethUsdPriceFeed = AggregatorV3...\n  SLOAD \t\t\tethUsdPriceFeed = AggregatorV3...\n  DUP2 \t\t\tethUsdPriceFeed = AggregatorV3...\n  PUSH FFFFFFFFFFFFFFFFFFFFFFFFFFFFFFFFFFFFFFFF\t\t\tethUsdPriceFeed = AggregatorV3...\n  MUL \t\t\tethUsdPriceFeed = AggregatorV3...\n  NOT \t\t\tethUsdPriceFeed = AggregatorV3...\n  AND \t\t\tethUsdPriceFeed = AggregatorV3...\n  SWAP1 \t\t\tethUsdPriceFeed = AggregatorV3...\n  DUP4 \t\t\tethUsdPriceFeed = AggregatorV3...\n  PUSH FFFFFFFFFFFFFFFFFFFFFFFFFFFFFFFFFFFFFFFF\t\t\tethUsdPriceFeed = AggregatorV3...\n  AND \t\t\tethUsdPriceFeed = AggregatorV3...\n  MUL \t\t\tethUsdPriceFeed = AggregatorV3...\n  OR \t\t\tethUsdPriceFeed = AggregatorV3...\n  SWAP1 \t\t\tethUsdPriceFeed = AggregatorV3...\n  SSTORE \t\t\tethUsdPriceFeed = AggregatorV3...\n  POP \t\t\tethUsdPriceFeed = AggregatorV3...\n  DUP1 \t\t\t_defaultAdmin\n  PUSH 4\t\t\tdefaultAdmin\n  PUSH 0\t\t\tdefaultAdmin\n  PUSH 100\t\t\tdefaultAdmin = _defaultAdmin\n  EXP \t\t\tdefaultAdmin = _defaultAdmin\n  DUP2 \t\t\tdefaultAdmin = _defaultAdmin\n  SLOAD \t\t\tdefaultAdmin = _defaultAdmin\n  DUP2 \t\t\tdefaultAdmin = _defaultAdmin\n  PUSH FFFFFFFFFFFFFFFFFFFFFFFFFFFFFFFFFFFFFFFF\t\t\tdefaultAdmin = _defaultAdmin\n  MUL \t\t\tdefaultAdmin = _defaultAdmin\n  NOT \t\t\tdefaultAdmin = _defaultAdmin\n  AND \t\t\tdefaultAdmin = _defaultAdmin\n  SWAP1 \t\t\tdefaultAdmin = _defaultAdmin\n  DUP4 \t\t\tdefaultAdmin = _defaultAdmin\n  PUSH FFFFFFFFFFFFFFFFFFFFFFFFFFFFFFFFFFFFFFFF\t\t\tdefaultAdmin = _defaultAdmin\n  AND \t\t\tdefaultAdmin = _defaultAdmin\n  MUL \t\t\tdefaultAdmin = _defaultAdmin\n  OR \t\t\tdefaultAdmin = _defaultAdmin\n  SWAP1 \t\t\tdefaultAdmin = _defaultAdmin\n  SSTORE \t\t\tdefaultAdmin = _defaultAdmin\n  POP \t\t\tdefaultAdmin = _defaultAdmin\n  PUSH [tag] 16\t\t\taddAdmin(_defaultAdmin)\n  DUP2 \t\t\t_defaultAdmin\n  PUSH [tag] 17\t\t\taddAdmin\n  PUSH 20\t\t\taddAdmin\n  SHL \t\t\taddAdmin\n  PUSH 20\t\t\taddAdmin(_defaultAdmin)\n  SHR \t\t\taddAdmin(_defaultAdmin)\n  JUMP \t\t\taddAdmin(_defaultAdmin)\ntag 16\t\t\taddAdmin(_defaultAdmin)\n  JUMPDEST \t\t\taddAdmin(_defaultAdmin)\n  POP \t\t\tconstructor(address _aggregato...\n  POP \t\t\tconstructor(address _aggregato...\n  PUSH [tag] 18\t\t\tcontract LPManagement is Pausa...\n  JUMP \t\t\tcontract LPManagement is Pausa...\ntag 17\t\t\tfunction addAdmin(address _acc...\n  JUMPDEST \t\t\tfunction addAdmin(address _acc...\n  PUSH 4\t\t\tdefaultAdmin\n  PUSH 0\t\t\tdefaultAdmin\n  SWAP1 \t\t\tdefaultAdmin\n  SLOAD \t\t\tdefaultAdmin\n  SWAP1 \t\t\tdefaultAdmin\n  PUSH 100\t\t\tdefaultAdmin\n  EXP \t\t\tdefaultAdmin\n  SWAP1 \t\t\tdefaultAdmin\n  DIV \t\t\tdefaultAdmin\n  PUSH FFFFFFFFFFFFFFFFFFFFFFFFFFFFFFFFFFFFFFFF\t\t\tdefaultAdmin\n  AND \t\t\tdefaultAdmin\n  PUSH FFFFFFFFFFFFFFFFFFFFFFFFFFFFFFFFFFFFFFFF\t\t\tmsg.sender == defaultAdmin\n  AND \t\t\tmsg.sender == defaultAdmin\n  CALLER \t\t\tmsg.sender\n  PUSH FFFFFFFFFFFFFFFFFFFFFFFFFFFFFFFFFFFFFFFF\t\t\tmsg.sender == defaultAdmin\n  AND \t\t\tmsg.sender == defaultAdmin\n  EQ \t\t\tmsg.sender == defaultAdmin\n  PUSH [tag] 20\t\t\trequire(msg.sender == defaultA...\n  JUMPI \t\t\trequire(msg.sender == defaultA...\n  PUSH 40\t\t\trequire(msg.sender == defaultA...\n  MLOAD \t\t\trequire(msg.sender == defaultA...\n  PUSH 8C379A000000000000000000000000000000000000000000000000000000000\t\t\trequire(msg.sender == defaultA...\n  DUP2 \t\t\trequire(msg.sender == defaultA...\n  MSTORE \t\t\trequire(msg.sender == defaultA...\n  PUSH 4\t\t\trequire(msg.sender == defaultA...\n  ADD \t\t\trequire(msg.sender == defaultA...\n  PUSH [tag] 21\t\t\trequire(msg.sender == defaultA...\n  SWAP1 \t\t\trequire(msg.sender == defaultA...\n  PUSH [tag] 22\t\t\trequire(msg.sender == defaultA...\n  JUMP \t\t\trequire(msg.sender == defaultA...\ntag 21\t\t\trequire(msg.sender == defaultA...\n  JUMPDEST \t\t\trequire(msg.sender == defaultA...\n  PUSH 40\t\t\trequire(msg.sender == defaultA...\n  MLOAD \t\t\trequire(msg.sender == defaultA...\n  DUP1 \t\t\trequire(msg.sender == defaultA...\n  SWAP2 \t\t\trequire(msg.sender == defaultA...\n  SUB \t\t\trequire(msg.sender == defaultA...\n  SWAP1 \t\t\trequire(msg.sender == defaultA...\n  REVERT \t\t\trequire(msg.sender == defaultA...\ntag 20\t\t\trequire(msg.sender == defaultA...\n  JUMPDEST \t\t\trequire(msg.sender == defaultA...\n  PUSH 0\t\t\t0\n  PUSH FFFFFFFFFFFFFFFFFFFFFFFFFFFFFFFFFFFFFFFF\t\t\t_account != address(0)\n  AND \t\t\t_account != address(0)\n  DUP2 \t\t\t_account\n  PUSH FFFFFFFFFFFFFFFFFFFFFFFFFFFFFFFFFFFFFFFF\t\t\t_account != address(0)\n  AND \t\t\t_account != address(0)\n  SUB \t\t\t_account != address(0)\n  PUSH [tag] 24\t\t\trequire(_account != address(0)...\n  JUMPI \t\t\trequire(_account != address(0)...\n  PUSH 40\t\t\trequire(_account != address(0)...\n  MLOAD \t\t\trequire(_account != address(0)...\n  PUSH 8C379A000000000000000000000000000000000000000000000000000000000\t\t\trequire(_account != address(0)...\n  DUP2 \t\t\trequire(_account != address(0)...\n  MSTORE \t\t\trequire(_account != address(0)...\n  PUSH 4\t\t\trequire(_account != address(0)...\n  ADD \t\t\trequire(_account != address(0)...\n  PUSH [tag] 25\t\t\trequire(_account != address(0)...\n  SWAP1 \t\t\trequire(_account != address(0)...\n  PUSH [tag] 26\t\t\trequire(_account != address(0)...\n  JUMP \t\t\trequire(_account != address(0)...\ntag 25\t\t\trequire(_account != address(0)...\n  JUMPDEST \t\t\trequire(_account != address(0)...\n  PUSH 40\t\t\trequire(_account != address(0)...\n  MLOAD \t\t\trequire(_account != address(0)...\n  DUP1 \t\t\trequire(_account != address(0)...\n  SWAP2 \t\t\trequire(_account != address(0)...\n  SUB \t\t\trequire(_account != address(0)...\n  SWAP1 \t\t\trequire(_account != address(0)...\n  REVERT \t\t\trequire(_account != address(0)...\ntag 24\t\t\trequire(_account != address(0)...\n  JUMPDEST \t\t\trequire(_account != address(0)...\n  PUSH 3\t\t\tisAdmin\n  PUSH 0\t\t\tisAdmin[_account]\n  DUP3 \t\t\t_account\n  PUSH FFFFFFFFFFFFFFFFFFFFFFFFFFFFFFFFFFFFFFFF\t\t\tisAdmin[_account]\n  AND \t\t\tisAdmin[_account]\n  PUSH FFFFFFFFFFFFFFFFFFFFFFFFFFFFFFFFFFFFFFFF\t\t\tisAdmin[_account]\n  AND \t\t\tisAdmin[_account]\n  DUP2 \t\t\tisAdmin[_account]\n  MSTORE \t\t\tisAdmin[_account]\n  PUSH 20\t\t\tisAdmin[_account]\n  ADD \t\t\tisAdmin[_account]\n  SWAP1 \t\t\tisAdmin[_account]\n  DUP2 \t\t\tisAdmin[_account]\n  MSTORE \t\t\tisAdmin[_account]\n  PUSH 20\t\t\tisAdmin[_account]\n  ADD \t\t\tisAdmin[_account]\n  PUSH 0\t\t\tisAdmin[_account]\n  KECCAK256 \t\t\tisAdmin[_account]\n  PUSH 0\t\t\tisAdmin[_account]\n  SWAP1 \t\t\tisAdmin[_account]\n  SLOAD \t\t\tisAdmin[_account]\n  SWAP1 \t\t\tisAdmin[_account]\n  PUSH 100\t\t\tisAdmin[_account]\n  EXP \t\t\tisAdmin[_account]\n  SWAP1 \t\t\tisAdmin[_account]\n  DIV \t\t\tisAdmin[_account]\n  PUSH FF\t\t\tisAdmin[_account]\n  AND \t\t\tisAdmin[_account]\n  ISZERO \t\t\t!isAdmin[_account]\n  PUSH [tag] 27\t\t\trequire(!isAdmin[_account], \"A...\n  JUMPI \t\t\trequire(!isAdmin[_account], \"A...\n  PUSH 40\t\t\trequire(!isAdmin[_account], \"A...\n  MLOAD \t\t\trequire(!isAdmin[_account], \"A...\n  PUSH 8C379A000000000000000000000000000000000000000000000000000000000\t\t\trequire(!isAdmin[_account], \"A...\n  DUP2 \t\t\trequire(!isAdmin[_account], \"A...\n  MSTORE \t\t\trequire(!isAdmin[_account], \"A...\n  PUSH 4\t\t\trequire(!isAdmin[_account], \"A...\n  ADD \t\t\trequire(!isAdmin[_account], \"A...\n  PUSH [tag] 28\t\t\trequire(!isAdmin[_account], \"A...\n  SWAP1 \t\t\trequire(!isAdmin[_account], \"A...\n  PUSH [tag] 29\t\t\trequire(!isAdmin[_account], \"A...\n  JUMP \t\t\trequire(!isAdmin[_account], \"A...\ntag 28\t\t\trequire(!isAdmin[_account], \"A...\n  JUMPDEST \t\t\trequire(!isAdmin[_account], \"A...\n  PUSH 40\t\t\trequire(!isAdmin[_account], \"A...\n  MLOAD \t\t\trequire(!isAdmin[_account], \"A...\n  DUP1 \t\t\trequire(!isAdmin[_account], \"A...\n  SWAP2 \t\t\trequire(!isAdmin[_account], \"A...\n  SUB \t\t\trequire(!isAdmin[_account], \"A...\n  SWAP1 \t\t\trequire(!isAdmin[_account], \"A...\n  REVERT \t\t\trequire(!isAdmin[_account], \"A...\ntag 27\t\t\trequire(!isAdmin[_account], \"A...\n  JUMPDEST \t\t\trequire(!isAdmin[_account], \"A...\n  PUSH 2\t\t\tadmins\n  DUP2 \t\t\t_account\n  SWAP1 \t\t\tadmins.push(_account)\n  DUP1 \t\t\tadmins.push(_account)\n  PUSH 1\t\t\tadmins.push(_account)\n  DUP2 \t\t\tadmins.push(_account)\n  SLOAD \t\t\tadmins.push(_account)\n  ADD \t\t\tadmins.push(_account)\n  DUP1 \t\t\tadmins.push(_account)\n  DUP3 \t\t\tadmins.push(_account)\n  SSTORE \t\t\tadmins.push(_account)\n  DUP1 \t\t\tadmins.push(_account)\n  SWAP2 \t\t\tadmins.push(_account)\n  POP \t\t\tadmins.push(_account)\n  POP \t\t\tadmins.push(_account)\n  PUSH 1\t\t\tadmins.push(_account)\n  SWAP1 \t\t\tadmins.push(_account)\n  SUB \t\t\tadmins.push(_account)\n  SWAP1 \t\t\tadmins.push(_account)\n  PUSH 0\t\t\tadmins.push(_account)\n  MSTORE \t\t\tadmins.push(_account)\n  PUSH 20\t\t\tadmins.push(_account)\n  PUSH 0\t\t\tadmins.push(_account)\n  KECCAK256 \t\t\tadmins.push(_account)\n  ADD \t\t\tadmins.push(_account)\n  PUSH 0\t\t\tadmins.push(_account)\n  SWAP1 \t\t\tadmins.push(_account)\n  SWAP2 \t\t\tadmins.push(_account)\n  SWAP1 \t\t\tadmins.push(_account)\n  SWAP2 \t\t\tadmins.push(_account)\n  SWAP1 \t\t\tadmins.push(_account)\n  SWAP2 \t\t\tadmins.push(_account)\n  PUSH 100\t\t\tadmins.push(_account)\n  EXP \t\t\tadmins.push(_account)\n  DUP2 \t\t\tadmins.push(_account)\n  SLOAD \t\t\tadmins.push(_account)\n  DUP2 \t\t\tadmins.push(_account)\n  PUSH FFFFFFFFFFFFFFFFFFFFFFFFFFFFFFFFFFFFFFFF\t\t\tadmins.push(_account)\n  MUL \t\t\tadmins.push(_account)\n  NOT \t\t\tadmins.push(_account)\n  AND \t\t\tadmins.push(_account)\n  SWAP1 \t\t\tadmins.push(_account)\n  DUP4 \t\t\tadmins.push(_account)\n  PUSH FFFFFFFFFFFFFFFFFFFFFFFFFFFFFFFFFFFFFFFF\t\t\tadmins.push(_account)\n  AND \t\t\tadmins.push(_account)\n  MUL \t\t\tadmins.push(_account)\n  OR \t\t\tadmins.push(_account)\n  SWAP1 \t\t\tadmins.push(_account)\n  SSTORE \t\t\tadmins.push(_account)\n  POP \t\t\tadmins.push(_account)\n  PUSH 1\t\t\ttrue\n  PUSH 3\t\t\tisAdmin\n  PUSH 0\t\t\tisAdmin[_account]\n  DUP4 \t\t\t_account\n  PUSH FFFFFFFFFFFFFFFFFFFFFFFFFFFFFFFFFFFFFFFF\t\t\tisAdmin[_account]\n  AND \t\t\tisAdmin[_account]\n  PUSH FFFFFFFFFFFFFFFFFFFFFFFFFFFFFFFFFFFFFFFF\t\t\tisAdmin[_account]\n  AND \t\t\tisAdmin[_account]\n  DUP2 \t\t\tisAdmin[_account]\n  MSTORE \t\t\tisAdmin[_account]\n  PUSH 20\t\t\tisAdmin[_account]\n  ADD \t\t\tisAdmin[_account]\n  SWAP1 \t\t\tisAdmin[_account]\n  DUP2 \t\t\tisAdmin[_account]\n  MSTORE \t\t\tisAdmin[_account]\n  PUSH 20\t\t\tisAdmin[_account]\n  ADD \t\t\tisAdmin[_account]\n  PUSH 0\t\t\tisAdmin[_account]\n  KECCAK256 \t\t\tisAdmin[_account]\n  PUSH 0\t\t\tisAdmin[_account]\n  PUSH 100\t\t\tisAdmin[_account] = true\n  EXP \t\t\tisAdmin[_account] = true\n  DUP2 \t\t\tisAdmin[_account] = true\n  SLOAD \t\t\tisAdmin[_account] = true\n  DUP2 \t\t\tisAdmin[_account] = true\n  PUSH FF\t\t\tisAdmin[_account] = true\n  MUL \t\t\tisAdmin[_account] = true\n  NOT \t\t\tisAdmin[_account] = true\n  AND \t\t\tisAdmin[_account] = true\n  SWAP1 \t\t\tisAdmin[_account] = true\n  DUP4 \t\t\tisAdmin[_account] = true\n  ISZERO \t\t\tisAdmin[_account] = true\n  ISZERO \t\t\tisAdmin[_account] = true\n  MUL \t\t\tisAdmin[_account] = true\n  OR \t\t\tisAdmin[_account] = true\n  SWAP1 \t\t\tisAdmin[_account] = true\n  SSTORE \t\t\tisAdmin[_account] = true\n  POP \t\t\tisAdmin[_account] = true\n  DUP1 \t\t\t_account\n  PUSH FFFFFFFFFFFFFFFFFFFFFFFFFFFFFFFFFFFFFFFF\t\t\tAdminAdded(_account)\n  AND \t\t\tAdminAdded(_account)\n  PUSH 44D6D25963F097AD14F29F06854A01F575648A1EF82F30E562CCD3889717E339\t\t\tAdminAdded(_account)\n  PUSH 40\t\t\tAdminAdded(_account)\n  MLOAD \t\t\tAdminAdded(_account)\n  PUSH 40\t\t\tAdminAdded(_account)\n  MLOAD \t\t\tAdminAdded(_account)\n  DUP1 \t\t\tAdminAdded(_account)\n  SWAP2 \t\t\tAdminAdded(_account)\n  SUB \t\t\tAdminAdded(_account)\n  SWAP1 \t\t\tAdminAdded(_account)\n  LOG2 \t\t\tAdminAdded(_account)\n  POP \t\t\tfunction addAdmin(address _acc...\n  JUMP \t\t\tfunction addAdmin(address _acc...\ntag 32\t\t\ts/security/Pausable.sol\";\\nimp...\n  JUMPDEST \t\t\ts/security/Pausable.sol\";\\nimp...\n  PUSH 0\t\t\to\n  PUSH 0\t\t\tk\n  REVERT \t\t\thainlink/con\ntag 34\t\t\tdmins and default admin (publi...\n  JUMPDEST \t\t\tdmins and default admin (publi...\n  PUSH 0\t\t\teading)\n  PUSH FFFFFFFFFFFFFFFFFFFFFFFFFFFFFFFFFFFFFFFF\t\t\t mapping(address => bool) publ...\n  DUP3 \t\t\tns;\\n \n  AND \t\t\tadmins;\\n    mapping(address =...\n  SWAP1 \t\t\ts[] public admins;\\n    mappin...\n  POP \t\t\ts[] public admins;\\n    mappin...\n  SWAP2 \t\t\tdmins and default admin (publi...\n  SWAP1 \t\t\tdmins and default admin (publi...\n  POP \t\t\tdmins and default admin (publi...\n  JUMP \t\t\tdmins and default admin (publi...\ntag 35\t\t\tublic defaultAdmin;\\n\\n    // ...\n  JUMPDEST \t\t\tublic defaultAdmin;\\n\\n    // ...\n  PUSH 0\t\t\tr for E\n  PUSH [tag] 55\t\t\tAggregatorV3Interface in\n  DUP3 \t\t\tace i\n  PUSH [tag] 34\t\t\tAggregatorV3Interface in\n  JUMP \t\t\tAggregatorV3Interface in\ntag 55\t\t\tAggregatorV3Interface in\n  JUMPDEST \t\t\tAggregatorV3Interface in\n  SWAP1 \t\t\te feed\\n    AggregatorV3Interf...\n  POP \t\t\te feed\\n    AggregatorV3Interf...\n  SWAP2 \t\t\tublic defaultAdmin;\\n\\n    // ...\n  SWAP1 \t\t\tublic defaultAdmin;\\n\\n    // ...\n  POP \t\t\tublic defaultAdmin;\\n\\n    // ...\n  JUMP \t\t\tublic defaultAdmin;\\n\\n    // ...\ntag 36\t\t\tdPriceFeed;\\n\\n    // Struct t...\n  JUMPDEST \t\t\tdPriceFeed;\\n\\n    // Struct t...\n  PUSH [tag] 57\t\t\ta {\\n        string name;\n  DUP2 \t\t\t name\n  PUSH [tag] 35\t\t\ta {\\n        string name;\n  JUMP \t\t\ta {\\n        string name;\ntag 57\t\t\ta {\\n        string name;\n  JUMPDEST \t\t\ta {\\n        string name;\n  DUP2 \t\t\tt LPD\n  EQ \t\t\truct LPData {\\n        string ...\n  PUSH [tag] 58\t\t\tata\\n    struct LPData {\\n    ...\n  JUMPI \t\t\tata\\n    struct LPData {\\n    ...\n  PUSH 0\t\t\t/\n  PUSH 0\t\t\t \n  REVERT \t\t\t          //\ntag 58\t\t\tata\\n    struct LPData {\\n    ...\n  JUMPDEST \t\t\tata\\n    struct LPData {\\n    ...\n  POP \t\t\tdPriceFeed;\\n\\n    // Struct t...\n  JUMP \t\t\tdPriceFeed;\\n\\n    // Struct t...\ntag 37\t\t\tP\\n        uint256 commitmentA...\n  JUMPDEST \t\t\tP\\n        uint256 commitmentA...\n  PUSH 0\t\t\tby th\n  DUP2 \t\t\tPaid; \n  MLOAD \t\t\t totalPaid;  \n  SWAP1 \t\t\t  uint256 totalPaid;  \n  POP \t\t\t  uint256 totalPaid;  \n  PUSH [tag] 60\t\t\t Amount already paid\\n        ...\n  DUP2 \t\t\t  uin\n  PUSH [tag] 36\t\t\t Amount already paid\\n        ...\n  JUMP \t\t\t Amount already paid\\n        ...\ntag 60\t\t\t Amount already paid\\n        ...\n  JUMPDEST \t\t\t Amount already paid\\n        ...\n  SWAP3 \t\t\tP\\n        uint256 commitmentA...\n  SWAP2 \t\t\tP\\n        uint256 commitmentA...\n  POP \t\t\tP\\n        uint256 commitmentA...\n  POP \t\t\tP\\n        uint256 commitmentA...\n  JUMP \t\t\tP\\n        uint256 commitmentA...\ntag 3\t\t\t // Commitment Period\\n    }\\n...\n  JUMPDEST \t\t\t // Commitment Period\\n    }\\n...\n  PUSH 0\t\t\t 10**1\n  PUSH 0\t\t\t\\n\\n    \n  PUSH 40\t\t\tt \n  DUP4 \t\t\tta\\n    st\n  DUP6 \t\t\th Call \n  SUB \t\t\t Cash Call data\\n    str\n  SLT \t\t\ttore Cash Call data\\n    struc...\n  ISZERO \t\t\to store Cash Call data\\n    st...\n  PUSH [tag] 62\t\t\to store Cash Call data\\n    st...\n  JUMPI \t\t\to store Cash Call data\\n    st...\n  PUSH [tag] 63\t\t\tCall {\\n        uint256 amount...\n  PUSH [tag] 32\t\t\tCall {\\n        uint256 amount...\n  JUMP \t\t\tCall {\\n        uint256 amount...\ntag 63\t\t\tCall {\\n        uint256 amount...\n  JUMPDEST \t\t\tCall {\\n        uint256 amount...\ntag 62\t\t\to store Cash Call data\\n    st...\n  JUMPDEST \t\t\to store Cash Call data\\n    st...\n  PUSH 0\t\t\td\n  PUSH [tag] 64\t\t\tuint256 deadline;  // Call int...\n  DUP6 \t\t\tl execu\n  DUP3 \t\t\t      \n  DUP7 \t\t\tduration\\n\n  ADD \t\t\tval duration\\n        b\n  PUSH [tag] 37\t\t\tuint256 deadline;  // Call int...\n  JUMP \t\t\tuint256 deadline;  // Call int...\ntag 64\t\t\tuint256 deadline;  // Call int...\n  JUMPDEST \t\t\tuint256 deadline;  // Call int...\n  SWAP3 \t\t\tl\\n        uint256 deadline;  ...\n  POP \t\t\tl\\n        uint256 deadline;  ...\n  POP \t\t\tmount;   // Amount paid toward...\n  PUSH 20\t\t\t\\n \n  PUSH [tag] 65\t\t\t  mapping(address => LPData) p...\n  DUP6 \t\t\tP data \n  DUP3 \t\t\t     /\n  DUP7 \t\t\tlpData;  \n  ADD \t\t\tlic lpData;         //\n  PUSH [tag] 37\t\t\t  mapping(address => LPData) p...\n  JUMP \t\t\t  mapping(address => LPData) p...\ntag 65\t\t\t  mapping(address => LPData) p...\n  JUMPDEST \t\t\t  mapping(address => LPData) p...\n  SWAP2 \t\t\tappings\\n    mapping(address =...\n  POP \t\t\tappings\\n    mapping(address =...\n  POP \t\t\te cash call has been executed\\...\n  SWAP3 \t\t\t // Commitment Period\\n    }\\n...\n  POP \t\t\t // Commitment Period\\n    }\\n...\n  SWAP3 \t\t\t // Commitment Period\\n    }\\n...\n  SWAP1 \t\t\t // Commitment Period\\n    }\\n...\n  POP \t\t\t // Commitment Period\\n    }\\n...\n  JUMP \t\t\t // Commitment Period\\n    }\\n...\ntag 38\t\t\tddress => CashCall[]) public c...\n  JUMPDEST \t\t\tddress => CashCall[]) public c...\n  PUSH 0\t\t\ts\\n    event\n  DUP3 \t\t\tindexe\n  DUP3 \t\t\tres\n  MSTORE \t\t\tSet(address indexed\n  PUSH 20\t\t\tndTi\n  DUP3 \t\t\t256\n  ADD \t\t\tuint256 endTim\n  SWAP1 \t\t\t256 amountETH, uint256 endTim\n  POP \t\t\t256 amountETH, uint256 endTim\n  SWAP3 \t\t\tddress => CashCall[]) public c...\n  SWAP2 \t\t\tddress => CashCall[]) public c...\n  POP \t\t\tddress => CashCall[]) public c...\n  POP \t\t\tddress => CashCall[]) public c...\n  JUMP \t\t\tddress => CashCall[]) public c...\ntag 39\t\t\tt PaymentMade(address indexed ...\n  JUMPDEST \t\t\tt PaymentMade(address indexed ...\n  PUSH 496E76616C69642061676772656761746F722061646472657373000000000000\t\t\tnt256 deadline);\\n    event C\n  PUSH 0\t\t\t,\n  DUP3 \t\t\t6 amou\n  ADD \t\t\tnt256 amount, \n  MSTORE \t\t\tlId, uint256 amount, uint256 d...\n  POP \t\t\tt PaymentMade(address indexed ...\n  JUMP \t\t\tt PaymentMade(address indexed ...\ntag 40\t\t\td(address indexed lp, uint256 ...\n  JUMPDEST \t\t\td(address indexed lp, uint256 ...\n  PUSH 0\t\t\tss \n  PUSH [tag] 69\t\t\t6 penaltyAmount);\\n    event A...\n  PUSH 1A\t\t\t  \n  DUP4 \t\t\tp);\n  PUSH [tag] 38\t\t\t6 penaltyAmount);\\n    event A...\n  JUMP \t\t\t6 penaltyAmount);\\n    event A...\ntag 69\t\t\t6 penaltyAmount);\\n    event A...\n  JUMPDEST \t\t\t6 penaltyAmount);\\n    event A...\n  SWAP2 \t\t\t uint256 penaltyAmount);\\n    ...\n  POP \t\t\t uint256 penaltyAmount);\\n    ...\n  PUSH [tag] 70\t\t\thdrawal(address indexed to, ui...\n  DUP3 \t\t\t);\\n\n  PUSH [tag] 39\t\t\thdrawal(address indexed to, ui...\n  JUMP \t\t\thdrawal(address indexed to, ui...\ntag 70\t\t\thdrawal(address indexed to, ui...\n  JUMPDEST \t\t\thdrawal(address indexed to, ui...\n  PUSH 20\t\t\tre\n  DUP3 \t\t\td(a\n  ADD \t\t\tmoved(addres\n  SWAP1 \t\t\tAdminRemoved(addres\n  POP \t\t\tAdminRemoved(addres\n  SWAP2 \t\t\td(address indexed lp, uint256 ...\n  SWAP1 \t\t\td(address indexed lp, uint256 ...\n  POP \t\t\td(address indexed lp, uint256 ...\n  JUMP \t\t\td(address indexed lp, uint256 ...\ntag 12\t\t\tcount);\\n    event DefaultAdmi...\n  JUMPDEST \t\t\tcount);\\n    event DefaultAdmi...\n  PUSH 0\t\t\t   r\n  PUSH 20\t\t\tss\n  DUP3 \t\t\tss != add\n  ADD \t\t\tddress != address(\n  SWAP1 \t\t\tregatorAddress != address(\n  POP \t\t\tregatorAddress != address(\n  DUP2 \t\t\tuire(_def\n  DUP2 \t\t\t   r\n  SUB \t\t\t       require(_defa\n  PUSH 0\t\t\t)\n  DUP4 \t\t\tor addres\n  ADD \t\t\tegator address\");\n  MSTORE \t\t\tid aggregator address\");\\n    ...\n  PUSH [tag] 72\t\t\ts(0), \"Invalid default admin a...\n  DUP2 \t\t\tdefa\n  PUSH [tag] 40\t\t\ts(0), \"Invalid default admin a...\n  JUMP \t\t\ts(0), \"Invalid default admin a...\ntag 72\t\t\ts(0), \"Invalid default admin a...\n  JUMPDEST \t\t\ts(0), \"Invalid default admin a...\n  SWAP1 \t\t\t= address(0), \"Invalid default...\n  POP \t\t\t= address(0), \"Invalid default...\n  SWAP2 \t\t\tcount);\\n    event DefaultAdmi...\n  SWAP1 \t\t\tcount);\\n    event DefaultAdmi...\n  POP \t\t\tcount);\\n    event DefaultAdmi...\n  JUMP \t\t\tcount);\\n    event DefaultAdmi...\ntag 41\t\t\tfaultAdmin;\\n\\n        // Init...\n  JUMPDEST \t\t\tfaultAdmin;\\n\\n        // Init...\n  PUSH 496E76616C69642064656661756C742061646D696E2061646472657373000000\t\t\t the default admin\\n    modifi...\n  PUSH 0\t\t\tr\n  DUP3 \t\t\tif sen\n  ADD \t\t\teck if sender \n  MSTORE \t\t\t  // Check if sender is the de...\n  POP \t\t\tfaultAdmin;\\n\\n        // Init...\n  JUMP \t\t\tfaultAdmin;\\n\\n        // Init...\ntag 42\t\t\tmin() {\\n        require(msg.s...\n  JUMPDEST \t\t\tmin() {\\n        require(msg.s...\n  PUSH 0\t\t\teck\n  PUSH [tag] 75\t\t\tadmin (including default admin...\n  PUSH 1D\t\t\t  \n  DUP4 \t\t\t   \n  PUSH [tag] 38\t\t\tadmin (including default admin...\n  JUMP \t\t\tadmin (including default admin...\ntag 75\t\t\tadmin (including default admin...\n  JUMPDEST \t\t\tadmin (including default admin...\n  SWAP2 \t\t\tis any admin (including defaul...\n  POP \t\t\tis any admin (including defaul...\n  PUSH [tag] 76\t\t\tsAdmin[msg.sender], \"Not autho...\n  DUP3 \t\t\t }\\n\n  PUSH [tag] 41\t\t\tsAdmin[msg.sender], \"Not autho...\n  JUMP \t\t\tsAdmin[msg.sender], \"Not autho...\ntag 76\t\t\tsAdmin[msg.sender], \"Not autho...\n  JUMPDEST \t\t\tsAdmin[msg.sender], \"Not autho...\n  PUSH 20\t\t\tge\n  DUP3 \t\t\txch\n  ADD \t\t\tSD exchange \n  SWAP1 \t\t\tt ETH-USD exchange \n  POP \t\t\tt ETH-USD exchange \n  SWAP2 \t\t\tmin() {\\n        require(msg.s...\n  SWAP1 \t\t\tmin() {\\n        require(msg.s...\n  POP \t\t\tmin() {\\n        require(msg.s...\n  JUMP \t\t\tmin() {\\n        require(msg.s...\ntag 15\t\t\tction getETHUSDCExchangeRate()...\n  JUMPDEST \t\t\tction getETHUSDCExchangeRate()...\n  PUSH 0\t\t\t 0, \n  PUSH 20\t\t\t  \n  DUP3 \t\t\tdata\");\\n\\n\n  ADD \t\t\tice data\");\\n\\n     \n  SWAP1 \t\t\tH/USD price data\");\\n\\n     \n  POP \t\t\tH/USD price data\");\\n\\n     \n  DUP2 \t\t\trices wit\n  DUP2 \t\t\tturn\n  SUB \t\t\ty return prices with\n  PUSH 0\t\t\tc\n  DUP4 \t\t\t feeds ty\n  ADD \t\t\trice feeds typica\n  MSTORE \t\t\tnlink price feeds typically re...\n  PUSH [tag] 78\t\t\t   return uint256(ethUsdPrice)...\n  DUP2 \t\t\titme\n  PUSH [tag] 42\t\t\t   return uint256(ethUsdPrice)...\n  JUMP \t\t\t   return uint256(ethUsdPrice)...\ntag 78\t\t\t   return uint256(ethUsdPrice)...\n  JUMPDEST \t\t\t   return uint256(ethUsdPrice)...\n  SWAP1 \t\t\ts.\\n        return uint256(eth...\n  POP \t\t\ts.\\n        return uint256(eth...\n  SWAP2 \t\t\tction getETHUSDCExchangeRate()...\n  SWAP1 \t\t\tction getETHUSDCExchangeRate()...\n  POP \t\t\tction getETHUSDCExchangeRate()...\n  JUMP \t\t\tction getETHUSDCExchangeRate()...\ntag 43\t\t\tSD (only default admin)\\n    f...\n  JUMPDEST \t\t\tSD (only default admin)\\n    f...\n  PUSH 4E6F7420617574686F72697A65643A204F6E6C792064656661756C742061646D\t\t\tmitmentAmountUSD > 0, \"Minimum...\n  PUSH 0\t\t\tn\n  DUP3 \t\t\tuire(_\n  ADD \t\t\t require(_minC\n  MSTORE \t\t\t        require(_minCommitment...\n  PUSH 696E2063616E20706572666F726D207468697320616374696F6E000000000000\t\t\t zero\");\\n        minCommitme\n  PUSH 20\t\t\t t\n  DUP3 \t\t\t great\n  ADD \t\t\tt be greater th\n  MSTORE \t\t\tunt must be greater than zero\"...\n  POP \t\t\tSD (only default admin)\\n    f...\n  JUMP \t\t\tSD (only default admin)\\n    f...\ntag 44\t\t\t_minCommitmentAmountUSD;\\n    ...\n  JUMPDEST \t\t\t_minCommitmentAmountUSD;\\n    ...\n  PUSH 0\t\t\tme,\n  PUSH [tag] 81\t\t\tlp,\\n        uint256 _amountET...\n  PUSH 3A\t\t\txt\n  DUP4 \t\t\t  )\n  PUSH [tag] 38\t\t\tlp,\\n        uint256 _amountET...\n  JUMP \t\t\tlp,\\n        uint256 _amountET...\ntag 81\t\t\tlp,\\n        uint256 _amountET...\n  JUMPDEST \t\t\tlp,\\n        uint256 _amountET...\n  SWAP2 \t\t\tdress _lp,\\n        uint256 _a...\n  POP \t\t\tdress _lp,\\n        uint256 _a...\n  PUSH [tag] 82\t\t\tNotPaused onlyAdmin {\\n       ...\n  DUP3 \t\t\tequ\n  PUSH [tag] 43\t\t\tNotPaused onlyAdmin {\\n       ...\n  JUMP \t\t\tNotPaused onlyAdmin {\\n       ...\ntag 82\t\t\tNotPaused onlyAdmin {\\n       ...\n  JUMPDEST \t\t\tNotPaused onlyAdmin {\\n       ...\n  PUSH 40\t\t\ty \n  DUP3 \t\t\tlre\n  ADD \t\t\tLP already e\n  SWAP1 \t\t\t_lp), \"LP already e\n  POP \t\t\t_lp), \"LP already e\n  SWAP2 \t\t\t_minCommitmentAmountUSD;\\n    ...\n  SWAP1 \t\t\t_minCommitmentAmountUSD;\\n    ...\n  POP \t\t\t_minCommitmentAmountUSD;\\n    ...\n  JUMP \t\t\t_minCommitmentAmountUSD;\\n    ...\ntag 22\t\t\t     require(bytes(_name).leng...\n  JUMPDEST \t\t\t     require(bytes(_name).leng...\n  PUSH 0\t\t\tmoun\n  PUSH 20\t\t\tun\n  DUP3 \t\t\tminimum a\n  ADD \t\t\than minimum amount\n  SWAP1 \t\t\treater than minimum amount\n  POP \t\t\treater than minimum amount\n  DUP2 \t\t\t, \"End Ti\n  DUP2 \t\t\testa\n  SUB \t\t\t.timestamp, \"End Tim\n  PUSH 0\t\t\tl\n  DUP4 \t\t\tendTime >\n  ADD \t\t\tre(_endTime > blo\n  MSTORE \t\t\t  require(_endTime > block.tim...\n  PUSH [tag] 84\t\t\tan the current time.\");\\n\\n   ...\n  DUP2 \t\t\te;\\n \n  PUSH [tag] 44\t\t\tan the current time.\");\\n\\n   ...\n  JUMP \t\t\tan the current time.\");\\n\\n   ...\ntag 84\t\t\tan the current time.\");\\n\\n   ...\n  JUMPDEST \t\t\tan the current time.\");\\n\\n   ...\n  SWAP1 \t\t\tlater than the current time.\")...\n  POP \t\t\tlater than the current time.\")...\n  SWAP2 \t\t\t     require(bytes(_name).leng...\n  SWAP1 \t\t\t     require(bytes(_name).leng...\n  POP \t\t\t     require(bytes(_name).leng...\n  JUMP \t\t\t     require(bytes(_name).leng...\ntag 45\t\t\tcommitmentAmount = _amountETH;...\n  JUMPDEST \t\t\tcommitmentAmount = _amountETH;...\n  PUSH 496E76616C696420616464726573730000000000000000000000000000000000\t\t\t _endTime);\\n    }\n  PUSH 0\t\t\tE\n  DUP3 \t\t\t _amou\n  ADD \t\t\t_lp, _amountET\n  MSTORE \t\t\tentSet(_lp, _amountETH, _endTi...\n  POP \t\t\tcommitmentAmount = _amountETH;...\n  JUMP \t\t\tcommitmentAmount = _amountETH;...\ntag 46\t\t\te a new cash call (Admin only)...\n  JUMPDEST \t\t\te a new cash call (Admin only)...\n  PUSH 0\t\t\t\\n  \n  PUSH [tag] 87\t\t\t(_lp), \"Not an LP!\");\\n       ...\n  PUSH F\t\t\tou\n  DUP4 \t\t\tll \n  PUSH [tag] 38\t\t\t(_lp), \"Not an LP!\");\\n       ...\n  JUMP \t\t\t(_lp), \"Not an LP!\");\\n       ...\ntag 87\t\t\t(_lp), \"Not an LP!\");\\n       ...\n  JUMPDEST \t\t\t(_lp), \"Not an LP!\");\\n       ...\n  SWAP2 \t\t\tre(isLP(_lp), \"Not an LP!\");\\n...\n  POP \t\t\tre(isLP(_lp), \"Not an LP!\");\\n...\n  PUSH [tag] 88\t\t\t greater than zero\");\\n       ...\n  DUP3 \t\t\t_lp\n  PUSH [tag] 45\t\t\t greater than zero\");\\n       ...\n  JUMP \t\t\t greater than zero\");\\n       ...\ntag 88\t\t\t greater than zero\");\\n       ...\n  JUMPDEST \t\t\t greater than zero\");\\n       ...\n  PUSH 20\t\t\tbe\n  DUP3 \t\t\tmus\n  ADD \t\t\tine must be \n  SWAP1 \t\t\t \"Deadline must be \n  POP \t\t\t \"Deadline must be \n  SWAP2 \t\t\te a new cash call (Admin only)...\n  SWAP1 \t\t\te a new cash call (Admin only)...\n  POP \t\t\te a new cash call (Admin only)...\n  JUMP \t\t\te a new cash call (Admin only)...\ntag 26\t\t\the current time.\");\\n        /...\n  JUMPDEST \t\t\the current time.\");\\n        /...\n  PUSH 0\t\t\t if \n  PUSH 20\t\t\t  \n  DUP3 \t\t\t 0) {\\n   \n  ADD \t\t\tth > 0) {\\n        \n  SWAP1 \t\t\tlls.length > 0) {\\n        \n  POP \t\t\tlls.length > 0) {\\n        \n  DUP2 \t\t\tingCalls.\n  DUP2 \t\t\t[exi\n  SUB \t\t\talls[existingCalls.l\n  PUSH 0\t\t\ti\n  DUP4 \t\t\tine = exi\n  ADD \t\t\teadline = existin\n  MSTORE \t\t\t6 lastDeadline = existingCalls...\n  PUSH [tag] 90\t\t\te;\\n            require(_deadl...\n  DUP2 \t\t\te ne\n  PUSH [tag] 46\t\t\te;\\n            require(_deadl...\n  JUMP \t\t\te;\\n            require(_deadl...\ntag 90\t\t\te;\\n            require(_deadl...\n  JUMPDEST \t\t\te;\\n            require(_deadl...\n  SWAP1 \t\t\t.deadline;\\n            requir...\n  POP \t\t\t.deadline;\\n            requir...\n  SWAP2 \t\t\the current time.\");\\n        /...\n  SWAP1 \t\t\the current time.\");\\n        /...\n  POP \t\t\the current time.\");\\n        /...\n  JUMP \t\t\the current time.\");\\n        /...\ntag 47\t\t\t     cashCalls[_lp].push(CashC...\n  JUMPDEST \t\t\t     cashCalls[_lp].push(CashC...\n  PUSH 416C726561647920616E2061646D696E00000000000000000000000000000000\t\t\texistingCalls.leng\n  PUSH 0\t\t\tt\n  DUP3 \t\t\tCallCr\n  ADD \t\t\tCashCallCreate\n  MSTORE \t\t\t  emit CashCallCreated(existin...\n  POP \t\t\t     cashCalls[_lp].push(CashC...\n  JUMP \t\t\t     cashCalls[_lp].push(CashC...\ntag 48\t\t\tdeadline);\\n    }\\n\\n    // Fu...\n  JUMPDEST \t\t\tdeadline);\\n    }\\n\\n    // Fu...\n  PUSH 0\t\t\tll[\n  PUSH [tag] 93\t\t\t  return cashCalls[_lp];\\n    ...\n  PUSH 10\t\t\t  \n  DUP4 \t\t\tnly\n  PUSH [tag] 38\t\t\t  return cashCalls[_lp];\\n    ...\n  JUMP \t\t\t  return cashCalls[_lp];\\n    ...\ntag 93\t\t\t  return cashCalls[_lp];\\n    ...\n  JUMPDEST \t\t\t  return cashCalls[_lp];\\n    ...\n  SWAP2 \t\t\t\\n        return cashCalls[_lp...\n  POP \t\t\t\\n        return cashCalls[_lp...\n  PUSH [tag] 94\t\t\t makePayment(address _lp, uint...\n  DUP3 \t\t\t   \n  PUSH [tag] 47\t\t\t makePayment(address _lp, uint...\n  JUMP \t\t\t makePayment(address _lp, uint...\ntag 94\t\t\t makePayment(address _lp, uint...\n  JUMPDEST \t\t\t makePayment(address _lp, uint...\n  PUSH 20\t\t\tou\n  DUP3 \t\t\t), \n  ADD \t\t\t(_lp), \"You \n  SWAP1 \t\t\tre(isLP(_lp), \"You \n  POP \t\t\tre(isLP(_lp), \"You \n  SWAP2 \t\t\tdeadline);\\n    }\\n\\n    // Fu...\n  SWAP1 \t\t\tdeadline);\\n    }\\n\\n    // Fu...\n  POP \t\t\tdeadline);\\n    }\\n\\n    // Fu...\n  JUMP \t\t\tdeadline);\\n    }\\n\\n    // Fu...\ntag 29\t\t\tP\");\\n\\n        // Retrieve th...\n  JUMPDEST \t\t\tP\");\\n\\n        // Retrieve th...\n  PUSH 0\t\t\t cal\n  PUSH 20\t\t\tec\n  DUP3 \t\t\t      // \n  ADD \t\t\t\\n\\n        // Check\n  SWAP1 \t\t\texist\");\\n\\n        // Check\n  POP \t\t\texist\");\\n\\n        // Check\n  DUP2 \t\t\tdeadline \n  DUP2 \t\t\tf th\n  SUB \t\t\tor if the deadline h\n  PUSH 0\t\t\tt\n  DUP4 \t\t\t been exe\n  ADD \t\t\t has been execute\n  MSTORE \t\t\tsh call has been executed or i...\n  PUSH [tag] 96\t\t\trequire(!cashCall.executed, \"C...\n  DUP2 \t\t\tll.p\n  PUSH [tag] 48\t\t\trequire(!cashCall.executed, \"C...\n  JUMP \t\t\trequire(!cashCall.executed, \"C...\ntag 96\t\t\trequire(!cashCall.executed, \"C...\n  JUMPDEST \t\t\trequire(!cashCall.executed, \"C...\n  SWAP1 \t\t\t        require(!cashCall.exec...\n  POP \t\t\t        require(!cashCall.exec...\n  SWAP2 \t\t\tP\");\\n\\n        // Retrieve th...\n  SWAP1 \t\t\tP\");\\n\\n        // Retrieve th...\n  POP \t\t\tP\");\\n\\n        // Retrieve th...\n  JUMP \t\t\tP\");\\n\\n        // Retrieve th...\ntag 18\t\t\tcontract LPManagement is Pausa...\n  JUMPDEST \t\t\tcontract LPManagement is Pausa...\n  PUSH #[$] 0000000000000000000000000000000000000000000000000000000000000000\t\t\tcontract LPManagement is Pausa...\n  DUP1 \t\t\tcontract LPManagement is Pausa...\n  PUSH [$] 0000000000000000000000000000000000000000000000000000000000000000\t\t\tcontract LPManagement is Pausa...\n  PUSH 0\t\t\tcontract LPManagement is Pausa...\n  CODECOPY \t\t\tcontract LPManagement is Pausa...\n  PUSH 0\t\t\tcontract LPManagement is Pausa...\n  RETURN \t\t\tcontract LPManagement is Pausa...\n.data\n  0:\n    .code\n      PUSH 80\t\t\tcontract LPManagement is Pausa...\n      PUSH 40\t\t\tcontract LPManagement is Pausa...\n      MSTORE \t\t\tcontract LPManagement is Pausa...\n      PUSH 4\t\t\tcontract LPManagement is Pausa...\n      CALLDATASIZE \t\t\tcontract LPManagement is Pausa...\n      LT \t\t\tcontract LPManagement is Pausa...\n      PUSH [tag] 1\t\t\tcontract LPManagement is Pausa...\n      JUMPI \t\t\tcontract LPManagement is Pausa...\n      PUSH 0\t\t\tcontract LPManagement is Pausa...\n      CALLDATALOAD \t\t\tcontract LPManagement is Pausa...\n      PUSH E0\t\t\tcontract LPManagement is Pausa...\n      SHR \t\t\tcontract LPManagement is Pausa...\n      DUP1 \t\t\tcontract LPManagement is Pausa...\n      PUSH 5C975ABB\t\t\tcontract LPManagement is Pausa...\n      GT \t\t\tcontract LPManagement is Pausa...\n      PUSH [tag] 26\t\t\tcontract LPManagement is Pausa...\n      JUMPI \t\t\tcontract LPManagement is Pausa...\n      DUP1 \t\t\tcontract LPManagement is Pausa...\n      PUSH B661B9DA\t\t\tcontract LPManagement is Pausa...\n      GT \t\t\tcontract LPManagement is Pausa...\n      PUSH [tag] 27\t\t\tcontract LPManagement is Pausa...\n      JUMPI \t\t\tcontract LPManagement is Pausa...\n      DUP1 \t\t\tcontract LPManagement is Pausa...\n      PUSH B661B9DA\t\t\tcontract LPManagement is Pausa...\n      EQ \t\t\tcontract LPManagement is Pausa...\n      PUSH [tag] 20\t\t\tcontract LPManagement is Pausa...\n      JUMPI \t\t\tcontract LPManagement is Pausa...\n      DUP1 \t\t\tcontract LPManagement is Pausa...\n      PUSH B9721B2E\t\t\tcontract LPManagement is Pausa...\n      EQ \t\t\tcontract LPManagement is Pausa...\n      PUSH [tag] 21\t\t\tcontract LPManagement is Pausa...\n      JUMPI \t\t\tcontract LPManagement is Pausa...\n      DUP1 \t\t\tcontract LPManagement is Pausa...\n      PUSH DE733407\t\t\tcontract LPManagement is Pausa...\n      EQ \t\t\tcontract LPManagement is Pausa...\n      PUSH [tag] 22\t\t\tcontract LPManagement is Pausa...\n      JUMPI \t\t\tcontract LPManagement is Pausa...\n      DUP1 \t\t\tcontract LPManagement is Pausa...\n      PUSH F92A5DCD\t\t\tcontract LPManagement is Pausa...\n      EQ \t\t\tcontract LPManagement is Pausa...\n      PUSH [tag] 23\t\t\tcontract LPManagement is Pausa...\n      JUMPI \t\t\tcontract LPManagement is Pausa...\n      DUP1 \t\t\tcontract LPManagement is Pausa...\n      PUSH F98CF07C\t\t\tcontract LPManagement is Pausa...\n      EQ \t\t\tcontract LPManagement is Pausa...\n      PUSH [tag] 24\t\t\tcontract LPManagement is Pausa...\n      JUMPI \t\t\tcontract LPManagement is Pausa...\n      DUP1 \t\t\tcontract LPManagement is Pausa...\n      PUSH FA646434\t\t\tcontract LPManagement is Pausa...\n      EQ \t\t\tcontract LPManagement is Pausa...\n      PUSH [tag] 25\t\t\tcontract LPManagement is Pausa...\n      JUMPI \t\t\tcontract LPManagement is Pausa...\n      PUSH [tag] 2\t\t\tcontract LPManagement is Pausa...\n      JUMP \t\t\tcontract LPManagement is Pausa...\n    tag 27\t\t\tcontract LPManagement is Pausa...\n      JUMPDEST \t\t\tcontract LPManagement is Pausa...\n      DUP1 \t\t\tcontract LPManagement is Pausa...\n      PUSH 5C975ABB\t\t\tcontract LPManagement is Pausa...\n      EQ \t\t\tcontract LPManagement is Pausa...\n      PUSH [tag] 14\t\t\tcontract LPManagement is Pausa...\n      JUMPI \t\t\tcontract LPManagement is Pausa...\n      DUP1 \t\t\tcontract LPManagement is Pausa...\n      PUSH 70480275\t\t\tcontract LPManagement is Pausa...\n      EQ \t\t\tcontract LPManagement is Pausa...\n      PUSH [tag] 15\t\t\tcontract LPManagement is Pausa...\n      JUMPI \t\t\tcontract LPManagement is Pausa...\n      DUP1 \t\t\tcontract LPManagement is Pausa...\n      PUSH 8456CB59\t\t\tcontract LPManagement is Pausa...\n      EQ \t\t\tcontract LPManagement is Pausa...\n      PUSH [tag] 16\t\t\tcontract LPManagement is Pausa...\n      JUMPI \t\t\tcontract LPManagement is Pausa...\n      DUP1 \t\t\tcontract LPManagement is Pausa...\n      PUSH 84EF8FFC\t\t\tcontract LPManagement is Pausa...\n      EQ \t\t\tcontract LPManagement is Pausa...\n      PUSH [tag] 17\t\t\tcontract LPManagement is Pausa...\n      JUMPI \t\t\tcontract LPManagement is Pausa...\n      DUP1 \t\t\tcontract LPManagement is Pausa...\n      PUSH 87D4377C\t\t\tcontract LPManagement is Pausa...\n      EQ \t\t\tcontract LPManagement is Pausa...\n      PUSH [tag] 18\t\t\tcontract LPManagement is Pausa...\n      JUMPI \t\t\tcontract LPManagement is Pausa...\n      DUP1 \t\t\tcontract LPManagement is Pausa...\n      PUSH 8C28A23A\t\t\tcontract LPManagement is Pausa...\n      EQ \t\t\tcontract LPManagement is Pausa...\n      PUSH [tag] 19\t\t\tcontract LPManagement is Pausa...\n      JUMPI \t\t\tcontract LPManagement is Pausa...\n      PUSH [tag] 2\t\t\tcontract LPManagement is Pausa...\n      JUMP \t\t\tcontract LPManagement is Pausa...\n    tag 26\t\t\tcontract LPManagement is Pausa...\n      JUMPDEST \t\t\tcontract LPManagement is Pausa...\n      DUP1 \t\t\tcontract LPManagement is Pausa...\n      PUSH 24D7806C\t\t\tcontract LPManagement is Pausa...\n      GT \t\t\tcontract LPManagement is Pausa...\n      PUSH [tag] 28\t\t\tcontract LPManagement is Pausa...\n      JUMPI \t\t\tcontract LPManagement is Pausa...\n      DUP1 \t\t\tcontract LPManagement is Pausa...\n      PUSH 24D7806C\t\t\tcontract LPManagement is Pausa...\n      EQ \t\t\tcontract LPManagement is Pausa...\n      PUSH [tag] 8\t\t\tcontract LPManagement is Pausa...\n      JUMPI \t\t\tcontract LPManagement is Pausa...\n      DUP1 \t\t\tcontract LPManagement is Pausa...\n      PUSH 2D51ACB9\t\t\tcontract LPManagement is Pausa...\n      EQ \t\t\tcontract LPManagement is Pausa...\n      PUSH [tag] 9\t\t\tcontract LPManagement is Pausa...\n      JUMPI \t\t\tcontract LPManagement is Pausa...\n      DUP1 \t\t\tcontract LPManagement is Pausa...\n      PUSH 2EBF8BD6\t\t\tcontract LPManagement is Pausa...\n      EQ \t\t\tcontract LPManagement is Pausa...\n      PUSH [tag] 10\t\t\tcontract LPManagement is Pausa...\n      JUMPI \t\t\tcontract LPManagement is Pausa...\n      DUP1 \t\t\tcontract LPManagement is Pausa...\n      PUSH 31AE450B\t\t\tcontract LPManagement is Pausa...\n      EQ \t\t\tcontract LPManagement is Pausa...\n      PUSH [tag] 11\t\t\tcontract LPManagement is Pausa...\n      JUMPI \t\t\tcontract LPManagement is Pausa...\n      DUP1 \t\t\tcontract LPManagement is Pausa...\n      PUSH 3F4BA83A\t\t\tcontract LPManagement is Pausa...\n      EQ \t\t\tcontract LPManagement is Pausa...\n      PUSH [tag] 12\t\t\tcontract LPManagement is Pausa...\n      JUMPI \t\t\tcontract LPManagement is Pausa...\n      DUP1 \t\t\tcontract LPManagement is Pausa...\n      PUSH 43BC5CD3\t\t\tcontract LPManagement is Pausa...\n      EQ \t\t\tcontract LPManagement is Pausa...\n      PUSH [tag] 13\t\t\tcontract LPManagement is Pausa...\n      JUMPI \t\t\tcontract LPManagement is Pausa...\n      PUSH [tag] 2\t\t\tcontract LPManagement is Pausa...\n      JUMP \t\t\tcontract LPManagement is Pausa...\n    tag 28\t\t\tcontract LPManagement is Pausa...\n      JUMPDEST \t\t\tcontract LPManagement is Pausa...\n      DUP1 \t\t\tcontract LPManagement is Pausa...\n      PUSH F714CE\t\t\tcontract LPManagement is Pausa...\n      EQ \t\t\tcontract LPManagement is Pausa...\n      PUSH [tag] 3\t\t\tcontract LPManagement is Pausa...\n      JUMPI \t\t\tcontract LPManagement is Pausa...\n      DUP1 \t\t\tcontract LPManagement is Pausa...\n      PUSH 14BFD6D0\t\t\tcontract LPManagement is Pausa...\n      EQ \t\t\tcontract LPManagement is Pausa...\n      PUSH [tag] 4\t\t\tcontract LPManagement is Pausa...\n      JUMPI \t\t\tcontract LPManagement is Pausa...\n      DUP1 \t\t\tcontract LPManagement is Pausa...\n      PUSH 15A41150\t\t\tcontract LPManagement is Pausa...\n      EQ \t\t\tcontract LPManagement is Pausa...\n      PUSH [tag] 5\t\t\tcontract LPManagement is Pausa...\n      JUMPI \t\t\tcontract LPManagement is Pausa...\n      DUP1 \t\t\tcontract LPManagement is Pausa...\n      PUSH 161B1349\t\t\tcontract LPManagement is Pausa...\n      EQ \t\t\tcontract LPManagement is Pausa...\n      PUSH [tag] 6\t\t\tcontract LPManagement is Pausa...\n      JUMPI \t\t\tcontract LPManagement is Pausa...\n      DUP1 \t\t\tcontract LPManagement is Pausa...\n      PUSH 1785F53C\t\t\tcontract LPManagement is Pausa...\n      EQ \t\t\tcontract LPManagement is Pausa...\n      PUSH [tag] 7\t\t\tcontract LPManagement is Pausa...\n      JUMPI \t\t\tcontract LPManagement is Pausa...\n      PUSH [tag] 2\t\t\tcontract LPManagement is Pausa...\n      JUMP \t\t\tcontract LPManagement is Pausa...\n    tag 1\t\t\tcontract LPManagement is Pausa...\n      JUMPDEST \t\t\tcontract LPManagement is Pausa...\n      CALLDATASIZE \t\t\tcontract LPManagement is Pausa...\n      PUSH [tag] 2\t\t\tcontract LPManagement is Pausa...\n      JUMPI \t\t\tcontract LPManagement is Pausa...\n      PUSH [tag] 31\t\t\tecuted\\n    }\\n\\n    /\n      PUSH [tag] 32\t\t\tecuted\\n    }\\n\\n   \n      JUMP \t\t\tecuted\\n    }\\n\\n    /\n    tag 31\t\t\tecuted\\n    }\\n\\n    /\n      JUMPDEST \t\t\tecuted\\n    }\\n\\n    /\n      STOP \t\t\tcontract LPManagement is Pausa...\n    tag 2\t\t\tcontract LPManagement is Pausa...\n      JUMPDEST \t\t\tcontract LPManagement is Pausa...\n      PUSH 0\t\t\tcontract LPManagement is Pausa...\n      PUSH 0\t\t\tcontract LPManagement is Pausa...\n      REVERT \t\t\tcontract LPManagement is Pausa...\n    tag 3\t\t\tfunction withdraw(uint256 _amo...\n      JUMPDEST \t\t\tfunction withdraw(uint256 _amo...\n      CALLVALUE \t\t\tfunction withdraw(uint256 _amo...\n      DUP1 \t\t\tfunction withdraw(uint256 _amo...\n      ISZERO \t\t\tfunction withdraw(uint256 _amo...\n      PUSH [tag] 34\t\t\tfunction withdraw(uint256 _amo...\n      JUMPI \t\t\tfunction withdraw(uint256 _amo...\n      PUSH 0\t\t\tfunction withdraw(uint256 _amo...\n      PUSH 0\t\t\tfunction withdraw(uint256 _amo...\n      REVERT \t\t\tfunction withdraw(uint256 _amo...\n    tag 34\t\t\tfunction withdraw(uint256 _amo...\n      JUMPDEST \t\t\tfunction withdraw(uint256 _amo...\n      POP \t\t\tfunction withdraw(uint256 _amo...\n      PUSH [tag] 35\t\t\tfunction withdraw(uint256 _amo...\n      PUSH 4\t\t\tfunction withdraw(uint256 _amo...\n      DUP1 \t\t\tfunction withdraw(uint256 _amo...\n      CALLDATASIZE \t\t\tfunction withdraw(uint256 _amo...\n      SUB \t\t\tfunction withdraw(uint256 _amo...\n      DUP2 \t\t\tfunction withdraw(uint256 _amo...\n      ADD \t\t\tfunction withdraw(uint256 _amo...\n      SWAP1 \t\t\tfunction withdraw(uint256 _amo...\n      PUSH [tag] 36\t\t\tfunction withdraw(uint256 _amo...\n      SWAP2 \t\t\tfunction withdraw(uint256 _amo...\n      SWAP1 \t\t\tfunction withdraw(uint256 _amo...\n      PUSH [tag] 37\t\t\tfunction withdraw(uint256 _amo...\n      JUMP \t\t\tfunction withdraw(uint256 _amo...\n    tag 36\t\t\tfunction withdraw(uint256 _amo...\n      JUMPDEST \t\t\tfunction withdraw(uint256 _amo...\n      PUSH [tag] 38\t\t\tfunction withdraw(uint256 _amo...\n      JUMP \t\t\tfunction withdraw(uint256 _amo...\n    tag 35\t\t\tfunction withdraw(uint256 _amo...\n      JUMPDEST \t\t\tfunction withdraw(uint256 _amo...\n      STOP \t\t\tfunction withdraw(uint256 _amo...\n    tag 4\t\t\taddress[] public admins\n      JUMPDEST \t\t\taddress[] public admins\n      CALLVALUE \t\t\taddress[] public admins\n      DUP1 \t\t\taddress[] public admins\n      ISZERO \t\t\taddress[] public admins\n      PUSH [tag] 39\t\t\taddress[] public admins\n      JUMPI \t\t\taddress[] public admins\n      PUSH 0\t\t\taddress[] public admins\n      PUSH 0\t\t\taddress[] public admins\n      REVERT \t\t\taddress[] public admins\n    tag 39\t\t\taddress[] public admins\n      JUMPDEST \t\t\taddress[] public admins\n      POP \t\t\taddress[] public admins\n      PUSH [tag] 40\t\t\taddress[] public admins\n      PUSH 4\t\t\taddress[] public admins\n      DUP1 \t\t\taddress[] public admins\n      CALLDATASIZE \t\t\taddress[] public admins\n      SUB \t\t\taddress[] public admins\n      DUP2 \t\t\taddress[] public admins\n      ADD \t\t\taddress[] public admins\n      SWAP1 \t\t\taddress[] public admins\n      PUSH [tag] 41\t\t\taddress[] public admins\n      SWAP2 \t\t\taddress[] public admins\n      SWAP1 \t\t\taddress[] public admins\n      PUSH [tag] 42\t\t\taddress[] public admins\n      JUMP \t\t\taddress[] public admins\n    tag 41\t\t\taddress[] public admins\n      JUMPDEST \t\t\taddress[] public admins\n      PUSH [tag] 43\t\t\taddress[] public admins\n      JUMP \t\t\taddress[] public admins\n    tag 40\t\t\taddress[] public admins\n      JUMPDEST \t\t\taddress[] public admins\n      PUSH 40\t\t\taddress[] public admins\n      MLOAD \t\t\taddress[] public admins\n      PUSH [tag] 44\t\t\taddress[] public admins\n      SWAP2 \t\t\taddress[] public admins\n      SWAP1 \t\t\taddress[] public admins\n      PUSH [tag] 45\t\t\taddress[] public admins\n      JUMP \t\t\taddress[] public admins\n    tag 44\t\t\taddress[] public admins\n      JUMPDEST \t\t\taddress[] public admins\n      PUSH 40\t\t\taddress[] public admins\n      MLOAD \t\t\taddress[] public admins\n      DUP1 \t\t\taddress[] public admins\n      SWAP2 \t\t\taddress[] public admins\n      SUB \t\t\taddress[] public admins\n      SWAP1 \t\t\taddress[] public admins\n      RETURN \t\t\taddress[] public admins\n    tag 5\t\t\tfunction setDefaultAdmin(addre...\n      JUMPDEST \t\t\tfunction setDefaultAdmin(addre...\n      CALLVALUE \t\t\tfunction setDefaultAdmin(addre...\n      DUP1 \t\t\tfunction setDefaultAdmin(addre...\n      ISZERO \t\t\tfunction setDefaultAdmin(addre...\n      PUSH [tag] 46\t\t\tfunction setDefaultAdmin(addre...\n      JUMPI \t\t\tfunction setDefaultAdmin(addre...\n      PUSH 0\t\t\tfunction setDefaultAdmin(addre...\n      PUSH 0\t\t\tfunction setDefaultAdmin(addre...\n      REVERT \t\t\tfunction setDefaultAdmin(addre...\n    tag 46\t\t\tfunction setDefaultAdmin(addre...\n      JUMPDEST \t\t\tfunction setDefaultAdmin(addre...\n      POP \t\t\tfunction setDefaultAdmin(addre...\n      PUSH [tag] 47\t\t\tfunction setDefaultAdmin(addre...\n      PUSH 4\t\t\tfunction setDefaultAdmin(addre...\n      DUP1 \t\t\tfunction setDefaultAdmin(addre...\n      CALLDATASIZE \t\t\tfunction setDefaultAdmin(addre...\n      SUB \t\t\tfunction setDefaultAdmin(addre...\n      DUP2 \t\t\tfunction setDefaultAdmin(addre...\n      ADD \t\t\tfunction setDefaultAdmin(addre...\n      SWAP1 \t\t\tfunction setDefaultAdmin(addre...\n      PUSH [tag] 48\t\t\tfunction setDefaultAdmin(addre...\n      SWAP2 \t\t\tfunction setDefaultAdmin(addre...\n      SWAP1 \t\t\tfunction setDefaultAdmin(addre...\n      PUSH [tag] 49\t\t\tfunction setDefaultAdmin(addre...\n      JUMP \t\t\tfunction setDefaultAdmin(addre...\n    tag 48\t\t\tfunction setDefaultAdmin(addre...\n      JUMPDEST \t\t\tfunction setDefaultAdmin(addre...\n      PUSH [tag] 50\t\t\tfunction setDefaultAdmin(addre...\n      JUMP \t\t\tfunction setDefaultAdmin(addre...\n    tag 47\t\t\tfunction setDefaultAdmin(addre...\n      JUMPDEST \t\t\tfunction setDefaultAdmin(addre...\n      STOP \t\t\tfunction setDefaultAdmin(addre...\n    tag 6\t\t\tfunction setMinCommitmentAmoun...\n      JUMPDEST \t\t\tfunction setMinCommitmentAmoun...\n      CALLVALUE \t\t\tfunction setMinCommitmentAmoun...\n      DUP1 \t\t\tfunction setMinCommitmentAmoun...\n      ISZERO \t\t\tfunction setMinCommitmentAmoun...\n      PUSH [tag] 51\t\t\tfunction setMinCommitmentAmoun...\n      JUMPI \t\t\tfunction setMinCommitmentAmoun...\n      PUSH 0\t\t\tfunction setMinCommitmentAmoun...\n      PUSH 0\t\t\tfunction setMinCommitmentAmoun...\n      REVERT \t\t\tfunction setMinCommitmentAmoun...\n    tag 51\t\t\tfunction setMinCommitmentAmoun...\n      JUMPDEST \t\t\tfunction setMinCommitmentAmoun...\n      POP \t\t\tfunction setMinCommitmentAmoun...\n      PUSH [tag] 52\t\t\tfunction setMinCommitmentAmoun...\n      PUSH 4\t\t\tfunction setMinCommitmentAmoun...\n      DUP1 \t\t\tfunction setMinCommitmentAmoun...\n      CALLDATASIZE \t\t\tfunction setMinCommitmentAmoun...\n      SUB \t\t\tfunction setMinCommitmentAmoun...\n      DUP2 \t\t\tfunction setMinCommitmentAmoun...\n      ADD \t\t\tfunction setMinCommitmentAmoun...\n      SWAP1 \t\t\tfunction setMinCommitmentAmoun...\n      PUSH [tag] 53\t\t\tfunction setMinCommitmentAmoun...\n      SWAP2 \t\t\tfunction setMinCommitmentAmoun...\n      SWAP1 \t\t\tfunction setMinCommitmentAmoun...\n      PUSH [tag] 42\t\t\tfunction setMinCommitmentAmoun...\n      JUMP \t\t\tfunction setMinCommitmentAmoun...\n    tag 53\t\t\tfunction setMinCommitmentAmoun...\n      JUMPDEST \t\t\tfunction setMinCommitmentAmoun...\n      PUSH [tag] 54\t\t\tfunction setMinCommitmentAmoun...\n      JUMP \t\t\tfunction setMinCommitmentAmoun...\n    tag 52\t\t\tfunction setMinCommitmentAmoun...\n      JUMPDEST \t\t\tfunction setMinCommitmentAmoun...\n      STOP \t\t\tfunction setMinCommitmentAmoun...\n    tag 7\t\t\tfunction removeAdmin(address _...\n      JUMPDEST \t\t\tfunction removeAdmin(address _...\n      CALLVALUE \t\t\tfunction removeAdmin(address _...\n      DUP1 \t\t\tfunction removeAdmin(address _...\n      ISZERO \t\t\tfunction removeAdmin(address _...\n      PUSH [tag] 55\t\t\tfunction removeAdmin(address _...\n      JUMPI \t\t\tfunction removeAdmin(address _...\n      PUSH 0\t\t\tfunction removeAdmin(address _...\n      PUSH 0\t\t\tfunction removeAdmin(address _...\n      REVERT \t\t\tfunction removeAdmin(address _...\n    tag 55\t\t\tfunction removeAdmin(address _...\n      JUMPDEST \t\t\tfunction removeAdmin(address _...\n      POP \t\t\tfunction removeAdmin(address _...\n      PUSH [tag] 56\t\t\tfunction removeAdmin(address _...\n      PUSH 4\t\t\tfunction removeAdmin(address _...\n      DUP1 \t\t\tfunction removeAdmin(address _...\n      CALLDATASIZE \t\t\tfunction removeAdmin(address _...\n      SUB \t\t\tfunction removeAdmin(address _...\n      DUP2 \t\t\tfunction removeAdmin(address _...\n      ADD \t\t\tfunction removeAdmin(address _...\n      SWAP1 \t\t\tfunction removeAdmin(address _...\n      PUSH [tag] 57\t\t\tfunction removeAdmin(address _...\n      SWAP2 \t\t\tfunction removeAdmin(address _...\n      SWAP1 \t\t\tfunction removeAdmin(address _...\n      PUSH [tag] 49\t\t\tfunction removeAdmin(address _...\n      JUMP \t\t\tfunction removeAdmin(address _...\n    tag 57\t\t\tfunction removeAdmin(address _...\n      JUMPDEST \t\t\tfunction removeAdmin(address _...\n      PUSH [tag] 58\t\t\tfunction removeAdmin(address _...\n      JUMP \t\t\tfunction removeAdmin(address _...\n    tag 56\t\t\tfunction removeAdmin(address _...\n      JUMPDEST \t\t\tfunction removeAdmin(address _...\n      STOP \t\t\tfunction removeAdmin(address _...\n    tag 8\t\t\tmapping(address => bool) publi...\n      JUMPDEST \t\t\tmapping(address => bool) publi...\n      CALLVALUE \t\t\tmapping(address => bool) publi...\n      DUP1 \t\t\tmapping(address => bool) publi...\n      ISZERO \t\t\tmapping(address => bool) publi...\n      PUSH [tag] 59\t\t\tmapping(address => bool) publi...\n      JUMPI \t\t\tmapping(address => bool) publi...\n      PUSH 0\t\t\tmapping(address => bool) publi...\n      PUSH 0\t\t\tmapping(address => bool) publi...\n      REVERT \t\t\tmapping(address => bool) publi...\n    tag 59\t\t\tmapping(address => bool) publi...\n      JUMPDEST \t\t\tmapping(address => bool) publi...\n      POP \t\t\tmapping(address => bool) publi...\n      PUSH [tag] 60\t\t\tmapping(address => bool) publi...\n      PUSH 4\t\t\tmapping(address => bool) publi...\n      DUP1 \t\t\tmapping(address => bool) publi...\n      CALLDATASIZE \t\t\tmapping(address => bool) publi...\n      SUB \t\t\tmapping(address => bool) publi...\n      DUP2 \t\t\tmapping(address => bool) publi...\n      ADD \t\t\tmapping(address => bool) publi...\n      SWAP1 \t\t\tmapping(address => bool) publi...\n      PUSH [tag] 61\t\t\tmapping(address => bool) publi...\n      SWAP2 \t\t\tmapping(address => bool) publi...\n      SWAP1 \t\t\tmapping(address => bool) publi...\n      PUSH [tag] 49\t\t\tmapping(address => bool) publi...\n      JUMP \t\t\tmapping(address => bool) publi...\n    tag 61\t\t\tmapping(address => bool) publi...\n      JUMPDEST \t\t\tmapping(address => bool) publi...\n      PUSH [tag] 62\t\t\tmapping(address => bool) publi...\n      JUMP \t\t\tmapping(address => bool) publi...\n    tag 60\t\t\tmapping(address => bool) publi...\n      JUMPDEST \t\t\tmapping(address => bool) publi...\n      PUSH 40\t\t\tmapping(address => bool) publi...\n      MLOAD \t\t\tmapping(address => bool) publi...\n      PUSH [tag] 63\t\t\tmapping(address => bool) publi...\n      SWAP2 \t\t\tmapping(address => bool) publi...\n      SWAP1 \t\t\tmapping(address => bool) publi...\n      PUSH [tag] 64\t\t\tmapping(address => bool) publi...\n      JUMP \t\t\tmapping(address => bool) publi...\n    tag 63\t\t\tmapping(address => bool) publi...\n      JUMPDEST \t\t\tmapping(address => bool) publi...\n      PUSH 40\t\t\tmapping(address => bool) publi...\n      MLOAD \t\t\tmapping(address => bool) publi...\n      DUP1 \t\t\tmapping(address => bool) publi...\n      SWAP2 \t\t\tmapping(address => bool) publi...\n      SUB \t\t\tmapping(address => bool) publi...\n      SWAP1 \t\t\tmapping(address => bool) publi...\n      RETURN \t\t\tmapping(address => bool) publi...\n    tag 9\t\t\tfunction setCommitment(\\n     ...\n      JUMPDEST \t\t\tfunction setCommitment(\\n     ...\n      CALLVALUE \t\t\tfunction setCommitment(\\n     ...\n      DUP1 \t\t\tfunction setCommitment(\\n     ...\n      ISZERO \t\t\tfunction setCommitment(\\n     ...\n      PUSH [tag] 65\t\t\tfunction setCommitment(\\n     ...\n      JUMPI \t\t\tfunction setCommitment(\\n     ...\n      PUSH 0\t\t\tfunction setCommitment(\\n     ...\n      PUSH 0\t\t\tfunction setCommitment(\\n     ...\n      REVERT \t\t\tfunction setCommitment(\\n     ...\n    tag 65\t\t\tfunction setCommitment(\\n     ...\n      JUMPDEST \t\t\tfunction setCommitment(\\n     ...\n      POP \t\t\tfunction setCommitment(\\n     ...\n      PUSH [tag] 66\t\t\tfunction setCommitment(\\n     ...\n      PUSH 4\t\t\tfunction setCommitment(\\n     ...\n      DUP1 \t\t\tfunction setCommitment(\\n     ...\n      CALLDATASIZE \t\t\tfunction setCommitment(\\n     ...\n      SUB \t\t\tfunction setCommitment(\\n     ...\n      DUP2 \t\t\tfunction setCommitment(\\n     ...\n      ADD \t\t\tfunction setCommitment(\\n     ...\n      SWAP1 \t\t\tfunction setCommitment(\\n     ...\n      PUSH [tag] 67\t\t\tfunction setCommitment(\\n     ...\n      SWAP2 \t\t\tfunction setCommitment(\\n     ...\n      SWAP1 \t\t\tfunction setCommitment(\\n     ...\n      PUSH [tag] 68\t\t\tfunction setCommitment(\\n     ...\n      JUMP \t\t\tfunction setCommitment(\\n     ...\n    tag 67\t\t\tfunction setCommitment(\\n     ...\n      JUMPDEST \t\t\tfunction setCommitment(\\n     ...\n      PUSH [tag] 69\t\t\tfunction setCommitment(\\n     ...\n      JUMP \t\t\tfunction setCommitment(\\n     ...\n    tag 66\t\t\tfunction setCommitment(\\n     ...\n      JUMPDEST \t\t\tfunction setCommitment(\\n     ...\n      STOP \t\t\tfunction setCommitment(\\n     ...\n    tag 10\t\t\tfunction applyPenalty(address ...\n      JUMPDEST \t\t\tfunction applyPenalty(address ...\n      CALLVALUE \t\t\tfunction applyPenalty(address ...\n      DUP1 \t\t\tfunction applyPenalty(address ...\n      ISZERO \t\t\tfunction applyPenalty(address ...\n      PUSH [tag] 70\t\t\tfunction applyPenalty(address ...\n      JUMPI \t\t\tfunction applyPenalty(address ...\n      PUSH 0\t\t\tfunction applyPenalty(address ...\n      PUSH 0\t\t\tfunction applyPenalty(address ...\n      REVERT \t\t\tfunction applyPenalty(address ...\n    tag 70\t\t\tfunction applyPenalty(address ...\n      JUMPDEST \t\t\tfunction applyPenalty(address ...\n      POP \t\t\tfunction applyPenalty(address ...\n      PUSH [tag] 71\t\t\tfunction applyPenalty(address ...\n      PUSH 4\t\t\tfunction applyPenalty(address ...\n      DUP1 \t\t\tfunction applyPenalty(address ...\n      CALLDATASIZE \t\t\tfunction applyPenalty(address ...\n      SUB \t\t\tfunction applyPenalty(address ...\n      DUP2 \t\t\tfunction applyPenalty(address ...\n      ADD \t\t\tfunction applyPenalty(address ...\n      SWAP1 \t\t\tfunction applyPenalty(address ...\n      PUSH [tag] 72\t\t\tfunction applyPenalty(address ...\n      SWAP2 \t\t\tfunction applyPenalty(address ...\n      SWAP1 \t\t\tfunction applyPenalty(address ...\n      PUSH [tag] 73\t\t\tfunction applyPenalty(address ...\n      JUMP \t\t\tfunction applyPenalty(address ...\n    tag 72\t\t\tfunction applyPenalty(address ...\n      JUMPDEST \t\t\tfunction applyPenalty(address ...\n      PUSH [tag] 74\t\t\tfunction applyPenalty(address ...\n      JUMP \t\t\tfunction applyPenalty(address ...\n    tag 71\t\t\tfunction applyPenalty(address ...\n      JUMPDEST \t\t\tfunction applyPenalty(address ...\n      STOP \t\t\tfunction applyPenalty(address ...\n    tag 11\t\t\tfunction getAdmins() public vi...\n      JUMPDEST \t\t\tfunction getAdmins() public vi...\n      CALLVALUE \t\t\tfunction getAdmins() public vi...\n      DUP1 \t\t\tfunction getAdmins() public vi...\n      ISZERO \t\t\tfunction getAdmins() public vi...\n      PUSH [tag] 75\t\t\tfunction getAdmins() public vi...\n      JUMPI \t\t\tfunction getAdmins() public vi...\n      PUSH 0\t\t\tfunction getAdmins() public vi...\n      PUSH 0\t\t\tfunction getAdmins() public vi...\n      REVERT \t\t\tfunction getAdmins() public vi...\n    tag 75\t\t\tfunction getAdmins() public vi...\n      JUMPDEST \t\t\tfunction getAdmins() public vi...\n      POP \t\t\tfunction getAdmins() public vi...\n      PUSH [tag] 76\t\t\tfunction getAdmins() public vi...\n      PUSH [tag] 77\t\t\tfunction getAdmins() public vi...\n      JUMP \t\t\tfunction getAdmins() public vi...\n    tag 76\t\t\tfunction getAdmins() public vi...\n      JUMPDEST \t\t\tfunction getAdmins() public vi...\n      PUSH 40\t\t\tfunction getAdmins() public vi...\n      MLOAD \t\t\tfunction getAdmins() public vi...\n      PUSH [tag] 78\t\t\tfunction getAdmins() public vi...\n      SWAP2 \t\t\tfunction getAdmins() public vi...\n      SWAP1 \t\t\tfunction getAdmins() public vi...\n      PUSH [tag] 79\t\t\tfunction getAdmins() public vi...\n      JUMP \t\t\tfunction getAdmins() public vi...\n    tag 78\t\t\tfunction getAdmins() public vi...\n      JUMPDEST \t\t\tfunction getAdmins() public vi...\n      PUSH 40\t\t\tfunction getAdmins() public vi...\n      MLOAD \t\t\tfunction getAdmins() public vi...\n      DUP1 \t\t\tfunction getAdmins() public vi...\n      SWAP2 \t\t\tfunction getAdmins() public vi...\n      SUB \t\t\tfunction getAdmins() public vi...\n      SWAP1 \t\t\tfunction getAdmins() public vi...\n      RETURN \t\t\tfunction getAdmins() public vi...\n    tag 12\t\t\tfunction unpause() external on...\n      JUMPDEST \t\t\tfunction unpause() external on...\n      CALLVALUE \t\t\tfunction unpause() external on...\n      DUP1 \t\t\tfunction unpause() external on...\n      ISZERO \t\t\tfunction unpause() external on...\n      PUSH [tag] 80\t\t\tfunction unpause() external on...\n      JUMPI \t\t\tfunction unpause() external on...\n      PUSH 0\t\t\tfunction unpause() external on...\n      PUSH 0\t\t\tfunction unpause() external on...\n      REVERT \t\t\tfunction unpause() external on...\n    tag 80\t\t\tfunction unpause() external on...\n      JUMPDEST \t\t\tfunction unpause() external on...\n      POP \t\t\tfunction unpause() external on...\n      PUSH [tag] 81\t\t\tfunction unpause() external on...\n      PUSH [tag] 82\t\t\tfunction unpause() external on...\n      JUMP \t\t\tfunction unpause() external on...\n    tag 81\t\t\tfunction unpause() external on...\n      JUMPDEST \t\t\tfunction unpause() external on...\n      STOP \t\t\tfunction unpause() external on...\n    tag 13\t\t\tfunction getETHUSDCExchangeRat...\n      JUMPDEST \t\t\tfunction getETHUSDCExchangeRat...\n      CALLVALUE \t\t\tfunction getETHUSDCExchangeRat...\n      DUP1 \t\t\tfunction getETHUSDCExchangeRat...\n      ISZERO \t\t\tfunction getETHUSDCExchangeRat...\n      PUSH [tag] 83\t\t\tfunction getETHUSDCExchangeRat...\n      JUMPI \t\t\tfunction getETHUSDCExchangeRat...\n      PUSH 0\t\t\tfunction getETHUSDCExchangeRat...\n      PUSH 0\t\t\tfunction getETHUSDCExchangeRat...\n      REVERT \t\t\tfunction getETHUSDCExchangeRat...\n    tag 83\t\t\tfunction getETHUSDCExchangeRat...\n      JUMPDEST \t\t\tfunction getETHUSDCExchangeRat...\n      POP \t\t\tfunction getETHUSDCExchangeRat...\n      PUSH [tag] 84\t\t\tfunction getETHUSDCExchangeRat...\n      PUSH [tag] 85\t\t\tfunction getETHUSDCExchangeRat...\n      JUMP \t\t\tfunction getETHUSDCExchangeRat...\n    tag 84\t\t\tfunction getETHUSDCExchangeRat...\n      JUMPDEST \t\t\tfunction getETHUSDCExchangeRat...\n      PUSH 40\t\t\tfunction getETHUSDCExchangeRat...\n      MLOAD \t\t\tfunction getETHUSDCExchangeRat...\n      PUSH [tag] 86\t\t\tfunction getETHUSDCExchangeRat...\n      SWAP2 \t\t\tfunction getETHUSDCExchangeRat...\n      SWAP1 \t\t\tfunction getETHUSDCExchangeRat...\n      PUSH [tag] 87\t\t\tfunction getETHUSDCExchangeRat...\n      JUMP \t\t\tfunction getETHUSDCExchangeRat...\n    tag 86\t\t\tfunction getETHUSDCExchangeRat...\n      JUMPDEST \t\t\tfunction getETHUSDCExchangeRat...\n      PUSH 40\t\t\tfunction getETHUSDCExchangeRat...\n      MLOAD \t\t\tfunction getETHUSDCExchangeRat...\n      DUP1 \t\t\tfunction getETHUSDCExchangeRat...\n      SWAP2 \t\t\tfunction getETHUSDCExchangeRat...\n      SUB \t\t\tfunction getETHUSDCExchangeRat...\n      SWAP1 \t\t\tfunction getETHUSDCExchangeRat...\n      RETURN \t\t\tfunction getETHUSDCExchangeRat...\n    tag 14\t\t\t  event CashCallCreated(uint25...\n      JUMPDEST \t\t\t  event CashCallCreated(uint25...\n      CALLVALUE \t\t\t  event CashCallCreated(uint25...\n      DUP1 \t\t\t  event CashCallCreated(uint25...\n      ISZERO \t\t\t  event CashCallCreated(uint25...\n      PUSH [tag] 88\t\t\t  event CashCallCreated(uint25...\n      JUMPI \t\t\t  event CashCallCreated(uint25...\n      PUSH 0\t\t\t  event CashCallCreated(uint25...\n      PUSH 0\t\t\t  event CashCallCreated(uint25...\n      REVERT \t\t\t  event CashCallCreated(uint25...\n    tag 88\t\t\t  event CashCallCreated(uint25...\n      JUMPDEST \t\t\t  event CashCallCreated(uint25...\n      POP \t\t\t  event CashCallCreated(uint25...\n      PUSH [tag] 89\t\t\t  event CashCallCreated(uint25...\n      PUSH [tag] 90\t\t\t  event CashCallCreated(uint25...\n      JUMP \t\t\t  event CashCallCreated(uint25...\n    tag 89\t\t\t  event CashCallCreated(uint25...\n      JUMPDEST \t\t\t  event CashCallCreated(uint25...\n      PUSH 40\t\t\t  event CashCallCreated(uint25...\n      MLOAD \t\t\t  event CashCallCreated(uint25...\n      PUSH [tag] 91\t\t\t  event CashCallCreated(uint25...\n      SWAP2 \t\t\t  event CashCallCreated(uint25...\n      SWAP1 \t\t\t  event CashCallCreated(uint25...\n      PUSH [tag] 64\t\t\t  event CashCallCreated(uint25...\n      JUMP \t\t\t  event CashCallCreated(uint25...\n    tag 91\t\t\t  event CashCallCreated(uint25...\n      JUMPDEST \t\t\t  event CashCallCreated(uint25...\n      PUSH 40\t\t\t  event CashCallCreated(uint25...\n      MLOAD \t\t\t  event CashCallCreated(uint25...\n      DUP1 \t\t\t  event CashCallCreated(uint25...\n      SWAP2 \t\t\t  event CashCallCreated(uint25...\n      SUB \t\t\t  event CashCallCreated(uint25...\n      SWAP1 \t\t\t  event CashCallCreated(uint25...\n      RETURN \t\t\t  event CashCallCreated(uint25...\n    tag 15\t\t\tfunction addAdmin(address _acc...\n      JUMPDEST \t\t\tfunction addAdmin(address _acc...\n      CALLVALUE \t\t\tfunction addAdmin(address _acc...\n      DUP1 \t\t\tfunction addAdmin(address _acc...\n      ISZERO \t\t\tfunction addAdmin(address _acc...\n      PUSH [tag] 92\t\t\tfunction addAdmin(address _acc...\n      JUMPI \t\t\tfunction addAdmin(address _acc...\n      PUSH 0\t\t\tfunction addAdmin(address _acc...\n      PUSH 0\t\t\tfunction addAdmin(address _acc...\n      REVERT \t\t\tfunction addAdmin(address _acc...\n    tag 92\t\t\tfunction addAdmin(address _acc...\n      JUMPDEST \t\t\tfunction addAdmin(address _acc...\n      POP \t\t\tfunction addAdmin(address _acc...\n      PUSH [tag] 93\t\t\tfunction addAdmin(address _acc...\n      PUSH 4\t\t\tfunction addAdmin(address _acc...\n      DUP1 \t\t\tfunction addAdmin(address _acc...\n      CALLDATASIZE \t\t\tfunction addAdmin(address _acc...\n      SUB \t\t\tfunction addAdmin(address _acc...\n      DUP2 \t\t\tfunction addAdmin(address _acc...\n      ADD \t\t\tfunction addAdmin(address _acc...\n      SWAP1 \t\t\tfunction addAdmin(address _acc...\n      PUSH [tag] 94\t\t\tfunction addAdmin(address _acc...\n      SWAP2 \t\t\tfunction addAdmin(address _acc...\n      SWAP1 \t\t\tfunction addAdmin(address _acc...\n      PUSH [tag] 49\t\t\tfunction addAdmin(address _acc...\n      JUMP \t\t\tfunction addAdmin(address _acc...\n    tag 94\t\t\tfunction addAdmin(address _acc...\n      JUMPDEST \t\t\tfunction addAdmin(address _acc...\n      PUSH [tag] 95\t\t\tfunction addAdmin(address _acc...\n      JUMP \t\t\tfunction addAdmin(address _acc...\n    tag 93\t\t\tfunction addAdmin(address _acc...\n      JUMPDEST \t\t\tfunction addAdmin(address _acc...\n      STOP \t\t\tfunction addAdmin(address _acc...\n    tag 16\t\t\tfunction pause() external only...\n      JUMPDEST \t\t\tfunction pause() external only...\n      CALLVALUE \t\t\tfunction pause() external only...\n      DUP1 \t\t\tfunction pause() external only...\n      ISZERO \t\t\tfunction pause() external only...\n      PUSH [tag] 96\t\t\tfunction pause() external only...\n      JUMPI \t\t\tfunction pause() external only...\n      PUSH 0\t\t\tfunction pause() external only...\n      PUSH 0\t\t\tfunction pause() external only...\n      REVERT \t\t\tfunction pause() external only...\n    tag 96\t\t\tfunction pause() external only...\n      JUMPDEST \t\t\tfunction pause() external only...\n      POP \t\t\tfunction pause() external only...\n      PUSH [tag] 97\t\t\tfunction pause() external only...\n      PUSH [tag] 98\t\t\tfunction pause() external only...\n      JUMP \t\t\tfunction pause() external only...\n    tag 97\t\t\tfunction pause() external only...\n      JUMPDEST \t\t\tfunction pause() external only...\n      STOP \t\t\tfunction pause() external only...\n    tag 17\t\t\taddress public defaultAdmin\n      JUMPDEST \t\t\taddress public defaultAdmin\n      CALLVALUE \t\t\taddress public defaultAdmin\n      DUP1 \t\t\taddress public defaultAdmin\n      ISZERO \t\t\taddress public defaultAdmin\n      PUSH [tag] 99\t\t\taddress public defaultAdmin\n      JUMPI \t\t\taddress public defaultAdmin\n      PUSH 0\t\t\taddress public defaultAdmin\n      PUSH 0\t\t\taddress public defaultAdmin\n      REVERT \t\t\taddress public defaultAdmin\n    tag 99\t\t\taddress public defaultAdmin\n      JUMPDEST \t\t\taddress public defaultAdmin\n      POP \t\t\taddress public defaultAdmin\n      PUSH [tag] 100\t\t\taddress public defaultAdmin\n      PUSH [tag] 101\t\t\taddress public defaultAdmin\n      JUMP \t\t\taddress public defaultAdmin\n    tag 100\t\t\taddress public defaultAdmin\n      JUMPDEST \t\t\taddress public defaultAdmin\n      PUSH 40\t\t\taddress public defaultAdmin\n      MLOAD \t\t\taddress public defaultAdmin\n      PUSH [tag] 102\t\t\taddress public defaultAdmin\n      SWAP2 \t\t\taddress public defaultAdmin\n      SWAP1 \t\t\taddress public defaultAdmin\n      PUSH [tag] 45\t\t\taddress public defaultAdmin\n      JUMP \t\t\taddress public defaultAdmin\n    tag 102\t\t\taddress public defaultAdmin\n      JUMPDEST \t\t\taddress public defaultAdmin\n      PUSH 40\t\t\taddress public defaultAdmin\n      MLOAD \t\t\taddress public defaultAdmin\n      DUP1 \t\t\taddress public defaultAdmin\n      SWAP2 \t\t\taddress public defaultAdmin\n      SUB \t\t\taddress public defaultAdmin\n      SWAP1 \t\t\taddress public defaultAdmin\n      RETURN \t\t\taddress public defaultAdmin\n    tag 18\t\t\tfunction createCashCall(addres...\n      JUMPDEST \t\t\tfunction createCashCall(addres...\n      CALLVALUE \t\t\tfunction createCashCall(addres...\n      DUP1 \t\t\tfunction createCashCall(addres...\n      ISZERO \t\t\tfunction createCashCall(addres...\n      PUSH [tag] 103\t\t\tfunction createCashCall(addres...\n      JUMPI \t\t\tfunction createCashCall(addres...\n      PUSH 0\t\t\tfunction createCashCall(addres...\n      PUSH 0\t\t\tfunction createCashCall(addres...\n      REVERT \t\t\tfunction createCashCall(addres...\n    tag 103\t\t\tfunction createCashCall(addres...\n      JUMPDEST \t\t\tfunction createCashCall(addres...\n      POP \t\t\tfunction createCashCall(addres...\n      PUSH [tag] 104\t\t\tfunction createCashCall(addres...\n      PUSH 4\t\t\tfunction createCashCall(addres...\n      DUP1 \t\t\tfunction createCashCall(addres...\n      CALLDATASIZE \t\t\tfunction createCashCall(addres...\n      SUB \t\t\tfunction createCashCall(addres...\n      DUP2 \t\t\tfunction createCashCall(addres...\n      ADD \t\t\tfunction createCashCall(addres...\n      SWAP1 \t\t\tfunction createCashCall(addres...\n      PUSH [tag] 105\t\t\tfunction createCashCall(addres...\n      SWAP2 \t\t\tfunction createCashCall(addres...\n      SWAP1 \t\t\tfunction createCashCall(addres...\n      PUSH [tag] 106\t\t\tfunction createCashCall(addres...\n      JUMP \t\t\tfunction createCashCall(addres...\n    tag 105\t\t\tfunction createCashCall(addres...\n      JUMPDEST \t\t\tfunction createCashCall(addres...\n      PUSH [tag] 107\t\t\tfunction createCashCall(addres...\n      JUMP \t\t\tfunction createCashCall(addres...\n    tag 104\t\t\tfunction createCashCall(addres...\n      JUMPDEST \t\t\tfunction createCashCall(addres...\n      STOP \t\t\tfunction createCashCall(addres...\n    tag 19\t\t\tfunction getCashCalls(address ...\n      JUMPDEST \t\t\tfunction getCashCalls(address ...\n      CALLVALUE \t\t\tfunction getCashCalls(address ...\n      DUP1 \t\t\tfunction getCashCalls(address ...\n      ISZERO \t\t\tfunction getCashCalls(address ...\n      PUSH [tag] 108\t\t\tfunction getCashCalls(address ...\n      JUMPI \t\t\tfunction getCashCalls(address ...\n      PUSH 0\t\t\tfunction getCashCalls(address ...\n      PUSH 0\t\t\tfunction getCashCalls(address ...\n      REVERT \t\t\tfunction getCashCalls(address ...\n    tag 108\t\t\tfunction getCashCalls(address ...\n      JUMPDEST \t\t\tfunction getCashCalls(address ...\n      POP \t\t\tfunction getCashCalls(address ...\n      PUSH [tag] 109\t\t\tfunction getCashCalls(address ...\n      PUSH 4\t\t\tfunction getCashCalls(address ...\n      DUP1 \t\t\tfunction getCashCalls(address ...\n      CALLDATASIZE \t\t\tfunction getCashCalls(address ...\n      SUB \t\t\tfunction getCashCalls(address ...\n      DUP2 \t\t\tfunction getCashCalls(address ...\n      ADD \t\t\tfunction getCashCalls(address ...\n      SWAP1 \t\t\tfunction getCashCalls(address ...\n      PUSH [tag] 110\t\t\tfunction getCashCalls(address ...\n      SWAP2 \t\t\tfunction getCashCalls(address ...\n      SWAP1 \t\t\tfunction getCashCalls(address ...\n      PUSH [tag] 49\t\t\tfunction getCashCalls(address ...\n      JUMP \t\t\tfunction getCashCalls(address ...\n    tag 110\t\t\tfunction getCashCalls(address ...\n      JUMPDEST \t\t\tfunction getCashCalls(address ...\n      PUSH [tag] 111\t\t\tfunction getCashCalls(address ...\n      JUMP \t\t\tfunction getCashCalls(address ...\n    tag 109\t\t\tfunction getCashCalls(address ...\n      JUMPDEST \t\t\tfunction getCashCalls(address ...\n      PUSH 40\t\t\tfunction getCashCalls(address ...\n      MLOAD \t\t\tfunction getCashCalls(address ...\n      PUSH [tag] 112\t\t\tfunction getCashCalls(address ...\n      SWAP2 \t\t\tfunction getCashCalls(address ...\n      SWAP1 \t\t\tfunction getCashCalls(address ...\n      PUSH [tag] 113\t\t\tfunction getCashCalls(address ...\n      JUMP \t\t\tfunction getCashCalls(address ...\n    tag 112\t\t\tfunction getCashCalls(address ...\n      JUMPDEST \t\t\tfunction getCashCalls(address ...\n      PUSH 40\t\t\tfunction getCashCalls(address ...\n      MLOAD \t\t\tfunction getCashCalls(address ...\n      DUP1 \t\t\tfunction getCashCalls(address ...\n      SWAP2 \t\t\tfunction getCashCalls(address ...\n      SUB \t\t\tfunction getCashCalls(address ...\n      SWAP1 \t\t\tfunction getCashCalls(address ...\n      RETURN \t\t\tfunction getCashCalls(address ...\n    tag 20\t\t\tmapping(address => LPData) pub...\n      JUMPDEST \t\t\tmapping(address => LPData) pub...\n      CALLVALUE \t\t\tmapping(address => LPData) pub...\n      DUP1 \t\t\tmapping(address => LPData) pub...\n      ISZERO \t\t\tmapping(address => LPData) pub...\n      PUSH [tag] 114\t\t\tmapping(address => LPData) pub...\n      JUMPI \t\t\tmapping(address => LPData) pub...\n      PUSH 0\t\t\tmapping(address => LPData) pub...\n      PUSH 0\t\t\tmapping(address => LPData) pub...\n      REVERT \t\t\tmapping(address => LPData) pub...\n    tag 114\t\t\tmapping(address => LPData) pub...\n      JUMPDEST \t\t\tmapping(address => LPData) pub...\n      POP \t\t\tmapping(address => LPData) pub...\n      PUSH [tag] 115\t\t\tmapping(address => LPData) pub...\n      PUSH 4\t\t\tmapping(address => LPData) pub...\n      DUP1 \t\t\tmapping(address => LPData) pub...\n      CALLDATASIZE \t\t\tmapping(address => LPData) pub...\n      SUB \t\t\tmapping(address => LPData) pub...\n      DUP2 \t\t\tmapping(address => LPData) pub...\n      ADD \t\t\tmapping(address => LPData) pub...\n      SWAP1 \t\t\tmapping(address => LPData) pub...\n      PUSH [tag] 116\t\t\tmapping(address => LPData) pub...\n      SWAP2 \t\t\tmapping(address => LPData) pub...\n      SWAP1 \t\t\tmapping(address => LPData) pub...\n      PUSH [tag] 49\t\t\tmapping(address => LPData) pub...\n      JUMP \t\t\tmapping(address => LPData) pub...\n    tag 116\t\t\tmapping(address => LPData) pub...\n      JUMPDEST \t\t\tmapping(address => LPData) pub...\n      PUSH [tag] 117\t\t\tmapping(address => LPData) pub...\n      JUMP \t\t\tmapping(address => LPData) pub...\n    tag 115\t\t\tmapping(address => LPData) pub...\n      JUMPDEST \t\t\tmapping(address => LPData) pub...\n      PUSH 40\t\t\tmapping(address => LPData) pub...\n      MLOAD \t\t\tmapping(address => LPData) pub...\n      PUSH [tag] 118\t\t\tmapping(address => LPData) pub...\n      SWAP5 \t\t\tmapping(address => LPData) pub...\n      SWAP4 \t\t\tmapping(address => LPData) pub...\n      SWAP3 \t\t\tmapping(address => LPData) pub...\n      SWAP2 \t\t\tmapping(address => LPData) pub...\n      SWAP1 \t\t\tmapping(address => LPData) pub...\n      PUSH [tag] 119\t\t\tmapping(address => LPData) pub...\n      JUMP \t\t\tmapping(address => LPData) pub...\n    tag 118\t\t\tmapping(address => LPData) pub...\n      JUMPDEST \t\t\tmapping(address => LPData) pub...\n      PUSH 40\t\t\tmapping(address => LPData) pub...\n      MLOAD \t\t\tmapping(address => LPData) pub...\n      DUP1 \t\t\tmapping(address => LPData) pub...\n      SWAP2 \t\t\tmapping(address => LPData) pub...\n      SUB \t\t\tmapping(address => LPData) pub...\n      SWAP1 \t\t\tmapping(address => LPData) pub...\n      RETURN \t\t\tmapping(address => LPData) pub...\n    tag 21\t\t\tfunction revertExecution(addre...\n      JUMPDEST \t\t\tfunction revertExecution(addre...\n      CALLVALUE \t\t\tfunction revertExecution(addre...\n      DUP1 \t\t\tfunction revertExecution(addre...\n      ISZERO \t\t\tfunction revertExecution(addre...\n      PUSH [tag] 120\t\t\tfunction revertExecution(addre...\n      JUMPI \t\t\tfunction revertExecution(addre...\n      PUSH 0\t\t\tfunction revertExecution(addre...\n      PUSH 0\t\t\tfunction revertExecution(addre...\n      REVERT \t\t\tfunction revertExecution(addre...\n    tag 120\t\t\tfunction revertExecution(addre...\n      JUMPDEST \t\t\tfunction revertExecution(addre...\n      POP \t\t\tfunction revertExecution(addre...\n      PUSH [tag] 121\t\t\tfunction revertExecution(addre...\n      PUSH 4\t\t\tfunction revertExecution(addre...\n      DUP1 \t\t\tfunction revertExecution(addre...\n      CALLDATASIZE \t\t\tfunction revertExecution(addre...\n      SUB \t\t\tfunction revertExecution(addre...\n      DUP2 \t\t\tfunction revertExecution(addre...\n      ADD \t\t\tfunction revertExecution(addre...\n      SWAP1 \t\t\tfunction revertExecution(addre...\n      PUSH [tag] 122\t\t\tfunction revertExecution(addre...\n      SWAP2 \t\t\tfunction revertExecution(addre...\n      SWAP1 \t\t\tfunction revertExecution(addre...\n      PUSH [tag] 123\t\t\tfunction revertExecution(addre...\n      JUMP \t\t\tfunction revertExecution(addre...\n    tag 122\t\t\tfunction revertExecution(addre...\n      JUMPDEST \t\t\tfunction revertExecution(addre...\n      PUSH [tag] 124\t\t\tfunction revertExecution(addre...\n      JUMP \t\t\tfunction revertExecution(addre...\n    tag 121\t\t\tfunction revertExecution(addre...\n      JUMPDEST \t\t\tfunction revertExecution(addre...\n      STOP \t\t\tfunction revertExecution(addre...\n    tag 22\t\t\tmapping(address => CashCall[])...\n      JUMPDEST \t\t\tmapping(address => CashCall[])...\n      CALLVALUE \t\t\tmapping(address => CashCall[])...\n      DUP1 \t\t\tmapping(address => CashCall[])...\n      ISZERO \t\t\tmapping(address => CashCall[])...\n      PUSH [tag] 125\t\t\tmapping(address => CashCall[])...\n      JUMPI \t\t\tmapping(address => CashCall[])...\n      PUSH 0\t\t\tmapping(address => CashCall[])...\n      PUSH 0\t\t\tmapping(address => CashCall[])...\n      REVERT \t\t\tmapping(address => CashCall[])...\n    tag 125\t\t\tmapping(address => CashCall[])...\n      JUMPDEST \t\t\tmapping(address => CashCall[])...\n      POP \t\t\tmapping(address => CashCall[])...\n      PUSH [tag] 126\t\t\tmapping(address => CashCall[])...\n      PUSH 4\t\t\tmapping(address => CashCall[])...\n      DUP1 \t\t\tmapping(address => CashCall[])...\n      CALLDATASIZE \t\t\tmapping(address => CashCall[])...\n      SUB \t\t\tmapping(address => CashCall[])...\n      DUP2 \t\t\tmapping(address => CashCall[])...\n      ADD \t\t\tmapping(address => CashCall[])...\n      SWAP1 \t\t\tmapping(address => CashCall[])...\n      PUSH [tag] 127\t\t\tmapping(address => CashCall[])...\n      SWAP2 \t\t\tmapping(address => CashCall[])...\n      SWAP1 \t\t\tmapping(address => CashCall[])...\n      PUSH [tag] 123\t\t\tmapping(address => CashCall[])...\n      JUMP \t\t\tmapping(address => CashCall[])...\n    tag 127\t\t\tmapping(address => CashCall[])...\n      JUMPDEST \t\t\tmapping(address => CashCall[])...\n      PUSH [tag] 128\t\t\tmapping(address => CashCall[])...\n      JUMP \t\t\tmapping(address => CashCall[])...\n    tag 126\t\t\tmapping(address => CashCall[])...\n      JUMPDEST \t\t\tmapping(address => CashCall[])...\n      PUSH 40\t\t\tmapping(address => CashCall[])...\n      MLOAD \t\t\tmapping(address => CashCall[])...\n      PUSH [tag] 129\t\t\tmapping(address => CashCall[])...\n      SWAP5 \t\t\tmapping(address => CashCall[])...\n      SWAP4 \t\t\tmapping(address => CashCall[])...\n      SWAP3 \t\t\tmapping(address => CashCall[])...\n      SWAP2 \t\t\tmapping(address => CashCall[])...\n      SWAP1 \t\t\tmapping(address => CashCall[])...\n      PUSH [tag] 130\t\t\tmapping(address => CashCall[])...\n      JUMP \t\t\tmapping(address => CashCall[])...\n    tag 129\t\t\tmapping(address => CashCall[])...\n      JUMPDEST \t\t\tmapping(address => CashCall[])...\n      PUSH 40\t\t\tmapping(address => CashCall[])...\n      MLOAD \t\t\tmapping(address => CashCall[])...\n      DUP1 \t\t\tmapping(address => CashCall[])...\n      SWAP2 \t\t\tmapping(address => CashCall[])...\n      SUB \t\t\tmapping(address => CashCall[])...\n      SWAP1 \t\t\tmapping(address => CashCall[])...\n      RETURN \t\t\tmapping(address => CashCall[])...\n    tag 23\t\t\tfunction executeCashCall(addre...\n      JUMPDEST \t\t\tfunction executeCashCall(addre...\n      CALLVALUE \t\t\tfunction executeCashCall(addre...\n      DUP1 \t\t\tfunction executeCashCall(addre...\n      ISZERO \t\t\tfunction executeCashCall(addre...\n      PUSH [tag] 131\t\t\tfunction executeCashCall(addre...\n      JUMPI \t\t\tfunction executeCashCall(addre...\n      PUSH 0\t\t\tfunction executeCashCall(addre...\n      PUSH 0\t\t\tfunction executeCashCall(addre...\n      REVERT \t\t\tfunction executeCashCall(addre...\n    tag 131\t\t\tfunction executeCashCall(addre...\n      JUMPDEST \t\t\tfunction executeCashCall(addre...\n      POP \t\t\tfunction executeCashCall(addre...\n      PUSH [tag] 132\t\t\tfunction executeCashCall(addre...\n      PUSH 4\t\t\tfunction executeCashCall(addre...\n      DUP1 \t\t\tfunction executeCashCall(addre...\n      CALLDATASIZE \t\t\tfunction executeCashCall(addre...\n      SUB \t\t\tfunction executeCashCall(addre...\n      DUP2 \t\t\tfunction executeCashCall(addre...\n      ADD \t\t\tfunction executeCashCall(addre...\n      SWAP1 \t\t\tfunction executeCashCall(addre...\n      PUSH [tag] 133\t\t\tfunction executeCashCall(addre...\n      SWAP2 \t\t\tfunction executeCashCall(addre...\n      SWAP1 \t\t\tfunction executeCashCall(addre...\n      PUSH [tag] 123\t\t\tfunction executeCashCall(addre...\n      JUMP \t\t\tfunction executeCashCall(addre...\n    tag 133\t\t\tfunction executeCashCall(addre...\n      JUMPDEST \t\t\tfunction executeCashCall(addre...\n      PUSH [tag] 134\t\t\tfunction executeCashCall(addre...\n      JUMP \t\t\tfunction executeCashCall(addre...\n    tag 132\t\t\tfunction executeCashCall(addre...\n      JUMPDEST \t\t\tfunction executeCashCall(addre...\n      STOP \t\t\tfunction executeCashCall(addre...\n    tag 24\t\t\tfunction makePayment(address _...\n      JUMPDEST \t\t\tfunction makePayment(address _...\n      PUSH [tag] 135\t\t\tfunction makePayment(address _...\n      PUSH 4\t\t\tfunction makePayment(address _...\n      DUP1 \t\t\tfunction makePayment(address _...\n      CALLDATASIZE \t\t\tfunction makePayment(address _...\n      SUB \t\t\tfunction makePayment(address _...\n      DUP2 \t\t\tfunction makePayment(address _...\n      ADD \t\t\tfunction makePayment(address _...\n      SWAP1 \t\t\tfunction makePayment(address _...\n      PUSH [tag] 136\t\t\tfunction makePayment(address _...\n      SWAP2 \t\t\tfunction makePayment(address _...\n      SWAP1 \t\t\tfunction makePayment(address _...\n      PUSH [tag] 123\t\t\tfunction makePayment(address _...\n      JUMP \t\t\tfunction makePayment(address _...\n    tag 136\t\t\tfunction makePayment(address _...\n      JUMPDEST \t\t\tfunction makePayment(address _...\n      PUSH [tag] 137\t\t\tfunction makePayment(address _...\n      JUMP \t\t\tfunction makePayment(address _...\n    tag 135\t\t\tfunction makePayment(address _...\n      JUMPDEST \t\t\tfunction makePayment(address _...\n      STOP \t\t\tfunction makePayment(address _...\n    tag 25\t\t\tuint256 public minCommitmentAm...\n      JUMPDEST \t\t\tuint256 public minCommitmentAm...\n      CALLVALUE \t\t\tuint256 public minCommitmentAm...\n      DUP1 \t\t\tuint256 public minCommitmentAm...\n      ISZERO \t\t\tuint256 public minCommitmentAm...\n      PUSH [tag] 138\t\t\tuint256 public minCommitmentAm...\n      JUMPI \t\t\tuint256 public minCommitmentAm...\n      PUSH 0\t\t\tuint256 public minCommitmentAm...\n      PUSH 0\t\t\tuint256 public minCommitmentAm...\n      REVERT \t\t\tuint256 public minCommitmentAm...\n    tag 138\t\t\tuint256 public minCommitmentAm...\n      JUMPDEST \t\t\tuint256 public minCommitmentAm...\n      POP \t\t\tuint256 public minCommitmentAm...\n      PUSH [tag] 139\t\t\tuint256 public minCommitmentAm...\n      PUSH [tag] 140\t\t\tuint256 public minCommitmentAm...\n      JUMP \t\t\tuint256 public minCommitmentAm...\n    tag 139\t\t\tuint256 public minCommitmentAm...\n      JUMPDEST \t\t\tuint256 public minCommitmentAm...\n      PUSH 40\t\t\tuint256 public minCommitmentAm...\n      MLOAD \t\t\tuint256 public minCommitmentAm...\n      PUSH [tag] 141\t\t\tuint256 public minCommitmentAm...\n      SWAP2 \t\t\tuint256 public minCommitmentAm...\n      SWAP1 \t\t\tuint256 public minCommitmentAm...\n      PUSH [tag] 87\t\t\tuint256 public minCommitmentAm...\n      JUMP \t\t\tuint256 public minCommitmentAm...\n    tag 141\t\t\tuint256 public minCommitmentAm...\n      JUMPDEST \t\t\tuint256 public minCommitmentAm...\n      PUSH 40\t\t\tuint256 public minCommitmentAm...\n      MLOAD \t\t\tuint256 public minCommitmentAm...\n      DUP1 \t\t\tuint256 public minCommitmentAm...\n      SWAP2 \t\t\tuint256 public minCommitmentAm...\n      SUB \t\t\tuint256 public minCommitmentAm...\n      SWAP1 \t\t\tuint256 public minCommitmentAm...\n      RETURN \t\t\tuint256 public minCommitmentAm...\n    tag 32\t\t\thCallExecutionReverted(address...\n      JUMPDEST \t\t\thCallExecutionReverted(address...\n      PUSH [tag] 143\t\t\tPenaltyA\n      PUSH [tag] 90\t\t\tPenalt\n      JUMP \t\t\tPenaltyA\n    tag 143\t\t\tPenaltyA\n      JUMPDEST \t\t\tPenaltyA\n      ISZERO \t\t\t PenaltyA\n      PUSH [tag] 144\t\t\t   event PenaltyApplied(addres...\n      JUMPI \t\t\t   event PenaltyApplied(addres...\n      PUSH 40\t\t\t   event PenaltyApplied(addres...\n      MLOAD \t\t\t   event PenaltyApplied(addres...\n      PUSH 8C379A000000000000000000000000000000000000000000000000000000000\t\t\t   event PenaltyApplied(addres...\n      DUP2 \t\t\t   event PenaltyApplied(addres...\n      MSTORE \t\t\t   event PenaltyApplied(addres...\n      PUSH 4\t\t\t   event PenaltyApplied(addres...\n      ADD \t\t\t   event PenaltyApplied(addres...\n      PUSH [tag] 145\t\t\t   event PenaltyApplied(addres...\n      SWAP1 \t\t\t   event PenaltyApplied(addres...\n      PUSH [tag] 146\t\t\t   event PenaltyApplied(addres...\n      JUMP \t\t\t   event PenaltyApplied(addres...\n    tag 145\t\t\t   event PenaltyApplied(addres...\n      JUMPDEST \t\t\t   event PenaltyApplied(addres...\n      PUSH 40\t\t\t   event PenaltyApplied(addres...\n      MLOAD \t\t\t   event PenaltyApplied(addres...\n      DUP1 \t\t\t   event PenaltyApplied(addres...\n      SWAP2 \t\t\t   event PenaltyApplied(addres...\n      SUB \t\t\t   event PenaltyApplied(addres...\n      SWAP1 \t\t\t   event PenaltyApplied(addres...\n      REVERT \t\t\t   event PenaltyApplied(addres...\n    tag 144\t\t\t   event PenaltyApplied(addres...\n      JUMPDEST \t\t\t   event PenaltyApplied(addres...\n      JUMP \t\t\thCallExecutionReverted(address...\n    tag 38\t\t\tfunction withdraw(uint256 _amo...\n      JUMPDEST \t\t\tfunction withdraw(uint256 _amo...\n      PUSH 3\t\t\tisAdmin\n      PUSH 0\t\t\tisAdmin[msg.sender]\n      CALLER \t\t\tmsg.sender\n      PUSH FFFFFFFFFFFFFFFFFFFFFFFFFFFFFFFFFFFFFFFF\t\t\tisAdmin[msg.sender]\n      AND \t\t\tisAdmin[msg.sender]\n      PUSH FFFFFFFFFFFFFFFFFFFFFFFFFFFFFFFFFFFFFFFF\t\t\tisAdmin[msg.sender]\n      AND \t\t\tisAdmin[msg.sender]\n      DUP2 \t\t\tisAdmin[msg.sender]\n      MSTORE \t\t\tisAdmin[msg.sender]\n      PUSH 20\t\t\tisAdmin[msg.sender]\n      ADD \t\t\tisAdmin[msg.sender]\n      SWAP1 \t\t\tisAdmin[msg.sender]\n      DUP2 \t\t\tisAdmin[msg.sender]\n      MSTORE \t\t\tisAdmin[msg.sender]\n      PUSH 20\t\t\tisAdmin[msg.sender]\n      ADD \t\t\tisAdmin[msg.sender]\n      PUSH 0\t\t\tisAdmin[msg.sender]\n      KECCAK256 \t\t\tisAdmin[msg.sender]\n      PUSH 0\t\t\tisAdmin[msg.sender]\n      SWAP1 \t\t\tisAdmin[msg.sender]\n      SLOAD \t\t\tisAdmin[msg.sender]\n      SWAP1 \t\t\tisAdmin[msg.sender]\n      PUSH 100\t\t\tisAdmin[msg.sender]\n      EXP \t\t\tisAdmin[msg.sender]\n      SWAP1 \t\t\tisAdmin[msg.sender]\n      DIV \t\t\tisAdmin[msg.sender]\n      PUSH FF\t\t\tisAdmin[msg.sender]\n      AND \t\t\tisAdmin[msg.sender]\n      PUSH [tag] 148\t\t\trequire(isAdmin[msg.sender], \"...\n      JUMPI \t\t\trequire(isAdmin[msg.sender], \"...\n      PUSH 40\t\t\trequire(isAdmin[msg.sender], \"...\n      MLOAD \t\t\trequire(isAdmin[msg.sender], \"...\n      PUSH 8C379A000000000000000000000000000000000000000000000000000000000\t\t\trequire(isAdmin[msg.sender], \"...\n      DUP2 \t\t\trequire(isAdmin[msg.sender], \"...\n      MSTORE \t\t\trequire(isAdmin[msg.sender], \"...\n      PUSH 4\t\t\trequire(isAdmin[msg.sender], \"...\n      ADD \t\t\trequire(isAdmin[msg.sender], \"...\n      PUSH [tag] 149\t\t\trequire(isAdmin[msg.sender], \"...\n      SWAP1 \t\t\trequire(isAdmin[msg.sender], \"...\n      PUSH [tag] 150\t\t\trequire(isAdmin[msg.sender], \"...\n      JUMP \t\t\trequire(isAdmin[msg.sender], \"...\n    tag 149\t\t\trequire(isAdmin[msg.sender], \"...\n      JUMPDEST \t\t\trequire(isAdmin[msg.sender], \"...\n      PUSH 40\t\t\trequire(isAdmin[msg.sender], \"...\n      MLOAD \t\t\trequire(isAdmin[msg.sender], \"...\n      DUP1 \t\t\trequire(isAdmin[msg.sender], \"...\n      SWAP2 \t\t\trequire(isAdmin[msg.sender], \"...\n      SUB \t\t\trequire(isAdmin[msg.sender], \"...\n      SWAP1 \t\t\trequire(isAdmin[msg.sender], \"...\n      REVERT \t\t\trequire(isAdmin[msg.sender], \"...\n    tag 148\t\t\trequire(isAdmin[msg.sender], \"...\n      JUMPDEST \t\t\trequire(isAdmin[msg.sender], \"...\n      PUSH [tag] 152\t\t\tre(_aggregatorAddress\n      PUSH [tag] 153\t\t\tre(_aggregatorAddre\n      JUMP \t\t\tre(_aggregatorAddress\n    tag 152\t\t\tre(_aggregatorAddress\n      JUMPDEST \t\t\tre(_aggregatorAddress\n      SELFBALANCE \t\t\taddress(this).balance\n      DUP3 \t\t\t_amount\n      GT \t\t\t_amount <= address(this).balan...\n      ISZERO \t\t\t_amount <= address(this).balan...\n      PUSH [tag] 155\t\t\trequire(_amount <= address(thi...\n      JUMPI \t\t\trequire(_amount <= address(thi...\n      PUSH 40\t\t\trequire(_amount <= address(thi...\n      MLOAD \t\t\trequire(_amount <= address(thi...\n      PUSH 8C379A000000000000000000000000000000000000000000000000000000000\t\t\trequire(_amount <= address(thi...\n      DUP2 \t\t\trequire(_amount <= address(thi...\n      MSTORE \t\t\trequire(_amount <= address(thi...\n      PUSH 4\t\t\trequire(_amount <= address(thi...\n      ADD \t\t\trequire(_amount <= address(thi...\n      PUSH [tag] 156\t\t\trequire(_amount <= address(thi...\n      SWAP1 \t\t\trequire(_amount <= address(thi...\n      PUSH [tag] 157\t\t\trequire(_amount <= address(thi...\n      JUMP \t\t\trequire(_amount <= address(thi...\n    tag 156\t\t\trequire(_amount <= address(thi...\n      JUMPDEST \t\t\trequire(_amount <= address(thi...\n      PUSH 40\t\t\trequire(_amount <= address(thi...\n      MLOAD \t\t\trequire(_amount <= address(thi...\n      DUP1 \t\t\trequire(_amount <= address(thi...\n      SWAP2 \t\t\trequire(_amount <= address(thi...\n      SUB \t\t\trequire(_amount <= address(thi...\n      SWAP1 \t\t\trequire(_amount <= address(thi...\n      REVERT \t\t\trequire(_amount <= address(thi...\n    tag 155\t\t\trequire(_amount <= address(thi...\n      JUMPDEST \t\t\trequire(_amount <= address(thi...\n      DUP1 \t\t\t_to\n      PUSH FFFFFFFFFFFFFFFFFFFFFFFFFFFFFFFFFFFFFFFF\t\t\tpayable(_to).transfer\n      AND \t\t\tpayable(_to).transfer\n      PUSH 8FC\t\t\tpayable(_to).transfer(_amount)\n      DUP4 \t\t\t_amount\n      SWAP1 \t\t\tpayable(_to).transfer(_amount)\n      DUP2 \t\t\tpayable(_to).transfer(_amount)\n      ISZERO \t\t\tpayable(_to).transfer(_amount)\n      MUL \t\t\tpayable(_to).transfer(_amount)\n      SWAP1 \t\t\tpayable(_to).transfer(_amount)\n      PUSH 40\t\t\tpayable(_to).transfer(_amount)\n      MLOAD \t\t\tpayable(_to).transfer(_amount)\n      PUSH 0\t\t\tpayable(_to).transfer(_amount)\n      PUSH 40\t\t\tpayable(_to).transfer(_amount)\n      MLOAD \t\t\tpayable(_to).transfer(_amount)\n      DUP1 \t\t\tpayable(_to).transfer(_amount)\n      DUP4 \t\t\tpayable(_to).transfer(_amount)\n      SUB \t\t\tpayable(_to).transfer(_amount)\n      DUP2 \t\t\tpayable(_to).transfer(_amount)\n      DUP6 \t\t\tpayable(_to).transfer(_amount)\n      DUP9 \t\t\tpayable(_to).transfer(_amount)\n      DUP9 \t\t\tpayable(_to).transfer(_amount)\n      CALL \t\t\tpayable(_to).transfer(_amount)\n      SWAP4 \t\t\tpayable(_to).transfer(_amount)\n      POP \t\t\tpayable(_to).transfer(_amount)\n      POP \t\t\tpayable(_to).transfer(_amount)\n      POP \t\t\tpayable(_to).transfer(_amount)\n      POP \t\t\tpayable(_to).transfer(_amount)\n      ISZERO \t\t\tpayable(_to).transfer(_amount)\n      DUP1 \t\t\tpayable(_to).transfer(_amount)\n      ISZERO \t\t\tpayable(_to).transfer(_amount)\n      PUSH [tag] 159\t\t\tpayable(_to).transfer(_amount)\n      JUMPI \t\t\tpayable(_to).transfer(_amount)\n      RETURNDATASIZE \t\t\tpayable(_to).transfer(_amount)\n      PUSH 0\t\t\tpayable(_to).transfer(_amount)\n      PUSH 0\t\t\tpayable(_to).transfer(_amount)\n      RETURNDATACOPY \t\t\tpayable(_to).transfer(_amount)\n      RETURNDATASIZE \t\t\tpayable(_to).transfer(_amount)\n      PUSH 0\t\t\tpayable(_to).transfer(_amount)\n      REVERT \t\t\tpayable(_to).transfer(_amount)\n    tag 159\t\t\tpayable(_to).transfer(_amount)\n      JUMPDEST \t\t\tpayable(_to).transfer(_amount)\n      POP \t\t\tpayable(_to).transfer(_amount)\n      DUP1 \t\t\t_to\n      PUSH FFFFFFFFFFFFFFFFFFFFFFFFFFFFFFFFFFFFFFFF\t\t\tWithdrawal(_to, _amount)\n      AND \t\t\tWithdrawal(_to, _amount)\n      PUSH 7FCF532C15F0A6DB0BD6D0E038BEA71D30D808C7D98CB3BF7268A95BF5081B65\t\t\tWithdrawal(_to, _amount)\n      DUP4 \t\t\t_amount\n      PUSH 40\t\t\tWithdrawal(_to, _amount)\n      MLOAD \t\t\tWithdrawal(_to, _amount)\n      PUSH [tag] 160\t\t\tWithdrawal(_to, _amount)\n      SWAP2 \t\t\tWithdrawal(_to, _amount)\n      SWAP1 \t\t\tWithdrawal(_to, _amount)\n      PUSH [tag] 87\t\t\tWithdrawal(_to, _amount)\n      JUMP \t\t\tWithdrawal(_to, _amount)\n    tag 160\t\t\tWithdrawal(_to, _amount)\n      JUMPDEST \t\t\tWithdrawal(_to, _amount)\n      PUSH 40\t\t\tWithdrawal(_to, _amount)\n      MLOAD \t\t\tWithdrawal(_to, _amount)\n      DUP1 \t\t\tWithdrawal(_to, _amount)\n      SWAP2 \t\t\tWithdrawal(_to, _amount)\n      SUB \t\t\tWithdrawal(_to, _amount)\n      SWAP1 \t\t\tWithdrawal(_to, _amount)\n      LOG2 \t\t\tWithdrawal(_to, _amount)\n      PUSH [tag] 161\t\t\tlid aggregator addre\n      PUSH [tag] 162\t\t\tlid aggregator add\n      JUMP \t\t\tlid aggregator addre\n    tag 161\t\t\tlid aggregator addre\n      JUMPDEST \t\t\tlid aggregator addre\n      POP \t\t\tfunction withdraw(uint256 _amo...\n      POP \t\t\tfunction withdraw(uint256 _amo...\n      JUMP \t\t\tfunction withdraw(uint256 _amo...\n    tag 43\t\t\taddress[] public admins\n      JUMPDEST \t\t\taddress[] public admins\n      PUSH 2\t\t\taddress[] public admins\n      DUP2 \t\t\taddress[] public admins\n      DUP2 \t\t\taddress[] public admins\n      SLOAD \t\t\taddress[] public admins\n      DUP2 \t\t\taddress[] public admins\n      LT \t\t\taddress[] public admins\n      PUSH [tag] 163\t\t\taddress[] public admins\n      JUMPI \t\t\taddress[] public admins\n      PUSH 0\t\t\taddress[] public admins\n      DUP1 \t\t\taddress[] public admins\n      REVERT \t\t\taddress[] public admins\n    tag 163\t\t\taddress[] public admins\n      JUMPDEST \t\t\taddress[] public admins\n      SWAP1 \t\t\taddress[] public admins\n      PUSH 0\t\t\taddress[] public admins\n      MSTORE \t\t\taddress[] public admins\n      PUSH 20\t\t\taddress[] public admins\n      PUSH 0\t\t\taddress[] public admins\n      KECCAK256 \t\t\taddress[] public admins\n      ADD \t\t\taddress[] public admins\n      PUSH 0\t\t\taddress[] public admins\n      SWAP2 \t\t\taddress[] public admins\n      POP \t\t\taddress[] public admins\n      SLOAD \t\t\taddress[] public admins\n      SWAP1 \t\t\taddress[] public admins\n      PUSH 100\t\t\taddress[] public admins\n      EXP \t\t\taddress[] public admins\n      SWAP1 \t\t\taddress[] public admins\n      DIV \t\t\taddress[] public admins\n      PUSH FFFFFFFFFFFFFFFFFFFFFFFFFFFFFFFFFFFFFFFF\t\t\taddress[] public admins\n      AND \t\t\taddress[] public admins\n      DUP2 \t\t\taddress[] public admins\n      JUMP \t\t\taddress[] public admins\n    tag 50\t\t\tfunction setDefaultAdmin(addre...\n      JUMPDEST \t\t\tfunction setDefaultAdmin(addre...\n      PUSH 4\t\t\tdefaultAdmin\n      PUSH 0\t\t\tdefaultAdmin\n      SWAP1 \t\t\tdefaultAdmin\n      SLOAD \t\t\tdefaultAdmin\n      SWAP1 \t\t\tdefaultAdmin\n      PUSH 100\t\t\tdefaultAdmin\n      EXP \t\t\tdefaultAdmin\n      SWAP1 \t\t\tdefaultAdmin\n      DIV \t\t\tdefaultAdmin\n      PUSH FFFFFFFFFFFFFFFFFFFFFFFFFFFFFFFFFFFFFFFF\t\t\tdefaultAdmin\n      AND \t\t\tdefaultAdmin\n      PUSH FFFFFFFFFFFFFFFFFFFFFFFFFFFFFFFFFFFFFFFF\t\t\tmsg.sender == defaultAdmin\n      AND \t\t\tmsg.sender == defaultAdmin\n      CALLER \t\t\tmsg.sender\n      PUSH FFFFFFFFFFFFFFFFFFFFFFFFFFFFFFFFFFFFFFFF\t\t\tmsg.sender == defaultAdmin\n      AND \t\t\tmsg.sender == defaultAdmin\n      EQ \t\t\tmsg.sender == defaultAdmin\n      PUSH [tag] 166\t\t\trequire(msg.sender == defaultA...\n      JUMPI \t\t\trequire(msg.sender == defaultA...\n      PUSH 40\t\t\trequire(msg.sender == defaultA...\n      MLOAD \t\t\trequire(msg.sender == defaultA...\n      PUSH 8C379A000000000000000000000000000000000000000000000000000000000\t\t\trequire(msg.sender == defaultA...\n      DUP2 \t\t\trequire(msg.sender == defaultA...\n      MSTORE \t\t\trequire(msg.sender == defaultA...\n      PUSH 4\t\t\trequire(msg.sender == defaultA...\n      ADD \t\t\trequire(msg.sender == defaultA...\n      PUSH [tag] 167\t\t\trequire(msg.sender == defaultA...\n      SWAP1 \t\t\trequire(msg.sender == defaultA...\n      PUSH [tag] 168\t\t\trequire(msg.sender == defaultA...\n      JUMP \t\t\trequire(msg.sender == defaultA...\n    tag 167\t\t\trequire(msg.sender == defaultA...\n      JUMPDEST \t\t\trequire(msg.sender == defaultA...\n      PUSH 40\t\t\trequire(msg.sender == defaultA...\n      MLOAD \t\t\trequire(msg.sender == defaultA...\n      DUP1 \t\t\trequire(msg.sender == defaultA...\n      SWAP2 \t\t\trequire(msg.sender == defaultA...\n      SUB \t\t\trequire(msg.sender == defaultA...\n      SWAP1 \t\t\trequire(msg.sender == defaultA...\n      REVERT \t\t\trequire(msg.sender == defaultA...\n    tag 166\t\t\trequire(msg.sender == defaultA...\n      JUMPDEST \t\t\trequire(msg.sender == defaultA...\n      PUSH 0\t\t\t0\n      PUSH FFFFFFFFFFFFFFFFFFFFFFFFFFFFFFFFFFFFFFFF\t\t\t_newDefaultAdmin != address(0)\n      AND \t\t\t_newDefaultAdmin != address(0)\n      DUP2 \t\t\t_newDefaultAdmin\n      PUSH FFFFFFFFFFFFFFFFFFFFFFFFFFFFFFFFFFFFFFFF\t\t\t_newDefaultAdmin != address(0)\n      AND \t\t\t_newDefaultAdmin != address(0)\n      SUB \t\t\t_newDefaultAdmin != address(0)\n      PUSH [tag] 170\t\t\trequire(_newDefaultAdmin != ad...\n      JUMPI \t\t\trequire(_newDefaultAdmin != ad...\n      PUSH 40\t\t\trequire(_newDefaultAdmin != ad...\n      MLOAD \t\t\trequire(_newDefaultAdmin != ad...\n      PUSH 8C379A000000000000000000000000000000000000000000000000000000000\t\t\trequire(_newDefaultAdmin != ad...\n      DUP2 \t\t\trequire(_newDefaultAdmin != ad...\n      MSTORE \t\t\trequire(_newDefaultAdmin != ad...\n      PUSH 4\t\t\trequire(_newDefaultAdmin != ad...\n      ADD \t\t\trequire(_newDefaultAdmin != ad...\n      PUSH [tag] 171\t\t\trequire(_newDefaultAdmin != ad...\n      SWAP1 \t\t\trequire(_newDefaultAdmin != ad...\n      PUSH [tag] 172\t\t\trequire(_newDefaultAdmin != ad...\n      JUMP \t\t\trequire(_newDefaultAdmin != ad...\n    tag 171\t\t\trequire(_newDefaultAdmin != ad...\n      JUMPDEST \t\t\trequire(_newDefaultAdmin != ad...\n      PUSH 40\t\t\trequire(_newDefaultAdmin != ad...\n      MLOAD \t\t\trequire(_newDefaultAdmin != ad...\n      DUP1 \t\t\trequire(_newDefaultAdmin != ad...\n      SWAP2 \t\t\trequire(_newDefaultAdmin != ad...\n      SUB \t\t\trequire(_newDefaultAdmin != ad...\n      SWAP1 \t\t\trequire(_newDefaultAdmin != ad...\n      REVERT \t\t\trequire(_newDefaultAdmin != ad...\n    tag 170\t\t\trequire(_newDefaultAdmin != ad...\n      JUMPDEST \t\t\trequire(_newDefaultAdmin != ad...\n      PUSH 0\t\t\taddress oldAdmin\n      PUSH 4\t\t\tdefaultAdmin\n      PUSH 0\t\t\tdefaultAdmin\n      SWAP1 \t\t\tdefaultAdmin\n      SLOAD \t\t\tdefaultAdmin\n      SWAP1 \t\t\tdefaultAdmin\n      PUSH 100\t\t\tdefaultAdmin\n      EXP \t\t\tdefaultAdmin\n      SWAP1 \t\t\tdefaultAdmin\n      DIV \t\t\tdefaultAdmin\n      PUSH FFFFFFFFFFFFFFFFFFFFFFFFFFFFFFFFFFFFFFFF\t\t\tdefaultAdmin\n      AND \t\t\tdefaultAdmin\n      SWAP1 \t\t\taddress oldAdmin = defaultAdmi...\n      POP \t\t\taddress oldAdmin = defaultAdmi...\n      PUSH [tag] 173\t\t\taddAdmin(_newDefaultAdmin)\n      DUP3 \t\t\t_newDefaultAdmin\n      PUSH [tag] 95\t\t\taddAdmin\n      JUMP \t\t\taddAdmin(_newDefaultAdmin)\n    tag 173\t\t\taddAdmin(_newDefaultAdmin)\n      JUMPDEST \t\t\taddAdmin(_newDefaultAdmin)\n      DUP2 \t\t\t_newDefaultAdmin\n      PUSH 4\t\t\tdefaultAdmin\n      PUSH 0\t\t\tdefaultAdmin\n      PUSH 100\t\t\tdefaultAdmin = _newDefaultAdmi...\n      EXP \t\t\tdefaultAdmin = _newDefaultAdmi...\n      DUP2 \t\t\tdefaultAdmin = _newDefaultAdmi...\n      SLOAD \t\t\tdefaultAdmin = _newDefaultAdmi...\n      DUP2 \t\t\tdefaultAdmin = _newDefaultAdmi...\n      PUSH FFFFFFFFFFFFFFFFFFFFFFFFFFFFFFFFFFFFFFFF\t\t\tdefaultAdmin = _newDefaultAdmi...\n      MUL \t\t\tdefaultAdmin = _newDefaultAdmi...\n      NOT \t\t\tdefaultAdmin = _newDefaultAdmi...\n      AND \t\t\tdefaultAdmin = _newDefaultAdmi...\n      SWAP1 \t\t\tdefaultAdmin = _newDefaultAdmi...\n      DUP4 \t\t\tdefaultAdmin = _newDefaultAdmi...\n      PUSH FFFFFFFFFFFFFFFFFFFFFFFFFFFFFFFFFFFFFFFF\t\t\tdefaultAdmin = _newDefaultAdmi...\n      AND \t\t\tdefaultAdmin = _newDefaultAdmi...\n      MUL \t\t\tdefaultAdmin = _newDefaultAdmi...\n      OR \t\t\tdefaultAdmin = _newDefaultAdmi...\n      SWAP1 \t\t\tdefaultAdmin = _newDefaultAdmi...\n      SSTORE \t\t\tdefaultAdmin = _newDefaultAdmi...\n      POP \t\t\tdefaultAdmin = _newDefaultAdmi...\n      DUP2 \t\t\t_newDefaultAdmin\n      PUSH FFFFFFFFFFFFFFFFFFFFFFFFFFFFFFFFFFFFFFFF\t\t\tDefaultAdminChanged(oldAdmin, ...\n      AND \t\t\tDefaultAdminChanged(oldAdmin, ...\n      DUP2 \t\t\toldAdmin\n      PUSH FFFFFFFFFFFFFFFFFFFFFFFFFFFFFFFFFFFFFFFF\t\t\tDefaultAdminChanged(oldAdmin, ...\n      AND \t\t\tDefaultAdminChanged(oldAdmin, ...\n      PUSH EE6C1CBBF9F44E83120156684C7401E64D663798734F8A50DA171743FA7E349B\t\t\tDefaultAdminChanged(oldAdmin, ...\n      PUSH 40\t\t\tDefaultAdminChanged(oldAdmin, ...\n      MLOAD \t\t\tDefaultAdminChanged(oldAdmin, ...\n      PUSH 40\t\t\tDefaultAdminChanged(oldAdmin, ...\n      MLOAD \t\t\tDefaultAdminChanged(oldAdmin, ...\n      DUP1 \t\t\tDefaultAdminChanged(oldAdmin, ...\n      SWAP2 \t\t\tDefaultAdminChanged(oldAdmin, ...\n      SUB \t\t\tDefaultAdminChanged(oldAdmin, ...\n      SWAP1 \t\t\tDefaultAdminChanged(oldAdmin, ...\n      LOG3 \t\t\tDefaultAdminChanged(oldAdmin, ...\n      POP \t\t\t{\\n        require(_newDefault...\n      POP \t\t\tfunction setDefaultAdmin(addre...\n      JUMP \t\t\tfunction setDefaultAdmin(addre...\n    tag 54\t\t\tfunction setMinCommitmentAmoun...\n      JUMPDEST \t\t\tfunction setMinCommitmentAmoun...\n      PUSH 3\t\t\tisAdmin\n      PUSH 0\t\t\tisAdmin[msg.sender]\n      CALLER \t\t\tmsg.sender\n      PUSH FFFFFFFFFFFFFFFFFFFFFFFFFFFFFFFFFFFFFFFF\t\t\tisAdmin[msg.sender]\n      AND \t\t\tisAdmin[msg.sender]\n      PUSH FFFFFFFFFFFFFFFFFFFFFFFFFFFFFFFFFFFFFFFF\t\t\tisAdmin[msg.sender]\n      AND \t\t\tisAdmin[msg.sender]\n      DUP2 \t\t\tisAdmin[msg.sender]\n      MSTORE \t\t\tisAdmin[msg.sender]\n      PUSH 20\t\t\tisAdmin[msg.sender]\n      ADD \t\t\tisAdmin[msg.sender]\n      SWAP1 \t\t\tisAdmin[msg.sender]\n      DUP2 \t\t\tisAdmin[msg.sender]\n      MSTORE \t\t\tisAdmin[msg.sender]\n      PUSH 20\t\t\tisAdmin[msg.sender]\n      ADD \t\t\tisAdmin[msg.sender]\n      PUSH 0\t\t\tisAdmin[msg.sender]\n      KECCAK256 \t\t\tisAdmin[msg.sender]\n      PUSH 0\t\t\tisAdmin[msg.sender]\n      SWAP1 \t\t\tisAdmin[msg.sender]\n      SLOAD \t\t\tisAdmin[msg.sender]\n      SWAP1 \t\t\tisAdmin[msg.sender]\n      PUSH 100\t\t\tisAdmin[msg.sender]\n      EXP \t\t\tisAdmin[msg.sender]\n      SWAP1 \t\t\tisAdmin[msg.sender]\n      DIV \t\t\tisAdmin[msg.sender]\n      PUSH FF\t\t\tisAdmin[msg.sender]\n      AND \t\t\tisAdmin[msg.sender]\n      PUSH [tag] 175\t\t\trequire(isAdmin[msg.sender], \"...\n      JUMPI \t\t\trequire(isAdmin[msg.sender], \"...\n      PUSH 40\t\t\trequire(isAdmin[msg.sender], \"...\n      MLOAD \t\t\trequire(isAdmin[msg.sender], \"...\n      PUSH 8C379A000000000000000000000000000000000000000000000000000000000\t\t\trequire(isAdmin[msg.sender], \"...\n      DUP2 \t\t\trequire(isAdmin[msg.sender], \"...\n      MSTORE \t\t\trequire(isAdmin[msg.sender], \"...\n      PUSH 4\t\t\trequire(isAdmin[msg.sender], \"...\n      ADD \t\t\trequire(isAdmin[msg.sender], \"...\n      PUSH [tag] 176\t\t\trequire(isAdmin[msg.sender], \"...\n      SWAP1 \t\t\trequire(isAdmin[msg.sender], \"...\n      PUSH [tag] 150\t\t\trequire(isAdmin[msg.sender], \"...\n      JUMP \t\t\trequire(isAdmin[msg.sender], \"...\n    tag 176\t\t\trequire(isAdmin[msg.sender], \"...\n      JUMPDEST \t\t\trequire(isAdmin[msg.sender], \"...\n      PUSH 40\t\t\trequire(isAdmin[msg.sender], \"...\n      MLOAD \t\t\trequire(isAdmin[msg.sender], \"...\n      DUP1 \t\t\trequire(isAdmin[msg.sender], \"...\n      SWAP2 \t\t\trequire(isAdmin[msg.sender], \"...\n      SUB \t\t\trequire(isAdmin[msg.sender], \"...\n      SWAP1 \t\t\trequire(isAdmin[msg.sender], \"...\n      REVERT \t\t\trequire(isAdmin[msg.sender], \"...\n    tag 175\t\t\trequire(isAdmin[msg.sender], \"...\n      JUMPDEST \t\t\trequire(isAdmin[msg.sender], \"...\n      PUSH 0\t\t\t0\n      DUP2 \t\t\t_minCommitmentAmountUSD\n      GT \t\t\t_minCommitmentAmountUSD > 0\n      PUSH [tag] 178\t\t\trequire(_minCommitmentAmountUS...\n      JUMPI \t\t\trequire(_minCommitmentAmountUS...\n      PUSH 40\t\t\trequire(_minCommitmentAmountUS...\n      MLOAD \t\t\trequire(_minCommitmentAmountUS...\n      PUSH 8C379A000000000000000000000000000000000000000000000000000000000\t\t\trequire(_minCommitmentAmountUS...\n      DUP2 \t\t\trequire(_minCommitmentAmountUS...\n      MSTORE \t\t\trequire(_minCommitmentAmountUS...\n      PUSH 4\t\t\trequire(_minCommitmentAmountUS...\n      ADD \t\t\trequire(_minCommitmentAmountUS...\n      PUSH [tag] 179\t\t\trequire(_minCommitmentAmountUS...\n      SWAP1 \t\t\trequire(_minCommitmentAmountUS...\n      PUSH [tag] 180\t\t\trequire(_minCommitmentAmountUS...\n      JUMP \t\t\trequire(_minCommitmentAmountUS...\n    tag 179\t\t\trequire(_minCommitmentAmountUS...\n      JUMPDEST \t\t\trequire(_minCommitmentAmountUS...\n      PUSH 40\t\t\trequire(_minCommitmentAmountUS...\n      MLOAD \t\t\trequire(_minCommitmentAmountUS...\n      DUP1 \t\t\trequire(_minCommitmentAmountUS...\n      SWAP2 \t\t\trequire(_minCommitmentAmountUS...\n      SUB \t\t\trequire(_minCommitmentAmountUS...\n      SWAP1 \t\t\trequire(_minCommitmentAmountUS...\n      REVERT \t\t\trequire(_minCommitmentAmountUS...\n    tag 178\t\t\trequire(_minCommitmentAmountUS...\n      JUMPDEST \t\t\trequire(_minCommitmentAmountUS...\n      DUP1 \t\t\t_minCommitmentAmountUSD\n      PUSH 6\t\t\tminCommitmentAmountUSD\n      DUP2 \t\t\tminCommitmentAmountUSD = _minC...\n      SWAP1 \t\t\tminCommitmentAmountUSD = _minC...\n      SSTORE \t\t\tminCommitmentAmountUSD = _minC...\n      POP \t\t\tminCommitmentAmountUSD = _minC...\n      POP \t\t\tfunction setMinCommitmentAmoun...\n      JUMP \t\t\tfunction setMinCommitmentAmoun...\n    tag 58\t\t\tfunction removeAdmin(address _...\n      JUMPDEST \t\t\tfunction removeAdmin(address _...\n      PUSH 4\t\t\tdefaultAdmin\n      PUSH 0\t\t\tdefaultAdmin\n      SWAP1 \t\t\tdefaultAdmin\n      SLOAD \t\t\tdefaultAdmin\n      SWAP1 \t\t\tdefaultAdmin\n      PUSH 100\t\t\tdefaultAdmin\n      EXP \t\t\tdefaultAdmin\n      SWAP1 \t\t\tdefaultAdmin\n      DIV \t\t\tdefaultAdmin\n      PUSH FFFFFFFFFFFFFFFFFFFFFFFFFFFFFFFFFFFFFFFF\t\t\tdefaultAdmin\n      AND \t\t\tdefaultAdmin\n      PUSH FFFFFFFFFFFFFFFFFFFFFFFFFFFFFFFFFFFFFFFF\t\t\tmsg.sender == defaultAdmin\n      AND \t\t\tmsg.sender == defaultAdmin\n      CALLER \t\t\tmsg.sender\n      PUSH FFFFFFFFFFFFFFFFFFFFFFFFFFFFFFFFFFFFFFFF\t\t\tmsg.sender == defaultAdmin\n      AND \t\t\tmsg.sender == defaultAdmin\n      EQ \t\t\tmsg.sender == defaultAdmin\n      PUSH [tag] 182\t\t\trequire(msg.sender == defaultA...\n      JUMPI \t\t\trequire(msg.sender == defaultA...\n      PUSH 40\t\t\trequire(msg.sender == defaultA...\n      MLOAD \t\t\trequire(msg.sender == defaultA...\n      PUSH 8C379A000000000000000000000000000000000000000000000000000000000\t\t\trequire(msg.sender == defaultA...\n      DUP2 \t\t\trequire(msg.sender == defaultA...\n      MSTORE \t\t\trequire(msg.sender == defaultA...\n      PUSH 4\t\t\trequire(msg.sender == defaultA...\n      ADD \t\t\trequire(msg.sender == defaultA...\n      PUSH [tag] 183\t\t\trequire(msg.sender == defaultA...\n      SWAP1 \t\t\trequire(msg.sender == defaultA...\n      PUSH [tag] 168\t\t\trequire(msg.sender == defaultA...\n      JUMP \t\t\trequire(msg.sender == defaultA...\n    tag 183\t\t\trequire(msg.sender == defaultA...\n      JUMPDEST \t\t\trequire(msg.sender == defaultA...\n      PUSH 40\t\t\trequire(msg.sender == defaultA...\n      MLOAD \t\t\trequire(msg.sender == defaultA...\n      DUP1 \t\t\trequire(msg.sender == defaultA...\n      SWAP2 \t\t\trequire(msg.sender == defaultA...\n      SUB \t\t\trequire(msg.sender == defaultA...\n      SWAP1 \t\t\trequire(msg.sender == defaultA...\n      REVERT \t\t\trequire(msg.sender == defaultA...\n    tag 182\t\t\trequire(msg.sender == defaultA...\n      JUMPDEST \t\t\trequire(msg.sender == defaultA...\n      PUSH 3\t\t\tisAdmin\n      PUSH 0\t\t\tisAdmin[_account]\n      DUP3 \t\t\t_account\n      PUSH FFFFFFFFFFFFFFFFFFFFFFFFFFFFFFFFFFFFFFFF\t\t\tisAdmin[_account]\n      AND \t\t\tisAdmin[_account]\n      PUSH FFFFFFFFFFFFFFFFFFFFFFFFFFFFFFFFFFFFFFFF\t\t\tisAdmin[_account]\n      AND \t\t\tisAdmin[_account]\n      DUP2 \t\t\tisAdmin[_account]\n      MSTORE \t\t\tisAdmin[_account]\n      PUSH 20\t\t\tisAdmin[_account]\n      ADD \t\t\tisAdmin[_account]\n      SWAP1 \t\t\tisAdmin[_account]\n      DUP2 \t\t\tisAdmin[_account]\n      MSTORE \t\t\tisAdmin[_account]\n      PUSH 20\t\t\tisAdmin[_account]\n      ADD \t\t\tisAdmin[_account]\n      PUSH 0\t\t\tisAdmin[_account]\n      KECCAK256 \t\t\tisAdmin[_account]\n      PUSH 0\t\t\tisAdmin[_account]\n      SWAP1 \t\t\tisAdmin[_account]\n      SLOAD \t\t\tisAdmin[_account]\n      SWAP1 \t\t\tisAdmin[_account]\n      PUSH 100\t\t\tisAdmin[_account]\n      EXP \t\t\tisAdmin[_account]\n      SWAP1 \t\t\tisAdmin[_account]\n      DIV \t\t\tisAdmin[_account]\n      PUSH FF\t\t\tisAdmin[_account]\n      AND \t\t\tisAdmin[_account]\n      PUSH [tag] 185\t\t\trequire(isAdmin[_account], \"No...\n      JUMPI \t\t\trequire(isAdmin[_account], \"No...\n      PUSH 40\t\t\trequire(isAdmin[_account], \"No...\n      MLOAD \t\t\trequire(isAdmin[_account], \"No...\n      PUSH 8C379A000000000000000000000000000000000000000000000000000000000\t\t\trequire(isAdmin[_account], \"No...\n      DUP2 \t\t\trequire(isAdmin[_account], \"No...\n      MSTORE \t\t\trequire(isAdmin[_account], \"No...\n      PUSH 4\t\t\trequire(isAdmin[_account], \"No...\n      ADD \t\t\trequire(isAdmin[_account], \"No...\n      PUSH [tag] 186\t\t\trequire(isAdmin[_account], \"No...\n      SWAP1 \t\t\trequire(isAdmin[_account], \"No...\n      PUSH [tag] 187\t\t\trequire(isAdmin[_account], \"No...\n      JUMP \t\t\trequire(isAdmin[_account], \"No...\n    tag 186\t\t\trequire(isAdmin[_account], \"No...\n      JUMPDEST \t\t\trequire(isAdmin[_account], \"No...\n      PUSH 40\t\t\trequire(isAdmin[_account], \"No...\n      MLOAD \t\t\trequire(isAdmin[_account], \"No...\n      DUP1 \t\t\trequire(isAdmin[_account], \"No...\n      SWAP2 \t\t\trequire(isAdmin[_account], \"No...\n      SUB \t\t\trequire(isAdmin[_account], \"No...\n      SWAP1 \t\t\trequire(isAdmin[_account], \"No...\n      REVERT \t\t\trequire(isAdmin[_account], \"No...\n    tag 185\t\t\trequire(isAdmin[_account], \"No...\n      JUMPDEST \t\t\trequire(isAdmin[_account], \"No...\n      PUSH 1\t\t\t1\n      PUSH 2\t\t\tadmins\n      DUP1 \t\t\tadmins.length\n      SLOAD \t\t\tadmins.length\n      SWAP1 \t\t\tadmins.length\n      POP \t\t\tadmins.length\n      GT \t\t\tadmins.length > 1\n      PUSH [tag] 188\t\t\trequire(admins.length > 1, \"Ca...\n      JUMPI \t\t\trequire(admins.length > 1, \"Ca...\n      PUSH 40\t\t\trequire(admins.length > 1, \"Ca...\n      MLOAD \t\t\trequire(admins.length > 1, \"Ca...\n      PUSH 8C379A000000000000000000000000000000000000000000000000000000000\t\t\trequire(admins.length > 1, \"Ca...\n      DUP2 \t\t\trequire(admins.length > 1, \"Ca...\n      MSTORE \t\t\trequire(admins.length > 1, \"Ca...\n      PUSH 4\t\t\trequire(admins.length > 1, \"Ca...\n      ADD \t\t\trequire(admins.length > 1, \"Ca...\n      PUSH [tag] 189\t\t\trequire(admins.length > 1, \"Ca...\n      SWAP1 \t\t\trequire(admins.length > 1, \"Ca...\n      PUSH [tag] 190\t\t\trequire(admins.length > 1, \"Ca...\n      JUMP \t\t\trequire(admins.length > 1, \"Ca...\n    tag 189\t\t\trequire(admins.length > 1, \"Ca...\n      JUMPDEST \t\t\trequire(admins.length > 1, \"Ca...\n      PUSH 40\t\t\trequire(admins.length > 1, \"Ca...\n      MLOAD \t\t\trequire(admins.length > 1, \"Ca...\n      DUP1 \t\t\trequire(admins.length > 1, \"Ca...\n      SWAP2 \t\t\trequire(admins.length > 1, \"Ca...\n      SUB \t\t\trequire(admins.length > 1, \"Ca...\n      SWAP1 \t\t\trequire(admins.length > 1, \"Ca...\n      REVERT \t\t\trequire(admins.length > 1, \"Ca...\n    tag 188\t\t\trequire(admins.length > 1, \"Ca...\n      JUMPDEST \t\t\trequire(admins.length > 1, \"Ca...\n      PUSH 0\t\t\tfalse\n      PUSH 3\t\t\tisAdmin\n      PUSH 0\t\t\tisAdmin[_account]\n      DUP4 \t\t\t_account\n      PUSH FFFFFFFFFFFFFFFFFFFFFFFFFFFFFFFFFFFFFFFF\t\t\tisAdmin[_account]\n      AND \t\t\tisAdmin[_account]\n      PUSH FFFFFFFFFFFFFFFFFFFFFFFFFFFFFFFFFFFFFFFF\t\t\tisAdmin[_account]\n      AND \t\t\tisAdmin[_account]\n      DUP2 \t\t\tisAdmin[_account]\n      MSTORE \t\t\tisAdmin[_account]\n      PUSH 20\t\t\tisAdmin[_account]\n      ADD \t\t\tisAdmin[_account]\n      SWAP1 \t\t\tisAdmin[_account]\n      DUP2 \t\t\tisAdmin[_account]\n      MSTORE \t\t\tisAdmin[_account]\n      PUSH 20\t\t\tisAdmin[_account]\n      ADD \t\t\tisAdmin[_account]\n      PUSH 0\t\t\tisAdmin[_account]\n      KECCAK256 \t\t\tisAdmin[_account]\n      PUSH 0\t\t\tisAdmin[_account]\n      PUSH 100\t\t\tisAdmin[_account] = false\n      EXP \t\t\tisAdmin[_account] = false\n      DUP2 \t\t\tisAdmin[_account] = false\n      SLOAD \t\t\tisAdmin[_account] = false\n      DUP2 \t\t\tisAdmin[_account] = false\n      PUSH FF\t\t\tisAdmin[_account] = false\n      MUL \t\t\tisAdmin[_account] = false\n      NOT \t\t\tisAdmin[_account] = false\n      AND \t\t\tisAdmin[_account] = false\n      SWAP1 \t\t\tisAdmin[_account] = false\n      DUP4 \t\t\tisAdmin[_account] = false\n      ISZERO \t\t\tisAdmin[_account] = false\n      ISZERO \t\t\tisAdmin[_account] = false\n      MUL \t\t\tisAdmin[_account] = false\n      OR \t\t\tisAdmin[_account] = false\n      SWAP1 \t\t\tisAdmin[_account] = false\n      SSTORE \t\t\tisAdmin[_account] = false\n      POP \t\t\tisAdmin[_account] = false\n      PUSH 0\t\t\tuint256 i\n      PUSH 0\t\t\t0\n      SWAP1 \t\t\tuint256 i = 0\n      POP \t\t\tuint256 i = 0\n    tag 191\t\t\tfor (uint256 i = 0; i < admins...\n      JUMPDEST \t\t\tfor (uint256 i = 0; i < admins...\n      PUSH 2\t\t\tadmins\n      DUP1 \t\t\tadmins.length\n      SLOAD \t\t\tadmins.length\n      SWAP1 \t\t\tadmins.length\n      POP \t\t\tadmins.length\n      DUP2 \t\t\ti\n      LT \t\t\ti < admins.length\n      ISZERO \t\t\tfor (uint256 i = 0; i < admins...\n      PUSH [tag] 192\t\t\tfor (uint256 i = 0; i < admins...\n      JUMPI \t\t\tfor (uint256 i = 0; i < admins...\n      DUP2 \t\t\t_account\n      PUSH FFFFFFFFFFFFFFFFFFFFFFFFFFFFFFFFFFFFFFFF\t\t\tadmins[i] == _account\n      AND \t\t\tadmins[i] == _account\n      PUSH 2\t\t\tadmins\n      DUP3 \t\t\ti\n      DUP2 \t\t\tadmins[i]\n      SLOAD \t\t\tadmins[i]\n      DUP2 \t\t\tadmins[i]\n      LT \t\t\tadmins[i]\n      PUSH [tag] 194\t\t\tadmins[i]\n      JUMPI \t\t\tadmins[i]\n      PUSH [tag] 195\t\t\tadmins[i]\n      PUSH [tag] 196\t\t\tadmins[i]\n      JUMP \t\t\tadmins[i]\n    tag 195\t\t\tadmins[i]\n      JUMPDEST \t\t\tadmins[i]\n    tag 194\t\t\tadmins[i]\n      JUMPDEST \t\t\tadmins[i]\n      SWAP1 \t\t\tadmins[i]\n      PUSH 0\t\t\tadmins[i]\n      MSTORE \t\t\tadmins[i]\n      PUSH 20\t\t\tadmins[i]\n      PUSH 0\t\t\tadmins[i]\n      KECCAK256 \t\t\tadmins[i]\n      ADD \t\t\tadmins[i]\n      PUSH 0\t\t\tadmins[i]\n      SWAP1 \t\t\tadmins[i]\n      SLOAD \t\t\tadmins[i]\n      SWAP1 \t\t\tadmins[i]\n      PUSH 100\t\t\tadmins[i]\n      EXP \t\t\tadmins[i]\n      SWAP1 \t\t\tadmins[i]\n      DIV \t\t\tadmins[i]\n      PUSH FFFFFFFFFFFFFFFFFFFFFFFFFFFFFFFFFFFFFFFF\t\t\tadmins[i]\n      AND \t\t\tadmins[i]\n      PUSH FFFFFFFFFFFFFFFFFFFFFFFFFFFFFFFFFFFFFFFF\t\t\tadmins[i] == _account\n      AND \t\t\tadmins[i] == _account\n      SUB \t\t\tadmins[i] == _account\n      PUSH [tag] 198\t\t\tif (admins[i] == _account) {\\n...\n      JUMPI \t\t\tif (admins[i] == _account) {\\n...\n      PUSH 2\t\t\tadmins\n      PUSH 1\t\t\t1\n      PUSH 2\t\t\tadmins\n      DUP1 \t\t\tadmins.length\n      SLOAD \t\t\tadmins.length\n      SWAP1 \t\t\tadmins.length\n      POP \t\t\tadmins.length\n      PUSH [tag] 199\t\t\tadmins.length - 1\n      SWAP2 \t\t\tadmins.length - 1\n      SWAP1 \t\t\tadmins.length - 1\n      PUSH [tag] 200\t\t\tadmins.length - 1\n      JUMP \t\t\tadmins.length - 1\n    tag 199\t\t\tadmins.length - 1\n      JUMPDEST \t\t\tadmins.length - 1\n      DUP2 \t\t\tadmins[admins.length - 1]\n      SLOAD \t\t\tadmins[admins.length - 1]\n      DUP2 \t\t\tadmins[admins.length - 1]\n      LT \t\t\tadmins[admins.length - 1]\n      PUSH [tag] 201\t\t\tadmins[admins.length - 1]\n      JUMPI \t\t\tadmins[admins.length - 1]\n      PUSH [tag] 202\t\t\tadmins[admins.length - 1]\n      PUSH [tag] 196\t\t\tadmins[admins.length - 1]\n      JUMP \t\t\tadmins[admins.length - 1]\n    tag 202\t\t\tadmins[admins.length - 1]\n      JUMPDEST \t\t\tadmins[admins.length - 1]\n    tag 201\t\t\tadmins[admins.length - 1]\n      JUMPDEST \t\t\tadmins[admins.length - 1]\n      SWAP1 \t\t\tadmins[admins.length - 1]\n      PUSH 0\t\t\tadmins[admins.length - 1]\n      MSTORE \t\t\tadmins[admins.length - 1]\n      PUSH 20\t\t\tadmins[admins.length - 1]\n      PUSH 0\t\t\tadmins[admins.length - 1]\n      KECCAK256 \t\t\tadmins[admins.length - 1]\n      ADD \t\t\tadmins[admins.length - 1]\n      PUSH 0\t\t\tadmins[admins.length - 1]\n      SWAP1 \t\t\tadmins[admins.length - 1]\n      SLOAD \t\t\tadmins[admins.length - 1]\n      SWAP1 \t\t\tadmins[admins.length - 1]\n      PUSH 100\t\t\tadmins[admins.length - 1]\n      EXP \t\t\tadmins[admins.length - 1]\n      SWAP1 \t\t\tadmins[admins.length - 1]\n      DIV \t\t\tadmins[admins.length - 1]\n      PUSH FFFFFFFFFFFFFFFFFFFFFFFFFFFFFFFFFFFFFFFF\t\t\tadmins[admins.length - 1]\n      AND \t\t\tadmins[admins.length - 1]\n      PUSH 2\t\t\tadmins\n      DUP3 \t\t\ti\n      DUP2 \t\t\tadmins[i]\n      SLOAD \t\t\tadmins[i]\n      DUP2 \t\t\tadmins[i]\n      LT \t\t\tadmins[i]\n      PUSH [tag] 204\t\t\tadmins[i]\n      JUMPI \t\t\tadmins[i]\n      PUSH [tag] 205\t\t\tadmins[i]\n      PUSH [tag] 196\t\t\tadmins[i]\n      JUMP \t\t\tadmins[i]\n    tag 205\t\t\tadmins[i]\n      JUMPDEST \t\t\tadmins[i]\n    tag 204\t\t\tadmins[i]\n      JUMPDEST \t\t\tadmins[i]\n      SWAP1 \t\t\tadmins[i]\n      PUSH 0\t\t\tadmins[i]\n      MSTORE \t\t\tadmins[i]\n      PUSH 20\t\t\tadmins[i]\n      PUSH 0\t\t\tadmins[i]\n      KECCAK256 \t\t\tadmins[i]\n      ADD \t\t\tadmins[i]\n      PUSH 0\t\t\tadmins[i]\n      PUSH 100\t\t\tadmins[i] = admins[admins.leng...\n      EXP \t\t\tadmins[i] = admins[admins.leng...\n      DUP2 \t\t\tadmins[i] = admins[admins.leng...\n      SLOAD \t\t\tadmins[i] = admins[admins.leng...\n      DUP2 \t\t\tadmins[i] = admins[admins.leng...\n      PUSH FFFFFFFFFFFFFFFFFFFFFFFFFFFFFFFFFFFFFFFF\t\t\tadmins[i] = admins[admins.leng...\n      MUL \t\t\tadmins[i] = admins[admins.leng...\n      NOT \t\t\tadmins[i] = admins[admins.leng...\n      AND \t\t\tadmins[i] = admins[admins.leng...\n      SWAP1 \t\t\tadmins[i] = admins[admins.leng...\n      DUP4 \t\t\tadmins[i] = admins[admins.leng...\n      PUSH FFFFFFFFFFFFFFFFFFFFFFFFFFFFFFFFFFFFFFFF\t\t\tadmins[i] = admins[admins.leng...\n      AND \t\t\tadmins[i] = admins[admins.leng...\n      MUL \t\t\tadmins[i] = admins[admins.leng...\n      OR \t\t\tadmins[i] = admins[admins.leng...\n      SWAP1 \t\t\tadmins[i] = admins[admins.leng...\n      SSTORE \t\t\tadmins[i] = admins[admins.leng...\n      POP \t\t\tadmins[i] = admins[admins.leng...\n      PUSH 2\t\t\tadmins\n      DUP1 \t\t\tadmins.pop()\n      SLOAD \t\t\tadmins.pop()\n      DUP1 \t\t\tadmins.pop()\n      PUSH [tag] 207\t\t\tadmins.pop()\n      JUMPI \t\t\tadmins.pop()\n      PUSH [tag] 208\t\t\tadmins.pop()\n      PUSH [tag] 209\t\t\tadmins.pop()\n      JUMP \t\t\tadmins.pop()\n    tag 208\t\t\tadmins.pop()\n      JUMPDEST \t\t\tadmins.pop()\n    tag 207\t\t\tadmins.pop()\n      JUMPDEST \t\t\tadmins.pop()\n      PUSH 1\t\t\tadmins.pop()\n      SWAP1 \t\t\tadmins.pop()\n      SUB \t\t\tadmins.pop()\n      DUP2 \t\t\tadmins.pop()\n      DUP2 \t\t\tadmins.pop()\n      SWAP1 \t\t\tadmins.pop()\n      PUSH 0\t\t\tadmins.pop()\n      MSTORE \t\t\tadmins.pop()\n      PUSH 20\t\t\tadmins.pop()\n      PUSH 0\t\t\tadmins.pop()\n      KECCAK256 \t\t\tadmins.pop()\n      ADD \t\t\tadmins.pop()\n      PUSH 0\t\t\tadmins.pop()\n      PUSH 100\t\t\tadmins.pop()\n      EXP \t\t\tadmins.pop()\n      DUP2 \t\t\tadmins.pop()\n      SLOAD \t\t\tadmins.pop()\n      SWAP1 \t\t\tadmins.pop()\n      PUSH FFFFFFFFFFFFFFFFFFFFFFFFFFFFFFFFFFFFFFFF\t\t\tadmins.pop()\n      MUL \t\t\tadmins.pop()\n      NOT \t\t\tadmins.pop()\n      AND \t\t\tadmins.pop()\n      SWAP1 \t\t\tadmins.pop()\n      SSTORE \t\t\tadmins.pop()\n      SWAP1 \t\t\tadmins.pop()\n      SSTORE \t\t\tadmins.pop()\n      PUSH [tag] 192\t\t\tbreak\n      JUMP \t\t\tbreak\n    tag 198\t\t\tif (admins[i] == _account) {\\n...\n      JUMPDEST \t\t\tif (admins[i] == _account) {\\n...\n      DUP1 \t\t\ti++\n      DUP1 \t\t\ti++\n      PUSH 1\t\t\ti++\n      ADD \t\t\ti++\n      SWAP2 \t\t\ti++\n      POP \t\t\ti++\n      POP \t\t\ti++\n      PUSH [tag] 191\t\t\tfor (uint256 i = 0; i < admins...\n      JUMP \t\t\tfor (uint256 i = 0; i < admins...\n    tag 192\t\t\tfor (uint256 i = 0; i < admins...\n      JUMPDEST \t\t\tfor (uint256 i = 0; i < admins...\n      POP \t\t\tfor (uint256 i = 0; i < admins...\n      DUP1 \t\t\t_account\n      PUSH FFFFFFFFFFFFFFFFFFFFFFFFFFFFFFFFFFFFFFFF\t\t\tAdminRemoved(_account)\n      AND \t\t\tAdminRemoved(_account)\n      PUSH A3B62BC36326052D97EA62D63C3D60308ED4C3EA8AC079DD8499F1E9C4F80C0F\t\t\tAdminRemoved(_account)\n      PUSH 40\t\t\tAdminRemoved(_account)\n      MLOAD \t\t\tAdminRemoved(_account)\n      PUSH 40\t\t\tAdminRemoved(_account)\n      MLOAD \t\t\tAdminRemoved(_account)\n      DUP1 \t\t\tAdminRemoved(_account)\n      SWAP2 \t\t\tAdminRemoved(_account)\n      SUB \t\t\tAdminRemoved(_account)\n      SWAP1 \t\t\tAdminRemoved(_account)\n      LOG2 \t\t\tAdminRemoved(_account)\n      POP \t\t\tfunction removeAdmin(address _...\n      JUMP \t\t\tfunction removeAdmin(address _...\n    tag 62\t\t\tmapping(address => bool) publi...\n      JUMPDEST \t\t\tmapping(address => bool) publi...\n      PUSH 3\t\t\tmapping(address => bool) publi...\n      PUSH 20\t\t\tmapping(address => bool) publi...\n      MSTORE \t\t\tmapping(address => bool) publi...\n      DUP1 \t\t\tmapping(address => bool) publi...\n      PUSH 0\t\t\tmapping(address => bool) publi...\n      MSTORE \t\t\tmapping(address => bool) publi...\n      PUSH 40\t\t\tmapping(address => bool) publi...\n      PUSH 0\t\t\tmapping(address => bool) publi...\n      KECCAK256 \t\t\tmapping(address => bool) publi...\n      PUSH 0\t\t\tmapping(address => bool) publi...\n      SWAP2 \t\t\tmapping(address => bool) publi...\n      POP \t\t\tmapping(address => bool) publi...\n      SLOAD \t\t\tmapping(address => bool) publi...\n      SWAP1 \t\t\tmapping(address => bool) publi...\n      PUSH 100\t\t\tmapping(address => bool) publi...\n      EXP \t\t\tmapping(address => bool) publi...\n      SWAP1 \t\t\tmapping(address => bool) publi...\n      DIV \t\t\tmapping(address => bool) publi...\n      PUSH FF\t\t\tmapping(address => bool) publi...\n      AND \t\t\tmapping(address => bool) publi...\n      DUP2 \t\t\tmapping(address => bool) publi...\n      JUMP \t\t\tmapping(address => bool) publi...\n    tag 69\t\t\tfunction setCommitment(\\n     ...\n      JUMPDEST \t\t\tfunction setCommitment(\\n     ...\n      PUSH [tag] 212\t\t\tecuted\\n    }\\n\\n    /\n      PUSH [tag] 32\t\t\tecuted\\n    }\\n\\n   \n      JUMP \t\t\tecuted\\n    }\\n\\n    /\n    tag 212\t\t\tecuted\\n    }\\n\\n    /\n      JUMPDEST \t\t\tecuted\\n    }\\n\\n    /\n      PUSH 3\t\t\tisAdmin\n      PUSH 0\t\t\tisAdmin[msg.sender]\n      CALLER \t\t\tmsg.sender\n      PUSH FFFFFFFFFFFFFFFFFFFFFFFFFFFFFFFFFFFFFFFF\t\t\tisAdmin[msg.sender]\n      AND \t\t\tisAdmin[msg.sender]\n      PUSH FFFFFFFFFFFFFFFFFFFFFFFFFFFFFFFFFFFFFFFF\t\t\tisAdmin[msg.sender]\n      AND \t\t\tisAdmin[msg.sender]\n      DUP2 \t\t\tisAdmin[msg.sender]\n      MSTORE \t\t\tisAdmin[msg.sender]\n      PUSH 20\t\t\tisAdmin[msg.sender]\n      ADD \t\t\tisAdmin[msg.sender]\n      SWAP1 \t\t\tisAdmin[msg.sender]\n      DUP2 \t\t\tisAdmin[msg.sender]\n      MSTORE \t\t\tisAdmin[msg.sender]\n      PUSH 20\t\t\tisAdmin[msg.sender]\n      ADD \t\t\tisAdmin[msg.sender]\n      PUSH 0\t\t\tisAdmin[msg.sender]\n      KECCAK256 \t\t\tisAdmin[msg.sender]\n      PUSH 0\t\t\tisAdmin[msg.sender]\n      SWAP1 \t\t\tisAdmin[msg.sender]\n      SLOAD \t\t\tisAdmin[msg.sender]\n      SWAP1 \t\t\tisAdmin[msg.sender]\n      PUSH 100\t\t\tisAdmin[msg.sender]\n      EXP \t\t\tisAdmin[msg.sender]\n      SWAP1 \t\t\tisAdmin[msg.sender]\n      DIV \t\t\tisAdmin[msg.sender]\n      PUSH FF\t\t\tisAdmin[msg.sender]\n      AND \t\t\tisAdmin[msg.sender]\n      PUSH [tag] 214\t\t\trequire(isAdmin[msg.sender], \"...\n      JUMPI \t\t\trequire(isAdmin[msg.sender], \"...\n      PUSH 40\t\t\trequire(isAdmin[msg.sender], \"...\n      MLOAD \t\t\trequire(isAdmin[msg.sender], \"...\n      PUSH 8C379A000000000000000000000000000000000000000000000000000000000\t\t\trequire(isAdmin[msg.sender], \"...\n      DUP2 \t\t\trequire(isAdmin[msg.sender], \"...\n      MSTORE \t\t\trequire(isAdmin[msg.sender], \"...\n      PUSH 4\t\t\trequire(isAdmin[msg.sender], \"...\n      ADD \t\t\trequire(isAdmin[msg.sender], \"...\n      PUSH [tag] 215\t\t\trequire(isAdmin[msg.sender], \"...\n      SWAP1 \t\t\trequire(isAdmin[msg.sender], \"...\n      PUSH [tag] 150\t\t\trequire(isAdmin[msg.sender], \"...\n      JUMP \t\t\trequire(isAdmin[msg.sender], \"...\n    tag 215\t\t\trequire(isAdmin[msg.sender], \"...\n      JUMPDEST \t\t\trequire(isAdmin[msg.sender], \"...\n      PUSH 40\t\t\trequire(isAdmin[msg.sender], \"...\n      MLOAD \t\t\trequire(isAdmin[msg.sender], \"...\n      DUP1 \t\t\trequire(isAdmin[msg.sender], \"...\n      SWAP2 \t\t\trequire(isAdmin[msg.sender], \"...\n      SUB \t\t\trequire(isAdmin[msg.sender], \"...\n      SWAP1 \t\t\trequire(isAdmin[msg.sender], \"...\n      REVERT \t\t\trequire(isAdmin[msg.sender], \"...\n    tag 214\t\t\trequire(isAdmin[msg.sender], \"...\n      JUMPDEST \t\t\trequire(isAdmin[msg.sender], \"...\n      PUSH 0\t\t\t0\n      PUSH FFFFFFFFFFFFFFFFFFFFFFFFFFFFFFFFFFFFFFFF\t\t\t_lp != address(0)\n      AND \t\t\t_lp != address(0)\n      DUP4 \t\t\t_lp\n      PUSH FFFFFFFFFFFFFFFFFFFFFFFFFFFFFFFFFFFFFFFF\t\t\t_lp != address(0)\n      AND \t\t\t_lp != address(0)\n      SUB \t\t\t_lp != address(0)\n      PUSH [tag] 217\t\t\trequire(_lp != address(0), \"In...\n      JUMPI \t\t\trequire(_lp != address(0), \"In...\n      PUSH 40\t\t\trequire(_lp != address(0), \"In...\n      MLOAD \t\t\trequire(_lp != address(0), \"In...\n      PUSH 8C379A000000000000000000000000000000000000000000000000000000000\t\t\trequire(_lp != address(0), \"In...\n      DUP2 \t\t\trequire(_lp != address(0), \"In...\n      MSTORE \t\t\trequire(_lp != address(0), \"In...\n      PUSH 4\t\t\trequire(_lp != address(0), \"In...\n      ADD \t\t\trequire(_lp != address(0), \"In...\n      PUSH [tag] 218\t\t\trequire(_lp != address(0), \"In...\n      SWAP1 \t\t\trequire(_lp != address(0), \"In...\n      PUSH [tag] 219\t\t\trequire(_lp != address(0), \"In...\n      JUMP \t\t\trequire(_lp != address(0), \"In...\n    tag 218\t\t\trequire(_lp != address(0), \"In...\n      JUMPDEST \t\t\trequire(_lp != address(0), \"In...\n      PUSH 40\t\t\trequire(_lp != address(0), \"In...\n      MLOAD \t\t\trequire(_lp != address(0), \"In...\n      DUP1 \t\t\trequire(_lp != address(0), \"In...\n      SWAP2 \t\t\trequire(_lp != address(0), \"In...\n      SUB \t\t\trequire(_lp != address(0), \"In...\n      SWAP1 \t\t\trequire(_lp != address(0), \"In...\n      REVERT \t\t\trequire(_lp != address(0), \"In...\n    tag 217\t\t\trequire(_lp != address(0), \"In...\n      JUMPDEST \t\t\trequire(_lp != address(0), \"In...\n      PUSH [tag] 220\t\t\tisLP(_lp)\n      DUP4 \t\t\t_lp\n      PUSH [tag] 221\t\t\tisLP\n      JUMP \t\t\tisLP(_lp)\n    tag 220\t\t\tisLP(_lp)\n      JUMPDEST \t\t\tisLP(_lp)\n      ISZERO \t\t\t!isLP(_lp)\n      PUSH [tag] 222\t\t\trequire(!isLP(_lp), \"LP alread...\n      JUMPI \t\t\trequire(!isLP(_lp), \"LP alread...\n      PUSH 40\t\t\trequire(!isLP(_lp), \"LP alread...\n      MLOAD \t\t\trequire(!isLP(_lp), \"LP alread...\n      PUSH 8C379A000000000000000000000000000000000000000000000000000000000\t\t\trequire(!isLP(_lp), \"LP alread...\n      DUP2 \t\t\trequire(!isLP(_lp), \"LP alread...\n      MSTORE \t\t\trequire(!isLP(_lp), \"LP alread...\n      PUSH 4\t\t\trequire(!isLP(_lp), \"LP alread...\n      ADD \t\t\trequire(!isLP(_lp), \"LP alread...\n      PUSH [tag] 223\t\t\trequire(!isLP(_lp), \"LP alread...\n      SWAP1 \t\t\trequire(!isLP(_lp), \"LP alread...\n      PUSH [tag] 224\t\t\trequire(!isLP(_lp), \"LP alread...\n      JUMP \t\t\trequire(!isLP(_lp), \"LP alread...\n    tag 223\t\t\trequire(!isLP(_lp), \"LP alread...\n      JUMPDEST \t\t\trequire(!isLP(_lp), \"LP alread...\n      PUSH 40\t\t\trequire(!isLP(_lp), \"LP alread...\n      MLOAD \t\t\trequire(!isLP(_lp), \"LP alread...\n      DUP1 \t\t\trequire(!isLP(_lp), \"LP alread...\n      SWAP2 \t\t\trequire(!isLP(_lp), \"LP alread...\n      SUB \t\t\trequire(!isLP(_lp), \"LP alread...\n      SWAP1 \t\t\trequire(!isLP(_lp), \"LP alread...\n      REVERT \t\t\trequire(!isLP(_lp), \"LP alread...\n    tag 222\t\t\trequire(!isLP(_lp), \"LP alread...\n      JUMPDEST \t\t\trequire(!isLP(_lp), \"LP alread...\n      PUSH 0\t\t\t0\n      DUP5 \t\t\t_name\n      MLOAD \t\t\tbytes(_name).length\n      GT \t\t\tbytes(_name).length > 0\n      PUSH [tag] 225\t\t\trequire(bytes(_name).length > ...\n      JUMPI \t\t\trequire(bytes(_name).length > ...\n      PUSH 40\t\t\trequire(bytes(_name).length > ...\n      MLOAD \t\t\trequire(bytes(_name).length > ...\n      PUSH 8C379A000000000000000000000000000000000000000000000000000000000\t\t\trequire(bytes(_name).length > ...\n      DUP2 \t\t\trequire(bytes(_name).length > ...\n      MSTORE \t\t\trequire(bytes(_name).length > ...\n      PUSH 4\t\t\trequire(bytes(_name).length > ...\n      ADD \t\t\trequire(bytes(_name).length > ...\n      PUSH [tag] 226\t\t\trequire(bytes(_name).length > ...\n      SWAP1 \t\t\trequire(bytes(_name).length > ...\n      PUSH [tag] 227\t\t\trequire(bytes(_name).length > ...\n      JUMP \t\t\trequire(bytes(_name).length > ...\n    tag 226\t\t\trequire(bytes(_name).length > ...\n      JUMPDEST \t\t\trequire(bytes(_name).length > ...\n      PUSH 40\t\t\trequire(bytes(_name).length > ...\n      MLOAD \t\t\trequire(bytes(_name).length > ...\n      DUP1 \t\t\trequire(bytes(_name).length > ...\n      SWAP2 \t\t\trequire(bytes(_name).length > ...\n      SUB \t\t\trequire(bytes(_name).length > ...\n      SWAP1 \t\t\trequire(bytes(_name).length > ...\n      REVERT \t\t\trequire(bytes(_name).length > ...\n    tag 225\t\t\trequire(bytes(_name).length > ...\n      JUMPDEST \t\t\trequire(bytes(_name).length > ...\n      PUSH DE0B6B3A7640000\t\t\t10**18\n      PUSH 6\t\t\tminCommitmentAmountUSD\n      SLOAD \t\t\tminCommitmentAmountUSD\n      PUSH [tag] 228\t\t\tminCommitmentAmountUSD * 10**1...\n      SWAP2 \t\t\tminCommitmentAmountUSD * 10**1...\n      SWAP1 \t\t\tminCommitmentAmountUSD * 10**1...\n      PUSH [tag] 229\t\t\tminCommitmentAmountUSD * 10**1...\n      JUMP \t\t\tminCommitmentAmountUSD * 10**1...\n    tag 228\t\t\tminCommitmentAmountUSD * 10**1...\n      JUMPDEST \t\t\tminCommitmentAmountUSD * 10**1...\n      PUSH [tag] 230\t\t\tgetETHUSDCExchangeRate()\n      PUSH [tag] 85\t\t\tgetETHUSDCExchangeRate\n      JUMP \t\t\tgetETHUSDCExchangeRate()\n    tag 230\t\t\tgetETHUSDCExchangeRate()\n      JUMPDEST \t\t\tgetETHUSDCExchangeRate()\n      DUP4 \t\t\t_amountETH\n      PUSH [tag] 231\t\t\t_amountETH * getETHUSDCExchang...\n      SWAP2 \t\t\t_amountETH * getETHUSDCExchang...\n      SWAP1 \t\t\t_amountETH * getETHUSDCExchang...\n      PUSH [tag] 229\t\t\t_amountETH * getETHUSDCExchang...\n      JUMP \t\t\t_amountETH * getETHUSDCExchang...\n    tag 231\t\t\t_amountETH * getETHUSDCExchang...\n      JUMPDEST \t\t\t_amountETH * getETHUSDCExchang...\n      LT \t\t\t_amountETH * getETHUSDCExchang...\n      ISZERO \t\t\t_amountETH * getETHUSDCExchang...\n      PUSH [tag] 232\t\t\trequire(_amountETH * getETHUSD...\n      JUMPI \t\t\trequire(_amountETH * getETHUSD...\n      PUSH 40\t\t\trequire(_amountETH * getETHUSD...\n      MLOAD \t\t\trequire(_amountETH * getETHUSD...\n      PUSH 8C379A000000000000000000000000000000000000000000000000000000000\t\t\trequire(_amountETH * getETHUSD...\n      DUP2 \t\t\trequire(_amountETH * getETHUSD...\n      MSTORE \t\t\trequire(_amountETH * getETHUSD...\n      PUSH 4\t\t\trequire(_amountETH * getETHUSD...\n      ADD \t\t\trequire(_amountETH * getETHUSD...\n      PUSH [tag] 233\t\t\trequire(_amountETH * getETHUSD...\n      SWAP1 \t\t\trequire(_amountETH * getETHUSD...\n      PUSH [tag] 234\t\t\trequire(_amountETH * getETHUSD...\n      JUMP \t\t\trequire(_amountETH * getETHUSD...\n    tag 233\t\t\trequire(_amountETH * getETHUSD...\n      JUMPDEST \t\t\trequire(_amountETH * getETHUSD...\n      PUSH 40\t\t\trequire(_amountETH * getETHUSD...\n      MLOAD \t\t\trequire(_amountETH * getETHUSD...\n      DUP1 \t\t\trequire(_amountETH * getETHUSD...\n      SWAP2 \t\t\trequire(_amountETH * getETHUSD...\n      SUB \t\t\trequire(_amountETH * getETHUSD...\n      SWAP1 \t\t\trequire(_amountETH * getETHUSD...\n      REVERT \t\t\trequire(_amountETH * getETHUSD...\n    tag 232\t\t\trequire(_amountETH * getETHUSD...\n      JUMPDEST \t\t\trequire(_amountETH * getETHUSD...\n      TIMESTAMP \t\t\tblock.timestamp\n      DUP2 \t\t\t_endTime\n      GT \t\t\t_endTime > block.timestamp\n      PUSH [tag] 235\t\t\trequire(_endTime > block.times...\n      JUMPI \t\t\trequire(_endTime > block.times...\n      PUSH 40\t\t\trequire(_endTime > block.times...\n      MLOAD \t\t\trequire(_endTime > block.times...\n      PUSH 8C379A000000000000000000000000000000000000000000000000000000000\t\t\trequire(_endTime > block.times...\n      DUP2 \t\t\trequire(_endTime > block.times...\n      MSTORE \t\t\trequire(_endTime > block.times...\n      PUSH 4\t\t\trequire(_endTime > block.times...\n      ADD \t\t\trequire(_endTime > block.times...\n      PUSH [tag] 236\t\t\trequire(_endTime > block.times...\n      SWAP1 \t\t\trequire(_endTime > block.times...\n      PUSH [tag] 237\t\t\trequire(_endTime > block.times...\n      JUMP \t\t\trequire(_endTime > block.times...\n    tag 236\t\t\trequire(_endTime > block.times...\n      JUMPDEST \t\t\trequire(_endTime > block.times...\n      PUSH 40\t\t\trequire(_endTime > block.times...\n      MLOAD \t\t\trequire(_endTime > block.times...\n      DUP1 \t\t\trequire(_endTime > block.times...\n      SWAP2 \t\t\trequire(_endTime > block.times...\n      SUB \t\t\trequire(_endTime > block.times...\n      SWAP1 \t\t\trequire(_endTime > block.times...\n      REVERT \t\t\trequire(_endTime > block.times...\n    tag 235\t\t\trequire(_endTime > block.times...\n      JUMPDEST \t\t\trequire(_endTime > block.times...\n      PUSH 0\t\t\tLPData storage lpInfo\n      PUSH 7\t\t\tlpData\n      PUSH 0\t\t\tlpData[_lp]\n      DUP6 \t\t\t_lp\n      PUSH FFFFFFFFFFFFFFFFFFFFFFFFFFFFFFFFFFFFFFFF\t\t\tlpData[_lp]\n      AND \t\t\tlpData[_lp]\n      PUSH FFFFFFFFFFFFFFFFFFFFFFFFFFFFFFFFFFFFFFFF\t\t\tlpData[_lp]\n      AND \t\t\tlpData[_lp]\n      DUP2 \t\t\tlpData[_lp]\n      MSTORE \t\t\tlpData[_lp]\n      PUSH 20\t\t\tlpData[_lp]\n      ADD \t\t\tlpData[_lp]\n      SWAP1 \t\t\tlpData[_lp]\n      DUP2 \t\t\tlpData[_lp]\n      MSTORE \t\t\tlpData[_lp]\n      PUSH 20\t\t\tlpData[_lp]\n      ADD \t\t\tlpData[_lp]\n      PUSH 0\t\t\tlpData[_lp]\n      KECCAK256 \t\t\tlpData[_lp]\n      SWAP1 \t\t\tLPData storage lpInfo = lpData...\n      POP \t\t\tLPData storage lpInfo = lpData...\n      DUP5 \t\t\t_name\n      DUP2 \t\t\tlpInfo\n      PUSH 0\t\t\tlpInfo.name\n      ADD \t\t\tlpInfo.name\n      SWAP1 \t\t\tlpInfo.name = _name\n      DUP2 \t\t\tlpInfo.name = _name\n      PUSH [tag] 238\t\t\tlpInfo.name = _name\n      SWAP2 \t\t\tlpInfo.name = _name\n      SWAP1 \t\t\tlpInfo.name = _name\n      PUSH [tag] 239\t\t\tlpInfo.name = _name\n      JUMP \t\t\tlpInfo.name = _name\n    tag 238\t\t\tlpInfo.name = _name\n      JUMPDEST \t\t\tlpInfo.name = _name\n      POP \t\t\tlpInfo.name = _name\n      DUP3 \t\t\t_amountETH\n      DUP2 \t\t\tlpInfo\n      PUSH 1\t\t\tlpInfo.commitmentAmount\n      ADD \t\t\tlpInfo.commitmentAmount\n      DUP2 \t\t\tlpInfo.commitmentAmount = _amo...\n      SWAP1 \t\t\tlpInfo.commitmentAmount = _amo...\n      SSTORE \t\t\tlpInfo.commitmentAmount = _amo...\n      POP \t\t\tlpInfo.commitmentAmount = _amo...\n      PUSH 0\t\t\t0\n      DUP2 \t\t\tlpInfo\n      PUSH 2\t\t\tlpInfo.totalPaid\n      ADD \t\t\tlpInfo.totalPaid\n      DUP2 \t\t\tlpInfo.totalPaid = 0\n      SWAP1 \t\t\tlpInfo.totalPaid = 0\n      SSTORE \t\t\tlpInfo.totalPaid = 0\n      POP \t\t\tlpInfo.totalPaid = 0\n      DUP2 \t\t\t_endTime\n      DUP2 \t\t\tlpInfo\n      PUSH 3\t\t\tlpInfo.endTime\n      ADD \t\t\tlpInfo.endTime\n      DUP2 \t\t\tlpInfo.endTime = _endTime\n      SWAP1 \t\t\tlpInfo.endTime = _endTime\n      SSTORE \t\t\tlpInfo.endTime = _endTime\n      POP \t\t\tlpInfo.endTime = _endTime\n      DUP4 \t\t\t_lp\n      PUSH FFFFFFFFFFFFFFFFFFFFFFFFFFFFFFFFFFFFFFFF\t\t\tCommitmentSet(_lp, _amountETH,...\n      AND \t\t\tCommitmentSet(_lp, _amountETH,...\n      PUSH 2B88C9786B136E841912BB0DD74DA2EDD0A414D70A8771B7941093AF50AE3B5E\t\t\tCommitmentSet(_lp, _amountETH,...\n      DUP5 \t\t\t_amountETH\n      DUP5 \t\t\t_endTime\n      PUSH 40\t\t\tCommitmentSet(_lp, _amountETH,...\n      MLOAD \t\t\tCommitmentSet(_lp, _amountETH,...\n      PUSH [tag] 240\t\t\tCommitmentSet(_lp, _amountETH,...\n      SWAP3 \t\t\tCommitmentSet(_lp, _amountETH,...\n      SWAP2 \t\t\tCommitmentSet(_lp, _amountETH,...\n      SWAP1 \t\t\tCommitmentSet(_lp, _amountETH,...\n      PUSH [tag] 241\t\t\tCommitmentSet(_lp, _amountETH,...\n      JUMP \t\t\tCommitmentSet(_lp, _amountETH,...\n    tag 240\t\t\tCommitmentSet(_lp, _amountETH,...\n      JUMPDEST \t\t\tCommitmentSet(_lp, _amountETH,...\n      PUSH 40\t\t\tCommitmentSet(_lp, _amountETH,...\n      MLOAD \t\t\tCommitmentSet(_lp, _amountETH,...\n      DUP1 \t\t\tCommitmentSet(_lp, _amountETH,...\n      SWAP2 \t\t\tCommitmentSet(_lp, _amountETH,...\n      SUB \t\t\tCommitmentSet(_lp, _amountETH,...\n      SWAP1 \t\t\tCommitmentSet(_lp, _amountETH,...\n      LOG2 \t\t\tCommitmentSet(_lp, _amountETH,...\n      POP \t\t\t{\\n        require(_lp != addr...\n      POP \t\t\tfunction setCommitment(\\n     ...\n      POP \t\t\tfunction setCommitment(\\n     ...\n      POP \t\t\tfunction setCommitment(\\n     ...\n      POP \t\t\tfunction setCommitment(\\n     ...\n      JUMP \t\t\tfunction setCommitment(\\n     ...\n    tag 74\t\t\tfunction applyPenalty(address ...\n      JUMPDEST \t\t\tfunction applyPenalty(address ...\n      PUSH [tag] 243\t\t\tecuted\\n    }\\n\\n    /\n      PUSH [tag] 32\t\t\tecuted\\n    }\\n\\n   \n      JUMP \t\t\tecuted\\n    }\\n\\n    /\n    tag 243\t\t\tecuted\\n    }\\n\\n    /\n      JUMPDEST \t\t\tecuted\\n    }\\n\\n    /\n      PUSH 3\t\t\tisAdmin\n      PUSH 0\t\t\tisAdmin[msg.sender]\n      CALLER \t\t\tmsg.sender\n      PUSH FFFFFFFFFFFFFFFFFFFFFFFFFFFFFFFFFFFFFFFF\t\t\tisAdmin[msg.sender]\n      AND \t\t\tisAdmin[msg.sender]\n      PUSH FFFFFFFFFFFFFFFFFFFFFFFFFFFFFFFFFFFFFFFF\t\t\tisAdmin[msg.sender]\n      AND \t\t\tisAdmin[msg.sender]\n      DUP2 \t\t\tisAdmin[msg.sender]\n      MSTORE \t\t\tisAdmin[msg.sender]\n      PUSH 20\t\t\tisAdmin[msg.sender]\n      ADD \t\t\tisAdmin[msg.sender]\n      SWAP1 \t\t\tisAdmin[msg.sender]\n      DUP2 \t\t\tisAdmin[msg.sender]\n      MSTORE \t\t\tisAdmin[msg.sender]\n      PUSH 20\t\t\tisAdmin[msg.sender]\n      ADD \t\t\tisAdmin[msg.sender]\n      PUSH 0\t\t\tisAdmin[msg.sender]\n      KECCAK256 \t\t\tisAdmin[msg.sender]\n      PUSH 0\t\t\tisAdmin[msg.sender]\n      SWAP1 \t\t\tisAdmin[msg.sender]\n      SLOAD \t\t\tisAdmin[msg.sender]\n      SWAP1 \t\t\tisAdmin[msg.sender]\n      PUSH 100\t\t\tisAdmin[msg.sender]\n      EXP \t\t\tisAdmin[msg.sender]\n      SWAP1 \t\t\tisAdmin[msg.sender]\n      DIV \t\t\tisAdmin[msg.sender]\n      PUSH FF\t\t\tisAdmin[msg.sender]\n      AND \t\t\tisAdmin[msg.sender]\n      PUSH [tag] 245\t\t\trequire(isAdmin[msg.sender], \"...\n      JUMPI \t\t\trequire(isAdmin[msg.sender], \"...\n      PUSH 40\t\t\trequire(isAdmin[msg.sender], \"...\n      MLOAD \t\t\trequire(isAdmin[msg.sender], \"...\n      PUSH 8C379A000000000000000000000000000000000000000000000000000000000\t\t\trequire(isAdmin[msg.sender], \"...\n      DUP2 \t\t\trequire(isAdmin[msg.sender], \"...\n      MSTORE \t\t\trequire(isAdmin[msg.sender], \"...\n      PUSH 4\t\t\trequire(isAdmin[msg.sender], \"...\n      ADD \t\t\trequire(isAdmin[msg.sender], \"...\n      PUSH [tag] 246\t\t\trequire(isAdmin[msg.sender], \"...\n      SWAP1 \t\t\trequire(isAdmin[msg.sender], \"...\n      PUSH [tag] 150\t\t\trequire(isAdmin[msg.sender], \"...\n      JUMP \t\t\trequire(isAdmin[msg.sender], \"...\n    tag 246\t\t\trequire(isAdmin[msg.sender], \"...\n      JUMPDEST \t\t\trequire(isAdmin[msg.sender], \"...\n      PUSH 40\t\t\trequire(isAdmin[msg.sender], \"...\n      MLOAD \t\t\trequire(isAdmin[msg.sender], \"...\n      DUP1 \t\t\trequire(isAdmin[msg.sender], \"...\n      SWAP2 \t\t\trequire(isAdmin[msg.sender], \"...\n      SUB \t\t\trequire(isAdmin[msg.sender], \"...\n      SWAP1 \t\t\trequire(isAdmin[msg.sender], \"...\n      REVERT \t\t\trequire(isAdmin[msg.sender], \"...\n    tag 245\t\t\trequire(isAdmin[msg.sender], \"...\n      JUMPDEST \t\t\trequire(isAdmin[msg.sender], \"...\n      PUSH 0\t\t\tLPData storage lpInfo\n      PUSH 7\t\t\tlpData\n      PUSH 0\t\t\tlpData[_lp]\n      DUP6 \t\t\t_lp\n      PUSH FFFFFFFFFFFFFFFFFFFFFFFFFFFFFFFFFFFFFFFF\t\t\tlpData[_lp]\n      AND \t\t\tlpData[_lp]\n      PUSH FFFFFFFFFFFFFFFFFFFFFFFFFFFFFFFFFFFFFFFF\t\t\tlpData[_lp]\n      AND \t\t\tlpData[_lp]\n      DUP2 \t\t\tlpData[_lp]\n      MSTORE \t\t\tlpData[_lp]\n      PUSH 20\t\t\tlpData[_lp]\n      ADD \t\t\tlpData[_lp]\n      SWAP1 \t\t\tlpData[_lp]\n      DUP2 \t\t\tlpData[_lp]\n      MSTORE \t\t\tlpData[_lp]\n      PUSH 20\t\t\tlpData[_lp]\n      ADD \t\t\tlpData[_lp]\n      PUSH 0\t\t\tlpData[_lp]\n      KECCAK256 \t\t\tlpData[_lp]\n      SWAP1 \t\t\tLPData storage lpInfo = lpData...\n      POP \t\t\tLPData storage lpInfo = lpData...\n      PUSH 0\t\t\t0\n      DUP2 \t\t\tlpInfo\n      PUSH 1\t\t\tlpInfo.commitmentAmount\n      ADD \t\t\tlpInfo.commitmentAmount\n      SLOAD \t\t\tlpInfo.commitmentAmount\n      GT \t\t\tlpInfo.commitmentAmount > 0\n      PUSH [tag] 248\t\t\trequire(lpInfo.commitmentAmoun...\n      JUMPI \t\t\trequire(lpInfo.commitmentAmoun...\n      PUSH 40\t\t\trequire(lpInfo.commitmentAmoun...\n      MLOAD \t\t\trequire(lpInfo.commitmentAmoun...\n      PUSH 8C379A000000000000000000000000000000000000000000000000000000000\t\t\trequire(lpInfo.commitmentAmoun...\n      DUP2 \t\t\trequire(lpInfo.commitmentAmoun...\n      MSTORE \t\t\trequire(lpInfo.commitmentAmoun...\n      PUSH 4\t\t\trequire(lpInfo.commitmentAmoun...\n      ADD \t\t\trequire(lpInfo.commitmentAmoun...\n      PUSH [tag] 249\t\t\trequire(lpInfo.commitmentAmoun...\n      SWAP1 \t\t\trequire(lpInfo.commitmentAmoun...\n      PUSH [tag] 250\t\t\trequire(lpInfo.commitmentAmoun...\n      JUMP \t\t\trequire(lpInfo.commitmentAmoun...\n    tag 249\t\t\trequire(lpInfo.commitmentAmoun...\n      JUMPDEST \t\t\trequire(lpInfo.commitmentAmoun...\n      PUSH 40\t\t\trequire(lpInfo.commitmentAmoun...\n      MLOAD \t\t\trequire(lpInfo.commitmentAmoun...\n      DUP1 \t\t\trequire(lpInfo.commitmentAmoun...\n      SWAP2 \t\t\trequire(lpInfo.commitmentAmoun...\n      SUB \t\t\trequire(lpInfo.commitmentAmoun...\n      SWAP1 \t\t\trequire(lpInfo.commitmentAmoun...\n      REVERT \t\t\trequire(lpInfo.commitmentAmoun...\n    tag 248\t\t\trequire(lpInfo.commitmentAmoun...\n      JUMPDEST \t\t\trequire(lpInfo.commitmentAmoun...\n      DUP3 \t\t\t_penaltyAmount\n      DUP2 \t\t\tlpInfo\n      PUSH 2\t\t\tlpInfo.totalPaid\n      ADD \t\t\tlpInfo.totalPaid\n      PUSH 0\t\t\tlpInfo.totalPaid\n      DUP3 \t\t\tlpInfo.totalPaid -= _penaltyAm...\n      DUP3 \t\t\tlpInfo.totalPaid -= _penaltyAm...\n      SLOAD \t\t\tlpInfo.totalPaid -= _penaltyAm...\n      PUSH [tag] 251\t\t\tlpInfo.totalPaid -= _penaltyAm...\n      SWAP2 \t\t\tlpInfo.totalPaid -= _penaltyAm...\n      SWAP1 \t\t\tlpInfo.totalPaid -= _penaltyAm...\n      PUSH [tag] 200\t\t\tlpInfo.totalPaid -= _penaltyAm...\n      JUMP \t\t\tlpInfo.totalPaid -= _penaltyAm...\n    tag 251\t\t\tlpInfo.totalPaid -= _penaltyAm...\n      JUMPDEST \t\t\tlpInfo.totalPaid -= _penaltyAm...\n      SWAP3 \t\t\tlpInfo.totalPaid -= _penaltyAm...\n      POP \t\t\tlpInfo.totalPaid -= _penaltyAm...\n      POP \t\t\tlpInfo.totalPaid -= _penaltyAm...\n      DUP2 \t\t\tlpInfo.totalPaid -= _penaltyAm...\n      SWAP1 \t\t\tlpInfo.totalPaid -= _penaltyAm...\n      SSTORE \t\t\tlpInfo.totalPaid -= _penaltyAm...\n      POP \t\t\tlpInfo.totalPaid -= _penaltyAm...\n      DUP4 \t\t\t_lp\n      PUSH FFFFFFFFFFFFFFFFFFFFFFFFFFFFFFFFFFFFFFFF\t\t\tPenaltyApplied(_lp, _penaltyAm...\n      AND \t\t\tPenaltyApplied(_lp, _penaltyAm...\n      PUSH 4B28C7DC138644F27518388387393ECBD08EF8D180A4A6799C954BE166A37AB3\t\t\tPenaltyApplied(_lp, _penaltyAm...\n      DUP5 \t\t\t_penaltyAmount\n      PUSH 40\t\t\tPenaltyApplied(_lp, _penaltyAm...\n      MLOAD \t\t\tPenaltyApplied(_lp, _penaltyAm...\n      PUSH [tag] 252\t\t\tPenaltyApplied(_lp, _penaltyAm...\n      SWAP2 \t\t\tPenaltyApplied(_lp, _penaltyAm...\n      SWAP1 \t\t\tPenaltyApplied(_lp, _penaltyAm...\n      PUSH [tag] 87\t\t\tPenaltyApplied(_lp, _penaltyAm...\n      JUMP \t\t\tPenaltyApplied(_lp, _penaltyAm...\n    tag 252\t\t\tPenaltyApplied(_lp, _penaltyAm...\n      JUMPDEST \t\t\tPenaltyApplied(_lp, _penaltyAm...\n      PUSH 40\t\t\tPenaltyApplied(_lp, _penaltyAm...\n      MLOAD \t\t\tPenaltyApplied(_lp, _penaltyAm...\n      DUP1 \t\t\tPenaltyApplied(_lp, _penaltyAm...\n      SWAP2 \t\t\tPenaltyApplied(_lp, _penaltyAm...\n      SUB \t\t\tPenaltyApplied(_lp, _penaltyAm...\n      SWAP1 \t\t\tPenaltyApplied(_lp, _penaltyAm...\n      LOG2 \t\t\tPenaltyApplied(_lp, _penaltyAm...\n      DUP2 \t\t\t_revokeAccess\n      ISZERO \t\t\tif (_revokeAccess) {\\n        ...\n      PUSH [tag] 253\t\t\tif (_revokeAccess) {\\n        ...\n      JUMPI \t\t\tif (_revokeAccess) {\\n        ...\n      PUSH 0\t\t\t0\n      DUP2 \t\t\tlpInfo\n      PUSH 1\t\t\tlpInfo.commitmentAmount\n      ADD \t\t\tlpInfo.commitmentAmount\n      DUP2 \t\t\tlpInfo.commitmentAmount = 0\n      SWAP1 \t\t\tlpInfo.commitmentAmount = 0\n      SSTORE \t\t\tlpInfo.commitmentAmount = 0\n      POP \t\t\tlpInfo.commitmentAmount = 0\n      PUSH 0\t\t\t0\n      DUP2 \t\t\tlpInfo\n      PUSH 2\t\t\tlpInfo.totalPaid\n      ADD \t\t\tlpInfo.totalPaid\n      DUP2 \t\t\tlpInfo.totalPaid = 0\n      SWAP1 \t\t\tlpInfo.totalPaid = 0\n      SSTORE \t\t\tlpInfo.totalPaid = 0\n      POP \t\t\tlpInfo.totalPaid = 0\n      DUP4 \t\t\t_lp\n      PUSH FFFFFFFFFFFFFFFFFFFFFFFFFFFFFFFFFFFFFFFF\t\t\tAccessRevoked(_lp)\n      AND \t\t\tAccessRevoked(_lp)\n      PUSH 1B9B72FDE9DA721E70E6ACA3B0CF4CBE73E82765EF1F280157740376531BFDD8\t\t\tAccessRevoked(_lp)\n      PUSH 40\t\t\tAccessRevoked(_lp)\n      MLOAD \t\t\tAccessRevoked(_lp)\n      PUSH 40\t\t\tAccessRevoked(_lp)\n      MLOAD \t\t\tAccessRevoked(_lp)\n      DUP1 \t\t\tAccessRevoked(_lp)\n      SWAP2 \t\t\tAccessRevoked(_lp)\n      SUB \t\t\tAccessRevoked(_lp)\n      SWAP1 \t\t\tAccessRevoked(_lp)\n      LOG2 \t\t\tAccessRevoked(_lp)\n    tag 253\t\t\tif (_revokeAccess) {\\n        ...\n      JUMPDEST \t\t\tif (_revokeAccess) {\\n        ...\n      POP \t\t\t{\\n        LPData storage lpIn...\n      POP \t\t\tfunction applyPenalty(address ...\n      POP \t\t\tfunction applyPenalty(address ...\n      POP \t\t\tfunction applyPenalty(address ...\n      JUMP \t\t\tfunction applyPenalty(address ...\n    tag 77\t\t\tfunction getAdmins() public vi...\n      JUMPDEST \t\t\tfunction getAdmins() public vi...\n      PUSH 60\t\t\taddress[] memory\n      PUSH 2\t\t\tadmins\n      DUP1 \t\t\treturn admins\n      SLOAD \t\t\treturn admins\n      DUP1 \t\t\treturn admins\n      PUSH 20\t\t\treturn admins\n      MUL \t\t\treturn admins\n      PUSH 20\t\t\treturn admins\n      ADD \t\t\treturn admins\n      PUSH 40\t\t\treturn admins\n      MLOAD \t\t\treturn admins\n      SWAP1 \t\t\treturn admins\n      DUP2 \t\t\treturn admins\n      ADD \t\t\treturn admins\n      PUSH 40\t\t\treturn admins\n      MSTORE \t\t\treturn admins\n      DUP1 \t\t\treturn admins\n      SWAP3 \t\t\treturn admins\n      SWAP2 \t\t\treturn admins\n      SWAP1 \t\t\treturn admins\n      DUP2 \t\t\treturn admins\n      DUP2 \t\t\treturn admins\n      MSTORE \t\t\treturn admins\n      PUSH 20\t\t\treturn admins\n      ADD \t\t\treturn admins\n      DUP3 \t\t\treturn admins\n      DUP1 \t\t\treturn admins\n      SLOAD \t\t\treturn admins\n      DUP1 \t\t\treturn admins\n      ISZERO \t\t\treturn admins\n      PUSH [tag] 255\t\t\treturn admins\n      JUMPI \t\t\treturn admins\n      PUSH 20\t\t\treturn admins\n      MUL \t\t\treturn admins\n      DUP3 \t\t\treturn admins\n      ADD \t\t\treturn admins\n      SWAP2 \t\t\treturn admins\n      SWAP1 \t\t\treturn admins\n      PUSH 0\t\t\treturn admins\n      MSTORE \t\t\treturn admins\n      PUSH 20\t\t\treturn admins\n      PUSH 0\t\t\treturn admins\n      KECCAK256 \t\t\treturn admins\n      SWAP1 \t\t\treturn admins\n    tag 256\t\t\treturn admins\n      JUMPDEST \t\t\treturn admins\n      DUP2 \t\t\treturn admins\n      PUSH 0\t\t\treturn admins\n      SWAP1 \t\t\treturn admins\n      SLOAD \t\t\treturn admins\n      SWAP1 \t\t\treturn admins\n      PUSH 100\t\t\treturn admins\n      EXP \t\t\treturn admins\n      SWAP1 \t\t\treturn admins\n      DIV \t\t\treturn admins\n      PUSH FFFFFFFFFFFFFFFFFFFFFFFFFFFFFFFFFFFFFFFF\t\t\treturn admins\n      AND \t\t\treturn admins\n      PUSH FFFFFFFFFFFFFFFFFFFFFFFFFFFFFFFFFFFFFFFF\t\t\treturn admins\n      AND \t\t\treturn admins\n      DUP2 \t\t\treturn admins\n      MSTORE \t\t\treturn admins\n      PUSH 20\t\t\treturn admins\n      ADD \t\t\treturn admins\n      SWAP1 \t\t\treturn admins\n      PUSH 1\t\t\treturn admins\n      ADD \t\t\treturn admins\n      SWAP1 \t\t\treturn admins\n      DUP1 \t\t\treturn admins\n      DUP4 \t\t\treturn admins\n      GT \t\t\treturn admins\n      PUSH [tag] 256\t\t\treturn admins\n      JUMPI \t\t\treturn admins\n    tag 255\t\t\treturn admins\n      JUMPDEST \t\t\treturn admins\n      POP \t\t\treturn admins\n      POP \t\t\treturn admins\n      POP \t\t\treturn admins\n      POP \t\t\treturn admins\n      POP \t\t\treturn admins\n      SWAP1 \t\t\treturn admins\n      POP \t\t\treturn admins\n      SWAP1 \t\t\tfunction getAdmins() public vi...\n      JUMP \t\t\tfunction getAdmins() public vi...\n    tag 82\t\t\tfunction unpause() external on...\n      JUMPDEST \t\t\tfunction unpause() external on...\n      PUSH 3\t\t\tisAdmin\n      PUSH 0\t\t\tisAdmin[msg.sender]\n      CALLER \t\t\tmsg.sender\n      PUSH FFFFFFFFFFFFFFFFFFFFFFFFFFFFFFFFFFFFFFFF\t\t\tisAdmin[msg.sender]\n      AND \t\t\tisAdmin[msg.sender]\n      PUSH FFFFFFFFFFFFFFFFFFFFFFFFFFFFFFFFFFFFFFFF\t\t\tisAdmin[msg.sender]\n      AND \t\t\tisAdmin[msg.sender]\n      DUP2 \t\t\tisAdmin[msg.sender]\n      MSTORE \t\t\tisAdmin[msg.sender]\n      PUSH 20\t\t\tisAdmin[msg.sender]\n      ADD \t\t\tisAdmin[msg.sender]\n      SWAP1 \t\t\tisAdmin[msg.sender]\n      DUP2 \t\t\tisAdmin[msg.sender]\n      MSTORE \t\t\tisAdmin[msg.sender]\n      PUSH 20\t\t\tisAdmin[msg.sender]\n      ADD \t\t\tisAdmin[msg.sender]\n      PUSH 0\t\t\tisAdmin[msg.sender]\n      KECCAK256 \t\t\tisAdmin[msg.sender]\n      PUSH 0\t\t\tisAdmin[msg.sender]\n      SWAP1 \t\t\tisAdmin[msg.sender]\n      SLOAD \t\t\tisAdmin[msg.sender]\n      SWAP1 \t\t\tisAdmin[msg.sender]\n      PUSH 100\t\t\tisAdmin[msg.sender]\n      EXP \t\t\tisAdmin[msg.sender]\n      SWAP1 \t\t\tisAdmin[msg.sender]\n      DIV \t\t\tisAdmin[msg.sender]\n      PUSH FF\t\t\tisAdmin[msg.sender]\n      AND \t\t\tisAdmin[msg.sender]\n      PUSH [tag] 258\t\t\trequire(isAdmin[msg.sender], \"...\n      JUMPI \t\t\trequire(isAdmin[msg.sender], \"...\n      PUSH 40\t\t\trequire(isAdmin[msg.sender], \"...\n      MLOAD \t\t\trequire(isAdmin[msg.sender], \"...\n      PUSH 8C379A000000000000000000000000000000000000000000000000000000000\t\t\trequire(isAdmin[msg.sender], \"...\n      DUP2 \t\t\trequire(isAdmin[msg.sender], \"...\n      MSTORE \t\t\trequire(isAdmin[msg.sender], \"...\n      PUSH 4\t\t\trequire(isAdmin[msg.sender], \"...\n      ADD \t\t\trequire(isAdmin[msg.sender], \"...\n      PUSH [tag] 259\t\t\trequire(isAdmin[msg.sender], \"...\n      SWAP1 \t\t\trequire(isAdmin[msg.sender], \"...\n      PUSH [tag] 150\t\t\trequire(isAdmin[msg.sender], \"...\n      JUMP \t\t\trequire(isAdmin[msg.sender], \"...\n    tag 259\t\t\trequire(isAdmin[msg.sender], \"...\n      JUMPDEST \t\t\trequire(isAdmin[msg.sender], \"...\n      PUSH 40\t\t\trequire(isAdmin[msg.sender], \"...\n      MLOAD \t\t\trequire(isAdmin[msg.sender], \"...\n      DUP1 \t\t\trequire(isAdmin[msg.sender], \"...\n      SWAP2 \t\t\trequire(isAdmin[msg.sender], \"...\n      SUB \t\t\trequire(isAdmin[msg.sender], \"...\n      SWAP1 \t\t\trequire(isAdmin[msg.sender], \"...\n      REVERT \t\t\trequire(isAdmin[msg.sender], \"...\n    tag 258\t\t\trequire(isAdmin[msg.sender], \"...\n      JUMPDEST \t\t\trequire(isAdmin[msg.sender], \"...\n      PUSH [tag] 261\t\t\t_unpause()\n      PUSH [tag] 262\t\t\t_unpause\n      JUMP \t\t\t_unpause()\n    tag 261\t\t\t_unpause()\n      JUMPDEST \t\t\t_unpause()\n      JUMP \t\t\tfunction unpause() external on...\n    tag 85\t\t\tfunction getETHUSDCExchangeRat...\n      JUMPDEST \t\t\tfunction getETHUSDCExchangeRat...\n      PUSH 0\t\t\tuint256\n      PUSH 0\t\t\tint256 ethUsdPrice\n      PUSH 5\t\t\tethUsdPriceFeed\n      PUSH 0\t\t\tethUsdPriceFeed\n      SWAP1 \t\t\tethUsdPriceFeed\n      SLOAD \t\t\tethUsdPriceFeed\n      SWAP1 \t\t\tethUsdPriceFeed\n      PUSH 100\t\t\tethUsdPriceFeed\n      EXP \t\t\tethUsdPriceFeed\n      SWAP1 \t\t\tethUsdPriceFeed\n      DIV \t\t\tethUsdPriceFeed\n      PUSH FFFFFFFFFFFFFFFFFFFFFFFFFFFFFFFFFFFFFFFF\t\t\tethUsdPriceFeed\n      AND \t\t\tethUsdPriceFeed\n      PUSH FFFFFFFFFFFFFFFFFFFFFFFFFFFFFFFFFFFFFFFF\t\t\tethUsdPriceFeed.latestRoundDat...\n      AND \t\t\tethUsdPriceFeed.latestRoundDat...\n      PUSH FEAF968C\t\t\tethUsdPriceFeed.latestRoundDat...\n      PUSH 40\t\t\tethUsdPriceFeed.latestRoundDat...\n      MLOAD \t\t\tethUsdPriceFeed.latestRoundDat...\n      DUP2 \t\t\tethUsdPriceFeed.latestRoundDat...\n      PUSH FFFFFFFF\t\t\tethUsdPriceFeed.latestRoundDat...\n      AND \t\t\tethUsdPriceFeed.latestRoundDat...\n      PUSH E0\t\t\tethUsdPriceFeed.latestRoundDat...\n      SHL \t\t\tethUsdPriceFeed.latestRoundDat...\n      DUP2 \t\t\tethUsdPriceFeed.latestRoundDat...\n      MSTORE \t\t\tethUsdPriceFeed.latestRoundDat...\n      PUSH 4\t\t\tethUsdPriceFeed.latestRoundDat...\n      ADD \t\t\tethUsdPriceFeed.latestRoundDat...\n      PUSH A0\t\t\tethUsdPriceFeed.latestRoundDat...\n      PUSH 40\t\t\tethUsdPriceFeed.latestRoundDat...\n      MLOAD \t\t\tethUsdPriceFeed.latestRoundDat...\n      DUP1 \t\t\tethUsdPriceFeed.latestRoundDat...\n      DUP4 \t\t\tethUsdPriceFeed.latestRoundDat...\n      SUB \t\t\tethUsdPriceFeed.latestRoundDat...\n      DUP2 \t\t\tethUsdPriceFeed.latestRoundDat...\n      DUP7 \t\t\tethUsdPriceFeed.latestRoundDat...\n      GAS \t\t\tethUsdPriceFeed.latestRoundDat...\n      STATICCALL \t\t\tethUsdPriceFeed.latestRoundDat...\n      ISZERO \t\t\tethUsdPriceFeed.latestRoundDat...\n      DUP1 \t\t\tethUsdPriceFeed.latestRoundDat...\n      ISZERO \t\t\tethUsdPriceFeed.latestRoundDat...\n      PUSH [tag] 265\t\t\tethUsdPriceFeed.latestRoundDat...\n      JUMPI \t\t\tethUsdPriceFeed.latestRoundDat...\n      RETURNDATASIZE \t\t\tethUsdPriceFeed.latestRoundDat...\n      PUSH 0\t\t\tethUsdPriceFeed.latestRoundDat...\n      PUSH 0\t\t\tethUsdPriceFeed.latestRoundDat...\n      RETURNDATACOPY \t\t\tethUsdPriceFeed.latestRoundDat...\n      RETURNDATASIZE \t\t\tethUsdPriceFeed.latestRoundDat...\n      PUSH 0\t\t\tethUsdPriceFeed.latestRoundDat...\n      REVERT \t\t\tethUsdPriceFeed.latestRoundDat...\n    tag 265\t\t\tethUsdPriceFeed.latestRoundDat...\n      JUMPDEST \t\t\tethUsdPriceFeed.latestRoundDat...\n      POP \t\t\tethUsdPriceFeed.latestRoundDat...\n      POP \t\t\tethUsdPriceFeed.latestRoundDat...\n      POP \t\t\tethUsdPriceFeed.latestRoundDat...\n      POP \t\t\tethUsdPriceFeed.latestRoundDat...\n      PUSH 40\t\t\tethUsdPriceFeed.latestRoundDat...\n      MLOAD \t\t\tethUsdPriceFeed.latestRoundDat...\n      RETURNDATASIZE \t\t\tethUsdPriceFeed.latestRoundDat...\n      PUSH 1F\t\t\tethUsdPriceFeed.latestRoundDat...\n      NOT \t\t\tethUsdPriceFeed.latestRoundDat...\n      PUSH 1F\t\t\tethUsdPriceFeed.latestRoundDat...\n      DUP3 \t\t\tethUsdPriceFeed.latestRoundDat...\n      ADD \t\t\tethUsdPriceFeed.latestRoundDat...\n      AND \t\t\tethUsdPriceFeed.latestRoundDat...\n      DUP3 \t\t\tethUsdPriceFeed.latestRoundDat...\n      ADD \t\t\tethUsdPriceFeed.latestRoundDat...\n      DUP1 \t\t\tethUsdPriceFeed.latestRoundDat...\n      PUSH 40\t\t\tethUsdPriceFeed.latestRoundDat...\n      MSTORE \t\t\tethUsdPriceFeed.latestRoundDat...\n      POP \t\t\tethUsdPriceFeed.latestRoundDat...\n      DUP2 \t\t\tethUsdPriceFeed.latestRoundDat...\n      ADD \t\t\tethUsdPriceFeed.latestRoundDat...\n      SWAP1 \t\t\tethUsdPriceFeed.latestRoundDat...\n      PUSH [tag] 266\t\t\tethUsdPriceFeed.latestRoundDat...\n      SWAP2 \t\t\tethUsdPriceFeed.latestRoundDat...\n      SWAP1 \t\t\tethUsdPriceFeed.latestRoundDat...\n      PUSH [tag] 267\t\t\tethUsdPriceFeed.latestRoundDat...\n      JUMP \t\t\tethUsdPriceFeed.latestRoundDat...\n    tag 266\t\t\tethUsdPriceFeed.latestRoundDat...\n      JUMPDEST \t\t\tethUsdPriceFeed.latestRoundDat...\n      POP \t\t\t(, int256 ethUsdPrice, , , ) =...\n      POP \t\t\t(, int256 ethUsdPrice, , , ) =...\n      POP \t\t\t(, int256 ethUsdPrice, , , ) =...\n      SWAP2 \t\t\t(, int256 ethUsdPrice, , , ) =...\n      POP \t\t\t(, int256 ethUsdPrice, , , ) =...\n      POP \t\t\t(, int256 ethUsdPrice, , , ) =...\n      PUSH 0\t\t\t0\n      DUP2 \t\t\tethUsdPrice\n      SGT \t\t\tethUsdPrice > 0\n      PUSH [tag] 268\t\t\trequire(ethUsdPrice > 0, \"Inva...\n      JUMPI \t\t\trequire(ethUsdPrice > 0, \"Inva...\n      PUSH 40\t\t\trequire(ethUsdPrice > 0, \"Inva...\n      MLOAD \t\t\trequire(ethUsdPrice > 0, \"Inva...\n      PUSH 8C379A000000000000000000000000000000000000000000000000000000000\t\t\trequire(ethUsdPrice > 0, \"Inva...\n      DUP2 \t\t\trequire(ethUsdPrice > 0, \"Inva...\n      MSTORE \t\t\trequire(ethUsdPrice > 0, \"Inva...\n      PUSH 4\t\t\trequire(ethUsdPrice > 0, \"Inva...\n      ADD \t\t\trequire(ethUsdPrice > 0, \"Inva...\n      PUSH [tag] 269\t\t\trequire(ethUsdPrice > 0, \"Inva...\n      SWAP1 \t\t\trequire(ethUsdPrice > 0, \"Inva...\n      PUSH [tag] 270\t\t\trequire(ethUsdPrice > 0, \"Inva...\n      JUMP \t\t\trequire(ethUsdPrice > 0, \"Inva...\n    tag 269\t\t\trequire(ethUsdPrice > 0, \"Inva...\n      JUMPDEST \t\t\trequire(ethUsdPrice > 0, \"Inva...\n      PUSH 40\t\t\trequire(ethUsdPrice > 0, \"Inva...\n      MLOAD \t\t\trequire(ethUsdPrice > 0, \"Inva...\n      DUP1 \t\t\trequire(ethUsdPrice > 0, \"Inva...\n      SWAP2 \t\t\trequire(ethUsdPrice > 0, \"Inva...\n      SUB \t\t\trequire(ethUsdPrice > 0, \"Inva...\n      SWAP1 \t\t\trequire(ethUsdPrice > 0, \"Inva...\n      REVERT \t\t\trequire(ethUsdPrice > 0, \"Inva...\n    tag 268\t\t\trequire(ethUsdPrice > 0, \"Inva...\n      JUMPDEST \t\t\trequire(ethUsdPrice > 0, \"Inva...\n      PUSH 2540BE400\t\t\t1e10\n      DUP2 \t\t\tethUsdPrice\n      PUSH [tag] 271\t\t\tuint256(ethUsdPrice) * 1e10\n      SWAP2 \t\t\tuint256(ethUsdPrice) * 1e10\n      SWAP1 \t\t\tuint256(ethUsdPrice) * 1e10\n      PUSH [tag] 229\t\t\tuint256(ethUsdPrice) * 1e10\n      JUMP \t\t\tuint256(ethUsdPrice) * 1e10\n    tag 271\t\t\tuint256(ethUsdPrice) * 1e10\n      JUMPDEST \t\t\tuint256(ethUsdPrice) * 1e10\n      SWAP2 \t\t\treturn uint256(ethUsdPrice) * ...\n      POP \t\t\treturn uint256(ethUsdPrice) * ...\n      POP \t\t\treturn uint256(ethUsdPrice) * ...\n      SWAP1 \t\t\tfunction getETHUSDCExchangeRat...\n      JUMP \t\t\tfunction getETHUSDCExchangeRat...\n    tag 90\t\t\t  event CashCallCreated(uint25...\n      JUMPDEST \t\t\t  event CashCallCreated(uint25...\n      PUSH 0\t\t\t amo\n      PUSH 0\t\t\tne);\\n  \n      PUSH 0\t\t\tne);\\n  \n      SWAP1 \t\t\tne);\\n  \n      SLOAD \t\t\tne);\\n  \n      SWAP1 \t\t\tne);\\n  \n      PUSH 100\t\t\tne);\\n  \n      EXP \t\t\tne);\\n  \n      SWAP1 \t\t\tne);\\n  \n      DIV \t\t\tne);\\n  \n      PUSH FF\t\t\tne);\\n  \n      AND \t\t\tne);\\n  \n      SWAP1 \t\t\t deadline);\\n  \n      POP \t\t\t deadline);\\n  \n      SWAP1 \t\t\t  event CashCallCreated(uint25...\n      JUMP \t\t\t  event CashCallCreated(uint25...\n    tag 95\t\t\tfunction addAdmin(address _acc...\n      JUMPDEST \t\t\tfunction addAdmin(address _acc...\n      PUSH 4\t\t\tdefaultAdmin\n      PUSH 0\t\t\tdefaultAdmin\n      SWAP1 \t\t\tdefaultAdmin\n      SLOAD \t\t\tdefaultAdmin\n      SWAP1 \t\t\tdefaultAdmin\n      PUSH 100\t\t\tdefaultAdmin\n      EXP \t\t\tdefaultAdmin\n      SWAP1 \t\t\tdefaultAdmin\n      DIV \t\t\tdefaultAdmin\n      PUSH FFFFFFFFFFFFFFFFFFFFFFFFFFFFFFFFFFFFFFFF\t\t\tdefaultAdmin\n      AND \t\t\tdefaultAdmin\n      PUSH FFFFFFFFFFFFFFFFFFFFFFFFFFFFFFFFFFFFFFFF\t\t\tmsg.sender == defaultAdmin\n      AND \t\t\tmsg.sender == defaultAdmin\n      CALLER \t\t\tmsg.sender\n      PUSH FFFFFFFFFFFFFFFFFFFFFFFFFFFFFFFFFFFFFFFF\t\t\tmsg.sender == defaultAdmin\n      AND \t\t\tmsg.sender == defaultAdmin\n      EQ \t\t\tmsg.sender == defaultAdmin\n      PUSH [tag] 274\t\t\trequire(msg.sender == defaultA...\n      JUMPI \t\t\trequire(msg.sender == defaultA...\n      PUSH 40\t\t\trequire(msg.sender == defaultA...\n      MLOAD \t\t\trequire(msg.sender == defaultA...\n      PUSH 8C379A000000000000000000000000000000000000000000000000000000000\t\t\trequire(msg.sender == defaultA...\n      DUP2 \t\t\trequire(msg.sender == defaultA...\n      MSTORE \t\t\trequire(msg.sender == defaultA...\n      PUSH 4\t\t\trequire(msg.sender == defaultA...\n      ADD \t\t\trequire(msg.sender == defaultA...\n      PUSH [tag] 275\t\t\trequire(msg.sender == defaultA...\n      SWAP1 \t\t\trequire(msg.sender == defaultA...\n      PUSH [tag] 168\t\t\trequire(msg.sender == defaultA...\n      JUMP \t\t\trequire(msg.sender == defaultA...\n    tag 275\t\t\trequire(msg.sender == defaultA...\n      JUMPDEST \t\t\trequire(msg.sender == defaultA...\n      PUSH 40\t\t\trequire(msg.sender == defaultA...\n      MLOAD \t\t\trequire(msg.sender == defaultA...\n      DUP1 \t\t\trequire(msg.sender == defaultA...\n      SWAP2 \t\t\trequire(msg.sender == defaultA...\n      SUB \t\t\trequire(msg.sender == defaultA...\n      SWAP1 \t\t\trequire(msg.sender == defaultA...\n      REVERT \t\t\trequire(msg.sender == defaultA...\n    tag 274\t\t\trequire(msg.sender == defaultA...\n      JUMPDEST \t\t\trequire(msg.sender == defaultA...\n      PUSH 0\t\t\t0\n      PUSH FFFFFFFFFFFFFFFFFFFFFFFFFFFFFFFFFFFFFFFF\t\t\t_account != address(0)\n      AND \t\t\t_account != address(0)\n      DUP2 \t\t\t_account\n      PUSH FFFFFFFFFFFFFFFFFFFFFFFFFFFFFFFFFFFFFFFF\t\t\t_account != address(0)\n      AND \t\t\t_account != address(0)\n      SUB \t\t\t_account != address(0)\n      PUSH [tag] 277\t\t\trequire(_account != address(0)...\n      JUMPI \t\t\trequire(_account != address(0)...\n      PUSH 40\t\t\trequire(_account != address(0)...\n      MLOAD \t\t\trequire(_account != address(0)...\n      PUSH 8C379A000000000000000000000000000000000000000000000000000000000\t\t\trequire(_account != address(0)...\n      DUP2 \t\t\trequire(_account != address(0)...\n      MSTORE \t\t\trequire(_account != address(0)...\n      PUSH 4\t\t\trequire(_account != address(0)...\n      ADD \t\t\trequire(_account != address(0)...\n      PUSH [tag] 278\t\t\trequire(_account != address(0)...\n      SWAP1 \t\t\trequire(_account != address(0)...\n      PUSH [tag] 279\t\t\trequire(_account != address(0)...\n      JUMP \t\t\trequire(_account != address(0)...\n    tag 278\t\t\trequire(_account != address(0)...\n      JUMPDEST \t\t\trequire(_account != address(0)...\n      PUSH 40\t\t\trequire(_account != address(0)...\n      MLOAD \t\t\trequire(_account != address(0)...\n      DUP1 \t\t\trequire(_account != address(0)...\n      SWAP2 \t\t\trequire(_account != address(0)...\n      SUB \t\t\trequire(_account != address(0)...\n      SWAP1 \t\t\trequire(_account != address(0)...\n      REVERT \t\t\trequire(_account != address(0)...\n    tag 277\t\t\trequire(_account != address(0)...\n      JUMPDEST \t\t\trequire(_account != address(0)...\n      PUSH 3\t\t\tisAdmin\n      PUSH 0\t\t\tisAdmin[_account]\n      DUP3 \t\t\t_account\n      PUSH FFFFFFFFFFFFFFFFFFFFFFFFFFFFFFFFFFFFFFFF\t\t\tisAdmin[_account]\n      AND \t\t\tisAdmin[_account]\n      PUSH FFFFFFFFFFFFFFFFFFFFFFFFFFFFFFFFFFFFFFFF\t\t\tisAdmin[_account]\n      AND \t\t\tisAdmin[_account]\n      DUP2 \t\t\tisAdmin[_account]\n      MSTORE \t\t\tisAdmin[_account]\n      PUSH 20\t\t\tisAdmin[_account]\n      ADD \t\t\tisAdmin[_account]\n      SWAP1 \t\t\tisAdmin[_account]\n      DUP2 \t\t\tisAdmin[_account]\n      MSTORE \t\t\tisAdmin[_account]\n      PUSH 20\t\t\tisAdmin[_account]\n      ADD \t\t\tisAdmin[_account]\n      PUSH 0\t\t\tisAdmin[_account]\n      KECCAK256 \t\t\tisAdmin[_account]\n      PUSH 0\t\t\tisAdmin[_account]\n      SWAP1 \t\t\tisAdmin[_account]\n      SLOAD \t\t\tisAdmin[_account]\n      SWAP1 \t\t\tisAdmin[_account]\n      PUSH 100\t\t\tisAdmin[_account]\n      EXP \t\t\tisAdmin[_account]\n      SWAP1 \t\t\tisAdmin[_account]\n      DIV \t\t\tisAdmin[_account]\n      PUSH FF\t\t\tisAdmin[_account]\n      AND \t\t\tisAdmin[_account]\n      ISZERO \t\t\t!isAdmin[_account]\n      PUSH [tag] 280\t\t\trequire(!isAdmin[_account], \"A...\n      JUMPI \t\t\trequire(!isAdmin[_account], \"A...\n      PUSH 40\t\t\trequire(!isAdmin[_account], \"A...\n      MLOAD \t\t\trequire(!isAdmin[_account], \"A...\n      PUSH 8C379A000000000000000000000000000000000000000000000000000000000\t\t\trequire(!isAdmin[_account], \"A...\n      DUP2 \t\t\trequire(!isAdmin[_account], \"A...\n      MSTORE \t\t\trequire(!isAdmin[_account], \"A...\n      PUSH 4\t\t\trequire(!isAdmin[_account], \"A...\n      ADD \t\t\trequire(!isAdmin[_account], \"A...\n      PUSH [tag] 281\t\t\trequire(!isAdmin[_account], \"A...\n      SWAP1 \t\t\trequire(!isAdmin[_account], \"A...\n      PUSH [tag] 282\t\t\trequire(!isAdmin[_account], \"A...\n      JUMP \t\t\trequire(!isAdmin[_account], \"A...\n    tag 281\t\t\trequire(!isAdmin[_account], \"A...\n      JUMPDEST \t\t\trequire(!isAdmin[_account], \"A...\n      PUSH 40\t\t\trequire(!isAdmin[_account], \"A...\n      MLOAD \t\t\trequire(!isAdmin[_account], \"A...\n      DUP1 \t\t\trequire(!isAdmin[_account], \"A...\n      SWAP2 \t\t\trequire(!isAdmin[_account], \"A...\n      SUB \t\t\trequire(!isAdmin[_account], \"A...\n      SWAP1 \t\t\trequire(!isAdmin[_account], \"A...\n      REVERT \t\t\trequire(!isAdmin[_account], \"A...\n    tag 280\t\t\trequire(!isAdmin[_account], \"A...\n      JUMPDEST \t\t\trequire(!isAdmin[_account], \"A...\n      PUSH 2\t\t\tadmins\n      DUP2 \t\t\t_account\n      SWAP1 \t\t\tadmins.push(_account)\n      DUP1 \t\t\tadmins.push(_account)\n      PUSH 1\t\t\tadmins.push(_account)\n      DUP2 \t\t\tadmins.push(_account)\n      SLOAD \t\t\tadmins.push(_account)\n      ADD \t\t\tadmins.push(_account)\n      DUP1 \t\t\tadmins.push(_account)\n      DUP3 \t\t\tadmins.push(_account)\n      SSTORE \t\t\tadmins.push(_account)\n      DUP1 \t\t\tadmins.push(_account)\n      SWAP2 \t\t\tadmins.push(_account)\n      POP \t\t\tadmins.push(_account)\n      POP \t\t\tadmins.push(_account)\n      PUSH 1\t\t\tadmins.push(_account)\n      SWAP1 \t\t\tadmins.push(_account)\n      SUB \t\t\tadmins.push(_account)\n      SWAP1 \t\t\tadmins.push(_account)\n      PUSH 0\t\t\tadmins.push(_account)\n      MSTORE \t\t\tadmins.push(_account)\n      PUSH 20\t\t\tadmins.push(_account)\n      PUSH 0\t\t\tadmins.push(_account)\n      KECCAK256 \t\t\tadmins.push(_account)\n      ADD \t\t\tadmins.push(_account)\n      PUSH 0\t\t\tadmins.push(_account)\n      SWAP1 \t\t\tadmins.push(_account)\n      SWAP2 \t\t\tadmins.push(_account)\n      SWAP1 \t\t\tadmins.push(_account)\n      SWAP2 \t\t\tadmins.push(_account)\n      SWAP1 \t\t\tadmins.push(_account)\n      SWAP2 \t\t\tadmins.push(_account)\n      PUSH 100\t\t\tadmins.push(_account)\n      EXP \t\t\tadmins.push(_account)\n      DUP2 \t\t\tadmins.push(_account)\n      SLOAD \t\t\tadmins.push(_account)\n      DUP2 \t\t\tadmins.push(_account)\n      PUSH FFFFFFFFFFFFFFFFFFFFFFFFFFFFFFFFFFFFFFFF\t\t\tadmins.push(_account)\n      MUL \t\t\tadmins.push(_account)\n      NOT \t\t\tadmins.push(_account)\n      AND \t\t\tadmins.push(_account)\n      SWAP1 \t\t\tadmins.push(_account)\n      DUP4 \t\t\tadmins.push(_account)\n      PUSH FFFFFFFFFFFFFFFFFFFFFFFFFFFFFFFFFFFFFFFF\t\t\tadmins.push(_account)\n      AND \t\t\tadmins.push(_account)\n      MUL \t\t\tadmins.push(_account)\n      OR \t\t\tadmins.push(_account)\n      SWAP1 \t\t\tadmins.push(_account)\n      SSTORE \t\t\tadmins.push(_account)\n      POP \t\t\tadmins.push(_account)\n      PUSH 1\t\t\ttrue\n      PUSH 3\t\t\tisAdmin\n      PUSH 0\t\t\tisAdmin[_account]\n      DUP4 \t\t\t_account\n      PUSH FFFFFFFFFFFFFFFFFFFFFFFFFFFFFFFFFFFFFFFF\t\t\tisAdmin[_account]\n      AND \t\t\tisAdmin[_account]\n      PUSH FFFFFFFFFFFFFFFFFFFFFFFFFFFFFFFFFFFFFFFF\t\t\tisAdmin[_account]\n      AND \t\t\tisAdmin[_account]\n      DUP2 \t\t\tisAdmin[_account]\n      MSTORE \t\t\tisAdmin[_account]\n      PUSH 20\t\t\tisAdmin[_account]\n      ADD \t\t\tisAdmin[_account]\n      SWAP1 \t\t\tisAdmin[_account]\n      DUP2 \t\t\tisAdmin[_account]\n      MSTORE \t\t\tisAdmin[_account]\n      PUSH 20\t\t\tisAdmin[_account]\n      ADD \t\t\tisAdmin[_account]\n      PUSH 0\t\t\tisAdmin[_account]\n      KECCAK256 \t\t\tisAdmin[_account]\n      PUSH 0\t\t\tisAdmin[_account]\n      PUSH 100\t\t\tisAdmin[_account] = true\n      EXP \t\t\tisAdmin[_account] = true\n      DUP2 \t\t\tisAdmin[_account] = true\n      SLOAD \t\t\tisAdmin[_account] = true\n      DUP2 \t\t\tisAdmin[_account] = true\n      PUSH FF\t\t\tisAdmin[_account] = true\n      MUL \t\t\tisAdmin[_account] = true\n      NOT \t\t\tisAdmin[_account] = true\n      AND \t\t\tisAdmin[_account] = true\n      SWAP1 \t\t\tisAdmin[_account] = true\n      DUP4 \t\t\tisAdmin[_account] = true\n      ISZERO \t\t\tisAdmin[_account] = true\n      ISZERO \t\t\tisAdmin[_account] = true\n      MUL \t\t\tisAdmin[_account] = true\n      OR \t\t\tisAdmin[_account] = true\n      SWAP1 \t\t\tisAdmin[_account] = true\n      SSTORE \t\t\tisAdmin[_account] = true\n      POP \t\t\tisAdmin[_account] = true\n      DUP1 \t\t\t_account\n      PUSH FFFFFFFFFFFFFFFFFFFFFFFFFFFFFFFFFFFFFFFF\t\t\tAdminAdded(_account)\n      AND \t\t\tAdminAdded(_account)\n      PUSH 44D6D25963F097AD14F29F06854A01F575648A1EF82F30E562CCD3889717E339\t\t\tAdminAdded(_account)\n      PUSH 40\t\t\tAdminAdded(_account)\n      MLOAD \t\t\tAdminAdded(_account)\n      PUSH 40\t\t\tAdminAdded(_account)\n      MLOAD \t\t\tAdminAdded(_account)\n      DUP1 \t\t\tAdminAdded(_account)\n      SWAP2 \t\t\tAdminAdded(_account)\n      SUB \t\t\tAdminAdded(_account)\n      SWAP1 \t\t\tAdminAdded(_account)\n      LOG2 \t\t\tAdminAdded(_account)\n      POP \t\t\tfunction addAdmin(address _acc...\n      JUMP \t\t\tfunction addAdmin(address _acc...\n    tag 98\t\t\tfunction pause() external only...\n      JUMPDEST \t\t\tfunction pause() external only...\n      PUSH 3\t\t\tisAdmin\n      PUSH 0\t\t\tisAdmin[msg.sender]\n      CALLER \t\t\tmsg.sender\n      PUSH FFFFFFFFFFFFFFFFFFFFFFFFFFFFFFFFFFFFFFFF\t\t\tisAdmin[msg.sender]\n      AND \t\t\tisAdmin[msg.sender]\n      PUSH FFFFFFFFFFFFFFFFFFFFFFFFFFFFFFFFFFFFFFFF\t\t\tisAdmin[msg.sender]\n      AND \t\t\tisAdmin[msg.sender]\n      DUP2 \t\t\tisAdmin[msg.sender]\n      MSTORE \t\t\tisAdmin[msg.sender]\n      PUSH 20\t\t\tisAdmin[msg.sender]\n      ADD \t\t\tisAdmin[msg.sender]\n      SWAP1 \t\t\tisAdmin[msg.sender]\n      DUP2 \t\t\tisAdmin[msg.sender]\n      MSTORE \t\t\tisAdmin[msg.sender]\n      PUSH 20\t\t\tisAdmin[msg.sender]\n      ADD \t\t\tisAdmin[msg.sender]\n      PUSH 0\t\t\tisAdmin[msg.sender]\n      KECCAK256 \t\t\tisAdmin[msg.sender]\n      PUSH 0\t\t\tisAdmin[msg.sender]\n      SWAP1 \t\t\tisAdmin[msg.sender]\n      SLOAD \t\t\tisAdmin[msg.sender]\n      SWAP1 \t\t\tisAdmin[msg.sender]\n      PUSH 100\t\t\tisAdmin[msg.sender]\n      EXP \t\t\tisAdmin[msg.sender]\n      SWAP1 \t\t\tisAdmin[msg.sender]\n      DIV \t\t\tisAdmin[msg.sender]\n      PUSH FF\t\t\tisAdmin[msg.sender]\n      AND \t\t\tisAdmin[msg.sender]\n      PUSH [tag] 285\t\t\trequire(isAdmin[msg.sender], \"...\n      JUMPI \t\t\trequire(isAdmin[msg.sender], \"...\n      PUSH 40\t\t\trequire(isAdmin[msg.sender], \"...\n      MLOAD \t\t\trequire(isAdmin[msg.sender], \"...\n      PUSH 8C379A000000000000000000000000000000000000000000000000000000000\t\t\trequire(isAdmin[msg.sender], \"...\n      DUP2 \t\t\trequire(isAdmin[msg.sender], \"...\n      MSTORE \t\t\trequire(isAdmin[msg.sender], \"...\n      PUSH 4\t\t\trequire(isAdmin[msg.sender], \"...\n      ADD \t\t\trequire(isAdmin[msg.sender], \"...\n      PUSH [tag] 286\t\t\trequire(isAdmin[msg.sender], \"...\n      SWAP1 \t\t\trequire(isAdmin[msg.sender], \"...\n      PUSH [tag] 150\t\t\trequire(isAdmin[msg.sender], \"...\n      JUMP \t\t\trequire(isAdmin[msg.sender], \"...\n    tag 286\t\t\trequire(isAdmin[msg.sender], \"...\n      JUMPDEST \t\t\trequire(isAdmin[msg.sender], \"...\n      PUSH 40\t\t\trequire(isAdmin[msg.sender], \"...\n      MLOAD \t\t\trequire(isAdmin[msg.sender], \"...\n      DUP1 \t\t\trequire(isAdmin[msg.sender], \"...\n      SWAP2 \t\t\trequire(isAdmin[msg.sender], \"...\n      SUB \t\t\trequire(isAdmin[msg.sender], \"...\n      SWAP1 \t\t\trequire(isAdmin[msg.sender], \"...\n      REVERT \t\t\trequire(isAdmin[msg.sender], \"...\n    tag 285\t\t\trequire(isAdmin[msg.sender], \"...\n      JUMPDEST \t\t\trequire(isAdmin[msg.sender], \"...\n      PUSH [tag] 288\t\t\t_pause()\n      PUSH [tag] 289\t\t\t_pause\n      JUMP \t\t\t_pause()\n    tag 288\t\t\t_pause()\n      JUMPDEST \t\t\t_pause()\n      JUMP \t\t\tfunction pause() external only...\n    tag 101\t\t\taddress public defaultAdmin\n      JUMPDEST \t\t\taddress public defaultAdmin\n      PUSH 4\t\t\taddress public defaultAdmin\n      PUSH 0\t\t\taddress public defaultAdmin\n      SWAP1 \t\t\taddress public defaultAdmin\n      SLOAD \t\t\taddress public defaultAdmin\n      SWAP1 \t\t\taddress public defaultAdmin\n      PUSH 100\t\t\taddress public defaultAdmin\n      EXP \t\t\taddress public defaultAdmin\n      SWAP1 \t\t\taddress public defaultAdmin\n      DIV \t\t\taddress public defaultAdmin\n      PUSH FFFFFFFFFFFFFFFFFFFFFFFFFFFFFFFFFFFFFFFF\t\t\taddress public defaultAdmin\n      AND \t\t\taddress public defaultAdmin\n      DUP2 \t\t\taddress public defaultAdmin\n      JUMP \t\t\taddress public defaultAdmin\n    tag 107\t\t\tfunction createCashCall(addres...\n      JUMPDEST \t\t\tfunction createCashCall(addres...\n      PUSH [tag] 291\t\t\tecuted\\n    }\\n\\n    /\n      PUSH [tag] 32\t\t\tecuted\\n    }\\n\\n   \n      JUMP \t\t\tecuted\\n    }\\n\\n    /\n    tag 291\t\t\tecuted\\n    }\\n\\n    /\n      JUMPDEST \t\t\tecuted\\n    }\\n\\n    /\n      PUSH 3\t\t\tisAdmin\n      PUSH 0\t\t\tisAdmin[msg.sender]\n      CALLER \t\t\tmsg.sender\n      PUSH FFFFFFFFFFFFFFFFFFFFFFFFFFFFFFFFFFFFFFFF\t\t\tisAdmin[msg.sender]\n      AND \t\t\tisAdmin[msg.sender]\n      PUSH FFFFFFFFFFFFFFFFFFFFFFFFFFFFFFFFFFFFFFFF\t\t\tisAdmin[msg.sender]\n      AND \t\t\tisAdmin[msg.sender]\n      DUP2 \t\t\tisAdmin[msg.sender]\n      MSTORE \t\t\tisAdmin[msg.sender]\n      PUSH 20\t\t\tisAdmin[msg.sender]\n      ADD \t\t\tisAdmin[msg.sender]\n      SWAP1 \t\t\tisAdmin[msg.sender]\n      DUP2 \t\t\tisAdmin[msg.sender]\n      MSTORE \t\t\tisAdmin[msg.sender]\n      PUSH 20\t\t\tisAdmin[msg.sender]\n      ADD \t\t\tisAdmin[msg.sender]\n      PUSH 0\t\t\tisAdmin[msg.sender]\n      KECCAK256 \t\t\tisAdmin[msg.sender]\n      PUSH 0\t\t\tisAdmin[msg.sender]\n      SWAP1 \t\t\tisAdmin[msg.sender]\n      SLOAD \t\t\tisAdmin[msg.sender]\n      SWAP1 \t\t\tisAdmin[msg.sender]\n      PUSH 100\t\t\tisAdmin[msg.sender]\n      EXP \t\t\tisAdmin[msg.sender]\n      SWAP1 \t\t\tisAdmin[msg.sender]\n      DIV \t\t\tisAdmin[msg.sender]\n      PUSH FF\t\t\tisAdmin[msg.sender]\n      AND \t\t\tisAdmin[msg.sender]\n      PUSH [tag] 293\t\t\trequire(isAdmin[msg.sender], \"...\n      JUMPI \t\t\trequire(isAdmin[msg.sender], \"...\n      PUSH 40\t\t\trequire(isAdmin[msg.sender], \"...\n      MLOAD \t\t\trequire(isAdmin[msg.sender], \"...\n      PUSH 8C379A000000000000000000000000000000000000000000000000000000000\t\t\trequire(isAdmin[msg.sender], \"...\n      DUP2 \t\t\trequire(isAdmin[msg.sender], \"...\n      MSTORE \t\t\trequire(isAdmin[msg.sender], \"...\n      PUSH 4\t\t\trequire(isAdmin[msg.sender], \"...\n      ADD \t\t\trequire(isAdmin[msg.sender], \"...\n      PUSH [tag] 294\t\t\trequire(isAdmin[msg.sender], \"...\n      SWAP1 \t\t\trequire(isAdmin[msg.sender], \"...\n      PUSH [tag] 150\t\t\trequire(isAdmin[msg.sender], \"...\n      JUMP \t\t\trequire(isAdmin[msg.sender], \"...\n    tag 294\t\t\trequire(isAdmin[msg.sender], \"...\n      JUMPDEST \t\t\trequire(isAdmin[msg.sender], \"...\n      PUSH 40\t\t\trequire(isAdmin[msg.sender], \"...\n      MLOAD \t\t\trequire(isAdmin[msg.sender], \"...\n      DUP1 \t\t\trequire(isAdmin[msg.sender], \"...\n      SWAP2 \t\t\trequire(isAdmin[msg.sender], \"...\n      SUB \t\t\trequire(isAdmin[msg.sender], \"...\n      SWAP1 \t\t\trequire(isAdmin[msg.sender], \"...\n      REVERT \t\t\trequire(isAdmin[msg.sender], \"...\n    tag 293\t\t\trequire(isAdmin[msg.sender], \"...\n      JUMPDEST \t\t\trequire(isAdmin[msg.sender], \"...\n      PUSH [tag] 296\t\t\tisLP(_lp)\n      DUP4 \t\t\t_lp\n      PUSH [tag] 221\t\t\tisLP\n      JUMP \t\t\tisLP(_lp)\n    tag 296\t\t\tisLP(_lp)\n      JUMPDEST \t\t\tisLP(_lp)\n      PUSH [tag] 297\t\t\trequire(isLP(_lp), \"Not an LP!...\n      JUMPI \t\t\trequire(isLP(_lp), \"Not an LP!...\n      PUSH 40\t\t\trequire(isLP(_lp), \"Not an LP!...\n      MLOAD \t\t\trequire(isLP(_lp), \"Not an LP!...\n      PUSH 8C379A000000000000000000000000000000000000000000000000000000000\t\t\trequire(isLP(_lp), \"Not an LP!...\n      DUP2 \t\t\trequire(isLP(_lp), \"Not an LP!...\n      MSTORE \t\t\trequire(isLP(_lp), \"Not an LP!...\n      PUSH 4\t\t\trequire(isLP(_lp), \"Not an LP!...\n      ADD \t\t\trequire(isLP(_lp), \"Not an LP!...\n      PUSH [tag] 298\t\t\trequire(isLP(_lp), \"Not an LP!...\n      SWAP1 \t\t\trequire(isLP(_lp), \"Not an LP!...\n      PUSH [tag] 299\t\t\trequire(isLP(_lp), \"Not an LP!...\n      JUMP \t\t\trequire(isLP(_lp), \"Not an LP!...\n    tag 298\t\t\trequire(isLP(_lp), \"Not an LP!...\n      JUMPDEST \t\t\trequire(isLP(_lp), \"Not an LP!...\n      PUSH 40\t\t\trequire(isLP(_lp), \"Not an LP!...\n      MLOAD \t\t\trequire(isLP(_lp), \"Not an LP!...\n      DUP1 \t\t\trequire(isLP(_lp), \"Not an LP!...\n      SWAP2 \t\t\trequire(isLP(_lp), \"Not an LP!...\n      SUB \t\t\trequire(isLP(_lp), \"Not an LP!...\n      SWAP1 \t\t\trequire(isLP(_lp), \"Not an LP!...\n      REVERT \t\t\trequire(isLP(_lp), \"Not an LP!...\n    tag 297\t\t\trequire(isLP(_lp), \"Not an LP!...\n      JUMPDEST \t\t\trequire(isLP(_lp), \"Not an LP!...\n      PUSH 0\t\t\t0\n      DUP3 \t\t\t_amount\n      GT \t\t\t_amount > 0\n      PUSH [tag] 300\t\t\trequire(_amount > 0, \"Cash cal...\n      JUMPI \t\t\trequire(_amount > 0, \"Cash cal...\n      PUSH 40\t\t\trequire(_amount > 0, \"Cash cal...\n      MLOAD \t\t\trequire(_amount > 0, \"Cash cal...\n      PUSH 8C379A000000000000000000000000000000000000000000000000000000000\t\t\trequire(_amount > 0, \"Cash cal...\n      DUP2 \t\t\trequire(_amount > 0, \"Cash cal...\n      MSTORE \t\t\trequire(_amount > 0, \"Cash cal...\n      PUSH 4\t\t\trequire(_amount > 0, \"Cash cal...\n      ADD \t\t\trequire(_amount > 0, \"Cash cal...\n      PUSH [tag] 301\t\t\trequire(_amount > 0, \"Cash cal...\n      SWAP1 \t\t\trequire(_amount > 0, \"Cash cal...\n      PUSH [tag] 302\t\t\trequire(_amount > 0, \"Cash cal...\n      JUMP \t\t\trequire(_amount > 0, \"Cash cal...\n    tag 301\t\t\trequire(_amount > 0, \"Cash cal...\n      JUMPDEST \t\t\trequire(_amount > 0, \"Cash cal...\n      PUSH 40\t\t\trequire(_amount > 0, \"Cash cal...\n      MLOAD \t\t\trequire(_amount > 0, \"Cash cal...\n      DUP1 \t\t\trequire(_amount > 0, \"Cash cal...\n      SWAP2 \t\t\trequire(_amount > 0, \"Cash cal...\n      SUB \t\t\trequire(_amount > 0, \"Cash cal...\n      SWAP1 \t\t\trequire(_amount > 0, \"Cash cal...\n      REVERT \t\t\trequire(_amount > 0, \"Cash cal...\n    tag 300\t\t\trequire(_amount > 0, \"Cash cal...\n      JUMPDEST \t\t\trequire(_amount > 0, \"Cash cal...\n      TIMESTAMP \t\t\tblock.timestamp\n      DUP2 \t\t\t_deadline\n      GT \t\t\t_deadline > block.timestamp\n      DUP1 \t\t\t_deadline > block.timestamp &&...\n      ISZERO \t\t\t_deadline > block.timestamp &&...\n      PUSH [tag] 303\t\t\t_deadline > block.timestamp &&...\n      JUMPI \t\t\t_deadline > block.timestamp &&...\n      POP \t\t\t_deadline > block.timestamp &&...\n      PUSH 7\t\t\tlpData\n      PUSH 0\t\t\tlpData[_lp]\n      DUP5 \t\t\t_lp\n      PUSH FFFFFFFFFFFFFFFFFFFFFFFFFFFFFFFFFFFFFFFF\t\t\tlpData[_lp]\n      AND \t\t\tlpData[_lp]\n      PUSH FFFFFFFFFFFFFFFFFFFFFFFFFFFFFFFFFFFFFFFF\t\t\tlpData[_lp]\n      AND \t\t\tlpData[_lp]\n      DUP2 \t\t\tlpData[_lp]\n      MSTORE \t\t\tlpData[_lp]\n      PUSH 20\t\t\tlpData[_lp]\n      ADD \t\t\tlpData[_lp]\n      SWAP1 \t\t\tlpData[_lp]\n      DUP2 \t\t\tlpData[_lp]\n      MSTORE \t\t\tlpData[_lp]\n      PUSH 20\t\t\tlpData[_lp]\n      ADD \t\t\tlpData[_lp]\n      PUSH 0\t\t\tlpData[_lp]\n      KECCAK256 \t\t\tlpData[_lp]\n      PUSH 3\t\t\tlpData[_lp].endTime\n      ADD \t\t\tlpData[_lp].endTime\n      SLOAD \t\t\tlpData[_lp].endTime\n      DUP2 \t\t\t_deadline\n      GT \t\t\t_deadline <= lpData[_lp].endTi...\n      ISZERO \t\t\t_deadline <= lpData[_lp].endTi...\n    tag 303\t\t\t_deadline > block.timestamp &&...\n      JUMPDEST \t\t\t_deadline > block.timestamp &&...\n      PUSH [tag] 304\t\t\trequire(_deadline > block.time...\n      JUMPI \t\t\trequire(_deadline > block.time...\n      PUSH 40\t\t\trequire(_deadline > block.time...\n      MLOAD \t\t\trequire(_deadline > block.time...\n      PUSH 8C379A000000000000000000000000000000000000000000000000000000000\t\t\trequire(_deadline > block.time...\n      DUP2 \t\t\trequire(_deadline > block.time...\n      MSTORE \t\t\trequire(_deadline > block.time...\n      PUSH 4\t\t\trequire(_deadline > block.time...\n      ADD \t\t\trequire(_deadline > block.time...\n      PUSH [tag] 305\t\t\trequire(_deadline > block.time...\n      SWAP1 \t\t\trequire(_deadline > block.time...\n      PUSH [tag] 306\t\t\trequire(_deadline > block.time...\n      JUMP \t\t\trequire(_deadline > block.time...\n    tag 305\t\t\trequire(_deadline > block.time...\n      JUMPDEST \t\t\trequire(_deadline > block.time...\n      PUSH 40\t\t\trequire(_deadline > block.time...\n      MLOAD \t\t\trequire(_deadline > block.time...\n      DUP1 \t\t\trequire(_deadline > block.time...\n      SWAP2 \t\t\trequire(_deadline > block.time...\n      SUB \t\t\trequire(_deadline > block.time...\n      SWAP1 \t\t\trequire(_deadline > block.time...\n      REVERT \t\t\trequire(_deadline > block.time...\n    tag 304\t\t\trequire(_deadline > block.time...\n      JUMPDEST \t\t\trequire(_deadline > block.time...\n      PUSH 0\t\t\tCashCall[] storage existingCal...\n      PUSH 8\t\t\tcashCalls\n      PUSH 0\t\t\tcashCalls[_lp]\n      DUP6 \t\t\t_lp\n      PUSH FFFFFFFFFFFFFFFFFFFFFFFFFFFFFFFFFFFFFFFF\t\t\tcashCalls[_lp]\n      AND \t\t\tcashCalls[_lp]\n      PUSH FFFFFFFFFFFFFFFFFFFFFFFFFFFFFFFFFFFFFFFF\t\t\tcashCalls[_lp]\n      AND \t\t\tcashCalls[_lp]\n      DUP2 \t\t\tcashCalls[_lp]\n      MSTORE \t\t\tcashCalls[_lp]\n      PUSH 20\t\t\tcashCalls[_lp]\n      ADD \t\t\tcashCalls[_lp]\n      SWAP1 \t\t\tcashCalls[_lp]\n      DUP2 \t\t\tcashCalls[_lp]\n      MSTORE \t\t\tcashCalls[_lp]\n      PUSH 20\t\t\tcashCalls[_lp]\n      ADD \t\t\tcashCalls[_lp]\n      PUSH 0\t\t\tcashCalls[_lp]\n      KECCAK256 \t\t\tcashCalls[_lp]\n      SWAP1 \t\t\tCashCall[] storage existingCal...\n      POP \t\t\tCashCall[] storage existingCal...\n      PUSH 0\t\t\t0\n      DUP2 \t\t\texistingCalls\n      DUP1 \t\t\texistingCalls.length\n      SLOAD \t\t\texistingCalls.length\n      SWAP1 \t\t\texistingCalls.length\n      POP \t\t\texistingCalls.length\n      GT \t\t\texistingCalls.length > 0\n      ISZERO \t\t\tif (existingCalls.length > 0) ...\n      PUSH [tag] 307\t\t\tif (existingCalls.length > 0) ...\n      JUMPI \t\t\tif (existingCalls.length > 0) ...\n      PUSH 0\t\t\tuint256 lastDeadline\n      DUP2 \t\t\texistingCalls\n      PUSH 1\t\t\t1\n      DUP4 \t\t\texistingCalls\n      DUP1 \t\t\texistingCalls.length\n      SLOAD \t\t\texistingCalls.length\n      SWAP1 \t\t\texistingCalls.length\n      POP \t\t\texistingCalls.length\n      PUSH [tag] 308\t\t\texistingCalls.length - 1\n      SWAP2 \t\t\texistingCalls.length - 1\n      SWAP1 \t\t\texistingCalls.length - 1\n      PUSH [tag] 200\t\t\texistingCalls.length - 1\n      JUMP \t\t\texistingCalls.length - 1\n    tag 308\t\t\texistingCalls.length - 1\n      JUMPDEST \t\t\texistingCalls.length - 1\n      DUP2 \t\t\texistingCalls[existingCalls.le...\n      SLOAD \t\t\texistingCalls[existingCalls.le...\n      DUP2 \t\t\texistingCalls[existingCalls.le...\n      LT \t\t\texistingCalls[existingCalls.le...\n      PUSH [tag] 309\t\t\texistingCalls[existingCalls.le...\n      JUMPI \t\t\texistingCalls[existingCalls.le...\n      PUSH [tag] 310\t\t\texistingCalls[existingCalls.le...\n      PUSH [tag] 196\t\t\texistingCalls[existingCalls.le...\n      JUMP \t\t\texistingCalls[existingCalls.le...\n    tag 310\t\t\texistingCalls[existingCalls.le...\n      JUMPDEST \t\t\texistingCalls[existingCalls.le...\n    tag 309\t\t\texistingCalls[existingCalls.le...\n      JUMPDEST \t\t\texistingCalls[existingCalls.le...\n      SWAP1 \t\t\texistingCalls[existingCalls.le...\n      PUSH 0\t\t\texistingCalls[existingCalls.le...\n      MSTORE \t\t\texistingCalls[existingCalls.le...\n      PUSH 20\t\t\texistingCalls[existingCalls.le...\n      PUSH 0\t\t\texistingCalls[existingCalls.le...\n      KECCAK256 \t\t\texistingCalls[existingCalls.le...\n      SWAP1 \t\t\texistingCalls[existingCalls.le...\n      PUSH 4\t\t\texistingCalls[existingCalls.le...\n      MUL \t\t\texistingCalls[existingCalls.le...\n      ADD \t\t\texistingCalls[existingCalls.le...\n      PUSH 2\t\t\texistingCalls[existingCalls.le...\n      ADD \t\t\texistingCalls[existingCalls.le...\n      SLOAD \t\t\texistingCalls[existingCalls.le...\n      SWAP1 \t\t\tuint256 lastDeadline = existin...\n      POP \t\t\tuint256 lastDeadline = existin...\n      DUP1 \t\t\tlastDeadline\n      DUP4 \t\t\t_deadline\n      GT \t\t\t_deadline > lastDeadline\n      PUSH [tag] 312\t\t\trequire(_deadline > lastDeadli...\n      JUMPI \t\t\trequire(_deadline > lastDeadli...\n      PUSH 40\t\t\trequire(_deadline > lastDeadli...\n      MLOAD \t\t\trequire(_deadline > lastDeadli...\n      PUSH 8C379A000000000000000000000000000000000000000000000000000000000\t\t\trequire(_deadline > lastDeadli...\n      DUP2 \t\t\trequire(_deadline > lastDeadli...\n      MSTORE \t\t\trequire(_deadline > lastDeadli...\n      PUSH 4\t\t\trequire(_deadline > lastDeadli...\n      ADD \t\t\trequire(_deadline > lastDeadli...\n      PUSH [tag] 313\t\t\trequire(_deadline > lastDeadli...\n      SWAP1 \t\t\trequire(_deadline > lastDeadli...\n      PUSH [tag] 314\t\t\trequire(_deadline > lastDeadli...\n      JUMP \t\t\trequire(_deadline > lastDeadli...\n    tag 313\t\t\trequire(_deadline > lastDeadli...\n      JUMPDEST \t\t\trequire(_deadline > lastDeadli...\n      PUSH 40\t\t\trequire(_deadline > lastDeadli...\n      MLOAD \t\t\trequire(_deadline > lastDeadli...\n      DUP1 \t\t\trequire(_deadline > lastDeadli...\n      SWAP2 \t\t\trequire(_deadline > lastDeadli...\n      SUB \t\t\trequire(_deadline > lastDeadli...\n      SWAP1 \t\t\trequire(_deadline > lastDeadli...\n      REVERT \t\t\trequire(_deadline > lastDeadli...\n    tag 312\t\t\trequire(_deadline > lastDeadli...\n      JUMPDEST \t\t\trequire(_deadline > lastDeadli...\n      POP \t\t\t{\\n            uint256 lastDea...\n    tag 307\t\t\tif (existingCalls.length > 0) ...\n      JUMPDEST \t\t\tif (existingCalls.length > 0) ...\n      PUSH 8\t\t\tcashCalls\n      PUSH 0\t\t\tcashCalls[_lp]\n      DUP6 \t\t\t_lp\n      PUSH FFFFFFFFFFFFFFFFFFFFFFFFFFFFFFFFFFFFFFFF\t\t\tcashCalls[_lp]\n      AND \t\t\tcashCalls[_lp]\n      PUSH FFFFFFFFFFFFFFFFFFFFFFFFFFFFFFFFFFFFFFFF\t\t\tcashCalls[_lp]\n      AND \t\t\tcashCalls[_lp]\n      DUP2 \t\t\tcashCalls[_lp]\n      MSTORE \t\t\tcashCalls[_lp]\n      PUSH 20\t\t\tcashCalls[_lp]\n      ADD \t\t\tcashCalls[_lp]\n      SWAP1 \t\t\tcashCalls[_lp]\n      DUP2 \t\t\tcashCalls[_lp]\n      MSTORE \t\t\tcashCalls[_lp]\n      PUSH 20\t\t\tcashCalls[_lp]\n      ADD \t\t\tcashCalls[_lp]\n      PUSH 0\t\t\tcashCalls[_lp]\n      KECCAK256 \t\t\tcashCalls[_lp]\n      PUSH 40\t\t\tCashCall(_amount, 0, _deadline...\n      MLOAD \t\t\tCashCall(_amount, 0, _deadline...\n      DUP1 \t\t\tCashCall(_amount, 0, _deadline...\n      PUSH 80\t\t\tCashCall(_amount, 0, _deadline...\n      ADD \t\t\tCashCall(_amount, 0, _deadline...\n      PUSH 40\t\t\tCashCall(_amount, 0, _deadline...\n      MSTORE \t\t\tCashCall(_amount, 0, _deadline...\n      DUP1 \t\t\tCashCall(_amount, 0, _deadline...\n      DUP6 \t\t\t_amount\n      DUP2 \t\t\tCashCall(_amount, 0, _deadline...\n      MSTORE \t\t\tCashCall(_amount, 0, _deadline...\n      PUSH 20\t\t\tCashCall(_amount, 0, _deadline...\n      ADD \t\t\tCashCall(_amount, 0, _deadline...\n      PUSH 0\t\t\t0\n      DUP2 \t\t\tCashCall(_amount, 0, _deadline...\n      MSTORE \t\t\tCashCall(_amount, 0, _deadline...\n      PUSH 20\t\t\tCashCall(_amount, 0, _deadline...\n      ADD \t\t\tCashCall(_amount, 0, _deadline...\n      DUP5 \t\t\t_deadline\n      DUP2 \t\t\tCashCall(_amount, 0, _deadline...\n      MSTORE \t\t\tCashCall(_amount, 0, _deadline...\n      PUSH 20\t\t\tCashCall(_amount, 0, _deadline...\n      ADD \t\t\tCashCall(_amount, 0, _deadline...\n      PUSH 0\t\t\tfalse\n      ISZERO \t\t\tCashCall(_amount, 0, _deadline...\n      ISZERO \t\t\tCashCall(_amount, 0, _deadline...\n      DUP2 \t\t\tCashCall(_amount, 0, _deadline...\n      MSTORE \t\t\tCashCall(_amount, 0, _deadline...\n      POP \t\t\tCashCall(_amount, 0, _deadline...\n      SWAP1 \t\t\tcashCalls[_lp].push(CashCall(_...\n      DUP1 \t\t\tcashCalls[_lp].push(CashCall(_...\n      PUSH 1\t\t\tcashCalls[_lp].push(CashCall(_...\n      DUP2 \t\t\tcashCalls[_lp].push(CashCall(_...\n      SLOAD \t\t\tcashCalls[_lp].push(CashCall(_...\n      ADD \t\t\tcashCalls[_lp].push(CashCall(_...\n      DUP1 \t\t\tcashCalls[_lp].push(CashCall(_...\n      DUP3 \t\t\tcashCalls[_lp].push(CashCall(_...\n      SSTORE \t\t\tcashCalls[_lp].push(CashCall(_...\n      DUP1 \t\t\tcashCalls[_lp].push(CashCall(_...\n      SWAP2 \t\t\tcashCalls[_lp].push(CashCall(_...\n      POP \t\t\tcashCalls[_lp].push(CashCall(_...\n      POP \t\t\tcashCalls[_lp].push(CashCall(_...\n      PUSH 1\t\t\tcashCalls[_lp].push(CashCall(_...\n      SWAP1 \t\t\tcashCalls[_lp].push(CashCall(_...\n      SUB \t\t\tcashCalls[_lp].push(CashCall(_...\n      SWAP1 \t\t\tcashCalls[_lp].push(CashCall(_...\n      PUSH 0\t\t\tcashCalls[_lp].push(CashCall(_...\n      MSTORE \t\t\tcashCalls[_lp].push(CashCall(_...\n      PUSH 20\t\t\tcashCalls[_lp].push(CashCall(_...\n      PUSH 0\t\t\tcashCalls[_lp].push(CashCall(_...\n      KECCAK256 \t\t\tcashCalls[_lp].push(CashCall(_...\n      SWAP1 \t\t\tcashCalls[_lp].push(CashCall(_...\n      PUSH 4\t\t\tcashCalls[_lp].push(CashCall(_...\n      MUL \t\t\tcashCalls[_lp].push(CashCall(_...\n      ADD \t\t\tcashCalls[_lp].push(CashCall(_...\n      PUSH 0\t\t\tcashCalls[_lp].push(CashCall(_...\n      SWAP1 \t\t\tcashCalls[_lp].push(CashCall(_...\n      SWAP2 \t\t\tcashCalls[_lp].push(CashCall(_...\n      SWAP1 \t\t\tcashCalls[_lp].push(CashCall(_...\n      SWAP2 \t\t\tcashCalls[_lp].push(CashCall(_...\n      SWAP1 \t\t\tcashCalls[_lp].push(CashCall(_...\n      SWAP2 \t\t\tcashCalls[_lp].push(CashCall(_...\n      POP \t\t\tcashCalls[_lp].push(CashCall(_...\n      PUSH 0\t\t\tcashCalls[_lp].push(CashCall(_...\n      DUP3 \t\t\tcashCalls[_lp].push(CashCall(_...\n      ADD \t\t\tcashCalls[_lp].push(CashCall(_...\n      MLOAD \t\t\tcashCalls[_lp].push(CashCall(_...\n      DUP2 \t\t\tcashCalls[_lp].push(CashCall(_...\n      PUSH 0\t\t\tcashCalls[_lp].push(CashCall(_...\n      ADD \t\t\tcashCalls[_lp].push(CashCall(_...\n      SSTORE \t\t\tcashCalls[_lp].push(CashCall(_...\n      PUSH 20\t\t\tcashCalls[_lp].push(CashCall(_...\n      DUP3 \t\t\tcashCalls[_lp].push(CashCall(_...\n      ADD \t\t\tcashCalls[_lp].push(CashCall(_...\n      MLOAD \t\t\tcashCalls[_lp].push(CashCall(_...\n      DUP2 \t\t\tcashCalls[_lp].push(CashCall(_...\n      PUSH 1\t\t\tcashCalls[_lp].push(CashCall(_...\n      ADD \t\t\tcashCalls[_lp].push(CashCall(_...\n      SSTORE \t\t\tcashCalls[_lp].push(CashCall(_...\n      PUSH 40\t\t\tcashCalls[_lp].push(CashCall(_...\n      DUP3 \t\t\tcashCalls[_lp].push(CashCall(_...\n      ADD \t\t\tcashCalls[_lp].push(CashCall(_...\n      MLOAD \t\t\tcashCalls[_lp].push(CashCall(_...\n      DUP2 \t\t\tcashCalls[_lp].push(CashCall(_...\n      PUSH 2\t\t\tcashCalls[_lp].push(CashCall(_...\n      ADD \t\t\tcashCalls[_lp].push(CashCall(_...\n      SSTORE \t\t\tcashCalls[_lp].push(CashCall(_...\n      PUSH 60\t\t\tcashCalls[_lp].push(CashCall(_...\n      DUP3 \t\t\tcashCalls[_lp].push(CashCall(_...\n      ADD \t\t\tcashCalls[_lp].push(CashCall(_...\n      MLOAD \t\t\tcashCalls[_lp].push(CashCall(_...\n      DUP2 \t\t\tcashCalls[_lp].push(CashCall(_...\n      PUSH 3\t\t\tcashCalls[_lp].push(CashCall(_...\n      ADD \t\t\tcashCalls[_lp].push(CashCall(_...\n      PUSH 0\t\t\tcashCalls[_lp].push(CashCall(_...\n      PUSH 100\t\t\tcashCalls[_lp].push(CashCall(_...\n      EXP \t\t\tcashCalls[_lp].push(CashCall(_...\n      DUP2 \t\t\tcashCalls[_lp].push(CashCall(_...\n      SLOAD \t\t\tcashCalls[_lp].push(CashCall(_...\n      DUP2 \t\t\tcashCalls[_lp].push(CashCall(_...\n      PUSH FF\t\t\tcashCalls[_lp].push(CashCall(_...\n      MUL \t\t\tcashCalls[_lp].push(CashCall(_...\n      NOT \t\t\tcashCalls[_lp].push(CashCall(_...\n      AND \t\t\tcashCalls[_lp].push(CashCall(_...\n      SWAP1 \t\t\tcashCalls[_lp].push(CashCall(_...\n      DUP4 \t\t\tcashCalls[_lp].push(CashCall(_...\n      ISZERO \t\t\tcashCalls[_lp].push(CashCall(_...\n      ISZERO \t\t\tcashCalls[_lp].push(CashCall(_...\n      MUL \t\t\tcashCalls[_lp].push(CashCall(_...\n      OR \t\t\tcashCalls[_lp].push(CashCall(_...\n      SWAP1 \t\t\tcashCalls[_lp].push(CashCall(_...\n      SSTORE \t\t\tcashCalls[_lp].push(CashCall(_...\n      POP \t\t\tcashCalls[_lp].push(CashCall(_...\n      POP \t\t\tcashCalls[_lp].push(CashCall(_...\n      POP \t\t\tcashCalls[_lp].push(CashCall(_...\n      PUSH 91DF0A6856D12CAA53A1827A8383398220295D5770E0711C14484DB4304016AB\t\t\tCashCallCreated(existingCalls....\n      DUP2 \t\t\texistingCalls\n      DUP1 \t\t\texistingCalls.length\n      SLOAD \t\t\texistingCalls.length\n      SWAP1 \t\t\texistingCalls.length\n      POP \t\t\texistingCalls.length\n      DUP5 \t\t\t_amount\n      DUP5 \t\t\t_deadline\n      PUSH 40\t\t\tCashCallCreated(existingCalls....\n      MLOAD \t\t\tCashCallCreated(existingCalls....\n      PUSH [tag] 316\t\t\tCashCallCreated(existingCalls....\n      SWAP4 \t\t\tCashCallCreated(existingCalls....\n      SWAP3 \t\t\tCashCallCreated(existingCalls....\n      SWAP2 \t\t\tCashCallCreated(existingCalls....\n      SWAP1 \t\t\tCashCallCreated(existingCalls....\n      PUSH [tag] 317\t\t\tCashCallCreated(existingCalls....\n      JUMP \t\t\tCashCallCreated(existingCalls....\n    tag 316\t\t\tCashCallCreated(existingCalls....\n      JUMPDEST \t\t\tCashCallCreated(existingCalls....\n      PUSH 40\t\t\tCashCallCreated(existingCalls....\n      MLOAD \t\t\tCashCallCreated(existingCalls....\n      DUP1 \t\t\tCashCallCreated(existingCalls....\n      SWAP2 \t\t\tCashCallCreated(existingCalls....\n      SUB \t\t\tCashCallCreated(existingCalls....\n      SWAP1 \t\t\tCashCallCreated(existingCalls....\n      LOG1 \t\t\tCashCallCreated(existingCalls....\n      POP \t\t\t{\\n        require(isLP(_lp), ...\n      POP \t\t\tfunction createCashCall(addres...\n      POP \t\t\tfunction createCashCall(addres...\n      POP \t\t\tfunction createCashCall(addres...\n      JUMP \t\t\tfunction createCashCall(addres...\n    tag 111\t\t\tfunction getCashCalls(address ...\n      JUMPDEST \t\t\tfunction getCashCalls(address ...\n      PUSH 60\t\t\tCashCall[] memory\n      PUSH 8\t\t\tcashCalls\n      PUSH 0\t\t\tcashCalls[_lp]\n      DUP4 \t\t\t_lp\n      PUSH FFFFFFFFFFFFFFFFFFFFFFFFFFFFFFFFFFFFFFFF\t\t\tcashCalls[_lp]\n      AND \t\t\tcashCalls[_lp]\n      PUSH FFFFFFFFFFFFFFFFFFFFFFFFFFFFFFFFFFFFFFFF\t\t\tcashCalls[_lp]\n      AND \t\t\tcashCalls[_lp]\n      DUP2 \t\t\tcashCalls[_lp]\n      MSTORE \t\t\tcashCalls[_lp]\n      PUSH 20\t\t\tcashCalls[_lp]\n      ADD \t\t\tcashCalls[_lp]\n      SWAP1 \t\t\tcashCalls[_lp]\n      DUP2 \t\t\tcashCalls[_lp]\n      MSTORE \t\t\tcashCalls[_lp]\n      PUSH 20\t\t\tcashCalls[_lp]\n      ADD \t\t\tcashCalls[_lp]\n      PUSH 0\t\t\tcashCalls[_lp]\n      KECCAK256 \t\t\tcashCalls[_lp]\n      DUP1 \t\t\treturn cashCalls[_lp]\n      SLOAD \t\t\treturn cashCalls[_lp]\n      DUP1 \t\t\treturn cashCalls[_lp]\n      PUSH 20\t\t\treturn cashCalls[_lp]\n      MUL \t\t\treturn cashCalls[_lp]\n      PUSH 20\t\t\treturn cashCalls[_lp]\n      ADD \t\t\treturn cashCalls[_lp]\n      PUSH 40\t\t\treturn cashCalls[_lp]\n      MLOAD \t\t\treturn cashCalls[_lp]\n      SWAP1 \t\t\treturn cashCalls[_lp]\n      DUP2 \t\t\treturn cashCalls[_lp]\n      ADD \t\t\treturn cashCalls[_lp]\n      PUSH 40\t\t\treturn cashCalls[_lp]\n      MSTORE \t\t\treturn cashCalls[_lp]\n      DUP1 \t\t\treturn cashCalls[_lp]\n      SWAP3 \t\t\treturn cashCalls[_lp]\n      SWAP2 \t\t\treturn cashCalls[_lp]\n      SWAP1 \t\t\treturn cashCalls[_lp]\n      DUP2 \t\t\treturn cashCalls[_lp]\n      DUP2 \t\t\treturn cashCalls[_lp]\n      MSTORE \t\t\treturn cashCalls[_lp]\n      PUSH 20\t\t\treturn cashCalls[_lp]\n      ADD \t\t\treturn cashCalls[_lp]\n      PUSH 0\t\t\treturn cashCalls[_lp]\n      SWAP1 \t\t\treturn cashCalls[_lp]\n    tag 319\t\t\treturn cashCalls[_lp]\n      JUMPDEST \t\t\treturn cashCalls[_lp]\n      DUP3 \t\t\treturn cashCalls[_lp]\n      DUP3 \t\t\treturn cashCalls[_lp]\n      LT \t\t\treturn cashCalls[_lp]\n      ISZERO \t\t\treturn cashCalls[_lp]\n      PUSH [tag] 320\t\t\treturn cashCalls[_lp]\n      JUMPI \t\t\treturn cashCalls[_lp]\n      DUP4 \t\t\treturn cashCalls[_lp]\n      DUP3 \t\t\treturn cashCalls[_lp]\n      SWAP1 \t\t\treturn cashCalls[_lp]\n      PUSH 0\t\t\treturn cashCalls[_lp]\n      MSTORE \t\t\treturn cashCalls[_lp]\n      PUSH 20\t\t\treturn cashCalls[_lp]\n      PUSH 0\t\t\treturn cashCalls[_lp]\n      KECCAK256 \t\t\treturn cashCalls[_lp]\n      SWAP1 \t\t\treturn cashCalls[_lp]\n      PUSH 4\t\t\treturn cashCalls[_lp]\n      MUL \t\t\treturn cashCalls[_lp]\n      ADD \t\t\treturn cashCalls[_lp]\n      PUSH 40\t\t\treturn cashCalls[_lp]\n      MLOAD \t\t\treturn cashCalls[_lp]\n      DUP1 \t\t\treturn cashCalls[_lp]\n      PUSH 80\t\t\treturn cashCalls[_lp]\n      ADD \t\t\treturn cashCalls[_lp]\n      PUSH 40\t\t\treturn cashCalls[_lp]\n      MSTORE \t\t\treturn cashCalls[_lp]\n      SWAP1 \t\t\treturn cashCalls[_lp]\n      DUP2 \t\t\treturn cashCalls[_lp]\n      PUSH 0\t\t\treturn cashCalls[_lp]\n      DUP3 \t\t\treturn cashCalls[_lp]\n      ADD \t\t\treturn cashCalls[_lp]\n      SLOAD \t\t\treturn cashCalls[_lp]\n      DUP2 \t\t\treturn cashCalls[_lp]\n      MSTORE \t\t\treturn cashCalls[_lp]\n      PUSH 20\t\t\treturn cashCalls[_lp]\n      ADD \t\t\treturn cashCalls[_lp]\n      PUSH 1\t\t\treturn cashCalls[_lp]\n      DUP3 \t\t\treturn cashCalls[_lp]\n      ADD \t\t\treturn cashCalls[_lp]\n      SLOAD \t\t\treturn cashCalls[_lp]\n      DUP2 \t\t\treturn cashCalls[_lp]\n      MSTORE \t\t\treturn cashCalls[_lp]\n      PUSH 20\t\t\treturn cashCalls[_lp]\n      ADD \t\t\treturn cashCalls[_lp]\n      PUSH 2\t\t\treturn cashCalls[_lp]\n      DUP3 \t\t\treturn cashCalls[_lp]\n      ADD \t\t\treturn cashCalls[_lp]\n      SLOAD \t\t\treturn cashCalls[_lp]\n      DUP2 \t\t\treturn cashCalls[_lp]\n      MSTORE \t\t\treturn cashCalls[_lp]\n      PUSH 20\t\t\treturn cashCalls[_lp]\n      ADD \t\t\treturn cashCalls[_lp]\n      PUSH 3\t\t\treturn cashCalls[_lp]\n      DUP3 \t\t\treturn cashCalls[_lp]\n      ADD \t\t\treturn cashCalls[_lp]\n      PUSH 0\t\t\treturn cashCalls[_lp]\n      SWAP1 \t\t\treturn cashCalls[_lp]\n      SLOAD \t\t\treturn cashCalls[_lp]\n      SWAP1 \t\t\treturn cashCalls[_lp]\n      PUSH 100\t\t\treturn cashCalls[_lp]\n      EXP \t\t\treturn cashCalls[_lp]\n      SWAP1 \t\t\treturn cashCalls[_lp]\n      DIV \t\t\treturn cashCalls[_lp]\n      PUSH FF\t\t\treturn cashCalls[_lp]\n      AND \t\t\treturn cashCalls[_lp]\n      ISZERO \t\t\treturn cashCalls[_lp]\n      ISZERO \t\t\treturn cashCalls[_lp]\n      ISZERO \t\t\treturn cashCalls[_lp]\n      ISZERO \t\t\treturn cashCalls[_lp]\n      DUP2 \t\t\treturn cashCalls[_lp]\n      MSTORE \t\t\treturn cashCalls[_lp]\n      POP \t\t\treturn cashCalls[_lp]\n      POP \t\t\treturn cashCalls[_lp]\n      DUP2 \t\t\treturn cashCalls[_lp]\n      MSTORE \t\t\treturn cashCalls[_lp]\n      PUSH 20\t\t\treturn cashCalls[_lp]\n      ADD \t\t\treturn cashCalls[_lp]\n      SWAP1 \t\t\treturn cashCalls[_lp]\n      PUSH 1\t\t\treturn cashCalls[_lp]\n      ADD \t\t\treturn cashCalls[_lp]\n      SWAP1 \t\t\treturn cashCalls[_lp]\n      PUSH [tag] 319\t\t\treturn cashCalls[_lp]\n      JUMP \t\t\treturn cashCalls[_lp]\n    tag 320\t\t\treturn cashCalls[_lp]\n      JUMPDEST \t\t\treturn cashCalls[_lp]\n      POP \t\t\treturn cashCalls[_lp]\n      POP \t\t\treturn cashCalls[_lp]\n      POP \t\t\treturn cashCalls[_lp]\n      POP \t\t\treturn cashCalls[_lp]\n      SWAP1 \t\t\treturn cashCalls[_lp]\n      POP \t\t\treturn cashCalls[_lp]\n      SWAP2 \t\t\tfunction getCashCalls(address ...\n      SWAP1 \t\t\tfunction getCashCalls(address ...\n      POP \t\t\tfunction getCashCalls(address ...\n      JUMP \t\t\tfunction getCashCalls(address ...\n    tag 117\t\t\tmapping(address => LPData) pub...\n      JUMPDEST \t\t\tmapping(address => LPData) pub...\n      PUSH 7\t\t\tmapping(address => LPData) pub...\n      PUSH 20\t\t\tmapping(address => LPData) pub...\n      MSTORE \t\t\tmapping(address => LPData) pub...\n      DUP1 \t\t\tmapping(address => LPData) pub...\n      PUSH 0\t\t\tmapping(address => LPData) pub...\n      MSTORE \t\t\tmapping(address => LPData) pub...\n      PUSH 40\t\t\tmapping(address => LPData) pub...\n      PUSH 0\t\t\tmapping(address => LPData) pub...\n      KECCAK256 \t\t\tmapping(address => LPData) pub...\n      PUSH 0\t\t\tmapping(address => LPData) pub...\n      SWAP2 \t\t\tmapping(address => LPData) pub...\n      POP \t\t\tmapping(address => LPData) pub...\n      SWAP1 \t\t\tmapping(address => LPData) pub...\n      POP \t\t\tmapping(address => LPData) pub...\n      DUP1 \t\t\tmapping(address => LPData) pub...\n      PUSH 0\t\t\tmapping(address => LPData) pub...\n      ADD \t\t\tmapping(address => LPData) pub...\n      DUP1 \t\t\tmapping(address => LPData) pub...\n      SLOAD \t\t\tmapping(address => LPData) pub...\n      PUSH [tag] 322\t\t\tmapping(address => LPData) pub...\n      SWAP1 \t\t\tmapping(address => LPData) pub...\n      PUSH [tag] 323\t\t\tmapping(address => LPData) pub...\n      JUMP \t\t\tmapping(address => LPData) pub...\n    tag 322\t\t\tmapping(address => LPData) pub...\n      JUMPDEST \t\t\tmapping(address => LPData) pub...\n      DUP1 \t\t\tmapping(address => LPData) pub...\n      PUSH 1F\t\t\tmapping(address => LPData) pub...\n      ADD \t\t\tmapping(address => LPData) pub...\n      PUSH 20\t\t\tmapping(address => LPData) pub...\n      DUP1 \t\t\tmapping(address => LPData) pub...\n      SWAP2 \t\t\tmapping(address => LPData) pub...\n      DIV \t\t\tmapping(address => LPData) pub...\n      MUL \t\t\tmapping(address => LPData) pub...\n      PUSH 20\t\t\tmapping(address => LPData) pub...\n      ADD \t\t\tmapping(address => LPData) pub...\n      PUSH 40\t\t\tmapping(address => LPData) pub...\n      MLOAD \t\t\tmapping(address => LPData) pub...\n      SWAP1 \t\t\tmapping(address => LPData) pub...\n      DUP2 \t\t\tmapping(address => LPData) pub...\n      ADD \t\t\tmapping(address => LPData) pub...\n      PUSH 40\t\t\tmapping(address => LPData) pub...\n      MSTORE \t\t\tmapping(address => LPData) pub...\n      DUP1 \t\t\tmapping(address => LPData) pub...\n      SWAP3 \t\t\tmapping(address => LPData) pub...\n      SWAP2 \t\t\tmapping(address => LPData) pub...\n      SWAP1 \t\t\tmapping(address => LPData) pub...\n      DUP2 \t\t\tmapping(address => LPData) pub...\n      DUP2 \t\t\tmapping(address => LPData) pub...\n      MSTORE \t\t\tmapping(address => LPData) pub...\n      PUSH 20\t\t\tmapping(address => LPData) pub...\n      ADD \t\t\tmapping(address => LPData) pub...\n      DUP3 \t\t\tmapping(address => LPData) pub...\n      DUP1 \t\t\tmapping(address => LPData) pub...\n      SLOAD \t\t\tmapping(address => LPData) pub...\n      PUSH [tag] 324\t\t\tmapping(address => LPData) pub...\n      SWAP1 \t\t\tmapping(address => LPData) pub...\n      PUSH [tag] 323\t\t\tmapping(address => LPData) pub...\n      JUMP \t\t\tmapping(address => LPData) pub...\n    tag 324\t\t\tmapping(address => LPData) pub...\n      JUMPDEST \t\t\tmapping(address => LPData) pub...\n      DUP1 \t\t\tmapping(address => LPData) pub...\n      ISZERO \t\t\tmapping(address => LPData) pub...\n      PUSH [tag] 325\t\t\tmapping(address => LPData) pub...\n      JUMPI \t\t\tmapping(address => LPData) pub...\n      DUP1 \t\t\tmapping(address => LPData) pub...\n      PUSH 1F\t\t\tmapping(address => LPData) pub...\n      LT \t\t\tmapping(address => LPData) pub...\n      PUSH [tag] 326\t\t\tmapping(address => LPData) pub...\n      JUMPI \t\t\tmapping(address => LPData) pub...\n      PUSH 100\t\t\tmapping(address => LPData) pub...\n      DUP1 \t\t\tmapping(address => LPData) pub...\n      DUP4 \t\t\tmapping(address => LPData) pub...\n      SLOAD \t\t\tmapping(address => LPData) pub...\n      DIV \t\t\tmapping(address => LPData) pub...\n      MUL \t\t\tmapping(address => LPData) pub...\n      DUP4 \t\t\tmapping(address => LPData) pub...\n      MSTORE \t\t\tmapping(address => LPData) pub...\n      SWAP2 \t\t\tmapping(address => LPData) pub...\n      PUSH 20\t\t\tmapping(address => LPData) pub...\n      ADD \t\t\tmapping(address => LPData) pub...\n      SWAP2 \t\t\tmapping(address => LPData) pub...\n      PUSH [tag] 325\t\t\tmapping(address => LPData) pub...\n      JUMP \t\t\tmapping(address => LPData) pub...\n    tag 326\t\t\tmapping(address => LPData) pub...\n      JUMPDEST \t\t\tmapping(address => LPData) pub...\n      DUP3 \t\t\tmapping(address => LPData) pub...\n      ADD \t\t\tmapping(address => LPData) pub...\n      SWAP2 \t\t\tmapping(address => LPData) pub...\n      SWAP1 \t\t\tmapping(address => LPData) pub...\n      PUSH 0\t\t\tmapping(address => LPData) pub...\n      MSTORE \t\t\tmapping(address => LPData) pub...\n      PUSH 20\t\t\tmapping(address => LPData) pub...\n      PUSH 0\t\t\tmapping(address => LPData) pub...\n      KECCAK256 \t\t\tmapping(address => LPData) pub...\n      SWAP1 \t\t\tmapping(address => LPData) pub...\n    tag 327\t\t\tmapping(address => LPData) pub...\n      JUMPDEST \t\t\tmapping(address => LPData) pub...\n      DUP2 \t\t\tmapping(address => LPData) pub...\n      SLOAD \t\t\tmapping(address => LPData) pub...\n      DUP2 \t\t\tmapping(address => LPData) pub...\n      MSTORE \t\t\tmapping(address => LPData) pub...\n      SWAP1 \t\t\tmapping(address => LPData) pub...\n      PUSH 1\t\t\tmapping(address => LPData) pub...\n      ADD \t\t\tmapping(address => LPData) pub...\n      SWAP1 \t\t\tmapping(address => LPData) pub...\n      PUSH 20\t\t\tmapping(address => LPData) pub...\n      ADD \t\t\tmapping(address => LPData) pub...\n      DUP1 \t\t\tmapping(address => LPData) pub...\n      DUP4 \t\t\tmapping(address => LPData) pub...\n      GT \t\t\tmapping(address => LPData) pub...\n      PUSH [tag] 327\t\t\tmapping(address => LPData) pub...\n      JUMPI \t\t\tmapping(address => LPData) pub...\n      DUP3 \t\t\tmapping(address => LPData) pub...\n      SWAP1 \t\t\tmapping(address => LPData) pub...\n      SUB \t\t\tmapping(address => LPData) pub...\n      PUSH 1F\t\t\tmapping(address => LPData) pub...\n      AND \t\t\tmapping(address => LPData) pub...\n      DUP3 \t\t\tmapping(address => LPData) pub...\n      ADD \t\t\tmapping(address => LPData) pub...\n      SWAP2 \t\t\tmapping(address => LPData) pub...\n    tag 325\t\t\tmapping(address => LPData) pub...\n      JUMPDEST \t\t\tmapping(address => LPData) pub...\n      POP \t\t\tmapping(address => LPData) pub...\n      POP \t\t\tmapping(address => LPData) pub...\n      POP \t\t\tmapping(address => LPData) pub...\n      POP \t\t\tmapping(address => LPData) pub...\n      POP \t\t\tmapping(address => LPData) pub...\n      SWAP1 \t\t\tmapping(address => LPData) pub...\n      DUP1 \t\t\tmapping(address => LPData) pub...\n      PUSH 1\t\t\tmapping(address => LPData) pub...\n      ADD \t\t\tmapping(address => LPData) pub...\n      SLOAD \t\t\tmapping(address => LPData) pub...\n      SWAP1 \t\t\tmapping(address => LPData) pub...\n      DUP1 \t\t\tmapping(address => LPData) pub...\n      PUSH 2\t\t\tmapping(address => LPData) pub...\n      ADD \t\t\tmapping(address => LPData) pub...\n      SLOAD \t\t\tmapping(address => LPData) pub...\n      SWAP1 \t\t\tmapping(address => LPData) pub...\n      DUP1 \t\t\tmapping(address => LPData) pub...\n      PUSH 3\t\t\tmapping(address => LPData) pub...\n      ADD \t\t\tmapping(address => LPData) pub...\n      SLOAD \t\t\tmapping(address => LPData) pub...\n      SWAP1 \t\t\tmapping(address => LPData) pub...\n      POP \t\t\tmapping(address => LPData) pub...\n      DUP5 \t\t\tmapping(address => LPData) pub...\n      JUMP \t\t\tmapping(address => LPData) pub...\n    tag 124\t\t\tfunction revertExecution(addre...\n      JUMPDEST \t\t\tfunction revertExecution(addre...\n      PUSH [tag] 329\t\t\tecuted\\n    }\\n\\n    /\n      PUSH [tag] 32\t\t\tecuted\\n    }\\n\\n   \n      JUMP \t\t\tecuted\\n    }\\n\\n    /\n    tag 329\t\t\tecuted\\n    }\\n\\n    /\n      JUMPDEST \t\t\tecuted\\n    }\\n\\n    /\n      PUSH 3\t\t\tisAdmin\n      PUSH 0\t\t\tisAdmin[msg.sender]\n      CALLER \t\t\tmsg.sender\n      PUSH FFFFFFFFFFFFFFFFFFFFFFFFFFFFFFFFFFFFFFFF\t\t\tisAdmin[msg.sender]\n      AND \t\t\tisAdmin[msg.sender]\n      PUSH FFFFFFFFFFFFFFFFFFFFFFFFFFFFFFFFFFFFFFFF\t\t\tisAdmin[msg.sender]\n      AND \t\t\tisAdmin[msg.sender]\n      DUP2 \t\t\tisAdmin[msg.sender]\n      MSTORE \t\t\tisAdmin[msg.sender]\n      PUSH 20\t\t\tisAdmin[msg.sender]\n      ADD \t\t\tisAdmin[msg.sender]\n      SWAP1 \t\t\tisAdmin[msg.sender]\n      DUP2 \t\t\tisAdmin[msg.sender]\n      MSTORE \t\t\tisAdmin[msg.sender]\n      PUSH 20\t\t\tisAdmin[msg.sender]\n      ADD \t\t\tisAdmin[msg.sender]\n      PUSH 0\t\t\tisAdmin[msg.sender]\n      KECCAK256 \t\t\tisAdmin[msg.sender]\n      PUSH 0\t\t\tisAdmin[msg.sender]\n      SWAP1 \t\t\tisAdmin[msg.sender]\n      SLOAD \t\t\tisAdmin[msg.sender]\n      SWAP1 \t\t\tisAdmin[msg.sender]\n      PUSH 100\t\t\tisAdmin[msg.sender]\n      EXP \t\t\tisAdmin[msg.sender]\n      SWAP1 \t\t\tisAdmin[msg.sender]\n      DIV \t\t\tisAdmin[msg.sender]\n      PUSH FF\t\t\tisAdmin[msg.sender]\n      AND \t\t\tisAdmin[msg.sender]\n      PUSH [tag] 331\t\t\trequire(isAdmin[msg.sender], \"...\n      JUMPI \t\t\trequire(isAdmin[msg.sender], \"...\n      PUSH 40\t\t\trequire(isAdmin[msg.sender], \"...\n      MLOAD \t\t\trequire(isAdmin[msg.sender], \"...\n      PUSH 8C379A000000000000000000000000000000000000000000000000000000000\t\t\trequire(isAdmin[msg.sender], \"...\n      DUP2 \t\t\trequire(isAdmin[msg.sender], \"...\n      MSTORE \t\t\trequire(isAdmin[msg.sender], \"...\n      PUSH 4\t\t\trequire(isAdmin[msg.sender], \"...\n      ADD \t\t\trequire(isAdmin[msg.sender], \"...\n      PUSH [tag] 332\t\t\trequire(isAdmin[msg.sender], \"...\n      SWAP1 \t\t\trequire(isAdmin[msg.sender], \"...\n      PUSH [tag] 150\t\t\trequire(isAdmin[msg.sender], \"...\n      JUMP \t\t\trequire(isAdmin[msg.sender], \"...\n    tag 332\t\t\trequire(isAdmin[msg.sender], \"...\n      JUMPDEST \t\t\trequire(isAdmin[msg.sender], \"...\n      PUSH 40\t\t\trequire(isAdmin[msg.sender], \"...\n      MLOAD \t\t\trequire(isAdmin[msg.sender], \"...\n      DUP1 \t\t\trequire(isAdmin[msg.sender], \"...\n      SWAP2 \t\t\trequire(isAdmin[msg.sender], \"...\n      SUB \t\t\trequire(isAdmin[msg.sender], \"...\n      SWAP1 \t\t\trequire(isAdmin[msg.sender], \"...\n      REVERT \t\t\trequire(isAdmin[msg.sender], \"...\n    tag 331\t\t\trequire(isAdmin[msg.sender], \"...\n      JUMPDEST \t\t\trequire(isAdmin[msg.sender], \"...\n      PUSH [tag] 334\t\t\tisLP(_lp)\n      DUP3 \t\t\t_lp\n      PUSH [tag] 221\t\t\tisLP\n      JUMP \t\t\tisLP(_lp)\n    tag 334\t\t\tisLP(_lp)\n      JUMPDEST \t\t\tisLP(_lp)\n      PUSH [tag] 335\t\t\trequire(isLP(_lp), \"Not an LP!...\n      JUMPI \t\t\trequire(isLP(_lp), \"Not an LP!...\n      PUSH 40\t\t\trequire(isLP(_lp), \"Not an LP!...\n      MLOAD \t\t\trequire(isLP(_lp), \"Not an LP!...\n      PUSH 8C379A000000000000000000000000000000000000000000000000000000000\t\t\trequire(isLP(_lp), \"Not an LP!...\n      DUP2 \t\t\trequire(isLP(_lp), \"Not an LP!...\n      MSTORE \t\t\trequire(isLP(_lp), \"Not an LP!...\n      PUSH 4\t\t\trequire(isLP(_lp), \"Not an LP!...\n      ADD \t\t\trequire(isLP(_lp), \"Not an LP!...\n      PUSH [tag] 336\t\t\trequire(isLP(_lp), \"Not an LP!...\n      SWAP1 \t\t\trequire(isLP(_lp), \"Not an LP!...\n      PUSH [tag] 299\t\t\trequire(isLP(_lp), \"Not an LP!...\n      JUMP \t\t\trequire(isLP(_lp), \"Not an LP!...\n    tag 336\t\t\trequire(isLP(_lp), \"Not an LP!...\n      JUMPDEST \t\t\trequire(isLP(_lp), \"Not an LP!...\n      PUSH 40\t\t\trequire(isLP(_lp), \"Not an LP!...\n      MLOAD \t\t\trequire(isLP(_lp), \"Not an LP!...\n      DUP1 \t\t\trequire(isLP(_lp), \"Not an LP!...\n      SWAP2 \t\t\trequire(isLP(_lp), \"Not an LP!...\n      SUB \t\t\trequire(isLP(_lp), \"Not an LP!...\n      SWAP1 \t\t\trequire(isLP(_lp), \"Not an LP!...\n      REVERT \t\t\trequire(isLP(_lp), \"Not an LP!...\n    tag 335\t\t\trequire(isLP(_lp), \"Not an LP!...\n      JUMPDEST \t\t\trequire(isLP(_lp), \"Not an LP!...\n      PUSH 0\t\t\tCashCall storage call\n      PUSH 8\t\t\tcashCalls\n      PUSH 0\t\t\tcashCalls[_lp]\n      DUP5 \t\t\t_lp\n      PUSH FFFFFFFFFFFFFFFFFFFFFFFFFFFFFFFFFFFFFFFF\t\t\tcashCalls[_lp]\n      AND \t\t\tcashCalls[_lp]\n      PUSH FFFFFFFFFFFFFFFFFFFFFFFFFFFFFFFFFFFFFFFF\t\t\tcashCalls[_lp]\n      AND \t\t\tcashCalls[_lp]\n      DUP2 \t\t\tcashCalls[_lp]\n      MSTORE \t\t\tcashCalls[_lp]\n      PUSH 20\t\t\tcashCalls[_lp]\n      ADD \t\t\tcashCalls[_lp]\n      SWAP1 \t\t\tcashCalls[_lp]\n      DUP2 \t\t\tcashCalls[_lp]\n      MSTORE \t\t\tcashCalls[_lp]\n      PUSH 20\t\t\tcashCalls[_lp]\n      ADD \t\t\tcashCalls[_lp]\n      PUSH 0\t\t\tcashCalls[_lp]\n      KECCAK256 \t\t\tcashCalls[_lp]\n      DUP3 \t\t\t_callId\n      DUP2 \t\t\tcashCalls[_lp][_callId]\n      SLOAD \t\t\tcashCalls[_lp][_callId]\n      DUP2 \t\t\tcashCalls[_lp][_callId]\n      LT \t\t\tcashCalls[_lp][_callId]\n      PUSH [tag] 337\t\t\tcashCalls[_lp][_callId]\n      JUMPI \t\t\tcashCalls[_lp][_callId]\n      PUSH [tag] 338\t\t\tcashCalls[_lp][_callId]\n      PUSH [tag] 196\t\t\tcashCalls[_lp][_callId]\n      JUMP \t\t\tcashCalls[_lp][_callId]\n    tag 338\t\t\tcashCalls[_lp][_callId]\n      JUMPDEST \t\t\tcashCalls[_lp][_callId]\n    tag 337\t\t\tcashCalls[_lp][_callId]\n      JUMPDEST \t\t\tcashCalls[_lp][_callId]\n      SWAP1 \t\t\tcashCalls[_lp][_callId]\n      PUSH 0\t\t\tcashCalls[_lp][_callId]\n      MSTORE \t\t\tcashCalls[_lp][_callId]\n      PUSH 20\t\t\tcashCalls[_lp][_callId]\n      PUSH 0\t\t\tcashCalls[_lp][_callId]\n      KECCAK256 \t\t\tcashCalls[_lp][_callId]\n      SWAP1 \t\t\tcashCalls[_lp][_callId]\n      PUSH 4\t\t\tcashCalls[_lp][_callId]\n      MUL \t\t\tcashCalls[_lp][_callId]\n      ADD \t\t\tcashCalls[_lp][_callId]\n      SWAP1 \t\t\tCashCall storage call = cashCa...\n      POP \t\t\tCashCall storage call = cashCa...\n      PUSH 0\t\t\t0\n      DUP2 \t\t\tcall\n      PUSH 0\t\t\tcall.amount\n      ADD \t\t\tcall.amount\n      SLOAD \t\t\tcall.amount\n      GT \t\t\tcall.amount > 0\n      PUSH [tag] 340\t\t\trequire(call.amount > 0, \"Cash...\n      JUMPI \t\t\trequire(call.amount > 0, \"Cash...\n      PUSH 40\t\t\trequire(call.amount > 0, \"Cash...\n      MLOAD \t\t\trequire(call.amount > 0, \"Cash...\n      PUSH 8C379A000000000000000000000000000000000000000000000000000000000\t\t\trequire(call.amount > 0, \"Cash...\n      DUP2 \t\t\trequire(call.amount > 0, \"Cash...\n      MSTORE \t\t\trequire(call.amount > 0, \"Cash...\n      PUSH 4\t\t\trequire(call.amount > 0, \"Cash...\n      ADD \t\t\trequire(call.amount > 0, \"Cash...\n      PUSH [tag] 341\t\t\trequire(call.amount > 0, \"Cash...\n      SWAP1 \t\t\trequire(call.amount > 0, \"Cash...\n      PUSH [tag] 342\t\t\trequire(call.amount > 0, \"Cash...\n      JUMP \t\t\trequire(call.amount > 0, \"Cash...\n    tag 341\t\t\trequire(call.amount > 0, \"Cash...\n      JUMPDEST \t\t\trequire(call.amount > 0, \"Cash...\n      PUSH 40\t\t\trequire(call.amount > 0, \"Cash...\n      MLOAD \t\t\trequire(call.amount > 0, \"Cash...\n      DUP1 \t\t\trequire(call.amount > 0, \"Cash...\n      SWAP2 \t\t\trequire(call.amount > 0, \"Cash...\n      SUB \t\t\trequire(call.amount > 0, \"Cash...\n      SWAP1 \t\t\trequire(call.amount > 0, \"Cash...\n      REVERT \t\t\trequire(call.amount > 0, \"Cash...\n    tag 340\t\t\trequire(call.amount > 0, \"Cash...\n      JUMPDEST \t\t\trequire(call.amount > 0, \"Cash...\n      DUP1 \t\t\tcall\n      PUSH 3\t\t\tcall.executed\n      ADD \t\t\tcall.executed\n      PUSH 0\t\t\tcall.executed\n      SWAP1 \t\t\tcall.executed\n      SLOAD \t\t\tcall.executed\n      SWAP1 \t\t\tcall.executed\n      PUSH 100\t\t\tcall.executed\n      EXP \t\t\tcall.executed\n      SWAP1 \t\t\tcall.executed\n      DIV \t\t\tcall.executed\n      PUSH FF\t\t\tcall.executed\n      AND \t\t\tcall.executed\n      PUSH [tag] 343\t\t\trequire(call.executed, \"Cash c...\n      JUMPI \t\t\trequire(call.executed, \"Cash c...\n      PUSH 40\t\t\trequire(call.executed, \"Cash c...\n      MLOAD \t\t\trequire(call.executed, \"Cash c...\n      PUSH 8C379A000000000000000000000000000000000000000000000000000000000\t\t\trequire(call.executed, \"Cash c...\n      DUP2 \t\t\trequire(call.executed, \"Cash c...\n      MSTORE \t\t\trequire(call.executed, \"Cash c...\n      PUSH 4\t\t\trequire(call.executed, \"Cash c...\n      ADD \t\t\trequire(call.executed, \"Cash c...\n      PUSH [tag] 344\t\t\trequire(call.executed, \"Cash c...\n      SWAP1 \t\t\trequire(call.executed, \"Cash c...\n      PUSH [tag] 345\t\t\trequire(call.executed, \"Cash c...\n      JUMP \t\t\trequire(call.executed, \"Cash c...\n    tag 344\t\t\trequire(call.executed, \"Cash c...\n      JUMPDEST \t\t\trequire(call.executed, \"Cash c...\n      PUSH 40\t\t\trequire(call.executed, \"Cash c...\n      MLOAD \t\t\trequire(call.executed, \"Cash c...\n      DUP1 \t\t\trequire(call.executed, \"Cash c...\n      SWAP2 \t\t\trequire(call.executed, \"Cash c...\n      SUB \t\t\trequire(call.executed, \"Cash c...\n      SWAP1 \t\t\trequire(call.executed, \"Cash c...\n      REVERT \t\t\trequire(call.executed, \"Cash c...\n    tag 343\t\t\trequire(call.executed, \"Cash c...\n      JUMPDEST \t\t\trequire(call.executed, \"Cash c...\n      PUSH 0\t\t\tfalse\n      DUP2 \t\t\tcall\n      PUSH 3\t\t\tcall.executed\n      ADD \t\t\tcall.executed\n      PUSH 0\t\t\tcall.executed\n      PUSH 100\t\t\tcall.executed = false\n      EXP \t\t\tcall.executed = false\n      DUP2 \t\t\tcall.executed = false\n      SLOAD \t\t\tcall.executed = false\n      DUP2 \t\t\tcall.executed = false\n      PUSH FF\t\t\tcall.executed = false\n      MUL \t\t\tcall.executed = false\n      NOT \t\t\tcall.executed = false\n      AND \t\t\tcall.executed = false\n      SWAP1 \t\t\tcall.executed = false\n      DUP4 \t\t\tcall.executed = false\n      ISZERO \t\t\tcall.executed = false\n      ISZERO \t\t\tcall.executed = false\n      MUL \t\t\tcall.executed = false\n      OR \t\t\tcall.executed = false\n      SWAP1 \t\t\tcall.executed = false\n      SSTORE \t\t\tcall.executed = false\n      POP \t\t\tcall.executed = false\n      DUP3 \t\t\t_lp\n      PUSH FFFFFFFFFFFFFFFFFFFFFFFFFFFFFFFFFFFFFFFF\t\t\tCashCallExecutionReverted(_lp,...\n      AND \t\t\tCashCallExecutionReverted(_lp,...\n      PUSH 7D43402007FEB68E4F4D08E94A946083B4E8FDDDBB8E6E7D95CC029D61CC2BE0\t\t\tCashCallExecutionReverted(_lp,...\n      DUP4 \t\t\t_callId\n      PUSH 40\t\t\tCashCallExecutionReverted(_lp,...\n      MLOAD \t\t\tCashCallExecutionReverted(_lp,...\n      PUSH [tag] 346\t\t\tCashCallExecutionReverted(_lp,...\n      SWAP2 \t\t\tCashCallExecutionReverted(_lp,...\n      SWAP1 \t\t\tCashCallExecutionReverted(_lp,...\n      PUSH [tag] 87\t\t\tCashCallExecutionReverted(_lp,...\n      JUMP \t\t\tCashCallExecutionReverted(_lp,...\n    tag 346\t\t\tCashCallExecutionReverted(_lp,...\n      JUMPDEST \t\t\tCashCallExecutionReverted(_lp,...\n      PUSH 40\t\t\tCashCallExecutionReverted(_lp,...\n      MLOAD \t\t\tCashCallExecutionReverted(_lp,...\n      DUP1 \t\t\tCashCallExecutionReverted(_lp,...\n      SWAP2 \t\t\tCashCallExecutionReverted(_lp,...\n      SUB \t\t\tCashCallExecutionReverted(_lp,...\n      SWAP1 \t\t\tCashCallExecutionReverted(_lp,...\n      LOG2 \t\t\tCashCallExecutionReverted(_lp,...\n      POP \t\t\t{\\n        require(isLP(_lp), ...\n      POP \t\t\tfunction revertExecution(addre...\n      POP \t\t\tfunction revertExecution(addre...\n      JUMP \t\t\tfunction revertExecution(addre...\n    tag 128\t\t\tmapping(address => CashCall[])...\n      JUMPDEST \t\t\tmapping(address => CashCall[])...\n      PUSH 8\t\t\tmapping(address => CashCall[])...\n      PUSH 20\t\t\tmapping(address => CashCall[])...\n      MSTORE \t\t\tmapping(address => CashCall[])...\n      DUP2 \t\t\tmapping(address => CashCall[])...\n      PUSH 0\t\t\tmapping(address => CashCall[])...\n      MSTORE \t\t\tmapping(address => CashCall[])...\n      PUSH 40\t\t\tmapping(address => CashCall[])...\n      PUSH 0\t\t\tmapping(address => CashCall[])...\n      KECCAK256 \t\t\tmapping(address => CashCall[])...\n      DUP2 \t\t\tmapping(address => CashCall[])...\n      DUP2 \t\t\tmapping(address => CashCall[])...\n      SLOAD \t\t\tmapping(address => CashCall[])...\n      DUP2 \t\t\tmapping(address => CashCall[])...\n      LT \t\t\tmapping(address => CashCall[])...\n      PUSH [tag] 347\t\t\tmapping(address => CashCall[])...\n      JUMPI \t\t\tmapping(address => CashCall[])...\n      PUSH 0\t\t\tmapping(address => CashCall[])...\n      DUP1 \t\t\tmapping(address => CashCall[])...\n      REVERT \t\t\tmapping(address => CashCall[])...\n    tag 347\t\t\tmapping(address => CashCall[])...\n      JUMPDEST \t\t\tmapping(address => CashCall[])...\n      SWAP1 \t\t\tmapping(address => CashCall[])...\n      PUSH 0\t\t\tmapping(address => CashCall[])...\n      MSTORE \t\t\tmapping(address => CashCall[])...\n      PUSH 20\t\t\tmapping(address => CashCall[])...\n      PUSH 0\t\t\tmapping(address => CashCall[])...\n      KECCAK256 \t\t\tmapping(address => CashCall[])...\n      SWAP1 \t\t\tmapping(address => CashCall[])...\n      PUSH 4\t\t\tmapping(address => CashCall[])...\n      MUL \t\t\tmapping(address => CashCall[])...\n      ADD \t\t\tmapping(address => CashCall[])...\n      PUSH 0\t\t\tmapping(address => CashCall[])...\n      SWAP2 \t\t\tmapping(address => CashCall[])...\n      POP \t\t\tmapping(address => CashCall[])...\n      SWAP2 \t\t\tmapping(address => CashCall[])...\n      POP \t\t\tmapping(address => CashCall[])...\n      POP \t\t\tmapping(address => CashCall[])...\n      DUP1 \t\t\tmapping(address => CashCall[])...\n      PUSH 0\t\t\tmapping(address => CashCall[])...\n      ADD \t\t\tmapping(address => CashCall[])...\n      SLOAD \t\t\tmapping(address => CashCall[])...\n      SWAP1 \t\t\tmapping(address => CashCall[])...\n      DUP1 \t\t\tmapping(address => CashCall[])...\n      PUSH 1\t\t\tmapping(address => CashCall[])...\n      ADD \t\t\tmapping(address => CashCall[])...\n      SLOAD \t\t\tmapping(address => CashCall[])...\n      SWAP1 \t\t\tmapping(address => CashCall[])...\n      DUP1 \t\t\tmapping(address => CashCall[])...\n      PUSH 2\t\t\tmapping(address => CashCall[])...\n      ADD \t\t\tmapping(address => CashCall[])...\n      SLOAD \t\t\tmapping(address => CashCall[])...\n      SWAP1 \t\t\tmapping(address => CashCall[])...\n      DUP1 \t\t\tmapping(address => CashCall[])...\n      PUSH 3\t\t\tmapping(address => CashCall[])...\n      ADD \t\t\tmapping(address => CashCall[])...\n      PUSH 0\t\t\tmapping(address => CashCall[])...\n      SWAP1 \t\t\tmapping(address => CashCall[])...\n      SLOAD \t\t\tmapping(address => CashCall[])...\n      SWAP1 \t\t\tmapping(address => CashCall[])...\n      PUSH 100\t\t\tmapping(address => CashCall[])...\n      EXP \t\t\tmapping(address => CashCall[])...\n      SWAP1 \t\t\tmapping(address => CashCall[])...\n      DIV \t\t\tmapping(address => CashCall[])...\n      PUSH FF\t\t\tmapping(address => CashCall[])...\n      AND \t\t\tmapping(address => CashCall[])...\n      SWAP1 \t\t\tmapping(address => CashCall[])...\n      POP \t\t\tmapping(address => CashCall[])...\n      DUP5 \t\t\tmapping(address => CashCall[])...\n      JUMP \t\t\tmapping(address => CashCall[])...\n    tag 134\t\t\tfunction executeCashCall(addre...\n      JUMPDEST \t\t\tfunction executeCashCall(addre...\n      PUSH [tag] 350\t\t\tecuted\\n    }\\n\\n    /\n      PUSH [tag] 32\t\t\tecuted\\n    }\\n\\n   \n      JUMP \t\t\tecuted\\n    }\\n\\n    /\n    tag 350\t\t\tecuted\\n    }\\n\\n    /\n      JUMPDEST \t\t\tecuted\\n    }\\n\\n    /\n      PUSH 3\t\t\tisAdmin\n      PUSH 0\t\t\tisAdmin[msg.sender]\n      CALLER \t\t\tmsg.sender\n      PUSH FFFFFFFFFFFFFFFFFFFFFFFFFFFFFFFFFFFFFFFF\t\t\tisAdmin[msg.sender]\n      AND \t\t\tisAdmin[msg.sender]\n      PUSH FFFFFFFFFFFFFFFFFFFFFFFFFFFFFFFFFFFFFFFF\t\t\tisAdmin[msg.sender]\n      AND \t\t\tisAdmin[msg.sender]\n      DUP2 \t\t\tisAdmin[msg.sender]\n      MSTORE \t\t\tisAdmin[msg.sender]\n      PUSH 20\t\t\tisAdmin[msg.sender]\n      ADD \t\t\tisAdmin[msg.sender]\n      SWAP1 \t\t\tisAdmin[msg.sender]\n      DUP2 \t\t\tisAdmin[msg.sender]\n      MSTORE \t\t\tisAdmin[msg.sender]\n      PUSH 20\t\t\tisAdmin[msg.sender]\n      ADD \t\t\tisAdmin[msg.sender]\n      PUSH 0\t\t\tisAdmin[msg.sender]\n      KECCAK256 \t\t\tisAdmin[msg.sender]\n      PUSH 0\t\t\tisAdmin[msg.sender]\n      SWAP1 \t\t\tisAdmin[msg.sender]\n      SLOAD \t\t\tisAdmin[msg.sender]\n      SWAP1 \t\t\tisAdmin[msg.sender]\n      PUSH 100\t\t\tisAdmin[msg.sender]\n      EXP \t\t\tisAdmin[msg.sender]\n      SWAP1 \t\t\tisAdmin[msg.sender]\n      DIV \t\t\tisAdmin[msg.sender]\n      PUSH FF\t\t\tisAdmin[msg.sender]\n      AND \t\t\tisAdmin[msg.sender]\n      PUSH [tag] 352\t\t\trequire(isAdmin[msg.sender], \"...\n      JUMPI \t\t\trequire(isAdmin[msg.sender], \"...\n      PUSH 40\t\t\trequire(isAdmin[msg.sender], \"...\n      MLOAD \t\t\trequire(isAdmin[msg.sender], \"...\n      PUSH 8C379A000000000000000000000000000000000000000000000000000000000\t\t\trequire(isAdmin[msg.sender], \"...\n      DUP2 \t\t\trequire(isAdmin[msg.sender], \"...\n      MSTORE \t\t\trequire(isAdmin[msg.sender], \"...\n      PUSH 4\t\t\trequire(isAdmin[msg.sender], \"...\n      ADD \t\t\trequire(isAdmin[msg.sender], \"...\n      PUSH [tag] 353\t\t\trequire(isAdmin[msg.sender], \"...\n      SWAP1 \t\t\trequire(isAdmin[msg.sender], \"...\n      PUSH [tag] 150\t\t\trequire(isAdmin[msg.sender], \"...\n      JUMP \t\t\trequire(isAdmin[msg.sender], \"...\n    tag 353\t\t\trequire(isAdmin[msg.sender], \"...\n      JUMPDEST \t\t\trequire(isAdmin[msg.sender], \"...\n      PUSH 40\t\t\trequire(isAdmin[msg.sender], \"...\n      MLOAD \t\t\trequire(isAdmin[msg.sender], \"...\n      DUP1 \t\t\trequire(isAdmin[msg.sender], \"...\n      SWAP2 \t\t\trequire(isAdmin[msg.sender], \"...\n      SUB \t\t\trequire(isAdmin[msg.sender], \"...\n      SWAP1 \t\t\trequire(isAdmin[msg.sender], \"...\n      REVERT \t\t\trequire(isAdmin[msg.sender], \"...\n    tag 352\t\t\trequire(isAdmin[msg.sender], \"...\n      JUMPDEST \t\t\trequire(isAdmin[msg.sender], \"...\n      PUSH 0\t\t\tCashCall storage call\n      PUSH 8\t\t\tcashCalls\n      PUSH 0\t\t\tcashCalls[_lp]\n      DUP5 \t\t\t_lp\n      PUSH FFFFFFFFFFFFFFFFFFFFFFFFFFFFFFFFFFFFFFFF\t\t\tcashCalls[_lp]\n      AND \t\t\tcashCalls[_lp]\n      PUSH FFFFFFFFFFFFFFFFFFFFFFFFFFFFFFFFFFFFFFFF\t\t\tcashCalls[_lp]\n      AND \t\t\tcashCalls[_lp]\n      DUP2 \t\t\tcashCalls[_lp]\n      MSTORE \t\t\tcashCalls[_lp]\n      PUSH 20\t\t\tcashCalls[_lp]\n      ADD \t\t\tcashCalls[_lp]\n      SWAP1 \t\t\tcashCalls[_lp]\n      DUP2 \t\t\tcashCalls[_lp]\n      MSTORE \t\t\tcashCalls[_lp]\n      PUSH 20\t\t\tcashCalls[_lp]\n      ADD \t\t\tcashCalls[_lp]\n      PUSH 0\t\t\tcashCalls[_lp]\n      KECCAK256 \t\t\tcashCalls[_lp]\n      DUP3 \t\t\t_callId\n      DUP2 \t\t\tcashCalls[_lp][_callId]\n      SLOAD \t\t\tcashCalls[_lp][_callId]\n      DUP2 \t\t\tcashCalls[_lp][_callId]\n      LT \t\t\tcashCalls[_lp][_callId]\n      PUSH [tag] 355\t\t\tcashCalls[_lp][_callId]\n      JUMPI \t\t\tcashCalls[_lp][_callId]\n      PUSH [tag] 356\t\t\tcashCalls[_lp][_callId]\n      PUSH [tag] 196\t\t\tcashCalls[_lp][_callId]\n      JUMP \t\t\tcashCalls[_lp][_callId]\n    tag 356\t\t\tcashCalls[_lp][_callId]\n      JUMPDEST \t\t\tcashCalls[_lp][_callId]\n    tag 355\t\t\tcashCalls[_lp][_callId]\n      JUMPDEST \t\t\tcashCalls[_lp][_callId]\n      SWAP1 \t\t\tcashCalls[_lp][_callId]\n      PUSH 0\t\t\tcashCalls[_lp][_callId]\n      MSTORE \t\t\tcashCalls[_lp][_callId]\n      PUSH 20\t\t\tcashCalls[_lp][_callId]\n      PUSH 0\t\t\tcashCalls[_lp][_callId]\n      KECCAK256 \t\t\tcashCalls[_lp][_callId]\n      SWAP1 \t\t\tcashCalls[_lp][_callId]\n      PUSH 4\t\t\tcashCalls[_lp][_callId]\n      MUL \t\t\tcashCalls[_lp][_callId]\n      ADD \t\t\tcashCalls[_lp][_callId]\n      SWAP1 \t\t\tCashCall storage call = cashCa...\n      POP \t\t\tCashCall storage call = cashCa...\n      PUSH 0\t\t\t0\n      DUP2 \t\t\tcall\n      PUSH 0\t\t\tcall.amount\n      ADD \t\t\tcall.amount\n      SLOAD \t\t\tcall.amount\n      GT \t\t\tcall.amount > 0\n      PUSH [tag] 358\t\t\trequire(call.amount > 0, \"Cash...\n      JUMPI \t\t\trequire(call.amount > 0, \"Cash...\n      PUSH 40\t\t\trequire(call.amount > 0, \"Cash...\n      MLOAD \t\t\trequire(call.amount > 0, \"Cash...\n      PUSH 8C379A000000000000000000000000000000000000000000000000000000000\t\t\trequire(call.amount > 0, \"Cash...\n      DUP2 \t\t\trequire(call.amount > 0, \"Cash...\n      MSTORE \t\t\trequire(call.amount > 0, \"Cash...\n      PUSH 4\t\t\trequire(call.amount > 0, \"Cash...\n      ADD \t\t\trequire(call.amount > 0, \"Cash...\n      PUSH [tag] 359\t\t\trequire(call.amount > 0, \"Cash...\n      SWAP1 \t\t\trequire(call.amount > 0, \"Cash...\n      PUSH [tag] 342\t\t\trequire(call.amount > 0, \"Cash...\n      JUMP \t\t\trequire(call.amount > 0, \"Cash...\n    tag 359\t\t\trequire(call.amount > 0, \"Cash...\n      JUMPDEST \t\t\trequire(call.amount > 0, \"Cash...\n      PUSH 40\t\t\trequire(call.amount > 0, \"Cash...\n      MLOAD \t\t\trequire(call.amount > 0, \"Cash...\n      DUP1 \t\t\trequire(call.amount > 0, \"Cash...\n      SWAP2 \t\t\trequire(call.amount > 0, \"Cash...\n      SUB \t\t\trequire(call.amount > 0, \"Cash...\n      SWAP1 \t\t\trequire(call.amount > 0, \"Cash...\n      REVERT \t\t\trequire(call.amount > 0, \"Cash...\n    tag 358\t\t\trequire(call.amount > 0, \"Cash...\n      JUMPDEST \t\t\trequire(call.amount > 0, \"Cash...\n      DUP1 \t\t\tcall\n      PUSH 3\t\t\tcall.executed\n      ADD \t\t\tcall.executed\n      PUSH 0\t\t\tcall.executed\n      SWAP1 \t\t\tcall.executed\n      SLOAD \t\t\tcall.executed\n      SWAP1 \t\t\tcall.executed\n      PUSH 100\t\t\tcall.executed\n      EXP \t\t\tcall.executed\n      SWAP1 \t\t\tcall.executed\n      DIV \t\t\tcall.executed\n      PUSH FF\t\t\tcall.executed\n      AND \t\t\tcall.executed\n      ISZERO \t\t\t!call.executed\n      PUSH [tag] 360\t\t\trequire(!call.executed, \"Cash ...\n      JUMPI \t\t\trequire(!call.executed, \"Cash ...\n      PUSH 40\t\t\trequire(!call.executed, \"Cash ...\n      MLOAD \t\t\trequire(!call.executed, \"Cash ...\n      PUSH 8C379A000000000000000000000000000000000000000000000000000000000\t\t\trequire(!call.executed, \"Cash ...\n      DUP2 \t\t\trequire(!call.executed, \"Cash ...\n      MSTORE \t\t\trequire(!call.executed, \"Cash ...\n      PUSH 4\t\t\trequire(!call.executed, \"Cash ...\n      ADD \t\t\trequire(!call.executed, \"Cash ...\n      PUSH [tag] 361\t\t\trequire(!call.executed, \"Cash ...\n      SWAP1 \t\t\trequire(!call.executed, \"Cash ...\n      PUSH [tag] 362\t\t\trequire(!call.executed, \"Cash ...\n      JUMP \t\t\trequire(!call.executed, \"Cash ...\n    tag 361\t\t\trequire(!call.executed, \"Cash ...\n      JUMPDEST \t\t\trequire(!call.executed, \"Cash ...\n      PUSH 40\t\t\trequire(!call.executed, \"Cash ...\n      MLOAD \t\t\trequire(!call.executed, \"Cash ...\n      DUP1 \t\t\trequire(!call.executed, \"Cash ...\n      SWAP2 \t\t\trequire(!call.executed, \"Cash ...\n      SUB \t\t\trequire(!call.executed, \"Cash ...\n      SWAP1 \t\t\trequire(!call.executed, \"Cash ...\n      REVERT \t\t\trequire(!call.executed, \"Cash ...\n    tag 360\t\t\trequire(!call.executed, \"Cash ...\n      JUMPDEST \t\t\trequire(!call.executed, \"Cash ...\n      PUSH 1\t\t\ttrue\n      DUP2 \t\t\tcall\n      PUSH 3\t\t\tcall.executed\n      ADD \t\t\tcall.executed\n      PUSH 0\t\t\tcall.executed\n      PUSH 100\t\t\tcall.executed = true\n      EXP \t\t\tcall.executed = true\n      DUP2 \t\t\tcall.executed = true\n      SLOAD \t\t\tcall.executed = true\n      DUP2 \t\t\tcall.executed = true\n      PUSH FF\t\t\tcall.executed = true\n      MUL \t\t\tcall.executed = true\n      NOT \t\t\tcall.executed = true\n      AND \t\t\tcall.executed = true\n      SWAP1 \t\t\tcall.executed = true\n      DUP4 \t\t\tcall.executed = true\n      ISZERO \t\t\tcall.executed = true\n      ISZERO \t\t\tcall.executed = true\n      MUL \t\t\tcall.executed = true\n      OR \t\t\tcall.executed = true\n      SWAP1 \t\t\tcall.executed = true\n      SSTORE \t\t\tcall.executed = true\n      POP \t\t\tcall.executed = true\n      DUP3 \t\t\t_lp\n      PUSH FFFFFFFFFFFFFFFFFFFFFFFFFFFFFFFFFFFFFFFF\t\t\tCashCallExecuted(_lp, _callId)\n      AND \t\t\tCashCallExecuted(_lp, _callId)\n      PUSH B257D3AD0ACA91C2880CBA095B7732563E1AB189D9FC61B8F393E82D9B47FC24\t\t\tCashCallExecuted(_lp, _callId)\n      DUP4 \t\t\t_callId\n      PUSH 40\t\t\tCashCallExecuted(_lp, _callId)\n      MLOAD \t\t\tCashCallExecuted(_lp, _callId)\n      PUSH [tag] 363\t\t\tCashCallExecuted(_lp, _callId)\n      SWAP2 \t\t\tCashCallExecuted(_lp, _callId)\n      SWAP1 \t\t\tCashCallExecuted(_lp, _callId)\n      PUSH [tag] 87\t\t\tCashCallExecuted(_lp, _callId)\n      JUMP \t\t\tCashCallExecuted(_lp, _callId)\n    tag 363\t\t\tCashCallExecuted(_lp, _callId)\n      JUMPDEST \t\t\tCashCallExecuted(_lp, _callId)\n      PUSH 40\t\t\tCashCallExecuted(_lp, _callId)\n      MLOAD \t\t\tCashCallExecuted(_lp, _callId)\n      DUP1 \t\t\tCashCallExecuted(_lp, _callId)\n      SWAP2 \t\t\tCashCallExecuted(_lp, _callId)\n      SUB \t\t\tCashCallExecuted(_lp, _callId)\n      SWAP1 \t\t\tCashCallExecuted(_lp, _callId)\n      LOG2 \t\t\tCashCallExecuted(_lp, _callId)\n      POP \t\t\t{\\n        CashCall storage ca...\n      POP \t\t\tfunction executeCashCall(addre...\n      POP \t\t\tfunction executeCashCall(addre...\n      JUMP \t\t\tfunction executeCashCall(addre...\n    tag 137\t\t\tfunction makePayment(address _...\n      JUMPDEST \t\t\tfunction makePayment(address _...\n      PUSH [tag] 365\t\t\tecuted\\n    }\\n\\n    /\n      PUSH [tag] 32\t\t\tecuted\\n    }\\n\\n   \n      JUMP \t\t\tecuted\\n    }\\n\\n    /\n    tag 365\t\t\tecuted\\n    }\\n\\n    /\n      JUMPDEST \t\t\tecuted\\n    }\\n\\n    /\n      PUSH [tag] 367\t\t\tre(_aggregatorAddress\n      PUSH [tag] 153\t\t\tre(_aggregatorAddre\n      JUMP \t\t\tre(_aggregatorAddress\n    tag 367\t\t\tre(_aggregatorAddress\n      JUMPDEST \t\t\tre(_aggregatorAddress\n      PUSH [tag] 369\t\t\tisLP(_lp)\n      DUP3 \t\t\t_lp\n      PUSH [tag] 221\t\t\tisLP\n      JUMP \t\t\tisLP(_lp)\n    tag 369\t\t\tisLP(_lp)\n      JUMPDEST \t\t\tisLP(_lp)\n      PUSH [tag] 370\t\t\trequire(isLP(_lp), \"You are no...\n      JUMPI \t\t\trequire(isLP(_lp), \"You are no...\n      PUSH 40\t\t\trequire(isLP(_lp), \"You are no...\n      MLOAD \t\t\trequire(isLP(_lp), \"You are no...\n      PUSH 8C379A000000000000000000000000000000000000000000000000000000000\t\t\trequire(isLP(_lp), \"You are no...\n      DUP2 \t\t\trequire(isLP(_lp), \"You are no...\n      MSTORE \t\t\trequire(isLP(_lp), \"You are no...\n      PUSH 4\t\t\trequire(isLP(_lp), \"You are no...\n      ADD \t\t\trequire(isLP(_lp), \"You are no...\n      PUSH [tag] 371\t\t\trequire(isLP(_lp), \"You are no...\n      SWAP1 \t\t\trequire(isLP(_lp), \"You are no...\n      PUSH [tag] 372\t\t\trequire(isLP(_lp), \"You are no...\n      JUMP \t\t\trequire(isLP(_lp), \"You are no...\n    tag 371\t\t\trequire(isLP(_lp), \"You are no...\n      JUMPDEST \t\t\trequire(isLP(_lp), \"You are no...\n      PUSH 40\t\t\trequire(isLP(_lp), \"You are no...\n      MLOAD \t\t\trequire(isLP(_lp), \"You are no...\n      DUP1 \t\t\trequire(isLP(_lp), \"You are no...\n      SWAP2 \t\t\trequire(isLP(_lp), \"You are no...\n      SUB \t\t\trequire(isLP(_lp), \"You are no...\n      SWAP1 \t\t\trequire(isLP(_lp), \"You are no...\n      REVERT \t\t\trequire(isLP(_lp), \"You are no...\n    tag 370\t\t\trequire(isLP(_lp), \"You are no...\n      JUMPDEST \t\t\trequire(isLP(_lp), \"You are no...\n      PUSH 0\t\t\tCashCall storage cashCall\n      PUSH 8\t\t\tcashCalls\n      PUSH 0\t\t\tcashCalls[_lp]\n      DUP5 \t\t\t_lp\n      PUSH FFFFFFFFFFFFFFFFFFFFFFFFFFFFFFFFFFFFFFFF\t\t\tcashCalls[_lp]\n      AND \t\t\tcashCalls[_lp]\n      PUSH FFFFFFFFFFFFFFFFFFFFFFFFFFFFFFFFFFFFFFFF\t\t\tcashCalls[_lp]\n      AND \t\t\tcashCalls[_lp]\n      DUP2 \t\t\tcashCalls[_lp]\n      MSTORE \t\t\tcashCalls[_lp]\n      PUSH 20\t\t\tcashCalls[_lp]\n      ADD \t\t\tcashCalls[_lp]\n      SWAP1 \t\t\tcashCalls[_lp]\n      DUP2 \t\t\tcashCalls[_lp]\n      MSTORE \t\t\tcashCalls[_lp]\n      PUSH 20\t\t\tcashCalls[_lp]\n      ADD \t\t\tcashCalls[_lp]\n      PUSH 0\t\t\tcashCalls[_lp]\n      KECCAK256 \t\t\tcashCalls[_lp]\n      DUP3 \t\t\t_callId\n      DUP2 \t\t\tcashCalls[_lp][_callId]\n      SLOAD \t\t\tcashCalls[_lp][_callId]\n      DUP2 \t\t\tcashCalls[_lp][_callId]\n      LT \t\t\tcashCalls[_lp][_callId]\n      PUSH [tag] 373\t\t\tcashCalls[_lp][_callId]\n      JUMPI \t\t\tcashCalls[_lp][_callId]\n      PUSH [tag] 374\t\t\tcashCalls[_lp][_callId]\n      PUSH [tag] 196\t\t\tcashCalls[_lp][_callId]\n      JUMP \t\t\tcashCalls[_lp][_callId]\n    tag 374\t\t\tcashCalls[_lp][_callId]\n      JUMPDEST \t\t\tcashCalls[_lp][_callId]\n    tag 373\t\t\tcashCalls[_lp][_callId]\n      JUMPDEST \t\t\tcashCalls[_lp][_callId]\n      SWAP1 \t\t\tcashCalls[_lp][_callId]\n      PUSH 0\t\t\tcashCalls[_lp][_callId]\n      MSTORE \t\t\tcashCalls[_lp][_callId]\n      PUSH 20\t\t\tcashCalls[_lp][_callId]\n      PUSH 0\t\t\tcashCalls[_lp][_callId]\n      KECCAK256 \t\t\tcashCalls[_lp][_callId]\n      SWAP1 \t\t\tcashCalls[_lp][_callId]\n      PUSH 4\t\t\tcashCalls[_lp][_callId]\n      MUL \t\t\tcashCalls[_lp][_callId]\n      ADD \t\t\tcashCalls[_lp][_callId]\n      SWAP1 \t\t\tCashCall storage cashCall = ca...\n      POP \t\t\tCashCall storage cashCall = ca...\n      PUSH 0\t\t\t0\n      DUP2 \t\t\tcashCall\n      PUSH 0\t\t\tcashCall.amount\n      ADD \t\t\tcashCall.amount\n      SLOAD \t\t\tcashCall.amount\n      GT \t\t\tcashCall.amount > 0\n      PUSH [tag] 376\t\t\trequire(cashCall.amount > 0, \"...\n      JUMPI \t\t\trequire(cashCall.amount > 0, \"...\n      PUSH 40\t\t\trequire(cashCall.amount > 0, \"...\n      MLOAD \t\t\trequire(cashCall.amount > 0, \"...\n      PUSH 8C379A000000000000000000000000000000000000000000000000000000000\t\t\trequire(cashCall.amount > 0, \"...\n      DUP2 \t\t\trequire(cashCall.amount > 0, \"...\n      MSTORE \t\t\trequire(cashCall.amount > 0, \"...\n      PUSH 4\t\t\trequire(cashCall.amount > 0, \"...\n      ADD \t\t\trequire(cashCall.amount > 0, \"...\n      PUSH [tag] 377\t\t\trequire(cashCall.amount > 0, \"...\n      SWAP1 \t\t\trequire(cashCall.amount > 0, \"...\n      PUSH [tag] 342\t\t\trequire(cashCall.amount > 0, \"...\n      JUMP \t\t\trequire(cashCall.amount > 0, \"...\n    tag 377\t\t\trequire(cashCall.amount > 0, \"...\n      JUMPDEST \t\t\trequire(cashCall.amount > 0, \"...\n      PUSH 40\t\t\trequire(cashCall.amount > 0, \"...\n      MLOAD \t\t\trequire(cashCall.amount > 0, \"...\n      DUP1 \t\t\trequire(cashCall.amount > 0, \"...\n      SWAP2 \t\t\trequire(cashCall.amount > 0, \"...\n      SUB \t\t\trequire(cashCall.amount > 0, \"...\n      SWAP1 \t\t\trequire(cashCall.amount > 0, \"...\n      REVERT \t\t\trequire(cashCall.amount > 0, \"...\n    tag 376\t\t\trequire(cashCall.amount > 0, \"...\n      JUMPDEST \t\t\trequire(cashCall.amount > 0, \"...\n      DUP1 \t\t\tcashCall\n      PUSH 3\t\t\tcashCall.executed\n      ADD \t\t\tcashCall.executed\n      PUSH 0\t\t\tcashCall.executed\n      SWAP1 \t\t\tcashCall.executed\n      SLOAD \t\t\tcashCall.executed\n      SWAP1 \t\t\tcashCall.executed\n      PUSH 100\t\t\tcashCall.executed\n      EXP \t\t\tcashCall.executed\n      SWAP1 \t\t\tcashCall.executed\n      DIV \t\t\tcashCall.executed\n      PUSH FF\t\t\tcashCall.executed\n      AND \t\t\tcashCall.executed\n      ISZERO \t\t\t!cashCall.executed\n      PUSH [tag] 378\t\t\trequire(!cashCall.executed, \"C...\n      JUMPI \t\t\trequire(!cashCall.executed, \"C...\n      PUSH 40\t\t\trequire(!cashCall.executed, \"C...\n      MLOAD \t\t\trequire(!cashCall.executed, \"C...\n      PUSH 8C379A000000000000000000000000000000000000000000000000000000000\t\t\trequire(!cashCall.executed, \"C...\n      DUP2 \t\t\trequire(!cashCall.executed, \"C...\n      MSTORE \t\t\trequire(!cashCall.executed, \"C...\n      PUSH 4\t\t\trequire(!cashCall.executed, \"C...\n      ADD \t\t\trequire(!cashCall.executed, \"C...\n      PUSH [tag] 379\t\t\trequire(!cashCall.executed, \"C...\n      SWAP1 \t\t\trequire(!cashCall.executed, \"C...\n      PUSH [tag] 362\t\t\trequire(!cashCall.executed, \"C...\n      JUMP \t\t\trequire(!cashCall.executed, \"C...\n    tag 379\t\t\trequire(!cashCall.executed, \"C...\n      JUMPDEST \t\t\trequire(!cashCall.executed, \"C...\n      PUSH 40\t\t\trequire(!cashCall.executed, \"C...\n      MLOAD \t\t\trequire(!cashCall.executed, \"C...\n      DUP1 \t\t\trequire(!cashCall.executed, \"C...\n      SWAP2 \t\t\trequire(!cashCall.executed, \"C...\n      SUB \t\t\trequire(!cashCall.executed, \"C...\n      SWAP1 \t\t\trequire(!cashCall.executed, \"C...\n      REVERT \t\t\trequire(!cashCall.executed, \"C...\n    tag 378\t\t\trequire(!cashCall.executed, \"C...\n      JUMPDEST \t\t\trequire(!cashCall.executed, \"C...\n      CALLVALUE \t\t\tmsg.value\n      DUP2 \t\t\tcashCall\n      PUSH 1\t\t\tcashCall.paidAmount\n      ADD \t\t\tcashCall.paidAmount\n      PUSH 0\t\t\tcashCall.paidAmount\n      DUP3 \t\t\tcashCall.paidAmount += msg.val...\n      DUP3 \t\t\tcashCall.paidAmount += msg.val...\n      SLOAD \t\t\tcashCall.paidAmount += msg.val...\n      PUSH [tag] 380\t\t\tcashCall.paidAmount += msg.val...\n      SWAP2 \t\t\tcashCall.paidAmount += msg.val...\n      SWAP1 \t\t\tcashCall.paidAmount += msg.val...\n      PUSH [tag] 381\t\t\tcashCall.paidAmount += msg.val...\n      JUMP \t\t\tcashCall.paidAmount += msg.val...\n    tag 380\t\t\tcashCall.paidAmount += msg.val...\n      JUMPDEST \t\t\tcashCall.paidAmount += msg.val...\n      SWAP3 \t\t\tcashCall.paidAmount += msg.val...\n      POP \t\t\tcashCall.paidAmount += msg.val...\n      POP \t\t\tcashCall.paidAmount += msg.val...\n      DUP2 \t\t\tcashCall.paidAmount += msg.val...\n      SWAP1 \t\t\tcashCall.paidAmount += msg.val...\n      SSTORE \t\t\tcashCall.paidAmount += msg.val...\n      POP \t\t\tcashCall.paidAmount += msg.val...\n      CALLVALUE \t\t\tmsg.value\n      PUSH 7\t\t\tlpData\n      PUSH 0\t\t\tlpData[msg.sender]\n      CALLER \t\t\tmsg.sender\n      PUSH FFFFFFFFFFFFFFFFFFFFFFFFFFFFFFFFFFFFFFFF\t\t\tlpData[msg.sender]\n      AND \t\t\tlpData[msg.sender]\n      PUSH FFFFFFFFFFFFFFFFFFFFFFFFFFFFFFFFFFFFFFFF\t\t\tlpData[msg.sender]\n      AND \t\t\tlpData[msg.sender]\n      DUP2 \t\t\tlpData[msg.sender]\n      MSTORE \t\t\tlpData[msg.sender]\n      PUSH 20\t\t\tlpData[msg.sender]\n      ADD \t\t\tlpData[msg.sender]\n      SWAP1 \t\t\tlpData[msg.sender]\n      DUP2 \t\t\tlpData[msg.sender]\n      MSTORE \t\t\tlpData[msg.sender]\n      PUSH 20\t\t\tlpData[msg.sender]\n      ADD \t\t\tlpData[msg.sender]\n      PUSH 0\t\t\tlpData[msg.sender]\n      KECCAK256 \t\t\tlpData[msg.sender]\n      PUSH 2\t\t\tlpData[msg.sender].totalPaid\n      ADD \t\t\tlpData[msg.sender].totalPaid\n      PUSH 0\t\t\tlpData[msg.sender].totalPaid\n      DUP3 \t\t\tlpData[msg.sender].totalPaid +...\n      DUP3 \t\t\tlpData[msg.sender].totalPaid +...\n      SLOAD \t\t\tlpData[msg.sender].totalPaid +...\n      PUSH [tag] 382\t\t\tlpData[msg.sender].totalPaid +...\n      SWAP2 \t\t\tlpData[msg.sender].totalPaid +...\n      SWAP1 \t\t\tlpData[msg.sender].totalPaid +...\n      PUSH [tag] 381\t\t\tlpData[msg.sender].totalPaid +...\n      JUMP \t\t\tlpData[msg.sender].totalPaid +...\n    tag 382\t\t\tlpData[msg.sender].totalPaid +...\n      JUMPDEST \t\t\tlpData[msg.sender].totalPaid +...\n      SWAP3 \t\t\tlpData[msg.sender].totalPaid +...\n      POP \t\t\tlpData[msg.sender].totalPaid +...\n      POP \t\t\tlpData[msg.sender].totalPaid +...\n      DUP2 \t\t\tlpData[msg.sender].totalPaid +...\n      SWAP1 \t\t\tlpData[msg.sender].totalPaid +...\n      SSTORE \t\t\tlpData[msg.sender].totalPaid +...\n      POP \t\t\tlpData[msg.sender].totalPaid +...\n      DUP3 \t\t\t_lp\n      PUSH FFFFFFFFFFFFFFFFFFFFFFFFFFFFFFFFFFFFFFFF\t\t\tPaymentMade(_lp, lpData[msg.se...\n      AND \t\t\tPaymentMade(_lp, lpData[msg.se...\n      PUSH 14954C6FF5A56809714735FB131BD55E42938C7E5BC1A1715593B0BA52000CCF\t\t\tPaymentMade(_lp, lpData[msg.se...\n      PUSH 7\t\t\tlpData\n      PUSH 0\t\t\tlpData[msg.sender]\n      CALLER \t\t\tmsg.sender\n      PUSH FFFFFFFFFFFFFFFFFFFFFFFFFFFFFFFFFFFFFFFF\t\t\tlpData[msg.sender]\n      AND \t\t\tlpData[msg.sender]\n      PUSH FFFFFFFFFFFFFFFFFFFFFFFFFFFFFFFFFFFFFFFF\t\t\tlpData[msg.sender]\n      AND \t\t\tlpData[msg.sender]\n      DUP2 \t\t\tlpData[msg.sender]\n      MSTORE \t\t\tlpData[msg.sender]\n      PUSH 20\t\t\tlpData[msg.sender]\n      ADD \t\t\tlpData[msg.sender]\n      SWAP1 \t\t\tlpData[msg.sender]\n      DUP2 \t\t\tlpData[msg.sender]\n      MSTORE \t\t\tlpData[msg.sender]\n      PUSH 20\t\t\tlpData[msg.sender]\n      ADD \t\t\tlpData[msg.sender]\n      PUSH 0\t\t\tlpData[msg.sender]\n      KECCAK256 \t\t\tlpData[msg.sender]\n      PUSH 0\t\t\tlpData[msg.sender].name\n      ADD \t\t\tlpData[msg.sender].name\n      CALLVALUE \t\t\tmsg.value\n      DUP6 \t\t\t_callId\n      PUSH 40\t\t\tPaymentMade(_lp, lpData[msg.se...\n      MLOAD \t\t\tPaymentMade(_lp, lpData[msg.se...\n      PUSH [tag] 383\t\t\tPaymentMade(_lp, lpData[msg.se...\n      SWAP4 \t\t\tPaymentMade(_lp, lpData[msg.se...\n      SWAP3 \t\t\tPaymentMade(_lp, lpData[msg.se...\n      SWAP2 \t\t\tPaymentMade(_lp, lpData[msg.se...\n      SWAP1 \t\t\tPaymentMade(_lp, lpData[msg.se...\n      PUSH [tag] 384\t\t\tPaymentMade(_lp, lpData[msg.se...\n      JUMP \t\t\tPaymentMade(_lp, lpData[msg.se...\n    tag 383\t\t\tPaymentMade(_lp, lpData[msg.se...\n      JUMPDEST \t\t\tPaymentMade(_lp, lpData[msg.se...\n      PUSH 40\t\t\tPaymentMade(_lp, lpData[msg.se...\n      MLOAD \t\t\tPaymentMade(_lp, lpData[msg.se...\n      DUP1 \t\t\tPaymentMade(_lp, lpData[msg.se...\n      SWAP2 \t\t\tPaymentMade(_lp, lpData[msg.se...\n      SUB \t\t\tPaymentMade(_lp, lpData[msg.se...\n      SWAP1 \t\t\tPaymentMade(_lp, lpData[msg.se...\n      LOG2 \t\t\tPaymentMade(_lp, lpData[msg.se...\n      POP \t\t\t{\\n        require(isLP(_lp), ...\n      PUSH [tag] 385\t\t\tlid aggregator addre\n      PUSH [tag] 162\t\t\tlid aggregator add\n      JUMP \t\t\tlid aggregator addre\n    tag 385\t\t\tlid aggregator addre\n      JUMPDEST \t\t\tlid aggregator addre\n      POP \t\t\tfunction makePayment(address _...\n      POP \t\t\tfunction makePayment(address _...\n      JUMP \t\t\tfunction makePayment(address _...\n    tag 140\t\t\tuint256 public minCommitmentAm...\n      JUMPDEST \t\t\tuint256 public minCommitmentAm...\n      PUSH 6\t\t\tuint256 public minCommitmentAm...\n      SLOAD \t\t\tuint256 public minCommitmentAm...\n      DUP2 \t\t\tuint256 public minCommitmentAm...\n      JUMP \t\t\tuint256 public minCommitmentAm...\n    tag 153\t\t\t require(_defaultAdmin != addr...\n      JUMPDEST \t\t\t require(_defaultAdmin != addr...\n      PUSH 2\t\t\tv\n      PUSH 1\t\t\tgregato\n      SLOAD \t\t\tgregato\n      SUB \t\t\tgregatorAddress);\\n \n      PUSH [tag] 387\t\t\tface(_aggregatorAddress);\\n   ...\n      JUMPI \t\t\tface(_aggregatorAddress);\\n   ...\n      PUSH 40\t\t\tface(_aggregatorAddress);\\n   ...\n      MLOAD \t\t\tface(_aggregatorAddress);\\n   ...\n      PUSH 8C379A000000000000000000000000000000000000000000000000000000000\t\t\tface(_aggregatorAddress);\\n   ...\n      DUP2 \t\t\tface(_aggregatorAddress);\\n   ...\n      MSTORE \t\t\tface(_aggregatorAddress);\\n   ...\n      PUSH 4\t\t\tface(_aggregatorAddress);\\n   ...\n      ADD \t\t\tface(_aggregatorAddress);\\n   ...\n      PUSH [tag] 388\t\t\tface(_aggregatorAddress);\\n   ...\n      SWAP1 \t\t\tface(_aggregatorAddress);\\n   ...\n      PUSH [tag] 389\t\t\tface(_aggregatorAddress);\\n   ...\n      JUMP \t\t\tface(_aggregatorAddress);\\n   ...\n    tag 388\t\t\tface(_aggregatorAddress);\\n   ...\n      JUMPDEST \t\t\tface(_aggregatorAddress);\\n   ...\n      PUSH 40\t\t\tface(_aggregatorAddress);\\n   ...\n      MLOAD \t\t\tface(_aggregatorAddress);\\n   ...\n      DUP1 \t\t\tface(_aggregatorAddress);\\n   ...\n      SWAP2 \t\t\tface(_aggregatorAddress);\\n   ...\n      SUB \t\t\tface(_aggregatorAddress);\\n   ...\n      SWAP1 \t\t\tface(_aggregatorAddress);\\n   ...\n      REVERT \t\t\tface(_aggregatorAddress);\\n   ...\n    tag 387\t\t\tface(_aggregatorAddress);\\n   ...\n      JUMPDEST \t\t\tface(_aggregatorAddress);\\n   ...\n      PUSH 2\t\t\tv\n      PUSH 1\t\t\tAdmin(_\n      DUP2 \t\t\tAdmin(_defaultAdmi\n      SWAP1 \t\t\tAdmin(_defaultAdmi\n      SSTORE \t\t\tAdmin(_defaultAdmi\n      POP \t\t\tAdmin(_defaultAdmi\n      JUMP \t\t\t require(_defaultAdmin != addr...\n    tag 162\t\t\t  // Check if sender is the de...\n      JUMPDEST \t\t\t  // Check if sender is the de...\n      PUSH 1\t\t\t(\n      DUP1 \t\t\t);\\n    \n      DUP2 \t\t\t);\\n        _;\\n    }\\n\\n \n      SWAP1 \t\t\t);\\n        _;\\n    }\\n\\n \n      SSTORE \t\t\t);\\n        _;\\n    }\\n\\n \n      POP \t\t\t);\\n        _;\\n    }\\n\\n \n      JUMP \t\t\t  // Check if sender is the de...\n    tag 221\t\t\tfunction isLP(address _lp) pri...\n      JUMPDEST \t\t\tfunction isLP(address _lp) pri...\n      PUSH 0\t\t\tbool\n      PUSH 0\t\t\t0\n      PUSH 7\t\t\tlpData\n      PUSH 0\t\t\tlpData[_lp]\n      DUP5 \t\t\t_lp\n      PUSH FFFFFFFFFFFFFFFFFFFFFFFFFFFFFFFFFFFFFFFF\t\t\tlpData[_lp]\n      AND \t\t\tlpData[_lp]\n      PUSH FFFFFFFFFFFFFFFFFFFFFFFFFFFFFFFFFFFFFFFF\t\t\tlpData[_lp]\n      AND \t\t\tlpData[_lp]\n      DUP2 \t\t\tlpData[_lp]\n      MSTORE \t\t\tlpData[_lp]\n      PUSH 20\t\t\tlpData[_lp]\n      ADD \t\t\tlpData[_lp]\n      SWAP1 \t\t\tlpData[_lp]\n      DUP2 \t\t\tlpData[_lp]\n      MSTORE \t\t\tlpData[_lp]\n      PUSH 20\t\t\tlpData[_lp]\n      ADD \t\t\tlpData[_lp]\n      PUSH 0\t\t\tlpData[_lp]\n      KECCAK256 \t\t\tlpData[_lp]\n      PUSH 1\t\t\tlpData[_lp].commitmentAmount\n      ADD \t\t\tlpData[_lp].commitmentAmount\n      SLOAD \t\t\tlpData[_lp].commitmentAmount\n      GT \t\t\tlpData[_lp].commitmentAmount >...\n      SWAP1 \t\t\treturn lpData[_lp].commitmentA...\n      POP \t\t\treturn lpData[_lp].commitmentA...\n      SWAP2 \t\t\tfunction isLP(address _lp) pri...\n      SWAP1 \t\t\tfunction isLP(address _lp) pri...\n      POP \t\t\tfunction isLP(address _lp) pri...\n      JUMP \t\t\tfunction isLP(address _lp) pri...\n    tag 262\t\t\ticeFeed = AggregatorV3Interfac...\n      JUMPDEST \t\t\ticeFeed = AggregatorV3Interfac...\n      PUSH [tag] 393\t\t\t, uint256 amount\n      PUSH [tag] 394\t\t\t, uint256 amou\n      JUMP \t\t\t, uint256 amount\n    tag 393\t\t\t, uint256 amount\n      JUMPDEST \t\t\t, uint256 amount\n      PUSH 0\t\t\tAdmin\n      PUSH 0\t\t\t   defa\n      PUSH 0\t\t\t   defa\n      PUSH 100\t\t\t   defaultAdmin\n      EXP \t\t\t   defaultAdmin\n      DUP2 \t\t\t   defaultAdmin\n      SLOAD \t\t\t   defaultAdmin\n      DUP2 \t\t\t   defaultAdmin\n      PUSH FF\t\t\t   defaultAdmin\n      MUL \t\t\t   defaultAdmin\n      NOT \t\t\t   defaultAdmin\n      AND \t\t\t   defaultAdmin\n      SWAP1 \t\t\t   defaultAdmin\n      DUP4 \t\t\t   defaultAdmin\n      ISZERO \t\t\t   defaultAdmin\n      ISZERO \t\t\t   defaultAdmin\n      MUL \t\t\t   defaultAdmin\n      OR \t\t\t   defaultAdmin\n      SWAP1 \t\t\t   defaultAdmin\n      SSTORE \t\t\t   defaultAdmin\n      POP \t\t\t   defaultAdmin\n      PUSH 5DB9EE0A495BF2E6FF9C91A7834C1BA4FDD244A5E8AA4E537BD38AEAE4B073AA\t\t\tn;\\n\\n        // Initial\n      PUSH [tag] 396\t\t\t   // Initia\n      PUSH [tag] 397\t\t\t   // Init\n      JUMP \t\t\t   // Initia\n    tag 396\t\t\t   // Initia\n      JUMPDEST \t\t\t   // Initia\n      PUSH 40\t\t\tn;\\n\\n        // Initial\n      MLOAD \t\t\tn;\\n\\n        // Initial\n      PUSH [tag] 398\t\t\tn;\\n\\n        // Initial\n      SWAP2 \t\t\tn;\\n\\n        // Initial\n      SWAP1 \t\t\tn;\\n\\n        // Initial\n      PUSH [tag] 45\t\t\tn;\\n\\n        // Initial\n      JUMP \t\t\tn;\\n\\n        // Initial\n    tag 398\t\t\tn;\\n\\n        // Initial\n      JUMPDEST \t\t\tn;\\n\\n        // Initial\n      PUSH 40\t\t\tn;\\n\\n        // Initial\n      MLOAD \t\t\tn;\\n\\n        // Initial\n      DUP1 \t\t\tn;\\n\\n        // Initial\n      SWAP2 \t\t\tn;\\n\\n        // Initial\n      SUB \t\t\tn;\\n\\n        // Initial\n      SWAP1 \t\t\tn;\\n\\n        // Initial\n      LOG1 \t\t\tn;\\n\\n        // Initial\n      JUMP \t\t\ticeFeed = AggregatorV3Interfac...\n    tag 289\t\t\tstructor(address _aggregatorAd...\n      JUMPDEST \t\t\tstructor(address _aggregatorAd...\n      PUSH [tag] 400\t\t\tecuted\\n    }\\n\\n    /\n      PUSH [tag] 32\t\t\tecuted\\n    }\\n\\n   \n      JUMP \t\t\tecuted\\n    }\\n\\n    /\n    tag 400\t\t\tecuted\\n    }\\n\\n    /\n      JUMPDEST \t\t\tecuted\\n    }\\n\\n    /\n      PUSH 1\t\t\t req\n      PUSH 0\t\t\t {\\n    \n      PUSH 0\t\t\t {\\n    \n      PUSH 100\t\t\t {\\n        req\n      EXP \t\t\t {\\n        req\n      DUP2 \t\t\t {\\n        req\n      SLOAD \t\t\t {\\n        req\n      DUP2 \t\t\t {\\n        req\n      PUSH FF\t\t\t {\\n        req\n      MUL \t\t\t {\\n        req\n      NOT \t\t\t {\\n        req\n      AND \t\t\t {\\n        req\n      SWAP1 \t\t\t {\\n        req\n      DUP4 \t\t\t {\\n        req\n      ISZERO \t\t\t {\\n        req\n      ISZERO \t\t\t {\\n        req\n      MUL \t\t\t {\\n        req\n      OR \t\t\t {\\n        req\n      SWAP1 \t\t\t {\\n        req\n      SSTORE \t\t\t {\\n        req\n      POP \t\t\t {\\n        req\n      PUSH 62E78CEA01BEE320CD4E420270B5EA74000D11B0C9F74754EBDBFC544B05A258\t\t\trAddress != address(\n      PUSH [tag] 402\t\t\ts != address\n      PUSH [tag] 397\t\t\ts != addre\n      JUMP \t\t\ts != address\n    tag 402\t\t\ts != address\n      JUMPDEST \t\t\ts != address\n      PUSH 40\t\t\trAddress != address(\n      MLOAD \t\t\trAddress != address(\n      PUSH [tag] 403\t\t\trAddress != address(\n      SWAP2 \t\t\trAddress != address(\n      SWAP1 \t\t\trAddress != address(\n      PUSH [tag] 45\t\t\trAddress != address(\n      JUMP \t\t\trAddress != address(\n    tag 403\t\t\trAddress != address(\n      JUMPDEST \t\t\trAddress != address(\n      PUSH 40\t\t\trAddress != address(\n      MLOAD \t\t\trAddress != address(\n      DUP1 \t\t\trAddress != address(\n      SWAP2 \t\t\trAddress != address(\n      SUB \t\t\trAddress != address(\n      SWAP1 \t\t\trAddress != address(\n      LOG1 \t\t\trAddress != address(\n      JUMP \t\t\tstructor(address _aggregatorAd...\n    tag 394\t\t\tevent Withdrawal(address index...\n      JUMPDEST \t\t\tevent Withdrawal(address index...\n      PUSH [tag] 405\t\t\tminAdded\n      PUSH [tag] 90\t\t\tminAdd\n      JUMP \t\t\tminAdded\n    tag 405\t\t\tminAdded\n      JUMPDEST \t\t\tminAdded\n      PUSH [tag] 406\t\t\tevent AdminAdded(address index...\n      JUMPI \t\t\tevent AdminAdded(address index...\n      PUSH 40\t\t\tevent AdminAdded(address index...\n      MLOAD \t\t\tevent AdminAdded(address index...\n      PUSH 8C379A000000000000000000000000000000000000000000000000000000000\t\t\tevent AdminAdded(address index...\n      DUP2 \t\t\tevent AdminAdded(address index...\n      MSTORE \t\t\tevent AdminAdded(address index...\n      PUSH 4\t\t\tevent AdminAdded(address index...\n      ADD \t\t\tevent AdminAdded(address index...\n      PUSH [tag] 407\t\t\tevent AdminAdded(address index...\n      SWAP1 \t\t\tevent AdminAdded(address index...\n      PUSH [tag] 408\t\t\tevent AdminAdded(address index...\n      JUMP \t\t\tevent AdminAdded(address index...\n    tag 407\t\t\tevent AdminAdded(address index...\n      JUMPDEST \t\t\tevent AdminAdded(address index...\n      PUSH 40\t\t\tevent AdminAdded(address index...\n      MLOAD \t\t\tevent AdminAdded(address index...\n      DUP1 \t\t\tevent AdminAdded(address index...\n      SWAP2 \t\t\tevent AdminAdded(address index...\n      SUB \t\t\tevent AdminAdded(address index...\n      SWAP1 \t\t\tevent AdminAdded(address index...\n      REVERT \t\t\tevent AdminAdded(address index...\n    tag 406\t\t\tevent AdminAdded(address index...\n      JUMPDEST \t\t\tevent AdminAdded(address index...\n      JUMP \t\t\tevent Withdrawal(address index...\n    tag 397\t\t\ting name;               // Nam...\n      JUMPDEST \t\t\ting name;               // Nam...\n      PUSH 0\t\t\tt256 co\n      CALLER \t\t\t Total com\n      SWAP1 \t\t\tnt;  // Total com\n      POP \t\t\tnt;  // Total com\n      SWAP1 \t\t\ting name;               // Nam...\n      JUMP \t\t\ting name;               // Nam...\n    tag 410\t\t\t-License-Identifier: MIT\\nprag...\n      JUMPDEST \t\t\t-License-Identifier: MIT\\nprag...\n      PUSH 0\t\t\tolidit\n      PUSH 40\t\t\tpp\n      MLOAD \t\t\topenzeppe\n      SWAP1 \t\t\t\\nimport \"@openzeppe\n      POP \t\t\t\\nimport \"@openzeppe\n      SWAP1 \t\t\t-License-Identifier: MIT\\nprag...\n      JUMP \t\t\t-License-Identifier: MIT\\nprag...\n    tag 411\t\t\ts/security/Pausable.sol\";\\nimp...\n      JUMPDEST \t\t\ts/security/Pausable.sol\";\\nimp...\n      PUSH 0\t\t\to\n      PUSH 0\t\t\tk\n      REVERT \t\t\thainlink/con\n    tag 412\t\t\t0.8/interfaces/AggregatorV3Int...\n      JUMPDEST \t\t\t0.8/interfaces/AggregatorV3Int...\n      PUSH 0\t\t\t \n      PUSH 0\t\t\to\n      REVERT \t\t\t  // Store t\n    tag 413\t\t\tdmins and default admin (publi...\n      JUMPDEST \t\t\tdmins and default admin (publi...\n      PUSH 0\t\t\teading)\n      DUP2 \t\t\tadmin\n      SWAP1 \t\t\ts[] public admin\n      POP \t\t\ts[] public admin\n      SWAP2 \t\t\tdmins and default admin (publi...\n      SWAP1 \t\t\tdmins and default admin (publi...\n      POP \t\t\tdmins and default admin (publi...\n      JUMP \t\t\tdmins and default admin (publi...\n    tag 414\t\t\tng(address => bool) public isA...\n      JUMPDEST \t\t\tng(address => bool) public isA...\n      PUSH [tag] 541\t\t\t // Aggregator for ETH-U\n      DUP2 \t\t\t ETH-\n      PUSH [tag] 413\t\t\t // Aggregator for ETH-U\n      JUMP \t\t\t // Aggregator for ETH-U\n    tag 541\t\t\t // Aggregator for ETH-U\n      JUMPDEST \t\t\t // Aggregator for ETH-U\n      DUP2 \t\t\tn;\\n\\n \n      EQ \t\t\tdmin;\\n\\n    // Aggregator for...\n      PUSH [tag] 542\t\t\tc defaultAdmin;\\n\\n    // Aggr...\n      JUMPI \t\t\tc defaultAdmin;\\n\\n    // Aggr...\n      PUSH 0\t\t\t \n      PUSH 0\t\t\td\n      REVERT \t\t\tice feed\\n   \n    tag 542\t\t\tc defaultAdmin;\\n\\n    // Aggr...\n      JUMPDEST \t\t\tc defaultAdmin;\\n\\n    // Aggr...\n      POP \t\t\tng(address => bool) public isA...\n      JUMP \t\t\tng(address => bool) public isA...\n    tag 415\t\t\tnterface internal ethUsdPriceF...\n      JUMPDEST \t\t\tnterface internal ethUsdPriceF...\n      PUSH 0\t\t\tuct t\n      DUP2 \t\t\tstruct\n      CALLDATALOAD \t\t\tner data\\n    struct \n      SWAP1 \t\t\tited Partner data\\n    struct \n      POP \t\t\tited Partner data\\n    struct \n      PUSH [tag] 544\t\t\t        string name;          ...\n      DUP2 \t\t\t     \n      PUSH [tag] 414\t\t\t        string name;          ...\n      JUMP \t\t\t        string name;          ...\n    tag 544\t\t\t        string name;          ...\n      JUMPDEST \t\t\t        string name;          ...\n      SWAP3 \t\t\tnterface internal ethUsdPriceF...\n      SWAP2 \t\t\tnterface internal ethUsdPriceF...\n      POP \t\t\tnterface internal ethUsdPriceF...\n      POP \t\t\tnterface internal ethUsdPriceF...\n      JUMP \t\t\tnterface internal ethUsdPriceF...\n    tag 416\t\t\t the LP\\n        uint256 commi...\n      JUMPDEST \t\t\t the LP\\n        uint256 commi...\n      PUSH 0\t\t\tunt;  /\n      PUSH FFFFFFFFFFFFFFFFFFFFFFFFFFFFFFFFFFFFFFFF\t\t\t    uint256 totalPaid;        ...\n      DUP3 \t\t\tLP\\n  \n      AND \t\t\tthe LP\\n        uint256 totalP...\n      SWAP1 \t\t\tmitment by the LP\\n        uin...\n      POP \t\t\tmitment by the LP\\n        uin...\n      SWAP2 \t\t\t the LP\\n        uint256 commi...\n      SWAP1 \t\t\t the LP\\n        uint256 commi...\n      POP \t\t\t the LP\\n        uint256 commi...\n      JUMP \t\t\t the LP\\n        uint256 commi...\n    tag 417\t\t\t       uint256 endTime; // Com...\n      JUMPDEST \t\t\t       uint256 endTime; // Com...\n      PUSH 0\t\t\t Period\n      PUSH [tag] 547\t\t\tblic minCommitmentAmount\n      DUP3 \t\t\tAmoun\n      PUSH [tag] 416\t\t\tblic minCommitmentAmount\n      JUMP \t\t\tblic minCommitmentAmount\n    tag 547\t\t\tblic minCommitmentAmount\n      JUMPDEST \t\t\tblic minCommitmentAmount\n      SWAP1 \t\t\t uint256 public minCommitmentA...\n      POP \t\t\t uint256 public minCommitmentA...\n      SWAP2 \t\t\t       uint256 endTime; // Com...\n      SWAP1 \t\t\t       uint256 endTime; // Com...\n      POP \t\t\t       uint256 endTime; // Com...\n      JUMP \t\t\t       uint256 endTime; // Com...\n    tag 418\t\t\t 10**18;\\n\\n    // Struct to s...\n      JUMPDEST \t\t\t 10**18;\\n\\n    // Struct to s...\n      PUSH [tag] 549\t\t\t     uint256 amount;   /\n      DUP2 \t\t\tt;   \n      PUSH [tag] 417\t\t\t     uint256 amount;   /\n      JUMP \t\t\t     uint256 amount;   /\n    tag 549\t\t\t     uint256 amount;   /\n      JUMPDEST \t\t\t     uint256 amount;   /\n      DUP2 \t\t\tl {\\n \n      EQ \t\t\tCall {\\n        uint256 amount...\n      PUSH [tag] 550\t\t\ttruct CashCall {\\n        uint...\n      JUMPI \t\t\ttruct CashCall {\\n        uint...\n      PUSH 0\t\t\tt\n      PUSH 0\t\t\tu\n      REVERT \t\t\tunt requeste\n    tag 550\t\t\ttruct CashCall {\\n        uint...\n      JUMPDEST \t\t\ttruct CashCall {\\n        uint...\n      POP \t\t\t 10**18;\\n\\n    // Struct to s...\n      JUMP \t\t\t 10**18;\\n\\n    // Struct to s...\n    tag 419\t\t\tcall\\n        uint256 paidAmou...\n      JUMPDEST \t\t\tcall\\n        uint256 paidAmou...\n      PUSH 0\t\t\taid t\n      DUP2 \t\t\t256 de\n      CALLDATALOAD \t\t\t\\n        uint256 dea\n      SWAP1 \t\t\tcash call\\n        uint256 dea\n      POP \t\t\tcash call\\n        uint256 dea\n      PUSH [tag] 552\t\t\t/ Call interval duration\\n    ...\n      DUP2 \t\t\t     \n      PUSH [tag] 418\t\t\t/ Call interval duration\\n    ...\n      JUMP \t\t\t/ Call interval duration\\n    ...\n    tag 552\t\t\t/ Call interval duration\\n    ...\n      JUMPDEST \t\t\t/ Call interval duration\\n    ...\n      SWAP3 \t\t\tcall\\n        uint256 paidAmou...\n      SWAP2 \t\t\tcall\\n        uint256 paidAmou...\n      POP \t\t\tcall\\n        uint256 paidAmou...\n      POP \t\t\tcall\\n        uint256 paidAmou...\n      JUMP \t\t\tcall\\n        uint256 paidAmou...\n    tag 37\t\t\td;    // Whether the cash call...\n      JUMPDEST \t\t\td;    // Whether the cash call...\n      PUSH 0\t\t\tngs\\n  \n      PUSH 0\t\t\tmappin\n      PUSH 40\t\t\t /\n      DUP4 \t\t\tata;     \n      DUP6 \t\t\tublic l\n      SUB \t\t\ta) public lpData;      \n      SLT \t\t\tPData) public lpData;         ...\n      ISZERO \t\t\t> LPData) public lpData;      ...\n      PUSH [tag] 554\t\t\t> LPData) public lpData;      ...\n      JUMPI \t\t\t> LPData) public lpData;      ...\n      PUSH [tag] 555\t\t\t data by address\\n    mapping(...\n      PUSH [tag] 411\t\t\t data by address\\n    mapping(...\n      JUMP \t\t\t data by address\\n    mapping(...\n    tag 555\t\t\t data by address\\n    mapping(...\n      JUMPDEST \t\t\t data by address\\n    mapping(...\n    tag 554\t\t\t> LPData) public lpData;      ...\n      JUMPDEST \t\t\t> LPData) public lpData;      ...\n      PUSH 0\t\t\te\n      PUSH [tag] 556\t\t\tss indexed lp, uint256 amountE...\n      DUP6 \t\t\tTime);\\n\n      DUP3 \t\t\tnt256 \n      DUP7 \t\t\tountETH, \n      ADD \t\t\t6 amountETH, uint256 e\n      PUSH [tag] 415\t\t\tss indexed lp, uint256 amountE...\n      JUMP \t\t\tss indexed lp, uint256 amountE...\n    tag 556\t\t\tss indexed lp, uint256 amountE...\n      JUMPDEST \t\t\tss indexed lp, uint256 amountE...\n      SWAP3 \t\t\ttSet(address indexed lp, uint2...\n      POP \t\t\ttSet(address indexed lp, uint2...\n      POP \t\t\tP address\\n\\n    // Events\\n  ...\n      PUSH 20\t\t\tam\n      PUSH [tag] 557\t\t\t56 callId);\\n    event CashCal...\n      DUP6 \t\t\t callId\n      DUP3 \t\t\td(uint\n      DUP7 \t\t\thCallCrea\n      ADD \t\t\t CashCallCreated(uint2\n      PUSH [tag] 419\t\t\t56 callId);\\n    event CashCal...\n      JUMP \t\t\t56 callId);\\n    event CashCal...\n    tag 557\t\t\t56 callId);\\n    event CashCal...\n      JUMPDEST \t\t\t56 callId);\\n    event CashCal...\n      SWAP2 \t\t\tunt, uint256 callId);\\n    eve...\n      POP \t\t\tunt, uint256 callId);\\n    eve...\n      POP \t\t\t(address indexed lp, string na...\n      SWAP3 \t\t\td;    // Whether the cash call...\n      POP \t\t\td;    // Whether the cash call...\n      SWAP3 \t\t\td;    // Whether the cash call...\n      SWAP1 \t\t\td;    // Whether the cash call...\n      POP \t\t\td;    // Whether the cash call...\n      JUMP \t\t\td;    // Whether the cash call...\n    tag 42\t\t\t6 deadline);\\n    event CashCa...\n      JUMPDEST \t\t\t6 deadline);\\n    event CashCa...\n      PUSH 0\t\t\t uint2\n      PUSH 20\t\t\trt\n      DUP3 \t\t\txecutionR\n      DUP5 \t\t\tCashCal\n      SUB \t\t\tent CashCallExecutionRe\n      SLT \t\t\t  event CashCallExecutionRever...\n      ISZERO \t\t\t\\n    event CashCallExecutionR...\n      PUSH [tag] 559\t\t\t\\n    event CashCallExecutionR...\n      JUMPI \t\t\t\\n    event CashCallExecutionR...\n      PUSH [tag] 560\t\t\tddress indexed lp, uint256 cal...\n      PUSH [tag] 411\t\t\tddress indexed lp, uint256 cal...\n      JUMP \t\t\tddress indexed lp, uint256 cal...\n    tag 560\t\t\tddress indexed lp, uint256 cal...\n      JUMPDEST \t\t\tddress indexed lp, uint256 cal...\n    tag 559\t\t\t\\n    event CashCallExecutionR...\n      JUMPDEST \t\t\t\\n    event CashCallExecutionR...\n      PUSH 0\t\t\ts\n      PUSH [tag] 561\t\t\tlp);\\n    event Withdrawal(add...\n      DUP5 \t\t\t uint25\n      DUP3 \t\t\tdexed \n      DUP6 \t\t\t(address \n      ADD \t\t\tawal(address indexed t\n      PUSH [tag] 415\t\t\tlp);\\n    event Withdrawal(add...\n      JUMP \t\t\tlp);\\n    event Withdrawal(add...\n    tag 561\t\t\tlp);\\n    event Withdrawal(add...\n      JUMPDEST \t\t\tlp);\\n    event Withdrawal(add...\n      SWAP2 \t\t\ts indexed lp);\\n    event With...\n      POP \t\t\ts indexed lp);\\n    event With...\n      POP \t\t\tnaltyAmount);\\n    event Acces...\n      SWAP3 \t\t\t6 deadline);\\n    event CashCa...\n      SWAP2 \t\t\t6 deadline);\\n    event CashCa...\n      POP \t\t\t6 deadline);\\n    event CashCa...\n      POP \t\t\t6 deadline);\\n    event CashCa...\n      JUMP \t\t\t6 deadline);\\n    event CashCa...\n    tag 420\t\t\tinAdded(address indexed accoun...\n      JUMPDEST \t\t\tinAdded(address indexed accoun...\n      PUSH [tag] 563\t\t\tevent DefaultAdminChange\n      DUP2 \t\t\tChang\n      PUSH [tag] 417\t\t\tevent DefaultAdminChange\n      JUMP \t\t\tevent DefaultAdminChange\n    tag 563\t\t\tevent DefaultAdminChange\n      JUMPDEST \t\t\tevent DefaultAdminChange\n      DUP3 \t\t\t\\n  \n      MSTORE \t\t\tcount);\\n    event DefaultAdmi...\n      POP \t\t\tinAdded(address indexed accoun...\n      POP \t\t\tinAdded(address indexed accoun...\n      JUMP \t\t\tinAdded(address indexed accoun...\n    tag 45\t\t\texed oldAdmin, address indexed...\n      JUMPDEST \t\t\texed oldAdmin, address indexed...\n      PUSH 0\t\t\ts _d\n      PUSH 20\t\t\tgr\n      DUP3 \t\t\trequire(_\n      ADD \t\t\t    require(_aggre\n      SWAP1 \t\t\t) {\\n        require(_aggre\n      POP \t\t\t) {\\n        require(_aggre\n      PUSH [tag] 565\t\t\tss != address(0), \"Invalid agg...\n      PUSH 0\t\t\tf\n      DUP4 \t\t\trequire(_\n      ADD \t\t\t    require(_defa\n      DUP5 \t\t\ts\");\\n \n      PUSH [tag] 420\t\t\tss != address(0), \"Invalid agg...\n      JUMP \t\t\tss != address(0), \"Invalid agg...\n    tag 565\t\t\tss != address(0), \"Invalid agg...\n      JUMPDEST \t\t\tss != address(0), \"Invalid agg...\n      SWAP3 \t\t\texed oldAdmin, address indexed...\n      SWAP2 \t\t\texed oldAdmin, address indexed...\n      POP \t\t\texed oldAdmin, address indexed...\n      POP \t\t\texed oldAdmin, address indexed...\n      JUMP \t\t\texed oldAdmin, address indexed...\n    tag 49\t\t\tdress(0), \"Invalid default adm...\n      JUMPDEST \t\t\tdress(0), \"Invalid default adm...\n      PUSH 0\t\t\t  ethU\n      PUSH 20\t\t\tat\n      DUP3 \t\t\tface(_agg\n      DUP5 \t\t\torV3Int\n      SUB \t\t\tegatorV3Interface(_aggr\n      SLT \t\t\tAggregatorV3Interface(_aggrega...\n      ISZERO \t\t\t = AggregatorV3Interface(_aggr...\n      PUSH [tag] 567\t\t\t = AggregatorV3Interface(_aggr...\n      JUMPI \t\t\t = AggregatorV3Interface(_aggr...\n      PUSH [tag] 568\t\t\tdress);\\n        defaultAdmin ...\n      PUSH [tag] 411\t\t\tdress);\\n        defaultAdmin ...\n      JUMP \t\t\tdress);\\n        defaultAdmin ...\n    tag 568\t\t\tdress);\\n        defaultAdmin ...\n      JUMPDEST \t\t\tdress);\\n        defaultAdmin ...\n    tag 567\t\t\t = AggregatorV3Interface(_aggr...\n      JUMPDEST \t\t\t = AggregatorV3Interface(_aggr...\n      PUSH 0\t\t\tA\n      PUSH [tag] 569\t\t\t }\\n\\n    // Check if sender i...\n      DUP5 \t\t\tin\\n    \n      DUP3 \t\t\tfault \n      DUP6 \t\t\tr is the \n      ADD \t\t\tender is the default a\n      PUSH [tag] 419\t\t\t }\\n\\n    // Check if sender i...\n      JUMP \t\t\t }\\n\\n    // Check if sender i...\n    tag 569\t\t\t }\\n\\n    // Check if sender i...\n      JUMPDEST \t\t\t }\\n\\n    // Check if sender i...\n      SWAP2 \t\t\tdmin);\\n    }\\n\\n    // Check ...\n      POP \t\t\tdmin);\\n    }\\n\\n    // Check ...\n      POP \t\t\tas the only admin\\n        add...\n      SWAP3 \t\t\tdress(0), \"Invalid default adm...\n      SWAP2 \t\t\tdress(0), \"Invalid default adm...\n      POP \t\t\tdress(0), \"Invalid default adm...\n      POP \t\t\tdress(0), \"Invalid default adm...\n      JUMP \t\t\tdress(0), \"Invalid default adm...\n    tag 421\t\t\tn() {\\n        require(msg.sen...\n      JUMPDEST \t\t\tn() {\\n        require(msg.sen...\n      PUSH 0\t\t\t= defau\n      DUP2 \t\t\tlt ad\n      ISZERO \t\t\ty default adm\n      ISZERO \t\t\ted: Only default admi\n      SWAP1 \t\t\tot authorized: Only default ad...\n      POP \t\t\tot authorized: Only default ad...\n      SWAP2 \t\t\tn() {\\n        require(msg.sen...\n      SWAP1 \t\t\tn() {\\n        require(msg.sen...\n      POP \t\t\tn() {\\n        require(msg.sen...\n      JUMP \t\t\tn() {\\n        require(msg.sen...\n    tag 422\t\t\tm this action\");\\n        _;\\n...\n      JUMPDEST \t\t\tm this action\");\\n        _;\\n...\n      PUSH [tag] 572\t\t\t default admin)\\n    m\n      DUP2 \t\t\t\\n    \n      PUSH [tag] 421\t\t\t default admin)\\n    m\n      JUMP \t\t\t default admin)\\n    m\n    tag 572\t\t\t default admin)\\n    m\n      JUMPDEST \t\t\t default admin)\\n    m\n      DUP3 \t\t\tudi\n      MSTORE \t\t\tn (including default admin)\\n ...\n      POP \t\t\tm this action\");\\n        _;\\n...\n      POP \t\t\tm this action\");\\n        _;\\n...\n      JUMP \t\t\tm this action\");\\n        _;\\n...\n    tag 64\t\t\tdmin() {\\n        require(isAd...\n      JUMPDEST \t\t\tdmin() {\\n        require(isAd...\n      PUSH 0\t\t\this \n      PUSH 20\t\t\t G\n      DUP3 \t\t\t  }\\n\\n    \n      ADD \t\t\t;\\n    }\\n\\n    // Ge\n      SWAP1 \t\t\t       _;\\n    }\\n\\n    // Ge\n      POP \t\t\t       _;\\n    }\\n\\n    // Ge\n      PUSH [tag] 574\t\t\texchange rate\\n    function ge...\n      PUSH 0\t\t\tw\n      DUP4 \t\t\t public v\n      ADD \t\t\tte() public view \n      DUP5 \t\t\txchang\n      PUSH [tag] 422\t\t\texchange rate\\n    function ge...\n      JUMP \t\t\texchange rate\\n    function ge...\n    tag 574\t\t\texchange rate\\n    function ge...\n      JUMPDEST \t\t\texchange rate\\n    function ge...\n      SWAP3 \t\t\tdmin() {\\n        require(isAd...\n      SWAP2 \t\t\tdmin() {\\n        require(isAd...\n      POP \t\t\tdmin() {\\n        require(isAd...\n      POP \t\t\tdmin() {\\n        require(isAd...\n      JUMP \t\t\tdmin() {\\n        require(isAd...\n    tag 423\t\t\t56) {\\n        (, int256 ethUs...\n      JUMPDEST \t\t\t56) {\\n        (, int256 ethUs...\n      PUSH 0\t\t\t \n      PUSH 0\t\t\te\n      REVERT \t\t\tUsdPrice > 0\n    tag 424\t\t\tTH/USD price data\");\\n\\n      ...\n      JUMPDEST \t\t\tTH/USD price data\");\\n\\n      ...\n      PUSH 0\t\t\tn\n      PUSH 0\t\t\tt\n      REVERT \t\t\t     return \n    tag 425\t\t\tsdPrice) * 1e10; // Adjust to ...\n      JUMPDEST \t\t\tsdPrice) * 1e10; // Adjust to ...\n      PUSH 0\t\t\t for c\n      PUSH 1F\t\t\tmi\n      NOT \t\t\tthe min\n      PUSH 1F\t\t\t s\n      DUP4 \t\t\ttion \n      ADD \t\t\tFunction to se\n      AND \t\t\t // Function to set the mini\n      SWAP1 \t\t\t    }\\n\\n    // Function to se...\n      POP \t\t\t    }\\n\\n    // Function to se...\n      SWAP2 \t\t\tsdPrice) * 1e10; // Adjust to ...\n      SWAP1 \t\t\tsdPrice) * 1e10; // Adjust to ...\n      POP \t\t\tsdPrice) * 1e10; // Adjust to ...\n      JUMP \t\t\tsdPrice) * 1e10; // Adjust to ...\n    tag 426\t\t\tnt amount in USD (only default...\n      JUMPDEST \t\t\tnt amount in USD (only default...\n      PUSH 4E487B7100000000000000000000000000000000000000000000000000000000\t\t\ton setMinCommitmentAmountUSD(u...\n      PUSH 0\t\t\tc\n      MSTORE \t\t\t    function setMinCommitmentA...\n      PUSH 41\t\t\te(_m\n      PUSH 4\t\t\tu\n      MSTORE \t\t\t    require(_mi\n      PUSH 24\t\t\tD > \n      PUSH 0\t\t\tt\n      REVERT \t\t\tntAmountUSD > 0\n    tag 427\t\t\tommitment amount must be great...\n      JUMPDEST \t\t\tommitment amount must be great...\n      PUSH [tag] 580\t\t\tCommitmentAmountUSD;\\n    }\\n\n      DUP3 \t\t\t   }\n      PUSH [tag] 425\t\t\tCommitmentAmountUSD;\\n    }\\n\n      JUMP \t\t\tCommitmentAmountUSD;\\n    }\\n\n    tag 580\t\t\tCommitmentAmountUSD;\\n    }\\n\n      JUMPDEST \t\t\tCommitmentAmountUSD;\\n    }\\n\n      DUP2 \t\t\tD = _m\n      ADD \t\t\tntUSD = _minCommitmentAmountUS...\n      DUP2 \t\t\tmory _\n      DUP2 \t\t\t   string \n      LT \t\t\t      string memory _n\n      PUSH FFFFFFFFFFFFFFFF\t\t\tion setCommitment(\n      DUP3 \t\t\ty)\\n    fun\n      GT \t\t\tonly)\\n    function setCommitm...\n      OR \t\t\tin only)\\n    function setComm...\n      ISZERO \t\t\tAdmin only)\\n    function setC...\n      PUSH [tag] 581\t\t\tAdmin only)\\n    function setC...\n      JUMPI \t\t\tAdmin only)\\n    function setC...\n      PUSH [tag] 582\t\t\t\\n        address _\n      PUSH [tag] 426\t\t\t\\n        address _\n      JUMP \t\t\t\\n        address _\n    tag 582\t\t\t\\n        address _\n      JUMPDEST \t\t\t\\n        address _\n    tag 581\t\t\tAdmin only)\\n    function setC...\n      JUMPDEST \t\t\tAdmin only)\\n    function setC...\n      DUP1 \t\t\tmountETH,\\n\n      PUSH 40\t\t\t6 \n      MSTORE \t\t\t uint256 _amountETH,\\n \n      POP \t\t\t);\\n        minCommitmentAmoun...\n      POP \t\t\tommitment amount must be great...\n      POP \t\t\tommitment amount must be great...\n      JUMP \t\t\tommitment amount must be great...\n    tag 428\t\t\t56 _endTime\\n    ) external wh...\n      JUMPDEST \t\t\t56 _endTime\\n    ) external wh...\n      PUSH 0\t\t\tPaused\n      PUSH [tag] 584\t\t\trequire(_lp != addre\n      PUSH [tag] 410\t\t\trequire(_lp != addre\n      JUMP \t\t\trequire(_lp != addre\n    tag 584\t\t\trequire(_lp != addre\n      JUMPDEST \t\t\trequire(_lp != addre\n      SWAP1 \t\t\t{\\n        require(_lp != addr...\n      POP \t\t\t{\\n        require(_lp != addr...\n      PUSH [tag] 585\t\t\tnvalid LP address\");\\n        ...\n      DUP3 \t\t\t req\n      DUP3 \t\t\t\\n     \n      PUSH [tag] 427\t\t\tnvalid LP address\");\\n        ...\n      JUMP \t\t\tnvalid LP address\");\\n        ...\n    tag 585\t\t\tnvalid LP address\");\\n        ...\n      JUMPDEST \t\t\tnvalid LP address\");\\n        ...\n      SWAP2 \t\t\t56 _endTime\\n    ) external wh...\n      SWAP1 \t\t\t56 _endTime\\n    ) external wh...\n      POP \t\t\t56 _endTime\\n    ) external wh...\n      JUMP \t\t\t56 _endTime\\n    ) external wh...\n    tag 429\t\t\tp), \"LP already exists\");\\n   ...\n      JUMPDEST \t\t\tp), \"LP already exists\");\\n   ...\n      PUSH 0\t\t\t> 0,\n      PUSH FFFFFFFFFFFFFFFF\t\t\tCommitmentAmountUS\n      DUP3 \t\t\t) >= m\n      GT \t\t\tte() >= minCommitmentAmountUSD\n      ISZERO \t\t\teRate() >= minCommitmentAmount...\n      PUSH [tag] 587\t\t\teRate() >= minCommitmentAmount...\n      JUMPI \t\t\teRate() >= minCommitmentAmount...\n      PUSH [tag] 588\t\t\t10**18, \"Commitmen\n      PUSH [tag] 426\t\t\t10**18, \"Commitmen\n      JUMP \t\t\t10**18, \"Commitmen\n    tag 588\t\t\t10**18, \"Commitmen\n      JUMPDEST \t\t\t10**18, \"Commitmen\n    tag 587\t\t\teRate() >= minCommitmentAmount...\n      JUMPDEST \t\t\teRate() >= minCommitmentAmount...\n      PUSH [tag] 589\t\t\tater than minimum amount\");\\n \n      DUP3 \t\t\tnt\");\\n\n      PUSH [tag] 425\t\t\tater than minimum amount\");\\n \n      JUMP \t\t\tater than minimum amount\");\\n \n    tag 589\t\t\tater than minimum amount\");\\n \n      JUMPDEST \t\t\tater than minimum amount\");\\n \n      SWAP1 \t\t\tt be greater than minimum amou...\n      POP \t\t\tt be greater than minimum amou...\n      PUSH 20\t\t\tst b\n      DUP2 \t\t\time \n      ADD \t\t\tnd Time must be\n      SWAP1 \t\t\ttamp, \"End Time must be\n      POP \t\t\ttamp, \"End Time must be\n      SWAP2 \t\t\tp), \"LP already exists\");\\n   ...\n      SWAP1 \t\t\tp), \"LP already exists\");\\n   ...\n      POP \t\t\tp), \"LP already exists\");\\n   ...\n      JUMP \t\t\tp), \"LP already exists\");\\n   ...\n    tag 430\t\t\the current time.\");\\n\\n       ...\n      JUMPDEST \t\t\the current time.\");\\n\\n       ...\n      DUP3 \t\t\t      \n      DUP2 \t\t\t];\\n\n      DUP4 \t\t\ta[_\n      CALLDATACOPY \t\t\tpInfo = lpData[_lp];\\n        ...\n      PUSH 0\t\t\t.\n      DUP4 \t\t\t   lpI\n      DUP4 \t\t\t   \n      ADD \t\t\tme;\\n        lpIn\n      MSTORE \t\t\te = _name;\\n        lpInfo.c\n      POP \t\t\the current time.\");\\n\\n       ...\n      POP \t\t\the current time.\");\\n\\n       ...\n      POP \t\t\the current time.\");\\n\\n       ...\n      JUMP \t\t\the current time.\");\\n\\n       ...\n    tag 431\t\t\tnt = _amountETH;\\n        lpIn...\n      JUMPDEST \t\t\tnt = _amountETH;\\n        lpIn...\n      PUSH 0\t\t\tme;\\n\\n\n      PUSH [tag] 592\t\t\tentSet(_lp, _amountETH, _endTi...\n      PUSH [tag] 593\t\t\tuntETH, _endTime);\\n    }\\n\\n ...\n      DUP5 \t\t\tnew ca\n      PUSH [tag] 429\t\t\tuntETH, _endTime);\\n    }\\n\\n ...\n      JUMP \t\t\tuntETH, _endTime);\\n    }\\n\\n ...\n    tag 593\t\t\tuntETH, _endTime);\\n    }\\n\\n ...\n      JUMPDEST \t\t\tuntETH, _endTime);\\n    }\\n\\n ...\n      PUSH [tag] 428\t\t\tentSet(_lp, _amountETH, _endTi...\n      JUMP \t\t\tentSet(_lp, _amountETH, _endTi...\n    tag 592\t\t\tentSet(_lp, _amountETH, _endTi...\n      JUMPDEST \t\t\tentSet(_lp, _amountETH, _endTi...\n      SWAP1 \t\t\tt CommitmentSet(_lp, _amountET...\n      POP \t\t\tt CommitmentSet(_lp, _amountET...\n      DUP3 \t\t\tfuncti\n      DUP2 \t\t\ty)\\n  \n      MSTORE \t\t\tmin only)\\n    functio\n      PUSH 20\t\t\tint2\n      DUP2 \t\t\t _lp,\n      ADD \t\t\tress _lp, uint25\n      DUP5 \t\t\tern\n      DUP5 \t\t\tline) \n      DUP5 \t\t\t_de\n      ADD \t\t\t256 _deadline) e\n      GT \t\t\tint256 _deadline) externa\n      ISZERO \t\t\t, uint256 _deadline) external ...\n      PUSH [tag] 594\t\t\t, uint256 _deadline) external ...\n      JUMPI \t\t\t, uint256 _deadline) external ...\n      PUSH [tag] 595\t\t\thenNotPaused onlyAdmin {\\n    ...\n      PUSH [tag] 424\t\t\thenNotPaused onlyAdmin {\\n    ...\n      JUMP \t\t\thenNotPaused onlyAdmin {\\n    ...\n    tag 595\t\t\thenNotPaused onlyAdmin {\\n    ...\n      JUMPDEST \t\t\thenNotPaused onlyAdmin {\\n    ...\n    tag 594\t\t\t, uint256 _deadline) external ...\n      JUMPDEST \t\t\t, uint256 _deadline) external ...\n      PUSH [tag] 596\t\t\t > 0, \"Cash call amount must b...\n      DUP5 \t\t\tro\");\\n\n      DUP3 \t\t\tan \n      DUP6 \t\t\ter \n      PUSH [tag] 430\t\t\t > 0, \"Cash call amount must b...\n      JUMP \t\t\t > 0, \"Cash call amount must b...\n    tag 596\t\t\t > 0, \"Cash call amount must b...\n      JUMPDEST \t\t\t > 0, \"Cash call amount must b...\n      POP \t\t\t       emit CommitmentSet(_lp,...\n      SWAP4 \t\t\tnt = _amountETH;\\n        lpIn...\n      SWAP3 \t\t\tnt = _amountETH;\\n        lpIn...\n      POP \t\t\tnt = _amountETH;\\n        lpIn...\n      POP \t\t\tnt = _amountETH;\\n        lpIn...\n      POP \t\t\tnt = _amountETH;\\n        lpIn...\n      JUMP \t\t\tnt = _amountETH;\\n        lpIn...\n    tag 432\t\t\t block.timestamp && _deadline ...\n      JUMPDEST \t\t\t block.timestamp && _deadline ...\n      PUSH 0\t\t\teadli\n      DUP3 \t\t\t   \n      PUSH 1F\t\t\te.\")\n      DUP4 \t\t\trent t\n      ADD \t\t\t current time.\");\n      SLT \t\t\t the current time.\");\\n     \n      PUSH [tag] 598\t\t\tlater than the current time.\")...\n      JUMPI \t\t\tlater than the current time.\")...\n      PUSH [tag] 599\t\t\t/ Check if there are existing ...\n      PUSH [tag] 423\t\t\t/ Check if there are existing ...\n      JUMP \t\t\t/ Check if there are existing ...\n    tag 599\t\t\t/ Check if there are existing ...\n      JUMPDEST \t\t\t/ Check if there are existing ...\n    tag 598\t\t\tlater than the current time.\")...\n      JUMPDEST \t\t\tlater than the current time.\")...\n      DUP2 \t\t\thCalls\n      CALLDATALOAD \t\t\tngCalls = cashCalls[\n      PUSH [tag] 600\t\t\texistingCalls.length > 0) {\\n ...\n      DUP5 \t\t\ts[e\n      DUP3 \t\t\ttingCa\n      PUSH 20\t\t\t = e\n      DUP7 \t\t\tDeadli\n      ADD \t\t\tlastDeadline = ex\n      PUSH [tag] 431\t\t\texistingCalls.length > 0) {\\n ...\n      JUMP \t\t\texistingCalls.length > 0) {\\n ...\n    tag 600\t\t\texistingCalls.length > 0) {\\n ...\n      JUMPDEST \t\t\texistingCalls.length > 0) {\\n ...\n      SWAP2 \t\t\t     if (existingCalls.length ...\n      POP \t\t\t     if (existingCalls.length ...\n      POP \t\t\te must be later than the curre...\n      SWAP3 \t\t\t block.timestamp && _deadline ...\n      SWAP2 \t\t\t block.timestamp && _deadline ...\n      POP \t\t\t block.timestamp && _deadline ...\n      POP \t\t\t block.timestamp && _deadline ...\n      JUMP \t\t\t block.timestamp && _deadline ...\n    tag 68\t\t\tlength - 1].deadline;\\n       ...\n      JUMPDEST \t\t\tlength - 1].deadline;\\n       ...\n      PUSH 0\t\t\tthe la\n      PUSH 0\t\t\t deadl\n      PUSH 0\t\t\te\");\\n \n      PUSH 0\t\t\t     }\n      PUSH 80\t\t\tash\n      DUP6 \t\t\tll\\n      \n      DUP8 \t\t\tew Cash\n      SUB \t\t\the new CashCall\\n       \n      SLT \t\t\tdd the new CashCall\\n        c...\n      ISZERO \t\t\t/ Add the new CashCall\\n      ...\n      PUSH [tag] 602\t\t\t/ Add the new CashCall\\n      ...\n      JUMPI \t\t\t/ Add the new CashCall\\n      ...\n      PUSH [tag] 603\t\t\ts[_lp].push(CashCall(_amount, ...\n      PUSH [tag] 411\t\t\ts[_lp].push(CashCall(_amount, ...\n      JUMP \t\t\ts[_lp].push(CashCall(_amount, ...\n    tag 603\t\t\ts[_lp].push(CashCall(_amount, ...\n      JUMPDEST \t\t\ts[_lp].push(CashCall(_amount, ...\n    tag 602\t\t\t/ Add the new CashCall\\n      ...\n      JUMPDEST \t\t\t/ Add the new CashCall\\n      ...\n      PUSH 0\t\t\t \n      DUP6 \t\t\tlls.lengt\n      ADD \t\t\tngCalls.length, _\n      CALLDATALOAD \t\t\treated(existingCalls.length, _...\n      PUSH FFFFFFFFFFFFFFFF\t\t\t   // Function to \n      DUP2 \t\t\t    }\\n\n      GT \t\t\t);\\n    }\\n\\n    // Function t...\n      ISZERO \t\t\tine);\\n    }\\n\\n    // Functio...\n      PUSH [tag] 604\t\t\tine);\\n    }\\n\\n    // Functio...\n      JUMPI \t\t\tine);\\n    }\\n\\n    // Functio...\n      PUSH [tag] 605\t\t\tall cash calls for a specific ...\n      PUSH [tag] 412\t\t\tall cash calls for a specific ...\n      JUMP \t\t\tall cash calls for a specific ...\n    tag 605\t\t\tall cash calls for a specific ...\n      JUMPDEST \t\t\tall cash calls for a specific ...\n    tag 604\t\t\tine);\\n    }\\n\\n    // Functio...\n      JUMPDEST \t\t\tine);\\n    }\\n\\n    // Functio...\n      PUSH [tag] 606\t\t\t memory) {\\n        return cas...\n      DUP8 \t\t\t Make a\n      DUP3 \t\t\t}\\n\\n   \n      DUP9 \t\t\t[_lp];\\n  \n      ADD \t\t\talls[_lp];\\n    }\\n\\n    \n      PUSH [tag] 432\t\t\t memory) {\\n        return cas...\n      JUMP \t\t\t memory) {\\n        return cas...\n    tag 606\t\t\t memory) {\\n        return cas...\n      JUMPDEST \t\t\t memory) {\\n        return cas...\n      SWAP5 \t\t\tCashCall[] memory) {\\n        ...\n      POP \t\t\tCashCall[] memory) {\\n        ...\n      POP \t\t\tvalues\\n        emit CashCallC...\n      PUSH 20\t\t\ts \n      PUSH [tag] 607\t\t\tternal payable whenNotPaused n...\n      DUP8 \t\t\t       \n      DUP3 \t\t\ttrant \n      DUP9 \t\t\tsed nonRe\n      ADD \t\t\ttPaused nonReentrant {\n      PUSH [tag] 419\t\t\tternal payable whenNotPaused n...\n      JUMP \t\t\tternal payable whenNotPaused n...\n    tag 607\t\t\tternal payable whenNotPaused n...\n      JUMPDEST \t\t\tternal payable whenNotPaused n...\n      SWAP4 \t\t\tcallId) external payable whenN...\n      POP \t\t\tcallId) external payable whenN...\n      POP \t\t\t  function makePayment(address...\n      PUSH 40\t\t\t//\n      PUSH [tag] 608\t\t\tfor the LP and call ID\\n      ...\n      DUP8 \t\t\tge cash\n      DUP3 \t\t\tall st\n      DUP9 \t\t\t      Cas\n      ADD \t\t\tD\\n        CashCall sto\n      PUSH [tag] 415\t\t\tfor the LP and call ID\\n      ...\n      JUMP \t\t\tfor the LP and call ID\\n      ...\n    tag 608\t\t\tfor the LP and call ID\\n      ...\n      JUMPDEST \t\t\tfor the LP and call ID\\n      ...\n      SWAP3 \t\t\tcash call for the LP and call ...\n      POP \t\t\tcash call for the LP and call ...\n      POP \t\t\tou are not an LP\");\\n\\n       ...\n      PUSH 60\t\t\tsh\n      PUSH [tag] 609\t\t\tall does not exist\");\\n\\n     ...\n      DUP8 \t\t\te cash \n      DUP3 \t\t\teck if\n      DUP9 \t\t\t      // \n      ADD \t\t\t\\n\\n        // Check if \n      PUSH [tag] 415\t\t\tall does not exist\");\\n\\n     ...\n      JUMP \t\t\tall does not exist\");\\n\\n     ...\n    tag 609\t\t\tall does not exist\");\\n\\n     ...\n      JUMPDEST \t\t\tall does not exist\");\\n\\n     ...\n      SWAP2 \t\t\t0, \"Cash call does not exist\")...\n      POP \t\t\t0, \"Cash call does not exist\")...\n      POP \t\t\t[_callId];\\n        require(ca...\n      SWAP3 \t\t\tlength - 1].deadline;\\n       ...\n      SWAP6 \t\t\tlength - 1].deadline;\\n       ...\n      SWAP2 \t\t\tlength - 1].deadline;\\n       ...\n      SWAP5 \t\t\tlength - 1].deadline;\\n       ...\n      POP \t\t\tlength - 1].deadline;\\n       ...\n      SWAP3 \t\t\tlength - 1].deadline;\\n       ...\n      POP \t\t\tlength - 1].deadline;\\n       ...\n      JUMP \t\t\tlength - 1].deadline;\\n       ...\n    tag 433\t\t\tr if the deadline has passed\\n...\n      JUMPDEST \t\t\tr if the deadline has passed\\n...\n      PUSH [tag] 611\t\t\t call already execute\n      DUP2 \t\t\txecut\n      PUSH [tag] 421\t\t\t call already execute\n      JUMP \t\t\t call already execute\n    tag 611\t\t\t call already execute\n      JUMPDEST \t\t\t call already execute\n      DUP2 \t\t\t, \"Ca\n      EQ \t\t\tted, \"Cash call already execut...\n      PUSH [tag] 612\t\t\tCall.executed, \"Cash call alre...\n      JUMPI \t\t\tCall.executed, \"Cash call alre...\n      PUSH 0\t\t\t/\n      PUSH 0\t\t\t \n      REVERT \t\t\t\\n        // \n    tag 612\t\t\tCall.executed, \"Cash call alre...\n      JUMPDEST \t\t\tCall.executed, \"Cash call alre...\n      POP \t\t\tr if the deadline has passed\\n...\n      JUMP \t\t\tr if the deadline has passed\\n...\n    tag 434\t\t\td amount for the cash call\\n  ...\n      JUMPDEST \t\t\td amount for the cash call\\n  ...\n      PUSH 0\t\t\t.paid\n      DUP2 \t\t\tUpdate\n      CALLDATALOAD \t\t\t\\n\\n        // Update \n      SWAP1 \t\t\tsg.value;\\n\\n        // Update...\n      POP \t\t\tsg.value;\\n\\n        // Update...\n      PUSH [tag] 614\t\t\t       lpData[msg.sender].tota\n      DUP2 \t\t\t].tot\n      PUSH [tag] 433\t\t\t       lpData[msg.sender].tota\n      JUMP \t\t\t       lpData[msg.sender].tota\n    tag 614\t\t\t       lpData[msg.sender].tota\n      JUMPDEST \t\t\t       lpData[msg.sender].tota\n      SWAP3 \t\t\td amount for the cash call\\n  ...\n      SWAP2 \t\t\td amount for the cash call\\n  ...\n      POP \t\t\td amount for the cash call\\n  ...\n      POP \t\t\td amount for the cash call\\n  ...\n      JUMP \t\t\td amount for the cash call\\n  ...\n    tag 73\t\t\t.value;\\n\\n        // Emit an ...\n      JUMPDEST \t\t\t.value;\\n\\n        // Emit an ...\n      PUSH 0\t\t\t     e\n      PUSH 0\t\t\tt Paym\n      PUSH 0\t\t\ttMade(\n      PUSH 60\t\t\tal\n      DUP5 \t\t\tsg.value,\n      DUP7 \t\t\t].name,\n      SUB \t\t\tnder].name, msg.value, \n      SLT \t\t\tg.sender].name, msg.value, _ca...\n      ISZERO \t\t\t[msg.sender].name, msg.value, ...\n      PUSH [tag] 616\t\t\t[msg.sender].name, msg.value, ...\n      JUMPI \t\t\t[msg.sender].name, msg.value, ...\n      PUSH [tag] 617\t\t\t;\\n    }\\n\\n    // Execute a c...\n      PUSH [tag] 411\t\t\t;\\n    }\\n\\n    // Execute a c...\n      JUMP \t\t\t;\\n    }\\n\\n    // Execute a c...\n    tag 617\t\t\t;\\n    }\\n\\n    // Execute a c...\n      JUMPDEST \t\t\t;\\n    }\\n\\n    // Execute a c...\n    tag 616\t\t\t[msg.sender].name, msg.value, ...\n      JUMPDEST \t\t\t[msg.sender].name, msg.value, ...\n      PUSH 0\t\t\tn\n      PUSH [tag] 618\t\t\t      CashCall storage call = ...\n      DUP7 \t\t\t_callId\n      DUP3 \t\t\tlls[_l\n      DUP8 \t\t\tll = cash\n      ADD \t\t\te call = cashCalls[_lp\n      PUSH [tag] 419\t\t\t      CashCall storage call = ...\n      JUMP \t\t\t      CashCall storage call = ...\n    tag 618\t\t\t      CashCall storage call = ...\n      JUMPDEST \t\t\t      CashCall storage call = ...\n      SWAP4 \t\t\tAdmin {\\n        CashCall stor...\n      POP \t\t\tAdmin {\\n        CashCall stor...\n      POP \t\t\tuint256 _callId) external when...\n      PUSH 20\t\t\ts \n      PUSH [tag] 619\t\t\tuire(!call.executed, \"Cash cal...\n      DUP7 \t\t\tted\");\\n\n      DUP3 \t\t\tady ex\n      DUP8 \t\t\th call al\n      ADD \t\t\t\"Cash call already exe\n      PUSH [tag] 415\t\t\tuire(!call.executed, \"Cash cal...\n      JUMP \t\t\tuire(!call.executed, \"Cash cal...\n    tag 619\t\t\tuire(!call.executed, \"Cash cal...\n      JUMPDEST \t\t\tuire(!call.executed, \"Cash cal...\n      SWAP3 \t\t\t       require(!call.executed,...\n      POP \t\t\t       require(!call.executed,...\n      POP \t\t\tll.amount > 0, \"Cash call does...\n      PUSH 40\t\t\tll\n      PUSH [tag] 620\t\t\t   emit CashCallExecuted(_lp, ...\n      DUP7 \t\t\t  }\\n\\n  \n      DUP3 \t\t\tllId);\n      DUP8 \t\t\ted(_lp, _\n      ADD \t\t\tecuted(_lp, _callId);\\n\n      PUSH [tag] 434\t\t\t   emit CashCallExecuted(_lp, ...\n      JUMP \t\t\t   emit CashCallExecuted(_lp, ...\n    tag 620\t\t\t   emit CashCallExecuted(_lp, ...\n      JUMPDEST \t\t\t   emit CashCallExecuted(_lp, ...\n      SWAP2 \t\t\tue;\\n\\n        emit CashCallEx...\n      POP \t\t\tue;\\n\\n        emit CashCallEx...\n      POP \t\t\the cash call logic\\n        ca...\n      SWAP3 \t\t\t.value;\\n\\n        // Emit an ...\n      POP \t\t\t.value;\\n\\n        // Emit an ...\n      SWAP3 \t\t\t.value;\\n\\n        // Emit an ...\n      POP \t\t\t.value;\\n\\n        // Emit an ...\n      SWAP3 \t\t\t.value;\\n\\n        // Emit an ...\n      JUMP \t\t\t.value;\\n\\n        // Emit an ...\n    tag 435\t\t\tn of a cash call (Admin only)\\...\n      JUMPDEST \t\t\tn of a cash call (Admin only)\\...\n      PUSH 0\t\t\t_lp, u\n      DUP2 \t\t\tnNotP\n      MLOAD \t\t\tal whenNotPa\n      SWAP1 \t\t\tId) external whenNotPa\n      POP \t\t\tId) external whenNotPa\n      SWAP2 \t\t\tn of a cash call (Admin only)\\...\n      SWAP1 \t\t\tn of a cash call (Admin only)\\...\n      POP \t\t\tn of a cash call (Admin only)\\...\n      JUMP \t\t\tn of a cash call (Admin only)\\...\n    tag 436\t\t\tn {\\n        require(isLP(_lp)...\n      JUMPDEST \t\t\tn {\\n        require(isLP(_lp)...\n      PUSH 0\t\t\td];\\n       \n      DUP3 \t\t\t0, \"Ca\n      DUP3 \t\t\tnt \n      MSTORE \t\t\tll.amount > 0, \"Cas\n      PUSH 20\t\t\trequ\n      DUP3 \t\t\t   \n      ADD \t\t\t\\n        requi\n      SWAP1 \t\t\tes not exist\");\\n        requi\n      POP \t\t\tes not exist\");\\n        requi\n      SWAP3 \t\t\tn {\\n        require(isLP(_lp)...\n      SWAP2 \t\t\tn {\\n        require(isLP(_lp)...\n      POP \t\t\tn {\\n        require(isLP(_lp)...\n      POP \t\t\tn {\\n        require(isLP(_lp)...\n      JUMP \t\t\tn {\\n        require(isLP(_lp)...\n    tag 437\t\t\tuted, \"Cash call not executed ...\n      JUMPDEST \t\t\tuted, \"Cash call not executed ...\n      PUSH 0\t\t\td fl\n      DUP2 \t\t\t   \n      SWAP1 \t\t\tfalse\\n     \n      POP \t\t\tfalse\\n     \n      PUSH 20\t\t\t    \n      DUP3 \t\t\tse;\n      ADD \t\t\t false;\\n\\n     \n      SWAP1 \t\t\tecuted = false;\\n\\n     \n      POP \t\t\tecuted = false;\\n\\n     \n      SWAP2 \t\t\tuted, \"Cash call not executed ...\n      SWAP1 \t\t\tuted, \"Cash call not executed ...\n      POP \t\t\tuted, \"Cash call not executed ...\n      JUMP \t\t\tuted, \"Cash call not executed ...\n    tag 438\t\t\tallExecutionReverted(_lp, _cal...\n      JUMPDEST \t\t\tallExecutionReverted(_lp, _cal...\n      PUSH [tag] 625\t\t\tdeadlines (Admin only)\\n \n      DUP2 \t\t\tnly)\\n\n      PUSH [tag] 417\t\t\tdeadlines (Admin only)\\n \n      JUMP \t\t\tdeadlines (Admin only)\\n \n    tag 625\t\t\tdeadlines (Admin only)\\n \n      JUMPDEST \t\t\tdeadlines (Admin only)\\n \n      DUP3 \t\t\tsse\n      MSTORE \t\t\t for missed deadlines (Admin o...\n      POP \t\t\tallExecutionReverted(_lp, _cal...\n      POP \t\t\tallExecutionReverted(_lp, _cal...\n      JUMP \t\t\tallExecutionReverted(_lp, _cal...\n    tag 439\t\t\tpplyPenalty(address _lp, uint2...\n      JUMPDEST \t\t\tpplyPenalty(address _lp, uint2...\n      PUSH 0\t\t\texternal w\n      PUSH [tag] 627\t\t\td onlyAdmin {\\n        LPData ...\n      DUP4 \t\t\to =\n      DUP4 \t\t\tge lpI\n      PUSH [tag] 438\t\t\td onlyAdmin {\\n        LPData ...\n      JUMP \t\t\td onlyAdmin {\\n        LPData ...\n    tag 627\t\t\td onlyAdmin {\\n        LPData ...\n      JUMPDEST \t\t\td onlyAdmin {\\n        LPData ...\n      PUSH 20\t\t\tnfo.\n      DUP4 \t\t\te(l\n      ADD \t\t\tquire(lpInfo.c\n      SWAP1 \t\t\tp];\\n        require(lpInfo.c\n      POP \t\t\tp];\\n        require(lpInfo.c\n      SWAP3 \t\t\tpplyPenalty(address _lp, uint2...\n      SWAP2 \t\t\tpplyPenalty(address _lp, uint2...\n      POP \t\t\tpplyPenalty(address _lp, uint2...\n      POP \t\t\tpplyPenalty(address _lp, uint2...\n      JUMP \t\t\tpplyPenalty(address _lp, uint2...\n    tag 440\t\t\tunt > 0, \"Invalid LP\");\\n\\n   ...\n      JUMPDEST \t\t\tunt > 0, \"Invalid LP\");\\n\\n   ...\n      PUSH 0\t\t\tlPai\n      PUSH 20\t\t\t emi\n      DUP3 \t\t\t   \n      ADD \t\t\t;\\n        emit\n      SWAP1 \t\t\ttyAmount;\\n        emit\n      POP \t\t\ttyAmount;\\n        emit\n      SWAP2 \t\t\tunt > 0, \"Invalid LP\");\\n\\n   ...\n      SWAP1 \t\t\tunt > 0, \"Invalid LP\");\\n\\n   ...\n      POP \t\t\tunt > 0, \"Invalid LP\");\\n\\n   ...\n      JUMP \t\t\tunt > 0, \"Invalid LP\");\\n\\n   ...\n    tag 441\t\t\t     // Revoke access if appli...\n      JUMPDEST \t\t\t     // Revoke access if appli...\n      PUSH 0\t\t\tpIn\n      PUSH [tag] 630\t\t\t    emit AccessRevoked(_lp);\\n...\n      DUP3 \t\t\t  // \n      PUSH [tag] 435\t\t\t    emit AccessRevoked(_lp);\\n...\n      JUMP \t\t\t    emit AccessRevoked(_lp);\\n...\n    tag 630\t\t\t    emit AccessRevoked(_lp);\\n...\n      JUMPDEST \t\t\t    emit AccessRevoked(_lp);\\n...\n      PUSH [tag] 631\t\t\tonly default admin)\\n    funct...\n      DUP2 \t\t\tdmin {\n      DUP6 \t\t\taul\n      PUSH [tag] 436\t\t\tonly default admin)\\n    funct...\n      JUMP \t\t\tonly default admin)\\n    funct...\n    tag 631\t\t\tonly default admin)\\n    funct...\n      JUMPDEST \t\t\tonly default admin)\\n    funct...\n      SWAP4 \t\t\tadmin (only default admin)\\n  ...\n      POP \t\t\tadmin (only default admin)\\n  ...\n      PUSH [tag] 632\t\t\t != address(0), \"Invalid addre...\n      DUP4 \t\t\te(!is\n      PUSH [tag] 437\t\t\t != address(0), \"Invalid addre...\n      JUMP \t\t\t != address(0), \"Invalid addre...\n    tag 632\t\t\t != address(0), \"Invalid addre...\n      JUMPDEST \t\t\t != address(0), \"Invalid addre...\n      DUP1 \t\t\ty an ad\n      PUSH 0\t\t\th\n    tag 633\t\t\t       // Add the new admin\\n ...\n      JUMPDEST \t\t\t       // Add the new admin\\n ...\n      DUP4 \t\t\tin\\n   \n      DUP2 \t\t\ta\n      LT \t\t\tew admin\\n    \n      ISZERO \t\t\t       // Add the new admin\\n ...\n      PUSH [tag] 635\t\t\t       // Add the new admin\\n ...\n      JUMPI \t\t\t       // Add the new admin\\n ...\n      DUP2 \t\t\t emit \n      MLOAD \t\t\t       emit A\n      PUSH [tag] 636\t\t\t\\n    }\\n\\n    // Remove an ad...\n      DUP9 \t\t\tcti\n      DUP3 \t\t\t admin)\\n    f\n      PUSH [tag] 439\t\t\t\\n    }\\n\\n    // Remove an ad...\n      JUMP \t\t\t\\n    }\\n\\n    // Remove an ad...\n    tag 636\t\t\t\\n    }\\n\\n    // Remove an ad...\n      JUMPDEST \t\t\t\\n    }\\n\\n    // Remove an ad...\n      SWAP8 \t\t\tcount);\\n    }\\n\\n    // Remov...\n      POP \t\t\tcount);\\n    }\\n\\n    // Remov...\n      PUSH [tag] 637\t\t\taccount) public onlyDefaultAdm...\n      DUP4 \t\t\tAdmin[\n      PUSH [tag] 440\t\t\taccount) public onlyDefaultAdm...\n      JUMP \t\t\taccount) public onlyDefaultAdm...\n    tag 637\t\t\taccount) public onlyDefaultAdm...\n      JUMPDEST \t\t\taccount) public onlyDefaultAdm...\n      SWAP3 \t\t\t(address _account) public only...\n      POP \t\t\t(address _account) public only...\n      POP \t\t\t       isAdmin[_account] = tru...\n      PUSH 1\t\t\t(\n      DUP2 \t\t\tu\n      ADD \t\t\tns.push(_\n      SWAP1 \t\t\t admins.push(_\n      POP \t\t\t admins.push(_\n      PUSH [tag] 633\t\t\t       // Add the new admin\\n ...\n      JUMP \t\t\t       // Add the new admin\\n ...\n    tag 635\t\t\t       // Add the new admin\\n ...\n      JUMPDEST \t\t\t       // Add the new admin\\n ...\n      POP \t\t\t   // Add the \n      DUP6 \t\t\t\\n\\n \n      SWAP4 \t\t\tdmin\");\\n\\n \n      POP \t\t\tdmin\");\\n\\n \n      POP \t\t\t.totalPaid = 0;\\n            e...\n      POP \t\t\t.totalPaid = 0;\\n            e...\n      POP \t\t\t.totalPaid = 0;\\n            e...\n      SWAP3 \t\t\t     // Revoke access if appli...\n      SWAP2 \t\t\t     // Revoke access if appli...\n      POP \t\t\t     // Revoke access if appli...\n      POP \t\t\t     // Revoke access if appli...\n      JUMP \t\t\t     // Revoke access if appli...\n    tag 79\t\t\tevent removing the last admin\\...\n      JUMPDEST \t\t\tevent removing the last admin\\...\n      PUSH 0\t\t\tount\n      PUSH 20\t\t\t t\n      DUP3 \t\t\tRemove fr\n      ADD \t\t\t // Remove from th\n      SWAP1 \t\t\t\\n        // Remove from th\n      POP \t\t\t\\n        // Remove from th\n      DUP2 \t\t\t admins.l\n      DUP2 \t\t\t0; i\n      SUB \t\t\ti = 0; i < admins.le\n      PUSH 0\t\t\t2\n      DUP4 \t\t\t  for (ui\n      ADD \t\t\t      for (uint25\n      MSTORE \t\t\trray\\n        for (uint256 i =...\n      PUSH [tag] 639\t\t\t       if (admins[i] == _accou...\n      DUP2 \t\t\t    \n      DUP5 \t\t\t      \n      PUSH [tag] 441\t\t\t       if (admins[i] == _accou...\n      JUMP \t\t\t       if (admins[i] == _accou...\n    tag 639\t\t\t       if (admins[i] == _accou...\n      JUMPDEST \t\t\t       if (admins[i] == _accou...\n      SWAP1 \t\t\t {\\n            if (admins[i] ...\n      POP \t\t\t {\\n            if (admins[i] ...\n      SWAP3 \t\t\tevent removing the last admin\\...\n      SWAP2 \t\t\tevent removing the last admin\\...\n      POP \t\t\tevent removing the last admin\\...\n      POP \t\t\tevent removing the last admin\\...\n      JUMP \t\t\tevent removing the last admin\\...\n    tag 442\t\t\t                break;\\n      ...\n      JUMPDEST \t\t\t                break;\\n      ...\n      PUSH [tag] 641\t\t\t  }\\n\\n    // Set a new de\n      DUP2 \t\t\tnew d\n      PUSH [tag] 413\t\t\t  }\\n\\n    // Set a new de\n      JUMP \t\t\t  }\\n\\n    // Set a new de\n    tag 641\t\t\t  }\\n\\n    // Set a new de\n      JUMPDEST \t\t\t  }\\n\\n    // Set a new de\n      DUP3 \t\t\t);\\n\n      MSTORE \t\t\taccount);\\n    }\\n\\n    // Set...\n      POP \t\t\t                break;\\n      ...\n      POP \t\t\t                break;\\n      ...\n      JUMP \t\t\t                break;\\n      ...\n    tag 87\t\t\tonly the current default admin...\n      JUMPDEST \t\t\tonly the current default admin...\n      PUSH 0\t\t\t onl\n      PUSH 20\t\t\tew\n      DUP3 \t\t\t require(\n      ADD \t\t\t     require(_newD\n      SWAP1 \t\t\tin {\\n        require(_newD\n      POP \t\t\tin {\\n        require(_newD\n      PUSH [tag] 643\t\t\tn != address(0), \"Invalid addr...\n      PUSH 0\t\t\ta\n      DUP4 \t\t\t;\\n\\n      \n      ADD \t\t\tin\");\\n\\n        ad\n      DUP5 \t\t\tfault \n      PUSH [tag] 442\t\t\tn != address(0), \"Invalid addr...\n      JUMP \t\t\tn != address(0), \"Invalid addr...\n    tag 643\t\t\tn != address(0), \"Invalid addr...\n      JUMPDEST \t\t\tn != address(0), \"Invalid addr...\n      SWAP3 \t\t\tonly the current default admin...\n      SWAP2 \t\t\tonly the current default admin...\n      POP \t\t\tonly the current default admin...\n      POP \t\t\tonly the current default admin...\n      JUMP \t\t\tonly the current default admin...\n    tag 106\t\t\t = defaultAdmin;\\n        addA...\n      JUMPDEST \t\t\t = defaultAdmin;\\n        addA...\n      PUSH 0\t\t\t_newDe\n      PUSH 0\t\t\tultAdm\n      PUSH 0\t\t\t;\\n\\n   \n      PUSH 60\t\t\twD\n      DUP5 \t\t\tldAdmin, \n      DUP7 \t\t\tChanged\n      SUB \t\t\tdminChanged(oldAdmin, _\n      SLT \t\t\tultAdminChanged(oldAdmin, _new...\n      ISZERO \t\t\tefaultAdminChanged(oldAdmin, _...\n      PUSH [tag] 645\t\t\tefaultAdminChanged(oldAdmin, _...\n      JUMPI \t\t\tefaultAdminChanged(oldAdmin, _...\n      PUSH [tag] 646\t\t\tltAdmin);\\n    }\\n\\n    // Fun...\n      PUSH [tag] 411\t\t\tltAdmin);\\n    }\\n\\n    // Fun...\n      JUMP \t\t\tltAdmin);\\n    }\\n\\n    // Fun...\n    tag 646\t\t\tltAdmin);\\n    }\\n\\n    // Fun...\n      JUMPDEST \t\t\tltAdmin);\\n    }\\n\\n    // Fun...\n    tag 645\t\t\tefaultAdminChanged(oldAdmin, _...\n      JUMPDEST \t\t\tefaultAdminChanged(oldAdmin, _...\n      PUSH 0\t\t\ty\n      PUSH [tag] 647\t\t\ts;\\n    }\\n\\n    // Check if a...\n      DUP7 \t\t\ts in lp\n      DUP3 \t\t\tess ex\n      DUP8 \t\t\t an LP ad\n      ADD \t\t\tk if an LP address exi\n      PUSH [tag] 419\t\t\ts;\\n    }\\n\\n    // Check if a...\n      JUMP \t\t\ts;\\n    }\\n\\n    // Check if a...\n    tag 647\t\t\ts;\\n    }\\n\\n    // Check if a...\n      JUMPDEST \t\t\ts;\\n    }\\n\\n    // Check if a...\n      SWAP4 \t\t\tturn admins;\\n    }\\n\\n    // ...\n      POP \t\t\tturn admins;\\n    }\\n\\n    // ...\n      POP \t\t\tview returns (address[] memory...\n      PUSH 20\t\t\tet\n      PUSH [tag] 648\t\t\tturn lpData[_lp].commitmentAmo...\n      DUP7 \t\t\t\\n    //\n      DUP3 \t\t\t0;\\n   \n      DUP8 \t\t\tntAmount \n      ADD \t\t\titmentAmount > 0;\\n    \n      PUSH [tag] 415\t\t\tturn lpData[_lp].commitmentAmo...\n      JUMP \t\t\tturn lpData[_lp].commitmentAmo...\n    tag 648\t\t\tturn lpData[_lp].commitmentAmo...\n      JUMPDEST \t\t\tturn lpData[_lp].commitmentAmo...\n      SWAP3 \t\t\t        return lpData[_lp].com...\n      POP \t\t\t        return lpData[_lp].com...\n      POP \t\t\tP(address _lp) private view re...\n      PUSH 40\t\t\te(\n      PUSH [tag] 649\t\t\t       _pause();\\n    }\\n\\n   ...\n      DUP7 \t\t\tntract \n      DUP3 \t\t\tse the\n      DUP8 \t\t\t   // Unp\n      ADD \t\t\t}\\n\\n    // Unpause the \n      PUSH [tag] 415\t\t\t       _pause();\\n    }\\n\\n   ...\n      JUMP \t\t\t       _pause();\\n    }\\n\\n   ...\n    tag 649\t\t\t       _pause();\\n    }\\n\\n   ...\n      JUMPDEST \t\t\t       _pause();\\n    }\\n\\n   ...\n      SWAP2 \t\t\tyAdmin {\\n        _pause();\\n ...\n      POP \t\t\tyAdmin {\\n        _pause();\\n ...\n      POP \t\t\tAdmin only)\\n    function paus...\n      SWAP3 \t\t\t = defaultAdmin;\\n        addA...\n      POP \t\t\t = defaultAdmin;\\n        addA...\n      SWAP3 \t\t\t = defaultAdmin;\\n        addA...\n      POP \t\t\t = defaultAdmin;\\n        addA...\n      SWAP3 \t\t\t = defaultAdmin;\\n        addA...\n      JUMP \t\t\t = defaultAdmin;\\n        addA...\n    tag 443\t\t\tn unpause() external onlyAdmin...\n      JUMPDEST \t\t\tn unpause() external onlyAdmin...\n      PUSH 0\t\t\tontrac\n      DUP2 \t\t\twithd\n      MLOAD \t\t\tction withdr\n      SWAP1 \t\t\ty)\\n    function withdr\n      POP \t\t\ty)\\n    function withdr\n      SWAP2 \t\t\tn unpause() external onlyAdmin...\n      SWAP1 \t\t\tn unpause() external onlyAdmin...\n      POP \t\t\tn unpause() external onlyAdmin...\n      JUMP \t\t\tn unpause() external onlyAdmin...\n    tag 444\t\t\tmount, address _to) external o...\n      JUMPDEST \t\t\tmount, address _to) external o...\n      PUSH 0\t\t\te in contra\n      DUP3 \t\t\tto).tr\n      DUP3 \t\t\tble\n      MSTORE \t\t\t   payable(_to).tra\n      PUSH 20\t\t\tdraw\n      DUP3 \t\t\t Wi\n      ADD \t\t\temit Withdrawa\n      SWAP1 \t\t\tount);\\n        emit Withdrawa\n      POP \t\t\tount);\\n        emit Withdrawa\n      SWAP3 \t\t\tmount, address _to) external o...\n      SWAP2 \t\t\tmount, address _to) external o...\n      POP \t\t\tmount, address _to) external o...\n      POP \t\t\tmount, address _to) external o...\n      JUMP \t\t\tmount, address _to) external o...\n    tag 445\t\t\tnt);\\n    }\\n\\n    // Fallback...\n      JUMPDEST \t\t\tnt);\\n    }\\n\\n    // Fallback...\n      PUSH 0\t\t\tPaus\n      DUP2 \t\t\t\n      SWAP1 \t\t\t\n      POP \t\t\t\n      PUSH 20\t\t\t\n      DUP3 \t\t\t\n      ADD \t\t\t\n      SWAP1 \t\t\t\n      POP \t\t\t\n      SWAP2 \t\t\tnt);\\n    }\\n\\n    // Fallback...\n      SWAP1 \t\t\tnt);\\n    }\\n\\n    // Fallback...\n      POP \t\t\tnt);\\n    }\\n\\n    // Fallback...\n      JUMP \t\t\tnt);\\n    }\\n\\n    // Fallback...\n    tag 446\t\t\t\n      JUMPDEST \t\t\t\n      PUSH [tag] 654\t\t\t\n      DUP2 \t\t\t\n      PUSH [tag] 413\t\t\t\n      JUMP \t\t\t\n    tag 654\t\t\t\n      JUMPDEST \t\t\t\n      DUP3 \t\t\t\n      MSTORE \t\t\t\n      POP \t\t\t\n      POP \t\t\t\n      JUMP \t\t\t\n    tag 447\t\t\t\n      JUMPDEST \t\t\t\n      PUSH [tag] 656\t\t\t\n      DUP2 \t\t\t\n      PUSH [tag] 421\t\t\t\n      JUMP \t\t\t\n    tag 656\t\t\t\n      JUMPDEST \t\t\t\n      DUP3 \t\t\t\n      MSTORE \t\t\t\n      POP \t\t\t\n      POP \t\t\t\n      JUMP \t\t\t\n    tag 448\t\t\t\n      JUMPDEST \t\t\t\n      PUSH 80\t\t\t\n      DUP3 \t\t\t\n      ADD \t\t\t\n      PUSH 0\t\t\t\n      DUP3 \t\t\t\n      ADD \t\t\t\n      MLOAD \t\t\t\n      PUSH [tag] 658\t\t\t\n      PUSH 0\t\t\t\n      DUP6 \t\t\t\n      ADD \t\t\t\n      DUP3 \t\t\t\n      PUSH [tag] 446\t\t\t\n      JUMP \t\t\t\n    tag 658\t\t\t\n      JUMPDEST \t\t\t\n      POP \t\t\t\n      PUSH 20\t\t\t\n      DUP3 \t\t\t\n      ADD \t\t\t\n      MLOAD \t\t\t\n      PUSH [tag] 659\t\t\t\n      PUSH 20\t\t\t\n      DUP6 \t\t\t\n      ADD \t\t\t\n      DUP3 \t\t\t\n      PUSH [tag] 446\t\t\t\n      JUMP \t\t\t\n    tag 659\t\t\t\n      JUMPDEST \t\t\t\n      POP \t\t\t\n      PUSH 40\t\t\t\n      DUP3 \t\t\t\n      ADD \t\t\t\n      MLOAD \t\t\t\n      PUSH [tag] 660\t\t\t\n      PUSH 40\t\t\t\n      DUP6 \t\t\t\n      ADD \t\t\t\n      DUP3 \t\t\t\n      PUSH [tag] 446\t\t\t\n      JUMP \t\t\t\n    tag 660\t\t\t\n      JUMPDEST \t\t\t\n      POP \t\t\t\n      PUSH 60\t\t\t\n      DUP3 \t\t\t\n      ADD \t\t\t\n      MLOAD \t\t\t\n      PUSH [tag] 661\t\t\t\n      PUSH 60\t\t\t\n      DUP6 \t\t\t\n      ADD \t\t\t\n      DUP3 \t\t\t\n      PUSH [tag] 447\t\t\t\n      JUMP \t\t\t\n    tag 661\t\t\t\n      JUMPDEST \t\t\t\n      POP \t\t\t\n      POP \t\t\t\n      POP \t\t\t\n      POP \t\t\t\n      JUMP \t\t\t\n    tag 449\t\t\t\n      JUMPDEST \t\t\t\n      PUSH 0\t\t\t\n      PUSH [tag] 663\t\t\t\n      DUP4 \t\t\t\n      DUP4 \t\t\t\n      PUSH [tag] 448\t\t\t\n      JUMP \t\t\t\n    tag 663\t\t\t\n      JUMPDEST \t\t\t\n      PUSH 80\t\t\t\n      DUP4 \t\t\t\n      ADD \t\t\t\n      SWAP1 \t\t\t\n      POP \t\t\t\n      SWAP3 \t\t\t\n      SWAP2 \t\t\t\n      POP \t\t\t\n      POP \t\t\t\n      JUMP \t\t\t\n    tag 450\t\t\t\n      JUMPDEST \t\t\t\n      PUSH 0\t\t\t\n      PUSH 20\t\t\t\n      DUP3 \t\t\t\n      ADD \t\t\t\n      SWAP1 \t\t\t\n      POP \t\t\t\n      SWAP2 \t\t\t\n      SWAP1 \t\t\t\n      POP \t\t\t\n      JUMP \t\t\t\n    tag 451\t\t\t\n      JUMPDEST \t\t\t\n      PUSH 0\t\t\t\n      PUSH [tag] 666\t\t\t\n      DUP3 \t\t\t\n      PUSH [tag] 443\t\t\t\n      JUMP \t\t\t\n    tag 666\t\t\t\n      JUMPDEST \t\t\t\n      PUSH [tag] 667\t\t\t\n      DUP2 \t\t\t\n      DUP6 \t\t\t\n      PUSH [tag] 444\t\t\t\n      JUMP \t\t\t\n    tag 667\t\t\t\n      JUMPDEST \t\t\t\n      SWAP4 \t\t\t\n      POP \t\t\t\n      PUSH [tag] 668\t\t\t\n      DUP4 \t\t\t\n      PUSH [tag] 445\t\t\t\n      JUMP \t\t\t\n    tag 668\t\t\t\n      JUMPDEST \t\t\t\n      DUP1 \t\t\t\n      PUSH 0\t\t\t\n    tag 669\t\t\t\n      JUMPDEST \t\t\t\n      DUP4 \t\t\t\n      DUP2 \t\t\t\n      LT \t\t\t\n      ISZERO \t\t\t\n      PUSH [tag] 671\t\t\t\n      JUMPI \t\t\t\n      DUP2 \t\t\t\n      MLOAD \t\t\t\n      PUSH [tag] 672\t\t\t\n      DUP9 \t\t\t\n      DUP3 \t\t\t\n      PUSH [tag] 449\t\t\t\n      JUMP \t\t\t\n    tag 672\t\t\t\n      JUMPDEST \t\t\t\n      SWAP8 \t\t\t\n      POP \t\t\t\n      PUSH [tag] 673\t\t\t\n      DUP4 \t\t\t\n      PUSH [tag] 450\t\t\t\n      JUMP \t\t\t\n    tag 673\t\t\t\n      JUMPDEST \t\t\t\n      SWAP3 \t\t\t\n      POP \t\t\t\n      POP \t\t\t\n      PUSH 1\t\t\t\n      DUP2 \t\t\t\n      ADD \t\t\t\n      SWAP1 \t\t\t\n      POP \t\t\t\n      PUSH [tag] 669\t\t\t\n      JUMP \t\t\t\n    tag 671\t\t\t\n      JUMPDEST \t\t\t\n      POP \t\t\t\n      DUP6 \t\t\t\n      SWAP4 \t\t\t\n      POP \t\t\t\n      POP \t\t\t\n      POP \t\t\t\n      POP \t\t\t\n      SWAP3 \t\t\t\n      SWAP2 \t\t\t\n      POP \t\t\t\n      POP \t\t\t\n      JUMP \t\t\t\n    tag 113\t\t\t\n      JUMPDEST \t\t\t\n      PUSH 0\t\t\t\n      PUSH 20\t\t\t\n      DUP3 \t\t\t\n      ADD \t\t\t\n      SWAP1 \t\t\t\n      POP \t\t\t\n      DUP2 \t\t\t\n      DUP2 \t\t\t\n      SUB \t\t\t\n      PUSH 0\t\t\t\n      DUP4 \t\t\t\n      ADD \t\t\t\n      MSTORE \t\t\t\n      PUSH [tag] 675\t\t\t\n      DUP2 \t\t\t\n      DUP5 \t\t\t\n      PUSH [tag] 451\t\t\t\n      JUMP \t\t\t\n    tag 675\t\t\t\n      JUMPDEST \t\t\t\n      SWAP1 \t\t\t\n      POP \t\t\t\n      SWAP3 \t\t\t\n      SWAP2 \t\t\t\n      POP \t\t\t\n      POP \t\t\t\n      JUMP \t\t\t\n    tag 452\t\t\t\n      JUMPDEST \t\t\t\n      PUSH 0\t\t\t\n      DUP2 \t\t\t\n      MLOAD \t\t\t\n      SWAP1 \t\t\t\n      POP \t\t\t\n      SWAP2 \t\t\t\n      SWAP1 \t\t\t\n      POP \t\t\t\n      JUMP \t\t\t\n    tag 453\t\t\t\n      JUMPDEST \t\t\t\n      PUSH 0\t\t\t\n      DUP3 \t\t\t\n      DUP3 \t\t\t\n      MSTORE \t\t\t\n      PUSH 20\t\t\t\n      DUP3 \t\t\t\n      ADD \t\t\t\n      SWAP1 \t\t\t\n      POP \t\t\t\n      SWAP3 \t\t\t\n      SWAP2 \t\t\t\n      POP \t\t\t\n      POP \t\t\t\n      JUMP \t\t\t\n    tag 454\t\t\t\n      JUMPDEST \t\t\t\n      DUP3 \t\t\t\n      DUP2 \t\t\t\n      DUP4 \t\t\t\n      MCOPY \t\t\t\n      PUSH 0\t\t\t\n      DUP4 \t\t\t\n      DUP4 \t\t\t\n      ADD \t\t\t\n      MSTORE \t\t\t\n      POP \t\t\t\n      POP \t\t\t\n      POP \t\t\t\n      JUMP \t\t\t\n    tag 455\t\t\t\n      JUMPDEST \t\t\t\n      PUSH 0\t\t\t\n      PUSH [tag] 680\t\t\t\n      DUP3 \t\t\t\n      PUSH [tag] 452\t\t\t\n      JUMP \t\t\t\n    tag 680\t\t\t\n      JUMPDEST \t\t\t\n      PUSH [tag] 681\t\t\t\n      DUP2 \t\t\t\n      DUP6 \t\t\t\n      PUSH [tag] 453\t\t\t\n      JUMP \t\t\t\n    tag 681\t\t\t\n      JUMPDEST \t\t\t\n      SWAP4 \t\t\t\n      POP \t\t\t\n      PUSH [tag] 682\t\t\t\n      DUP2 \t\t\t\n      DUP6 \t\t\t\n      PUSH 20\t\t\t\n      DUP7 \t\t\t\n      ADD \t\t\t\n      PUSH [tag] 454\t\t\t\n      JUMP \t\t\t\n    tag 682\t\t\t\n      JUMPDEST \t\t\t\n      PUSH [tag] 683\t\t\t\n      DUP2 \t\t\t\n      PUSH [tag] 425\t\t\t\n      JUMP \t\t\t\n    tag 683\t\t\t\n      JUMPDEST \t\t\t\n      DUP5 \t\t\t\n      ADD \t\t\t\n      SWAP2 \t\t\t\n      POP \t\t\t\n      POP \t\t\t\n      SWAP3 \t\t\t\n      SWAP2 \t\t\t\n      POP \t\t\t\n      POP \t\t\t\n      JUMP \t\t\t\n    tag 119\t\t\t\n      JUMPDEST \t\t\t\n      PUSH 0\t\t\t\n      PUSH 80\t\t\t\n      DUP3 \t\t\t\n      ADD \t\t\t\n      SWAP1 \t\t\t\n      POP \t\t\t\n      DUP2 \t\t\t\n      DUP2 \t\t\t\n      SUB \t\t\t\n      PUSH 0\t\t\t\n      DUP4 \t\t\t\n      ADD \t\t\t\n      MSTORE \t\t\t\n      PUSH [tag] 685\t\t\t\n      DUP2 \t\t\t\n      DUP8 \t\t\t\n      PUSH [tag] 455\t\t\t\n      JUMP \t\t\t\n    tag 685\t\t\t\n      JUMPDEST \t\t\t\n      SWAP1 \t\t\t\n      POP \t\t\t\n      PUSH [tag] 686\t\t\t\n      PUSH 20\t\t\t\n      DUP4 \t\t\t\n      ADD \t\t\t\n      DUP7 \t\t\t\n      PUSH [tag] 442\t\t\t\n      JUMP \t\t\t\n    tag 686\t\t\t\n      JUMPDEST \t\t\t\n      PUSH [tag] 687\t\t\t\n      PUSH 40\t\t\t\n      DUP4 \t\t\t\n      ADD \t\t\t\n      DUP6 \t\t\t\n      PUSH [tag] 442\t\t\t\n      JUMP \t\t\t\n    tag 687\t\t\t\n      JUMPDEST \t\t\t\n      PUSH [tag] 688\t\t\t\n      PUSH 60\t\t\t\n      DUP4 \t\t\t\n      ADD \t\t\t\n      DUP5 \t\t\t\n      PUSH [tag] 442\t\t\t\n      JUMP \t\t\t\n    tag 688\t\t\t\n      JUMPDEST \t\t\t\n      SWAP6 \t\t\t\n      SWAP5 \t\t\t\n      POP \t\t\t\n      POP \t\t\t\n      POP \t\t\t\n      POP \t\t\t\n      POP \t\t\t\n      JUMP \t\t\t\n    tag 123\t\t\t\n      JUMPDEST \t\t\t\n      PUSH 0\t\t\t\n      PUSH 0\t\t\t\n      PUSH 40\t\t\t\n      DUP4 \t\t\t\n      DUP6 \t\t\t\n      SUB \t\t\t\n      SLT \t\t\t\n      ISZERO \t\t\t\n      PUSH [tag] 690\t\t\t\n      JUMPI \t\t\t\n      PUSH [tag] 691\t\t\t\n      PUSH [tag] 411\t\t\t\n      JUMP \t\t\t\n    tag 691\t\t\t\n      JUMPDEST \t\t\t\n    tag 690\t\t\t\n      JUMPDEST \t\t\t\n      PUSH 0\t\t\t\n      PUSH [tag] 692\t\t\t\n      DUP6 \t\t\t\n      DUP3 \t\t\t\n      DUP7 \t\t\t\n      ADD \t\t\t\n      PUSH [tag] 419\t\t\t\n      JUMP \t\t\t\n    tag 692\t\t\t\n      JUMPDEST \t\t\t\n      SWAP3 \t\t\t\n      POP \t\t\t\n      POP \t\t\t\n      PUSH 20\t\t\t\n      PUSH [tag] 693\t\t\t\n      DUP6 \t\t\t\n      DUP3 \t\t\t\n      DUP7 \t\t\t\n      ADD \t\t\t\n      PUSH [tag] 415\t\t\t\n      JUMP \t\t\t\n    tag 693\t\t\t\n      JUMPDEST \t\t\t\n      SWAP2 \t\t\t\n      POP \t\t\t\n      POP \t\t\t\n      SWAP3 \t\t\t\n      POP \t\t\t\n      SWAP3 \t\t\t\n      SWAP1 \t\t\t\n      POP \t\t\t\n      JUMP \t\t\t\n    tag 130\t\t\t\n      JUMPDEST \t\t\t\n      PUSH 0\t\t\t\n      PUSH 80\t\t\t\n      DUP3 \t\t\t\n      ADD \t\t\t\n      SWAP1 \t\t\t\n      POP \t\t\t\n      PUSH [tag] 695\t\t\t\n      PUSH 0\t\t\t\n      DUP4 \t\t\t\n      ADD \t\t\t\n      DUP8 \t\t\t\n      PUSH [tag] 442\t\t\t\n      JUMP \t\t\t\n    tag 695\t\t\t\n      JUMPDEST \t\t\t\n      PUSH [tag] 696\t\t\t\n      PUSH 20\t\t\t\n      DUP4 \t\t\t\n      ADD \t\t\t\n      DUP7 \t\t\t\n      PUSH [tag] 442\t\t\t\n      JUMP \t\t\t\n    tag 696\t\t\t\n      JUMPDEST \t\t\t\n      PUSH [tag] 697\t\t\t\n      PUSH 40\t\t\t\n      DUP4 \t\t\t\n      ADD \t\t\t\n      DUP6 \t\t\t\n      PUSH [tag] 442\t\t\t\n      JUMP \t\t\t\n    tag 697\t\t\t\n      JUMPDEST \t\t\t\n      PUSH [tag] 698\t\t\t\n      PUSH 60\t\t\t\n      DUP4 \t\t\t\n      ADD \t\t\t\n      DUP5 \t\t\t\n      PUSH [tag] 422\t\t\t\n      JUMP \t\t\t\n    tag 698\t\t\t\n      JUMPDEST \t\t\t\n      SWAP6 \t\t\t\n      SWAP5 \t\t\t\n      POP \t\t\t\n      POP \t\t\t\n      POP \t\t\t\n      POP \t\t\t\n      POP \t\t\t\n      JUMP \t\t\t\n    tag 456\t\t\t\n      JUMPDEST \t\t\t\n      PUSH 5061757361626C653A2070617573656400000000000000000000000000000000\t\t\t\n      PUSH 0\t\t\t\n      DUP3 \t\t\t\n      ADD \t\t\t\n      MSTORE \t\t\t\n      POP \t\t\t\n      JUMP \t\t\t\n    tag 457\t\t\t\n      JUMPDEST \t\t\t\n      PUSH 0\t\t\t\n      PUSH [tag] 701\t\t\t\n      PUSH 10\t\t\t\n      DUP4 \t\t\t\n      PUSH [tag] 453\t\t\t\n      JUMP \t\t\t\n    tag 701\t\t\t\n      JUMPDEST \t\t\t\n      SWAP2 \t\t\t\n      POP \t\t\t\n      PUSH [tag] 702\t\t\t\n      DUP3 \t\t\t\n      PUSH [tag] 456\t\t\t\n      JUMP \t\t\t\n    tag 702\t\t\t\n      JUMPDEST \t\t\t\n      PUSH 20\t\t\t\n      DUP3 \t\t\t\n      ADD \t\t\t\n      SWAP1 \t\t\t\n      POP \t\t\t\n      SWAP2 \t\t\t\n      SWAP1 \t\t\t\n      POP \t\t\t\n      JUMP \t\t\t\n    tag 146\t\t\t\n      JUMPDEST \t\t\t\n      PUSH 0\t\t\t\n      PUSH 20\t\t\t\n      DUP3 \t\t\t\n      ADD \t\t\t\n      SWAP1 \t\t\t\n      POP \t\t\t\n      DUP2 \t\t\t\n      DUP2 \t\t\t\n      SUB \t\t\t\n      PUSH 0\t\t\t\n      DUP4 \t\t\t\n      ADD \t\t\t\n      MSTORE \t\t\t\n      PUSH [tag] 704\t\t\t\n      DUP2 \t\t\t\n      PUSH [tag] 457\t\t\t\n      JUMP \t\t\t\n    tag 704\t\t\t\n      JUMPDEST \t\t\t\n      SWAP1 \t\t\t\n      POP \t\t\t\n      SWAP2 \t\t\t\n      SWAP1 \t\t\t\n      POP \t\t\t\n      JUMP \t\t\t\n    tag 458\t\t\t\n      JUMPDEST \t\t\t\n      PUSH 4E6F7420617574686F72697A65643A204F6E6C792061646D696E2063616E2070\t\t\t\n      PUSH 0\t\t\t\n      DUP3 \t\t\t\n      ADD \t\t\t\n      MSTORE \t\t\t\n      PUSH 6572666F726D207468697320616374696F6E0000000000000000000000000000\t\t\t\n      PUSH 20\t\t\t\n      DUP3 \t\t\t\n      ADD \t\t\t\n      MSTORE \t\t\t\n      POP \t\t\t\n      JUMP \t\t\t\n    tag 459\t\t\t\n      JUMPDEST \t\t\t\n      PUSH 0\t\t\t\n      PUSH [tag] 707\t\t\t\n      PUSH 32\t\t\t\n      DUP4 \t\t\t\n      PUSH [tag] 453\t\t\t\n      JUMP \t\t\t\n    tag 707\t\t\t\n      JUMPDEST \t\t\t\n      SWAP2 \t\t\t\n      POP \t\t\t\n      PUSH [tag] 708\t\t\t\n      DUP3 \t\t\t\n      PUSH [tag] 458\t\t\t\n      JUMP \t\t\t\n    tag 708\t\t\t\n      JUMPDEST \t\t\t\n      PUSH 40\t\t\t\n      DUP3 \t\t\t\n      ADD \t\t\t\n      SWAP1 \t\t\t\n      POP \t\t\t\n      SWAP2 \t\t\t\n      SWAP1 \t\t\t\n      POP \t\t\t\n      JUMP \t\t\t\n    tag 150\t\t\t\n      JUMPDEST \t\t\t\n      PUSH 0\t\t\t\n      PUSH 20\t\t\t\n      DUP3 \t\t\t\n      ADD \t\t\t\n      SWAP1 \t\t\t\n      POP \t\t\t\n      DUP2 \t\t\t\n      DUP2 \t\t\t\n      SUB \t\t\t\n      PUSH 0\t\t\t\n      DUP4 \t\t\t\n      ADD \t\t\t\n      MSTORE \t\t\t\n      PUSH [tag] 710\t\t\t\n      DUP2 \t\t\t\n      PUSH [tag] 459\t\t\t\n      JUMP \t\t\t\n    tag 710\t\t\t\n      JUMPDEST \t\t\t\n      SWAP1 \t\t\t\n      POP \t\t\t\n      SWAP2 \t\t\t\n      SWAP1 \t\t\t\n      POP \t\t\t\n      JUMP \t\t\t\n    tag 460\t\t\t\n      JUMPDEST \t\t\t\n      PUSH 496E73756666696369656E742062616C616E636520696E20636F6E7472616374\t\t\t\n      PUSH 0\t\t\t\n      DUP3 \t\t\t\n      ADD \t\t\t\n      MSTORE \t\t\t\n      POP \t\t\t\n      JUMP \t\t\t\n    tag 461\t\t\t\n      JUMPDEST \t\t\t\n      PUSH 0\t\t\t\n      PUSH [tag] 713\t\t\t\n      PUSH 20\t\t\t\n      DUP4 \t\t\t\n      PUSH [tag] 453\t\t\t\n      JUMP \t\t\t\n    tag 713\t\t\t\n      JUMPDEST \t\t\t\n      SWAP2 \t\t\t\n      POP \t\t\t\n      PUSH [tag] 714\t\t\t\n      DUP3 \t\t\t\n      PUSH [tag] 460\t\t\t\n      JUMP \t\t\t\n    tag 714\t\t\t\n      JUMPDEST \t\t\t\n      PUSH 20\t\t\t\n      DUP3 \t\t\t\n      ADD \t\t\t\n      SWAP1 \t\t\t\n      POP \t\t\t\n      SWAP2 \t\t\t\n      SWAP1 \t\t\t\n      POP \t\t\t\n      JUMP \t\t\t\n    tag 157\t\t\t\n      JUMPDEST \t\t\t\n      PUSH 0\t\t\t\n      PUSH 20\t\t\t\n      DUP3 \t\t\t\n      ADD \t\t\t\n      SWAP1 \t\t\t\n      POP \t\t\t\n      DUP2 \t\t\t\n      DUP2 \t\t\t\n      SUB \t\t\t\n      PUSH 0\t\t\t\n      DUP4 \t\t\t\n      ADD \t\t\t\n      MSTORE \t\t\t\n      PUSH [tag] 716\t\t\t\n      DUP2 \t\t\t\n      PUSH [tag] 461\t\t\t\n      JUMP \t\t\t\n    tag 716\t\t\t\n      JUMPDEST \t\t\t\n      SWAP1 \t\t\t\n      POP \t\t\t\n      SWAP2 \t\t\t\n      SWAP1 \t\t\t\n      POP \t\t\t\n      JUMP \t\t\t\n    tag 462\t\t\t\n      JUMPDEST \t\t\t\n      PUSH 4E6F7420617574686F72697A65643A204F6E6C792064656661756C742061646D\t\t\t\n      PUSH 0\t\t\t\n      DUP3 \t\t\t\n      ADD \t\t\t\n      MSTORE \t\t\t\n      PUSH 696E2063616E20706572666F726D207468697320616374696F6E000000000000\t\t\t\n      PUSH 20\t\t\t\n      DUP3 \t\t\t\n      ADD \t\t\t\n      MSTORE \t\t\t\n      POP \t\t\t\n      JUMP \t\t\t\n    tag 463\t\t\t\n      JUMPDEST \t\t\t\n      PUSH 0\t\t\t\n      PUSH [tag] 719\t\t\t\n      PUSH 3A\t\t\t\n      DUP4 \t\t\t\n      PUSH [tag] 453\t\t\t\n      JUMP \t\t\t\n    tag 719\t\t\t\n      JUMPDEST \t\t\t\n      SWAP2 \t\t\t\n      POP \t\t\t\n      PUSH [tag] 720\t\t\t\n      DUP3 \t\t\t\n      PUSH [tag] 462\t\t\t\n      JUMP \t\t\t\n    tag 720\t\t\t\n      JUMPDEST \t\t\t\n      PUSH 40\t\t\t\n      DUP3 \t\t\t\n      ADD \t\t\t\n      SWAP1 \t\t\t\n      POP \t\t\t\n      SWAP2 \t\t\t\n      SWAP1 \t\t\t\n      POP \t\t\t\n      JUMP \t\t\t\n    tag 168\t\t\t\n      JUMPDEST \t\t\t\n      PUSH 0\t\t\t\n      PUSH 20\t\t\t\n      DUP3 \t\t\t\n      ADD \t\t\t\n      SWAP1 \t\t\t\n      POP \t\t\t\n      DUP2 \t\t\t\n      DUP2 \t\t\t\n      SUB \t\t\t\n      PUSH 0\t\t\t\n      DUP4 \t\t\t\n      ADD \t\t\t\n      MSTORE \t\t\t\n      PUSH [tag] 722\t\t\t\n      DUP2 \t\t\t\n      PUSH [tag] 463\t\t\t\n      JUMP \t\t\t\n    tag 722\t\t\t\n      JUMPDEST \t\t\t\n      SWAP1 \t\t\t\n      POP \t\t\t\n      SWAP2 \t\t\t\n      SWAP1 \t\t\t\n      POP \t\t\t\n      JUMP \t\t\t\n    tag 464\t\t\t\n      JUMPDEST \t\t\t\n      PUSH 496E76616C6964206164647265737320666F72206E65772064656661756C7420\t\t\t\n      PUSH 0\t\t\t\n      DUP3 \t\t\t\n      ADD \t\t\t\n      MSTORE \t\t\t\n      PUSH 61646D696E000000000000000000000000000000000000000000000000000000\t\t\t\n      PUSH 20\t\t\t\n      DUP3 \t\t\t\n      ADD \t\t\t\n      MSTORE \t\t\t\n      POP \t\t\t\n      JUMP \t\t\t\n    tag 465\t\t\t\n      JUMPDEST \t\t\t\n      PUSH 0\t\t\t\n      PUSH [tag] 725\t\t\t\n      PUSH 25\t\t\t\n      DUP4 \t\t\t\n      PUSH [tag] 453\t\t\t\n      JUMP \t\t\t\n    tag 725\t\t\t\n      JUMPDEST \t\t\t\n      SWAP2 \t\t\t\n      POP \t\t\t\n      PUSH [tag] 726\t\t\t\n      DUP3 \t\t\t\n      PUSH [tag] 464\t\t\t\n      JUMP \t\t\t\n    tag 726\t\t\t\n      JUMPDEST \t\t\t\n      PUSH 40\t\t\t\n      DUP3 \t\t\t\n      ADD \t\t\t\n      SWAP1 \t\t\t\n      POP \t\t\t\n      SWAP2 \t\t\t\n      SWAP1 \t\t\t\n      POP \t\t\t\n      JUMP \t\t\t\n    tag 172\t\t\t\n      JUMPDEST \t\t\t\n      PUSH 0\t\t\t\n      PUSH 20\t\t\t\n      DUP3 \t\t\t\n      ADD \t\t\t\n      SWAP1 \t\t\t\n      POP \t\t\t\n      DUP2 \t\t\t\n      DUP2 \t\t\t\n      SUB \t\t\t\n      PUSH 0\t\t\t\n      DUP4 \t\t\t\n      ADD \t\t\t\n      MSTORE \t\t\t\n      PUSH [tag] 728\t\t\t\n      DUP2 \t\t\t\n      PUSH [tag] 465\t\t\t\n      JUMP \t\t\t\n    tag 728\t\t\t\n      JUMPDEST \t\t\t\n      SWAP1 \t\t\t\n      POP \t\t\t\n      SWAP2 \t\t\t\n      SWAP1 \t\t\t\n      POP \t\t\t\n      JUMP \t\t\t\n    tag 466\t\t\t\n      JUMPDEST \t\t\t\n      PUSH 4D696E696D756D20636F6D6D69746D656E7420616D6F756E74206D7573742062\t\t\t\n      PUSH 0\t\t\t\n      DUP3 \t\t\t\n      ADD \t\t\t\n      MSTORE \t\t\t\n      PUSH 652067726561746572207468616E207A65726F00000000000000000000000000\t\t\t\n      PUSH 20\t\t\t\n      DUP3 \t\t\t\n      ADD \t\t\t\n      MSTORE \t\t\t\n      POP \t\t\t\n      JUMP \t\t\t\n    tag 467\t\t\t\n      JUMPDEST \t\t\t\n      PUSH 0\t\t\t\n      PUSH [tag] 731\t\t\t\n      PUSH 33\t\t\t\n      DUP4 \t\t\t\n      PUSH [tag] 453\t\t\t\n      JUMP \t\t\t\n    tag 731\t\t\t\n      JUMPDEST \t\t\t\n      SWAP2 \t\t\t\n      POP \t\t\t\n      PUSH [tag] 732\t\t\t\n      DUP3 \t\t\t\n      PUSH [tag] 466\t\t\t\n      JUMP \t\t\t\n    tag 732\t\t\t\n      JUMPDEST \t\t\t\n      PUSH 40\t\t\t\n      DUP3 \t\t\t\n      ADD \t\t\t\n      SWAP1 \t\t\t\n      POP \t\t\t\n      SWAP2 \t\t\t\n      SWAP1 \t\t\t\n      POP \t\t\t\n      JUMP \t\t\t\n    tag 180\t\t\t\n      JUMPDEST \t\t\t\n      PUSH 0\t\t\t\n      PUSH 20\t\t\t\n      DUP3 \t\t\t\n      ADD \t\t\t\n      SWAP1 \t\t\t\n      POP \t\t\t\n      DUP2 \t\t\t\n      DUP2 \t\t\t\n      SUB \t\t\t\n      PUSH 0\t\t\t\n      DUP4 \t\t\t\n      ADD \t\t\t\n      MSTORE \t\t\t\n      PUSH [tag] 734\t\t\t\n      DUP2 \t\t\t\n      PUSH [tag] 467\t\t\t\n      JUMP \t\t\t\n    tag 734\t\t\t\n      JUMPDEST \t\t\t\n      SWAP1 \t\t\t\n      POP \t\t\t\n      SWAP2 \t\t\t\n      SWAP1 \t\t\t\n      POP \t\t\t\n      JUMP \t\t\t\n    tag 468\t\t\t\n      JUMPDEST \t\t\t\n      PUSH 4E6F7420616E2061646D696E0000000000000000000000000000000000000000\t\t\t\n      PUSH 0\t\t\t\n      DUP3 \t\t\t\n      ADD \t\t\t\n      MSTORE \t\t\t\n      POP \t\t\t\n      JUMP \t\t\t\n    tag 469\t\t\t\n      JUMPDEST \t\t\t\n      PUSH 0\t\t\t\n      PUSH [tag] 737\t\t\t\n      PUSH C\t\t\t\n      DUP4 \t\t\t\n      PUSH [tag] 453\t\t\t\n      JUMP \t\t\t\n    tag 737\t\t\t\n      JUMPDEST \t\t\t\n      SWAP2 \t\t\t\n      POP \t\t\t\n      PUSH [tag] 738\t\t\t\n      DUP3 \t\t\t\n      PUSH [tag] 468\t\t\t\n      JUMP \t\t\t\n    tag 738\t\t\t\n      JUMPDEST \t\t\t\n      PUSH 20\t\t\t\n      DUP3 \t\t\t\n      ADD \t\t\t\n      SWAP1 \t\t\t\n      POP \t\t\t\n      SWAP2 \t\t\t\n      SWAP1 \t\t\t\n      POP \t\t\t\n      JUMP \t\t\t\n    tag 187\t\t\t\n      JUMPDEST \t\t\t\n      PUSH 0\t\t\t\n      PUSH 20\t\t\t\n      DUP3 \t\t\t\n      ADD \t\t\t\n      SWAP1 \t\t\t\n      POP \t\t\t\n      DUP2 \t\t\t\n      DUP2 \t\t\t\n      SUB \t\t\t\n      PUSH 0\t\t\t\n      DUP4 \t\t\t\n      ADD \t\t\t\n      MSTORE \t\t\t\n      PUSH [tag] 740\t\t\t\n      DUP2 \t\t\t\n      PUSH [tag] 469\t\t\t\n      JUMP \t\t\t\n    tag 740\t\t\t\n      JUMPDEST \t\t\t\n      SWAP1 \t\t\t\n      POP \t\t\t\n      SWAP2 \t\t\t\n      SWAP1 \t\t\t\n      POP \t\t\t\n      JUMP \t\t\t\n    tag 470\t\t\t\n      JUMPDEST \t\t\t\n      PUSH 43616E6E6F742072656D6F766520746865206C6173742061646D696E00000000\t\t\t\n      PUSH 0\t\t\t\n      DUP3 \t\t\t\n      ADD \t\t\t\n      MSTORE \t\t\t\n      POP \t\t\t\n      JUMP \t\t\t\n    tag 471\t\t\t\n      JUMPDEST \t\t\t\n      PUSH 0\t\t\t\n      PUSH [tag] 743\t\t\t\n      PUSH 1C\t\t\t\n      DUP4 \t\t\t\n      PUSH [tag] 453\t\t\t\n      JUMP \t\t\t\n    tag 743\t\t\t\n      JUMPDEST \t\t\t\n      SWAP2 \t\t\t\n      POP \t\t\t\n      PUSH [tag] 744\t\t\t\n      DUP3 \t\t\t\n      PUSH [tag] 470\t\t\t\n      JUMP \t\t\t\n    tag 744\t\t\t\n      JUMPDEST \t\t\t\n      PUSH 20\t\t\t\n      DUP3 \t\t\t\n      ADD \t\t\t\n      SWAP1 \t\t\t\n      POP \t\t\t\n      SWAP2 \t\t\t\n      SWAP1 \t\t\t\n      POP \t\t\t\n      JUMP \t\t\t\n    tag 190\t\t\t\n      JUMPDEST \t\t\t\n      PUSH 0\t\t\t\n      PUSH 20\t\t\t\n      DUP3 \t\t\t\n      ADD \t\t\t\n      SWAP1 \t\t\t\n      POP \t\t\t\n      DUP2 \t\t\t\n      DUP2 \t\t\t\n      SUB \t\t\t\n      PUSH 0\t\t\t\n      DUP4 \t\t\t\n      ADD \t\t\t\n      MSTORE \t\t\t\n      PUSH [tag] 746\t\t\t\n      DUP2 \t\t\t\n      PUSH [tag] 471\t\t\t\n      JUMP \t\t\t\n    tag 746\t\t\t\n      JUMPDEST \t\t\t\n      SWAP1 \t\t\t\n      POP \t\t\t\n      SWAP2 \t\t\t\n      SWAP1 \t\t\t\n      POP \t\t\t\n      JUMP \t\t\t\n    tag 196\t\t\t\n      JUMPDEST \t\t\t\n      PUSH 4E487B7100000000000000000000000000000000000000000000000000000000\t\t\t\n      PUSH 0\t\t\t\n      MSTORE \t\t\t\n      PUSH 32\t\t\t\n      PUSH 4\t\t\t\n      MSTORE \t\t\t\n      PUSH 24\t\t\t\n      PUSH 0\t\t\t\n      REVERT \t\t\t\n    tag 472\t\t\t\n      JUMPDEST \t\t\t\n      PUSH 4E487B7100000000000000000000000000000000000000000000000000000000\t\t\t\n      PUSH 0\t\t\t\n      MSTORE \t\t\t\n      PUSH 11\t\t\t\n      PUSH 4\t\t\t\n      MSTORE \t\t\t\n      PUSH 24\t\t\t\n      PUSH 0\t\t\t\n      REVERT \t\t\t\n    tag 200\t\t\t\n      JUMPDEST \t\t\t\n      PUSH 0\t\t\t\n      PUSH [tag] 750\t\t\t\n      DUP3 \t\t\t\n      PUSH [tag] 413\t\t\t\n      JUMP \t\t\t\n    tag 750\t\t\t\n      JUMPDEST \t\t\t\n      SWAP2 \t\t\t\n      POP \t\t\t\n      PUSH [tag] 751\t\t\t\n      DUP4 \t\t\t\n      PUSH [tag] 413\t\t\t\n      JUMP \t\t\t\n    tag 751\t\t\t\n      JUMPDEST \t\t\t\n      SWAP3 \t\t\t\n      POP \t\t\t\n      DUP3 \t\t\t\n      DUP3 \t\t\t\n      SUB \t\t\t\n      SWAP1 \t\t\t\n      POP \t\t\t\n      DUP2 \t\t\t\n      DUP2 \t\t\t\n      GT \t\t\t\n      ISZERO \t\t\t\n      PUSH [tag] 752\t\t\t\n      JUMPI \t\t\t\n      PUSH [tag] 753\t\t\t\n      PUSH [tag] 472\t\t\t\n      JUMP \t\t\t\n    tag 753\t\t\t\n      JUMPDEST \t\t\t\n    tag 752\t\t\t\n      JUMPDEST \t\t\t\n      SWAP3 \t\t\t\n      SWAP2 \t\t\t\n      POP \t\t\t\n      POP \t\t\t\n      JUMP \t\t\t\n    tag 209\t\t\t\n      JUMPDEST \t\t\t\n      PUSH 4E487B7100000000000000000000000000000000000000000000000000000000\t\t\t\n      PUSH 0\t\t\t\n      MSTORE \t\t\t\n      PUSH 31\t\t\t\n      PUSH 4\t\t\t\n      MSTORE \t\t\t\n      PUSH 24\t\t\t\n      PUSH 0\t\t\t\n      REVERT \t\t\t\n    tag 473\t\t\t\n      JUMPDEST \t\t\t\n      PUSH 496E76616C6964204C5020616464726573730000000000000000000000000000\t\t\t\n      PUSH 0\t\t\t\n      DUP3 \t\t\t\n      ADD \t\t\t\n      MSTORE \t\t\t\n      POP \t\t\t\n      JUMP \t\t\t\n    tag 474\t\t\t\n      JUMPDEST \t\t\t\n      PUSH 0\t\t\t\n      PUSH [tag] 757\t\t\t\n      PUSH 12\t\t\t\n      DUP4 \t\t\t\n      PUSH [tag] 453\t\t\t\n      JUMP \t\t\t\n    tag 757\t\t\t\n      JUMPDEST \t\t\t\n      SWAP2 \t\t\t\n      POP \t\t\t\n      PUSH [tag] 758\t\t\t\n      DUP3 \t\t\t\n      PUSH [tag] 473\t\t\t\n      JUMP \t\t\t\n    tag 758\t\t\t\n      JUMPDEST \t\t\t\n      PUSH 20\t\t\t\n      DUP3 \t\t\t\n      ADD \t\t\t\n      SWAP1 \t\t\t\n      POP \t\t\t\n      SWAP2 \t\t\t\n      SWAP1 \t\t\t\n      POP \t\t\t\n      JUMP \t\t\t\n    tag 219\t\t\t\n      JUMPDEST \t\t\t\n      PUSH 0\t\t\t\n      PUSH 20\t\t\t\n      DUP3 \t\t\t\n      ADD \t\t\t\n      SWAP1 \t\t\t\n      POP \t\t\t\n      DUP2 \t\t\t\n      DUP2 \t\t\t\n      SUB \t\t\t\n      PUSH 0\t\t\t\n      DUP4 \t\t\t\n      ADD \t\t\t\n      MSTORE \t\t\t\n      PUSH [tag] 760\t\t\t\n      DUP2 \t\t\t\n      PUSH [tag] 474\t\t\t\n      JUMP \t\t\t\n    tag 760\t\t\t\n      JUMPDEST \t\t\t\n      SWAP1 \t\t\t\n      POP \t\t\t\n      SWAP2 \t\t\t\n      SWAP1 \t\t\t\n      POP \t\t\t\n      JUMP \t\t\t\n    tag 475\t\t\t\n      JUMPDEST \t\t\t\n      PUSH 4C5020616C726561647920657869737473000000000000000000000000000000\t\t\t\n      PUSH 0\t\t\t\n      DUP3 \t\t\t\n      ADD \t\t\t\n      MSTORE \t\t\t\n      POP \t\t\t\n      JUMP \t\t\t\n    tag 476\t\t\t\n      JUMPDEST \t\t\t\n      PUSH 0\t\t\t\n      PUSH [tag] 763\t\t\t\n      PUSH 11\t\t\t\n      DUP4 \t\t\t\n      PUSH [tag] 453\t\t\t\n      JUMP \t\t\t\n    tag 763\t\t\t\n      JUMPDEST \t\t\t\n      SWAP2 \t\t\t\n      POP \t\t\t\n      PUSH [tag] 764\t\t\t\n      DUP3 \t\t\t\n      PUSH [tag] 475\t\t\t\n      JUMP \t\t\t\n    tag 764\t\t\t\n      JUMPDEST \t\t\t\n      PUSH 20\t\t\t\n      DUP3 \t\t\t\n      ADD \t\t\t\n      SWAP1 \t\t\t\n      POP \t\t\t\n      SWAP2 \t\t\t\n      SWAP1 \t\t\t\n      POP \t\t\t\n      JUMP \t\t\t\n    tag 224\t\t\t\n      JUMPDEST \t\t\t\n      PUSH 0\t\t\t\n      PUSH 20\t\t\t\n      DUP3 \t\t\t\n      ADD \t\t\t\n      SWAP1 \t\t\t\n      POP \t\t\t\n      DUP2 \t\t\t\n      DUP2 \t\t\t\n      SUB \t\t\t\n      PUSH 0\t\t\t\n      DUP4 \t\t\t\n      ADD \t\t\t\n      MSTORE \t\t\t\n      PUSH [tag] 766\t\t\t\n      DUP2 \t\t\t\n      PUSH [tag] 476\t\t\t\n      JUMP \t\t\t\n    tag 766\t\t\t\n      JUMPDEST \t\t\t\n      SWAP1 \t\t\t\n      POP \t\t\t\n      SWAP2 \t\t\t\n      SWAP1 \t\t\t\n      POP \t\t\t\n      JUMP \t\t\t\n    tag 477\t\t\t\n      JUMPDEST \t\t\t\n      PUSH 4E616D652063616E6E6F7420626520656D707479000000000000000000000000\t\t\t\n      PUSH 0\t\t\t\n      DUP3 \t\t\t\n      ADD \t\t\t\n      MSTORE \t\t\t\n      POP \t\t\t\n      JUMP \t\t\t\n    tag 478\t\t\t\n      JUMPDEST \t\t\t\n      PUSH 0\t\t\t\n      PUSH [tag] 769\t\t\t\n      PUSH 14\t\t\t\n      DUP4 \t\t\t\n      PUSH [tag] 453\t\t\t\n      JUMP \t\t\t\n    tag 769\t\t\t\n      JUMPDEST \t\t\t\n      SWAP2 \t\t\t\n      POP \t\t\t\n      PUSH [tag] 770\t\t\t\n      DUP3 \t\t\t\n      PUSH [tag] 477\t\t\t\n      JUMP \t\t\t\n    tag 770\t\t\t\n      JUMPDEST \t\t\t\n      PUSH 20\t\t\t\n      DUP3 \t\t\t\n      ADD \t\t\t\n      SWAP1 \t\t\t\n      POP \t\t\t\n      SWAP2 \t\t\t\n      SWAP1 \t\t\t\n      POP \t\t\t\n      JUMP \t\t\t\n    tag 227\t\t\t\n      JUMPDEST \t\t\t\n      PUSH 0\t\t\t\n      PUSH 20\t\t\t\n      DUP3 \t\t\t\n      ADD \t\t\t\n      SWAP1 \t\t\t\n      POP \t\t\t\n      DUP2 \t\t\t\n      DUP2 \t\t\t\n      SUB \t\t\t\n      PUSH 0\t\t\t\n      DUP4 \t\t\t\n      ADD \t\t\t\n      MSTORE \t\t\t\n      PUSH [tag] 772\t\t\t\n      DUP2 \t\t\t\n      PUSH [tag] 478\t\t\t\n      JUMP \t\t\t\n    tag 772\t\t\t\n      JUMPDEST \t\t\t\n      SWAP1 \t\t\t\n      POP \t\t\t\n      SWAP2 \t\t\t\n      SWAP1 \t\t\t\n      POP \t\t\t\n      JUMP \t\t\t\n    tag 229\t\t\t\n      JUMPDEST \t\t\t\n      PUSH 0\t\t\t\n      PUSH [tag] 774\t\t\t\n      DUP3 \t\t\t\n      PUSH [tag] 413\t\t\t\n      JUMP \t\t\t\n    tag 774\t\t\t\n      JUMPDEST \t\t\t\n      SWAP2 \t\t\t\n      POP \t\t\t\n      PUSH [tag] 775\t\t\t\n      DUP4 \t\t\t\n      PUSH [tag] 413\t\t\t\n      JUMP \t\t\t\n    tag 775\t\t\t\n      JUMPDEST \t\t\t\n      SWAP3 \t\t\t\n      POP \t\t\t\n      DUP3 \t\t\t\n      DUP3 \t\t\t\n      MUL \t\t\t\n      PUSH [tag] 776\t\t\t\n      DUP2 \t\t\t\n      PUSH [tag] 413\t\t\t\n      JUMP \t\t\t\n    tag 776\t\t\t\n      JUMPDEST \t\t\t\n      SWAP2 \t\t\t\n      POP \t\t\t\n      DUP3 \t\t\t\n      DUP3 \t\t\t\n      DIV \t\t\t\n      DUP5 \t\t\t\n      EQ \t\t\t\n      DUP4 \t\t\t\n      ISZERO \t\t\t\n      OR \t\t\t\n      PUSH [tag] 777\t\t\t\n      JUMPI \t\t\t\n      PUSH [tag] 778\t\t\t\n      PUSH [tag] 472\t\t\t\n      JUMP \t\t\t\n    tag 778\t\t\t\n      JUMPDEST \t\t\t\n    tag 777\t\t\t\n      JUMPDEST \t\t\t\n      POP \t\t\t\n      SWAP3 \t\t\t\n      SWAP2 \t\t\t\n      POP \t\t\t\n      POP \t\t\t\n      JUMP \t\t\t\n    tag 479\t\t\t\n      JUMPDEST \t\t\t\n      PUSH 436F6D6D69746D656E7420616D6F756E74206D75737420626520677265617465\t\t\t\n      PUSH 0\t\t\t\n      DUP3 \t\t\t\n      ADD \t\t\t\n      MSTORE \t\t\t\n      PUSH 72207468616E206D696E696D756D20616D6F756E740000000000000000000000\t\t\t\n      PUSH 20\t\t\t\n      DUP3 \t\t\t\n      ADD \t\t\t\n      MSTORE \t\t\t\n      POP \t\t\t\n      JUMP \t\t\t\n    tag 480\t\t\t\n      JUMPDEST \t\t\t\n      PUSH 0\t\t\t\n      PUSH [tag] 781\t\t\t\n      PUSH 35\t\t\t\n      DUP4 \t\t\t\n      PUSH [tag] 453\t\t\t\n      JUMP \t\t\t\n    tag 781\t\t\t\n      JUMPDEST \t\t\t\n      SWAP2 \t\t\t\n      POP \t\t\t\n      PUSH [tag] 782\t\t\t\n      DUP3 \t\t\t\n      PUSH [tag] 479\t\t\t\n      JUMP \t\t\t\n    tag 782\t\t\t\n      JUMPDEST \t\t\t\n      PUSH 40\t\t\t\n      DUP3 \t\t\t\n      ADD \t\t\t\n      SWAP1 \t\t\t\n      POP \t\t\t\n      SWAP2 \t\t\t\n      SWAP1 \t\t\t\n      POP \t\t\t\n      JUMP \t\t\t\n    tag 234\t\t\t\n      JUMPDEST \t\t\t\n      PUSH 0\t\t\t\n      PUSH 20\t\t\t\n      DUP3 \t\t\t\n      ADD \t\t\t\n      SWAP1 \t\t\t\n      POP \t\t\t\n      DUP2 \t\t\t\n      DUP2 \t\t\t\n      SUB \t\t\t\n      PUSH 0\t\t\t\n      DUP4 \t\t\t\n      ADD \t\t\t\n      MSTORE \t\t\t\n      PUSH [tag] 784\t\t\t\n      DUP2 \t\t\t\n      PUSH [tag] 480\t\t\t\n      JUMP \t\t\t\n    tag 784\t\t\t\n      JUMPDEST \t\t\t\n      SWAP1 \t\t\t\n      POP \t\t\t\n      SWAP2 \t\t\t\n      SWAP1 \t\t\t\n      POP \t\t\t\n      JUMP \t\t\t\n    tag 481\t\t\t\n      JUMPDEST \t\t\t\n      PUSH 456E642054696D65206D757374206265206C61746572207468616E2074686520\t\t\t\n      PUSH 0\t\t\t\n      DUP3 \t\t\t\n      ADD \t\t\t\n      MSTORE \t\t\t\n      PUSH 63757272656E742074696D652E00000000000000000000000000000000000000\t\t\t\n      PUSH 20\t\t\t\n      DUP3 \t\t\t\n      ADD \t\t\t\n      MSTORE \t\t\t\n      POP \t\t\t\n      JUMP \t\t\t\n    tag 482\t\t\t\n      JUMPDEST \t\t\t\n      PUSH 0\t\t\t\n      PUSH [tag] 787\t\t\t\n      PUSH 2D\t\t\t\n      DUP4 \t\t\t\n      PUSH [tag] 453\t\t\t\n      JUMP \t\t\t\n    tag 787\t\t\t\n      JUMPDEST \t\t\t\n      SWAP2 \t\t\t\n      POP \t\t\t\n      PUSH [tag] 788\t\t\t\n      DUP3 \t\t\t\n      PUSH [tag] 481\t\t\t\n      JUMP \t\t\t\n    tag 788\t\t\t\n      JUMPDEST \t\t\t\n      PUSH 40\t\t\t\n      DUP3 \t\t\t\n      ADD \t\t\t\n      SWAP1 \t\t\t\n      POP \t\t\t\n      SWAP2 \t\t\t\n      SWAP1 \t\t\t\n      POP \t\t\t\n      JUMP \t\t\t\n    tag 237\t\t\t\n      JUMPDEST \t\t\t\n      PUSH 0\t\t\t\n      PUSH 20\t\t\t\n      DUP3 \t\t\t\n      ADD \t\t\t\n      SWAP1 \t\t\t\n      POP \t\t\t\n      DUP2 \t\t\t\n      DUP2 \t\t\t\n      SUB \t\t\t\n      PUSH 0\t\t\t\n      DUP4 \t\t\t\n      ADD \t\t\t\n      MSTORE \t\t\t\n      PUSH [tag] 790\t\t\t\n      DUP2 \t\t\t\n      PUSH [tag] 482\t\t\t\n      JUMP \t\t\t\n    tag 790\t\t\t\n      JUMPDEST \t\t\t\n      SWAP1 \t\t\t\n      POP \t\t\t\n      SWAP2 \t\t\t\n      SWAP1 \t\t\t\n      POP \t\t\t\n      JUMP \t\t\t\n    tag 483\t\t\t\n      JUMPDEST \t\t\t\n      PUSH 4E487B7100000000000000000000000000000000000000000000000000000000\t\t\t\n      PUSH 0\t\t\t\n      MSTORE \t\t\t\n      PUSH 22\t\t\t\n      PUSH 4\t\t\t\n      MSTORE \t\t\t\n      PUSH 24\t\t\t\n      PUSH 0\t\t\t\n      REVERT \t\t\t\n    tag 323\t\t\t\n      JUMPDEST \t\t\t\n      PUSH 0\t\t\t\n      PUSH 2\t\t\t\n      DUP3 \t\t\t\n      DIV \t\t\t\n      SWAP1 \t\t\t\n      POP \t\t\t\n      PUSH 1\t\t\t\n      DUP3 \t\t\t\n      AND \t\t\t\n      DUP1 \t\t\t\n      PUSH [tag] 793\t\t\t\n      JUMPI \t\t\t\n      PUSH 7F\t\t\t\n      DUP3 \t\t\t\n      AND \t\t\t\n      SWAP2 \t\t\t\n      POP \t\t\t\n    tag 793\t\t\t\n      JUMPDEST \t\t\t\n      PUSH 20\t\t\t\n      DUP3 \t\t\t\n      LT \t\t\t\n      DUP2 \t\t\t\n      SUB \t\t\t\n      PUSH [tag] 794\t\t\t\n      JUMPI \t\t\t\n      PUSH [tag] 795\t\t\t\n      PUSH [tag] 483\t\t\t\n      JUMP \t\t\t\n    tag 795\t\t\t\n      JUMPDEST \t\t\t\n    tag 794\t\t\t\n      JUMPDEST \t\t\t\n      POP \t\t\t\n      SWAP2 \t\t\t\n      SWAP1 \t\t\t\n      POP \t\t\t\n      JUMP \t\t\t\n    tag 484\t\t\t\n      JUMPDEST \t\t\t\n      PUSH 0\t\t\t\n      DUP2 \t\t\t\n      SWAP1 \t\t\t\n      POP \t\t\t\n      DUP2 \t\t\t\n      PUSH 0\t\t\t\n      MSTORE \t\t\t\n      PUSH 20\t\t\t\n      PUSH 0\t\t\t\n      KECCAK256 \t\t\t\n      SWAP1 \t\t\t\n      POP \t\t\t\n      SWAP2 \t\t\t\n      SWAP1 \t\t\t\n      POP \t\t\t\n      JUMP \t\t\t\n    tag 485\t\t\t\n      JUMPDEST \t\t\t\n      PUSH 0\t\t\t\n      PUSH 20\t\t\t\n      PUSH 1F\t\t\t\n      DUP4 \t\t\t\n      ADD \t\t\t\n      DIV \t\t\t\n      SWAP1 \t\t\t\n      POP \t\t\t\n      SWAP2 \t\t\t\n      SWAP1 \t\t\t\n      POP \t\t\t\n      JUMP \t\t\t\n    tag 486\t\t\t\n      JUMPDEST \t\t\t\n      PUSH 0\t\t\t\n      DUP3 \t\t\t\n      DUP3 \t\t\t\n      SHL \t\t\t\n      SWAP1 \t\t\t\n      POP \t\t\t\n      SWAP3 \t\t\t\n      SWAP2 \t\t\t\n      POP \t\t\t\n      POP \t\t\t\n      JUMP \t\t\t\n    tag 487\t\t\t\n      JUMPDEST \t\t\t\n      PUSH 0\t\t\t\n      PUSH 8\t\t\t\n      DUP4 \t\t\t\n      MUL \t\t\t\n      PUSH [tag] 800\t\t\t\n      PUSH FFFFFFFFFFFFFFFFFFFFFFFFFFFFFFFFFFFFFFFFFFFFFFFFFFFFFFFFFFFFFFFF\t\t\t\n      DUP3 \t\t\t\n      PUSH [tag] 486\t\t\t\n      JUMP \t\t\t\n    tag 800\t\t\t\n      JUMPDEST \t\t\t\n      PUSH [tag] 801\t\t\t\n      DUP7 \t\t\t\n      DUP4 \t\t\t\n      PUSH [tag] 486\t\t\t\n      JUMP \t\t\t\n    tag 801\t\t\t\n      JUMPDEST \t\t\t\n      SWAP6 \t\t\t\n      POP \t\t\t\n      DUP1 \t\t\t\n      NOT \t\t\t\n      DUP5 \t\t\t\n      AND \t\t\t\n      SWAP4 \t\t\t\n      POP \t\t\t\n      DUP1 \t\t\t\n      DUP7 \t\t\t\n      AND \t\t\t\n      DUP5 \t\t\t\n      OR \t\t\t\n      SWAP3 \t\t\t\n      POP \t\t\t\n      POP \t\t\t\n      POP \t\t\t\n      SWAP4 \t\t\t\n      SWAP3 \t\t\t\n      POP \t\t\t\n      POP \t\t\t\n      POP \t\t\t\n      JUMP \t\t\t\n    tag 488\t\t\t\n      JUMPDEST \t\t\t\n      PUSH 0\t\t\t\n      DUP2 \t\t\t\n      SWAP1 \t\t\t\n      POP \t\t\t\n      SWAP2 \t\t\t\n      SWAP1 \t\t\t\n      POP \t\t\t\n      JUMP \t\t\t\n    tag 489\t\t\t\n      JUMPDEST \t\t\t\n      PUSH 0\t\t\t\n      PUSH [tag] 804\t\t\t\n      PUSH [tag] 805\t\t\t\n      PUSH [tag] 806\t\t\t\n      DUP5 \t\t\t\n      PUSH [tag] 413\t\t\t\n      JUMP \t\t\t\n    tag 806\t\t\t\n      JUMPDEST \t\t\t\n      PUSH [tag] 488\t\t\t\n      JUMP \t\t\t\n    tag 805\t\t\t\n      JUMPDEST \t\t\t\n      PUSH [tag] 413\t\t\t\n      JUMP \t\t\t\n    tag 804\t\t\t\n      JUMPDEST \t\t\t\n      SWAP1 \t\t\t\n      POP \t\t\t\n      SWAP2 \t\t\t\n      SWAP1 \t\t\t\n      POP \t\t\t\n      JUMP \t\t\t\n    tag 490\t\t\t\n      JUMPDEST \t\t\t\n      PUSH 0\t\t\t\n      DUP2 \t\t\t\n      SWAP1 \t\t\t\n      POP \t\t\t\n      SWAP2 \t\t\t\n      SWAP1 \t\t\t\n      POP \t\t\t\n      JUMP \t\t\t\n    tag 491\t\t\t\n      JUMPDEST \t\t\t\n      PUSH [tag] 809\t\t\t\n      DUP4 \t\t\t\n      PUSH [tag] 489\t\t\t\n      JUMP \t\t\t\n    tag 809\t\t\t\n      JUMPDEST \t\t\t\n      PUSH [tag] 810\t\t\t\n      PUSH [tag] 811\t\t\t\n      DUP3 \t\t\t\n      PUSH [tag] 490\t\t\t\n      JUMP \t\t\t\n    tag 811\t\t\t\n      JUMPDEST \t\t\t\n      DUP5 \t\t\t\n      DUP5 \t\t\t\n      SLOAD \t\t\t\n      PUSH [tag] 487\t\t\t\n      JUMP \t\t\t\n    tag 810\t\t\t\n      JUMPDEST \t\t\t\n      DUP3 \t\t\t\n      SSTORE \t\t\t\n      POP \t\t\t\n      POP \t\t\t\n      POP \t\t\t\n      POP \t\t\t\n      JUMP \t\t\t\n    tag 492\t\t\t\n      JUMPDEST \t\t\t\n      PUSH 0\t\t\t\n      PUSH 0\t\t\t\n      SWAP1 \t\t\t\n      POP \t\t\t\n      SWAP1 \t\t\t\n      JUMP \t\t\t\n    tag 493\t\t\t\n      JUMPDEST \t\t\t\n      PUSH [tag] 814\t\t\t\n      PUSH [tag] 492\t\t\t\n      JUMP \t\t\t\n    tag 814\t\t\t\n      JUMPDEST \t\t\t\n      PUSH [tag] 815\t\t\t\n      DUP2 \t\t\t\n      DUP5 \t\t\t\n      DUP5 \t\t\t\n      PUSH [tag] 491\t\t\t\n      JUMP \t\t\t\n    tag 815\t\t\t\n      JUMPDEST \t\t\t\n      POP \t\t\t\n      POP \t\t\t\n      POP \t\t\t\n      JUMP \t\t\t\n    tag 494\t\t\t\n      JUMPDEST \t\t\t\n    tag 817\t\t\t\n      JUMPDEST \t\t\t\n      DUP2 \t\t\t\n      DUP2 \t\t\t\n      LT \t\t\t\n      ISZERO \t\t\t\n      PUSH [tag] 819\t\t\t\n      JUMPI \t\t\t\n      PUSH [tag] 820\t\t\t\n      PUSH 0\t\t\t\n      DUP3 \t\t\t\n      PUSH [tag] 493\t\t\t\n      JUMP \t\t\t\n    tag 820\t\t\t\n      JUMPDEST \t\t\t\n      PUSH 1\t\t\t\n      DUP2 \t\t\t\n      ADD \t\t\t\n      SWAP1 \t\t\t\n      POP \t\t\t\n      PUSH [tag] 817\t\t\t\n      JUMP \t\t\t\n    tag 819\t\t\t\n      JUMPDEST \t\t\t\n      POP \t\t\t\n      POP \t\t\t\n      JUMP \t\t\t\n    tag 495\t\t\t\n      JUMPDEST \t\t\t\n      PUSH 1F\t\t\t\n      DUP3 \t\t\t\n      GT \t\t\t\n      ISZERO \t\t\t\n      PUSH [tag] 822\t\t\t\n      JUMPI \t\t\t\n      PUSH [tag] 823\t\t\t\n      DUP2 \t\t\t\n      PUSH [tag] 484\t\t\t\n      JUMP \t\t\t\n    tag 823\t\t\t\n      JUMPDEST \t\t\t\n      PUSH [tag] 824\t\t\t\n      DUP5 \t\t\t\n      PUSH [tag] 485\t\t\t\n      JUMP \t\t\t\n    tag 824\t\t\t\n      JUMPDEST \t\t\t\n      DUP2 \t\t\t\n      ADD \t\t\t\n      PUSH 20\t\t\t\n      DUP6 \t\t\t\n      LT \t\t\t\n      ISZERO \t\t\t\n      PUSH [tag] 825\t\t\t\n      JUMPI \t\t\t\n      DUP2 \t\t\t\n      SWAP1 \t\t\t\n      POP \t\t\t\n    tag 825\t\t\t\n      JUMPDEST \t\t\t\n      PUSH [tag] 826\t\t\t\n      PUSH [tag] 827\t\t\t\n      DUP6 \t\t\t\n      PUSH [tag] 485\t\t\t\n      JUMP \t\t\t\n    tag 827\t\t\t\n      JUMPDEST \t\t\t\n      DUP4 \t\t\t\n      ADD \t\t\t\n      DUP3 \t\t\t\n      PUSH [tag] 494\t\t\t\n      JUMP \t\t\t\n    tag 826\t\t\t\n      JUMPDEST \t\t\t\n      POP \t\t\t\n      POP \t\t\t\n    tag 822\t\t\t\n      JUMPDEST \t\t\t\n      POP \t\t\t\n      POP \t\t\t\n      POP \t\t\t\n      JUMP \t\t\t\n    tag 496\t\t\t\n      JUMPDEST \t\t\t\n      PUSH 0\t\t\t\n      DUP3 \t\t\t\n      DUP3 \t\t\t\n      SHR \t\t\t\n      SWAP1 \t\t\t\n      POP \t\t\t\n      SWAP3 \t\t\t\n      SWAP2 \t\t\t\n      POP \t\t\t\n      POP \t\t\t\n      JUMP \t\t\t\n    tag 497\t\t\t\n      JUMPDEST \t\t\t\n      PUSH 0\t\t\t\n      PUSH [tag] 830\t\t\t\n      PUSH 0\t\t\t\n      NOT \t\t\t\n      DUP5 \t\t\t\n      PUSH 8\t\t\t\n      MUL \t\t\t\n      PUSH [tag] 496\t\t\t\n      JUMP \t\t\t\n    tag 830\t\t\t\n      JUMPDEST \t\t\t\n      NOT \t\t\t\n      DUP1 \t\t\t\n      DUP4 \t\t\t\n      AND \t\t\t\n      SWAP2 \t\t\t\n      POP \t\t\t\n      POP \t\t\t\n      SWAP3 \t\t\t\n      SWAP2 \t\t\t\n      POP \t\t\t\n      POP \t\t\t\n      JUMP \t\t\t\n    tag 498\t\t\t\n      JUMPDEST \t\t\t\n      PUSH 0\t\t\t\n      PUSH [tag] 832\t\t\t\n      DUP4 \t\t\t\n      DUP4 \t\t\t\n      PUSH [tag] 497\t\t\t\n      JUMP \t\t\t\n    tag 832\t\t\t\n      JUMPDEST \t\t\t\n      SWAP2 \t\t\t\n      POP \t\t\t\n      DUP3 \t\t\t\n      PUSH 2\t\t\t\n      MUL \t\t\t\n      DUP3 \t\t\t\n      OR \t\t\t\n      SWAP1 \t\t\t\n      POP \t\t\t\n      SWAP3 \t\t\t\n      SWAP2 \t\t\t\n      POP \t\t\t\n      POP \t\t\t\n      JUMP \t\t\t\n    tag 239\t\t\t\n      JUMPDEST \t\t\t\n      PUSH [tag] 834\t\t\t\n      DUP3 \t\t\t\n      PUSH [tag] 452\t\t\t\n      JUMP \t\t\t\n    tag 834\t\t\t\n      JUMPDEST \t\t\t\n      PUSH FFFFFFFFFFFFFFFF\t\t\t\n      DUP2 \t\t\t\n      GT \t\t\t\n      ISZERO \t\t\t\n      PUSH [tag] 835\t\t\t\n      JUMPI \t\t\t\n      PUSH [tag] 836\t\t\t\n      PUSH [tag] 426\t\t\t\n      JUMP \t\t\t\n    tag 836\t\t\t\n      JUMPDEST \t\t\t\n    tag 835\t\t\t\n      JUMPDEST \t\t\t\n      PUSH [tag] 837\t\t\t\n      DUP3 \t\t\t\n      SLOAD \t\t\t\n      PUSH [tag] 323\t\t\t\n      JUMP \t\t\t\n    tag 837\t\t\t\n      JUMPDEST \t\t\t\n      PUSH [tag] 838\t\t\t\n      DUP3 \t\t\t\n      DUP3 \t\t\t\n      DUP6 \t\t\t\n      PUSH [tag] 495\t\t\t\n      JUMP \t\t\t\n    tag 838\t\t\t\n      JUMPDEST \t\t\t\n      PUSH 0\t\t\t\n      PUSH 20\t\t\t\n      SWAP1 \t\t\t\n      POP \t\t\t\n      PUSH 1F\t\t\t\n      DUP4 \t\t\t\n      GT \t\t\t\n      PUSH 1\t\t\t\n      DUP2 \t\t\t\n      EQ \t\t\t\n      PUSH [tag] 840\t\t\t\n      JUMPI \t\t\t\n      PUSH 0\t\t\t\n      DUP5 \t\t\t\n      ISZERO \t\t\t\n      PUSH [tag] 841\t\t\t\n      JUMPI \t\t\t\n      DUP3 \t\t\t\n      DUP8 \t\t\t\n      ADD \t\t\t\n      MLOAD \t\t\t\n      SWAP1 \t\t\t\n      POP \t\t\t\n    tag 841\t\t\t\n      JUMPDEST \t\t\t\n      PUSH [tag] 842\t\t\t\n      DUP6 \t\t\t\n      DUP3 \t\t\t\n      PUSH [tag] 498\t\t\t\n      JUMP \t\t\t\n    tag 842\t\t\t\n      JUMPDEST \t\t\t\n      DUP7 \t\t\t\n      SSTORE \t\t\t\n      POP \t\t\t\n      PUSH [tag] 839\t\t\t\n      JUMP \t\t\t\n    tag 840\t\t\t\n      JUMPDEST \t\t\t\n      PUSH 1F\t\t\t\n      NOT \t\t\t\n      DUP5 \t\t\t\n      AND \t\t\t\n      PUSH [tag] 843\t\t\t\n      DUP7 \t\t\t\n      PUSH [tag] 484\t\t\t\n      JUMP \t\t\t\n    tag 843\t\t\t\n      JUMPDEST \t\t\t\n      PUSH 0\t\t\t\n    tag 844\t\t\t\n      JUMPDEST \t\t\t\n      DUP3 \t\t\t\n      DUP2 \t\t\t\n      LT \t\t\t\n      ISZERO \t\t\t\n      PUSH [tag] 846\t\t\t\n      JUMPI \t\t\t\n      DUP5 \t\t\t\n      DUP10 \t\t\t\n      ADD \t\t\t\n      MLOAD \t\t\t\n      DUP3 \t\t\t\n      SSTORE \t\t\t\n      PUSH 1\t\t\t\n      DUP3 \t\t\t\n      ADD \t\t\t\n      SWAP2 \t\t\t\n      POP \t\t\t\n      PUSH 20\t\t\t\n      DUP6 \t\t\t\n      ADD \t\t\t\n      SWAP5 \t\t\t\n      POP \t\t\t\n      PUSH 20\t\t\t\n      DUP2 \t\t\t\n      ADD \t\t\t\n      SWAP1 \t\t\t\n      POP \t\t\t\n      PUSH [tag] 844\t\t\t\n      JUMP \t\t\t\n    tag 846\t\t\t\n      JUMPDEST \t\t\t\n      DUP7 \t\t\t\n      DUP4 \t\t\t\n      LT \t\t\t\n      ISZERO \t\t\t\n      PUSH [tag] 847\t\t\t\n      JUMPI \t\t\t\n      DUP5 \t\t\t\n      DUP10 \t\t\t\n      ADD \t\t\t\n      MLOAD \t\t\t\n      PUSH [tag] 848\t\t\t\n      PUSH 1F\t\t\t\n      DUP10 \t\t\t\n      AND \t\t\t\n      DUP3 \t\t\t\n      PUSH [tag] 497\t\t\t\n      JUMP \t\t\t\n    tag 848\t\t\t\n      JUMPDEST \t\t\t\n      DUP4 \t\t\t\n      SSTORE \t\t\t\n      POP \t\t\t\n    tag 847\t\t\t\n      JUMPDEST \t\t\t\n      PUSH 1\t\t\t\n      PUSH 2\t\t\t\n      DUP9 \t\t\t\n      MUL \t\t\t\n      ADD \t\t\t\n      DUP9 \t\t\t\n      SSTORE \t\t\t\n      POP \t\t\t\n      POP \t\t\t\n      POP \t\t\t\n    tag 839\t\t\t\n      JUMPDEST \t\t\t\n      POP \t\t\t\n      POP \t\t\t\n      POP \t\t\t\n      POP \t\t\t\n      POP \t\t\t\n      POP \t\t\t\n      JUMP \t\t\t\n    tag 241\t\t\t\n      JUMPDEST \t\t\t\n      PUSH 0\t\t\t\n      PUSH 40\t\t\t\n      DUP3 \t\t\t\n      ADD \t\t\t\n      SWAP1 \t\t\t\n      POP \t\t\t\n      PUSH [tag] 850\t\t\t\n      PUSH 0\t\t\t\n      DUP4 \t\t\t\n      ADD \t\t\t\n      DUP6 \t\t\t\n      PUSH [tag] 442\t\t\t\n      JUMP \t\t\t\n    tag 850\t\t\t\n      JUMPDEST \t\t\t\n      PUSH [tag] 851\t\t\t\n      PUSH 20\t\t\t\n      DUP4 \t\t\t\n      ADD \t\t\t\n      DUP5 \t\t\t\n      PUSH [tag] 442\t\t\t\n      JUMP \t\t\t\n    tag 851\t\t\t\n      JUMPDEST \t\t\t\n      SWAP4 \t\t\t\n      SWAP3 \t\t\t\n      POP \t\t\t\n      POP \t\t\t\n      POP \t\t\t\n      JUMP \t\t\t\n    tag 499\t\t\t\n      JUMPDEST \t\t\t\n      PUSH 496E76616C6964204C5000000000000000000000000000000000000000000000\t\t\t\n      PUSH 0\t\t\t\n      DUP3 \t\t\t\n      ADD \t\t\t\n      MSTORE \t\t\t\n      POP \t\t\t\n      JUMP \t\t\t\n    tag 500\t\t\t\n      JUMPDEST \t\t\t\n      PUSH 0\t\t\t\n      PUSH [tag] 854\t\t\t\n      PUSH A\t\t\t\n      DUP4 \t\t\t\n      PUSH [tag] 453\t\t\t\n      JUMP \t\t\t\n    tag 854\t\t\t\n      JUMPDEST \t\t\t\n      SWAP2 \t\t\t\n      POP \t\t\t\n      PUSH [tag] 855\t\t\t\n      DUP3 \t\t\t\n      PUSH [tag] 499\t\t\t\n      JUMP \t\t\t\n    tag 855\t\t\t\n      JUMPDEST \t\t\t\n      PUSH 20\t\t\t\n      DUP3 \t\t\t\n      ADD \t\t\t\n      SWAP1 \t\t\t\n      POP \t\t\t\n      SWAP2 \t\t\t\n      SWAP1 \t\t\t\n      POP \t\t\t\n      JUMP \t\t\t\n    tag 250\t\t\t\n      JUMPDEST \t\t\t\n      PUSH 0\t\t\t\n      PUSH 20\t\t\t\n      DUP3 \t\t\t\n      ADD \t\t\t\n      SWAP1 \t\t\t\n      POP \t\t\t\n      DUP2 \t\t\t\n      DUP2 \t\t\t\n      SUB \t\t\t\n      PUSH 0\t\t\t\n      DUP4 \t\t\t\n      ADD \t\t\t\n      MSTORE \t\t\t\n      PUSH [tag] 857\t\t\t\n      DUP2 \t\t\t\n      PUSH [tag] 500\t\t\t\n      JUMP \t\t\t\n    tag 857\t\t\t\n      JUMPDEST \t\t\t\n      SWAP1 \t\t\t\n      POP \t\t\t\n      SWAP2 \t\t\t\n      SWAP1 \t\t\t\n      POP \t\t\t\n      JUMP \t\t\t\n    tag 501\t\t\t\n      JUMPDEST \t\t\t\n      PUSH 0\t\t\t\n      PUSH FFFFFFFFFFFFFFFFFFFF\t\t\t\n      DUP3 \t\t\t\n      AND \t\t\t\n      SWAP1 \t\t\t\n      POP \t\t\t\n      SWAP2 \t\t\t\n      SWAP1 \t\t\t\n      POP \t\t\t\n      JUMP \t\t\t\n    tag 502\t\t\t\n      JUMPDEST \t\t\t\n      PUSH [tag] 860\t\t\t\n      DUP2 \t\t\t\n      PUSH [tag] 501\t\t\t\n      JUMP \t\t\t\n    tag 860\t\t\t\n      JUMPDEST \t\t\t\n      DUP2 \t\t\t\n      EQ \t\t\t\n      PUSH [tag] 861\t\t\t\n      JUMPI \t\t\t\n      PUSH 0\t\t\t\n      PUSH 0\t\t\t\n      REVERT \t\t\t\n    tag 861\t\t\t\n      JUMPDEST \t\t\t\n      POP \t\t\t\n      JUMP \t\t\t\n    tag 503\t\t\t\n      JUMPDEST \t\t\t\n      PUSH 0\t\t\t\n      DUP2 \t\t\t\n      MLOAD \t\t\t\n      SWAP1 \t\t\t\n      POP \t\t\t\n      PUSH [tag] 863\t\t\t\n      DUP2 \t\t\t\n      PUSH [tag] 502\t\t\t\n      JUMP \t\t\t\n    tag 863\t\t\t\n      JUMPDEST \t\t\t\n      SWAP3 \t\t\t\n      SWAP2 \t\t\t\n      POP \t\t\t\n      POP \t\t\t\n      JUMP \t\t\t\n    tag 504\t\t\t\n      JUMPDEST \t\t\t\n      PUSH 0\t\t\t\n      DUP2 \t\t\t\n      SWAP1 \t\t\t\n      POP \t\t\t\n      SWAP2 \t\t\t\n      SWAP1 \t\t\t\n      POP \t\t\t\n      JUMP \t\t\t\n    tag 505\t\t\t\n      JUMPDEST \t\t\t\n      PUSH [tag] 866\t\t\t\n      DUP2 \t\t\t\n      PUSH [tag] 504\t\t\t\n      JUMP \t\t\t\n    tag 866\t\t\t\n      JUMPDEST \t\t\t\n      DUP2 \t\t\t\n      EQ \t\t\t\n      PUSH [tag] 867\t\t\t\n      JUMPI \t\t\t\n      PUSH 0\t\t\t\n      PUSH 0\t\t\t\n      REVERT \t\t\t\n    tag 867\t\t\t\n      JUMPDEST \t\t\t\n      POP \t\t\t\n      JUMP \t\t\t\n    tag 506\t\t\t\n      JUMPDEST \t\t\t\n      PUSH 0\t\t\t\n      DUP2 \t\t\t\n      MLOAD \t\t\t\n      SWAP1 \t\t\t\n      POP \t\t\t\n      PUSH [tag] 869\t\t\t\n      DUP2 \t\t\t\n      PUSH [tag] 505\t\t\t\n      JUMP \t\t\t\n    tag 869\t\t\t\n      JUMPDEST \t\t\t\n      SWAP3 \t\t\t\n      SWAP2 \t\t\t\n      POP \t\t\t\n      POP \t\t\t\n      JUMP \t\t\t\n    tag 507\t\t\t\n      JUMPDEST \t\t\t\n      PUSH 0\t\t\t\n      DUP2 \t\t\t\n      MLOAD \t\t\t\n      SWAP1 \t\t\t\n      POP \t\t\t\n      PUSH [tag] 871\t\t\t\n      DUP2 \t\t\t\n      PUSH [tag] 414\t\t\t\n      JUMP \t\t\t\n    tag 871\t\t\t\n      JUMPDEST \t\t\t\n      SWAP3 \t\t\t\n      SWAP2 \t\t\t\n      POP \t\t\t\n      POP \t\t\t\n      JUMP \t\t\t\n    tag 267\t\t\t\n      JUMPDEST \t\t\t\n      PUSH 0\t\t\t\n      PUSH 0\t\t\t\n      PUSH 0\t\t\t\n      PUSH 0\t\t\t\n      PUSH 0\t\t\t\n      PUSH A0\t\t\t\n      DUP7 \t\t\t\n      DUP9 \t\t\t\n      SUB \t\t\t\n      SLT \t\t\t\n      ISZERO \t\t\t\n      PUSH [tag] 873\t\t\t\n      JUMPI \t\t\t\n      PUSH [tag] 874\t\t\t\n      PUSH [tag] 411\t\t\t\n      JUMP \t\t\t\n    tag 874\t\t\t\n      JUMPDEST \t\t\t\n    tag 873\t\t\t\n      JUMPDEST \t\t\t\n      PUSH 0\t\t\t\n      PUSH [tag] 875\t\t\t\n      DUP9 \t\t\t\n      DUP3 \t\t\t\n      DUP10 \t\t\t\n      ADD \t\t\t\n      PUSH [tag] 503\t\t\t\n      JUMP \t\t\t\n    tag 875\t\t\t\n      JUMPDEST \t\t\t\n      SWAP6 \t\t\t\n      POP \t\t\t\n      POP \t\t\t\n      PUSH 20\t\t\t\n      PUSH [tag] 876\t\t\t\n      DUP9 \t\t\t\n      DUP3 \t\t\t\n      DUP10 \t\t\t\n      ADD \t\t\t\n      PUSH [tag] 506\t\t\t\n      JUMP \t\t\t\n    tag 876\t\t\t\n      JUMPDEST \t\t\t\n      SWAP5 \t\t\t\n      POP \t\t\t\n      POP \t\t\t\n      PUSH 40\t\t\t\n      PUSH [tag] 877\t\t\t\n      DUP9 \t\t\t\n      DUP3 \t\t\t\n      DUP10 \t\t\t\n      ADD \t\t\t\n      PUSH [tag] 507\t\t\t\n      JUMP \t\t\t\n    tag 877\t\t\t\n      JUMPDEST \t\t\t\n      SWAP4 \t\t\t\n      POP \t\t\t\n      POP \t\t\t\n      PUSH 60\t\t\t\n      PUSH [tag] 878\t\t\t\n      DUP9 \t\t\t\n      DUP3 \t\t\t\n      DUP10 \t\t\t\n      ADD \t\t\t\n      PUSH [tag] 507\t\t\t\n      JUMP \t\t\t\n    tag 878\t\t\t\n      JUMPDEST \t\t\t\n      SWAP3 \t\t\t\n      POP \t\t\t\n      POP \t\t\t\n      PUSH 80\t\t\t\n      PUSH [tag] 879\t\t\t\n      DUP9 \t\t\t\n      DUP3 \t\t\t\n      DUP10 \t\t\t\n      ADD \t\t\t\n      PUSH [tag] 503\t\t\t\n      JUMP \t\t\t\n    tag 879\t\t\t\n      JUMPDEST \t\t\t\n      SWAP2 \t\t\t\n      POP \t\t\t\n      POP \t\t\t\n      SWAP3 \t\t\t\n      SWAP6 \t\t\t\n      POP \t\t\t\n      SWAP3 \t\t\t\n      SWAP6 \t\t\t\n      SWAP1 \t\t\t\n      SWAP4 \t\t\t\n      POP \t\t\t\n      JUMP \t\t\t\n    tag 508\t\t\t\n      JUMPDEST \t\t\t\n      PUSH 496E76616C6964204554482F5553442070726963652064617461000000000000\t\t\t\n      PUSH 0\t\t\t\n      DUP3 \t\t\t\n      ADD \t\t\t\n      MSTORE \t\t\t\n      POP \t\t\t\n      JUMP \t\t\t\n    tag 509\t\t\t\n      JUMPDEST \t\t\t\n      PUSH 0\t\t\t\n      PUSH [tag] 882\t\t\t\n      PUSH 1A\t\t\t\n      DUP4 \t\t\t\n      PUSH [tag] 453\t\t\t\n      JUMP \t\t\t\n    tag 882\t\t\t\n      JUMPDEST \t\t\t\n      SWAP2 \t\t\t\n      POP \t\t\t\n      PUSH [tag] 883\t\t\t\n      DUP3 \t\t\t\n      PUSH [tag] 508\t\t\t\n      JUMP \t\t\t\n    tag 883\t\t\t\n      JUMPDEST \t\t\t\n      PUSH 20\t\t\t\n      DUP3 \t\t\t\n      ADD \t\t\t\n      SWAP1 \t\t\t\n      POP \t\t\t\n      SWAP2 \t\t\t\n      SWAP1 \t\t\t\n      POP \t\t\t\n      JUMP \t\t\t\n    tag 270\t\t\t\n      JUMPDEST \t\t\t\n      PUSH 0\t\t\t\n      PUSH 20\t\t\t\n      DUP3 \t\t\t\n      ADD \t\t\t\n      SWAP1 \t\t\t\n      POP \t\t\t\n      DUP2 \t\t\t\n      DUP2 \t\t\t\n      SUB \t\t\t\n      PUSH 0\t\t\t\n      DUP4 \t\t\t\n      ADD \t\t\t\n      MSTORE \t\t\t\n      PUSH [tag] 885\t\t\t\n      DUP2 \t\t\t\n      PUSH [tag] 509\t\t\t\n      JUMP \t\t\t\n    tag 885\t\t\t\n      JUMPDEST \t\t\t\n      SWAP1 \t\t\t\n      POP \t\t\t\n      SWAP2 \t\t\t\n      SWAP1 \t\t\t\n      POP \t\t\t\n      JUMP \t\t\t\n    tag 510\t\t\t\n      JUMPDEST \t\t\t\n      PUSH 496E76616C696420616464726573730000000000000000000000000000000000\t\t\t\n      PUSH 0\t\t\t\n      DUP3 \t\t\t\n      ADD \t\t\t\n      MSTORE \t\t\t\n      POP \t\t\t\n      JUMP \t\t\t\n    tag 511\t\t\t\n      JUMPDEST \t\t\t\n      PUSH 0\t\t\t\n      PUSH [tag] 888\t\t\t\n      PUSH F\t\t\t\n      DUP4 \t\t\t\n      PUSH [tag] 453\t\t\t\n      JUMP \t\t\t\n    tag 888\t\t\t\n      JUMPDEST \t\t\t\n      SWAP2 \t\t\t\n      POP \t\t\t\n      PUSH [tag] 889\t\t\t\n      DUP3 \t\t\t\n      PUSH [tag] 510\t\t\t\n      JUMP \t\t\t\n    tag 889\t\t\t\n      JUMPDEST \t\t\t\n      PUSH 20\t\t\t\n      DUP3 \t\t\t\n      ADD \t\t\t\n      SWAP1 \t\t\t\n      POP \t\t\t\n      SWAP2 \t\t\t\n      SWAP1 \t\t\t\n      POP \t\t\t\n      JUMP \t\t\t\n    tag 279\t\t\t\n      JUMPDEST \t\t\t\n      PUSH 0\t\t\t\n      PUSH 20\t\t\t\n      DUP3 \t\t\t\n      ADD \t\t\t\n      SWAP1 \t\t\t\n      POP \t\t\t\n      DUP2 \t\t\t\n      DUP2 \t\t\t\n      SUB \t\t\t\n      PUSH 0\t\t\t\n      DUP4 \t\t\t\n      ADD \t\t\t\n      MSTORE \t\t\t\n      PUSH [tag] 891\t\t\t\n      DUP2 \t\t\t\n      PUSH [tag] 511\t\t\t\n      JUMP \t\t\t\n    tag 891\t\t\t\n      JUMPDEST \t\t\t\n      SWAP1 \t\t\t\n      POP \t\t\t\n      SWAP2 \t\t\t\n      SWAP1 \t\t\t\n      POP \t\t\t\n      JUMP \t\t\t\n    tag 512\t\t\t\n      JUMPDEST \t\t\t\n      PUSH 416C726561647920616E2061646D696E00000000000000000000000000000000\t\t\t\n      PUSH 0\t\t\t\n      DUP3 \t\t\t\n      ADD \t\t\t\n      MSTORE \t\t\t\n      POP \t\t\t\n      JUMP \t\t\t\n    tag 513\t\t\t\n      JUMPDEST \t\t\t\n      PUSH 0\t\t\t\n      PUSH [tag] 894\t\t\t\n      PUSH 10\t\t\t\n      DUP4 \t\t\t\n      PUSH [tag] 453\t\t\t\n      JUMP \t\t\t\n    tag 894\t\t\t\n      JUMPDEST \t\t\t\n      SWAP2 \t\t\t\n      POP \t\t\t\n      PUSH [tag] 895\t\t\t\n      DUP3 \t\t\t\n      PUSH [tag] 512\t\t\t\n      JUMP \t\t\t\n    tag 895\t\t\t\n      JUMPDEST \t\t\t\n      PUSH 20\t\t\t\n      DUP3 \t\t\t\n      ADD \t\t\t\n      SWAP1 \t\t\t\n      POP \t\t\t\n      SWAP2 \t\t\t\n      SWAP1 \t\t\t\n      POP \t\t\t\n      JUMP \t\t\t\n    tag 282\t\t\t\n      JUMPDEST \t\t\t\n      PUSH 0\t\t\t\n      PUSH 20\t\t\t\n      DUP3 \t\t\t\n      ADD \t\t\t\n      SWAP1 \t\t\t\n      POP \t\t\t\n      DUP2 \t\t\t\n      DUP2 \t\t\t\n      SUB \t\t\t\n      PUSH 0\t\t\t\n      DUP4 \t\t\t\n      ADD \t\t\t\n      MSTORE \t\t\t\n      PUSH [tag] 897\t\t\t\n      DUP2 \t\t\t\n      PUSH [tag] 513\t\t\t\n      JUMP \t\t\t\n    tag 897\t\t\t\n      JUMPDEST \t\t\t\n      SWAP1 \t\t\t\n      POP \t\t\t\n      SWAP2 \t\t\t\n      SWAP1 \t\t\t\n      POP \t\t\t\n      JUMP \t\t\t\n    tag 514\t\t\t\n      JUMPDEST \t\t\t\n      PUSH 4E6F7420616E204C502100000000000000000000000000000000000000000000\t\t\t\n      PUSH 0\t\t\t\n      DUP3 \t\t\t\n      ADD \t\t\t\n      MSTORE \t\t\t\n      POP \t\t\t\n      JUMP \t\t\t\n    tag 515\t\t\t\n      JUMPDEST \t\t\t\n      PUSH 0\t\t\t\n      PUSH [tag] 900\t\t\t\n      PUSH A\t\t\t\n      DUP4 \t\t\t\n      PUSH [tag] 453\t\t\t\n      JUMP \t\t\t\n    tag 900\t\t\t\n      JUMPDEST \t\t\t\n      SWAP2 \t\t\t\n      POP \t\t\t\n      PUSH [tag] 901\t\t\t\n      DUP3 \t\t\t\n      PUSH [tag] 514\t\t\t\n      JUMP \t\t\t\n    tag 901\t\t\t\n      JUMPDEST \t\t\t\n      PUSH 20\t\t\t\n      DUP3 \t\t\t\n      ADD \t\t\t\n      SWAP1 \t\t\t\n      POP \t\t\t\n      SWAP2 \t\t\t\n      SWAP1 \t\t\t\n      POP \t\t\t\n      JUMP \t\t\t\n    tag 299\t\t\t\n      JUMPDEST \t\t\t\n      PUSH 0\t\t\t\n      PUSH 20\t\t\t\n      DUP3 \t\t\t\n      ADD \t\t\t\n      SWAP1 \t\t\t\n      POP \t\t\t\n      DUP2 \t\t\t\n      DUP2 \t\t\t\n      SUB \t\t\t\n      PUSH 0\t\t\t\n      DUP4 \t\t\t\n      ADD \t\t\t\n      MSTORE \t\t\t\n      PUSH [tag] 903\t\t\t\n      DUP2 \t\t\t\n      PUSH [tag] 515\t\t\t\n      JUMP \t\t\t\n    tag 903\t\t\t\n      JUMPDEST \t\t\t\n      SWAP1 \t\t\t\n      POP \t\t\t\n      SWAP2 \t\t\t\n      SWAP1 \t\t\t\n      POP \t\t\t\n      JUMP \t\t\t\n    tag 516\t\t\t\n      JUMPDEST \t\t\t\n      PUSH 436173682063616C6C20616D6F756E74206D7573742062652067726561746572\t\t\t\n      PUSH 0\t\t\t\n      DUP3 \t\t\t\n      ADD \t\t\t\n      MSTORE \t\t\t\n      PUSH 207468616E207A65726F00000000000000000000000000000000000000000000\t\t\t\n      PUSH 20\t\t\t\n      DUP3 \t\t\t\n      ADD \t\t\t\n      MSTORE \t\t\t\n      POP \t\t\t\n      JUMP \t\t\t\n    tag 517\t\t\t\n      JUMPDEST \t\t\t\n      PUSH 0\t\t\t\n      PUSH [tag] 906\t\t\t\n      PUSH 2A\t\t\t\n      DUP4 \t\t\t\n      PUSH [tag] 453\t\t\t\n      JUMP \t\t\t\n    tag 906\t\t\t\n      JUMPDEST \t\t\t\n      SWAP2 \t\t\t\n      POP \t\t\t\n      PUSH [tag] 907\t\t\t\n      DUP3 \t\t\t\n      PUSH [tag] 516\t\t\t\n      JUMP \t\t\t\n    tag 907\t\t\t\n      JUMPDEST \t\t\t\n      PUSH 40\t\t\t\n      DUP3 \t\t\t\n      ADD \t\t\t\n      SWAP1 \t\t\t\n      POP \t\t\t\n      SWAP2 \t\t\t\n      SWAP1 \t\t\t\n      POP \t\t\t\n      JUMP \t\t\t\n    tag 302\t\t\t\n      JUMPDEST \t\t\t\n      PUSH 0\t\t\t\n      PUSH 20\t\t\t\n      DUP3 \t\t\t\n      ADD \t\t\t\n      SWAP1 \t\t\t\n      POP \t\t\t\n      DUP2 \t\t\t\n      DUP2 \t\t\t\n      SUB \t\t\t\n      PUSH 0\t\t\t\n      DUP4 \t\t\t\n      ADD \t\t\t\n      MSTORE \t\t\t\n      PUSH [tag] 909\t\t\t\n      DUP2 \t\t\t\n      PUSH [tag] 517\t\t\t\n      JUMP \t\t\t\n    tag 909\t\t\t\n      JUMPDEST \t\t\t\n      SWAP1 \t\t\t\n      POP \t\t\t\n      SWAP2 \t\t\t\n      SWAP1 \t\t\t\n      POP \t\t\t\n      JUMP \t\t\t\n    tag 518\t\t\t\n      JUMPDEST \t\t\t\n      PUSH 446561646C696E65206D757374206265206C61746572207468616E2074686520\t\t\t\n      PUSH 0\t\t\t\n      DUP3 \t\t\t\n      ADD \t\t\t\n      MSTORE \t\t\t\n      PUSH 63757272656E742074696D652E00000000000000000000000000000000000000\t\t\t\n      PUSH 20\t\t\t\n      DUP3 \t\t\t\n      ADD \t\t\t\n      MSTORE \t\t\t\n      POP \t\t\t\n      JUMP \t\t\t\n    tag 519\t\t\t\n      JUMPDEST \t\t\t\n      PUSH 0\t\t\t\n      PUSH [tag] 912\t\t\t\n      PUSH 2D\t\t\t\n      DUP4 \t\t\t\n      PUSH [tag] 453\t\t\t\n      JUMP \t\t\t\n    tag 912\t\t\t\n      JUMPDEST \t\t\t\n      SWAP2 \t\t\t\n      POP \t\t\t\n      PUSH [tag] 913\t\t\t\n      DUP3 \t\t\t\n      PUSH [tag] 518\t\t\t\n      JUMP \t\t\t\n    tag 913\t\t\t\n      JUMPDEST \t\t\t\n      PUSH 40\t\t\t\n      DUP3 \t\t\t\n      ADD \t\t\t\n      SWAP1 \t\t\t\n      POP \t\t\t\n      SWAP2 \t\t\t\n      SWAP1 \t\t\t\n      POP \t\t\t\n      JUMP \t\t\t\n    tag 306\t\t\t\n      JUMPDEST \t\t\t\n      PUSH 0\t\t\t\n      PUSH 20\t\t\t\n      DUP3 \t\t\t\n      ADD \t\t\t\n      SWAP1 \t\t\t\n      POP \t\t\t\n      DUP2 \t\t\t\n      DUP2 \t\t\t\n      SUB \t\t\t\n      PUSH 0\t\t\t\n      DUP4 \t\t\t\n      ADD \t\t\t\n      MSTORE \t\t\t\n      PUSH [tag] 915\t\t\t\n      DUP2 \t\t\t\n      PUSH [tag] 519\t\t\t\n      JUMP \t\t\t\n    tag 915\t\t\t\n      JUMPDEST \t\t\t\n      SWAP1 \t\t\t\n      POP \t\t\t\n      SWAP2 \t\t\t\n      SWAP1 \t\t\t\n      POP \t\t\t\n      JUMP \t\t\t\n    tag 520\t\t\t\n      JUMPDEST \t\t\t\n      PUSH 4E657720646561646C696E65206D75737420626520616674657220746865206C\t\t\t\n      PUSH 0\t\t\t\n      DUP3 \t\t\t\n      ADD \t\t\t\n      MSTORE \t\t\t\n      PUSH 61737420646561646C696E650000000000000000000000000000000000000000\t\t\t\n      PUSH 20\t\t\t\n      DUP3 \t\t\t\n      ADD \t\t\t\n      MSTORE \t\t\t\n      POP \t\t\t\n      JUMP \t\t\t\n    tag 521\t\t\t\n      JUMPDEST \t\t\t\n      PUSH 0\t\t\t\n      PUSH [tag] 918\t\t\t\n      PUSH 2C\t\t\t\n      DUP4 \t\t\t\n      PUSH [tag] 453\t\t\t\n      JUMP \t\t\t\n    tag 918\t\t\t\n      JUMPDEST \t\t\t\n      SWAP2 \t\t\t\n      POP \t\t\t\n      PUSH [tag] 919\t\t\t\n      DUP3 \t\t\t\n      PUSH [tag] 520\t\t\t\n      JUMP \t\t\t\n    tag 919\t\t\t\n      JUMPDEST \t\t\t\n      PUSH 40\t\t\t\n      DUP3 \t\t\t\n      ADD \t\t\t\n      SWAP1 \t\t\t\n      POP \t\t\t\n      SWAP2 \t\t\t\n      SWAP1 \t\t\t\n      POP \t\t\t\n      JUMP \t\t\t\n    tag 314\t\t\t\n      JUMPDEST \t\t\t\n      PUSH 0\t\t\t\n      PUSH 20\t\t\t\n      DUP3 \t\t\t\n      ADD \t\t\t\n      SWAP1 \t\t\t\n      POP \t\t\t\n      DUP2 \t\t\t\n      DUP2 \t\t\t\n      SUB \t\t\t\n      PUSH 0\t\t\t\n      DUP4 \t\t\t\n      ADD \t\t\t\n      MSTORE \t\t\t\n      PUSH [tag] 921\t\t\t\n      DUP2 \t\t\t\n      PUSH [tag] 521\t\t\t\n      JUMP \t\t\t\n    tag 921\t\t\t\n      JUMPDEST \t\t\t\n      SWAP1 \t\t\t\n      POP \t\t\t\n      SWAP2 \t\t\t\n      SWAP1 \t\t\t\n      POP \t\t\t\n      JUMP \t\t\t\n    tag 317\t\t\t\n      JUMPDEST \t\t\t\n      PUSH 0\t\t\t\n      PUSH 60\t\t\t\n      DUP3 \t\t\t\n      ADD \t\t\t\n      SWAP1 \t\t\t\n      POP \t\t\t\n      PUSH [tag] 923\t\t\t\n      PUSH 0\t\t\t\n      DUP4 \t\t\t\n      ADD \t\t\t\n      DUP7 \t\t\t\n      PUSH [tag] 442\t\t\t\n      JUMP \t\t\t\n    tag 923\t\t\t\n      JUMPDEST \t\t\t\n      PUSH [tag] 924\t\t\t\n      PUSH 20\t\t\t\n      DUP4 \t\t\t\n      ADD \t\t\t\n      DUP6 \t\t\t\n      PUSH [tag] 442\t\t\t\n      JUMP \t\t\t\n    tag 924\t\t\t\n      JUMPDEST \t\t\t\n      PUSH [tag] 925\t\t\t\n      PUSH 40\t\t\t\n      DUP4 \t\t\t\n      ADD \t\t\t\n      DUP5 \t\t\t\n      PUSH [tag] 442\t\t\t\n      JUMP \t\t\t\n    tag 925\t\t\t\n      JUMPDEST \t\t\t\n      SWAP5 \t\t\t\n      SWAP4 \t\t\t\n      POP \t\t\t\n      POP \t\t\t\n      POP \t\t\t\n      POP \t\t\t\n      JUMP \t\t\t\n    tag 522\t\t\t\n      JUMPDEST \t\t\t\n      PUSH 436173682063616C6C20646F6573206E6F742065786973740000000000000000\t\t\t\n      PUSH 0\t\t\t\n      DUP3 \t\t\t\n      ADD \t\t\t\n      MSTORE \t\t\t\n      POP \t\t\t\n      JUMP \t\t\t\n    tag 523\t\t\t\n      JUMPDEST \t\t\t\n      PUSH 0\t\t\t\n      PUSH [tag] 928\t\t\t\n      PUSH 18\t\t\t\n      DUP4 \t\t\t\n      PUSH [tag] 453\t\t\t\n      JUMP \t\t\t\n    tag 928\t\t\t\n      JUMPDEST \t\t\t\n      SWAP2 \t\t\t\n      POP \t\t\t\n      PUSH [tag] 929\t\t\t\n      DUP3 \t\t\t\n      PUSH [tag] 522\t\t\t\n      JUMP \t\t\t\n    tag 929\t\t\t\n      JUMPDEST \t\t\t\n      PUSH 20\t\t\t\n      DUP3 \t\t\t\n      ADD \t\t\t\n      SWAP1 \t\t\t\n      POP \t\t\t\n      SWAP2 \t\t\t\n      SWAP1 \t\t\t\n      POP \t\t\t\n      JUMP \t\t\t\n    tag 342\t\t\t\n      JUMPDEST \t\t\t\n      PUSH 0\t\t\t\n      PUSH 20\t\t\t\n      DUP3 \t\t\t\n      ADD \t\t\t\n      SWAP1 \t\t\t\n      POP \t\t\t\n      DUP2 \t\t\t\n      DUP2 \t\t\t\n      SUB \t\t\t\n      PUSH 0\t\t\t\n      DUP4 \t\t\t\n      ADD \t\t\t\n      MSTORE \t\t\t\n      PUSH [tag] 931\t\t\t\n      DUP2 \t\t\t\n      PUSH [tag] 523\t\t\t\n      JUMP \t\t\t\n    tag 931\t\t\t\n      JUMPDEST \t\t\t\n      SWAP1 \t\t\t\n      POP \t\t\t\n      SWAP2 \t\t\t\n      SWAP1 \t\t\t\n      POP \t\t\t\n      JUMP \t\t\t\n    tag 524\t\t\t\n      JUMPDEST \t\t\t\n      PUSH 436173682063616C6C206E6F7420657865637574656420796574000000000000\t\t\t\n      PUSH 0\t\t\t\n      DUP3 \t\t\t\n      ADD \t\t\t\n      MSTORE \t\t\t\n      POP \t\t\t\n      JUMP \t\t\t\n    tag 525\t\t\t\n      JUMPDEST \t\t\t\n      PUSH 0\t\t\t\n      PUSH [tag] 934\t\t\t\n      PUSH 1A\t\t\t\n      DUP4 \t\t\t\n      PUSH [tag] 453\t\t\t\n      JUMP \t\t\t\n    tag 934\t\t\t\n      JUMPDEST \t\t\t\n      SWAP2 \t\t\t\n      POP \t\t\t\n      PUSH [tag] 935\t\t\t\n      DUP3 \t\t\t\n      PUSH [tag] 524\t\t\t\n      JUMP \t\t\t\n    tag 935\t\t\t\n      JUMPDEST \t\t\t\n      PUSH 20\t\t\t\n      DUP3 \t\t\t\n      ADD \t\t\t\n      SWAP1 \t\t\t\n      POP \t\t\t\n      SWAP2 \t\t\t\n      SWAP1 \t\t\t\n      POP \t\t\t\n      JUMP \t\t\t\n    tag 345\t\t\t\n      JUMPDEST \t\t\t\n      PUSH 0\t\t\t\n      PUSH 20\t\t\t\n      DUP3 \t\t\t\n      ADD \t\t\t\n      SWAP1 \t\t\t\n      POP \t\t\t\n      DUP2 \t\t\t\n      DUP2 \t\t\t\n      SUB \t\t\t\n      PUSH 0\t\t\t\n      DUP4 \t\t\t\n      ADD \t\t\t\n      MSTORE \t\t\t\n      PUSH [tag] 937\t\t\t\n      DUP2 \t\t\t\n      PUSH [tag] 525\t\t\t\n      JUMP \t\t\t\n    tag 937\t\t\t\n      JUMPDEST \t\t\t\n      SWAP1 \t\t\t\n      POP \t\t\t\n      SWAP2 \t\t\t\n      SWAP1 \t\t\t\n      POP \t\t\t\n      JUMP \t\t\t\n    tag 526\t\t\t\n      JUMPDEST \t\t\t\n      PUSH 436173682063616C6C20616C7265616479206578656375746564000000000000\t\t\t\n      PUSH 0\t\t\t\n      DUP3 \t\t\t\n      ADD \t\t\t\n      MSTORE \t\t\t\n      POP \t\t\t\n      JUMP \t\t\t\n    tag 527\t\t\t\n      JUMPDEST \t\t\t\n      PUSH 0\t\t\t\n      PUSH [tag] 940\t\t\t\n      PUSH 1A\t\t\t\n      DUP4 \t\t\t\n      PUSH [tag] 453\t\t\t\n      JUMP \t\t\t\n    tag 940\t\t\t\n      JUMPDEST \t\t\t\n      SWAP2 \t\t\t\n      POP \t\t\t\n      PUSH [tag] 941\t\t\t\n      DUP3 \t\t\t\n      PUSH [tag] 526\t\t\t\n      JUMP \t\t\t\n    tag 941\t\t\t\n      JUMPDEST \t\t\t\n      PUSH 20\t\t\t\n      DUP3 \t\t\t\n      ADD \t\t\t\n      SWAP1 \t\t\t\n      POP \t\t\t\n      SWAP2 \t\t\t\n      SWAP1 \t\t\t\n      POP \t\t\t\n      JUMP \t\t\t\n    tag 362\t\t\t\n      JUMPDEST \t\t\t\n      PUSH 0\t\t\t\n      PUSH 20\t\t\t\n      DUP3 \t\t\t\n      ADD \t\t\t\n      SWAP1 \t\t\t\n      POP \t\t\t\n      DUP2 \t\t\t\n      DUP2 \t\t\t\n      SUB \t\t\t\n      PUSH 0\t\t\t\n      DUP4 \t\t\t\n      ADD \t\t\t\n      MSTORE \t\t\t\n      PUSH [tag] 943\t\t\t\n      DUP2 \t\t\t\n      PUSH [tag] 527\t\t\t\n      JUMP \t\t\t\n    tag 943\t\t\t\n      JUMPDEST \t\t\t\n      SWAP1 \t\t\t\n      POP \t\t\t\n      SWAP2 \t\t\t\n      SWAP1 \t\t\t\n      POP \t\t\t\n      JUMP \t\t\t\n    tag 528\t\t\t\n      JUMPDEST \t\t\t\n      PUSH 596F7520617265206E6F7420616E204C50000000000000000000000000000000\t\t\t\n      PUSH 0\t\t\t\n      DUP3 \t\t\t\n      ADD \t\t\t\n      MSTORE \t\t\t\n      POP \t\t\t\n      JUMP \t\t\t\n    tag 529\t\t\t\n      JUMPDEST \t\t\t\n      PUSH 0\t\t\t\n      PUSH [tag] 946\t\t\t\n      PUSH 11\t\t\t\n      DUP4 \t\t\t\n      PUSH [tag] 453\t\t\t\n      JUMP \t\t\t\n    tag 946\t\t\t\n      JUMPDEST \t\t\t\n      SWAP2 \t\t\t\n      POP \t\t\t\n      PUSH [tag] 947\t\t\t\n      DUP3 \t\t\t\n      PUSH [tag] 528\t\t\t\n      JUMP \t\t\t\n    tag 947\t\t\t\n      JUMPDEST \t\t\t\n      PUSH 20\t\t\t\n      DUP3 \t\t\t\n      ADD \t\t\t\n      SWAP1 \t\t\t\n      POP \t\t\t\n      SWAP2 \t\t\t\n      SWAP1 \t\t\t\n      POP \t\t\t\n      JUMP \t\t\t\n    tag 372\t\t\t\n      JUMPDEST \t\t\t\n      PUSH 0\t\t\t\n      PUSH 20\t\t\t\n      DUP3 \t\t\t\n      ADD \t\t\t\n      SWAP1 \t\t\t\n      POP \t\t\t\n      DUP2 \t\t\t\n      DUP2 \t\t\t\n      SUB \t\t\t\n      PUSH 0\t\t\t\n      DUP4 \t\t\t\n      ADD \t\t\t\n      MSTORE \t\t\t\n      PUSH [tag] 949\t\t\t\n      DUP2 \t\t\t\n      PUSH [tag] 529\t\t\t\n      JUMP \t\t\t\n    tag 949\t\t\t\n      JUMPDEST \t\t\t\n      SWAP1 \t\t\t\n      POP \t\t\t\n      SWAP2 \t\t\t\n      SWAP1 \t\t\t\n      POP \t\t\t\n      JUMP \t\t\t\n    tag 381\t\t\t\n      JUMPDEST \t\t\t\n      PUSH 0\t\t\t\n      PUSH [tag] 951\t\t\t\n      DUP3 \t\t\t\n      PUSH [tag] 413\t\t\t\n      JUMP \t\t\t\n    tag 951\t\t\t\n      JUMPDEST \t\t\t\n      SWAP2 \t\t\t\n      POP \t\t\t\n      PUSH [tag] 952\t\t\t\n      DUP4 \t\t\t\n      PUSH [tag] 413\t\t\t\n      JUMP \t\t\t\n    tag 952\t\t\t\n      JUMPDEST \t\t\t\n      SWAP3 \t\t\t\n      POP \t\t\t\n      DUP3 \t\t\t\n      DUP3 \t\t\t\n      ADD \t\t\t\n      SWAP1 \t\t\t\n      POP \t\t\t\n      DUP1 \t\t\t\n      DUP3 \t\t\t\n      GT \t\t\t\n      ISZERO \t\t\t\n      PUSH [tag] 953\t\t\t\n      JUMPI \t\t\t\n      PUSH [tag] 954\t\t\t\n      PUSH [tag] 472\t\t\t\n      JUMP \t\t\t\n    tag 954\t\t\t\n      JUMPDEST \t\t\t\n    tag 953\t\t\t\n      JUMPDEST \t\t\t\n      SWAP3 \t\t\t\n      SWAP2 \t\t\t\n      POP \t\t\t\n      POP \t\t\t\n      JUMP \t\t\t\n    tag 530\t\t\t\n      JUMPDEST \t\t\t\n      PUSH 0\t\t\t\n      DUP2 \t\t\t\n      SLOAD \t\t\t\n      PUSH [tag] 956\t\t\t\n      DUP2 \t\t\t\n      PUSH [tag] 323\t\t\t\n      JUMP \t\t\t\n    tag 956\t\t\t\n      JUMPDEST \t\t\t\n      PUSH [tag] 957\t\t\t\n      DUP2 \t\t\t\n      DUP7 \t\t\t\n      PUSH [tag] 453\t\t\t\n      JUMP \t\t\t\n    tag 957\t\t\t\n      JUMPDEST \t\t\t\n      SWAP5 \t\t\t\n      POP \t\t\t\n      PUSH 1\t\t\t\n      DUP3 \t\t\t\n      AND \t\t\t\n      PUSH 0\t\t\t\n      DUP2 \t\t\t\n      EQ \t\t\t\n      PUSH [tag] 959\t\t\t\n      JUMPI \t\t\t\n      PUSH 1\t\t\t\n      DUP2 \t\t\t\n      EQ \t\t\t\n      PUSH [tag] 960\t\t\t\n      JUMPI \t\t\t\n      PUSH [tag] 958\t\t\t\n      JUMP \t\t\t\n    tag 959\t\t\t\n      JUMPDEST \t\t\t\n      PUSH FF\t\t\t\n      NOT \t\t\t\n      DUP4 \t\t\t\n      AND \t\t\t\n      DUP7 \t\t\t\n      MSTORE \t\t\t\n      DUP2 \t\t\t\n      ISZERO \t\t\t\n      ISZERO \t\t\t\n      PUSH 20\t\t\t\n      MUL \t\t\t\n      DUP7 \t\t\t\n      ADD \t\t\t\n      SWAP4 \t\t\t\n      POP \t\t\t\n      PUSH [tag] 958\t\t\t\n      JUMP \t\t\t\n    tag 960\t\t\t\n      JUMPDEST \t\t\t\n      PUSH [tag] 961\t\t\t\n      DUP6 \t\t\t\n      PUSH [tag] 484\t\t\t\n      JUMP \t\t\t\n    tag 961\t\t\t\n      JUMPDEST \t\t\t\n      PUSH 0\t\t\t\n    tag 962\t\t\t\n      JUMPDEST \t\t\t\n      DUP4 \t\t\t\n      DUP2 \t\t\t\n      LT \t\t\t\n      ISZERO \t\t\t\n      PUSH [tag] 964\t\t\t\n      JUMPI \t\t\t\n      DUP2 \t\t\t\n      SLOAD \t\t\t\n      DUP2 \t\t\t\n      DUP10 \t\t\t\n      ADD \t\t\t\n      MSTORE \t\t\t\n      PUSH 1\t\t\t\n      DUP3 \t\t\t\n      ADD \t\t\t\n      SWAP2 \t\t\t\n      POP \t\t\t\n      PUSH 20\t\t\t\n      DUP2 \t\t\t\n      ADD \t\t\t\n      SWAP1 \t\t\t\n      POP \t\t\t\n      PUSH [tag] 962\t\t\t\n      JUMP \t\t\t\n    tag 964\t\t\t\n      JUMPDEST \t\t\t\n      DUP1 \t\t\t\n      DUP9 \t\t\t\n      ADD \t\t\t\n      SWAP6 \t\t\t\n      POP \t\t\t\n      POP \t\t\t\n      POP \t\t\t\n    tag 958\t\t\t\n      JUMPDEST \t\t\t\n      POP \t\t\t\n      POP \t\t\t\n      POP \t\t\t\n      SWAP3 \t\t\t\n      SWAP2 \t\t\t\n      POP \t\t\t\n      POP \t\t\t\n      JUMP \t\t\t\n    tag 384\t\t\t\n      JUMPDEST \t\t\t\n      PUSH 0\t\t\t\n      PUSH 60\t\t\t\n      DUP3 \t\t\t\n      ADD \t\t\t\n      SWAP1 \t\t\t\n      POP \t\t\t\n      DUP2 \t\t\t\n      DUP2 \t\t\t\n      SUB \t\t\t\n      PUSH 0\t\t\t\n      DUP4 \t\t\t\n      ADD \t\t\t\n      MSTORE \t\t\t\n      PUSH [tag] 966\t\t\t\n      DUP2 \t\t\t\n      DUP7 \t\t\t\n      PUSH [tag] 530\t\t\t\n      JUMP \t\t\t\n    tag 966\t\t\t\n      JUMPDEST \t\t\t\n      SWAP1 \t\t\t\n      POP \t\t\t\n      PUSH [tag] 967\t\t\t\n      PUSH 20\t\t\t\n      DUP4 \t\t\t\n      ADD \t\t\t\n      DUP6 \t\t\t\n      PUSH [tag] 442\t\t\t\n      JUMP \t\t\t\n    tag 967\t\t\t\n      JUMPDEST \t\t\t\n      PUSH [tag] 968\t\t\t\n      PUSH 40\t\t\t\n      DUP4 \t\t\t\n      ADD \t\t\t\n      DUP5 \t\t\t\n      PUSH [tag] 442\t\t\t\n      JUMP \t\t\t\n    tag 968\t\t\t\n      JUMPDEST \t\t\t\n      SWAP5 \t\t\t\n      SWAP4 \t\t\t\n      POP \t\t\t\n      POP \t\t\t\n      POP \t\t\t\n      POP \t\t\t\n      JUMP \t\t\t\n    tag 531\t\t\t\n      JUMPDEST \t\t\t\n      PUSH 5265656E7472616E637947756172643A207265656E7472616E742063616C6C00\t\t\t\n      PUSH 0\t\t\t\n      DUP3 \t\t\t\n      ADD \t\t\t\n      MSTORE \t\t\t\n      POP \t\t\t\n      JUMP \t\t\t\n    tag 532\t\t\t\n      JUMPDEST \t\t\t\n      PUSH 0\t\t\t\n      PUSH [tag] 971\t\t\t\n      PUSH 1F\t\t\t\n      DUP4 \t\t\t\n      PUSH [tag] 453\t\t\t\n      JUMP \t\t\t\n    tag 971\t\t\t\n      JUMPDEST \t\t\t\n      SWAP2 \t\t\t\n      POP \t\t\t\n      PUSH [tag] 972\t\t\t\n      DUP3 \t\t\t\n      PUSH [tag] 531\t\t\t\n      JUMP \t\t\t\n    tag 972\t\t\t\n      JUMPDEST \t\t\t\n      PUSH 20\t\t\t\n      DUP3 \t\t\t\n      ADD \t\t\t\n      SWAP1 \t\t\t\n      POP \t\t\t\n      SWAP2 \t\t\t\n      SWAP1 \t\t\t\n      POP \t\t\t\n      JUMP \t\t\t\n    tag 389\t\t\t\n      JUMPDEST \t\t\t\n      PUSH 0\t\t\t\n      PUSH 20\t\t\t\n      DUP3 \t\t\t\n      ADD \t\t\t\n      SWAP1 \t\t\t\n      POP \t\t\t\n      DUP2 \t\t\t\n      DUP2 \t\t\t\n      SUB \t\t\t\n      PUSH 0\t\t\t\n      DUP4 \t\t\t\n      ADD \t\t\t\n      MSTORE \t\t\t\n      PUSH [tag] 974\t\t\t\n      DUP2 \t\t\t\n      PUSH [tag] 532\t\t\t\n      JUMP \t\t\t\n    tag 974\t\t\t\n      JUMPDEST \t\t\t\n      SWAP1 \t\t\t\n      POP \t\t\t\n      SWAP2 \t\t\t\n      SWAP1 \t\t\t\n      POP \t\t\t\n      JUMP \t\t\t\n    tag 533\t\t\t\n      JUMPDEST \t\t\t\n      PUSH 5061757361626C653A206E6F7420706175736564000000000000000000000000\t\t\t\n      PUSH 0\t\t\t\n      DUP3 \t\t\t\n      ADD \t\t\t\n      MSTORE \t\t\t\n      POP \t\t\t\n      JUMP \t\t\t\n    tag 534\t\t\t\n      JUMPDEST \t\t\t\n      PUSH 0\t\t\t\n      PUSH [tag] 977\t\t\t\n      PUSH 14\t\t\t\n      DUP4 \t\t\t\n      PUSH [tag] 453\t\t\t\n      JUMP \t\t\t\n    tag 977\t\t\t\n      JUMPDEST \t\t\t\n      SWAP2 \t\t\t\n      POP \t\t\t\n      PUSH [tag] 978\t\t\t\n      DUP3 \t\t\t\n      PUSH [tag] 533\t\t\t\n      JUMP \t\t\t\n    tag 978\t\t\t\n      JUMPDEST \t\t\t\n      PUSH 20\t\t\t\n      DUP3 \t\t\t\n      ADD \t\t\t\n      SWAP1 \t\t\t\n      POP \t\t\t\n      SWAP2 \t\t\t\n      SWAP1 \t\t\t\n      POP \t\t\t\n      JUMP \t\t\t\n    tag 408\t\t\t\n      JUMPDEST \t\t\t\n      PUSH 0\t\t\t\n      PUSH 20\t\t\t\n      DUP3 \t\t\t\n      ADD \t\t\t\n      SWAP1 \t\t\t\n      POP \t\t\t\n      DUP2 \t\t\t\n      DUP2 \t\t\t\n      SUB \t\t\t\n      PUSH 0\t\t\t\n      DUP4 \t\t\t\n      ADD \t\t\t\n      MSTORE \t\t\t\n      PUSH [tag] 980\t\t\t\n      DUP2 \t\t\t\n      PUSH [tag] 534\t\t\t\n      JUMP \t\t\t\n    tag 980\t\t\t\n      JUMPDEST \t\t\t\n      SWAP1 \t\t\t\n      POP \t\t\t\n      SWAP2 \t\t\t\n      SWAP1 \t\t\t\n      POP \t\t\t\n      JUMP \t\t\t\n    .data\n"
}